{
	"data": {
		"bytecode": {
			"linkReferences": {},
			"object": "60806040523480156200001157600080fd5b5060405162003f4838038062003f48833981016040819052620000349162000102565b6200003f3362000095565b60018055600680546001600160a01b039485166001600160a01b03199182168117909255600280548216909217909155600580549390941692811683179093556003805490931690911790915560045562000143565b600080546001600160a01b038381166001600160a01b0319831681178455604051919092169283917f8be0079c531659141344cd1fd0a4f28419497f9722a3daafe3b4186f6b6457e09190a35050565b80516001600160a01b0381168114620000fd57600080fd5b919050565b6000806000606084860312156200011857600080fd5b6200012384620000e5565b92506200013360208501620000e5565b9150604084015190509250925092565b613df580620001536000396000f3fe6080604052600436106101185760003560e01c8063715018a6116100a05780638dd95002116100645780638dd950021461032e578063b421e91e1461034e578063c21ebd071461036e578063e3ceb16b1461038e578063f2fde38b146103a157600080fd5b8063715018a61461026a57806382c98b2d1461027f57806384b73115146102bc57806387e3f21c146102dc5780638da5cb5b146102fc57600080fd5b80632f883da4116100e75780632f883da4146101b35780633b0a48bb146101f75780633f138d4b146102175780635cb88a3f146102375780635fcbdaed1461024a57600080fd5b8063098d32281461013e5780630f4e4e6314610167578063257d9bb81461017d5780632b4652eb1461019357600080fd5b36610139576006546001600160a01b03163314610137576101376136bb565b005b600080fd5b34801561014a57600080fd5b5061015460001981565b6040519081526020015b60405180910390f35b34801561017357600080fd5b5061015460045481565b34801561018957600080fd5b506101546103e881565b34801561019f57600080fd5b506101376101ae3660046136d1565b6103c1565b3480156101bf57600080fd5b506101d36101ce3660046136ff565b610404565b6040805193845260208401929092526001600160a01b03169082015260600161015e565b34801561020357600080fd5b506101d36102123660046136ff565b610803565b34801561022357600080fd5b50610137610232366004613741565b610b03565b610137610245366004613741565b610b66565b34801561025657600080fd5b5061013761026536600461376d565b610c5e565b34801561027657600080fd5b50610137610e11565b34801561028b57600080fd5b5061029f61029a3660046137a2565b610e25565b60408051938452602084019290925215159082015260600161015e565b3480156102c857600080fd5b506101376102d7366004613801565b6113da565b3480156102e857600080fd5b506101376102f7366004613847565b611481565b34801561030857600080fd5b506000546001600160a01b03165b6040516001600160a01b03909116815260200161015e565b34801561033a57600080fd5b50600254610316906001600160a01b031681565b34801561035a57600080fd5b5061013761036936600461389d565b611525565b34801561037a57600080fd5b50600354610316906001600160a01b031681565b61013761039c366004613922565b6115f5565b3480156103ad57600080fd5b506101376103bc366004613989565b61171c565b6103c9611795565b60048190556040518181527fc7e29c44236bfea8bef0d337e382f5f27ec5bc4d425d82437f115f9b59d2ba799060200160405180910390a150565b600080600080866001600160a01b0316630dfe16816040518163ffffffff1660e01b8152600401602060405180830381865afa158015610448573d6000803e3d6000fd5b505050506040513d601f19601f8201168201806040525081019061046c91906139a6565b90506000876001600160a01b031663d21220a76040518163ffffffff1660e01b8152600401602060405180830381865afa1580156104ae573d6000803e3d6000fd5b505050506040513d601f19601f820116820180604052508101906104d291906139a6565b9050816001600160a01b0316866001600160a01b031614806105055750806001600160a01b0316866001600160a01b0316145b61054d5760405162461bcd60e51b815260206004820152601460248201527305a61703a20546f6b656e206e6f7420696e204c560641b60448201526064015b60405180910390fd5b600080896001600160a01b0316630902f1ac6040518163ffffffff1660e01b8152600401606060405180830381865afa15801561058e573d6000803e3d6000fd5b505050506040513d601f19601f820116820180604052508101906105b291906139df565b506001600160701b031691506001600160701b03169150876001600160a01b0316836001600160a01b0316036106ee5760008a6001600160a01b03166318160ddd6040518163ffffffff1660e01b8152600401602060405180830381865afa158015610622573d6000803e3d6000fd5b505050506040513d601f19601f820116820180604052508101906106469190613a24565b610650848c613a53565b61065a9190613a72565b90506106678184846117ef565b600354604051630153543560e21b81526004810183905260248101869052604481018590529199506001600160a01b03169063054d50d490606401602060405180830381865afa1580156106bf573d6000803e3d6000fd5b505050506040513d601f19601f820116820180604052508101906106e39190613a24565b9650849550506107f6565b60008a6001600160a01b03166318160ddd6040518163ffffffff1660e01b8152600401602060405180830381865afa15801561072e573d6000803e3d6000fd5b505050506040513d601f19601f820116820180604052508101906107529190613a24565b61075c838c613a53565b6107669190613a72565b90506107738183856117ef565b600354604051630153543560e21b81526004810183905260248101859052604481018690529199506001600160a01b03169063054d50d490606401602060405180830381865afa1580156107cb573d6000803e3d6000fd5b505050506040513d601f19601f820116820180604052508101906107ef9190613a24565b9650839550505b5050505093509350939050565b600080600080846001600160a01b0316630dfe16816040518163ffffffff1660e01b8152600401602060405180830381865afa158015610847573d6000803e3d6000fd5b505050506040513d601f19601f8201168201806040525081019061086b91906139a6565b90506000856001600160a01b031663d21220a76040518163ffffffff1660e01b8152600401602060405180830381865afa1580156108ad573d6000803e3d6000fd5b505050506040513d601f19601f820116820180604052508101906108d191906139a6565b9050816001600160a01b0316886001600160a01b031614806109045750806001600160a01b0316886001600160a01b0316145b6109445760405162461bcd60e51b81526020600482015260116024820152705a61703a2057726f6e6720746f6b656e7360781b6044820152606401610544565b600080876001600160a01b0316630902f1ac6040518163ffffffff1660e01b8152600401606060405180830381865afa158015610985573d6000803e3d6000fd5b505050506040513d601f19601f820116820180604052508101906109a991906139df565b506001600160701b031691506001600160701b03169150896001600160a01b0316846001600160a01b031603610a6a578294506109e78983836117ef565b600354604051630153543560e21b81526004810183905260248101859052604481018490529198506001600160a01b03169063054d50d490606401602060405180830381865afa158015610a3f573d6000803e3d6000fd5b505050506040513d601f19601f82011682018060405250810190610a639190613a24565b95506107f6565b839450610a788982846117ef565b600354604051630153543560e21b81526004810183905260248101849052604481018590529198506001600160a01b03169063054d50d490606401602060405180830381865afa158015610ad0573d6000803e3d6000fd5b505050506040513d601f19601f82011682018060405250810190610af49190613a24565b95505050505093509350939050565b610b0b611795565b610b1f6001600160a01b0383163383611958565b816001600160a01b03167f74545154aac348a3eac92596bd1971957ca94795f4e954ec5f613b55fab7812982604051610b5a91815260200190565b60405180910390a25050565b600260015403610b885760405162461bcd60e51b815260040161054490613a94565b600260018190555460408051630d0e30db60e41b815290516001600160a01b039092169163d0e30db0913491600480830192600092919082900301818588803b158015610bd457600080fd5b505af1158015610be8573d6000803e3d6000fd5b505060065460009350610c0992506001600160a01b031690503485856119c0565b604080513481526020810183905291925033916001600160a01b038616916000917fa71185a0ff368de4e9e445d8601c4fbd50d9b674e4e43f5f8feafb8d64a2e13e910160405180910390a450506001805550565b600260015403610c805760405162461bcd60e51b815260040161054490613a94565b6002600155610c9a6001600160a01b038416338585611f1c565b600654600090610cb59085906001600160a01b031684611f5a565b600254604051632e1a7d4d60e01b8152600481018390529192506001600160a01b031690632e1a7d4d90602401600060405180830381600087803b158015610cfc57600080fd5b505af1158015610d10573d6000803e3d6000fd5b5050604080516000808252602082019283905293503392508491610d349190613b0d565b60006040518083038185875af1925050503d8060008114610d71576040519150601f19603f3d011682016040523d82523d6000602084013e610d76565b606091505b5050905080610dbc5760405162461bcd60e51b81526020600482015260126024820152711093908e881d1c985b9cd9995c8819985a5b60721b6044820152606401610544565b604080518581526020810184905233916000916001600160a01b038916917f20ef8a4c975ec6c340089d8171a0f9c6a6324b11e3ecc4353155186f6c638c2891015b60405180910390a4505060018055505050565b610e19611795565b610e236000612449565b565b6000806000836001600160a01b0316630dfe16816040518163ffffffff1660e01b8152600401602060405180830381865afa158015610e68573d6000803e3d6000fd5b505050506040513d601f19601f82011682018060405250810190610e8c91906139a6565b6001600160a01b0316886001600160a01b03161480610f1d5750836001600160a01b031663d21220a76040518163ffffffff1660e01b8152600401602060405180830381865afa158015610ee4573d6000803e3d6000fd5b505050506040513d601f19601f82011682018060405250810190610f0891906139a6565b6001600160a01b0316886001600160a01b0316145b610f5d5760405162461bcd60e51b815260206004820152601160248201527005a61703a2057726f6e6720746f6b656e3607c1b6044820152606401610544565b836001600160a01b0316630dfe16816040518163ffffffff1660e01b8152600401602060405180830381865afa158015610f9b573d6000803e3d6000fd5b505050506040513d601f19601f82011682018060405250810190610fbf91906139a6565b6001600160a01b0316876001600160a01b031614806110505750836001600160a01b031663d21220a76040518163ffffffff1660e01b8152600401602060405180830381865afa158015611017573d6000803e3d6000fd5b505050506040513d601f19601f8201168201806040525081019061103b91906139a6565b6001600160a01b0316876001600160a01b0316145b6110905760405162461bcd60e51b81526020600482015260116024820152705a61703a2057726f6e6720746f6b656e3160781b6044820152606401610544565b866001600160a01b0316886001600160a01b0316036110e45760405162461bcd60e51b815260206004820152601060248201526f5a61703a2053616d6520746f6b656e7360801b6044820152606401610544565b600080856001600160a01b0316630902f1ac6040518163ffffffff1660e01b8152600401606060405180830381865afa158015611125573d6000803e3d6000fd5b505050506040513d601f19601f8201168201806040525081019061114991906139df565b506001600160701b031691506001600160701b03169150856001600160a01b0316630dfe16816040518163ffffffff1660e01b8152600401602060405180830381865afa15801561119e573d6000803e3d6000fd5b505050506040513d601f19601f820116820180604052508101906111c291906139a6565b6001600160a01b03168a6001600160a01b0316036112d6576111e48288613a53565b6111ee828a613a53565b116111fa5760006111fd565b60015b925061120c8888848487612499565b9450821561129757600354604051630153543560e21b81526004810187905260248101849052604481018390526001600160a01b039091169063054d50d4906064015b602060405180830381865afa15801561126c573d6000803e3d6000fd5b505050506040513d601f19601f820116820180604052508101906112909190613a24565b93506113cd565b600354604051630153543560e21b81526004810187905260248101839052604481018490526001600160a01b039091169063054d50d49060640161124f565b6112e08188613a53565b6112ea838a613a53565b116112f65760006112f9565b60015b92506113088888838587612499565b9450821561134f57600354604051630153543560e21b81526004810187905260248101839052604481018490526001600160a01b039091169063054d50d49060640161124f565b600354604051630153543560e21b81526004810187905260248101849052604481018390526001600160a01b039091169063054d50d490606401602060405180830381865afa1580156113a6573d6000803e3d6000fd5b505050506040513d601f19601f820116820180604052508101906113ca9190613a24565b93505b5050955095509592505050565b6002600154036113fc5760405162461bcd60e51b815260040161054490613a94565b60026001556114166001600160a01b038516338685611f1c565b6000611423858584611f5a565b90506114396001600160a01b0385163383611958565b604080518481526020810183905233916001600160a01b0387811692908916917f20ef8a4c975ec6c340089d8171a0f9c6a6324b11e3ecc4353155186f6c638c289101610dfe565b6002600154036114a35760405162461bcd60e51b815260040161054490613a94565b60026001556114bd6001600160a01b038516333086611f1c565b60006114cb858585856119c0565b9050336001600160a01b0316836001600160a01b0316866001600160a01b03167fa71185a0ff368de4e9e445d8601c4fbd50d9b674e4e43f5f8feafb8d64a2e13e8785604051610dfe929190918252602082015260400190565b6002600154036115475760405162461bcd60e51b815260040161054490613a94565b60026001556115616001600160a01b038916333089611f1c565b6115766001600160a01b038816333088611f1c565b6000611588898989898989898961288e565b604080516001600160a01b038881168252602082018b90529181018990526060810183905291925033918a8216918c16907f4ff29158e89c3af93365bf0fa1d14c5768109fb139f24b97c8a7d510b2d5e3f69060800160405180910390a450506001805550505050505050565b6002600154036116175760405162461bcd60e51b815260040161054490613a94565b600260018190555460408051630d0e30db60e41b815290516001600160a01b039092169163d0e30db0913491600480830192600092919082900301818588803b15801561166357600080fd5b505af1158015611677573d6000803e3d6000fd5b50611693935050506001600160a01b0388169050333088611f1c565b6006546000906116b2906001600160a01b03168834898989898961288e565b604080516001600160a01b038881168252346020830152918101899052606081018390529192503391908916906000907f4ff29158e89c3af93365bf0fa1d14c5768109fb139f24b97c8a7d510b2d5e3f69060800160405180910390a45050600180555050505050565b611724611795565b6001600160a01b0381166117895760405162461bcd60e51b815260206004820152602660248201527f4f776e61626c653a206e6577206f776e657220697320746865207a65726f206160448201526564647265737360d01b6064820152608401610544565b61179281612449565b50565b6000546001600160a01b03163314610e235760405162461bcd60e51b815260206004820181905260248201527f4f776e61626c653a2063616c6c6572206973206e6f7420746865206f776e65726044820152606401610544565b6000806117fd600286613a72565b600354604051630153543560e21b81526004810183905260248101879052604481018690529192506000916001600160a01b039091169063054d50d490606401602060405180830381865afa15801561185a573d6000803e3d6000fd5b505050506040513d601f19601f8201168201806040525081019061187e9190613a24565b6003549091506000906001600160a01b031663ad615dec846118a0818a613b29565b6118aa868a613b41565b6040516001600160e01b031960e086901b168152600481019390935260248301919091526044820152606401602060405180830381865afa1580156118f3573d6000803e3d6000fd5b505050506040513d601f19601f820116820180604052508101906119179190613a24565b905061194181836119288680613a53565b6119329190613a53565b61193c9190613a72565b613131565b61194b9088613b41565b93505050505b9392505050565b6040516001600160a01b0383166024820152604481018290526119bb90849063a9059cbb60e01b906064015b60408051601f198184030181529190526020810180516001600160e01b03166001600160e01b0319909316929092179091526132b2565b505050565b60006103e8841015611a0a5760405162461bcd60e51b81526020600482015260136024820152725a61703a20416d6f756e7420746f6f206c6f7760681b6044820152606401610544565b6000836001600160a01b0316630dfe16816040518163ffffffff1660e01b8152600401602060405180830381865afa158015611a4a573d6000803e3d6000fd5b505050506040513d601f19601f82011682018060405250810190611a6e91906139a6565b90506000846001600160a01b031663d21220a76040518163ffffffff1660e01b8152600401602060405180830381865afa158015611ab0573d6000803e3d6000fd5b505050506040513d601f19601f82011682018060405250810190611ad491906139a6565b9050816001600160a01b0316876001600160a01b03161480611b075750806001600160a01b0316876001600160a01b0316145b611b475760405162461bcd60e51b81526020600482015260116024820152705a61703a2057726f6e6720746f6b656e7360781b6044820152606401610544565b6040805160028082526060820183526000926020830190803683370190505090508781600081518110611b7c57611b7c613b58565b60200260200101906001600160a01b031690816001600160a01b0316815250506000806000886001600160a01b0316630902f1ac6040518163ffffffff1660e01b8152600401606060405180830381865afa158015611bdf573d6000803e3d6000fd5b505050506040513d601f19601f82011682018060405250810190611c0391906139df565b506001600160701b031691506001600160701b031691506103e88210158015611c2e57506103e88110155b611c725760405162461bcd60e51b81526020600482015260156024820152745a61703a20526573657276657320746f6f206c6f7760581b6044820152606401610544565b8a6001600160a01b0316866001600160a01b031603611cf457611c968a83836117ef565b92508484600181518110611cac57611cac613b58565b6001600160a01b0390921660209283029190910190910152600454611cd18484613a72565b1015611cef5760405162461bcd60e51b815260040161054490613b6e565b611d58565b611cff8a82846117ef565b92508584600181518110611d1557611d15613b58565b6001600160a01b0390921660209283029190910190910152600454611d3a8483613a72565b1015611d585760405162461bcd60e51b815260040161054490613b6e565b5050611d6389613384565b6003546040516338ed173960e01b81526000916001600160a01b0316906338ed173990611d9c9085908b90889030904290600401613ba5565b6000604051808303816000875af1158015611dbb573d6000803e3d6000fd5b505050506040513d6000823e601f3d908101601f19168201604052611de39190810190613c16565b9050896001600160a01b0316856001600160a01b031603611e0c57611e0784613384565b611e15565b611e1585613384565b60035483516001600160a01b039091169063e8e33700908590600090611e3d57611e3d613b58565b602002602001015185600181518110611e5857611e58613b58565b602002602001015184600081518110611e7357611e73613b58565b60200260200101518d611e869190613b41565b85600181518110611e9957611e99613b58565b602002602001015160018033426040518963ffffffff1660e01b8152600401611ec9989796959493929190613cd4565b6060604051808303816000875af1158015611ee8573d6000803e3d6000fd5b505050506040513d601f19601f82011682018060405250810190611f0c9190613d1d565b9c9b505050505050505050505050565b6040516001600160a01b0380851660248301528316604482015260648101829052611f549085906323b872dd60e01b90608401611984565b50505050565b600080846001600160a01b0316630dfe16816040518163ffffffff1660e01b8152600401602060405180830381865afa158015611f9b573d6000803e3d6000fd5b505050506040513d601f19601f82011682018060405250810190611fbf91906139a6565b90506000856001600160a01b031663d21220a76040518163ffffffff1660e01b8152600401602060405180830381865afa158015612001573d6000803e3d6000fd5b505050506040513d601f19601f8201168201806040525081019061202591906139a6565b9050816001600160a01b0316856001600160a01b031614806120585750806001600160a01b0316856001600160a01b0316145b61209b5760405162461bcd60e51b815260206004820152601460248201527305a61703a20546f6b656e206e6f7420696e204c560641b6044820152606401610544565b60405163226bf2d160e21b815230600482015260009081906001600160a01b038916906389afcb449060240160408051808303816000875af11580156120e5573d6000803e3d6000fd5b505050506040513d601f19601f820116820180604052508101906121099190613d4b565b915091506103e882101561216b5760405162461bcd60e51b8152602060048201526024808201527f50616e63616b65526f757465723a20494e53554646494349454e545f415f414d60448201526313d5539560e21b6064820152608401610544565b6103e88110156121c95760405162461bcd60e51b8152602060048201526024808201527f50616e63616b65526f757465723a20494e53554646494349454e545f425f414d60448201526313d5539560e21b6064820152608401610544565b60408051600280825260608201835260009260208301908036833701905050905087816001815181106121fe576121fe613b58565b6001600160a01b039283166020918202929092010152600090898116908716036122bd57848260008151811061223657612236613b58565b6001600160a01b0392831660209182029290920101526040516370a0823160e01b8152306004820152908616906370a0823190602401602060405180830381865afa158015612289573d6000803e3d6000fd5b505050506040513d601f19601f820116820180604052508101906122ad9190613a24565b90506122b885613384565b612353565b85826000815181106122d1576122d1613b58565b6001600160a01b0392831660209182029290920101526040516370a0823160e01b8152306004820152908716906370a0823190602401602060405180830381865afa158015612324573d6000803e3d6000fd5b505050506040513d601f19601f820116820180604052508101906123489190613a24565b905061235386613384565b6003546040516338ed173960e01b81526001600160a01b03909116906338ed17399061238b9084908c90879030904290600401613ba5565b6000604051808303816000875af11580156123aa573d6000803e3d6000fd5b505050506040513d6000823e601f3d908101601f191682016040526123d29190810190613c16565b506040516370a0823160e01b81523060048201526001600160a01b038a16906370a0823190602401602060405180830381865afa158015612417573d6000803e3d6000fd5b505050506040513d601f19601f8201168201806040525081019061243b9190613a24565b9a9950505050505050505050565b600080546001600160a01b038381166001600160a01b0319831681178455604051919092169283917f8be0079c531659141344cd1fd0a4f28419497f9722a3daafe3b4186f6b6457e09190a35050565b6000806124a68587613a53565b6124b08589613a53565b116124bc5760006124bf565b60015b9050821515811515146125145760405162461bcd60e51b815260206004820152601a60248201527f5a61703a2057726f6e6720747261646520646972656374696f6e0000000000006044820152606401610544565b80156126d1576000600285612529888a613a53565b6125339190613a72565b61253d908a613b41565b6125479190613a72565b600354604051630153543560e21b81526004810183905260248101899052604481018890529192506000916001600160a01b039091169063054d50d490606401602060405180830381865afa1580156125a4573d6000803e3d6000fd5b505050506040513d601f19601f820116820180604052508101906125c89190613a24565b6003549091506000906001600160a01b031663ad615dec846125ea818c613b29565b6125f4868c613b41565b6040516001600160e01b031960e086901b168152600481019390935260248301919091526044820152606401602060405180830381865afa15801561263d573d6000803e3d6000fd5b505050506040513d601f19601f820116820180604052508101906126619190613a24565b9050600261266f8389613b41565b612679858b613b29565b612683908c613a53565b61268d9190613a72565b612697908c613b41565b6126a19190613a72565b92506126b281836119288680613a53565b6126bd846002613a53565b6126c79190613b41565b9450505050612884565b60006002866126e0878b613a53565b6126ea9190613a72565b6126f49089613b41565b6126fe9190613a72565b600354604051630153543560e21b81526004810183905260248101889052604481018990529192506000916001600160a01b039091169063054d50d490606401602060405180830381865afa15801561275b573d6000803e3d6000fd5b505050506040513d601f19601f8201168201806040525081019061277f9190613a24565b6003549091506000906001600160a01b031663ad615dec846127a1818b613b29565b6127ab868d613b41565b6040516001600160e01b031960e086901b168152600481019390935260248301919091526044820152606401602060405180830381865afa1580156127f4573d6000803e3d6000fd5b505050506040513d601f19601f820116820180604052508101906128189190613a24565b90506002612826838a613b41565b612830858a613b29565b61283a908d613a53565b6128449190613a72565b61284e908b613b41565b6128589190613a72565b925061286981836119288680613a53565b612874846002613a53565b61287e9190613b41565b94505050505b5095945050505050565b6000846001600160a01b0316630dfe16816040518163ffffffff1660e01b8152600401602060405180830381865afa1580156128ce573d6000803e3d6000fd5b505050506040513d601f19601f820116820180604052508101906128f291906139a6565b6001600160a01b0316896001600160a01b031614806129835750846001600160a01b031663d21220a76040518163ffffffff1660e01b8152600401602060405180830381865afa15801561294a573d6000803e3d6000fd5b505050506040513d601f19601f8201168201806040525081019061296e91906139a6565b6001600160a01b0316896001600160a01b0316145b6129c35760405162461bcd60e51b815260206004820152601160248201527005a61703a2057726f6e6720746f6b656e3607c1b6044820152606401610544565b846001600160a01b0316630dfe16816040518163ffffffff1660e01b8152600401602060405180830381865afa158015612a01573d6000803e3d6000fd5b505050506040513d601f19601f82011682018060405250810190612a2591906139a6565b6001600160a01b0316886001600160a01b03161480612ab65750846001600160a01b031663d21220a76040518163ffffffff1660e01b8152600401602060405180830381865afa158015612a7d573d6000803e3d6000fd5b505050506040513d601f19601f82011682018060405250810190612aa191906139a6565b6001600160a01b0316886001600160a01b0316145b612af65760405162461bcd60e51b81526020600482015260116024820152705a61703a2057726f6e6720746f6b656e3160781b6044820152606401610544565b876001600160a01b0316896001600160a01b031603612b4a5760405162461bcd60e51b815260206004820152601060248201526f5a61703a2053616d6520746f6b656e7360801b6044820152606401610544565b6000806000876001600160a01b0316630902f1ac6040518163ffffffff1660e01b8152600401606060405180830381865afa158015612b8d573d6000803e3d6000fd5b505050506040513d601f19601f82011682018060405250810190612bb191906139df565b506001600160701b031691506001600160701b031691506103e88210158015612bdc57506103e88110155b612c205760405162461bcd60e51b81526020600482015260156024820152745a61703a20526573657276657320746f6f206c6f7760581b6044820152606401610544565b876001600160a01b0316630dfe16816040518163ffffffff1660e01b8152600401602060405180830381865afa158015612c5e573d6000803e3d6000fd5b505050506040513d601f19601f82011682018060405250810190612c8291906139a6565b6001600160a01b03168c6001600160a01b031603612cda57612ca78a8a848489612499565b600454909350612cb78484613a72565b1015612cd55760405162461bcd60e51b815260040161054490613b6e565b612d15565b612ce78a8a838589612499565b600454909350612cf78483613a72565b1015612d155760405162461bcd60e51b815260040161054490613b6e565b505084811115612d675760405162461bcd60e51b815260206004820152601c60248201527f5a61703a20416d6f756e7420746f207377617020746f6f2068696768000000006044820152606401610544565b6040805160028082526060820183526000926020830190803683370190505090508315612e04578a81600081518110612da257612da2613b58565b60200260200101906001600160a01b031690816001600160a01b0316815250508981600181518110612dd657612dd6613b58565b60200260200101906001600160a01b031690816001600160a01b031681525050612dff8b613384565b612e75565b8981600081518110612e1857612e18613b58565b60200260200101906001600160a01b031690816001600160a01b0316815250508a81600181518110612e4c57612e4c613b58565b60200260200101906001600160a01b031690816001600160a01b031681525050612e758a613384565b6003546040516338ed173960e01b81526000916001600160a01b0316906338ed173990612eae9086908a90879030904290600401613ba5565b6000604051808303816000875af1158015612ecd573d6000803e3d6000fd5b505050506040513d6000823e601f3d908101601f19168201604052612ef59190810190613c16565b9050841561301257612f068b613384565b60035482516001600160a01b039091169063e8e33700908490600090612f2e57612f2e613b58565b602002602001015184600181518110612f4957612f49613b58565b602002602001015184600081518110612f6457612f64613b58565b60200260200101518e612f779190613b41565b85600181518110612f8a57612f8a613b58565b60200260200101518e612f9d9190613b29565b60018033426040518963ffffffff1660e01b8152600401612fc5989796959493929190613cd4565b6060604051808303816000875af1158015612fe4573d6000803e3d6000fd5b505050506040513d601f19601f820116820180604052508101906130089190613d1d565b9550613122915050565b61301b8c613384565b60035482516001600160a01b039091169063e8e3370090849060009061304357613043613b58565b60200260200101518460018151811061305e5761305e613b58565b60200260200101518460008151811061307957613079613b58565b60200260200101518d61308c9190613b41565b8560018151811061309f5761309f613b58565b60200260200101518f6130b29190613b29565b60018033426040518963ffffffff1660e01b81526004016130da989796959493929190613cd4565b6060604051808303816000875af11580156130f9573d6000803e3d6000fd5b505050506040513d601f19601f8201168201806040525081019061311d9190613d1d565b955050505b50505098975050505050505050565b60008160000361314357506000919050565b816001600160801b821061315c5760809190911c9060401b5b6801000000000000000082106131775760409190911c9060201b5b640100000000821061318e5760209190911c9060101b5b6201000082106131a35760109190911c9060081b5b61010082106131b75760089190911c9060041b5b601082106131ca5760049190911c9060021b5b600882106131d65760011b5b60016131e28286613a72565b6131ec9083613b29565b901c905060016131fc8286613a72565b6132069083613b29565b901c905060016132168286613a72565b6132209083613b29565b901c905060016132308286613a72565b61323a9083613b29565b901c9050600161324a8286613a72565b6132549083613b29565b901c905060016132648286613a72565b61326e9083613b29565b901c9050600161327e8286613a72565b6132889083613b29565b901c905060006132988286613a72565b90508082106132a757806132a9565b815b95945050505050565b6000613307826040518060400160405280602081526020017f5361666545524332303a206c6f772d6c6576656c2063616c6c206661696c6564815250856001600160a01b03166134259092919063ffffffff16565b8051909150156119bb57808060200190518101906133259190613d6f565b6119bb5760405162461bcd60e51b815260206004820152602a60248201527f5361666545524332303a204552433230206f7065726174696f6e20646964206e6044820152691bdd081cdd58d8d9595960b21b6064820152608401610544565b600554604051636eb1769f60e11b81523060048201526001600160a01b03918216602482015269d3c21bcecceda10000009183169063dd62ed3e90604401602060405180830381865afa1580156133df573d6000803e3d6000fd5b505050506040513d601f19601f820116820180604052508101906134039190613a24565b101561179257600554611792906001600160a01b03838116911660001961343c565b60606134348484600085613551565b949350505050565b8015806134b65750604051636eb1769f60e11b81523060048201526001600160a01b03838116602483015284169063dd62ed3e90604401602060405180830381865afa158015613490573d6000803e3d6000fd5b505050506040513d601f19601f820116820180604052508101906134b49190613a24565b155b6135215760405162461bcd60e51b815260206004820152603660248201527f5361666545524332303a20617070726f76652066726f6d206e6f6e2d7a65726f60448201527520746f206e6f6e2d7a65726f20616c6c6f77616e636560501b6064820152608401610544565b6040516001600160a01b0383166024820152604481018290526119bb90849063095ea7b360e01b90606401611984565b6060824710156135b25760405162461bcd60e51b815260206004820152602660248201527f416464726573733a20696e73756666696369656e742062616c616e636520666f6044820152651c8818d85b1b60d21b6064820152608401610544565b6001600160a01b0385163b6136095760405162461bcd60e51b815260206004820152601d60248201527f416464726573733a2063616c6c20746f206e6f6e2d636f6e74726163740000006044820152606401610544565b600080866001600160a01b031685876040516136259190613b0d565b60006040518083038185875af1925050503d8060008114613662576040519150601f19603f3d011682016040523d82523d6000602084013e613667565b606091505b5091509150613677828286613682565b979650505050505050565b60608315613691575081611951565b8251156136a15782518084602001fd5b8160405162461bcd60e51b81526004016105449190613d8c565b634e487b7160e01b600052600160045260246000fd5b6000602082840312156136e357600080fd5b5035919050565b6001600160a01b038116811461179257600080fd5b60008060006060848603121561371457600080fd5b833561371f816136ea565b9250602084013591506040840135613736816136ea565b809150509250925092565b6000806040838503121561375457600080fd5b823561375f816136ea565b946020939093013593505050565b60008060006060848603121561378257600080fd5b833561378d816136ea565b95602085013595506040909401359392505050565b600080600080600060a086880312156137ba57600080fd5b85356137c5816136ea565b945060208601356137d5816136ea565b9350604086013592506060860135915060808601356137f3816136ea565b809150509295509295909350565b6000806000806080858703121561381757600080fd5b8435613822816136ea565b93506020850135613832816136ea565b93969395505050506040820135916060013590565b6000806000806080858703121561385d57600080fd5b8435613868816136ea565b935060208501359250604085013561387f816136ea565b9396929550929360600135925050565b801515811461179257600080fd5b600080600080600080600080610100898b0312156138ba57600080fd5b88356138c5816136ea565b975060208901356138d5816136ea565b9650604089013595506060890135945060808901356138f3816136ea565b935060a0890135925060c0890135915060e08901356139118161388f565b809150509295985092959890939650565b60008060008060008060c0878903121561393b57600080fd5b8635613946816136ea565b955060208701359450604087013561395d816136ea565b9350606087013592506080870135915060a087013561397b8161388f565b809150509295509295509295565b60006020828403121561399b57600080fd5b8135611951816136ea565b6000602082840312156139b857600080fd5b8151611951816136ea565b80516001600160701b03811681146139da57600080fd5b919050565b6000806000606084860312156139f457600080fd5b6139fd846139c3565b9250613a0b602085016139c3565b9150604084015163ffffffff8116811461373657600080fd5b600060208284031215613a3657600080fd5b5051919050565b634e487b7160e01b600052601160045260246000fd5b6000816000190483118215151615613a6d57613a6d613a3d565b500290565b600082613a8f57634e487b7160e01b600052601260045260246000fd5b500490565b6020808252601f908201527f5265656e7472616e637947756172643a207265656e7472616e742063616c6c00604082015260600190565b634e487b7160e01b600052604160045260246000fd5b60005b83811015613afc578181015183820152602001613ae4565b83811115611f545750506000910152565b60008251613b1f818460208701613ae1565b9190910192915050565b60008219821115613b3c57613b3c613a3d565b500190565b600082821015613b5357613b53613a3d565b500390565b634e487b7160e01b600052603260045260246000fd5b6020808252601f908201527f5a61703a205175616e7469747920686967686572207468616e206c696d697400604082015260600190565b600060a082018783526020878185015260a0604085015281875180845260c086019150828901935060005b81811015613bf55784516001600160a01b031683529383019391830191600101613bd0565b50506001600160a01b03969096166060850152505050608001529392505050565b60006020808385031215613c2957600080fd5b825167ffffffffffffffff80821115613c4157600080fd5b818501915085601f830112613c5557600080fd5b815181811115613c6757613c67613acb565b8060051b604051601f19603f83011681018181108582111715613c8c57613c8c613acb565b604052918252848201925083810185019188831115613caa57600080fd5b938501935b82851015613cc857845184529385019392850192613caf565b98975050505050505050565b6001600160a01b039889168152968816602088015260408701959095526060860193909352608085019190915260a084015290921660c082015260e08101919091526101000190565b600080600060608486031215613d3257600080fd5b8351925060208401519150604084015190509250925092565b60008060408385031215613d5e57600080fd5b505080516020909101519092909150565b600060208284031215613d8157600080fd5b81516119518161388f565b6020815260008251806020840152613dab816040850160208701613ae1565b601f01601f1916919091016040019291505056fea2646970667358221220b01202fb55f2ed91a20c2d987d5605d516e86cd1249c560b72f99e455dd1a75464736f6c634300080f0033",
			"opcodes": "PUSH1 0x80 PUSH1 0x40 MSTORE CALLVALUE DUP1 ISZERO PUSH3 0x11 JUMPI PUSH1 0x0 DUP1 REVERT JUMPDEST POP PUSH1 0x40 MLOAD PUSH3 0x3F48 CODESIZE SUB DUP1 PUSH3 0x3F48 DUP4 CODECOPY DUP2 ADD PUSH1 0x40 DUP2 SWAP1 MSTORE PUSH3 0x34 SWAP2 PUSH3 0x102 JUMP JUMPDEST PUSH3 0x3F CALLER PUSH3 0x95 JUMP JUMPDEST PUSH1 0x1 DUP1 SSTORE PUSH1 0x6 DUP1 SLOAD PUSH1 0x1 PUSH1 0x1 PUSH1 0xA0 SHL SUB SWAP5 DUP6 AND PUSH1 0x1 PUSH1 0x1 PUSH1 0xA0 SHL SUB NOT SWAP2 DUP3 AND DUP2 OR SWAP1 SWAP3 SSTORE PUSH1 0x2 DUP1 SLOAD DUP3 AND SWAP1 SWAP3 OR SWAP1 SWAP2 SSTORE PUSH1 0x5 DUP1 SLOAD SWAP4 SWAP1 SWAP5 AND SWAP3 DUP2 AND DUP4 OR SWAP1 SWAP4 SSTORE PUSH1 0x3 DUP1 SLOAD SWAP1 SWAP4 AND SWAP1 SWAP2 OR SWAP1 SWAP2 SSTORE PUSH1 0x4 SSTORE PUSH3 0x143 JUMP JUMPDEST PUSH1 0x0 DUP1 SLOAD PUSH1 0x1 PUSH1 0x1 PUSH1 0xA0 SHL SUB DUP4 DUP2 AND PUSH1 0x1 PUSH1 0x1 PUSH1 0xA0 SHL SUB NOT DUP4 AND DUP2 OR DUP5 SSTORE PUSH1 0x40 MLOAD SWAP2 SWAP1 SWAP3 AND SWAP3 DUP4 SWAP2 PUSH32 0x8BE0079C531659141344CD1FD0A4F28419497F9722A3DAAFE3B4186F6B6457E0 SWAP2 SWAP1 LOG3 POP POP JUMP JUMPDEST DUP1 MLOAD PUSH1 0x1 PUSH1 0x1 PUSH1 0xA0 SHL SUB DUP2 AND DUP2 EQ PUSH3 0xFD JUMPI PUSH1 0x0 DUP1 REVERT JUMPDEST SWAP2 SWAP1 POP JUMP JUMPDEST PUSH1 0x0 DUP1 PUSH1 0x0 PUSH1 0x60 DUP5 DUP7 SUB SLT ISZERO PUSH3 0x118 JUMPI PUSH1 0x0 DUP1 REVERT JUMPDEST PUSH3 0x123 DUP5 PUSH3 0xE5 JUMP JUMPDEST SWAP3 POP PUSH3 0x133 PUSH1 0x20 DUP6 ADD PUSH3 0xE5 JUMP JUMPDEST SWAP2 POP PUSH1 0x40 DUP5 ADD MLOAD SWAP1 POP SWAP3 POP SWAP3 POP SWAP3 JUMP JUMPDEST PUSH2 0x3DF5 DUP1 PUSH3 0x153 PUSH1 0x0 CODECOPY PUSH1 0x0 RETURN INVALID PUSH1 0x80 PUSH1 0x40 MSTORE PUSH1 0x4 CALLDATASIZE LT PUSH2 0x118 JUMPI PUSH1 0x0 CALLDATALOAD PUSH1 0xE0 SHR DUP1 PUSH4 0x715018A6 GT PUSH2 0xA0 JUMPI DUP1 PUSH4 0x8DD95002 GT PUSH2 0x64 JUMPI DUP1 PUSH4 0x8DD95002 EQ PUSH2 0x32E JUMPI DUP1 PUSH4 0xB421E91E EQ PUSH2 0x34E JUMPI DUP1 PUSH4 0xC21EBD07 EQ PUSH2 0x36E JUMPI DUP1 PUSH4 0xE3CEB16B EQ PUSH2 0x38E JUMPI DUP1 PUSH4 0xF2FDE38B EQ PUSH2 0x3A1 JUMPI PUSH1 0x0 DUP1 REVERT JUMPDEST DUP1 PUSH4 0x715018A6 EQ PUSH2 0x26A JUMPI DUP1 PUSH4 0x82C98B2D EQ PUSH2 0x27F JUMPI DUP1 PUSH4 0x84B73115 EQ PUSH2 0x2BC JUMPI DUP1 PUSH4 0x87E3F21C EQ PUSH2 0x2DC JUMPI DUP1 PUSH4 0x8DA5CB5B EQ PUSH2 0x2FC JUMPI PUSH1 0x0 DUP1 REVERT JUMPDEST DUP1 PUSH4 0x2F883DA4 GT PUSH2 0xE7 JUMPI DUP1 PUSH4 0x2F883DA4 EQ PUSH2 0x1B3 JUMPI DUP1 PUSH4 0x3B0A48BB EQ PUSH2 0x1F7 JUMPI DUP1 PUSH4 0x3F138D4B EQ PUSH2 0x217 JUMPI DUP1 PUSH4 0x5CB88A3F EQ PUSH2 0x237 JUMPI DUP1 PUSH4 0x5FCBDAED EQ PUSH2 0x24A JUMPI PUSH1 0x0 DUP1 REVERT JUMPDEST DUP1 PUSH4 0x98D3228 EQ PUSH2 0x13E JUMPI DUP1 PUSH4 0xF4E4E63 EQ PUSH2 0x167 JUMPI DUP1 PUSH4 0x257D9BB8 EQ PUSH2 0x17D JUMPI DUP1 PUSH4 0x2B4652EB EQ PUSH2 0x193 JUMPI PUSH1 0x0 DUP1 REVERT JUMPDEST CALLDATASIZE PUSH2 0x139 JUMPI PUSH1 0x6 SLOAD PUSH1 0x1 PUSH1 0x1 PUSH1 0xA0 SHL SUB AND CALLER EQ PUSH2 0x137 JUMPI PUSH2 0x137 PUSH2 0x36BB JUMP JUMPDEST STOP JUMPDEST PUSH1 0x0 DUP1 REVERT JUMPDEST CALLVALUE DUP1 ISZERO PUSH2 0x14A JUMPI PUSH1 0x0 DUP1 REVERT JUMPDEST POP PUSH2 0x154 PUSH1 0x0 NOT DUP2 JUMP JUMPDEST PUSH1 0x40 MLOAD SWAP1 DUP2 MSTORE PUSH1 0x20 ADD JUMPDEST PUSH1 0x40 MLOAD DUP1 SWAP2 SUB SWAP1 RETURN JUMPDEST CALLVALUE DUP1 ISZERO PUSH2 0x173 JUMPI PUSH1 0x0 DUP1 REVERT JUMPDEST POP PUSH2 0x154 PUSH1 0x4 SLOAD DUP2 JUMP JUMPDEST CALLVALUE DUP1 ISZERO PUSH2 0x189 JUMPI PUSH1 0x0 DUP1 REVERT JUMPDEST POP PUSH2 0x154 PUSH2 0x3E8 DUP2 JUMP JUMPDEST CALLVALUE DUP1 ISZERO PUSH2 0x19F JUMPI PUSH1 0x0 DUP1 REVERT JUMPDEST POP PUSH2 0x137 PUSH2 0x1AE CALLDATASIZE PUSH1 0x4 PUSH2 0x36D1 JUMP JUMPDEST PUSH2 0x3C1 JUMP JUMPDEST CALLVALUE DUP1 ISZERO PUSH2 0x1BF JUMPI PUSH1 0x0 DUP1 REVERT JUMPDEST POP PUSH2 0x1D3 PUSH2 0x1CE CALLDATASIZE PUSH1 0x4 PUSH2 0x36FF JUMP JUMPDEST PUSH2 0x404 JUMP JUMPDEST PUSH1 0x40 DUP1 MLOAD SWAP4 DUP5 MSTORE PUSH1 0x20 DUP5 ADD SWAP3 SWAP1 SWAP3 MSTORE PUSH1 0x1 PUSH1 0x1 PUSH1 0xA0 SHL SUB AND SWAP1 DUP3 ADD MSTORE PUSH1 0x60 ADD PUSH2 0x15E JUMP JUMPDEST CALLVALUE DUP1 ISZERO PUSH2 0x203 JUMPI PUSH1 0x0 DUP1 REVERT JUMPDEST POP PUSH2 0x1D3 PUSH2 0x212 CALLDATASIZE PUSH1 0x4 PUSH2 0x36FF JUMP JUMPDEST PUSH2 0x803 JUMP JUMPDEST CALLVALUE DUP1 ISZERO PUSH2 0x223 JUMPI PUSH1 0x0 DUP1 REVERT JUMPDEST POP PUSH2 0x137 PUSH2 0x232 CALLDATASIZE PUSH1 0x4 PUSH2 0x3741 JUMP JUMPDEST PUSH2 0xB03 JUMP JUMPDEST PUSH2 0x137 PUSH2 0x245 CALLDATASIZE PUSH1 0x4 PUSH2 0x3741 JUMP JUMPDEST PUSH2 0xB66 JUMP JUMPDEST CALLVALUE DUP1 ISZERO PUSH2 0x256 JUMPI PUSH1 0x0 DUP1 REVERT JUMPDEST POP PUSH2 0x137 PUSH2 0x265 CALLDATASIZE PUSH1 0x4 PUSH2 0x376D JUMP JUMPDEST PUSH2 0xC5E JUMP JUMPDEST CALLVALUE DUP1 ISZERO PUSH2 0x276 JUMPI PUSH1 0x0 DUP1 REVERT JUMPDEST POP PUSH2 0x137 PUSH2 0xE11 JUMP JUMPDEST CALLVALUE DUP1 ISZERO PUSH2 0x28B JUMPI PUSH1 0x0 DUP1 REVERT JUMPDEST POP PUSH2 0x29F PUSH2 0x29A CALLDATASIZE PUSH1 0x4 PUSH2 0x37A2 JUMP JUMPDEST PUSH2 0xE25 JUMP JUMPDEST PUSH1 0x40 DUP1 MLOAD SWAP4 DUP5 MSTORE PUSH1 0x20 DUP5 ADD SWAP3 SWAP1 SWAP3 MSTORE ISZERO ISZERO SWAP1 DUP3 ADD MSTORE PUSH1 0x60 ADD PUSH2 0x15E JUMP JUMPDEST CALLVALUE DUP1 ISZERO PUSH2 0x2C8 JUMPI PUSH1 0x0 DUP1 REVERT JUMPDEST POP PUSH2 0x137 PUSH2 0x2D7 CALLDATASIZE PUSH1 0x4 PUSH2 0x3801 JUMP JUMPDEST PUSH2 0x13DA JUMP JUMPDEST CALLVALUE DUP1 ISZERO PUSH2 0x2E8 JUMPI PUSH1 0x0 DUP1 REVERT JUMPDEST POP PUSH2 0x137 PUSH2 0x2F7 CALLDATASIZE PUSH1 0x4 PUSH2 0x3847 JUMP JUMPDEST PUSH2 0x1481 JUMP JUMPDEST CALLVALUE DUP1 ISZERO PUSH2 0x308 JUMPI PUSH1 0x0 DUP1 REVERT JUMPDEST POP PUSH1 0x0 SLOAD PUSH1 0x1 PUSH1 0x1 PUSH1 0xA0 SHL SUB AND JUMPDEST PUSH1 0x40 MLOAD PUSH1 0x1 PUSH1 0x1 PUSH1 0xA0 SHL SUB SWAP1 SWAP2 AND DUP2 MSTORE PUSH1 0x20 ADD PUSH2 0x15E JUMP JUMPDEST CALLVALUE DUP1 ISZERO PUSH2 0x33A JUMPI PUSH1 0x0 DUP1 REVERT JUMPDEST POP PUSH1 0x2 SLOAD PUSH2 0x316 SWAP1 PUSH1 0x1 PUSH1 0x1 PUSH1 0xA0 SHL SUB AND DUP2 JUMP JUMPDEST CALLVALUE DUP1 ISZERO PUSH2 0x35A JUMPI PUSH1 0x0 DUP1 REVERT JUMPDEST POP PUSH2 0x137 PUSH2 0x369 CALLDATASIZE PUSH1 0x4 PUSH2 0x389D JUMP JUMPDEST PUSH2 0x1525 JUMP JUMPDEST CALLVALUE DUP1 ISZERO PUSH2 0x37A JUMPI PUSH1 0x0 DUP1 REVERT JUMPDEST POP PUSH1 0x3 SLOAD PUSH2 0x316 SWAP1 PUSH1 0x1 PUSH1 0x1 PUSH1 0xA0 SHL SUB AND DUP2 JUMP JUMPDEST PUSH2 0x137 PUSH2 0x39C CALLDATASIZE PUSH1 0x4 PUSH2 0x3922 JUMP JUMPDEST PUSH2 0x15F5 JUMP JUMPDEST CALLVALUE DUP1 ISZERO PUSH2 0x3AD JUMPI PUSH1 0x0 DUP1 REVERT JUMPDEST POP PUSH2 0x137 PUSH2 0x3BC CALLDATASIZE PUSH1 0x4 PUSH2 0x3989 JUMP JUMPDEST PUSH2 0x171C JUMP JUMPDEST PUSH2 0x3C9 PUSH2 0x1795 JUMP JUMPDEST PUSH1 0x4 DUP2 SWAP1 SSTORE PUSH1 0x40 MLOAD DUP2 DUP2 MSTORE PUSH32 0xC7E29C44236BFEA8BEF0D337E382F5F27EC5BC4D425D82437F115F9B59D2BA79 SWAP1 PUSH1 0x20 ADD PUSH1 0x40 MLOAD DUP1 SWAP2 SUB SWAP1 LOG1 POP JUMP JUMPDEST PUSH1 0x0 DUP1 PUSH1 0x0 DUP1 DUP7 PUSH1 0x1 PUSH1 0x1 PUSH1 0xA0 SHL SUB AND PUSH4 0xDFE1681 PUSH1 0x40 MLOAD DUP2 PUSH4 0xFFFFFFFF AND PUSH1 0xE0 SHL DUP2 MSTORE PUSH1 0x4 ADD PUSH1 0x20 PUSH1 0x40 MLOAD DUP1 DUP4 SUB DUP2 DUP7 GAS STATICCALL ISZERO DUP1 ISZERO PUSH2 0x448 JUMPI RETURNDATASIZE PUSH1 0x0 DUP1 RETURNDATACOPY RETURNDATASIZE PUSH1 0x0 REVERT JUMPDEST POP POP POP POP PUSH1 0x40 MLOAD RETURNDATASIZE PUSH1 0x1F NOT PUSH1 0x1F DUP3 ADD AND DUP3 ADD DUP1 PUSH1 0x40 MSTORE POP DUP2 ADD SWAP1 PUSH2 0x46C SWAP2 SWAP1 PUSH2 0x39A6 JUMP JUMPDEST SWAP1 POP PUSH1 0x0 DUP8 PUSH1 0x1 PUSH1 0x1 PUSH1 0xA0 SHL SUB AND PUSH4 0xD21220A7 PUSH1 0x40 MLOAD DUP2 PUSH4 0xFFFFFFFF AND PUSH1 0xE0 SHL DUP2 MSTORE PUSH1 0x4 ADD PUSH1 0x20 PUSH1 0x40 MLOAD DUP1 DUP4 SUB DUP2 DUP7 GAS STATICCALL ISZERO DUP1 ISZERO PUSH2 0x4AE JUMPI RETURNDATASIZE PUSH1 0x0 DUP1 RETURNDATACOPY RETURNDATASIZE PUSH1 0x0 REVERT JUMPDEST POP POP POP POP PUSH1 0x40 MLOAD RETURNDATASIZE PUSH1 0x1F NOT PUSH1 0x1F DUP3 ADD AND DUP3 ADD DUP1 PUSH1 0x40 MSTORE POP DUP2 ADD SWAP1 PUSH2 0x4D2 SWAP2 SWAP1 PUSH2 0x39A6 JUMP JUMPDEST SWAP1 POP DUP2 PUSH1 0x1 PUSH1 0x1 PUSH1 0xA0 SHL SUB AND DUP7 PUSH1 0x1 PUSH1 0x1 PUSH1 0xA0 SHL SUB AND EQ DUP1 PUSH2 0x505 JUMPI POP DUP1 PUSH1 0x1 PUSH1 0x1 PUSH1 0xA0 SHL SUB AND DUP7 PUSH1 0x1 PUSH1 0x1 PUSH1 0xA0 SHL SUB AND EQ JUMPDEST PUSH2 0x54D JUMPI PUSH1 0x40 MLOAD PUSH3 0x461BCD PUSH1 0xE5 SHL DUP2 MSTORE PUSH1 0x20 PUSH1 0x4 DUP3 ADD MSTORE PUSH1 0x14 PUSH1 0x24 DUP3 ADD MSTORE PUSH20 0x5A61703A20546F6B656E206E6F7420696E204C5 PUSH1 0x64 SHL PUSH1 0x44 DUP3 ADD MSTORE PUSH1 0x64 ADD JUMPDEST PUSH1 0x40 MLOAD DUP1 SWAP2 SUB SWAP1 REVERT JUMPDEST PUSH1 0x0 DUP1 DUP10 PUSH1 0x1 PUSH1 0x1 PUSH1 0xA0 SHL SUB AND PUSH4 0x902F1AC PUSH1 0x40 MLOAD DUP2 PUSH4 0xFFFFFFFF AND PUSH1 0xE0 SHL DUP2 MSTORE PUSH1 0x4 ADD PUSH1 0x60 PUSH1 0x40 MLOAD DUP1 DUP4 SUB DUP2 DUP7 GAS STATICCALL ISZERO DUP1 ISZERO PUSH2 0x58E JUMPI RETURNDATASIZE PUSH1 0x0 DUP1 RETURNDATACOPY RETURNDATASIZE PUSH1 0x0 REVERT JUMPDEST POP POP POP POP PUSH1 0x40 MLOAD RETURNDATASIZE PUSH1 0x1F NOT PUSH1 0x1F DUP3 ADD AND DUP3 ADD DUP1 PUSH1 0x40 MSTORE POP DUP2 ADD SWAP1 PUSH2 0x5B2 SWAP2 SWAP1 PUSH2 0x39DF JUMP JUMPDEST POP PUSH1 0x1 PUSH1 0x1 PUSH1 0x70 SHL SUB AND SWAP2 POP PUSH1 0x1 PUSH1 0x1 PUSH1 0x70 SHL SUB AND SWAP2 POP DUP8 PUSH1 0x1 PUSH1 0x1 PUSH1 0xA0 SHL SUB AND DUP4 PUSH1 0x1 PUSH1 0x1 PUSH1 0xA0 SHL SUB AND SUB PUSH2 0x6EE JUMPI PUSH1 0x0 DUP11 PUSH1 0x1 PUSH1 0x1 PUSH1 0xA0 SHL SUB AND PUSH4 0x18160DDD PUSH1 0x40 MLOAD DUP2 PUSH4 0xFFFFFFFF AND PUSH1 0xE0 SHL DUP2 MSTORE PUSH1 0x4 ADD PUSH1 0x20 PUSH1 0x40 MLOAD DUP1 DUP4 SUB DUP2 DUP7 GAS STATICCALL ISZERO DUP1 ISZERO PUSH2 0x622 JUMPI RETURNDATASIZE PUSH1 0x0 DUP1 RETURNDATACOPY RETURNDATASIZE PUSH1 0x0 REVERT JUMPDEST POP POP POP POP PUSH1 0x40 MLOAD RETURNDATASIZE PUSH1 0x1F NOT PUSH1 0x1F DUP3 ADD AND DUP3 ADD DUP1 PUSH1 0x40 MSTORE POP DUP2 ADD SWAP1 PUSH2 0x646 SWAP2 SWAP1 PUSH2 0x3A24 JUMP JUMPDEST PUSH2 0x650 DUP5 DUP13 PUSH2 0x3A53 JUMP JUMPDEST PUSH2 0x65A SWAP2 SWAP1 PUSH2 0x3A72 JUMP JUMPDEST SWAP1 POP PUSH2 0x667 DUP2 DUP5 DUP5 PUSH2 0x17EF JUMP JUMPDEST PUSH1 0x3 SLOAD PUSH1 0x40 MLOAD PUSH4 0x1535435 PUSH1 0xE2 SHL DUP2 MSTORE PUSH1 0x4 DUP2 ADD DUP4 SWAP1 MSTORE PUSH1 0x24 DUP2 ADD DUP7 SWAP1 MSTORE PUSH1 0x44 DUP2 ADD DUP6 SWAP1 MSTORE SWAP2 SWAP10 POP PUSH1 0x1 PUSH1 0x1 PUSH1 0xA0 SHL SUB AND SWAP1 PUSH4 0x54D50D4 SWAP1 PUSH1 0x64 ADD PUSH1 0x20 PUSH1 0x40 MLOAD DUP1 DUP4 SUB DUP2 DUP7 GAS STATICCALL ISZERO DUP1 ISZERO PUSH2 0x6BF JUMPI RETURNDATASIZE PUSH1 0x0 DUP1 RETURNDATACOPY RETURNDATASIZE PUSH1 0x0 REVERT JUMPDEST POP POP POP POP PUSH1 0x40 MLOAD RETURNDATASIZE PUSH1 0x1F NOT PUSH1 0x1F DUP3 ADD AND DUP3 ADD DUP1 PUSH1 0x40 MSTORE POP DUP2 ADD SWAP1 PUSH2 0x6E3 SWAP2 SWAP1 PUSH2 0x3A24 JUMP JUMPDEST SWAP7 POP DUP5 SWAP6 POP POP PUSH2 0x7F6 JUMP JUMPDEST PUSH1 0x0 DUP11 PUSH1 0x1 PUSH1 0x1 PUSH1 0xA0 SHL SUB AND PUSH4 0x18160DDD PUSH1 0x40 MLOAD DUP2 PUSH4 0xFFFFFFFF AND PUSH1 0xE0 SHL DUP2 MSTORE PUSH1 0x4 ADD PUSH1 0x20 PUSH1 0x40 MLOAD DUP1 DUP4 SUB DUP2 DUP7 GAS STATICCALL ISZERO DUP1 ISZERO PUSH2 0x72E JUMPI RETURNDATASIZE PUSH1 0x0 DUP1 RETURNDATACOPY RETURNDATASIZE PUSH1 0x0 REVERT JUMPDEST POP POP POP POP PUSH1 0x40 MLOAD RETURNDATASIZE PUSH1 0x1F NOT PUSH1 0x1F DUP3 ADD AND DUP3 ADD DUP1 PUSH1 0x40 MSTORE POP DUP2 ADD SWAP1 PUSH2 0x752 SWAP2 SWAP1 PUSH2 0x3A24 JUMP JUMPDEST PUSH2 0x75C DUP4 DUP13 PUSH2 0x3A53 JUMP JUMPDEST PUSH2 0x766 SWAP2 SWAP1 PUSH2 0x3A72 JUMP JUMPDEST SWAP1 POP PUSH2 0x773 DUP2 DUP4 DUP6 PUSH2 0x17EF JUMP JUMPDEST PUSH1 0x3 SLOAD PUSH1 0x40 MLOAD PUSH4 0x1535435 PUSH1 0xE2 SHL DUP2 MSTORE PUSH1 0x4 DUP2 ADD DUP4 SWAP1 MSTORE PUSH1 0x24 DUP2 ADD DUP6 SWAP1 MSTORE PUSH1 0x44 DUP2 ADD DUP7 SWAP1 MSTORE SWAP2 SWAP10 POP PUSH1 0x1 PUSH1 0x1 PUSH1 0xA0 SHL SUB AND SWAP1 PUSH4 0x54D50D4 SWAP1 PUSH1 0x64 ADD PUSH1 0x20 PUSH1 0x40 MLOAD DUP1 DUP4 SUB DUP2 DUP7 GAS STATICCALL ISZERO DUP1 ISZERO PUSH2 0x7CB JUMPI RETURNDATASIZE PUSH1 0x0 DUP1 RETURNDATACOPY RETURNDATASIZE PUSH1 0x0 REVERT JUMPDEST POP POP POP POP PUSH1 0x40 MLOAD RETURNDATASIZE PUSH1 0x1F NOT PUSH1 0x1F DUP3 ADD AND DUP3 ADD DUP1 PUSH1 0x40 MSTORE POP DUP2 ADD SWAP1 PUSH2 0x7EF SWAP2 SWAP1 PUSH2 0x3A24 JUMP JUMPDEST SWAP7 POP DUP4 SWAP6 POP POP JUMPDEST POP POP POP POP SWAP4 POP SWAP4 POP SWAP4 SWAP1 POP JUMP JUMPDEST PUSH1 0x0 DUP1 PUSH1 0x0 DUP1 DUP5 PUSH1 0x1 PUSH1 0x1 PUSH1 0xA0 SHL SUB AND PUSH4 0xDFE1681 PUSH1 0x40 MLOAD DUP2 PUSH4 0xFFFFFFFF AND PUSH1 0xE0 SHL DUP2 MSTORE PUSH1 0x4 ADD PUSH1 0x20 PUSH1 0x40 MLOAD DUP1 DUP4 SUB DUP2 DUP7 GAS STATICCALL ISZERO DUP1 ISZERO PUSH2 0x847 JUMPI RETURNDATASIZE PUSH1 0x0 DUP1 RETURNDATACOPY RETURNDATASIZE PUSH1 0x0 REVERT JUMPDEST POP POP POP POP PUSH1 0x40 MLOAD RETURNDATASIZE PUSH1 0x1F NOT PUSH1 0x1F DUP3 ADD AND DUP3 ADD DUP1 PUSH1 0x40 MSTORE POP DUP2 ADD SWAP1 PUSH2 0x86B SWAP2 SWAP1 PUSH2 0x39A6 JUMP JUMPDEST SWAP1 POP PUSH1 0x0 DUP6 PUSH1 0x1 PUSH1 0x1 PUSH1 0xA0 SHL SUB AND PUSH4 0xD21220A7 PUSH1 0x40 MLOAD DUP2 PUSH4 0xFFFFFFFF AND PUSH1 0xE0 SHL DUP2 MSTORE PUSH1 0x4 ADD PUSH1 0x20 PUSH1 0x40 MLOAD DUP1 DUP4 SUB DUP2 DUP7 GAS STATICCALL ISZERO DUP1 ISZERO PUSH2 0x8AD JUMPI RETURNDATASIZE PUSH1 0x0 DUP1 RETURNDATACOPY RETURNDATASIZE PUSH1 0x0 REVERT JUMPDEST POP POP POP POP PUSH1 0x40 MLOAD RETURNDATASIZE PUSH1 0x1F NOT PUSH1 0x1F DUP3 ADD AND DUP3 ADD DUP1 PUSH1 0x40 MSTORE POP DUP2 ADD SWAP1 PUSH2 0x8D1 SWAP2 SWAP1 PUSH2 0x39A6 JUMP JUMPDEST SWAP1 POP DUP2 PUSH1 0x1 PUSH1 0x1 PUSH1 0xA0 SHL SUB AND DUP9 PUSH1 0x1 PUSH1 0x1 PUSH1 0xA0 SHL SUB AND EQ DUP1 PUSH2 0x904 JUMPI POP DUP1 PUSH1 0x1 PUSH1 0x1 PUSH1 0xA0 SHL SUB AND DUP9 PUSH1 0x1 PUSH1 0x1 PUSH1 0xA0 SHL SUB AND EQ JUMPDEST PUSH2 0x944 JUMPI PUSH1 0x40 MLOAD PUSH3 0x461BCD PUSH1 0xE5 SHL DUP2 MSTORE PUSH1 0x20 PUSH1 0x4 DUP3 ADD MSTORE PUSH1 0x11 PUSH1 0x24 DUP3 ADD MSTORE PUSH17 0x5A61703A2057726F6E6720746F6B656E73 PUSH1 0x78 SHL PUSH1 0x44 DUP3 ADD MSTORE PUSH1 0x64 ADD PUSH2 0x544 JUMP JUMPDEST PUSH1 0x0 DUP1 DUP8 PUSH1 0x1 PUSH1 0x1 PUSH1 0xA0 SHL SUB AND PUSH4 0x902F1AC PUSH1 0x40 MLOAD DUP2 PUSH4 0xFFFFFFFF AND PUSH1 0xE0 SHL DUP2 MSTORE PUSH1 0x4 ADD PUSH1 0x60 PUSH1 0x40 MLOAD DUP1 DUP4 SUB DUP2 DUP7 GAS STATICCALL ISZERO DUP1 ISZERO PUSH2 0x985 JUMPI RETURNDATASIZE PUSH1 0x0 DUP1 RETURNDATACOPY RETURNDATASIZE PUSH1 0x0 REVERT JUMPDEST POP POP POP POP PUSH1 0x40 MLOAD RETURNDATASIZE PUSH1 0x1F NOT PUSH1 0x1F DUP3 ADD AND DUP3 ADD DUP1 PUSH1 0x40 MSTORE POP DUP2 ADD SWAP1 PUSH2 0x9A9 SWAP2 SWAP1 PUSH2 0x39DF JUMP JUMPDEST POP PUSH1 0x1 PUSH1 0x1 PUSH1 0x70 SHL SUB AND SWAP2 POP PUSH1 0x1 PUSH1 0x1 PUSH1 0x70 SHL SUB AND SWAP2 POP DUP10 PUSH1 0x1 PUSH1 0x1 PUSH1 0xA0 SHL SUB AND DUP5 PUSH1 0x1 PUSH1 0x1 PUSH1 0xA0 SHL SUB AND SUB PUSH2 0xA6A JUMPI DUP3 SWAP5 POP PUSH2 0x9E7 DUP10 DUP4 DUP4 PUSH2 0x17EF JUMP JUMPDEST PUSH1 0x3 SLOAD PUSH1 0x40 MLOAD PUSH4 0x1535435 PUSH1 0xE2 SHL DUP2 MSTORE PUSH1 0x4 DUP2 ADD DUP4 SWAP1 MSTORE PUSH1 0x24 DUP2 ADD DUP6 SWAP1 MSTORE PUSH1 0x44 DUP2 ADD DUP5 SWAP1 MSTORE SWAP2 SWAP9 POP PUSH1 0x1 PUSH1 0x1 PUSH1 0xA0 SHL SUB AND SWAP1 PUSH4 0x54D50D4 SWAP1 PUSH1 0x64 ADD PUSH1 0x20 PUSH1 0x40 MLOAD DUP1 DUP4 SUB DUP2 DUP7 GAS STATICCALL ISZERO DUP1 ISZERO PUSH2 0xA3F JUMPI RETURNDATASIZE PUSH1 0x0 DUP1 RETURNDATACOPY RETURNDATASIZE PUSH1 0x0 REVERT JUMPDEST POP POP POP POP PUSH1 0x40 MLOAD RETURNDATASIZE PUSH1 0x1F NOT PUSH1 0x1F DUP3 ADD AND DUP3 ADD DUP1 PUSH1 0x40 MSTORE POP DUP2 ADD SWAP1 PUSH2 0xA63 SWAP2 SWAP1 PUSH2 0x3A24 JUMP JUMPDEST SWAP6 POP PUSH2 0x7F6 JUMP JUMPDEST DUP4 SWAP5 POP PUSH2 0xA78 DUP10 DUP3 DUP5 PUSH2 0x17EF JUMP JUMPDEST PUSH1 0x3 SLOAD PUSH1 0x40 MLOAD PUSH4 0x1535435 PUSH1 0xE2 SHL DUP2 MSTORE PUSH1 0x4 DUP2 ADD DUP4 SWAP1 MSTORE PUSH1 0x24 DUP2 ADD DUP5 SWAP1 MSTORE PUSH1 0x44 DUP2 ADD DUP6 SWAP1 MSTORE SWAP2 SWAP9 POP PUSH1 0x1 PUSH1 0x1 PUSH1 0xA0 SHL SUB AND SWAP1 PUSH4 0x54D50D4 SWAP1 PUSH1 0x64 ADD PUSH1 0x20 PUSH1 0x40 MLOAD DUP1 DUP4 SUB DUP2 DUP7 GAS STATICCALL ISZERO DUP1 ISZERO PUSH2 0xAD0 JUMPI RETURNDATASIZE PUSH1 0x0 DUP1 RETURNDATACOPY RETURNDATASIZE PUSH1 0x0 REVERT JUMPDEST POP POP POP POP PUSH1 0x40 MLOAD RETURNDATASIZE PUSH1 0x1F NOT PUSH1 0x1F DUP3 ADD AND DUP3 ADD DUP1 PUSH1 0x40 MSTORE POP DUP2 ADD SWAP1 PUSH2 0xAF4 SWAP2 SWAP1 PUSH2 0x3A24 JUMP JUMPDEST SWAP6 POP POP POP POP POP SWAP4 POP SWAP4 POP SWAP4 SWAP1 POP JUMP JUMPDEST PUSH2 0xB0B PUSH2 0x1795 JUMP JUMPDEST PUSH2 0xB1F PUSH1 0x1 PUSH1 0x1 PUSH1 0xA0 SHL SUB DUP4 AND CALLER DUP4 PUSH2 0x1958 JUMP JUMPDEST DUP2 PUSH1 0x1 PUSH1 0x1 PUSH1 0xA0 SHL SUB AND PUSH32 0x74545154AAC348A3EAC92596BD1971957CA94795F4E954EC5F613B55FAB78129 DUP3 PUSH1 0x40 MLOAD PUSH2 0xB5A SWAP2 DUP2 MSTORE PUSH1 0x20 ADD SWAP1 JUMP JUMPDEST PUSH1 0x40 MLOAD DUP1 SWAP2 SUB SWAP1 LOG2 POP POP JUMP JUMPDEST PUSH1 0x2 PUSH1 0x1 SLOAD SUB PUSH2 0xB88 JUMPI PUSH1 0x40 MLOAD PUSH3 0x461BCD PUSH1 0xE5 SHL DUP2 MSTORE PUSH1 0x4 ADD PUSH2 0x544 SWAP1 PUSH2 0x3A94 JUMP JUMPDEST PUSH1 0x2 PUSH1 0x1 DUP2 SWAP1 SSTORE SLOAD PUSH1 0x40 DUP1 MLOAD PUSH4 0xD0E30DB PUSH1 0xE4 SHL DUP2 MSTORE SWAP1 MLOAD PUSH1 0x1 PUSH1 0x1 PUSH1 0xA0 SHL SUB SWAP1 SWAP3 AND SWAP2 PUSH4 0xD0E30DB0 SWAP2 CALLVALUE SWAP2 PUSH1 0x4 DUP1 DUP4 ADD SWAP3 PUSH1 0x0 SWAP3 SWAP2 SWAP1 DUP3 SWAP1 SUB ADD DUP2 DUP6 DUP9 DUP1 EXTCODESIZE ISZERO DUP1 ISZERO PUSH2 0xBD4 JUMPI PUSH1 0x0 DUP1 REVERT JUMPDEST POP GAS CALL ISZERO DUP1 ISZERO PUSH2 0xBE8 JUMPI RETURNDATASIZE PUSH1 0x0 DUP1 RETURNDATACOPY RETURNDATASIZE PUSH1 0x0 REVERT JUMPDEST POP POP PUSH1 0x6 SLOAD PUSH1 0x0 SWAP4 POP PUSH2 0xC09 SWAP3 POP PUSH1 0x1 PUSH1 0x1 PUSH1 0xA0 SHL SUB AND SWAP1 POP CALLVALUE DUP6 DUP6 PUSH2 0x19C0 JUMP JUMPDEST PUSH1 0x40 DUP1 MLOAD CALLVALUE DUP2 MSTORE PUSH1 0x20 DUP2 ADD DUP4 SWAP1 MSTORE SWAP2 SWAP3 POP CALLER SWAP2 PUSH1 0x1 PUSH1 0x1 PUSH1 0xA0 SHL SUB DUP7 AND SWAP2 PUSH1 0x0 SWAP2 PUSH32 0xA71185A0FF368DE4E9E445D8601C4FBD50D9B674E4E43F5F8FEAFB8D64A2E13E SWAP2 ADD PUSH1 0x40 MLOAD DUP1 SWAP2 SUB SWAP1 LOG4 POP POP PUSH1 0x1 DUP1 SSTORE POP JUMP JUMPDEST PUSH1 0x2 PUSH1 0x1 SLOAD SUB PUSH2 0xC80 JUMPI PUSH1 0x40 MLOAD PUSH3 0x461BCD PUSH1 0xE5 SHL DUP2 MSTORE PUSH1 0x4 ADD PUSH2 0x544 SWAP1 PUSH2 0x3A94 JUMP JUMPDEST PUSH1 0x2 PUSH1 0x1 SSTORE PUSH2 0xC9A PUSH1 0x1 PUSH1 0x1 PUSH1 0xA0 SHL SUB DUP5 AND CALLER DUP6 DUP6 PUSH2 0x1F1C JUMP JUMPDEST PUSH1 0x6 SLOAD PUSH1 0x0 SWAP1 PUSH2 0xCB5 SWAP1 DUP6 SWAP1 PUSH1 0x1 PUSH1 0x1 PUSH1 0xA0 SHL SUB AND DUP5 PUSH2 0x1F5A JUMP JUMPDEST PUSH1 0x2 SLOAD PUSH1 0x40 MLOAD PUSH4 0x2E1A7D4D PUSH1 0xE0 SHL DUP2 MSTORE PUSH1 0x4 DUP2 ADD DUP4 SWAP1 MSTORE SWAP2 SWAP3 POP PUSH1 0x1 PUSH1 0x1 PUSH1 0xA0 SHL SUB AND SWAP1 PUSH4 0x2E1A7D4D SWAP1 PUSH1 0x24 ADD PUSH1 0x0 PUSH1 0x40 MLOAD DUP1 DUP4 SUB DUP2 PUSH1 0x0 DUP8 DUP1 EXTCODESIZE ISZERO DUP1 ISZERO PUSH2 0xCFC JUMPI PUSH1 0x0 DUP1 REVERT JUMPDEST POP GAS CALL ISZERO DUP1 ISZERO PUSH2 0xD10 JUMPI RETURNDATASIZE PUSH1 0x0 DUP1 RETURNDATACOPY RETURNDATASIZE PUSH1 0x0 REVERT JUMPDEST POP POP PUSH1 0x40 DUP1 MLOAD PUSH1 0x0 DUP1 DUP3 MSTORE PUSH1 0x20 DUP3 ADD SWAP3 DUP4 SWAP1 MSTORE SWAP4 POP CALLER SWAP3 POP DUP5 SWAP2 PUSH2 0xD34 SWAP2 SWAP1 PUSH2 0x3B0D JUMP JUMPDEST PUSH1 0x0 PUSH1 0x40 MLOAD DUP1 DUP4 SUB DUP2 DUP6 DUP8 GAS CALL SWAP3 POP POP POP RETURNDATASIZE DUP1 PUSH1 0x0 DUP2 EQ PUSH2 0xD71 JUMPI PUSH1 0x40 MLOAD SWAP2 POP PUSH1 0x1F NOT PUSH1 0x3F RETURNDATASIZE ADD AND DUP3 ADD PUSH1 0x40 MSTORE RETURNDATASIZE DUP3 MSTORE RETURNDATASIZE PUSH1 0x0 PUSH1 0x20 DUP5 ADD RETURNDATACOPY PUSH2 0xD76 JUMP JUMPDEST PUSH1 0x60 SWAP2 POP JUMPDEST POP POP SWAP1 POP DUP1 PUSH2 0xDBC JUMPI PUSH1 0x40 MLOAD PUSH3 0x461BCD PUSH1 0xE5 SHL DUP2 MSTORE PUSH1 0x20 PUSH1 0x4 DUP3 ADD MSTORE PUSH1 0x12 PUSH1 0x24 DUP3 ADD MSTORE PUSH18 0x1093908E881D1C985B9CD9995C8819985A5B PUSH1 0x72 SHL PUSH1 0x44 DUP3 ADD MSTORE PUSH1 0x64 ADD PUSH2 0x544 JUMP JUMPDEST PUSH1 0x40 DUP1 MLOAD DUP6 DUP2 MSTORE PUSH1 0x20 DUP2 ADD DUP5 SWAP1 MSTORE CALLER SWAP2 PUSH1 0x0 SWAP2 PUSH1 0x1 PUSH1 0x1 PUSH1 0xA0 SHL SUB DUP10 AND SWAP2 PUSH32 0x20EF8A4C975EC6C340089D8171A0F9C6A6324B11E3ECC4353155186F6C638C28 SWAP2 ADD JUMPDEST PUSH1 0x40 MLOAD DUP1 SWAP2 SUB SWAP1 LOG4 POP POP PUSH1 0x1 DUP1 SSTORE POP POP POP JUMP JUMPDEST PUSH2 0xE19 PUSH2 0x1795 JUMP JUMPDEST PUSH2 0xE23 PUSH1 0x0 PUSH2 0x2449 JUMP JUMPDEST JUMP JUMPDEST PUSH1 0x0 DUP1 PUSH1 0x0 DUP4 PUSH1 0x1 PUSH1 0x1 PUSH1 0xA0 SHL SUB AND PUSH4 0xDFE1681 PUSH1 0x40 MLOAD DUP2 PUSH4 0xFFFFFFFF AND PUSH1 0xE0 SHL DUP2 MSTORE PUSH1 0x4 ADD PUSH1 0x20 PUSH1 0x40 MLOAD DUP1 DUP4 SUB DUP2 DUP7 GAS STATICCALL ISZERO DUP1 ISZERO PUSH2 0xE68 JUMPI RETURNDATASIZE PUSH1 0x0 DUP1 RETURNDATACOPY RETURNDATASIZE PUSH1 0x0 REVERT JUMPDEST POP POP POP POP PUSH1 0x40 MLOAD RETURNDATASIZE PUSH1 0x1F NOT PUSH1 0x1F DUP3 ADD AND DUP3 ADD DUP1 PUSH1 0x40 MSTORE POP DUP2 ADD SWAP1 PUSH2 0xE8C SWAP2 SWAP1 PUSH2 0x39A6 JUMP JUMPDEST PUSH1 0x1 PUSH1 0x1 PUSH1 0xA0 SHL SUB AND DUP9 PUSH1 0x1 PUSH1 0x1 PUSH1 0xA0 SHL SUB AND EQ DUP1 PUSH2 0xF1D JUMPI POP DUP4 PUSH1 0x1 PUSH1 0x1 PUSH1 0xA0 SHL SUB AND PUSH4 0xD21220A7 PUSH1 0x40 MLOAD DUP2 PUSH4 0xFFFFFFFF AND PUSH1 0xE0 SHL DUP2 MSTORE PUSH1 0x4 ADD PUSH1 0x20 PUSH1 0x40 MLOAD DUP1 DUP4 SUB DUP2 DUP7 GAS STATICCALL ISZERO DUP1 ISZERO PUSH2 0xEE4 JUMPI RETURNDATASIZE PUSH1 0x0 DUP1 RETURNDATACOPY RETURNDATASIZE PUSH1 0x0 REVERT JUMPDEST POP POP POP POP PUSH1 0x40 MLOAD RETURNDATASIZE PUSH1 0x1F NOT PUSH1 0x1F DUP3 ADD AND DUP3 ADD DUP1 PUSH1 0x40 MSTORE POP DUP2 ADD SWAP1 PUSH2 0xF08 SWAP2 SWAP1 PUSH2 0x39A6 JUMP JUMPDEST PUSH1 0x1 PUSH1 0x1 PUSH1 0xA0 SHL SUB AND DUP9 PUSH1 0x1 PUSH1 0x1 PUSH1 0xA0 SHL SUB AND EQ JUMPDEST PUSH2 0xF5D JUMPI PUSH1 0x40 MLOAD PUSH3 0x461BCD PUSH1 0xE5 SHL DUP2 MSTORE PUSH1 0x20 PUSH1 0x4 DUP3 ADD MSTORE PUSH1 0x11 PUSH1 0x24 DUP3 ADD MSTORE PUSH17 0x5A61703A2057726F6E6720746F6B656E3 PUSH1 0x7C SHL PUSH1 0x44 DUP3 ADD MSTORE PUSH1 0x64 ADD PUSH2 0x544 JUMP JUMPDEST DUP4 PUSH1 0x1 PUSH1 0x1 PUSH1 0xA0 SHL SUB AND PUSH4 0xDFE1681 PUSH1 0x40 MLOAD DUP2 PUSH4 0xFFFFFFFF AND PUSH1 0xE0 SHL DUP2 MSTORE PUSH1 0x4 ADD PUSH1 0x20 PUSH1 0x40 MLOAD DUP1 DUP4 SUB DUP2 DUP7 GAS STATICCALL ISZERO DUP1 ISZERO PUSH2 0xF9B JUMPI RETURNDATASIZE PUSH1 0x0 DUP1 RETURNDATACOPY RETURNDATASIZE PUSH1 0x0 REVERT JUMPDEST POP POP POP POP PUSH1 0x40 MLOAD RETURNDATASIZE PUSH1 0x1F NOT PUSH1 0x1F DUP3 ADD AND DUP3 ADD DUP1 PUSH1 0x40 MSTORE POP DUP2 ADD SWAP1 PUSH2 0xFBF SWAP2 SWAP1 PUSH2 0x39A6 JUMP JUMPDEST PUSH1 0x1 PUSH1 0x1 PUSH1 0xA0 SHL SUB AND DUP8 PUSH1 0x1 PUSH1 0x1 PUSH1 0xA0 SHL SUB AND EQ DUP1 PUSH2 0x1050 JUMPI POP DUP4 PUSH1 0x1 PUSH1 0x1 PUSH1 0xA0 SHL SUB AND PUSH4 0xD21220A7 PUSH1 0x40 MLOAD DUP2 PUSH4 0xFFFFFFFF AND PUSH1 0xE0 SHL DUP2 MSTORE PUSH1 0x4 ADD PUSH1 0x20 PUSH1 0x40 MLOAD DUP1 DUP4 SUB DUP2 DUP7 GAS STATICCALL ISZERO DUP1 ISZERO PUSH2 0x1017 JUMPI RETURNDATASIZE PUSH1 0x0 DUP1 RETURNDATACOPY RETURNDATASIZE PUSH1 0x0 REVERT JUMPDEST POP POP POP POP PUSH1 0x40 MLOAD RETURNDATASIZE PUSH1 0x1F NOT PUSH1 0x1F DUP3 ADD AND DUP3 ADD DUP1 PUSH1 0x40 MSTORE POP DUP2 ADD SWAP1 PUSH2 0x103B SWAP2 SWAP1 PUSH2 0x39A6 JUMP JUMPDEST PUSH1 0x1 PUSH1 0x1 PUSH1 0xA0 SHL SUB AND DUP8 PUSH1 0x1 PUSH1 0x1 PUSH1 0xA0 SHL SUB AND EQ JUMPDEST PUSH2 0x1090 JUMPI PUSH1 0x40 MLOAD PUSH3 0x461BCD PUSH1 0xE5 SHL DUP2 MSTORE PUSH1 0x20 PUSH1 0x4 DUP3 ADD MSTORE PUSH1 0x11 PUSH1 0x24 DUP3 ADD MSTORE PUSH17 0x5A61703A2057726F6E6720746F6B656E31 PUSH1 0x78 SHL PUSH1 0x44 DUP3 ADD MSTORE PUSH1 0x64 ADD PUSH2 0x544 JUMP JUMPDEST DUP7 PUSH1 0x1 PUSH1 0x1 PUSH1 0xA0 SHL SUB AND DUP9 PUSH1 0x1 PUSH1 0x1 PUSH1 0xA0 SHL SUB AND SUB PUSH2 0x10E4 JUMPI PUSH1 0x40 MLOAD PUSH3 0x461BCD PUSH1 0xE5 SHL DUP2 MSTORE PUSH1 0x20 PUSH1 0x4 DUP3 ADD MSTORE PUSH1 0x10 PUSH1 0x24 DUP3 ADD MSTORE PUSH16 0x5A61703A2053616D6520746F6B656E73 PUSH1 0x80 SHL PUSH1 0x44 DUP3 ADD MSTORE PUSH1 0x64 ADD PUSH2 0x544 JUMP JUMPDEST PUSH1 0x0 DUP1 DUP6 PUSH1 0x1 PUSH1 0x1 PUSH1 0xA0 SHL SUB AND PUSH4 0x902F1AC PUSH1 0x40 MLOAD DUP2 PUSH4 0xFFFFFFFF AND PUSH1 0xE0 SHL DUP2 MSTORE PUSH1 0x4 ADD PUSH1 0x60 PUSH1 0x40 MLOAD DUP1 DUP4 SUB DUP2 DUP7 GAS STATICCALL ISZERO DUP1 ISZERO PUSH2 0x1125 JUMPI RETURNDATASIZE PUSH1 0x0 DUP1 RETURNDATACOPY RETURNDATASIZE PUSH1 0x0 REVERT JUMPDEST POP POP POP POP PUSH1 0x40 MLOAD RETURNDATASIZE PUSH1 0x1F NOT PUSH1 0x1F DUP3 ADD AND DUP3 ADD DUP1 PUSH1 0x40 MSTORE POP DUP2 ADD SWAP1 PUSH2 0x1149 SWAP2 SWAP1 PUSH2 0x39DF JUMP JUMPDEST POP PUSH1 0x1 PUSH1 0x1 PUSH1 0x70 SHL SUB AND SWAP2 POP PUSH1 0x1 PUSH1 0x1 PUSH1 0x70 SHL SUB AND SWAP2 POP DUP6 PUSH1 0x1 PUSH1 0x1 PUSH1 0xA0 SHL SUB AND PUSH4 0xDFE1681 PUSH1 0x40 MLOAD DUP2 PUSH4 0xFFFFFFFF AND PUSH1 0xE0 SHL DUP2 MSTORE PUSH1 0x4 ADD PUSH1 0x20 PUSH1 0x40 MLOAD DUP1 DUP4 SUB DUP2 DUP7 GAS STATICCALL ISZERO DUP1 ISZERO PUSH2 0x119E JUMPI RETURNDATASIZE PUSH1 0x0 DUP1 RETURNDATACOPY RETURNDATASIZE PUSH1 0x0 REVERT JUMPDEST POP POP POP POP PUSH1 0x40 MLOAD RETURNDATASIZE PUSH1 0x1F NOT PUSH1 0x1F DUP3 ADD AND DUP3 ADD DUP1 PUSH1 0x40 MSTORE POP DUP2 ADD SWAP1 PUSH2 0x11C2 SWAP2 SWAP1 PUSH2 0x39A6 JUMP JUMPDEST PUSH1 0x1 PUSH1 0x1 PUSH1 0xA0 SHL SUB AND DUP11 PUSH1 0x1 PUSH1 0x1 PUSH1 0xA0 SHL SUB AND SUB PUSH2 0x12D6 JUMPI PUSH2 0x11E4 DUP3 DUP9 PUSH2 0x3A53 JUMP JUMPDEST PUSH2 0x11EE DUP3 DUP11 PUSH2 0x3A53 JUMP JUMPDEST GT PUSH2 0x11FA JUMPI PUSH1 0x0 PUSH2 0x11FD JUMP JUMPDEST PUSH1 0x1 JUMPDEST SWAP3 POP PUSH2 0x120C DUP9 DUP9 DUP5 DUP5 DUP8 PUSH2 0x2499 JUMP JUMPDEST SWAP5 POP DUP3 ISZERO PUSH2 0x1297 JUMPI PUSH1 0x3 SLOAD PUSH1 0x40 MLOAD PUSH4 0x1535435 PUSH1 0xE2 SHL DUP2 MSTORE PUSH1 0x4 DUP2 ADD DUP8 SWAP1 MSTORE PUSH1 0x24 DUP2 ADD DUP5 SWAP1 MSTORE PUSH1 0x44 DUP2 ADD DUP4 SWAP1 MSTORE PUSH1 0x1 PUSH1 0x1 PUSH1 0xA0 SHL SUB SWAP1 SWAP2 AND SWAP1 PUSH4 0x54D50D4 SWAP1 PUSH1 0x64 ADD JUMPDEST PUSH1 0x20 PUSH1 0x40 MLOAD DUP1 DUP4 SUB DUP2 DUP7 GAS STATICCALL ISZERO DUP1 ISZERO PUSH2 0x126C JUMPI RETURNDATASIZE PUSH1 0x0 DUP1 RETURNDATACOPY RETURNDATASIZE PUSH1 0x0 REVERT JUMPDEST POP POP POP POP PUSH1 0x40 MLOAD RETURNDATASIZE PUSH1 0x1F NOT PUSH1 0x1F DUP3 ADD AND DUP3 ADD DUP1 PUSH1 0x40 MSTORE POP DUP2 ADD SWAP1 PUSH2 0x1290 SWAP2 SWAP1 PUSH2 0x3A24 JUMP JUMPDEST SWAP4 POP PUSH2 0x13CD JUMP JUMPDEST PUSH1 0x3 SLOAD PUSH1 0x40 MLOAD PUSH4 0x1535435 PUSH1 0xE2 SHL DUP2 MSTORE PUSH1 0x4 DUP2 ADD DUP8 SWAP1 MSTORE PUSH1 0x24 DUP2 ADD DUP4 SWAP1 MSTORE PUSH1 0x44 DUP2 ADD DUP5 SWAP1 MSTORE PUSH1 0x1 PUSH1 0x1 PUSH1 0xA0 SHL SUB SWAP1 SWAP2 AND SWAP1 PUSH4 0x54D50D4 SWAP1 PUSH1 0x64 ADD PUSH2 0x124F JUMP JUMPDEST PUSH2 0x12E0 DUP2 DUP9 PUSH2 0x3A53 JUMP JUMPDEST PUSH2 0x12EA DUP4 DUP11 PUSH2 0x3A53 JUMP JUMPDEST GT PUSH2 0x12F6 JUMPI PUSH1 0x0 PUSH2 0x12F9 JUMP JUMPDEST PUSH1 0x1 JUMPDEST SWAP3 POP PUSH2 0x1308 DUP9 DUP9 DUP4 DUP6 DUP8 PUSH2 0x2499 JUMP JUMPDEST SWAP5 POP DUP3 ISZERO PUSH2 0x134F JUMPI PUSH1 0x3 SLOAD PUSH1 0x40 MLOAD PUSH4 0x1535435 PUSH1 0xE2 SHL DUP2 MSTORE PUSH1 0x4 DUP2 ADD DUP8 SWAP1 MSTORE PUSH1 0x24 DUP2 ADD DUP4 SWAP1 MSTORE PUSH1 0x44 DUP2 ADD DUP5 SWAP1 MSTORE PUSH1 0x1 PUSH1 0x1 PUSH1 0xA0 SHL SUB SWAP1 SWAP2 AND SWAP1 PUSH4 0x54D50D4 SWAP1 PUSH1 0x64 ADD PUSH2 0x124F JUMP JUMPDEST PUSH1 0x3 SLOAD PUSH1 0x40 MLOAD PUSH4 0x1535435 PUSH1 0xE2 SHL DUP2 MSTORE PUSH1 0x4 DUP2 ADD DUP8 SWAP1 MSTORE PUSH1 0x24 DUP2 ADD DUP5 SWAP1 MSTORE PUSH1 0x44 DUP2 ADD DUP4 SWAP1 MSTORE PUSH1 0x1 PUSH1 0x1 PUSH1 0xA0 SHL SUB SWAP1 SWAP2 AND SWAP1 PUSH4 0x54D50D4 SWAP1 PUSH1 0x64 ADD PUSH1 0x20 PUSH1 0x40 MLOAD DUP1 DUP4 SUB DUP2 DUP7 GAS STATICCALL ISZERO DUP1 ISZERO PUSH2 0x13A6 JUMPI RETURNDATASIZE PUSH1 0x0 DUP1 RETURNDATACOPY RETURNDATASIZE PUSH1 0x0 REVERT JUMPDEST POP POP POP POP PUSH1 0x40 MLOAD RETURNDATASIZE PUSH1 0x1F NOT PUSH1 0x1F DUP3 ADD AND DUP3 ADD DUP1 PUSH1 0x40 MSTORE POP DUP2 ADD SWAP1 PUSH2 0x13CA SWAP2 SWAP1 PUSH2 0x3A24 JUMP JUMPDEST SWAP4 POP JUMPDEST POP POP SWAP6 POP SWAP6 POP SWAP6 SWAP3 POP POP POP JUMP JUMPDEST PUSH1 0x2 PUSH1 0x1 SLOAD SUB PUSH2 0x13FC JUMPI PUSH1 0x40 MLOAD PUSH3 0x461BCD PUSH1 0xE5 SHL DUP2 MSTORE PUSH1 0x4 ADD PUSH2 0x544 SWAP1 PUSH2 0x3A94 JUMP JUMPDEST PUSH1 0x2 PUSH1 0x1 SSTORE PUSH2 0x1416 PUSH1 0x1 PUSH1 0x1 PUSH1 0xA0 SHL SUB DUP6 AND CALLER DUP7 DUP6 PUSH2 0x1F1C JUMP JUMPDEST PUSH1 0x0 PUSH2 0x1423 DUP6 DUP6 DUP5 PUSH2 0x1F5A JUMP JUMPDEST SWAP1 POP PUSH2 0x1439 PUSH1 0x1 PUSH1 0x1 PUSH1 0xA0 SHL SUB DUP6 AND CALLER DUP4 PUSH2 0x1958 JUMP JUMPDEST PUSH1 0x40 DUP1 MLOAD DUP5 DUP2 MSTORE PUSH1 0x20 DUP2 ADD DUP4 SWAP1 MSTORE CALLER SWAP2 PUSH1 0x1 PUSH1 0x1 PUSH1 0xA0 SHL SUB DUP8 DUP2 AND SWAP3 SWAP1 DUP10 AND SWAP2 PUSH32 0x20EF8A4C975EC6C340089D8171A0F9C6A6324B11E3ECC4353155186F6C638C28 SWAP2 ADD PUSH2 0xDFE JUMP JUMPDEST PUSH1 0x2 PUSH1 0x1 SLOAD SUB PUSH2 0x14A3 JUMPI PUSH1 0x40 MLOAD PUSH3 0x461BCD PUSH1 0xE5 SHL DUP2 MSTORE PUSH1 0x4 ADD PUSH2 0x544 SWAP1 PUSH2 0x3A94 JUMP JUMPDEST PUSH1 0x2 PUSH1 0x1 SSTORE PUSH2 0x14BD PUSH1 0x1 PUSH1 0x1 PUSH1 0xA0 SHL SUB DUP6 AND CALLER ADDRESS DUP7 PUSH2 0x1F1C JUMP JUMPDEST PUSH1 0x0 PUSH2 0x14CB DUP6 DUP6 DUP6 DUP6 PUSH2 0x19C0 JUMP JUMPDEST SWAP1 POP CALLER PUSH1 0x1 PUSH1 0x1 PUSH1 0xA0 SHL SUB AND DUP4 PUSH1 0x1 PUSH1 0x1 PUSH1 0xA0 SHL SUB AND DUP7 PUSH1 0x1 PUSH1 0x1 PUSH1 0xA0 SHL SUB AND PUSH32 0xA71185A0FF368DE4E9E445D8601C4FBD50D9B674E4E43F5F8FEAFB8D64A2E13E DUP8 DUP6 PUSH1 0x40 MLOAD PUSH2 0xDFE SWAP3 SWAP2 SWAP1 SWAP2 DUP3 MSTORE PUSH1 0x20 DUP3 ADD MSTORE PUSH1 0x40 ADD SWAP1 JUMP JUMPDEST PUSH1 0x2 PUSH1 0x1 SLOAD SUB PUSH2 0x1547 JUMPI PUSH1 0x40 MLOAD PUSH3 0x461BCD PUSH1 0xE5 SHL DUP2 MSTORE PUSH1 0x4 ADD PUSH2 0x544 SWAP1 PUSH2 0x3A94 JUMP JUMPDEST PUSH1 0x2 PUSH1 0x1 SSTORE PUSH2 0x1561 PUSH1 0x1 PUSH1 0x1 PUSH1 0xA0 SHL SUB DUP10 AND CALLER ADDRESS DUP10 PUSH2 0x1F1C JUMP JUMPDEST PUSH2 0x1576 PUSH1 0x1 PUSH1 0x1 PUSH1 0xA0 SHL SUB DUP9 AND CALLER ADDRESS DUP9 PUSH2 0x1F1C JUMP JUMPDEST PUSH1 0x0 PUSH2 0x1588 DUP10 DUP10 DUP10 DUP10 DUP10 DUP10 DUP10 DUP10 PUSH2 0x288E JUMP JUMPDEST PUSH1 0x40 DUP1 MLOAD PUSH1 0x1 PUSH1 0x1 PUSH1 0xA0 SHL SUB DUP9 DUP2 AND DUP3 MSTORE PUSH1 0x20 DUP3 ADD DUP12 SWAP1 MSTORE SWAP2 DUP2 ADD DUP10 SWAP1 MSTORE PUSH1 0x60 DUP2 ADD DUP4 SWAP1 MSTORE SWAP2 SWAP3 POP CALLER SWAP2 DUP11 DUP3 AND SWAP2 DUP13 AND SWAP1 PUSH32 0x4FF29158E89C3AF93365BF0FA1D14C5768109FB139F24B97C8A7D510B2D5E3F6 SWAP1 PUSH1 0x80 ADD PUSH1 0x40 MLOAD DUP1 SWAP2 SUB SWAP1 LOG4 POP POP PUSH1 0x1 DUP1 SSTORE POP POP POP POP POP POP POP JUMP JUMPDEST PUSH1 0x2 PUSH1 0x1 SLOAD SUB PUSH2 0x1617 JUMPI PUSH1 0x40 MLOAD PUSH3 0x461BCD PUSH1 0xE5 SHL DUP2 MSTORE PUSH1 0x4 ADD PUSH2 0x544 SWAP1 PUSH2 0x3A94 JUMP JUMPDEST PUSH1 0x2 PUSH1 0x1 DUP2 SWAP1 SSTORE SLOAD PUSH1 0x40 DUP1 MLOAD PUSH4 0xD0E30DB PUSH1 0xE4 SHL DUP2 MSTORE SWAP1 MLOAD PUSH1 0x1 PUSH1 0x1 PUSH1 0xA0 SHL SUB SWAP1 SWAP3 AND SWAP2 PUSH4 0xD0E30DB0 SWAP2 CALLVALUE SWAP2 PUSH1 0x4 DUP1 DUP4 ADD SWAP3 PUSH1 0x0 SWAP3 SWAP2 SWAP1 DUP3 SWAP1 SUB ADD DUP2 DUP6 DUP9 DUP1 EXTCODESIZE ISZERO DUP1 ISZERO PUSH2 0x1663 JUMPI PUSH1 0x0 DUP1 REVERT JUMPDEST POP GAS CALL ISZERO DUP1 ISZERO PUSH2 0x1677 JUMPI RETURNDATASIZE PUSH1 0x0 DUP1 RETURNDATACOPY RETURNDATASIZE PUSH1 0x0 REVERT JUMPDEST POP PUSH2 0x1693 SWAP4 POP POP POP PUSH1 0x1 PUSH1 0x1 PUSH1 0xA0 SHL SUB DUP9 AND SWAP1 POP CALLER ADDRESS DUP9 PUSH2 0x1F1C JUMP JUMPDEST PUSH1 0x6 SLOAD PUSH1 0x0 SWAP1 PUSH2 0x16B2 SWAP1 PUSH1 0x1 PUSH1 0x1 PUSH1 0xA0 SHL SUB AND DUP9 CALLVALUE DUP10 DUP10 DUP10 DUP10 DUP10 PUSH2 0x288E JUMP JUMPDEST PUSH1 0x40 DUP1 MLOAD PUSH1 0x1 PUSH1 0x1 PUSH1 0xA0 SHL SUB DUP9 DUP2 AND DUP3 MSTORE CALLVALUE PUSH1 0x20 DUP4 ADD MSTORE SWAP2 DUP2 ADD DUP10 SWAP1 MSTORE PUSH1 0x60 DUP2 ADD DUP4 SWAP1 MSTORE SWAP2 SWAP3 POP CALLER SWAP2 SWAP1 DUP10 AND SWAP1 PUSH1 0x0 SWAP1 PUSH32 0x4FF29158E89C3AF93365BF0FA1D14C5768109FB139F24B97C8A7D510B2D5E3F6 SWAP1 PUSH1 0x80 ADD PUSH1 0x40 MLOAD DUP1 SWAP2 SUB SWAP1 LOG4 POP POP PUSH1 0x1 DUP1 SSTORE POP POP POP POP POP JUMP JUMPDEST PUSH2 0x1724 PUSH2 0x1795 JUMP JUMPDEST PUSH1 0x1 PUSH1 0x1 PUSH1 0xA0 SHL SUB DUP2 AND PUSH2 0x1789 JUMPI PUSH1 0x40 MLOAD PUSH3 0x461BCD PUSH1 0xE5 SHL DUP2 MSTORE PUSH1 0x20 PUSH1 0x4 DUP3 ADD MSTORE PUSH1 0x26 PUSH1 0x24 DUP3 ADD MSTORE PUSH32 0x4F776E61626C653A206E6577206F776E657220697320746865207A65726F2061 PUSH1 0x44 DUP3 ADD MSTORE PUSH6 0x646472657373 PUSH1 0xD0 SHL PUSH1 0x64 DUP3 ADD MSTORE PUSH1 0x84 ADD PUSH2 0x544 JUMP JUMPDEST PUSH2 0x1792 DUP2 PUSH2 0x2449 JUMP JUMPDEST POP JUMP JUMPDEST PUSH1 0x0 SLOAD PUSH1 0x1 PUSH1 0x1 PUSH1 0xA0 SHL SUB AND CALLER EQ PUSH2 0xE23 JUMPI PUSH1 0x40 MLOAD PUSH3 0x461BCD PUSH1 0xE5 SHL DUP2 MSTORE PUSH1 0x20 PUSH1 0x4 DUP3 ADD DUP2 SWAP1 MSTORE PUSH1 0x24 DUP3 ADD MSTORE PUSH32 0x4F776E61626C653A2063616C6C6572206973206E6F7420746865206F776E6572 PUSH1 0x44 DUP3 ADD MSTORE PUSH1 0x64 ADD PUSH2 0x544 JUMP JUMPDEST PUSH1 0x0 DUP1 PUSH2 0x17FD PUSH1 0x2 DUP7 PUSH2 0x3A72 JUMP JUMPDEST PUSH1 0x3 SLOAD PUSH1 0x40 MLOAD PUSH4 0x1535435 PUSH1 0xE2 SHL DUP2 MSTORE PUSH1 0x4 DUP2 ADD DUP4 SWAP1 MSTORE PUSH1 0x24 DUP2 ADD DUP8 SWAP1 MSTORE PUSH1 0x44 DUP2 ADD DUP7 SWAP1 MSTORE SWAP2 SWAP3 POP PUSH1 0x0 SWAP2 PUSH1 0x1 PUSH1 0x1 PUSH1 0xA0 SHL SUB SWAP1 SWAP2 AND SWAP1 PUSH4 0x54D50D4 SWAP1 PUSH1 0x64 ADD PUSH1 0x20 PUSH1 0x40 MLOAD DUP1 DUP4 SUB DUP2 DUP7 GAS STATICCALL ISZERO DUP1 ISZERO PUSH2 0x185A JUMPI RETURNDATASIZE PUSH1 0x0 DUP1 RETURNDATACOPY RETURNDATASIZE PUSH1 0x0 REVERT JUMPDEST POP POP POP POP PUSH1 0x40 MLOAD RETURNDATASIZE PUSH1 0x1F NOT PUSH1 0x1F DUP3 ADD AND DUP3 ADD DUP1 PUSH1 0x40 MSTORE POP DUP2 ADD SWAP1 PUSH2 0x187E SWAP2 SWAP1 PUSH2 0x3A24 JUMP JUMPDEST PUSH1 0x3 SLOAD SWAP1 SWAP2 POP PUSH1 0x0 SWAP1 PUSH1 0x1 PUSH1 0x1 PUSH1 0xA0 SHL SUB AND PUSH4 0xAD615DEC DUP5 PUSH2 0x18A0 DUP2 DUP11 PUSH2 0x3B29 JUMP JUMPDEST PUSH2 0x18AA DUP7 DUP11 PUSH2 0x3B41 JUMP JUMPDEST PUSH1 0x40 MLOAD PUSH1 0x1 PUSH1 0x1 PUSH1 0xE0 SHL SUB NOT PUSH1 0xE0 DUP7 SWAP1 SHL AND DUP2 MSTORE PUSH1 0x4 DUP2 ADD SWAP4 SWAP1 SWAP4 MSTORE PUSH1 0x24 DUP4 ADD SWAP2 SWAP1 SWAP2 MSTORE PUSH1 0x44 DUP3 ADD MSTORE PUSH1 0x64 ADD PUSH1 0x20 PUSH1 0x40 MLOAD DUP1 DUP4 SUB DUP2 DUP7 GAS STATICCALL ISZERO DUP1 ISZERO PUSH2 0x18F3 JUMPI RETURNDATASIZE PUSH1 0x0 DUP1 RETURNDATACOPY RETURNDATASIZE PUSH1 0x0 REVERT JUMPDEST POP POP POP POP PUSH1 0x40 MLOAD RETURNDATASIZE PUSH1 0x1F NOT PUSH1 0x1F DUP3 ADD AND DUP3 ADD DUP1 PUSH1 0x40 MSTORE POP DUP2 ADD SWAP1 PUSH2 0x1917 SWAP2 SWAP1 PUSH2 0x3A24 JUMP JUMPDEST SWAP1 POP PUSH2 0x1941 DUP2 DUP4 PUSH2 0x1928 DUP7 DUP1 PUSH2 0x3A53 JUMP JUMPDEST PUSH2 0x1932 SWAP2 SWAP1 PUSH2 0x3A53 JUMP JUMPDEST PUSH2 0x193C SWAP2 SWAP1 PUSH2 0x3A72 JUMP JUMPDEST PUSH2 0x3131 JUMP JUMPDEST PUSH2 0x194B SWAP1 DUP9 PUSH2 0x3B41 JUMP JUMPDEST SWAP4 POP POP POP POP JUMPDEST SWAP4 SWAP3 POP POP POP JUMP JUMPDEST PUSH1 0x40 MLOAD PUSH1 0x1 PUSH1 0x1 PUSH1 0xA0 SHL SUB DUP4 AND PUSH1 0x24 DUP3 ADD MSTORE PUSH1 0x44 DUP2 ADD DUP3 SWAP1 MSTORE PUSH2 0x19BB SWAP1 DUP5 SWAP1 PUSH4 0xA9059CBB PUSH1 0xE0 SHL SWAP1 PUSH1 0x64 ADD JUMPDEST PUSH1 0x40 DUP1 MLOAD PUSH1 0x1F NOT DUP2 DUP5 SUB ADD DUP2 MSTORE SWAP2 SWAP1 MSTORE PUSH1 0x20 DUP2 ADD DUP1 MLOAD PUSH1 0x1 PUSH1 0x1 PUSH1 0xE0 SHL SUB AND PUSH1 0x1 PUSH1 0x1 PUSH1 0xE0 SHL SUB NOT SWAP1 SWAP4 AND SWAP3 SWAP1 SWAP3 OR SWAP1 SWAP2 MSTORE PUSH2 0x32B2 JUMP JUMPDEST POP POP POP JUMP JUMPDEST PUSH1 0x0 PUSH2 0x3E8 DUP5 LT ISZERO PUSH2 0x1A0A JUMPI PUSH1 0x40 MLOAD PUSH3 0x461BCD PUSH1 0xE5 SHL DUP2 MSTORE PUSH1 0x20 PUSH1 0x4 DUP3 ADD MSTORE PUSH1 0x13 PUSH1 0x24 DUP3 ADD MSTORE PUSH19 0x5A61703A20416D6F756E7420746F6F206C6F77 PUSH1 0x68 SHL PUSH1 0x44 DUP3 ADD MSTORE PUSH1 0x64 ADD PUSH2 0x544 JUMP JUMPDEST PUSH1 0x0 DUP4 PUSH1 0x1 PUSH1 0x1 PUSH1 0xA0 SHL SUB AND PUSH4 0xDFE1681 PUSH1 0x40 MLOAD DUP2 PUSH4 0xFFFFFFFF AND PUSH1 0xE0 SHL DUP2 MSTORE PUSH1 0x4 ADD PUSH1 0x20 PUSH1 0x40 MLOAD DUP1 DUP4 SUB DUP2 DUP7 GAS STATICCALL ISZERO DUP1 ISZERO PUSH2 0x1A4A JUMPI RETURNDATASIZE PUSH1 0x0 DUP1 RETURNDATACOPY RETURNDATASIZE PUSH1 0x0 REVERT JUMPDEST POP POP POP POP PUSH1 0x40 MLOAD RETURNDATASIZE PUSH1 0x1F NOT PUSH1 0x1F DUP3 ADD AND DUP3 ADD DUP1 PUSH1 0x40 MSTORE POP DUP2 ADD SWAP1 PUSH2 0x1A6E SWAP2 SWAP1 PUSH2 0x39A6 JUMP JUMPDEST SWAP1 POP PUSH1 0x0 DUP5 PUSH1 0x1 PUSH1 0x1 PUSH1 0xA0 SHL SUB AND PUSH4 0xD21220A7 PUSH1 0x40 MLOAD DUP2 PUSH4 0xFFFFFFFF AND PUSH1 0xE0 SHL DUP2 MSTORE PUSH1 0x4 ADD PUSH1 0x20 PUSH1 0x40 MLOAD DUP1 DUP4 SUB DUP2 DUP7 GAS STATICCALL ISZERO DUP1 ISZERO PUSH2 0x1AB0 JUMPI RETURNDATASIZE PUSH1 0x0 DUP1 RETURNDATACOPY RETURNDATASIZE PUSH1 0x0 REVERT JUMPDEST POP POP POP POP PUSH1 0x40 MLOAD RETURNDATASIZE PUSH1 0x1F NOT PUSH1 0x1F DUP3 ADD AND DUP3 ADD DUP1 PUSH1 0x40 MSTORE POP DUP2 ADD SWAP1 PUSH2 0x1AD4 SWAP2 SWAP1 PUSH2 0x39A6 JUMP JUMPDEST SWAP1 POP DUP2 PUSH1 0x1 PUSH1 0x1 PUSH1 0xA0 SHL SUB AND DUP8 PUSH1 0x1 PUSH1 0x1 PUSH1 0xA0 SHL SUB AND EQ DUP1 PUSH2 0x1B07 JUMPI POP DUP1 PUSH1 0x1 PUSH1 0x1 PUSH1 0xA0 SHL SUB AND DUP8 PUSH1 0x1 PUSH1 0x1 PUSH1 0xA0 SHL SUB AND EQ JUMPDEST PUSH2 0x1B47 JUMPI PUSH1 0x40 MLOAD PUSH3 0x461BCD PUSH1 0xE5 SHL DUP2 MSTORE PUSH1 0x20 PUSH1 0x4 DUP3 ADD MSTORE PUSH1 0x11 PUSH1 0x24 DUP3 ADD MSTORE PUSH17 0x5A61703A2057726F6E6720746F6B656E73 PUSH1 0x78 SHL PUSH1 0x44 DUP3 ADD MSTORE PUSH1 0x64 ADD PUSH2 0x544 JUMP JUMPDEST PUSH1 0x40 DUP1 MLOAD PUSH1 0x2 DUP1 DUP3 MSTORE PUSH1 0x60 DUP3 ADD DUP4 MSTORE PUSH1 0x0 SWAP3 PUSH1 0x20 DUP4 ADD SWAP1 DUP1 CALLDATASIZE DUP4 CALLDATACOPY ADD SWAP1 POP POP SWAP1 POP DUP8 DUP2 PUSH1 0x0 DUP2 MLOAD DUP2 LT PUSH2 0x1B7C JUMPI PUSH2 0x1B7C PUSH2 0x3B58 JUMP JUMPDEST PUSH1 0x20 MUL PUSH1 0x20 ADD ADD SWAP1 PUSH1 0x1 PUSH1 0x1 PUSH1 0xA0 SHL SUB AND SWAP1 DUP2 PUSH1 0x1 PUSH1 0x1 PUSH1 0xA0 SHL SUB AND DUP2 MSTORE POP POP PUSH1 0x0 DUP1 PUSH1 0x0 DUP9 PUSH1 0x1 PUSH1 0x1 PUSH1 0xA0 SHL SUB AND PUSH4 0x902F1AC PUSH1 0x40 MLOAD DUP2 PUSH4 0xFFFFFFFF AND PUSH1 0xE0 SHL DUP2 MSTORE PUSH1 0x4 ADD PUSH1 0x60 PUSH1 0x40 MLOAD DUP1 DUP4 SUB DUP2 DUP7 GAS STATICCALL ISZERO DUP1 ISZERO PUSH2 0x1BDF JUMPI RETURNDATASIZE PUSH1 0x0 DUP1 RETURNDATACOPY RETURNDATASIZE PUSH1 0x0 REVERT JUMPDEST POP POP POP POP PUSH1 0x40 MLOAD RETURNDATASIZE PUSH1 0x1F NOT PUSH1 0x1F DUP3 ADD AND DUP3 ADD DUP1 PUSH1 0x40 MSTORE POP DUP2 ADD SWAP1 PUSH2 0x1C03 SWAP2 SWAP1 PUSH2 0x39DF JUMP JUMPDEST POP PUSH1 0x1 PUSH1 0x1 PUSH1 0x70 SHL SUB AND SWAP2 POP PUSH1 0x1 PUSH1 0x1 PUSH1 0x70 SHL SUB AND SWAP2 POP PUSH2 0x3E8 DUP3 LT ISZERO DUP1 ISZERO PUSH2 0x1C2E JUMPI POP PUSH2 0x3E8 DUP2 LT ISZERO JUMPDEST PUSH2 0x1C72 JUMPI PUSH1 0x40 MLOAD PUSH3 0x461BCD PUSH1 0xE5 SHL DUP2 MSTORE PUSH1 0x20 PUSH1 0x4 DUP3 ADD MSTORE PUSH1 0x15 PUSH1 0x24 DUP3 ADD MSTORE PUSH21 0x5A61703A20526573657276657320746F6F206C6F77 PUSH1 0x58 SHL PUSH1 0x44 DUP3 ADD MSTORE PUSH1 0x64 ADD PUSH2 0x544 JUMP JUMPDEST DUP11 PUSH1 0x1 PUSH1 0x1 PUSH1 0xA0 SHL SUB AND DUP7 PUSH1 0x1 PUSH1 0x1 PUSH1 0xA0 SHL SUB AND SUB PUSH2 0x1CF4 JUMPI PUSH2 0x1C96 DUP11 DUP4 DUP4 PUSH2 0x17EF JUMP JUMPDEST SWAP3 POP DUP5 DUP5 PUSH1 0x1 DUP2 MLOAD DUP2 LT PUSH2 0x1CAC JUMPI PUSH2 0x1CAC PUSH2 0x3B58 JUMP JUMPDEST PUSH1 0x1 PUSH1 0x1 PUSH1 0xA0 SHL SUB SWAP1 SWAP3 AND PUSH1 0x20 SWAP3 DUP4 MUL SWAP2 SWAP1 SWAP2 ADD SWAP1 SWAP2 ADD MSTORE PUSH1 0x4 SLOAD PUSH2 0x1CD1 DUP5 DUP5 PUSH2 0x3A72 JUMP JUMPDEST LT ISZERO PUSH2 0x1CEF JUMPI PUSH1 0x40 MLOAD PUSH3 0x461BCD PUSH1 0xE5 SHL DUP2 MSTORE PUSH1 0x4 ADD PUSH2 0x544 SWAP1 PUSH2 0x3B6E JUMP JUMPDEST PUSH2 0x1D58 JUMP JUMPDEST PUSH2 0x1CFF DUP11 DUP3 DUP5 PUSH2 0x17EF JUMP JUMPDEST SWAP3 POP DUP6 DUP5 PUSH1 0x1 DUP2 MLOAD DUP2 LT PUSH2 0x1D15 JUMPI PUSH2 0x1D15 PUSH2 0x3B58 JUMP JUMPDEST PUSH1 0x1 PUSH1 0x1 PUSH1 0xA0 SHL SUB SWAP1 SWAP3 AND PUSH1 0x20 SWAP3 DUP4 MUL SWAP2 SWAP1 SWAP2 ADD SWAP1 SWAP2 ADD MSTORE PUSH1 0x4 SLOAD PUSH2 0x1D3A DUP5 DUP4 PUSH2 0x3A72 JUMP JUMPDEST LT ISZERO PUSH2 0x1D58 JUMPI PUSH1 0x40 MLOAD PUSH3 0x461BCD PUSH1 0xE5 SHL DUP2 MSTORE PUSH1 0x4 ADD PUSH2 0x544 SWAP1 PUSH2 0x3B6E JUMP JUMPDEST POP POP PUSH2 0x1D63 DUP10 PUSH2 0x3384 JUMP JUMPDEST PUSH1 0x3 SLOAD PUSH1 0x40 MLOAD PUSH4 0x38ED1739 PUSH1 0xE0 SHL DUP2 MSTORE PUSH1 0x0 SWAP2 PUSH1 0x1 PUSH1 0x1 PUSH1 0xA0 SHL SUB AND SWAP1 PUSH4 0x38ED1739 SWAP1 PUSH2 0x1D9C SWAP1 DUP6 SWAP1 DUP12 SWAP1 DUP9 SWAP1 ADDRESS SWAP1 TIMESTAMP SWAP1 PUSH1 0x4 ADD PUSH2 0x3BA5 JUMP JUMPDEST PUSH1 0x0 PUSH1 0x40 MLOAD DUP1 DUP4 SUB DUP2 PUSH1 0x0 DUP8 GAS CALL ISZERO DUP1 ISZERO PUSH2 0x1DBB JUMPI RETURNDATASIZE PUSH1 0x0 DUP1 RETURNDATACOPY RETURNDATASIZE PUSH1 0x0 REVERT JUMPDEST POP POP POP POP PUSH1 0x40 MLOAD RETURNDATASIZE PUSH1 0x0 DUP3 RETURNDATACOPY PUSH1 0x1F RETURNDATASIZE SWAP1 DUP2 ADD PUSH1 0x1F NOT AND DUP3 ADD PUSH1 0x40 MSTORE PUSH2 0x1DE3 SWAP2 SWAP1 DUP2 ADD SWAP1 PUSH2 0x3C16 JUMP JUMPDEST SWAP1 POP DUP10 PUSH1 0x1 PUSH1 0x1 PUSH1 0xA0 SHL SUB AND DUP6 PUSH1 0x1 PUSH1 0x1 PUSH1 0xA0 SHL SUB AND SUB PUSH2 0x1E0C JUMPI PUSH2 0x1E07 DUP5 PUSH2 0x3384 JUMP JUMPDEST PUSH2 0x1E15 JUMP JUMPDEST PUSH2 0x1E15 DUP6 PUSH2 0x3384 JUMP JUMPDEST PUSH1 0x3 SLOAD DUP4 MLOAD PUSH1 0x1 PUSH1 0x1 PUSH1 0xA0 SHL SUB SWAP1 SWAP2 AND SWAP1 PUSH4 0xE8E33700 SWAP1 DUP6 SWAP1 PUSH1 0x0 SWAP1 PUSH2 0x1E3D JUMPI PUSH2 0x1E3D PUSH2 0x3B58 JUMP JUMPDEST PUSH1 0x20 MUL PUSH1 0x20 ADD ADD MLOAD DUP6 PUSH1 0x1 DUP2 MLOAD DUP2 LT PUSH2 0x1E58 JUMPI PUSH2 0x1E58 PUSH2 0x3B58 JUMP JUMPDEST PUSH1 0x20 MUL PUSH1 0x20 ADD ADD MLOAD DUP5 PUSH1 0x0 DUP2 MLOAD DUP2 LT PUSH2 0x1E73 JUMPI PUSH2 0x1E73 PUSH2 0x3B58 JUMP JUMPDEST PUSH1 0x20 MUL PUSH1 0x20 ADD ADD MLOAD DUP14 PUSH2 0x1E86 SWAP2 SWAP1 PUSH2 0x3B41 JUMP JUMPDEST DUP6 PUSH1 0x1 DUP2 MLOAD DUP2 LT PUSH2 0x1E99 JUMPI PUSH2 0x1E99 PUSH2 0x3B58 JUMP JUMPDEST PUSH1 0x20 MUL PUSH1 0x20 ADD ADD MLOAD PUSH1 0x1 DUP1 CALLER TIMESTAMP PUSH1 0x40 MLOAD DUP10 PUSH4 0xFFFFFFFF AND PUSH1 0xE0 SHL DUP2 MSTORE PUSH1 0x4 ADD PUSH2 0x1EC9 SWAP9 SWAP8 SWAP7 SWAP6 SWAP5 SWAP4 SWAP3 SWAP2 SWAP1 PUSH2 0x3CD4 JUMP JUMPDEST PUSH1 0x60 PUSH1 0x40 MLOAD DUP1 DUP4 SUB DUP2 PUSH1 0x0 DUP8 GAS CALL ISZERO DUP1 ISZERO PUSH2 0x1EE8 JUMPI RETURNDATASIZE PUSH1 0x0 DUP1 RETURNDATACOPY RETURNDATASIZE PUSH1 0x0 REVERT JUMPDEST POP POP POP POP PUSH1 0x40 MLOAD RETURNDATASIZE PUSH1 0x1F NOT PUSH1 0x1F DUP3 ADD AND DUP3 ADD DUP1 PUSH1 0x40 MSTORE POP DUP2 ADD SWAP1 PUSH2 0x1F0C SWAP2 SWAP1 PUSH2 0x3D1D JUMP JUMPDEST SWAP13 SWAP12 POP POP POP POP POP POP POP POP POP POP POP POP JUMP JUMPDEST PUSH1 0x40 MLOAD PUSH1 0x1 PUSH1 0x1 PUSH1 0xA0 SHL SUB DUP1 DUP6 AND PUSH1 0x24 DUP4 ADD MSTORE DUP4 AND PUSH1 0x44 DUP3 ADD MSTORE PUSH1 0x64 DUP2 ADD DUP3 SWAP1 MSTORE PUSH2 0x1F54 SWAP1 DUP6 SWAP1 PUSH4 0x23B872DD PUSH1 0xE0 SHL SWAP1 PUSH1 0x84 ADD PUSH2 0x1984 JUMP JUMPDEST POP POP POP POP JUMP JUMPDEST PUSH1 0x0 DUP1 DUP5 PUSH1 0x1 PUSH1 0x1 PUSH1 0xA0 SHL SUB AND PUSH4 0xDFE1681 PUSH1 0x40 MLOAD DUP2 PUSH4 0xFFFFFFFF AND PUSH1 0xE0 SHL DUP2 MSTORE PUSH1 0x4 ADD PUSH1 0x20 PUSH1 0x40 MLOAD DUP1 DUP4 SUB DUP2 DUP7 GAS STATICCALL ISZERO DUP1 ISZERO PUSH2 0x1F9B JUMPI RETURNDATASIZE PUSH1 0x0 DUP1 RETURNDATACOPY RETURNDATASIZE PUSH1 0x0 REVERT JUMPDEST POP POP POP POP PUSH1 0x40 MLOAD RETURNDATASIZE PUSH1 0x1F NOT PUSH1 0x1F DUP3 ADD AND DUP3 ADD DUP1 PUSH1 0x40 MSTORE POP DUP2 ADD SWAP1 PUSH2 0x1FBF SWAP2 SWAP1 PUSH2 0x39A6 JUMP JUMPDEST SWAP1 POP PUSH1 0x0 DUP6 PUSH1 0x1 PUSH1 0x1 PUSH1 0xA0 SHL SUB AND PUSH4 0xD21220A7 PUSH1 0x40 MLOAD DUP2 PUSH4 0xFFFFFFFF AND PUSH1 0xE0 SHL DUP2 MSTORE PUSH1 0x4 ADD PUSH1 0x20 PUSH1 0x40 MLOAD DUP1 DUP4 SUB DUP2 DUP7 GAS STATICCALL ISZERO DUP1 ISZERO PUSH2 0x2001 JUMPI RETURNDATASIZE PUSH1 0x0 DUP1 RETURNDATACOPY RETURNDATASIZE PUSH1 0x0 REVERT JUMPDEST POP POP POP POP PUSH1 0x40 MLOAD RETURNDATASIZE PUSH1 0x1F NOT PUSH1 0x1F DUP3 ADD AND DUP3 ADD DUP1 PUSH1 0x40 MSTORE POP DUP2 ADD SWAP1 PUSH2 0x2025 SWAP2 SWAP1 PUSH2 0x39A6 JUMP JUMPDEST SWAP1 POP DUP2 PUSH1 0x1 PUSH1 0x1 PUSH1 0xA0 SHL SUB AND DUP6 PUSH1 0x1 PUSH1 0x1 PUSH1 0xA0 SHL SUB AND EQ DUP1 PUSH2 0x2058 JUMPI POP DUP1 PUSH1 0x1 PUSH1 0x1 PUSH1 0xA0 SHL SUB AND DUP6 PUSH1 0x1 PUSH1 0x1 PUSH1 0xA0 SHL SUB AND EQ JUMPDEST PUSH2 0x209B JUMPI PUSH1 0x40 MLOAD PUSH3 0x461BCD PUSH1 0xE5 SHL DUP2 MSTORE PUSH1 0x20 PUSH1 0x4 DUP3 ADD MSTORE PUSH1 0x14 PUSH1 0x24 DUP3 ADD MSTORE PUSH20 0x5A61703A20546F6B656E206E6F7420696E204C5 PUSH1 0x64 SHL PUSH1 0x44 DUP3 ADD MSTORE PUSH1 0x64 ADD PUSH2 0x544 JUMP JUMPDEST PUSH1 0x40 MLOAD PUSH4 0x226BF2D1 PUSH1 0xE2 SHL DUP2 MSTORE ADDRESS PUSH1 0x4 DUP3 ADD MSTORE PUSH1 0x0 SWAP1 DUP2 SWAP1 PUSH1 0x1 PUSH1 0x1 PUSH1 0xA0 SHL SUB DUP10 AND SWAP1 PUSH4 0x89AFCB44 SWAP1 PUSH1 0x24 ADD PUSH1 0x40 DUP1 MLOAD DUP1 DUP4 SUB DUP2 PUSH1 0x0 DUP8 GAS CALL ISZERO DUP1 ISZERO PUSH2 0x20E5 JUMPI RETURNDATASIZE PUSH1 0x0 DUP1 RETURNDATACOPY RETURNDATASIZE PUSH1 0x0 REVERT JUMPDEST POP POP POP POP PUSH1 0x40 MLOAD RETURNDATASIZE PUSH1 0x1F NOT PUSH1 0x1F DUP3 ADD AND DUP3 ADD DUP1 PUSH1 0x40 MSTORE POP DUP2 ADD SWAP1 PUSH2 0x2109 SWAP2 SWAP1 PUSH2 0x3D4B JUMP JUMPDEST SWAP2 POP SWAP2 POP PUSH2 0x3E8 DUP3 LT ISZERO PUSH2 0x216B JUMPI PUSH1 0x40 MLOAD PUSH3 0x461BCD PUSH1 0xE5 SHL DUP2 MSTORE PUSH1 0x20 PUSH1 0x4 DUP3 ADD MSTORE PUSH1 0x24 DUP1 DUP3 ADD MSTORE PUSH32 0x50616E63616B65526F757465723A20494E53554646494349454E545F415F414D PUSH1 0x44 DUP3 ADD MSTORE PUSH4 0x13D55395 PUSH1 0xE2 SHL PUSH1 0x64 DUP3 ADD MSTORE PUSH1 0x84 ADD PUSH2 0x544 JUMP JUMPDEST PUSH2 0x3E8 DUP2 LT ISZERO PUSH2 0x21C9 JUMPI PUSH1 0x40 MLOAD PUSH3 0x461BCD PUSH1 0xE5 SHL DUP2 MSTORE PUSH1 0x20 PUSH1 0x4 DUP3 ADD MSTORE PUSH1 0x24 DUP1 DUP3 ADD MSTORE PUSH32 0x50616E63616B65526F757465723A20494E53554646494349454E545F425F414D PUSH1 0x44 DUP3 ADD MSTORE PUSH4 0x13D55395 PUSH1 0xE2 SHL PUSH1 0x64 DUP3 ADD MSTORE PUSH1 0x84 ADD PUSH2 0x544 JUMP JUMPDEST PUSH1 0x40 DUP1 MLOAD PUSH1 0x2 DUP1 DUP3 MSTORE PUSH1 0x60 DUP3 ADD DUP4 MSTORE PUSH1 0x0 SWAP3 PUSH1 0x20 DUP4 ADD SWAP1 DUP1 CALLDATASIZE DUP4 CALLDATACOPY ADD SWAP1 POP POP SWAP1 POP DUP8 DUP2 PUSH1 0x1 DUP2 MLOAD DUP2 LT PUSH2 0x21FE JUMPI PUSH2 0x21FE PUSH2 0x3B58 JUMP JUMPDEST PUSH1 0x1 PUSH1 0x1 PUSH1 0xA0 SHL SUB SWAP3 DUP4 AND PUSH1 0x20 SWAP2 DUP3 MUL SWAP3 SWAP1 SWAP3 ADD ADD MSTORE PUSH1 0x0 SWAP1 DUP10 DUP2 AND SWAP1 DUP8 AND SUB PUSH2 0x22BD JUMPI DUP5 DUP3 PUSH1 0x0 DUP2 MLOAD DUP2 LT PUSH2 0x2236 JUMPI PUSH2 0x2236 PUSH2 0x3B58 JUMP JUMPDEST PUSH1 0x1 PUSH1 0x1 PUSH1 0xA0 SHL SUB SWAP3 DUP4 AND PUSH1 0x20 SWAP2 DUP3 MUL SWAP3 SWAP1 SWAP3 ADD ADD MSTORE PUSH1 0x40 MLOAD PUSH4 0x70A08231 PUSH1 0xE0 SHL DUP2 MSTORE ADDRESS PUSH1 0x4 DUP3 ADD MSTORE SWAP1 DUP7 AND SWAP1 PUSH4 0x70A08231 SWAP1 PUSH1 0x24 ADD PUSH1 0x20 PUSH1 0x40 MLOAD DUP1 DUP4 SUB DUP2 DUP7 GAS STATICCALL ISZERO DUP1 ISZERO PUSH2 0x2289 JUMPI RETURNDATASIZE PUSH1 0x0 DUP1 RETURNDATACOPY RETURNDATASIZE PUSH1 0x0 REVERT JUMPDEST POP POP POP POP PUSH1 0x40 MLOAD RETURNDATASIZE PUSH1 0x1F NOT PUSH1 0x1F DUP3 ADD AND DUP3 ADD DUP1 PUSH1 0x40 MSTORE POP DUP2 ADD SWAP1 PUSH2 0x22AD SWAP2 SWAP1 PUSH2 0x3A24 JUMP JUMPDEST SWAP1 POP PUSH2 0x22B8 DUP6 PUSH2 0x3384 JUMP JUMPDEST PUSH2 0x2353 JUMP JUMPDEST DUP6 DUP3 PUSH1 0x0 DUP2 MLOAD DUP2 LT PUSH2 0x22D1 JUMPI PUSH2 0x22D1 PUSH2 0x3B58 JUMP JUMPDEST PUSH1 0x1 PUSH1 0x1 PUSH1 0xA0 SHL SUB SWAP3 DUP4 AND PUSH1 0x20 SWAP2 DUP3 MUL SWAP3 SWAP1 SWAP3 ADD ADD MSTORE PUSH1 0x40 MLOAD PUSH4 0x70A08231 PUSH1 0xE0 SHL DUP2 MSTORE ADDRESS PUSH1 0x4 DUP3 ADD MSTORE SWAP1 DUP8 AND SWAP1 PUSH4 0x70A08231 SWAP1 PUSH1 0x24 ADD PUSH1 0x20 PUSH1 0x40 MLOAD DUP1 DUP4 SUB DUP2 DUP7 GAS STATICCALL ISZERO DUP1 ISZERO PUSH2 0x2324 JUMPI RETURNDATASIZE PUSH1 0x0 DUP1 RETURNDATACOPY RETURNDATASIZE PUSH1 0x0 REVERT JUMPDEST POP POP POP POP PUSH1 0x40 MLOAD RETURNDATASIZE PUSH1 0x1F NOT PUSH1 0x1F DUP3 ADD AND DUP3 ADD DUP1 PUSH1 0x40 MSTORE POP DUP2 ADD SWAP1 PUSH2 0x2348 SWAP2 SWAP1 PUSH2 0x3A24 JUMP JUMPDEST SWAP1 POP PUSH2 0x2353 DUP7 PUSH2 0x3384 JUMP JUMPDEST PUSH1 0x3 SLOAD PUSH1 0x40 MLOAD PUSH4 0x38ED1739 PUSH1 0xE0 SHL DUP2 MSTORE PUSH1 0x1 PUSH1 0x1 PUSH1 0xA0 SHL SUB SWAP1 SWAP2 AND SWAP1 PUSH4 0x38ED1739 SWAP1 PUSH2 0x238B SWAP1 DUP5 SWAP1 DUP13 SWAP1 DUP8 SWAP1 ADDRESS SWAP1 TIMESTAMP SWAP1 PUSH1 0x4 ADD PUSH2 0x3BA5 JUMP JUMPDEST PUSH1 0x0 PUSH1 0x40 MLOAD DUP1 DUP4 SUB DUP2 PUSH1 0x0 DUP8 GAS CALL ISZERO DUP1 ISZERO PUSH2 0x23AA JUMPI RETURNDATASIZE PUSH1 0x0 DUP1 RETURNDATACOPY RETURNDATASIZE PUSH1 0x0 REVERT JUMPDEST POP POP POP POP PUSH1 0x40 MLOAD RETURNDATASIZE PUSH1 0x0 DUP3 RETURNDATACOPY PUSH1 0x1F RETURNDATASIZE SWAP1 DUP2 ADD PUSH1 0x1F NOT AND DUP3 ADD PUSH1 0x40 MSTORE PUSH2 0x23D2 SWAP2 SWAP1 DUP2 ADD SWAP1 PUSH2 0x3C16 JUMP JUMPDEST POP PUSH1 0x40 MLOAD PUSH4 0x70A08231 PUSH1 0xE0 SHL DUP2 MSTORE ADDRESS PUSH1 0x4 DUP3 ADD MSTORE PUSH1 0x1 PUSH1 0x1 PUSH1 0xA0 SHL SUB DUP11 AND SWAP1 PUSH4 0x70A08231 SWAP1 PUSH1 0x24 ADD PUSH1 0x20 PUSH1 0x40 MLOAD DUP1 DUP4 SUB DUP2 DUP7 GAS STATICCALL ISZERO DUP1 ISZERO PUSH2 0x2417 JUMPI RETURNDATASIZE PUSH1 0x0 DUP1 RETURNDATACOPY RETURNDATASIZE PUSH1 0x0 REVERT JUMPDEST POP POP POP POP PUSH1 0x40 MLOAD RETURNDATASIZE PUSH1 0x1F NOT PUSH1 0x1F DUP3 ADD AND DUP3 ADD DUP1 PUSH1 0x40 MSTORE POP DUP2 ADD SWAP1 PUSH2 0x243B SWAP2 SWAP1 PUSH2 0x3A24 JUMP JUMPDEST SWAP11 SWAP10 POP POP POP POP POP POP POP POP POP POP JUMP JUMPDEST PUSH1 0x0 DUP1 SLOAD PUSH1 0x1 PUSH1 0x1 PUSH1 0xA0 SHL SUB DUP4 DUP2 AND PUSH1 0x1 PUSH1 0x1 PUSH1 0xA0 SHL SUB NOT DUP4 AND DUP2 OR DUP5 SSTORE PUSH1 0x40 MLOAD SWAP2 SWAP1 SWAP3 AND SWAP3 DUP4 SWAP2 PUSH32 0x8BE0079C531659141344CD1FD0A4F28419497F9722A3DAAFE3B4186F6B6457E0 SWAP2 SWAP1 LOG3 POP POP JUMP JUMPDEST PUSH1 0x0 DUP1 PUSH2 0x24A6 DUP6 DUP8 PUSH2 0x3A53 JUMP JUMPDEST PUSH2 0x24B0 DUP6 DUP10 PUSH2 0x3A53 JUMP JUMPDEST GT PUSH2 0x24BC JUMPI PUSH1 0x0 PUSH2 0x24BF JUMP JUMPDEST PUSH1 0x1 JUMPDEST SWAP1 POP DUP3 ISZERO ISZERO DUP2 ISZERO ISZERO EQ PUSH2 0x2514 JUMPI PUSH1 0x40 MLOAD PUSH3 0x461BCD PUSH1 0xE5 SHL DUP2 MSTORE PUSH1 0x20 PUSH1 0x4 DUP3 ADD MSTORE PUSH1 0x1A PUSH1 0x24 DUP3 ADD MSTORE PUSH32 0x5A61703A2057726F6E6720747261646520646972656374696F6E000000000000 PUSH1 0x44 DUP3 ADD MSTORE PUSH1 0x64 ADD PUSH2 0x544 JUMP JUMPDEST DUP1 ISZERO PUSH2 0x26D1 JUMPI PUSH1 0x0 PUSH1 0x2 DUP6 PUSH2 0x2529 DUP9 DUP11 PUSH2 0x3A53 JUMP JUMPDEST PUSH2 0x2533 SWAP2 SWAP1 PUSH2 0x3A72 JUMP JUMPDEST PUSH2 0x253D SWAP1 DUP11 PUSH2 0x3B41 JUMP JUMPDEST PUSH2 0x2547 SWAP2 SWAP1 PUSH2 0x3A72 JUMP JUMPDEST PUSH1 0x3 SLOAD PUSH1 0x40 MLOAD PUSH4 0x1535435 PUSH1 0xE2 SHL DUP2 MSTORE PUSH1 0x4 DUP2 ADD DUP4 SWAP1 MSTORE PUSH1 0x24 DUP2 ADD DUP10 SWAP1 MSTORE PUSH1 0x44 DUP2 ADD DUP9 SWAP1 MSTORE SWAP2 SWAP3 POP PUSH1 0x0 SWAP2 PUSH1 0x1 PUSH1 0x1 PUSH1 0xA0 SHL SUB SWAP1 SWAP2 AND SWAP1 PUSH4 0x54D50D4 SWAP1 PUSH1 0x64 ADD PUSH1 0x20 PUSH1 0x40 MLOAD DUP1 DUP4 SUB DUP2 DUP7 GAS STATICCALL ISZERO DUP1 ISZERO PUSH2 0x25A4 JUMPI RETURNDATASIZE PUSH1 0x0 DUP1 RETURNDATACOPY RETURNDATASIZE PUSH1 0x0 REVERT JUMPDEST POP POP POP POP PUSH1 0x40 MLOAD RETURNDATASIZE PUSH1 0x1F NOT PUSH1 0x1F DUP3 ADD AND DUP3 ADD DUP1 PUSH1 0x40 MSTORE POP DUP2 ADD SWAP1 PUSH2 0x25C8 SWAP2 SWAP1 PUSH2 0x3A24 JUMP JUMPDEST PUSH1 0x3 SLOAD SWAP1 SWAP2 POP PUSH1 0x0 SWAP1 PUSH1 0x1 PUSH1 0x1 PUSH1 0xA0 SHL SUB AND PUSH4 0xAD615DEC DUP5 PUSH2 0x25EA DUP2 DUP13 PUSH2 0x3B29 JUMP JUMPDEST PUSH2 0x25F4 DUP7 DUP13 PUSH2 0x3B41 JUMP JUMPDEST PUSH1 0x40 MLOAD PUSH1 0x1 PUSH1 0x1 PUSH1 0xE0 SHL SUB NOT PUSH1 0xE0 DUP7 SWAP1 SHL AND DUP2 MSTORE PUSH1 0x4 DUP2 ADD SWAP4 SWAP1 SWAP4 MSTORE PUSH1 0x24 DUP4 ADD SWAP2 SWAP1 SWAP2 MSTORE PUSH1 0x44 DUP3 ADD MSTORE PUSH1 0x64 ADD PUSH1 0x20 PUSH1 0x40 MLOAD DUP1 DUP4 SUB DUP2 DUP7 GAS STATICCALL ISZERO DUP1 ISZERO PUSH2 0x263D JUMPI RETURNDATASIZE PUSH1 0x0 DUP1 RETURNDATACOPY RETURNDATASIZE PUSH1 0x0 REVERT JUMPDEST POP POP POP POP PUSH1 0x40 MLOAD RETURNDATASIZE PUSH1 0x1F NOT PUSH1 0x1F DUP3 ADD AND DUP3 ADD DUP1 PUSH1 0x40 MSTORE POP DUP2 ADD SWAP1 PUSH2 0x2661 SWAP2 SWAP1 PUSH2 0x3A24 JUMP JUMPDEST SWAP1 POP PUSH1 0x2 PUSH2 0x266F DUP4 DUP10 PUSH2 0x3B41 JUMP JUMPDEST PUSH2 0x2679 DUP6 DUP12 PUSH2 0x3B29 JUMP JUMPDEST PUSH2 0x2683 SWAP1 DUP13 PUSH2 0x3A53 JUMP JUMPDEST PUSH2 0x268D SWAP2 SWAP1 PUSH2 0x3A72 JUMP JUMPDEST PUSH2 0x2697 SWAP1 DUP13 PUSH2 0x3B41 JUMP JUMPDEST PUSH2 0x26A1 SWAP2 SWAP1 PUSH2 0x3A72 JUMP JUMPDEST SWAP3 POP PUSH2 0x26B2 DUP2 DUP4 PUSH2 0x1928 DUP7 DUP1 PUSH2 0x3A53 JUMP JUMPDEST PUSH2 0x26BD DUP5 PUSH1 0x2 PUSH2 0x3A53 JUMP JUMPDEST PUSH2 0x26C7 SWAP2 SWAP1 PUSH2 0x3B41 JUMP JUMPDEST SWAP5 POP POP POP POP PUSH2 0x2884 JUMP JUMPDEST PUSH1 0x0 PUSH1 0x2 DUP7 PUSH2 0x26E0 DUP8 DUP12 PUSH2 0x3A53 JUMP JUMPDEST PUSH2 0x26EA SWAP2 SWAP1 PUSH2 0x3A72 JUMP JUMPDEST PUSH2 0x26F4 SWAP1 DUP10 PUSH2 0x3B41 JUMP JUMPDEST PUSH2 0x26FE SWAP2 SWAP1 PUSH2 0x3A72 JUMP JUMPDEST PUSH1 0x3 SLOAD PUSH1 0x40 MLOAD PUSH4 0x1535435 PUSH1 0xE2 SHL DUP2 MSTORE PUSH1 0x4 DUP2 ADD DUP4 SWAP1 MSTORE PUSH1 0x24 DUP2 ADD DUP9 SWAP1 MSTORE PUSH1 0x44 DUP2 ADD DUP10 SWAP1 MSTORE SWAP2 SWAP3 POP PUSH1 0x0 SWAP2 PUSH1 0x1 PUSH1 0x1 PUSH1 0xA0 SHL SUB SWAP1 SWAP2 AND SWAP1 PUSH4 0x54D50D4 SWAP1 PUSH1 0x64 ADD PUSH1 0x20 PUSH1 0x40 MLOAD DUP1 DUP4 SUB DUP2 DUP7 GAS STATICCALL ISZERO DUP1 ISZERO PUSH2 0x275B JUMPI RETURNDATASIZE PUSH1 0x0 DUP1 RETURNDATACOPY RETURNDATASIZE PUSH1 0x0 REVERT JUMPDEST POP POP POP POP PUSH1 0x40 MLOAD RETURNDATASIZE PUSH1 0x1F NOT PUSH1 0x1F DUP3 ADD AND DUP3 ADD DUP1 PUSH1 0x40 MSTORE POP DUP2 ADD SWAP1 PUSH2 0x277F SWAP2 SWAP1 PUSH2 0x3A24 JUMP JUMPDEST PUSH1 0x3 SLOAD SWAP1 SWAP2 POP PUSH1 0x0 SWAP1 PUSH1 0x1 PUSH1 0x1 PUSH1 0xA0 SHL SUB AND PUSH4 0xAD615DEC DUP5 PUSH2 0x27A1 DUP2 DUP12 PUSH2 0x3B29 JUMP JUMPDEST PUSH2 0x27AB DUP7 DUP14 PUSH2 0x3B41 JUMP JUMPDEST PUSH1 0x40 MLOAD PUSH1 0x1 PUSH1 0x1 PUSH1 0xE0 SHL SUB NOT PUSH1 0xE0 DUP7 SWAP1 SHL AND DUP2 MSTORE PUSH1 0x4 DUP2 ADD SWAP4 SWAP1 SWAP4 MSTORE PUSH1 0x24 DUP4 ADD SWAP2 SWAP1 SWAP2 MSTORE PUSH1 0x44 DUP3 ADD MSTORE PUSH1 0x64 ADD PUSH1 0x20 PUSH1 0x40 MLOAD DUP1 DUP4 SUB DUP2 DUP7 GAS STATICCALL ISZERO DUP1 ISZERO PUSH2 0x27F4 JUMPI RETURNDATASIZE PUSH1 0x0 DUP1 RETURNDATACOPY RETURNDATASIZE PUSH1 0x0 REVERT JUMPDEST POP POP POP POP PUSH1 0x40 MLOAD RETURNDATASIZE PUSH1 0x1F NOT PUSH1 0x1F DUP3 ADD AND DUP3 ADD DUP1 PUSH1 0x40 MSTORE POP DUP2 ADD SWAP1 PUSH2 0x2818 SWAP2 SWAP1 PUSH2 0x3A24 JUMP JUMPDEST SWAP1 POP PUSH1 0x2 PUSH2 0x2826 DUP4 DUP11 PUSH2 0x3B41 JUMP JUMPDEST PUSH2 0x2830 DUP6 DUP11 PUSH2 0x3B29 JUMP JUMPDEST PUSH2 0x283A SWAP1 DUP14 PUSH2 0x3A53 JUMP JUMPDEST PUSH2 0x2844 SWAP2 SWAP1 PUSH2 0x3A72 JUMP JUMPDEST PUSH2 0x284E SWAP1 DUP12 PUSH2 0x3B41 JUMP JUMPDEST PUSH2 0x2858 SWAP2 SWAP1 PUSH2 0x3A72 JUMP JUMPDEST SWAP3 POP PUSH2 0x2869 DUP2 DUP4 PUSH2 0x1928 DUP7 DUP1 PUSH2 0x3A53 JUMP JUMPDEST PUSH2 0x2874 DUP5 PUSH1 0x2 PUSH2 0x3A53 JUMP JUMPDEST PUSH2 0x287E SWAP2 SWAP1 PUSH2 0x3B41 JUMP JUMPDEST SWAP5 POP POP POP POP JUMPDEST POP SWAP6 SWAP5 POP POP POP POP POP JUMP JUMPDEST PUSH1 0x0 DUP5 PUSH1 0x1 PUSH1 0x1 PUSH1 0xA0 SHL SUB AND PUSH4 0xDFE1681 PUSH1 0x40 MLOAD DUP2 PUSH4 0xFFFFFFFF AND PUSH1 0xE0 SHL DUP2 MSTORE PUSH1 0x4 ADD PUSH1 0x20 PUSH1 0x40 MLOAD DUP1 DUP4 SUB DUP2 DUP7 GAS STATICCALL ISZERO DUP1 ISZERO PUSH2 0x28CE JUMPI RETURNDATASIZE PUSH1 0x0 DUP1 RETURNDATACOPY RETURNDATASIZE PUSH1 0x0 REVERT JUMPDEST POP POP POP POP PUSH1 0x40 MLOAD RETURNDATASIZE PUSH1 0x1F NOT PUSH1 0x1F DUP3 ADD AND DUP3 ADD DUP1 PUSH1 0x40 MSTORE POP DUP2 ADD SWAP1 PUSH2 0x28F2 SWAP2 SWAP1 PUSH2 0x39A6 JUMP JUMPDEST PUSH1 0x1 PUSH1 0x1 PUSH1 0xA0 SHL SUB AND DUP10 PUSH1 0x1 PUSH1 0x1 PUSH1 0xA0 SHL SUB AND EQ DUP1 PUSH2 0x2983 JUMPI POP DUP5 PUSH1 0x1 PUSH1 0x1 PUSH1 0xA0 SHL SUB AND PUSH4 0xD21220A7 PUSH1 0x40 MLOAD DUP2 PUSH4 0xFFFFFFFF AND PUSH1 0xE0 SHL DUP2 MSTORE PUSH1 0x4 ADD PUSH1 0x20 PUSH1 0x40 MLOAD DUP1 DUP4 SUB DUP2 DUP7 GAS STATICCALL ISZERO DUP1 ISZERO PUSH2 0x294A JUMPI RETURNDATASIZE PUSH1 0x0 DUP1 RETURNDATACOPY RETURNDATASIZE PUSH1 0x0 REVERT JUMPDEST POP POP POP POP PUSH1 0x40 MLOAD RETURNDATASIZE PUSH1 0x1F NOT PUSH1 0x1F DUP3 ADD AND DUP3 ADD DUP1 PUSH1 0x40 MSTORE POP DUP2 ADD SWAP1 PUSH2 0x296E SWAP2 SWAP1 PUSH2 0x39A6 JUMP JUMPDEST PUSH1 0x1 PUSH1 0x1 PUSH1 0xA0 SHL SUB AND DUP10 PUSH1 0x1 PUSH1 0x1 PUSH1 0xA0 SHL SUB AND EQ JUMPDEST PUSH2 0x29C3 JUMPI PUSH1 0x40 MLOAD PUSH3 0x461BCD PUSH1 0xE5 SHL DUP2 MSTORE PUSH1 0x20 PUSH1 0x4 DUP3 ADD MSTORE PUSH1 0x11 PUSH1 0x24 DUP3 ADD MSTORE PUSH17 0x5A61703A2057726F6E6720746F6B656E3 PUSH1 0x7C SHL PUSH1 0x44 DUP3 ADD MSTORE PUSH1 0x64 ADD PUSH2 0x544 JUMP JUMPDEST DUP5 PUSH1 0x1 PUSH1 0x1 PUSH1 0xA0 SHL SUB AND PUSH4 0xDFE1681 PUSH1 0x40 MLOAD DUP2 PUSH4 0xFFFFFFFF AND PUSH1 0xE0 SHL DUP2 MSTORE PUSH1 0x4 ADD PUSH1 0x20 PUSH1 0x40 MLOAD DUP1 DUP4 SUB DUP2 DUP7 GAS STATICCALL ISZERO DUP1 ISZERO PUSH2 0x2A01 JUMPI RETURNDATASIZE PUSH1 0x0 DUP1 RETURNDATACOPY RETURNDATASIZE PUSH1 0x0 REVERT JUMPDEST POP POP POP POP PUSH1 0x40 MLOAD RETURNDATASIZE PUSH1 0x1F NOT PUSH1 0x1F DUP3 ADD AND DUP3 ADD DUP1 PUSH1 0x40 MSTORE POP DUP2 ADD SWAP1 PUSH2 0x2A25 SWAP2 SWAP1 PUSH2 0x39A6 JUMP JUMPDEST PUSH1 0x1 PUSH1 0x1 PUSH1 0xA0 SHL SUB AND DUP9 PUSH1 0x1 PUSH1 0x1 PUSH1 0xA0 SHL SUB AND EQ DUP1 PUSH2 0x2AB6 JUMPI POP DUP5 PUSH1 0x1 PUSH1 0x1 PUSH1 0xA0 SHL SUB AND PUSH4 0xD21220A7 PUSH1 0x40 MLOAD DUP2 PUSH4 0xFFFFFFFF AND PUSH1 0xE0 SHL DUP2 MSTORE PUSH1 0x4 ADD PUSH1 0x20 PUSH1 0x40 MLOAD DUP1 DUP4 SUB DUP2 DUP7 GAS STATICCALL ISZERO DUP1 ISZERO PUSH2 0x2A7D JUMPI RETURNDATASIZE PUSH1 0x0 DUP1 RETURNDATACOPY RETURNDATASIZE PUSH1 0x0 REVERT JUMPDEST POP POP POP POP PUSH1 0x40 MLOAD RETURNDATASIZE PUSH1 0x1F NOT PUSH1 0x1F DUP3 ADD AND DUP3 ADD DUP1 PUSH1 0x40 MSTORE POP DUP2 ADD SWAP1 PUSH2 0x2AA1 SWAP2 SWAP1 PUSH2 0x39A6 JUMP JUMPDEST PUSH1 0x1 PUSH1 0x1 PUSH1 0xA0 SHL SUB AND DUP9 PUSH1 0x1 PUSH1 0x1 PUSH1 0xA0 SHL SUB AND EQ JUMPDEST PUSH2 0x2AF6 JUMPI PUSH1 0x40 MLOAD PUSH3 0x461BCD PUSH1 0xE5 SHL DUP2 MSTORE PUSH1 0x20 PUSH1 0x4 DUP3 ADD MSTORE PUSH1 0x11 PUSH1 0x24 DUP3 ADD MSTORE PUSH17 0x5A61703A2057726F6E6720746F6B656E31 PUSH1 0x78 SHL PUSH1 0x44 DUP3 ADD MSTORE PUSH1 0x64 ADD PUSH2 0x544 JUMP JUMPDEST DUP8 PUSH1 0x1 PUSH1 0x1 PUSH1 0xA0 SHL SUB AND DUP10 PUSH1 0x1 PUSH1 0x1 PUSH1 0xA0 SHL SUB AND SUB PUSH2 0x2B4A JUMPI PUSH1 0x40 MLOAD PUSH3 0x461BCD PUSH1 0xE5 SHL DUP2 MSTORE PUSH1 0x20 PUSH1 0x4 DUP3 ADD MSTORE PUSH1 0x10 PUSH1 0x24 DUP3 ADD MSTORE PUSH16 0x5A61703A2053616D6520746F6B656E73 PUSH1 0x80 SHL PUSH1 0x44 DUP3 ADD MSTORE PUSH1 0x64 ADD PUSH2 0x544 JUMP JUMPDEST PUSH1 0x0 DUP1 PUSH1 0x0 DUP8 PUSH1 0x1 PUSH1 0x1 PUSH1 0xA0 SHL SUB AND PUSH4 0x902F1AC PUSH1 0x40 MLOAD DUP2 PUSH4 0xFFFFFFFF AND PUSH1 0xE0 SHL DUP2 MSTORE PUSH1 0x4 ADD PUSH1 0x60 PUSH1 0x40 MLOAD DUP1 DUP4 SUB DUP2 DUP7 GAS STATICCALL ISZERO DUP1 ISZERO PUSH2 0x2B8D JUMPI RETURNDATASIZE PUSH1 0x0 DUP1 RETURNDATACOPY RETURNDATASIZE PUSH1 0x0 REVERT JUMPDEST POP POP POP POP PUSH1 0x40 MLOAD RETURNDATASIZE PUSH1 0x1F NOT PUSH1 0x1F DUP3 ADD AND DUP3 ADD DUP1 PUSH1 0x40 MSTORE POP DUP2 ADD SWAP1 PUSH2 0x2BB1 SWAP2 SWAP1 PUSH2 0x39DF JUMP JUMPDEST POP PUSH1 0x1 PUSH1 0x1 PUSH1 0x70 SHL SUB AND SWAP2 POP PUSH1 0x1 PUSH1 0x1 PUSH1 0x70 SHL SUB AND SWAP2 POP PUSH2 0x3E8 DUP3 LT ISZERO DUP1 ISZERO PUSH2 0x2BDC JUMPI POP PUSH2 0x3E8 DUP2 LT ISZERO JUMPDEST PUSH2 0x2C20 JUMPI PUSH1 0x40 MLOAD PUSH3 0x461BCD PUSH1 0xE5 SHL DUP2 MSTORE PUSH1 0x20 PUSH1 0x4 DUP3 ADD MSTORE PUSH1 0x15 PUSH1 0x24 DUP3 ADD MSTORE PUSH21 0x5A61703A20526573657276657320746F6F206C6F77 PUSH1 0x58 SHL PUSH1 0x44 DUP3 ADD MSTORE PUSH1 0x64 ADD PUSH2 0x544 JUMP JUMPDEST DUP8 PUSH1 0x1 PUSH1 0x1 PUSH1 0xA0 SHL SUB AND PUSH4 0xDFE1681 PUSH1 0x40 MLOAD DUP2 PUSH4 0xFFFFFFFF AND PUSH1 0xE0 SHL DUP2 MSTORE PUSH1 0x4 ADD PUSH1 0x20 PUSH1 0x40 MLOAD DUP1 DUP4 SUB DUP2 DUP7 GAS STATICCALL ISZERO DUP1 ISZERO PUSH2 0x2C5E JUMPI RETURNDATASIZE PUSH1 0x0 DUP1 RETURNDATACOPY RETURNDATASIZE PUSH1 0x0 REVERT JUMPDEST POP POP POP POP PUSH1 0x40 MLOAD RETURNDATASIZE PUSH1 0x1F NOT PUSH1 0x1F DUP3 ADD AND DUP3 ADD DUP1 PUSH1 0x40 MSTORE POP DUP2 ADD SWAP1 PUSH2 0x2C82 SWAP2 SWAP1 PUSH2 0x39A6 JUMP JUMPDEST PUSH1 0x1 PUSH1 0x1 PUSH1 0xA0 SHL SUB AND DUP13 PUSH1 0x1 PUSH1 0x1 PUSH1 0xA0 SHL SUB AND SUB PUSH2 0x2CDA JUMPI PUSH2 0x2CA7 DUP11 DUP11 DUP5 DUP5 DUP10 PUSH2 0x2499 JUMP JUMPDEST PUSH1 0x4 SLOAD SWAP1 SWAP4 POP PUSH2 0x2CB7 DUP5 DUP5 PUSH2 0x3A72 JUMP JUMPDEST LT ISZERO PUSH2 0x2CD5 JUMPI PUSH1 0x40 MLOAD PUSH3 0x461BCD PUSH1 0xE5 SHL DUP2 MSTORE PUSH1 0x4 ADD PUSH2 0x544 SWAP1 PUSH2 0x3B6E JUMP JUMPDEST PUSH2 0x2D15 JUMP JUMPDEST PUSH2 0x2CE7 DUP11 DUP11 DUP4 DUP6 DUP10 PUSH2 0x2499 JUMP JUMPDEST PUSH1 0x4 SLOAD SWAP1 SWAP4 POP PUSH2 0x2CF7 DUP5 DUP4 PUSH2 0x3A72 JUMP JUMPDEST LT ISZERO PUSH2 0x2D15 JUMPI PUSH1 0x40 MLOAD PUSH3 0x461BCD PUSH1 0xE5 SHL DUP2 MSTORE PUSH1 0x4 ADD PUSH2 0x544 SWAP1 PUSH2 0x3B6E JUMP JUMPDEST POP POP DUP5 DUP2 GT ISZERO PUSH2 0x2D67 JUMPI PUSH1 0x40 MLOAD PUSH3 0x461BCD PUSH1 0xE5 SHL DUP2 MSTORE PUSH1 0x20 PUSH1 0x4 DUP3 ADD MSTORE PUSH1 0x1C PUSH1 0x24 DUP3 ADD MSTORE PUSH32 0x5A61703A20416D6F756E7420746F207377617020746F6F206869676800000000 PUSH1 0x44 DUP3 ADD MSTORE PUSH1 0x64 ADD PUSH2 0x544 JUMP JUMPDEST PUSH1 0x40 DUP1 MLOAD PUSH1 0x2 DUP1 DUP3 MSTORE PUSH1 0x60 DUP3 ADD DUP4 MSTORE PUSH1 0x0 SWAP3 PUSH1 0x20 DUP4 ADD SWAP1 DUP1 CALLDATASIZE DUP4 CALLDATACOPY ADD SWAP1 POP POP SWAP1 POP DUP4 ISZERO PUSH2 0x2E04 JUMPI DUP11 DUP2 PUSH1 0x0 DUP2 MLOAD DUP2 LT PUSH2 0x2DA2 JUMPI PUSH2 0x2DA2 PUSH2 0x3B58 JUMP JUMPDEST PUSH1 0x20 MUL PUSH1 0x20 ADD ADD SWAP1 PUSH1 0x1 PUSH1 0x1 PUSH1 0xA0 SHL SUB AND SWAP1 DUP2 PUSH1 0x1 PUSH1 0x1 PUSH1 0xA0 SHL SUB AND DUP2 MSTORE POP POP DUP10 DUP2 PUSH1 0x1 DUP2 MLOAD DUP2 LT PUSH2 0x2DD6 JUMPI PUSH2 0x2DD6 PUSH2 0x3B58 JUMP JUMPDEST PUSH1 0x20 MUL PUSH1 0x20 ADD ADD SWAP1 PUSH1 0x1 PUSH1 0x1 PUSH1 0xA0 SHL SUB AND SWAP1 DUP2 PUSH1 0x1 PUSH1 0x1 PUSH1 0xA0 SHL SUB AND DUP2 MSTORE POP POP PUSH2 0x2DFF DUP12 PUSH2 0x3384 JUMP JUMPDEST PUSH2 0x2E75 JUMP JUMPDEST DUP10 DUP2 PUSH1 0x0 DUP2 MLOAD DUP2 LT PUSH2 0x2E18 JUMPI PUSH2 0x2E18 PUSH2 0x3B58 JUMP JUMPDEST PUSH1 0x20 MUL PUSH1 0x20 ADD ADD SWAP1 PUSH1 0x1 PUSH1 0x1 PUSH1 0xA0 SHL SUB AND SWAP1 DUP2 PUSH1 0x1 PUSH1 0x1 PUSH1 0xA0 SHL SUB AND DUP2 MSTORE POP POP DUP11 DUP2 PUSH1 0x1 DUP2 MLOAD DUP2 LT PUSH2 0x2E4C JUMPI PUSH2 0x2E4C PUSH2 0x3B58 JUMP JUMPDEST PUSH1 0x20 MUL PUSH1 0x20 ADD ADD SWAP1 PUSH1 0x1 PUSH1 0x1 PUSH1 0xA0 SHL SUB AND SWAP1 DUP2 PUSH1 0x1 PUSH1 0x1 PUSH1 0xA0 SHL SUB AND DUP2 MSTORE POP POP PUSH2 0x2E75 DUP11 PUSH2 0x3384 JUMP JUMPDEST PUSH1 0x3 SLOAD PUSH1 0x40 MLOAD PUSH4 0x38ED1739 PUSH1 0xE0 SHL DUP2 MSTORE PUSH1 0x0 SWAP2 PUSH1 0x1 PUSH1 0x1 PUSH1 0xA0 SHL SUB AND SWAP1 PUSH4 0x38ED1739 SWAP1 PUSH2 0x2EAE SWAP1 DUP7 SWAP1 DUP11 SWAP1 DUP8 SWAP1 ADDRESS SWAP1 TIMESTAMP SWAP1 PUSH1 0x4 ADD PUSH2 0x3BA5 JUMP JUMPDEST PUSH1 0x0 PUSH1 0x40 MLOAD DUP1 DUP4 SUB DUP2 PUSH1 0x0 DUP8 GAS CALL ISZERO DUP1 ISZERO PUSH2 0x2ECD JUMPI RETURNDATASIZE PUSH1 0x0 DUP1 RETURNDATACOPY RETURNDATASIZE PUSH1 0x0 REVERT JUMPDEST POP POP POP POP PUSH1 0x40 MLOAD RETURNDATASIZE PUSH1 0x0 DUP3 RETURNDATACOPY PUSH1 0x1F RETURNDATASIZE SWAP1 DUP2 ADD PUSH1 0x1F NOT AND DUP3 ADD PUSH1 0x40 MSTORE PUSH2 0x2EF5 SWAP2 SWAP1 DUP2 ADD SWAP1 PUSH2 0x3C16 JUMP JUMPDEST SWAP1 POP DUP5 ISZERO PUSH2 0x3012 JUMPI PUSH2 0x2F06 DUP12 PUSH2 0x3384 JUMP JUMPDEST PUSH1 0x3 SLOAD DUP3 MLOAD PUSH1 0x1 PUSH1 0x1 PUSH1 0xA0 SHL SUB SWAP1 SWAP2 AND SWAP1 PUSH4 0xE8E33700 SWAP1 DUP5 SWAP1 PUSH1 0x0 SWAP1 PUSH2 0x2F2E JUMPI PUSH2 0x2F2E PUSH2 0x3B58 JUMP JUMPDEST PUSH1 0x20 MUL PUSH1 0x20 ADD ADD MLOAD DUP5 PUSH1 0x1 DUP2 MLOAD DUP2 LT PUSH2 0x2F49 JUMPI PUSH2 0x2F49 PUSH2 0x3B58 JUMP JUMPDEST PUSH1 0x20 MUL PUSH1 0x20 ADD ADD MLOAD DUP5 PUSH1 0x0 DUP2 MLOAD DUP2 LT PUSH2 0x2F64 JUMPI PUSH2 0x2F64 PUSH2 0x3B58 JUMP JUMPDEST PUSH1 0x20 MUL PUSH1 0x20 ADD ADD MLOAD DUP15 PUSH2 0x2F77 SWAP2 SWAP1 PUSH2 0x3B41 JUMP JUMPDEST DUP6 PUSH1 0x1 DUP2 MLOAD DUP2 LT PUSH2 0x2F8A JUMPI PUSH2 0x2F8A PUSH2 0x3B58 JUMP JUMPDEST PUSH1 0x20 MUL PUSH1 0x20 ADD ADD MLOAD DUP15 PUSH2 0x2F9D SWAP2 SWAP1 PUSH2 0x3B29 JUMP JUMPDEST PUSH1 0x1 DUP1 CALLER TIMESTAMP PUSH1 0x40 MLOAD DUP10 PUSH4 0xFFFFFFFF AND PUSH1 0xE0 SHL DUP2 MSTORE PUSH1 0x4 ADD PUSH2 0x2FC5 SWAP9 SWAP8 SWAP7 SWAP6 SWAP5 SWAP4 SWAP3 SWAP2 SWAP1 PUSH2 0x3CD4 JUMP JUMPDEST PUSH1 0x60 PUSH1 0x40 MLOAD DUP1 DUP4 SUB DUP2 PUSH1 0x0 DUP8 GAS CALL ISZERO DUP1 ISZERO PUSH2 0x2FE4 JUMPI RETURNDATASIZE PUSH1 0x0 DUP1 RETURNDATACOPY RETURNDATASIZE PUSH1 0x0 REVERT JUMPDEST POP POP POP POP PUSH1 0x40 MLOAD RETURNDATASIZE PUSH1 0x1F NOT PUSH1 0x1F DUP3 ADD AND DUP3 ADD DUP1 PUSH1 0x40 MSTORE POP DUP2 ADD SWAP1 PUSH2 0x3008 SWAP2 SWAP1 PUSH2 0x3D1D JUMP JUMPDEST SWAP6 POP PUSH2 0x3122 SWAP2 POP POP JUMP JUMPDEST PUSH2 0x301B DUP13 PUSH2 0x3384 JUMP JUMPDEST PUSH1 0x3 SLOAD DUP3 MLOAD PUSH1 0x1 PUSH1 0x1 PUSH1 0xA0 SHL SUB SWAP1 SWAP2 AND SWAP1 PUSH4 0xE8E33700 SWAP1 DUP5 SWAP1 PUSH1 0x0 SWAP1 PUSH2 0x3043 JUMPI PUSH2 0x3043 PUSH2 0x3B58 JUMP JUMPDEST PUSH1 0x20 MUL PUSH1 0x20 ADD ADD MLOAD DUP5 PUSH1 0x1 DUP2 MLOAD DUP2 LT PUSH2 0x305E JUMPI PUSH2 0x305E PUSH2 0x3B58 JUMP JUMPDEST PUSH1 0x20 MUL PUSH1 0x20 ADD ADD MLOAD DUP5 PUSH1 0x0 DUP2 MLOAD DUP2 LT PUSH2 0x3079 JUMPI PUSH2 0x3079 PUSH2 0x3B58 JUMP JUMPDEST PUSH1 0x20 MUL PUSH1 0x20 ADD ADD MLOAD DUP14 PUSH2 0x308C SWAP2 SWAP1 PUSH2 0x3B41 JUMP JUMPDEST DUP6 PUSH1 0x1 DUP2 MLOAD DUP2 LT PUSH2 0x309F JUMPI PUSH2 0x309F PUSH2 0x3B58 JUMP JUMPDEST PUSH1 0x20 MUL PUSH1 0x20 ADD ADD MLOAD DUP16 PUSH2 0x30B2 SWAP2 SWAP1 PUSH2 0x3B29 JUMP JUMPDEST PUSH1 0x1 DUP1 CALLER TIMESTAMP PUSH1 0x40 MLOAD DUP10 PUSH4 0xFFFFFFFF AND PUSH1 0xE0 SHL DUP2 MSTORE PUSH1 0x4 ADD PUSH2 0x30DA SWAP9 SWAP8 SWAP7 SWAP6 SWAP5 SWAP4 SWAP3 SWAP2 SWAP1 PUSH2 0x3CD4 JUMP JUMPDEST PUSH1 0x60 PUSH1 0x40 MLOAD DUP1 DUP4 SUB DUP2 PUSH1 0x0 DUP8 GAS CALL ISZERO DUP1 ISZERO PUSH2 0x30F9 JUMPI RETURNDATASIZE PUSH1 0x0 DUP1 RETURNDATACOPY RETURNDATASIZE PUSH1 0x0 REVERT JUMPDEST POP POP POP POP PUSH1 0x40 MLOAD RETURNDATASIZE PUSH1 0x1F NOT PUSH1 0x1F DUP3 ADD AND DUP3 ADD DUP1 PUSH1 0x40 MSTORE POP DUP2 ADD SWAP1 PUSH2 0x311D SWAP2 SWAP1 PUSH2 0x3D1D JUMP JUMPDEST SWAP6 POP POP POP JUMPDEST POP POP POP SWAP9 SWAP8 POP POP POP POP POP POP POP POP JUMP JUMPDEST PUSH1 0x0 DUP2 PUSH1 0x0 SUB PUSH2 0x3143 JUMPI POP PUSH1 0x0 SWAP2 SWAP1 POP JUMP JUMPDEST DUP2 PUSH1 0x1 PUSH1 0x1 PUSH1 0x80 SHL DUP3 LT PUSH2 0x315C JUMPI PUSH1 0x80 SWAP2 SWAP1 SWAP2 SHR SWAP1 PUSH1 0x40 SHL JUMPDEST PUSH9 0x10000000000000000 DUP3 LT PUSH2 0x3177 JUMPI PUSH1 0x40 SWAP2 SWAP1 SWAP2 SHR SWAP1 PUSH1 0x20 SHL JUMPDEST PUSH5 0x100000000 DUP3 LT PUSH2 0x318E JUMPI PUSH1 0x20 SWAP2 SWAP1 SWAP2 SHR SWAP1 PUSH1 0x10 SHL JUMPDEST PUSH3 0x10000 DUP3 LT PUSH2 0x31A3 JUMPI PUSH1 0x10 SWAP2 SWAP1 SWAP2 SHR SWAP1 PUSH1 0x8 SHL JUMPDEST PUSH2 0x100 DUP3 LT PUSH2 0x31B7 JUMPI PUSH1 0x8 SWAP2 SWAP1 SWAP2 SHR SWAP1 PUSH1 0x4 SHL JUMPDEST PUSH1 0x10 DUP3 LT PUSH2 0x31CA JUMPI PUSH1 0x4 SWAP2 SWAP1 SWAP2 SHR SWAP1 PUSH1 0x2 SHL JUMPDEST PUSH1 0x8 DUP3 LT PUSH2 0x31D6 JUMPI PUSH1 0x1 SHL JUMPDEST PUSH1 0x1 PUSH2 0x31E2 DUP3 DUP7 PUSH2 0x3A72 JUMP JUMPDEST PUSH2 0x31EC SWAP1 DUP4 PUSH2 0x3B29 JUMP JUMPDEST SWAP1 SHR SWAP1 POP PUSH1 0x1 PUSH2 0x31FC DUP3 DUP7 PUSH2 0x3A72 JUMP JUMPDEST PUSH2 0x3206 SWAP1 DUP4 PUSH2 0x3B29 JUMP JUMPDEST SWAP1 SHR SWAP1 POP PUSH1 0x1 PUSH2 0x3216 DUP3 DUP7 PUSH2 0x3A72 JUMP JUMPDEST PUSH2 0x3220 SWAP1 DUP4 PUSH2 0x3B29 JUMP JUMPDEST SWAP1 SHR SWAP1 POP PUSH1 0x1 PUSH2 0x3230 DUP3 DUP7 PUSH2 0x3A72 JUMP JUMPDEST PUSH2 0x323A SWAP1 DUP4 PUSH2 0x3B29 JUMP JUMPDEST SWAP1 SHR SWAP1 POP PUSH1 0x1 PUSH2 0x324A DUP3 DUP7 PUSH2 0x3A72 JUMP JUMPDEST PUSH2 0x3254 SWAP1 DUP4 PUSH2 0x3B29 JUMP JUMPDEST SWAP1 SHR SWAP1 POP PUSH1 0x1 PUSH2 0x3264 DUP3 DUP7 PUSH2 0x3A72 JUMP JUMPDEST PUSH2 0x326E SWAP1 DUP4 PUSH2 0x3B29 JUMP JUMPDEST SWAP1 SHR SWAP1 POP PUSH1 0x1 PUSH2 0x327E DUP3 DUP7 PUSH2 0x3A72 JUMP JUMPDEST PUSH2 0x3288 SWAP1 DUP4 PUSH2 0x3B29 JUMP JUMPDEST SWAP1 SHR SWAP1 POP PUSH1 0x0 PUSH2 0x3298 DUP3 DUP7 PUSH2 0x3A72 JUMP JUMPDEST SWAP1 POP DUP1 DUP3 LT PUSH2 0x32A7 JUMPI DUP1 PUSH2 0x32A9 JUMP JUMPDEST DUP2 JUMPDEST SWAP6 SWAP5 POP POP POP POP POP JUMP JUMPDEST PUSH1 0x0 PUSH2 0x3307 DUP3 PUSH1 0x40 MLOAD DUP1 PUSH1 0x40 ADD PUSH1 0x40 MSTORE DUP1 PUSH1 0x20 DUP2 MSTORE PUSH1 0x20 ADD PUSH32 0x5361666545524332303A206C6F772D6C6576656C2063616C6C206661696C6564 DUP2 MSTORE POP DUP6 PUSH1 0x1 PUSH1 0x1 PUSH1 0xA0 SHL SUB AND PUSH2 0x3425 SWAP1 SWAP3 SWAP2 SWAP1 PUSH4 0xFFFFFFFF AND JUMP JUMPDEST DUP1 MLOAD SWAP1 SWAP2 POP ISZERO PUSH2 0x19BB JUMPI DUP1 DUP1 PUSH1 0x20 ADD SWAP1 MLOAD DUP2 ADD SWAP1 PUSH2 0x3325 SWAP2 SWAP1 PUSH2 0x3D6F JUMP JUMPDEST PUSH2 0x19BB JUMPI PUSH1 0x40 MLOAD PUSH3 0x461BCD PUSH1 0xE5 SHL DUP2 MSTORE PUSH1 0x20 PUSH1 0x4 DUP3 ADD MSTORE PUSH1 0x2A PUSH1 0x24 DUP3 ADD MSTORE PUSH32 0x5361666545524332303A204552433230206F7065726174696F6E20646964206E PUSH1 0x44 DUP3 ADD MSTORE PUSH10 0x1BDD081CDD58D8D95959 PUSH1 0xB2 SHL PUSH1 0x64 DUP3 ADD MSTORE PUSH1 0x84 ADD PUSH2 0x544 JUMP JUMPDEST PUSH1 0x5 SLOAD PUSH1 0x40 MLOAD PUSH4 0x6EB1769F PUSH1 0xE1 SHL DUP2 MSTORE ADDRESS PUSH1 0x4 DUP3 ADD MSTORE PUSH1 0x1 PUSH1 0x1 PUSH1 0xA0 SHL SUB SWAP2 DUP3 AND PUSH1 0x24 DUP3 ADD MSTORE PUSH10 0xD3C21BCECCEDA1000000 SWAP2 DUP4 AND SWAP1 PUSH4 0xDD62ED3E SWAP1 PUSH1 0x44 ADD PUSH1 0x20 PUSH1 0x40 MLOAD DUP1 DUP4 SUB DUP2 DUP7 GAS STATICCALL ISZERO DUP1 ISZERO PUSH2 0x33DF JUMPI RETURNDATASIZE PUSH1 0x0 DUP1 RETURNDATACOPY RETURNDATASIZE PUSH1 0x0 REVERT JUMPDEST POP POP POP POP PUSH1 0x40 MLOAD RETURNDATASIZE PUSH1 0x1F NOT PUSH1 0x1F DUP3 ADD AND DUP3 ADD DUP1 PUSH1 0x40 MSTORE POP DUP2 ADD SWAP1 PUSH2 0x3403 SWAP2 SWAP1 PUSH2 0x3A24 JUMP JUMPDEST LT ISZERO PUSH2 0x1792 JUMPI PUSH1 0x5 SLOAD PUSH2 0x1792 SWAP1 PUSH1 0x1 PUSH1 0x1 PUSH1 0xA0 SHL SUB DUP4 DUP2 AND SWAP2 AND PUSH1 0x0 NOT PUSH2 0x343C JUMP JUMPDEST PUSH1 0x60 PUSH2 0x3434 DUP5 DUP5 PUSH1 0x0 DUP6 PUSH2 0x3551 JUMP JUMPDEST SWAP5 SWAP4 POP POP POP POP JUMP JUMPDEST DUP1 ISZERO DUP1 PUSH2 0x34B6 JUMPI POP PUSH1 0x40 MLOAD PUSH4 0x6EB1769F PUSH1 0xE1 SHL DUP2 MSTORE ADDRESS PUSH1 0x4 DUP3 ADD MSTORE PUSH1 0x1 PUSH1 0x1 PUSH1 0xA0 SHL SUB DUP4 DUP2 AND PUSH1 0x24 DUP4 ADD MSTORE DUP5 AND SWAP1 PUSH4 0xDD62ED3E SWAP1 PUSH1 0x44 ADD PUSH1 0x20 PUSH1 0x40 MLOAD DUP1 DUP4 SUB DUP2 DUP7 GAS STATICCALL ISZERO DUP1 ISZERO PUSH2 0x3490 JUMPI RETURNDATASIZE PUSH1 0x0 DUP1 RETURNDATACOPY RETURNDATASIZE PUSH1 0x0 REVERT JUMPDEST POP POP POP POP PUSH1 0x40 MLOAD RETURNDATASIZE PUSH1 0x1F NOT PUSH1 0x1F DUP3 ADD AND DUP3 ADD DUP1 PUSH1 0x40 MSTORE POP DUP2 ADD SWAP1 PUSH2 0x34B4 SWAP2 SWAP1 PUSH2 0x3A24 JUMP JUMPDEST ISZERO JUMPDEST PUSH2 0x3521 JUMPI PUSH1 0x40 MLOAD PUSH3 0x461BCD PUSH1 0xE5 SHL DUP2 MSTORE PUSH1 0x20 PUSH1 0x4 DUP3 ADD MSTORE PUSH1 0x36 PUSH1 0x24 DUP3 ADD MSTORE PUSH32 0x5361666545524332303A20617070726F76652066726F6D206E6F6E2D7A65726F PUSH1 0x44 DUP3 ADD MSTORE PUSH22 0x20746F206E6F6E2D7A65726F20616C6C6F77616E6365 PUSH1 0x50 SHL PUSH1 0x64 DUP3 ADD MSTORE PUSH1 0x84 ADD PUSH2 0x544 JUMP JUMPDEST PUSH1 0x40 MLOAD PUSH1 0x1 PUSH1 0x1 PUSH1 0xA0 SHL SUB DUP4 AND PUSH1 0x24 DUP3 ADD MSTORE PUSH1 0x44 DUP2 ADD DUP3 SWAP1 MSTORE PUSH2 0x19BB SWAP1 DUP5 SWAP1 PUSH4 0x95EA7B3 PUSH1 0xE0 SHL SWAP1 PUSH1 0x64 ADD PUSH2 0x1984 JUMP JUMPDEST PUSH1 0x60 DUP3 SELFBALANCE LT ISZERO PUSH2 0x35B2 JUMPI PUSH1 0x40 MLOAD PUSH3 0x461BCD PUSH1 0xE5 SHL DUP2 MSTORE PUSH1 0x20 PUSH1 0x4 DUP3 ADD MSTORE PUSH1 0x26 PUSH1 0x24 DUP3 ADD MSTORE PUSH32 0x416464726573733A20696E73756666696369656E742062616C616E636520666F PUSH1 0x44 DUP3 ADD MSTORE PUSH6 0x1C8818D85B1B PUSH1 0xD2 SHL PUSH1 0x64 DUP3 ADD MSTORE PUSH1 0x84 ADD PUSH2 0x544 JUMP JUMPDEST PUSH1 0x1 PUSH1 0x1 PUSH1 0xA0 SHL SUB DUP6 AND EXTCODESIZE PUSH2 0x3609 JUMPI PUSH1 0x40 MLOAD PUSH3 0x461BCD PUSH1 0xE5 SHL DUP2 MSTORE PUSH1 0x20 PUSH1 0x4 DUP3 ADD MSTORE PUSH1 0x1D PUSH1 0x24 DUP3 ADD MSTORE PUSH32 0x416464726573733A2063616C6C20746F206E6F6E2D636F6E7472616374000000 PUSH1 0x44 DUP3 ADD MSTORE PUSH1 0x64 ADD PUSH2 0x544 JUMP JUMPDEST PUSH1 0x0 DUP1 DUP7 PUSH1 0x1 PUSH1 0x1 PUSH1 0xA0 SHL SUB AND DUP6 DUP8 PUSH1 0x40 MLOAD PUSH2 0x3625 SWAP2 SWAP1 PUSH2 0x3B0D JUMP JUMPDEST PUSH1 0x0 PUSH1 0x40 MLOAD DUP1 DUP4 SUB DUP2 DUP6 DUP8 GAS CALL SWAP3 POP POP POP RETURNDATASIZE DUP1 PUSH1 0x0 DUP2 EQ PUSH2 0x3662 JUMPI PUSH1 0x40 MLOAD SWAP2 POP PUSH1 0x1F NOT PUSH1 0x3F RETURNDATASIZE ADD AND DUP3 ADD PUSH1 0x40 MSTORE RETURNDATASIZE DUP3 MSTORE RETURNDATASIZE PUSH1 0x0 PUSH1 0x20 DUP5 ADD RETURNDATACOPY PUSH2 0x3667 JUMP JUMPDEST PUSH1 0x60 SWAP2 POP JUMPDEST POP SWAP2 POP SWAP2 POP PUSH2 0x3677 DUP3 DUP3 DUP7 PUSH2 0x3682 JUMP JUMPDEST SWAP8 SWAP7 POP POP POP POP POP POP POP JUMP JUMPDEST PUSH1 0x60 DUP4 ISZERO PUSH2 0x3691 JUMPI POP DUP2 PUSH2 0x1951 JUMP JUMPDEST DUP3 MLOAD ISZERO PUSH2 0x36A1 JUMPI DUP3 MLOAD DUP1 DUP5 PUSH1 0x20 ADD REVERT JUMPDEST DUP2 PUSH1 0x40 MLOAD PUSH3 0x461BCD PUSH1 0xE5 SHL DUP2 MSTORE PUSH1 0x4 ADD PUSH2 0x544 SWAP2 SWAP1 PUSH2 0x3D8C JUMP JUMPDEST PUSH4 0x4E487B71 PUSH1 0xE0 SHL PUSH1 0x0 MSTORE PUSH1 0x1 PUSH1 0x4 MSTORE PUSH1 0x24 PUSH1 0x0 REVERT JUMPDEST PUSH1 0x0 PUSH1 0x20 DUP3 DUP5 SUB SLT ISZERO PUSH2 0x36E3 JUMPI PUSH1 0x0 DUP1 REVERT JUMPDEST POP CALLDATALOAD SWAP2 SWAP1 POP JUMP JUMPDEST PUSH1 0x1 PUSH1 0x1 PUSH1 0xA0 SHL SUB DUP2 AND DUP2 EQ PUSH2 0x1792 JUMPI PUSH1 0x0 DUP1 REVERT JUMPDEST PUSH1 0x0 DUP1 PUSH1 0x0 PUSH1 0x60 DUP5 DUP7 SUB SLT ISZERO PUSH2 0x3714 JUMPI PUSH1 0x0 DUP1 REVERT JUMPDEST DUP4 CALLDATALOAD PUSH2 0x371F DUP2 PUSH2 0x36EA JUMP JUMPDEST SWAP3 POP PUSH1 0x20 DUP5 ADD CALLDATALOAD SWAP2 POP PUSH1 0x40 DUP5 ADD CALLDATALOAD PUSH2 0x3736 DUP2 PUSH2 0x36EA JUMP JUMPDEST DUP1 SWAP2 POP POP SWAP3 POP SWAP3 POP SWAP3 JUMP JUMPDEST PUSH1 0x0 DUP1 PUSH1 0x40 DUP4 DUP6 SUB SLT ISZERO PUSH2 0x3754 JUMPI PUSH1 0x0 DUP1 REVERT JUMPDEST DUP3 CALLDATALOAD PUSH2 0x375F DUP2 PUSH2 0x36EA JUMP JUMPDEST SWAP5 PUSH1 0x20 SWAP4 SWAP1 SWAP4 ADD CALLDATALOAD SWAP4 POP POP POP JUMP JUMPDEST PUSH1 0x0 DUP1 PUSH1 0x0 PUSH1 0x60 DUP5 DUP7 SUB SLT ISZERO PUSH2 0x3782 JUMPI PUSH1 0x0 DUP1 REVERT JUMPDEST DUP4 CALLDATALOAD PUSH2 0x378D DUP2 PUSH2 0x36EA JUMP JUMPDEST SWAP6 PUSH1 0x20 DUP6 ADD CALLDATALOAD SWAP6 POP PUSH1 0x40 SWAP1 SWAP5 ADD CALLDATALOAD SWAP4 SWAP3 POP POP POP JUMP JUMPDEST PUSH1 0x0 DUP1 PUSH1 0x0 DUP1 PUSH1 0x0 PUSH1 0xA0 DUP7 DUP9 SUB SLT ISZERO PUSH2 0x37BA JUMPI PUSH1 0x0 DUP1 REVERT JUMPDEST DUP6 CALLDATALOAD PUSH2 0x37C5 DUP2 PUSH2 0x36EA JUMP JUMPDEST SWAP5 POP PUSH1 0x20 DUP7 ADD CALLDATALOAD PUSH2 0x37D5 DUP2 PUSH2 0x36EA JUMP JUMPDEST SWAP4 POP PUSH1 0x40 DUP7 ADD CALLDATALOAD SWAP3 POP PUSH1 0x60 DUP7 ADD CALLDATALOAD SWAP2 POP PUSH1 0x80 DUP7 ADD CALLDATALOAD PUSH2 0x37F3 DUP2 PUSH2 0x36EA JUMP JUMPDEST DUP1 SWAP2 POP POP SWAP3 SWAP6 POP SWAP3 SWAP6 SWAP1 SWAP4 POP JUMP JUMPDEST PUSH1 0x0 DUP1 PUSH1 0x0 DUP1 PUSH1 0x80 DUP6 DUP8 SUB SLT ISZERO PUSH2 0x3817 JUMPI PUSH1 0x0 DUP1 REVERT JUMPDEST DUP5 CALLDATALOAD PUSH2 0x3822 DUP2 PUSH2 0x36EA JUMP JUMPDEST SWAP4 POP PUSH1 0x20 DUP6 ADD CALLDATALOAD PUSH2 0x3832 DUP2 PUSH2 0x36EA JUMP JUMPDEST SWAP4 SWAP7 SWAP4 SWAP6 POP POP POP POP PUSH1 0x40 DUP3 ADD CALLDATALOAD SWAP2 PUSH1 0x60 ADD CALLDATALOAD SWAP1 JUMP JUMPDEST PUSH1 0x0 DUP1 PUSH1 0x0 DUP1 PUSH1 0x80 DUP6 DUP8 SUB SLT ISZERO PUSH2 0x385D JUMPI PUSH1 0x0 DUP1 REVERT JUMPDEST DUP5 CALLDATALOAD PUSH2 0x3868 DUP2 PUSH2 0x36EA JUMP JUMPDEST SWAP4 POP PUSH1 0x20 DUP6 ADD CALLDATALOAD SWAP3 POP PUSH1 0x40 DUP6 ADD CALLDATALOAD PUSH2 0x387F DUP2 PUSH2 0x36EA JUMP JUMPDEST SWAP4 SWAP7 SWAP3 SWAP6 POP SWAP3 SWAP4 PUSH1 0x60 ADD CALLDATALOAD SWAP3 POP POP JUMP JUMPDEST DUP1 ISZERO ISZERO DUP2 EQ PUSH2 0x1792 JUMPI PUSH1 0x0 DUP1 REVERT JUMPDEST PUSH1 0x0 DUP1 PUSH1 0x0 DUP1 PUSH1 0x0 DUP1 PUSH1 0x0 DUP1 PUSH2 0x100 DUP10 DUP12 SUB SLT ISZERO PUSH2 0x38BA JUMPI PUSH1 0x0 DUP1 REVERT JUMPDEST DUP9 CALLDATALOAD PUSH2 0x38C5 DUP2 PUSH2 0x36EA JUMP JUMPDEST SWAP8 POP PUSH1 0x20 DUP10 ADD CALLDATALOAD PUSH2 0x38D5 DUP2 PUSH2 0x36EA JUMP JUMPDEST SWAP7 POP PUSH1 0x40 DUP10 ADD CALLDATALOAD SWAP6 POP PUSH1 0x60 DUP10 ADD CALLDATALOAD SWAP5 POP PUSH1 0x80 DUP10 ADD CALLDATALOAD PUSH2 0x38F3 DUP2 PUSH2 0x36EA JUMP JUMPDEST SWAP4 POP PUSH1 0xA0 DUP10 ADD CALLDATALOAD SWAP3 POP PUSH1 0xC0 DUP10 ADD CALLDATALOAD SWAP2 POP PUSH1 0xE0 DUP10 ADD CALLDATALOAD PUSH2 0x3911 DUP2 PUSH2 0x388F JUMP JUMPDEST DUP1 SWAP2 POP POP SWAP3 SWAP6 SWAP9 POP SWAP3 SWAP6 SWAP9 SWAP1 SWAP4 SWAP7 POP JUMP JUMPDEST PUSH1 0x0 DUP1 PUSH1 0x0 DUP1 PUSH1 0x0 DUP1 PUSH1 0xC0 DUP8 DUP10 SUB SLT ISZERO PUSH2 0x393B JUMPI PUSH1 0x0 DUP1 REVERT JUMPDEST DUP7 CALLDATALOAD PUSH2 0x3946 DUP2 PUSH2 0x36EA JUMP JUMPDEST SWAP6 POP PUSH1 0x20 DUP8 ADD CALLDATALOAD SWAP5 POP PUSH1 0x40 DUP8 ADD CALLDATALOAD PUSH2 0x395D DUP2 PUSH2 0x36EA JUMP JUMPDEST SWAP4 POP PUSH1 0x60 DUP8 ADD CALLDATALOAD SWAP3 POP PUSH1 0x80 DUP8 ADD CALLDATALOAD SWAP2 POP PUSH1 0xA0 DUP8 ADD CALLDATALOAD PUSH2 0x397B DUP2 PUSH2 0x388F JUMP JUMPDEST DUP1 SWAP2 POP POP SWAP3 SWAP6 POP SWAP3 SWAP6 POP SWAP3 SWAP6 JUMP JUMPDEST PUSH1 0x0 PUSH1 0x20 DUP3 DUP5 SUB SLT ISZERO PUSH2 0x399B JUMPI PUSH1 0x0 DUP1 REVERT JUMPDEST DUP2 CALLDATALOAD PUSH2 0x1951 DUP2 PUSH2 0x36EA JUMP JUMPDEST PUSH1 0x0 PUSH1 0x20 DUP3 DUP5 SUB SLT ISZERO PUSH2 0x39B8 JUMPI PUSH1 0x0 DUP1 REVERT JUMPDEST DUP2 MLOAD PUSH2 0x1951 DUP2 PUSH2 0x36EA JUMP JUMPDEST DUP1 MLOAD PUSH1 0x1 PUSH1 0x1 PUSH1 0x70 SHL SUB DUP2 AND DUP2 EQ PUSH2 0x39DA JUMPI PUSH1 0x0 DUP1 REVERT JUMPDEST SWAP2 SWAP1 POP JUMP JUMPDEST PUSH1 0x0 DUP1 PUSH1 0x0 PUSH1 0x60 DUP5 DUP7 SUB SLT ISZERO PUSH2 0x39F4 JUMPI PUSH1 0x0 DUP1 REVERT JUMPDEST PUSH2 0x39FD DUP5 PUSH2 0x39C3 JUMP JUMPDEST SWAP3 POP PUSH2 0x3A0B PUSH1 0x20 DUP6 ADD PUSH2 0x39C3 JUMP JUMPDEST SWAP2 POP PUSH1 0x40 DUP5 ADD MLOAD PUSH4 0xFFFFFFFF DUP2 AND DUP2 EQ PUSH2 0x3736 JUMPI PUSH1 0x0 DUP1 REVERT JUMPDEST PUSH1 0x0 PUSH1 0x20 DUP3 DUP5 SUB SLT ISZERO PUSH2 0x3A36 JUMPI PUSH1 0x0 DUP1 REVERT JUMPDEST POP MLOAD SWAP2 SWAP1 POP JUMP JUMPDEST PUSH4 0x4E487B71 PUSH1 0xE0 SHL PUSH1 0x0 MSTORE PUSH1 0x11 PUSH1 0x4 MSTORE PUSH1 0x24 PUSH1 0x0 REVERT JUMPDEST PUSH1 0x0 DUP2 PUSH1 0x0 NOT DIV DUP4 GT DUP3 ISZERO ISZERO AND ISZERO PUSH2 0x3A6D JUMPI PUSH2 0x3A6D PUSH2 0x3A3D JUMP JUMPDEST POP MUL SWAP1 JUMP JUMPDEST PUSH1 0x0 DUP3 PUSH2 0x3A8F JUMPI PUSH4 0x4E487B71 PUSH1 0xE0 SHL PUSH1 0x0 MSTORE PUSH1 0x12 PUSH1 0x4 MSTORE PUSH1 0x24 PUSH1 0x0 REVERT JUMPDEST POP DIV SWAP1 JUMP JUMPDEST PUSH1 0x20 DUP1 DUP3 MSTORE PUSH1 0x1F SWAP1 DUP3 ADD MSTORE PUSH32 0x5265656E7472616E637947756172643A207265656E7472616E742063616C6C00 PUSH1 0x40 DUP3 ADD MSTORE PUSH1 0x60 ADD SWAP1 JUMP JUMPDEST PUSH4 0x4E487B71 PUSH1 0xE0 SHL PUSH1 0x0 MSTORE PUSH1 0x41 PUSH1 0x4 MSTORE PUSH1 0x24 PUSH1 0x0 REVERT JUMPDEST PUSH1 0x0 JUMPDEST DUP4 DUP2 LT ISZERO PUSH2 0x3AFC JUMPI DUP2 DUP2 ADD MLOAD DUP4 DUP3 ADD MSTORE PUSH1 0x20 ADD PUSH2 0x3AE4 JUMP JUMPDEST DUP4 DUP2 GT ISZERO PUSH2 0x1F54 JUMPI POP POP PUSH1 0x0 SWAP2 ADD MSTORE JUMP JUMPDEST PUSH1 0x0 DUP3 MLOAD PUSH2 0x3B1F DUP2 DUP5 PUSH1 0x20 DUP8 ADD PUSH2 0x3AE1 JUMP JUMPDEST SWAP2 SWAP1 SWAP2 ADD SWAP3 SWAP2 POP POP JUMP JUMPDEST PUSH1 0x0 DUP3 NOT DUP3 GT ISZERO PUSH2 0x3B3C JUMPI PUSH2 0x3B3C PUSH2 0x3A3D JUMP JUMPDEST POP ADD SWAP1 JUMP JUMPDEST PUSH1 0x0 DUP3 DUP3 LT ISZERO PUSH2 0x3B53 JUMPI PUSH2 0x3B53 PUSH2 0x3A3D JUMP JUMPDEST POP SUB SWAP1 JUMP JUMPDEST PUSH4 0x4E487B71 PUSH1 0xE0 SHL PUSH1 0x0 MSTORE PUSH1 0x32 PUSH1 0x4 MSTORE PUSH1 0x24 PUSH1 0x0 REVERT JUMPDEST PUSH1 0x20 DUP1 DUP3 MSTORE PUSH1 0x1F SWAP1 DUP3 ADD MSTORE PUSH32 0x5A61703A205175616E7469747920686967686572207468616E206C696D697400 PUSH1 0x40 DUP3 ADD MSTORE PUSH1 0x60 ADD SWAP1 JUMP JUMPDEST PUSH1 0x0 PUSH1 0xA0 DUP3 ADD DUP8 DUP4 MSTORE PUSH1 0x20 DUP8 DUP2 DUP6 ADD MSTORE PUSH1 0xA0 PUSH1 0x40 DUP6 ADD MSTORE DUP2 DUP8 MLOAD DUP1 DUP5 MSTORE PUSH1 0xC0 DUP7 ADD SWAP2 POP DUP3 DUP10 ADD SWAP4 POP PUSH1 0x0 JUMPDEST DUP2 DUP2 LT ISZERO PUSH2 0x3BF5 JUMPI DUP5 MLOAD PUSH1 0x1 PUSH1 0x1 PUSH1 0xA0 SHL SUB AND DUP4 MSTORE SWAP4 DUP4 ADD SWAP4 SWAP2 DUP4 ADD SWAP2 PUSH1 0x1 ADD PUSH2 0x3BD0 JUMP JUMPDEST POP POP PUSH1 0x1 PUSH1 0x1 PUSH1 0xA0 SHL SUB SWAP7 SWAP1 SWAP7 AND PUSH1 0x60 DUP6 ADD MSTORE POP POP POP PUSH1 0x80 ADD MSTORE SWAP4 SWAP3 POP POP POP JUMP JUMPDEST PUSH1 0x0 PUSH1 0x20 DUP1 DUP4 DUP6 SUB SLT ISZERO PUSH2 0x3C29 JUMPI PUSH1 0x0 DUP1 REVERT JUMPDEST DUP3 MLOAD PUSH8 0xFFFFFFFFFFFFFFFF DUP1 DUP3 GT ISZERO PUSH2 0x3C41 JUMPI PUSH1 0x0 DUP1 REVERT JUMPDEST DUP2 DUP6 ADD SWAP2 POP DUP6 PUSH1 0x1F DUP4 ADD SLT PUSH2 0x3C55 JUMPI PUSH1 0x0 DUP1 REVERT JUMPDEST DUP2 MLOAD DUP2 DUP2 GT ISZERO PUSH2 0x3C67 JUMPI PUSH2 0x3C67 PUSH2 0x3ACB JUMP JUMPDEST DUP1 PUSH1 0x5 SHL PUSH1 0x40 MLOAD PUSH1 0x1F NOT PUSH1 0x3F DUP4 ADD AND DUP2 ADD DUP2 DUP2 LT DUP6 DUP3 GT OR ISZERO PUSH2 0x3C8C JUMPI PUSH2 0x3C8C PUSH2 0x3ACB JUMP JUMPDEST PUSH1 0x40 MSTORE SWAP2 DUP3 MSTORE DUP5 DUP3 ADD SWAP3 POP DUP4 DUP2 ADD DUP6 ADD SWAP2 DUP9 DUP4 GT ISZERO PUSH2 0x3CAA JUMPI PUSH1 0x0 DUP1 REVERT JUMPDEST SWAP4 DUP6 ADD SWAP4 JUMPDEST DUP3 DUP6 LT ISZERO PUSH2 0x3CC8 JUMPI DUP5 MLOAD DUP5 MSTORE SWAP4 DUP6 ADD SWAP4 SWAP3 DUP6 ADD SWAP3 PUSH2 0x3CAF JUMP JUMPDEST SWAP9 SWAP8 POP POP POP POP POP POP POP POP JUMP JUMPDEST PUSH1 0x1 PUSH1 0x1 PUSH1 0xA0 SHL SUB SWAP9 DUP10 AND DUP2 MSTORE SWAP7 DUP9 AND PUSH1 0x20 DUP9 ADD MSTORE PUSH1 0x40 DUP8 ADD SWAP6 SWAP1 SWAP6 MSTORE PUSH1 0x60 DUP7 ADD SWAP4 SWAP1 SWAP4 MSTORE PUSH1 0x80 DUP6 ADD SWAP2 SWAP1 SWAP2 MSTORE PUSH1 0xA0 DUP5 ADD MSTORE SWAP1 SWAP3 AND PUSH1 0xC0 DUP3 ADD MSTORE PUSH1 0xE0 DUP2 ADD SWAP2 SWAP1 SWAP2 MSTORE PUSH2 0x100 ADD SWAP1 JUMP JUMPDEST PUSH1 0x0 DUP1 PUSH1 0x0 PUSH1 0x60 DUP5 DUP7 SUB SLT ISZERO PUSH2 0x3D32 JUMPI PUSH1 0x0 DUP1 REVERT JUMPDEST DUP4 MLOAD SWAP3 POP PUSH1 0x20 DUP5 ADD MLOAD SWAP2 POP PUSH1 0x40 DUP5 ADD MLOAD SWAP1 POP SWAP3 POP SWAP3 POP SWAP3 JUMP JUMPDEST PUSH1 0x0 DUP1 PUSH1 0x40 DUP4 DUP6 SUB SLT ISZERO PUSH2 0x3D5E JUMPI PUSH1 0x0 DUP1 REVERT JUMPDEST POP POP DUP1 MLOAD PUSH1 0x20 SWAP1 SWAP2 ADD MLOAD SWAP1 SWAP3 SWAP1 SWAP2 POP JUMP JUMPDEST PUSH1 0x0 PUSH1 0x20 DUP3 DUP5 SUB SLT ISZERO PUSH2 0x3D81 JUMPI PUSH1 0x0 DUP1 REVERT JUMPDEST DUP2 MLOAD PUSH2 0x1951 DUP2 PUSH2 0x388F JUMP JUMPDEST PUSH1 0x20 DUP2 MSTORE PUSH1 0x0 DUP3 MLOAD DUP1 PUSH1 0x20 DUP5 ADD MSTORE PUSH2 0x3DAB DUP2 PUSH1 0x40 DUP6 ADD PUSH1 0x20 DUP8 ADD PUSH2 0x3AE1 JUMP JUMPDEST PUSH1 0x1F ADD PUSH1 0x1F NOT AND SWAP2 SWAP1 SWAP2 ADD PUSH1 0x40 ADD SWAP3 SWAP2 POP POP JUMP INVALID LOG2 PUSH5 0x6970667358 0x22 SLT KECCAK256 0xB0 SLT MUL 0xFB SSTORE CALLCODE 0xED SWAP2 LOG2 0xC 0x2D SWAP9 PUSH30 0x5605D516E86CD1249C560B72F99E455DD1A75464736F6C634300080F0033 "
		},
		"gasEstimates": {
			"creation": {
				"codeDepositCost": "3172200",
				"executionCost": "infinite",
				"totalCost": "infinite"
			},
			"external": {
				"MAX_INT()": "211",
				"MINIMUM_AMOUNT()": "252",
				"WBNB()": "2359",
				"estimateZapInRebalancingSwap(address,address,uint256,uint256,address)": "infinite",
				"estimateZapInSwap(address,uint256,address)": "infinite",
				"estimateZapOutSwap(address,uint256,address)": "infinite",
				"maxZapReverseRatio()": "2330",
				"owner()": "2431",
				"pancakeRouter()": "2403",
				"recoverWrongTokens(address,uint256)": "infinite",
				"renounceOwnership()": "infinite",
				"transferOwnership(address)": "infinite",
				"updateMaxZapInverseRatio(uint256)": "25643",
				"zapInBNB(address,uint256)": "infinite",
				"zapInBNBRebalancing(address,uint256,address,uint256,uint256,bool)": "infinite",
				"zapInToken(address,uint256,address,uint256)": "infinite",
				"zapInTokenRebalancing(address,address,uint256,uint256,address,uint256,uint256,bool)": "infinite",
				"zapOutBNB(address,uint256,uint256)": "infinite",
				"zapOutToken(address,address,uint256,uint256)": "infinite"
			},
			"internal": {
				"_approveTokenIfNeeded(address)": "infinite",
				"_calculateAmountToSwap(uint256,uint256,uint256)": "infinite",
				"_calculateAmountToSwapForRebalancing(uint256,uint256,uint256,uint256,bool)": "infinite",
				"_zapIn(address,uint256,address,uint256)": "infinite",
				"_zapInRebalancing(address,address,uint256,uint256,address,uint256,uint256,bool)": "infinite",
				"_zapOut(address,address,uint256)": "infinite"
			}
		},
		"methodIdentifiers": {
			"MAX_INT()": "098d3228",
			"MINIMUM_AMOUNT()": "257d9bb8",
			"WBNB()": "8dd95002",
			"estimateZapInRebalancingSwap(address,address,uint256,uint256,address)": "82c98b2d",
			"estimateZapInSwap(address,uint256,address)": "3b0a48bb",
			"estimateZapOutSwap(address,uint256,address)": "2f883da4",
			"maxZapReverseRatio()": "0f4e4e63",
			"owner()": "8da5cb5b",
			"pancakeRouter()": "c21ebd07",
			"recoverWrongTokens(address,uint256)": "3f138d4b",
			"renounceOwnership()": "715018a6",
			"transferOwnership(address)": "f2fde38b",
			"updateMaxZapInverseRatio(uint256)": "2b4652eb",
			"zapInBNB(address,uint256)": "5cb88a3f",
			"zapInBNBRebalancing(address,uint256,address,uint256,uint256,bool)": "e3ceb16b",
			"zapInToken(address,uint256,address,uint256)": "87e3f21c",
			"zapInTokenRebalancing(address,address,uint256,uint256,address,uint256,uint256,bool)": "b421e91e",
			"zapOutBNB(address,uint256,uint256)": "5fcbdaed",
			"zapOutToken(address,address,uint256,uint256)": "84b73115"
		}
	},
	"abi": [
		{
			"inputs": [
				{
					"internalType": "address",
					"name": "_WBNBAddress",
					"type": "address"
				},
				{
					"internalType": "address",
					"name": "_pancakeRouter",
					"type": "address"
				},
				{
					"internalType": "uint256",
					"name": "_maxZapReverseRatio",
					"type": "uint256"
				}
			],
			"stateMutability": "nonpayable",
			"type": "constructor"
		},
		{
			"anonymous": false,
			"inputs": [
				{
					"indexed": true,
					"internalType": "address",
					"name": "tokenAddress",
					"type": "address"
				},
				{
					"indexed": false,
					"internalType": "uint256",
					"name": "amountTokens",
					"type": "uint256"
				}
			],
			"name": "AdminTokenRecovery",
			"type": "event"
		},
		{
			"anonymous": false,
			"inputs": [
				{
					"indexed": false,
					"internalType": "uint256",
					"name": "maxZapReverseRatio",
					"type": "uint256"
				}
			],
			"name": "NewMaxZapReverseRatio",
			"type": "event"
		},
		{
			"anonymous": false,
			"inputs": [
				{
					"indexed": true,
					"internalType": "address",
					"name": "previousOwner",
					"type": "address"
				},
				{
					"indexed": true,
					"internalType": "address",
					"name": "newOwner",
					"type": "address"
				}
			],
			"name": "OwnershipTransferred",
			"type": "event"
		},
		{
			"anonymous": false,
			"inputs": [
				{
					"indexed": true,
					"internalType": "address",
					"name": "tokenToZap",
					"type": "address"
				},
				{
					"indexed": true,
					"internalType": "address",
					"name": "lpToken",
					"type": "address"
				},
				{
					"indexed": false,
					"internalType": "uint256",
					"name": "tokenAmountIn",
					"type": "uint256"
				},
				{
					"indexed": false,
					"internalType": "uint256",
					"name": "lpTokenAmountReceived",
					"type": "uint256"
				},
				{
					"indexed": true,
					"internalType": "address",
					"name": "user",
					"type": "address"
				}
			],
			"name": "ZapIn",
			"type": "event"
		},
		{
			"anonymous": false,
			"inputs": [
				{
					"indexed": true,
					"internalType": "address",
					"name": "token0ToZap",
					"type": "address"
				},
				{
					"indexed": true,
					"internalType": "address",
					"name": "token1ToZap",
					"type": "address"
				},
				{
					"indexed": false,
					"internalType": "address",
					"name": "lpToken",
					"type": "address"
				},
				{
					"indexed": false,
					"internalType": "uint256",
					"name": "token0AmountIn",
					"type": "uint256"
				},
				{
					"indexed": false,
					"internalType": "uint256",
					"name": "token1AmountIn",
					"type": "uint256"
				},
				{
					"indexed": false,
					"internalType": "uint256",
					"name": "lpTokenAmountReceived",
					"type": "uint256"
				},
				{
					"indexed": true,
					"internalType": "address",
					"name": "user",
					"type": "address"
				}
			],
			"name": "ZapInRebalancing",
			"type": "event"
		},
		{
			"anonymous": false,
			"inputs": [
				{
					"indexed": true,
					"internalType": "address",
					"name": "lpToken",
					"type": "address"
				},
				{
					"indexed": true,
					"internalType": "address",
					"name": "tokenToReceive",
					"type": "address"
				},
				{
					"indexed": false,
					"internalType": "uint256",
					"name": "lpTokenAmount",
					"type": "uint256"
				},
				{
					"indexed": false,
					"internalType": "uint256",
					"name": "tokenAmountReceived",
					"type": "uint256"
				},
				{
					"indexed": true,
					"internalType": "address",
					"name": "user",
					"type": "address"
				}
			],
			"name": "ZapOut",
			"type": "event"
		},
		{
			"inputs": [],
			"name": "MAX_INT",
			"outputs": [
				{
					"internalType": "uint256",
					"name": "",
					"type": "uint256"
				}
			],
			"stateMutability": "view",
			"type": "function"
		},
		{
			"inputs": [],
			"name": "MINIMUM_AMOUNT",
			"outputs": [
				{
					"internalType": "uint256",
					"name": "",
					"type": "uint256"
				}
			],
			"stateMutability": "view",
			"type": "function"
		},
		{
			"inputs": [],
			"name": "WBNB",
			"outputs": [
				{
					"internalType": "contract IWETH",
					"name": "",
					"type": "address"
				}
			],
			"stateMutability": "view",
			"type": "function"
		},
		{
			"inputs": [
				{
					"internalType": "address",
					"name": "_token0ToZap",
					"type": "address"
				},
				{
					"internalType": "address",
					"name": "_token1ToZap",
					"type": "address"
				},
				{
					"internalType": "uint256",
					"name": "_token0AmountIn",
					"type": "uint256"
				},
				{
					"internalType": "uint256",
					"name": "_token1AmountIn",
					"type": "uint256"
				},
				{
					"internalType": "address",
					"name": "_lpToken",
					"type": "address"
				}
			],
			"name": "estimateZapInRebalancingSwap",
			"outputs": [
				{
					"internalType": "uint256",
					"name": "swapAmountIn",
					"type": "uint256"
				},
				{
					"internalType": "uint256",
					"name": "swapAmountOut",
					"type": "uint256"
				},
				{
					"internalType": "bool",
					"name": "sellToken0",
					"type": "bool"
				}
			],
			"stateMutability": "view",
			"type": "function"
		},
		{
			"inputs": [
				{
					"internalType": "address",
					"name": "_tokenToZap",
					"type": "address"
				},
				{
					"internalType": "uint256",
					"name": "_tokenAmountIn",
					"type": "uint256"
				},
				{
					"internalType": "address",
					"name": "_lpToken",
					"type": "address"
				}
			],
			"name": "estimateZapInSwap",
			"outputs": [
				{
					"internalType": "uint256",
					"name": "swapAmountIn",
					"type": "uint256"
				},
				{
					"internalType": "uint256",
					"name": "swapAmountOut",
					"type": "uint256"
				},
				{
					"internalType": "address",
					"name": "swapTokenOut",
					"type": "address"
				}
			],
			"stateMutability": "view",
			"type": "function"
		},
		{
			"inputs": [
				{
					"internalType": "address",
					"name": "_lpToken",
					"type": "address"
				},
				{
					"internalType": "uint256",
					"name": "_lpTokenAmount",
					"type": "uint256"
				},
				{
					"internalType": "address",
					"name": "_tokenToReceive",
					"type": "address"
				}
			],
			"name": "estimateZapOutSwap",
			"outputs": [
				{
					"internalType": "uint256",
					"name": "swapAmountIn",
					"type": "uint256"
				},
				{
					"internalType": "uint256",
					"name": "swapAmountOut",
					"type": "uint256"
				},
				{
					"internalType": "address",
					"name": "swapTokenOut",
					"type": "address"
				}
			],
			"stateMutability": "view",
			"type": "function"
		},
		{
			"inputs": [],
			"name": "maxZapReverseRatio",
			"outputs": [
				{
					"internalType": "uint256",
					"name": "",
					"type": "uint256"
				}
			],
			"stateMutability": "view",
			"type": "function"
		},
		{
			"inputs": [],
			"name": "owner",
			"outputs": [
				{
					"internalType": "address",
					"name": "",
					"type": "address"
				}
			],
			"stateMutability": "view",
			"type": "function"
		},
		{
			"inputs": [],
			"name": "pancakeRouter",
			"outputs": [
				{
					"internalType": "contract IPancakeRouter02",
					"name": "",
					"type": "address"
				}
			],
			"stateMutability": "view",
			"type": "function"
		},
		{
			"inputs": [
				{
					"internalType": "address",
					"name": "_tokenAddress",
					"type": "address"
				},
				{
					"internalType": "uint256",
					"name": "_tokenAmount",
					"type": "uint256"
				}
			],
			"name": "recoverWrongTokens",
			"outputs": [],
			"stateMutability": "nonpayable",
			"type": "function"
		},
		{
			"inputs": [],
			"name": "renounceOwnership",
			"outputs": [],
			"stateMutability": "nonpayable",
			"type": "function"
		},
		{
			"inputs": [
				{
					"internalType": "address",
					"name": "newOwner",
					"type": "address"
				}
			],
			"name": "transferOwnership",
			"outputs": [],
			"stateMutability": "nonpayable",
			"type": "function"
		},
		{
			"inputs": [
				{
					"internalType": "uint256",
					"name": "_maxZapInverseRatio",
					"type": "uint256"
				}
			],
			"name": "updateMaxZapInverseRatio",
			"outputs": [],
			"stateMutability": "nonpayable",
			"type": "function"
		},
		{
			"inputs": [
				{
					"internalType": "address",
					"name": "_lpToken",
					"type": "address"
				},
				{
					"internalType": "uint256",
					"name": "_tokenAmountOutMin",
					"type": "uint256"
				}
			],
			"name": "zapInBNB",
			"outputs": [],
			"stateMutability": "payable",
			"type": "function"
		},
		{
			"inputs": [
				{
					"internalType": "address",
					"name": "_token1ToZap",
					"type": "address"
				},
				{
					"internalType": "uint256",
					"name": "_token1AmountIn",
					"type": "uint256"
				},
				{
					"internalType": "address",
					"name": "_lpToken",
					"type": "address"
				},
				{
					"internalType": "uint256",
					"name": "_tokenAmountInMax",
					"type": "uint256"
				},
				{
					"internalType": "uint256",
					"name": "_tokenAmountOutMin",
					"type": "uint256"
				},
				{
					"internalType": "bool",
					"name": "_isToken0Sold",
					"type": "bool"
				}
			],
			"name": "zapInBNBRebalancing",
			"outputs": [],
			"stateMutability": "payable",
			"type": "function"
		},
		{
			"inputs": [
				{
					"internalType": "address",
					"name": "_tokenToZap",
					"type": "address"
				},
				{
					"internalType": "uint256",
					"name": "_tokenAmountIn",
					"type": "uint256"
				},
				{
					"internalType": "address",
					"name": "_lpToken",
					"type": "address"
				},
				{
					"internalType": "uint256",
					"name": "_tokenAmountOutMin",
					"type": "uint256"
				}
			],
			"name": "zapInToken",
			"outputs": [],
			"stateMutability": "nonpayable",
			"type": "function"
		},
		{
			"inputs": [
				{
					"internalType": "address",
					"name": "_token0ToZap",
					"type": "address"
				},
				{
					"internalType": "address",
					"name": "_token1ToZap",
					"type": "address"
				},
				{
					"internalType": "uint256",
					"name": "_token0AmountIn",
					"type": "uint256"
				},
				{
					"internalType": "uint256",
					"name": "_token1AmountIn",
					"type": "uint256"
				},
				{
					"internalType": "address",
					"name": "_lpToken",
					"type": "address"
				},
				{
					"internalType": "uint256",
					"name": "_tokenAmountInMax",
					"type": "uint256"
				},
				{
					"internalType": "uint256",
					"name": "_tokenAmountOutMin",
					"type": "uint256"
				},
				{
					"internalType": "bool",
					"name": "_isToken0Sold",
					"type": "bool"
				}
			],
			"name": "zapInTokenRebalancing",
			"outputs": [],
			"stateMutability": "nonpayable",
			"type": "function"
		},
		{
			"inputs": [
				{
					"internalType": "address",
					"name": "_lpToken",
					"type": "address"
				},
				{
					"internalType": "uint256",
					"name": "_lpTokenAmount",
					"type": "uint256"
				},
				{
					"internalType": "uint256",
					"name": "_tokenAmountOutMin",
					"type": "uint256"
				}
			],
			"name": "zapOutBNB",
			"outputs": [],
			"stateMutability": "nonpayable",
			"type": "function"
		},
		{
			"inputs": [
				{
					"internalType": "address",
					"name": "_lpToken",
					"type": "address"
				},
				{
					"internalType": "address",
					"name": "_tokenToReceive",
					"type": "address"
				},
				{
					"internalType": "uint256",
					"name": "_lpTokenAmount",
					"type": "uint256"
				},
				{
					"internalType": "uint256",
					"name": "_tokenAmountOutMin",
					"type": "uint256"
				}
			],
			"name": "zapOutToken",
			"outputs": [],
			"stateMutability": "nonpayable",
			"type": "function"
		},
		{
			"stateMutability": "payable",
			"type": "receive"
		}
	]
}