{
	"TokenFaucet.sol": {
		"TokenFaucet": {
			"abi": [
				{
					"anonymous": false,
					"inputs": [
						{
							"indexed": true,
							"internalType": "address",
							"name": "buyer",
							"type": "address"
						},
						{
							"indexed": false,
							"internalType": "uint256",
							"name": "quantity",
							"type": "uint256"
						},
						{
							"indexed": false,
							"internalType": "uint256",
							"name": "timestamp",
							"type": "uint256"
						}
					],
					"name": "Claimed",
					"type": "event"
				},
				{
					"anonymous": false,
					"inputs": [
						{
							"indexed": false,
							"internalType": "uint256",
							"name": "quantity",
							"type": "uint256"
						},
						{
							"indexed": false,
							"internalType": "uint256",
							"name": "timestamp",
							"type": "uint256"
						}
					],
					"name": "DepositPI",
					"type": "event"
				},
				{
					"anonymous": false,
					"inputs": [
						{
							"indexed": true,
							"internalType": "address",
							"name": "previousOwner",
							"type": "address"
						},
						{
							"indexed": true,
							"internalType": "address",
							"name": "newOwner",
							"type": "address"
						}
					],
					"name": "OwnershipTransferred",
					"type": "event"
				},
				{
					"anonymous": false,
					"inputs": [],
					"name": "Pause",
					"type": "event"
				},
				{
					"anonymous": false,
					"inputs": [],
					"name": "Unpause",
					"type": "event"
				},
				{
					"stateMutability": "payable",
					"type": "fallback"
				},
				{
					"inputs": [],
					"name": "AMOUNT_NATIVE_TOKEN",
					"outputs": [
						{
							"internalType": "uint256",
							"name": "",
							"type": "uint256"
						}
					],
					"stateMutability": "view",
					"type": "function"
				},
				{
					"inputs": [],
					"name": "AMOUNT_TOKEN",
					"outputs": [
						{
							"internalType": "uint256",
							"name": "",
							"type": "uint256"
						}
					],
					"stateMutability": "view",
					"type": "function"
				},
				{
					"inputs": [],
					"name": "balanceOf",
					"outputs": [
						{
							"internalType": "uint256",
							"name": "balance",
							"type": "uint256"
						}
					],
					"stateMutability": "view",
					"type": "function"
				},
				{
					"inputs": [
						{
							"internalType": "address",
							"name": "_tokenAddress",
							"type": "address"
						},
						{
							"internalType": "address",
							"name": "_userAddress",
							"type": "address"
						}
					],
					"name": "claim",
					"outputs": [],
					"stateMutability": "payable",
					"type": "function"
				},
				{
					"inputs": [
						{
							"internalType": "address",
							"name": "tokenAddress",
							"type": "address"
						},
						{
							"internalType": "address",
							"name": "userAddress",
							"type": "address"
						}
					],
					"name": "getUserInfo",
					"outputs": [
						{
							"components": [
								{
									"internalType": "uint256",
									"name": "totalQuantity",
									"type": "uint256"
								},
								{
									"internalType": "uint256",
									"name": "lastQuantity",
									"type": "uint256"
								},
								{
									"internalType": "uint256",
									"name": "lastSend",
									"type": "uint256"
								}
							],
							"internalType": "struct TokenFaucet.UserInfo",
							"name": "user",
							"type": "tuple"
						}
					],
					"stateMutability": "view",
					"type": "function"
				},
				{
					"inputs": [
						{
							"internalType": "address",
							"name": "coinAddress",
							"type": "address"
						},
						{
							"internalType": "uint256",
							"name": "value",
							"type": "uint256"
						},
						{
							"internalType": "address payable",
							"name": "to",
							"type": "address"
						}
					],
					"name": "handleForfeitedBalance",
					"outputs": [],
					"stateMutability": "nonpayable",
					"type": "function"
				},
				{
					"inputs": [
						{
							"internalType": "address[]",
							"name": "newAddr",
							"type": "address[]"
						},
						{
							"internalType": "address[]",
							"name": "removedAddr",
							"type": "address[]"
						}
					],
					"name": "modifyTokenWhiteList",
					"outputs": [],
					"stateMutability": "nonpayable",
					"type": "function"
				},
				{
					"inputs": [
						{
							"internalType": "address[]",
							"name": "newAddr",
							"type": "address[]"
						},
						{
							"internalType": "address[]",
							"name": "removedAddr",
							"type": "address[]"
						}
					],
					"name": "modifyWhiteList",
					"outputs": [],
					"stateMutability": "nonpayable",
					"type": "function"
				},
				{
					"inputs": [],
					"name": "owner",
					"outputs": [
						{
							"internalType": "address",
							"name": "",
							"type": "address"
						}
					],
					"stateMutability": "view",
					"type": "function"
				},
				{
					"inputs": [],
					"name": "pause",
					"outputs": [
						{
							"internalType": "bool",
							"name": "",
							"type": "bool"
						}
					],
					"stateMutability": "nonpayable",
					"type": "function"
				},
				{
					"inputs": [],
					"name": "paused",
					"outputs": [
						{
							"internalType": "bool",
							"name": "",
							"type": "bool"
						}
					],
					"stateMutability": "view",
					"type": "function"
				},
				{
					"inputs": [],
					"name": "renounceOwnership",
					"outputs": [],
					"stateMutability": "nonpayable",
					"type": "function"
				},
				{
					"inputs": [
						{
							"internalType": "uint256",
							"name": "_tokenQuantity",
							"type": "uint256"
						},
						{
							"internalType": "uint256",
							"name": "_nativeQuantity",
							"type": "uint256"
						}
					],
					"name": "setLimit",
					"outputs": [],
					"stateMutability": "nonpayable",
					"type": "function"
				},
				{
					"inputs": [
						{
							"internalType": "address",
							"name": "",
							"type": "address"
						}
					],
					"name": "tokens",
					"outputs": [
						{
							"internalType": "bool",
							"name": "",
							"type": "bool"
						}
					],
					"stateMutability": "view",
					"type": "function"
				},
				{
					"inputs": [
						{
							"internalType": "address",
							"name": "newOwner",
							"type": "address"
						}
					],
					"name": "transferOwnership",
					"outputs": [],
					"stateMutability": "nonpayable",
					"type": "function"
				},
				{
					"inputs": [],
					"name": "unpause",
					"outputs": [
						{
							"internalType": "bool",
							"name": "",
							"type": "bool"
						}
					],
					"stateMutability": "nonpayable",
					"type": "function"
				},
				{
					"inputs": [
						{
							"internalType": "address",
							"name": "",
							"type": "address"
						},
						{
							"internalType": "address",
							"name": "",
							"type": "address"
						}
					],
					"name": "userInfos",
					"outputs": [
						{
							"internalType": "uint256",
							"name": "totalQuantity",
							"type": "uint256"
						},
						{
							"internalType": "uint256",
							"name": "lastQuantity",
							"type": "uint256"
						},
						{
							"internalType": "uint256",
							"name": "lastSend",
							"type": "uint256"
						}
					],
					"stateMutability": "view",
					"type": "function"
				},
				{
					"inputs": [
						{
							"internalType": "address",
							"name": "",
							"type": "address"
						}
					],
					"name": "whiteList",
					"outputs": [
						{
							"internalType": "bool",
							"name": "",
							"type": "bool"
						}
					],
					"stateMutability": "view",
					"type": "function"
				}
			],
			"devdoc": {
				"kind": "dev",
				"methods": {
					"claim(address,address)": {
						"details": "Claim Token"
					},
					"handleForfeitedBalance(address,uint256,address)": {
						"details": "Withdraw bnb from this contract (Callable by owner only)"
					},
					"owner()": {
						"details": "Returns the address of the current owner."
					},
					"pause()": {
						"details": "called by the owner to pause, triggers stopped state"
					},
					"renounceOwnership()": {
						"details": "Leaves the contract without owner. It will not be possible to call `onlyOwner` functions anymore. Can only be called by the current owner. NOTE: Renouncing ownership will leave the contract without an owner, thereby removing any functionality that is only available to the owner."
					},
					"transferOwnership(address)": {
						"details": "Transfers ownership of the contract to a new account (`newOwner`). Can only be called by the current owner."
					},
					"unpause()": {
						"details": "called by the owner to unpause, returns to normal state"
					}
				},
				"version": 1
			},
			"evm": {
				"assembly": "    /* \"TokenFaucet.sol\":309:3736  contract TokenFaucet is Ownable, Pausable, ReentrancyGuard {... */\n  mstore(0x40, 0x80)\n    /* \"Pausable.sol\":294:299  false */\n  0x00\n    /* \"Pausable.sol\":273:299  bool public paused = false */\n  dup1\n  sload\n  not(shl(0xa0, 0xff))\n  and\n  swap1\n  sstore\n    /* \"TokenFaucet.sol\":1016:1026  1000 ether */\n  0x3635c9adc5dea00000\n    /* \"TokenFaucet.sol\":986:1026  uint256 public AMOUNT_TOKEN = 1000 ether */\n  0x05\n  sstore\n    /* \"TokenFaucet.sol\":1069:1076  1 ether */\n  0x0de0b6b3a7640000\n    /* \"TokenFaucet.sol\":1032:1076  uint256 public AMOUNT_NATIVE_TOKEN = 1 ether */\n  0x06\n  sstore\n    /* \"TokenFaucet.sol\":309:3736  contract TokenFaucet is Ownable, Pausable, ReentrancyGuard {... */\n  callvalue\n  dup1\n  iszero\n  tag_1\n  jumpi\n  0x00\n  dup1\n  revert\ntag_1:\n  pop\n    /* \"Ownable.sol\":878:895  address msgSender */\n  0x00\n    /* \"Ownable.sol\":898:910  _msgSender() */\n  tag_5\n    /* \"Ownable.sol\":898:908  _msgSender */\n  tag_6\n    /* \"Ownable.sol\":898:910  _msgSender() */\n  jump\t// in\ntag_5:\n    /* \"Ownable.sol\":920:926  _owner */\n  0x00\n    /* \"Ownable.sol\":920:938  _owner = msgSender */\n  dup1\n  sload\n  not(sub(shl(0xa0, 0x01), 0x01))\n  and\n  sub(shl(0xa0, 0x01), 0x01)\n  dup4\n  and\n  swap1\n  dup2\n  or\n  dup3\n  sstore\n    /* \"Ownable.sol\":953:996  OwnershipTransferred(address(0), msgSender) */\n  mload(0x40)\n    /* \"Ownable.sol\":920:938  _owner = msgSender */\n  swap3\n  swap4\n  pop\n  swap2\n    /* \"Ownable.sol\":953:996  OwnershipTransferred(address(0), msgSender) */\n  0x8be0079c531659141344cd1fd0a4f28419497f9722a3daafe3b4186f6b6457e0\n  swap1\n    /* \"Ownable.sol\":920:926  _owner */\n  dup3\n  swap1\n    /* \"Ownable.sol\":953:996  OwnershipTransferred(address(0), msgSender) */\n  log3\n  pop\n    /* \"ReentrancyGuard.sol\":1645:1646  1 */\n  0x01\n    /* \"ReentrancyGuard.sol\":1750:1772  _status = _NOT_ENTERED */\n  dup1\n  sstore\n    /* \"TokenFaucet.sol\":309:3736  contract TokenFaucet is Ownable, Pausable, ReentrancyGuard {... */\n  jump(tag_8)\n    /* \"Context.sol\":598:702  function _msgSender() internal view virtual returns (address payable) {... */\ntag_6:\n    /* \"Context.sol\":685:695  msg.sender */\n  caller\n    /* \"Context.sol\":598:702  function _msgSender() internal view virtual returns (address payable) {... */\n  swap1\n  jump\t// out\n    /* \"TokenFaucet.sol\":309:3736  contract TokenFaucet is Ownable, Pausable, ReentrancyGuard {... */\ntag_8:\n  dataSize(sub_0)\n  dup1\n  dataOffset(sub_0)\n  0x00\n  codecopy\n  0x00\n  return\nstop\n\nsub_0: assembly {\n        /* \"TokenFaucet.sol\":309:3736  contract TokenFaucet is Ownable, Pausable, ReentrancyGuard {... */\n      mstore(0x40, 0x80)\n      jumpi(tag_1, lt(calldatasize, 0x04))\n      shr(0xe0, calldataload(0x00))\n      dup1\n      0x715018a6\n      gt\n      tag_21\n      jumpi\n      dup1\n      0x8da5cb5b\n      gt\n      tag_22\n      jumpi\n      dup1\n      0x8da5cb5b\n      eq\n      tag_16\n      jumpi\n      dup1\n      0xc9b5279c\n      eq\n      tag_17\n      jumpi\n      dup1\n      0xe4860339\n      eq\n      tag_18\n      jumpi\n      dup1\n      0xf2801fe7\n      eq\n      tag_19\n      jumpi\n      dup1\n      0xf2fde38b\n      eq\n      tag_20\n      jumpi\n      jump(tag_1)\n    tag_22:\n      dup1\n      0x715018a6\n      eq\n      tag_12\n      jumpi\n      dup1\n      0x722713f7\n      eq\n      tag_13\n      jumpi\n      dup1\n      0x8174e972\n      eq\n      tag_14\n      jumpi\n      dup1\n      0x8456cb59\n      eq\n      tag_15\n      jumpi\n      jump(tag_1)\n    tag_21:\n      dup1\n      0x3f4ba83a\n      gt\n      tag_23\n      jumpi\n      dup1\n      0x3f4ba83a\n      eq\n      tag_7\n      jumpi\n      dup1\n      0x4e6f5b60\n      eq\n      tag_8\n      jumpi\n      dup1\n      0x51b32e8b\n      eq\n      tag_9\n      jumpi\n      dup1\n      0x5c975abb\n      eq\n      tag_10\n      jumpi\n      dup1\n      0x602f86f8\n      eq\n      tag_11\n      jumpi\n      jump(tag_1)\n    tag_23:\n      dup1\n      0x207add91\n      eq\n      tag_3\n      jumpi\n      dup1\n      0x21c0b342\n      eq\n      tag_4\n      jumpi\n      dup1\n      0x2adb5f4e\n      eq\n      tag_5\n      jumpi\n      dup1\n      0x372c12b1\n      eq\n      tag_6\n      jumpi\n    tag_1:\n        /* \"TokenFaucet.sol\":3177:3214  DepositPI(msg.value, block.timestamp) */\n      0x41d0978db23c08ae0f5d1e376087f27d92b1a65d7cf5a613ec7d8a8b977e4ed0\n        /* \"TokenFaucet.sol\":3187:3196  msg.value */\n      callvalue\n        /* \"TokenFaucet.sol\":3198:3213  block.timestamp */\n      timestamp\n        /* \"TokenFaucet.sol\":3177:3214  DepositPI(msg.value, block.timestamp) */\n      mload(0x40)\n      tag_26\n      swap3\n      swap2\n      swap1\n      tag_27\n      jump\t// in\n    tag_26:\n      mload(0x40)\n      dup1\n      swap2\n      sub\n      swap1\n      log1\n        /* \"TokenFaucet.sol\":309:3736  contract TokenFaucet is Ownable, Pausable, ReentrancyGuard {... */\n      stop\n        /* \"TokenFaucet.sol\":2747:2926  function setLimit(uint256 _tokenQuantity, uint256 _nativeQuantity) external onlyOwner {... */\n    tag_3:\n      callvalue\n      dup1\n      iszero\n      tag_28\n      jumpi\n      0x00\n      dup1\n      revert\n    tag_28:\n      pop\n      tag_29\n      tag_30\n      calldatasize\n      0x04\n      tag_31\n      jump\t// in\n    tag_30:\n      tag_32\n      jump\t// in\n    tag_29:\n      stop\n        /* \"TokenFaucet.sol\":1123:1982  function claim(address _tokenAddress, address _userAddress)... */\n    tag_4:\n      tag_29\n      tag_34\n      calldatasize\n      0x04\n      tag_35\n      jump\t// in\n    tag_34:\n      tag_36\n      jump\t// in\n        /* \"TokenFaucet.sol\":1988:2362  function modifyWhiteList(... */\n    tag_5:\n      callvalue\n      dup1\n      iszero\n      tag_37\n      jumpi\n      0x00\n      dup1\n      revert\n    tag_37:\n      pop\n      tag_29\n      tag_39\n      calldatasize\n      0x04\n      tag_40\n      jump\t// in\n    tag_39:\n      tag_41\n      jump\t// in\n        /* \"TokenFaucet.sol\":895:936  mapping(address => bool) public whiteList */\n    tag_6:\n      callvalue\n      dup1\n      iszero\n      tag_42\n      jumpi\n      0x00\n      dup1\n      revert\n    tag_42:\n      pop\n      tag_43\n      tag_44\n      calldatasize\n      0x04\n      tag_45\n      jump\t// in\n    tag_44:\n      tag_46\n      jump\t// in\n    tag_43:\n      mload(0x40)\n      tag_47\n      swap2\n      swap1\n      tag_48\n      jump\t// in\n    tag_47:\n      mload(0x40)\n      dup1\n      swap2\n      sub\n      swap1\n      return\n        /* \"Pausable.sol\":872:998  function unpause() external onlyOwner whenPaused returns (bool) {... */\n    tag_7:\n      callvalue\n      dup1\n      iszero\n      tag_49\n      jumpi\n      0x00\n      dup1\n      revert\n    tag_49:\n      pop\n      tag_43\n      tag_51\n      jump\t// in\n        /* \"TokenFaucet.sol\":3453:3734  function handleForfeitedBalance(... */\n    tag_8:\n      callvalue\n      dup1\n      iszero\n      tag_53\n      jumpi\n      0x00\n      dup1\n      revert\n    tag_53:\n      pop\n      tag_29\n      tag_55\n      calldatasize\n      0x04\n      tag_56\n      jump\t// in\n    tag_55:\n      tag_57\n      jump\t// in\n        /* \"TokenFaucet.sol\":2368:2741  function modifyTokenWhiteList(... */\n    tag_9:\n      callvalue\n      dup1\n      iszero\n      tag_58\n      jumpi\n      0x00\n      dup1\n      revert\n    tag_58:\n      pop\n      tag_29\n      tag_60\n      calldatasize\n      0x04\n      tag_40\n      jump\t// in\n    tag_60:\n      tag_61\n      jump\t// in\n        /* \"Pausable.sol\":273:299  bool public paused = false */\n    tag_10:\n      callvalue\n      dup1\n      iszero\n      tag_62\n      jumpi\n      0x00\n      dup1\n      revert\n    tag_62:\n      pop\n      tag_43\n      tag_64\n      jump\t// in\n        /* \"TokenFaucet.sol\":1032:1076  uint256 public AMOUNT_NATIVE_TOKEN = 1 ether */\n    tag_11:\n      callvalue\n      dup1\n      iszero\n      tag_66\n      jumpi\n      0x00\n      dup1\n      revert\n    tag_66:\n      pop\n      tag_67\n      tag_68\n      jump\t// in\n    tag_67:\n      mload(0x40)\n      tag_47\n      swap2\n      swap1\n      tag_70\n      jump\t// in\n        /* \"Ownable.sol\":1711:1856  function renounceOwnership() public virtual onlyOwner {... */\n    tag_12:\n      callvalue\n      dup1\n      iszero\n      tag_71\n      jumpi\n      0x00\n      dup1\n      revert\n    tag_71:\n      pop\n      tag_29\n      tag_73\n      jump\t// in\n        /* \"TokenFaucet.sol\":3227:3362  function balanceOf()... */\n    tag_13:\n      callvalue\n      dup1\n      iszero\n      tag_74\n      jumpi\n      0x00\n      dup1\n      revert\n    tag_74:\n      pop\n      tag_67\n      tag_76\n      jump\t// in\n        /* \"TokenFaucet.sol\":986:1026  uint256 public AMOUNT_TOKEN = 1000 ether */\n    tag_14:\n      callvalue\n      dup1\n      iszero\n      tag_78\n      jumpi\n      0x00\n      dup1\n      revert\n    tag_78:\n      pop\n      tag_67\n      tag_80\n      jump\t// in\n        /* \"Pausable.sol\":666:790  function pause() external onlyOwner whenNotPaused returns (bool) {... */\n    tag_15:\n      callvalue\n      dup1\n      iszero\n      tag_82\n      jumpi\n      0x00\n      dup1\n      revert\n    tag_82:\n      pop\n      tag_43\n      tag_84\n      jump\t// in\n        /* \"Ownable.sol\":1079:1164  function owner() public view virtual returns (address) {... */\n    tag_16:\n      callvalue\n      dup1\n      iszero\n      tag_86\n      jumpi\n      0x00\n      dup1\n      revert\n    tag_86:\n      pop\n      tag_87\n      tag_88\n      jump\t// in\n    tag_87:\n      mload(0x40)\n      tag_47\n      swap2\n      swap1\n      tag_90\n      jump\t// in\n        /* \"TokenFaucet.sol\":824:889  mapping(address => mapping(address => UserInfo)) public userInfos */\n    tag_17:\n      callvalue\n      dup1\n      iszero\n      tag_91\n      jumpi\n      0x00\n      dup1\n      revert\n    tag_91:\n      pop\n      tag_92\n      tag_93\n      calldatasize\n      0x04\n      tag_35\n      jump\t// in\n    tag_93:\n      tag_94\n      jump\t// in\n    tag_92:\n      mload(0x40)\n      tag_47\n      swap4\n      swap3\n      swap2\n      swap1\n      tag_96\n      jump\t// in\n        /* \"TokenFaucet.sol\":942:980  mapping(address => bool) public tokens */\n    tag_18:\n      callvalue\n      dup1\n      iszero\n      tag_97\n      jumpi\n      0x00\n      dup1\n      revert\n    tag_97:\n      pop\n      tag_43\n      tag_99\n      calldatasize\n      0x04\n      tag_45\n      jump\t// in\n    tag_99:\n      tag_100\n      jump\t// in\n        /* \"TokenFaucet.sol\":2933:3128  function getUserInfo(address tokenAddress, address userAddress)... */\n    tag_19:\n      callvalue\n      dup1\n      iszero\n      tag_102\n      jumpi\n      0x00\n      dup1\n      revert\n    tag_102:\n      pop\n      tag_103\n      tag_104\n      calldatasize\n      0x04\n      tag_35\n      jump\t// in\n    tag_104:\n      tag_105\n      jump\t// in\n    tag_103:\n      mload(0x40)\n      tag_47\n      swap2\n      swap1\n      tag_107\n      jump\t// in\n        /* \"Ownable.sol\":2005:2245  function transferOwnership(address newOwner) public virtual onlyOwner {... */\n    tag_20:\n      callvalue\n      dup1\n      iszero\n      tag_108\n      jumpi\n      0x00\n      dup1\n      revert\n    tag_108:\n      pop\n      tag_29\n      tag_110\n      calldatasize\n      0x04\n      tag_45\n      jump\t// in\n    tag_110:\n      tag_111\n      jump\t// in\n        /* \"TokenFaucet.sol\":2747:2926  function setLimit(uint256 _tokenQuantity, uint256 _nativeQuantity) external onlyOwner {... */\n    tag_32:\n        /* \"Ownable.sol\":1302:1314  _msgSender() */\n      tag_113\n        /* \"Ownable.sol\":1302:1312  _msgSender */\n      tag_114\n        /* \"Ownable.sol\":1302:1314  _msgSender() */\n      jump\t// in\n    tag_113:\n      sub(shl(0xa0, 0x01), 0x01)\n        /* \"Ownable.sol\":1291:1314  owner() == _msgSender() */\n      and\n        /* \"Ownable.sol\":1291:1298  owner() */\n      tag_115\n        /* \"Ownable.sol\":1291:1296  owner */\n      tag_88\n        /* \"Ownable.sol\":1291:1298  owner() */\n      jump\t// in\n    tag_115:\n      sub(shl(0xa0, 0x01), 0x01)\n        /* \"Ownable.sol\":1291:1314  owner() == _msgSender() */\n      and\n      eq\n        /* \"Ownable.sol\":1283:1351  require(owner() == _msgSender(), \"Ownable: caller is not the owner\") */\n      tag_116\n      jumpi\n      0x40\n      dup1\n      mload\n      shl(0xe5, 0x461bcd)\n      dup2\n      mstore\n      0x20\n      0x04\n      dup3\n      add\n      dup2\n      swap1\n      mstore\n      0x24\n      dup3\n      add\n      mstore\n      0x00\n      dup1\n      mload\n      0x20\n      data_9924ebdf1add33d25d4ef888e16131f0a5687b0580a36c21b5c301a6c462effe\n      dup4\n      codecopy\n      dup2\n      mload\n      swap2\n      mstore\n      0x44\n      dup3\n      add\n      mstore\n      swap1\n      mload\n      swap1\n      dup2\n      swap1\n      sub\n      0x64\n      add\n      swap1\n      revert\n    tag_116:\n        /* \"TokenFaucet.sol\":2843:2855  AMOUNT_TOKEN */\n      0x05\n        /* \"TokenFaucet.sol\":2843:2872  AMOUNT_TOKEN = _tokenQuantity */\n      swap2\n      swap1\n      swap2\n      sstore\n        /* \"TokenFaucet.sol\":2882:2901  AMOUNT_NATIVE_TOKEN */\n      0x06\n        /* \"TokenFaucet.sol\":2882:2919  AMOUNT_NATIVE_TOKEN = _nativeQuantity */\n      sstore\n        /* \"TokenFaucet.sol\":2747:2926  function setLimit(uint256 _tokenQuantity, uint256 _nativeQuantity) external onlyOwner {... */\n      jump\t// out\n        /* \"TokenFaucet.sol\":1123:1982  function claim(address _tokenAddress, address _userAddress)... */\n    tag_36:\n        /* \"ReentrancyGuard.sol\":1688:1689  2 */\n      0x02\n        /* \"ReentrancyGuard.sol\":2269:2276  _status */\n      sload(0x01)\n        /* \"ReentrancyGuard.sol\":2269:2288  _status != _ENTERED */\n      eq\n      iszero\n        /* \"ReentrancyGuard.sol\":2261:2324  require(_status != _ENTERED, \"ReentrancyGuard: reentrant call\") */\n      tag_119\n      jumpi\n      0x40\n      dup1\n      mload\n      shl(0xe5, 0x461bcd)\n      dup2\n      mstore\n      0x20\n      0x04\n      dup3\n      add\n      mstore\n      0x1f\n      0x24\n      dup3\n      add\n      mstore\n      0x5265656e7472616e637947756172643a207265656e7472616e742063616c6c00\n      0x44\n      dup3\n      add\n      mstore\n      swap1\n      mload\n      swap1\n      dup2\n      swap1\n      sub\n      0x64\n      add\n      swap1\n      revert\n    tag_119:\n        /* \"ReentrancyGuard.sol\":1688:1689  2 */\n      0x02\n        /* \"ReentrancyGuard.sol\":2399:2406  _status */\n      0x01\n        /* \"ReentrancyGuard.sol\":2399:2417  _status = _ENTERED */\n      sstore\n        /* \"Pausable.sol\":426:432  paused */\n      sload(0x00)\n      shl(0xa0, 0x01)\n      swap1\n      div\n      0xff\n      and\n        /* \"Pausable.sol\":425:432  !paused */\n      iszero\n        /* \"Pausable.sol\":417:433  require(!paused) */\n      tag_121\n      jumpi\n      0x00\n      dup1\n      revert\n    tag_121:\n        /* \"TokenFaucet.sol\":763:773  msg.sender */\n      caller\n        /* \"TokenFaucet.sol\":753:774  whiteList[msg.sender] */\n      0x00\n      swap1\n      dup2\n      mstore\n        /* \"TokenFaucet.sol\":753:762  whiteList */\n      0x03\n        /* \"TokenFaucet.sol\":753:774  whiteList[msg.sender] */\n      0x20\n      mstore\n      0x40\n      swap1\n      keccak256\n      sload\n      0xff\n      and\n        /* \"TokenFaucet.sol\":745:800  require(whiteList[msg.sender], \"require Safe Address.\") */\n      tag_123\n      jumpi\n      mload(0x40)\n      shl(0xe5, 0x461bcd)\n      dup2\n      mstore\n      0x04\n      add\n      tag_124\n      swap1\n      tag_125\n      jump\t// in\n    tag_124:\n      mload(0x40)\n      dup1\n      swap2\n      sub\n      swap1\n      revert\n    tag_123:\n      sub(shl(0xa0, 0x01), 0x01)\n        /* \"TokenFaucet.sol\":1296:1317  tokens[_tokenAddress] */\n      dup3\n      and\n      0x00\n      swap1\n      dup2\n      mstore\n        /* \"TokenFaucet.sol\":1296:1302  tokens */\n      0x04\n        /* \"TokenFaucet.sol\":1296:1317  tokens[_tokenAddress] */\n      0x20\n      mstore\n      0x40\n      swap1\n      keccak256\n      sload\n      0xff\n      and\n        /* \"TokenFaucet.sol\":1288:1344  require(tokens[_tokenAddress], \"not  supported address\") */\n      tag_127\n      jumpi\n      mload(0x40)\n      shl(0xe5, 0x461bcd)\n      dup2\n      mstore\n      0x04\n      add\n      tag_124\n      swap1\n      tag_129\n      jump\t// in\n    tag_127:\n        /* \"TokenFaucet.sol\":1374:1386  AMOUNT_TOKEN */\n      sload(0x05)\n      sub(shl(0xa0, 0x01), 0x01)\n        /* \"TokenFaucet.sol\":1399:1426  _tokenAddress == address(0) */\n      dup4\n      and\n        /* \"TokenFaucet.sol\":1396:1484  if(_tokenAddress == address(0)) {... */\n      tag_130\n      jumpi\n      pop\n        /* \"TokenFaucet.sol\":1454:1473  AMOUNT_NATIVE_TOKEN */\n      sload(0x06)\n        /* \"TokenFaucet.sol\":1396:1484  if(_tokenAddress == address(0)) {... */\n    tag_130:\n      sub(shl(0xa0, 0x01), 0x01)\n        /* \"TokenFaucet.sol\":1521:1545  userInfos[_tokenAddress] */\n      dup1\n      dup5\n      and\n        /* \"TokenFaucet.sol\":1493:1518  UserInfo storage userInfo */\n      0x00\n        /* \"TokenFaucet.sol\":1521:1545  userInfos[_tokenAddress] */\n      swap1\n      dup2\n      mstore\n        /* \"TokenFaucet.sol\":1521:1530  userInfos */\n      0x02\n        /* \"TokenFaucet.sol\":1521:1545  userInfos[_tokenAddress] */\n      0x20\n      dup2\n      dup2\n      mstore\n      0x40\n      dup1\n      dup5\n      keccak256\n        /* \"TokenFaucet.sol\":1521:1559  userInfos[_tokenAddress][_userAddress] */\n      swap5\n      dup8\n      and\n      dup5\n      mstore\n      swap4\n      swap1\n      mstore\n      swap2\n      swap1\n      keccak256\n        /* \"TokenFaucet.sol\":1589:1604  block.timestamp */\n      timestamp\n        /* \"TokenFaucet.sol\":1569:1586  userInfo.lastSend */\n      swap2\n      dup2\n      add\n        /* \"TokenFaucet.sol\":1569:1604  userInfo.lastSend = block.timestamp */\n      swap2\n      swap1\n      swap2\n      sstore\n        /* \"TokenFaucet.sol\":1639:1661  userInfo.totalQuantity */\n      dup1\n      sload\n        /* \"TokenFaucet.sol\":1639:1676  userInfo.totalQuantity.add(_quantity) */\n      tag_131\n      swap1\n        /* \"TokenFaucet.sol\":1666:1675  _quantity */\n      dup4\n        /* \"TokenFaucet.sol\":1639:1665  userInfo.totalQuantity.add */\n      tag_132\n        /* \"TokenFaucet.sol\":1639:1676  userInfo.totalQuantity.add(_quantity) */\n      jump\t// in\n    tag_131:\n        /* \"TokenFaucet.sol\":1614:1676  userInfo.totalQuantity = userInfo.totalQuantity.add(_quantity) */\n      dup2\n      sstore\n        /* \"TokenFaucet.sol\":1686:1707  userInfo.lastQuantity */\n      0x01\n      dup2\n      add\n        /* \"TokenFaucet.sol\":1686:1719  userInfo.lastQuantity = _quantity */\n      dup3\n      swap1\n      sstore\n      sub(shl(0xa0, 0x01), 0x01)\n        /* \"TokenFaucet.sol\":1732:1759  _tokenAddress == address(0) */\n      dup5\n      and\n        /* \"TokenFaucet.sol\":1729:1912  if(_tokenAddress == address(0)) {... */\n      tag_133\n      jumpi\n        /* \"TokenFaucet.sol\":1775:1816  payable(_userAddress).transfer(_quantity) */\n      mload(0x40)\n      sub(shl(0xa0, 0x01), 0x01)\n        /* \"TokenFaucet.sol\":1775:1805  payable(_userAddress).transfer */\n      dup5\n      and\n      swap1\n        /* \"TokenFaucet.sol\":1775:1816  payable(_userAddress).transfer(_quantity) */\n      dup4\n      iszero\n      0x08fc\n      mul\n      swap1\n        /* \"TokenFaucet.sol\":1806:1815  _quantity */\n      dup5\n      swap1\n        /* \"TokenFaucet.sol\":1775:1816  payable(_userAddress).transfer(_quantity) */\n      0x00\n      dup2\n      dup2\n      dup2\n        /* \"TokenFaucet.sol\":1806:1815  _quantity */\n      dup6\n        /* \"TokenFaucet.sol\":1775:1805  payable(_userAddress).transfer */\n      dup9\n        /* \"TokenFaucet.sol\":1775:1816  payable(_userAddress).transfer(_quantity) */\n      dup9\n      call\n      swap4\n      pop\n      pop\n      pop\n      pop\n      iszero\n      dup1\n      iszero\n      tag_135\n      jumpi\n      returndatasize\n      0x00\n      dup1\n      returndatacopy\n      revert(0x00, returndatasize)\n    tag_135:\n      pop\n        /* \"TokenFaucet.sol\":1729:1912  if(_tokenAddress == address(0)) {... */\n      jump(tag_136)\n    tag_133:\n        /* \"TokenFaucet.sol\":1846:1901  IERC20(_tokenAddress).transfer(_userAddress, _quantity) */\n      mload(0x40)\n      shl(0xe0, 0xa9059cbb)\n      dup2\n      mstore\n      sub(shl(0xa0, 0x01), 0x01)\n        /* \"TokenFaucet.sol\":1846:1876  IERC20(_tokenAddress).transfer */\n      dup6\n      and\n      swap1\n      0xa9059cbb\n      swap1\n        /* \"TokenFaucet.sol\":1846:1901  IERC20(_tokenAddress).transfer(_userAddress, _quantity) */\n      tag_137\n      swap1\n        /* \"TokenFaucet.sol\":1877:1889  _userAddress */\n      dup7\n      swap1\n        /* \"TokenFaucet.sol\":1891:1900  _quantity */\n      dup7\n      swap1\n        /* \"TokenFaucet.sol\":1846:1901  IERC20(_tokenAddress).transfer(_userAddress, _quantity) */\n      0x04\n      add\n      tag_174\n      jump\t// in\n    tag_137:\n      0x20\n      mload(0x40)\n      dup1\n      dup4\n      sub\n      dup2\n      0x00\n      dup8\n      dup1\n      extcodesize\n      iszero\n      dup1\n      iszero\n      tag_139\n      jumpi\n      0x00\n      dup1\n      revert\n    tag_139:\n      pop\n      gas\n      call\n      iszero\n      dup1\n      iszero\n      tag_141\n      jumpi\n      returndatasize\n      0x00\n      dup1\n      returndatacopy\n      revert(0x00, returndatasize)\n    tag_141:\n      pop\n      pop\n      pop\n      pop\n      mload(0x40)\n      returndatasize\n      not(0x1f)\n      0x1f\n      dup3\n      add\n      and\n      dup3\n      add\n      dup1\n      0x40\n      mstore\n      pop\n      dup2\n      add\n      swap1\n      tag_142\n      swap2\n      swap1\n      tag_143\n      jump\t// in\n    tag_142:\n      pop\n        /* \"TokenFaucet.sol\":1729:1912  if(_tokenAddress == address(0)) {... */\n    tag_136:\n        /* \"TokenFaucet.sol\":1934:1946  _userAddress */\n      dup3\n      sub(shl(0xa0, 0x01), 0x01)\n        /* \"TokenFaucet.sol\":1926:1975  Claimed(_userAddress, _quantity, block.timestamp) */\n      and\n      0x987d620f307ff6b94d58743cb7a7509f24071586a77759b77c2d4e29f75a2f9a\n        /* \"TokenFaucet.sol\":1948:1957  _quantity */\n      dup4\n        /* \"TokenFaucet.sol\":1959:1974  block.timestamp */\n      timestamp\n        /* \"TokenFaucet.sol\":1926:1975  Claimed(_userAddress, _quantity, block.timestamp) */\n      mload(0x40)\n      tag_144\n      swap3\n      swap2\n      swap1\n      tag_27\n      jump\t// in\n    tag_144:\n      mload(0x40)\n      dup1\n      swap2\n      sub\n      swap1\n      log2\n      pop\n      pop\n        /* \"ReentrancyGuard.sol\":1645:1646  1 */\n      0x01\n        /* \"ReentrancyGuard.sol\":2572:2594  _status = _NOT_ENTERED */\n      dup1\n      sstore\n      pop\n      pop\n        /* \"TokenFaucet.sol\":1123:1982  function claim(address _tokenAddress, address _userAddress)... */\n      jump\t// out\n        /* \"TokenFaucet.sol\":1988:2362  function modifyWhiteList(... */\n    tag_41:\n        /* \"Ownable.sol\":1302:1314  _msgSender() */\n      tag_146\n        /* \"Ownable.sol\":1302:1312  _msgSender */\n      tag_114\n        /* \"Ownable.sol\":1302:1314  _msgSender() */\n      jump\t// in\n    tag_146:\n      sub(shl(0xa0, 0x01), 0x01)\n        /* \"Ownable.sol\":1291:1314  owner() == _msgSender() */\n      and\n        /* \"Ownable.sol\":1291:1298  owner() */\n      tag_147\n        /* \"Ownable.sol\":1291:1296  owner */\n      tag_88\n        /* \"Ownable.sol\":1291:1298  owner() */\n      jump\t// in\n    tag_147:\n      sub(shl(0xa0, 0x01), 0x01)\n        /* \"Ownable.sol\":1291:1314  owner() == _msgSender() */\n      and\n      eq\n        /* \"Ownable.sol\":1283:1351  require(owner() == _msgSender(), \"Ownable: caller is not the owner\") */\n      tag_148\n      jumpi\n      0x40\n      dup1\n      mload\n      shl(0xe5, 0x461bcd)\n      dup2\n      mstore\n      0x20\n      0x04\n      dup3\n      add\n      dup2\n      swap1\n      mstore\n      0x24\n      dup3\n      add\n      mstore\n      0x00\n      dup1\n      mload\n      0x20\n      data_9924ebdf1add33d25d4ef888e16131f0a5687b0580a36c21b5c301a6c462effe\n      dup4\n      codecopy\n      dup2\n      mload\n      swap2\n      mstore\n      0x44\n      dup3\n      add\n      mstore\n      swap1\n      mload\n      swap1\n      dup2\n      swap1\n      sub\n      0x64\n      add\n      swap1\n      revert\n    tag_148:\n        /* \"TokenFaucet.sol\":2123:2136  uint256 index */\n      0x00\n        /* \"TokenFaucet.sol\":2118:2228  for (uint256 index; index < newAddr.length; index++) {... */\n    tag_150:\n        /* \"TokenFaucet.sol\":2146:2153  newAddr */\n      dup3\n        /* \"TokenFaucet.sol\":2146:2160  newAddr.length */\n      mload\n        /* \"TokenFaucet.sol\":2138:2143  index */\n      dup2\n        /* \"TokenFaucet.sol\":2138:2160  index < newAddr.length */\n      lt\n        /* \"TokenFaucet.sol\":2118:2228  for (uint256 index; index < newAddr.length; index++) {... */\n      iszero\n      tag_151\n      jumpi\n        /* \"TokenFaucet.sol\":2213:2217  true */\n      0x01\n        /* \"TokenFaucet.sol\":2185:2194  whiteList */\n      0x03\n        /* \"TokenFaucet.sol\":2185:2210  whiteList[newAddr[index]] */\n      0x00\n        /* \"TokenFaucet.sol\":2195:2202  newAddr */\n      dup6\n        /* \"TokenFaucet.sol\":2203:2208  index */\n      dup5\n        /* \"TokenFaucet.sol\":2195:2209  newAddr[index] */\n      dup2\n      mload\n      dup2\n      lt\n      tag_153\n      jumpi\n      invalid\n    tag_153:\n      0x20\n      swap1\n      dup2\n      mul\n      swap2\n      swap1\n      swap2\n      add\n      dup2\n      add\n      mload\n      sub(shl(0xa0, 0x01), 0x01)\n        /* \"TokenFaucet.sol\":2185:2210  whiteList[newAddr[index]] */\n      and\n      dup3\n      mstore\n      dup2\n      add\n      swap2\n      swap1\n      swap2\n      mstore\n      0x40\n      add\n      0x00\n      keccak256\n        /* \"TokenFaucet.sol\":2185:2217  whiteList[newAddr[index]] = true */\n      dup1\n      sload\n      not(0xff)\n      and\n      swap2\n      iszero\n      iszero\n      swap2\n      swap1\n      swap2\n      or\n      swap1\n      sstore\n      0x01\n        /* \"TokenFaucet.sol\":2162:2169  index++ */\n      add\n        /* \"TokenFaucet.sol\":2118:2228  for (uint256 index; index < newAddr.length; index++) {... */\n      jump(tag_150)\n    tag_151:\n      pop\n        /* \"TokenFaucet.sol\":2242:2255  uint256 index */\n      0x00\n        /* \"TokenFaucet.sol\":2237:2356  for (uint256 index; index < removedAddr.length; index++) {... */\n    tag_154:\n        /* \"TokenFaucet.sol\":2265:2276  removedAddr */\n      dup2\n        /* \"TokenFaucet.sol\":2265:2283  removedAddr.length */\n      mload\n        /* \"TokenFaucet.sol\":2257:2262  index */\n      dup2\n        /* \"TokenFaucet.sol\":2257:2283  index < removedAddr.length */\n      lt\n        /* \"TokenFaucet.sol\":2237:2356  for (uint256 index; index < removedAddr.length; index++) {... */\n      iszero\n      tag_155\n      jumpi\n        /* \"TokenFaucet.sol\":2340:2345  false */\n      0x00\n        /* \"TokenFaucet.sol\":2308:2317  whiteList */\n      0x03\n        /* \"TokenFaucet.sol\":2308:2337  whiteList[removedAddr[index]] */\n      0x00\n        /* \"TokenFaucet.sol\":2318:2329  removedAddr */\n      dup5\n        /* \"TokenFaucet.sol\":2330:2335  index */\n      dup5\n        /* \"TokenFaucet.sol\":2318:2336  removedAddr[index] */\n      dup2\n      mload\n      dup2\n      lt\n      tag_157\n      jumpi\n      invalid\n    tag_157:\n      0x20\n      swap1\n      dup2\n      mul\n      swap2\n      swap1\n      swap2\n      add\n      dup2\n      add\n      mload\n      sub(shl(0xa0, 0x01), 0x01)\n        /* \"TokenFaucet.sol\":2308:2337  whiteList[removedAddr[index]] */\n      and\n      dup3\n      mstore\n      dup2\n      add\n      swap2\n      swap1\n      swap2\n      mstore\n      0x40\n      add\n      0x00\n      keccak256\n        /* \"TokenFaucet.sol\":2308:2345  whiteList[removedAddr[index]] = false */\n      dup1\n      sload\n      not(0xff)\n      and\n      swap2\n      iszero\n      iszero\n      swap2\n      swap1\n      swap2\n      or\n      swap1\n      sstore\n      0x01\n        /* \"TokenFaucet.sol\":2285:2292  index++ */\n      add\n        /* \"TokenFaucet.sol\":2237:2356  for (uint256 index; index < removedAddr.length; index++) {... */\n      jump(tag_154)\n    tag_155:\n      pop\n        /* \"TokenFaucet.sol\":1988:2362  function modifyWhiteList(... */\n      pop\n      pop\n      jump\t// out\n        /* \"TokenFaucet.sol\":895:936  mapping(address => bool) public whiteList */\n    tag_46:\n      mstore(0x20, 0x03)\n      0x00\n      swap1\n      dup2\n      mstore\n      0x40\n      swap1\n      keccak256\n      sload\n      0xff\n      and\n      dup2\n      jump\t// out\n        /* \"Pausable.sol\":872:998  function unpause() external onlyOwner whenPaused returns (bool) {... */\n    tag_51:\n        /* \"Pausable.sol\":930:934  bool */\n      0x00\n        /* \"Ownable.sol\":1302:1314  _msgSender() */\n      tag_159\n        /* \"Ownable.sol\":1302:1312  _msgSender */\n      tag_114\n        /* \"Ownable.sol\":1302:1314  _msgSender() */\n      jump\t// in\n    tag_159:\n      sub(shl(0xa0, 0x01), 0x01)\n        /* \"Ownable.sol\":1291:1314  owner() == _msgSender() */\n      and\n        /* \"Ownable.sol\":1291:1298  owner() */\n      tag_160\n        /* \"Ownable.sol\":1291:1296  owner */\n      tag_88\n        /* \"Ownable.sol\":1291:1298  owner() */\n      jump\t// in\n    tag_160:\n      sub(shl(0xa0, 0x01), 0x01)\n        /* \"Ownable.sol\":1291:1314  owner() == _msgSender() */\n      and\n      eq\n        /* \"Ownable.sol\":1283:1351  require(owner() == _msgSender(), \"Ownable: caller is not the owner\") */\n      tag_161\n      jumpi\n      0x40\n      dup1\n      mload\n      shl(0xe5, 0x461bcd)\n      dup2\n      mstore\n      0x20\n      0x04\n      dup3\n      add\n      dup2\n      swap1\n      mstore\n      0x24\n      dup3\n      add\n      mstore\n      0x00\n      dup1\n      mload\n      0x20\n      data_9924ebdf1add33d25d4ef888e16131f0a5687b0580a36c21b5c301a6c462effe\n      dup4\n      codecopy\n      dup2\n      mload\n      swap2\n      mstore\n      0x44\n      dup3\n      add\n      mstore\n      swap1\n      mload\n      swap1\n      dup2\n      swap1\n      sub\n      0x64\n      add\n      swap1\n      revert\n    tag_161:\n        /* \"Pausable.sol\":568:574  paused */\n      sload(0x00)\n      shl(0xa0, 0x01)\n      swap1\n      div\n      0xff\n      and\n        /* \"Pausable.sol\":560:575  require(paused) */\n      tag_163\n      jumpi\n      0x00\n      dup1\n      revert\n    tag_163:\n        /* \"Pausable.sol\":951:956  false */\n      0x00\n        /* \"Pausable.sol\":942:956  paused = false */\n      dup1\n      sload\n      not(shl(0xa0, 0xff))\n      and\n      dup2\n      sstore\n        /* \"Pausable.sol\":967:976  Unpause() */\n      mload(0x40)\n      0x7805862f689e2f13df9f062ff482ad3ad112aca9e0847911ed832e158c525b33\n      swap2\n        /* \"Pausable.sol\":951:956  false */\n      swap1\n        /* \"Pausable.sol\":967:976  Unpause() */\n      log1\n      pop\n        /* \"Pausable.sol\":989:993  true */\n      0x01\n        /* \"Pausable.sol\":872:998  function unpause() external onlyOwner whenPaused returns (bool) {... */\n      swap1\n      jump\t// out\n        /* \"TokenFaucet.sol\":3453:3734  function handleForfeitedBalance(... */\n    tag_57:\n        /* \"Ownable.sol\":1302:1314  _msgSender() */\n      tag_166\n        /* \"Ownable.sol\":1302:1312  _msgSender */\n      tag_114\n        /* \"Ownable.sol\":1302:1314  _msgSender() */\n      jump\t// in\n    tag_166:\n      sub(shl(0xa0, 0x01), 0x01)\n        /* \"Ownable.sol\":1291:1314  owner() == _msgSender() */\n      and\n        /* \"Ownable.sol\":1291:1298  owner() */\n      tag_167\n        /* \"Ownable.sol\":1291:1296  owner */\n      tag_88\n        /* \"Ownable.sol\":1291:1298  owner() */\n      jump\t// in\n    tag_167:\n      sub(shl(0xa0, 0x01), 0x01)\n        /* \"Ownable.sol\":1291:1314  owner() == _msgSender() */\n      and\n      eq\n        /* \"Ownable.sol\":1283:1351  require(owner() == _msgSender(), \"Ownable: caller is not the owner\") */\n      tag_168\n      jumpi\n      0x40\n      dup1\n      mload\n      shl(0xe5, 0x461bcd)\n      dup2\n      mstore\n      0x20\n      0x04\n      dup3\n      add\n      dup2\n      swap1\n      mstore\n      0x24\n      dup3\n      add\n      mstore\n      0x00\n      dup1\n      mload\n      0x20\n      data_9924ebdf1add33d25d4ef888e16131f0a5687b0580a36c21b5c301a6c462effe\n      dup4\n      codecopy\n      dup2\n      mload\n      swap2\n      mstore\n      0x44\n      dup3\n      add\n      mstore\n      swap1\n      mload\n      swap1\n      dup2\n      swap1\n      sub\n      0x64\n      add\n      swap1\n      revert\n    tag_168:\n      sub(shl(0xa0, 0x01), 0x01)\n        /* \"TokenFaucet.sol\":3602:3627  coinAddress == address(0) */\n      dup4\n      and\n        /* \"TokenFaucet.sol\":3598:3679  if (coinAddress == address(0)) {... */\n      tag_170\n      jumpi\n        /* \"TokenFaucet.sol\":3650:3668  to.transfer(value) */\n      mload(0x40)\n      sub(shl(0xa0, 0x01), 0x01)\n        /* \"TokenFaucet.sol\":3650:3661  to.transfer */\n      dup3\n      and\n      swap1\n        /* \"TokenFaucet.sol\":3650:3668  to.transfer(value) */\n      dup4\n      iszero\n      0x08fc\n      mul\n      swap1\n        /* \"TokenFaucet.sol\":3662:3667  value */\n      dup5\n      swap1\n        /* \"TokenFaucet.sol\":3650:3668  to.transfer(value) */\n      0x00\n      dup2\n      dup2\n      dup2\n        /* \"TokenFaucet.sol\":3662:3667  value */\n      dup6\n        /* \"TokenFaucet.sol\":3650:3661  to.transfer */\n      dup9\n        /* \"TokenFaucet.sol\":3650:3668  to.transfer(value) */\n      dup9\n      call\n      swap4\n      pop\n      pop\n      pop\n      pop\n      iszero\n      dup1\n      iszero\n      tag_172\n      jumpi\n      returndatasize\n      0x00\n      dup1\n      returndatacopy\n      revert(0x00, returndatasize)\n    tag_172:\n      pop\n        /* \"TokenFaucet.sol\":3643:3668  return to.transfer(value) */\n      jump(tag_155)\n        /* \"TokenFaucet.sol\":3598:3679  if (coinAddress == address(0)) {... */\n    tag_170:\n        /* \"TokenFaucet.sol\":3688:3727  IERC20(coinAddress).transfer(to, value) */\n      mload(0x40)\n      shl(0xe0, 0xa9059cbb)\n      dup2\n      mstore\n      sub(shl(0xa0, 0x01), 0x01)\n        /* \"TokenFaucet.sol\":3688:3716  IERC20(coinAddress).transfer */\n      dup5\n      and\n      swap1\n      0xa9059cbb\n      swap1\n        /* \"TokenFaucet.sol\":3688:3727  IERC20(coinAddress).transfer(to, value) */\n      tag_173\n      swap1\n        /* \"TokenFaucet.sol\":3717:3719  to */\n      dup5\n      swap1\n        /* \"TokenFaucet.sol\":3721:3726  value */\n      dup7\n      swap1\n        /* \"TokenFaucet.sol\":3688:3727  IERC20(coinAddress).transfer(to, value) */\n      0x04\n      add\n      tag_174\n      jump\t// in\n    tag_173:\n      0x20\n      mload(0x40)\n      dup1\n      dup4\n      sub\n      dup2\n      0x00\n      dup8\n      dup1\n      extcodesize\n      iszero\n      dup1\n      iszero\n      tag_175\n      jumpi\n      0x00\n      dup1\n      revert\n    tag_175:\n      pop\n      gas\n      call\n      iszero\n      dup1\n      iszero\n      tag_177\n      jumpi\n      returndatasize\n      0x00\n      dup1\n      returndatacopy\n      revert(0x00, returndatasize)\n    tag_177:\n      pop\n      pop\n      pop\n      pop\n      mload(0x40)\n      returndatasize\n      not(0x1f)\n      0x1f\n      dup3\n      add\n      and\n      dup3\n      add\n      dup1\n      0x40\n      mstore\n      pop\n      dup2\n      add\n      swap1\n      tag_178\n      swap2\n      swap1\n      tag_143\n      jump\t// in\n    tag_178:\n      pop\n        /* \"TokenFaucet.sol\":3453:3734  function handleForfeitedBalance(... */\n      pop\n      pop\n      pop\n      jump\t// out\n        /* \"TokenFaucet.sol\":2368:2741  function modifyTokenWhiteList(... */\n    tag_61:\n        /* \"Ownable.sol\":1302:1314  _msgSender() */\n      tag_180\n        /* \"Ownable.sol\":1302:1312  _msgSender */\n      tag_114\n        /* \"Ownable.sol\":1302:1314  _msgSender() */\n      jump\t// in\n    tag_180:\n      sub(shl(0xa0, 0x01), 0x01)\n        /* \"Ownable.sol\":1291:1314  owner() == _msgSender() */\n      and\n        /* \"Ownable.sol\":1291:1298  owner() */\n      tag_181\n        /* \"Ownable.sol\":1291:1296  owner */\n      tag_88\n        /* \"Ownable.sol\":1291:1298  owner() */\n      jump\t// in\n    tag_181:\n      sub(shl(0xa0, 0x01), 0x01)\n        /* \"Ownable.sol\":1291:1314  owner() == _msgSender() */\n      and\n      eq\n        /* \"Ownable.sol\":1283:1351  require(owner() == _msgSender(), \"Ownable: caller is not the owner\") */\n      tag_182\n      jumpi\n      0x40\n      dup1\n      mload\n      shl(0xe5, 0x461bcd)\n      dup2\n      mstore\n      0x20\n      0x04\n      dup3\n      add\n      dup2\n      swap1\n      mstore\n      0x24\n      dup3\n      add\n      mstore\n      0x00\n      dup1\n      mload\n      0x20\n      data_9924ebdf1add33d25d4ef888e16131f0a5687b0580a36c21b5c301a6c462effe\n      dup4\n      codecopy\n      dup2\n      mload\n      swap2\n      mstore\n      0x44\n      dup3\n      add\n      mstore\n      swap1\n      mload\n      swap1\n      dup2\n      swap1\n      sub\n      0x64\n      add\n      swap1\n      revert\n    tag_182:\n        /* \"TokenFaucet.sol\":2508:2521  uint256 index */\n      0x00\n        /* \"TokenFaucet.sol\":2503:2610  for (uint256 index; index < newAddr.length; index++) {... */\n    tag_184:\n        /* \"TokenFaucet.sol\":2531:2538  newAddr */\n      dup3\n        /* \"TokenFaucet.sol\":2531:2545  newAddr.length */\n      mload\n        /* \"TokenFaucet.sol\":2523:2528  index */\n      dup2\n        /* \"TokenFaucet.sol\":2523:2545  index < newAddr.length */\n      lt\n        /* \"TokenFaucet.sol\":2503:2610  for (uint256 index; index < newAddr.length; index++) {... */\n      iszero\n      tag_185\n      jumpi\n        /* \"TokenFaucet.sol\":2595:2599  true */\n      0x01\n        /* \"TokenFaucet.sol\":2570:2576  tokens */\n      0x04\n        /* \"TokenFaucet.sol\":2570:2592  tokens[newAddr[index]] */\n      0x00\n        /* \"TokenFaucet.sol\":2577:2584  newAddr */\n      dup6\n        /* \"TokenFaucet.sol\":2585:2590  index */\n      dup5\n        /* \"TokenFaucet.sol\":2577:2591  newAddr[index] */\n      dup2\n      mload\n      dup2\n      lt\n      tag_187\n      jumpi\n      invalid\n    tag_187:\n      0x20\n      swap1\n      dup2\n      mul\n      swap2\n      swap1\n      swap2\n      add\n      dup2\n      add\n      mload\n      sub(shl(0xa0, 0x01), 0x01)\n        /* \"TokenFaucet.sol\":2570:2592  tokens[newAddr[index]] */\n      and\n      dup3\n      mstore\n      dup2\n      add\n      swap2\n      swap1\n      swap2\n      mstore\n      0x40\n      add\n      0x00\n      keccak256\n        /* \"TokenFaucet.sol\":2570:2599  tokens[newAddr[index]] = true */\n      dup1\n      sload\n      not(0xff)\n      and\n      swap2\n      iszero\n      iszero\n      swap2\n      swap1\n      swap2\n      or\n      swap1\n      sstore\n      0x01\n        /* \"TokenFaucet.sol\":2547:2554  index++ */\n      add\n        /* \"TokenFaucet.sol\":2503:2610  for (uint256 index; index < newAddr.length; index++) {... */\n      jump(tag_184)\n    tag_185:\n      pop\n        /* \"TokenFaucet.sol\":2624:2637  uint256 index */\n      0x00\n        /* \"TokenFaucet.sol\":2619:2735  for (uint256 index; index < removedAddr.length; index++) {... */\n    tag_188:\n        /* \"TokenFaucet.sol\":2647:2658  removedAddr */\n      dup2\n        /* \"TokenFaucet.sol\":2647:2665  removedAddr.length */\n      mload\n        /* \"TokenFaucet.sol\":2639:2644  index */\n      dup2\n        /* \"TokenFaucet.sol\":2639:2665  index < removedAddr.length */\n      lt\n        /* \"TokenFaucet.sol\":2619:2735  for (uint256 index; index < removedAddr.length; index++) {... */\n      iszero\n      tag_155\n      jumpi\n        /* \"TokenFaucet.sol\":2719:2724  false */\n      0x00\n        /* \"TokenFaucet.sol\":2690:2696  tokens */\n      0x04\n        /* \"TokenFaucet.sol\":2690:2716  tokens[removedAddr[index]] */\n      0x00\n        /* \"TokenFaucet.sol\":2697:2708  removedAddr */\n      dup5\n        /* \"TokenFaucet.sol\":2709:2714  index */\n      dup5\n        /* \"TokenFaucet.sol\":2697:2715  removedAddr[index] */\n      dup2\n      mload\n      dup2\n      lt\n      tag_191\n      jumpi\n      invalid\n    tag_191:\n      0x20\n      swap1\n      dup2\n      mul\n      swap2\n      swap1\n      swap2\n      add\n      dup2\n      add\n      mload\n      sub(shl(0xa0, 0x01), 0x01)\n        /* \"TokenFaucet.sol\":2690:2716  tokens[removedAddr[index]] */\n      and\n      dup3\n      mstore\n      dup2\n      add\n      swap2\n      swap1\n      swap2\n      mstore\n      0x40\n      add\n      0x00\n      keccak256\n        /* \"TokenFaucet.sol\":2690:2724  tokens[removedAddr[index]] = false */\n      dup1\n      sload\n      not(0xff)\n      and\n      swap2\n      iszero\n      iszero\n      swap2\n      swap1\n      swap2\n      or\n      swap1\n      sstore\n      0x01\n        /* \"TokenFaucet.sol\":2667:2674  index++ */\n      add\n        /* \"TokenFaucet.sol\":2619:2735  for (uint256 index; index < removedAddr.length; index++) {... */\n      jump(tag_188)\n        /* \"Pausable.sol\":273:299  bool public paused = false */\n    tag_64:\n      sload(0x00)\n      shl(0xa0, 0x01)\n      swap1\n      div\n      0xff\n      and\n      dup2\n      jump\t// out\n        /* \"TokenFaucet.sol\":1032:1076  uint256 public AMOUNT_NATIVE_TOKEN = 1 ether */\n    tag_68:\n      sload(0x06)\n      dup2\n      jump\t// out\n        /* \"Ownable.sol\":1711:1856  function renounceOwnership() public virtual onlyOwner {... */\n    tag_73:\n        /* \"Ownable.sol\":1302:1314  _msgSender() */\n      tag_193\n        /* \"Ownable.sol\":1302:1312  _msgSender */\n      tag_114\n        /* \"Ownable.sol\":1302:1314  _msgSender() */\n      jump\t// in\n    tag_193:\n      sub(shl(0xa0, 0x01), 0x01)\n        /* \"Ownable.sol\":1291:1314  owner() == _msgSender() */\n      and\n        /* \"Ownable.sol\":1291:1298  owner() */\n      tag_194\n        /* \"Ownable.sol\":1291:1296  owner */\n      tag_88\n        /* \"Ownable.sol\":1291:1298  owner() */\n      jump\t// in\n    tag_194:\n      sub(shl(0xa0, 0x01), 0x01)\n        /* \"Ownable.sol\":1291:1314  owner() == _msgSender() */\n      and\n      eq\n        /* \"Ownable.sol\":1283:1351  require(owner() == _msgSender(), \"Ownable: caller is not the owner\") */\n      tag_195\n      jumpi\n      0x40\n      dup1\n      mload\n      shl(0xe5, 0x461bcd)\n      dup2\n      mstore\n      0x20\n      0x04\n      dup3\n      add\n      dup2\n      swap1\n      mstore\n      0x24\n      dup3\n      add\n      mstore\n      0x00\n      dup1\n      mload\n      0x20\n      data_9924ebdf1add33d25d4ef888e16131f0a5687b0580a36c21b5c301a6c462effe\n      dup4\n      codecopy\n      dup2\n      mload\n      swap2\n      mstore\n      0x44\n      dup3\n      add\n      mstore\n      swap1\n      mload\n      swap1\n      dup2\n      swap1\n      sub\n      0x64\n      add\n      swap1\n      revert\n    tag_195:\n        /* \"Ownable.sol\":1817:1818  0 */\n      0x00\n        /* \"Ownable.sol\":1801:1807  _owner */\n      dup1\n      sload\n        /* \"Ownable.sol\":1780:1820  OwnershipTransferred(_owner, address(0)) */\n      mload(0x40)\n      sub(shl(0xa0, 0x01), 0x01)\n        /* \"Ownable.sol\":1801:1807  _owner */\n      swap1\n      swap2\n      and\n      swap1\n        /* \"Ownable.sol\":1780:1820  OwnershipTransferred(_owner, address(0)) */\n      0x8be0079c531659141344cd1fd0a4f28419497f9722a3daafe3b4186f6b6457e0\n      swap1\n        /* \"Ownable.sol\":1817:1818  0 */\n      dup4\n      swap1\n        /* \"Ownable.sol\":1780:1820  OwnershipTransferred(_owner, address(0)) */\n      log3\n        /* \"Ownable.sol\":1847:1848  0 */\n      0x00\n        /* \"Ownable.sol\":1830:1849  _owner = address(0) */\n      dup1\n      sload\n      not(sub(shl(0xa0, 0x01), 0x01))\n      and\n      swap1\n      sstore\n        /* \"Ownable.sol\":1711:1856  function renounceOwnership() public virtual onlyOwner {... */\n      jump\t// out\n        /* \"TokenFaucet.sol\":3227:3362  function balanceOf()... */\n    tag_76:\n        /* \"TokenFaucet.sol\":3334:3355  address(this).balance */\n      selfbalance\n      swap1\n        /* \"TokenFaucet.sol\":3227:3362  function balanceOf()... */\n      jump\t// out\n        /* \"TokenFaucet.sol\":986:1026  uint256 public AMOUNT_TOKEN = 1000 ether */\n    tag_80:\n      sload(0x05)\n      dup2\n      jump\t// out\n        /* \"Pausable.sol\":666:790  function pause() external onlyOwner whenNotPaused returns (bool) {... */\n    tag_84:\n        /* \"Pausable.sol\":725:729  bool */\n      0x00\n        /* \"Ownable.sol\":1302:1314  _msgSender() */\n      tag_199\n        /* \"Ownable.sol\":1302:1312  _msgSender */\n      tag_114\n        /* \"Ownable.sol\":1302:1314  _msgSender() */\n      jump\t// in\n    tag_199:\n      sub(shl(0xa0, 0x01), 0x01)\n        /* \"Ownable.sol\":1291:1314  owner() == _msgSender() */\n      and\n        /* \"Ownable.sol\":1291:1298  owner() */\n      tag_200\n        /* \"Ownable.sol\":1291:1296  owner */\n      tag_88\n        /* \"Ownable.sol\":1291:1298  owner() */\n      jump\t// in\n    tag_200:\n      sub(shl(0xa0, 0x01), 0x01)\n        /* \"Ownable.sol\":1291:1314  owner() == _msgSender() */\n      and\n      eq\n        /* \"Ownable.sol\":1283:1351  require(owner() == _msgSender(), \"Ownable: caller is not the owner\") */\n      tag_201\n      jumpi\n      0x40\n      dup1\n      mload\n      shl(0xe5, 0x461bcd)\n      dup2\n      mstore\n      0x20\n      0x04\n      dup3\n      add\n      dup2\n      swap1\n      mstore\n      0x24\n      dup3\n      add\n      mstore\n      0x00\n      dup1\n      mload\n      0x20\n      data_9924ebdf1add33d25d4ef888e16131f0a5687b0580a36c21b5c301a6c462effe\n      dup4\n      codecopy\n      dup2\n      mload\n      swap2\n      mstore\n      0x44\n      dup3\n      add\n      mstore\n      swap1\n      mload\n      swap1\n      dup2\n      swap1\n      sub\n      0x64\n      add\n      swap1\n      revert\n    tag_201:\n        /* \"Pausable.sol\":426:432  paused */\n      sload(0x00)\n      shl(0xa0, 0x01)\n      swap1\n      div\n      0xff\n      and\n        /* \"Pausable.sol\":425:432  !paused */\n      iszero\n        /* \"Pausable.sol\":417:433  require(!paused) */\n      tag_203\n      jumpi\n      0x00\n      dup1\n      revert\n    tag_203:\n        /* \"Pausable.sol\":737:743  paused */\n      0x00\n        /* \"Pausable.sol\":737:750  paused = true */\n      dup1\n      sload\n      not(shl(0xa0, 0xff))\n      and\n      shl(0xa0, 0x01)\n      or\n      dup2\n      sstore\n        /* \"Pausable.sol\":761:768  Pause() */\n      mload(0x40)\n      0x6985a02210a168e66602d3235cb6db0e70f92b3ba4d376a33c0f3d9434bff625\n      swap2\n        /* \"Pausable.sol\":737:743  paused */\n      swap1\n        /* \"Pausable.sol\":761:768  Pause() */\n      log1\n      pop\n        /* \"Pausable.sol\":781:785  true */\n      0x01\n        /* \"Pausable.sol\":666:790  function pause() external onlyOwner whenNotPaused returns (bool) {... */\n      swap1\n      jump\t// out\n        /* \"Ownable.sol\":1079:1164  function owner() public view virtual returns (address) {... */\n    tag_88:\n        /* \"Ownable.sol\":1125:1132  address */\n      0x00\n        /* \"Ownable.sol\":1151:1157  _owner */\n      sload\n      sub(shl(0xa0, 0x01), 0x01)\n      and\n        /* \"Ownable.sol\":1079:1164  function owner() public view virtual returns (address) {... */\n      swap1\n      jump\t// out\n        /* \"TokenFaucet.sol\":824:889  mapping(address => mapping(address => UserInfo)) public userInfos */\n    tag_94:\n      0x02\n      0x20\n      dup2\n      dup2\n      mstore\n      0x00\n      swap4\n      dup5\n      mstore\n      0x40\n      dup1\n      dup6\n      keccak256\n      swap1\n      swap2\n      mstore\n      swap2\n      dup4\n      mstore\n      swap2\n      keccak256\n      dup1\n      sload\n      0x01\n      dup3\n      add\n      sload\n      swap2\n      swap1\n      swap3\n      add\n      sload\n      dup4\n      jump\t// out\n        /* \"TokenFaucet.sol\":942:980  mapping(address => bool) public tokens */\n    tag_100:\n      mstore(0x20, 0x04)\n      0x00\n      swap1\n      dup2\n      mstore\n      0x40\n      swap1\n      keccak256\n      sload\n      0xff\n      and\n      dup2\n      jump\t// out\n        /* \"TokenFaucet.sol\":2933:3128  function getUserInfo(address tokenAddress, address userAddress)... */\n    tag_105:\n        /* \"TokenFaucet.sol\":3042:3062  UserInfo memory user */\n      tag_206\n      tag_207\n      jump\t// in\n    tag_206:\n      pop\n      sub(shl(0xa0, 0x01), 0x01)\n        /* \"TokenFaucet.sol\":3085:3108  userInfos[tokenAddress] */\n      swap2\n      dup3\n      and\n      0x00\n      swap1\n      dup2\n      mstore\n        /* \"TokenFaucet.sol\":3085:3094  userInfos */\n      0x02\n        /* \"TokenFaucet.sol\":3085:3108  userInfos[tokenAddress] */\n      0x20\n      dup2\n      dup2\n      mstore\n      0x40\n      dup1\n      dup5\n      keccak256\n        /* \"TokenFaucet.sol\":3085:3121  userInfos[tokenAddress][userAddress] */\n      swap5\n      swap1\n      swap6\n      and\n      dup4\n      mstore\n      swap3\n      dup4\n      mstore\n      swap1\n      dup4\n      swap1\n      keccak256\n        /* \"TokenFaucet.sol\":3078:3121  user = userInfos[tokenAddress][userAddress] */\n      dup4\n      mload\n      0x60\n      dup2\n      add\n      dup6\n      mstore\n      dup2\n      sload\n      dup2\n      mstore\n      0x01\n      dup3\n      add\n      sload\n      swap4\n      dup2\n      add\n      swap4\n      swap1\n      swap4\n      mstore\n      add\n      sload\n      swap2\n      dup2\n      add\n      swap2\n      swap1\n      swap2\n      mstore\n      swap1\n        /* \"TokenFaucet.sol\":2933:3128  function getUserInfo(address tokenAddress, address userAddress)... */\n      jump\t// out\n        /* \"Ownable.sol\":2005:2245  function transferOwnership(address newOwner) public virtual onlyOwner {... */\n    tag_111:\n        /* \"Ownable.sol\":1302:1314  _msgSender() */\n      tag_210\n        /* \"Ownable.sol\":1302:1312  _msgSender */\n      tag_114\n        /* \"Ownable.sol\":1302:1314  _msgSender() */\n      jump\t// in\n    tag_210:\n      sub(shl(0xa0, 0x01), 0x01)\n        /* \"Ownable.sol\":1291:1314  owner() == _msgSender() */\n      and\n        /* \"Ownable.sol\":1291:1298  owner() */\n      tag_211\n        /* \"Ownable.sol\":1291:1296  owner */\n      tag_88\n        /* \"Ownable.sol\":1291:1298  owner() */\n      jump\t// in\n    tag_211:\n      sub(shl(0xa0, 0x01), 0x01)\n        /* \"Ownable.sol\":1291:1314  owner() == _msgSender() */\n      and\n      eq\n        /* \"Ownable.sol\":1283:1351  require(owner() == _msgSender(), \"Ownable: caller is not the owner\") */\n      tag_212\n      jumpi\n      0x40\n      dup1\n      mload\n      shl(0xe5, 0x461bcd)\n      dup2\n      mstore\n      0x20\n      0x04\n      dup3\n      add\n      dup2\n      swap1\n      mstore\n      0x24\n      dup3\n      add\n      mstore\n      0x00\n      dup1\n      mload\n      0x20\n      data_9924ebdf1add33d25d4ef888e16131f0a5687b0580a36c21b5c301a6c462effe\n      dup4\n      codecopy\n      dup2\n      mload\n      swap2\n      mstore\n      0x44\n      dup3\n      add\n      mstore\n      swap1\n      mload\n      swap1\n      dup2\n      swap1\n      sub\n      0x64\n      add\n      swap1\n      revert\n    tag_212:\n      sub(shl(0xa0, 0x01), 0x01)\n        /* \"Ownable.sol\":2093:2115  newOwner != address(0) */\n      dup2\n      and\n        /* \"Ownable.sol\":2085:2158  require(newOwner != address(0), \"Ownable: new owner is the zero address\") */\n      tag_214\n      jumpi\n      mload(0x40)\n      shl(0xe5, 0x461bcd)\n      dup2\n      mstore\n      0x04\n      add\n      dup1\n      dup1\n      0x20\n      add\n      dup3\n      dup2\n      sub\n      dup3\n      mstore\n      0x26\n      dup2\n      mstore\n      0x20\n      add\n      dup1\n      data_245f15ff17f551913a7a18385165551503906a406f905ac1c2437281a7cd0cfe\n      0x26\n      swap2\n      codecopy\n      0x40\n      add\n      swap2\n      pop\n      pop\n      mload(0x40)\n      dup1\n      swap2\n      sub\n      swap1\n      revert\n    tag_214:\n        /* \"Ownable.sol\":2194:2200  _owner */\n      0x00\n      dup1\n      sload\n        /* \"Ownable.sol\":2173:2211  OwnershipTransferred(_owner, newOwner) */\n      mload(0x40)\n      sub(shl(0xa0, 0x01), 0x01)\n      dup1\n      dup6\n      and\n      swap4\n        /* \"Ownable.sol\":2194:2200  _owner */\n      swap3\n      and\n      swap2\n        /* \"Ownable.sol\":2173:2211  OwnershipTransferred(_owner, newOwner) */\n      0x8be0079c531659141344cd1fd0a4f28419497f9722a3daafe3b4186f6b6457e0\n      swap2\n      log3\n        /* \"Ownable.sol\":2221:2227  _owner */\n      0x00\n        /* \"Ownable.sol\":2221:2238  _owner = newOwner */\n      dup1\n      sload\n      not(sub(shl(0xa0, 0x01), 0x01))\n      and\n      sub(shl(0xa0, 0x01), 0x01)\n      swap3\n      swap1\n      swap3\n      and\n      swap2\n      swap1\n      swap2\n      or\n      swap1\n      sstore\n        /* \"Ownable.sol\":2005:2245  function transferOwnership(address newOwner) public virtual onlyOwner {... */\n      jump\t// out\n        /* \"Context.sol\":598:702  function _msgSender() internal view virtual returns (address payable) {... */\n    tag_114:\n        /* \"Context.sol\":685:695  msg.sender */\n      caller\n        /* \"Context.sol\":598:702  function _msgSender() internal view virtual returns (address payable) {... */\n      swap1\n      jump\t// out\n        /* \"SafeMath.sol\":2690:2865  function add(uint256 a, uint256 b) internal pure returns (uint256) {... */\n    tag_132:\n        /* \"SafeMath.sol\":2748:2755  uint256 */\n      0x00\n        /* \"SafeMath.sol\":2779:2784  a + b */\n      dup3\n      dup3\n      add\n        /* \"SafeMath.sol\":2802:2808  c >= a */\n      dup4\n      dup2\n      lt\n      iszero\n        /* \"SafeMath.sol\":2794:2840  require(c >= a, \"SafeMath: addition overflow\") */\n      tag_217\n      jumpi\n      0x40\n      dup1\n      mload\n      shl(0xe5, 0x461bcd)\n      dup2\n      mstore\n      0x20\n      0x04\n      dup3\n      add\n      mstore\n      0x1b\n      0x24\n      dup3\n      add\n      mstore\n      0x536166654d6174683a206164646974696f6e206f766572666c6f770000000000\n      0x44\n      dup3\n      add\n      mstore\n      swap1\n      mload\n      swap1\n      dup2\n      swap1\n      sub\n      0x64\n      add\n      swap1\n      revert\n    tag_217:\n        /* \"SafeMath.sol\":2857:2858  c */\n      swap4\n        /* \"SafeMath.sol\":2690:2865  function add(uint256 a, uint256 b) internal pure returns (uint256) {... */\n      swap3\n      pop\n      pop\n      pop\n      jump\t// out\n    tag_207:\n      mload(0x40)\n      dup1\n      0x60\n      add\n      0x40\n      mstore\n      dup1\n      0x00\n      dup2\n      mstore\n      0x20\n      add\n      0x00\n      dup2\n      mstore\n      0x20\n      add\n      0x00\n      dup2\n      mstore\n      pop\n      swap1\n      jump\t// out\n        /* \"#utility.yul\":14:152   */\n    tag_219:\n        /* \"#utility.yul\":84:104   */\n      dup1\n      calldataload\n        /* \"#utility.yul\":113:146   */\n      tag_221\n        /* \"#utility.yul\":84:104   */\n      dup2\n        /* \"#utility.yul\":113:146   */\n      tag_222\n      jump\t// in\n    tag_221:\n        /* \"#utility.yul\":65:152   */\n      swap2\n      swap1\n      pop\n      jump\t// out\n        /* \"#utility.yul\":157:1073   */\n    tag_223:\n      0x00\n        /* \"#utility.yul\":270:273   */\n      dup3\n        /* \"#utility.yul\":263:267   */\n      0x1f\n        /* \"#utility.yul\":255:261   */\n      dup4\n        /* \"#utility.yul\":251:268   */\n      add\n        /* \"#utility.yul\":247:274   */\n      slt\n        /* \"#utility.yul\":237:239   */\n      tag_225\n      jumpi\n        /* \"#utility.yul\":292:297   */\n      dup1\n        /* \"#utility.yul\":285:290   */\n      dup2\n        /* \"#utility.yul\":278:298   */\n      revert\n        /* \"#utility.yul\":237:239   */\n    tag_225:\n        /* \"#utility.yul\":332:338   */\n      dup2\n        /* \"#utility.yul\":319:339   */\n      calldataload\n        /* \"#utility.yul\":358:362   */\n      0x20\n        /* \"#utility.yul\":381:399   */\n      0xffffffffffffffff\n        /* \"#utility.yul\":418:420   */\n      dup1\n        /* \"#utility.yul\":414:416   */\n      dup4\n        /* \"#utility.yul\":411:421   */\n      gt\n        /* \"#utility.yul\":408:410   */\n      iszero\n      tag_226\n      jumpi\n        /* \"#utility.yul\":424:433   */\n      invalid\n        /* \"#utility.yul\":408:410   */\n    tag_226:\n        /* \"#utility.yul\":462:464   */\n      dup2\n        /* \"#utility.yul\":458:460   */\n      dup4\n        /* \"#utility.yul\":454:465   */\n      mul\n        /* \"#utility.yul\":494:496   */\n      0x40\n        /* \"#utility.yul\":488:497   */\n      mload\n        /* \"#utility.yul\":545:547   */\n      dup4\n        /* \"#utility.yul\":540:542   */\n      dup3\n        /* \"#utility.yul\":532:538   */\n      dup3\n        /* \"#utility.yul\":528:543   */\n      add\n        /* \"#utility.yul\":524:548   */\n      add\n        /* \"#utility.yul\":598:604   */\n      dup2\n        /* \"#utility.yul\":586:596   */\n      dup2\n        /* \"#utility.yul\":583:605   */\n      lt\n        /* \"#utility.yul\":578:580   */\n      dup5\n        /* \"#utility.yul\":566:576   */\n      dup3\n        /* \"#utility.yul\":563:581   */\n      gt\n        /* \"#utility.yul\":560:606   */\n      or\n        /* \"#utility.yul\":557:559   */\n      iszero\n      tag_227\n      jumpi\n        /* \"#utility.yul\":609:618   */\n      invalid\n        /* \"#utility.yul\":557:559   */\n    tag_227:\n        /* \"#utility.yul\":636:638   */\n      0x40\n        /* \"#utility.yul\":629:651   */\n      mstore\n        /* \"#utility.yul\":686:704   */\n      dup5\n      dup2\n      mstore\n        /* \"#utility.yul\":720:735   */\n      dup4\n      dup2\n      add\n      swap3\n      pop\n        /* \"#utility.yul\":755:770   */\n      dup7\n      dup5\n      add\n        /* \"#utility.yul\":789:804   */\n      dup3\n      dup9\n      add\n        /* \"#utility.yul\":785:809   */\n      dup6\n      add\n        /* \"#utility.yul\":782:815   */\n      dup10\n      lt\n        /* \"#utility.yul\":779:781   */\n      iszero\n      tag_228\n      jumpi\n        /* \"#utility.yul\":832:837   */\n      dup7\n        /* \"#utility.yul\":825:830   */\n      dup8\n        /* \"#utility.yul\":818:838   */\n      revert\n        /* \"#utility.yul\":779:781   */\n    tag_228:\n        /* \"#utility.yul\":858:863   */\n      dup7\n        /* \"#utility.yul\":849:863   */\n      swap3\n      pop\n        /* \"#utility.yul\":872:1043   */\n    tag_229:\n        /* \"#utility.yul\":886:888   */\n      dup6\n        /* \"#utility.yul\":883:884   */\n      dup4\n        /* \"#utility.yul\":880:889   */\n      lt\n        /* \"#utility.yul\":872:1043   */\n      iszero\n      tag_231\n      jumpi\n        /* \"#utility.yul\":943:968   */\n      tag_232\n        /* \"#utility.yul\":964:967   */\n      dup2\n        /* \"#utility.yul\":943:968   */\n      tag_219\n      jump\t// in\n    tag_232:\n        /* \"#utility.yul\":931:969   */\n      dup5\n      mstore\n        /* \"#utility.yul\":989:1001   */\n      swap3\n      dup5\n      add\n      swap3\n        /* \"#utility.yul\":904:905   */\n      0x01\n        /* \"#utility.yul\":897:906   */\n      swap3\n      swap1\n      swap3\n      add\n      swap2\n        /* \"#utility.yul\":1021:1033   */\n      dup5\n      add\n        /* \"#utility.yul\":872:1043   */\n      jump(tag_229)\n    tag_231:\n      pop\n        /* \"#utility.yul\":1061:1067   */\n      swap8\n        /* \"#utility.yul\":227:1073   */\n      swap7\n      pop\n      pop\n      pop\n      pop\n      pop\n      pop\n      pop\n      jump\t// out\n        /* \"#utility.yul\":1078:1337   */\n    tag_45:\n      0x00\n        /* \"#utility.yul\":1190:1192   */\n      0x20\n        /* \"#utility.yul\":1178:1187   */\n      dup3\n        /* \"#utility.yul\":1169:1176   */\n      dup5\n        /* \"#utility.yul\":1165:1188   */\n      sub\n        /* \"#utility.yul\":1161:1193   */\n      slt\n        /* \"#utility.yul\":1158:1160   */\n      iszero\n      tag_234\n      jumpi\n        /* \"#utility.yul\":1211:1217   */\n      dup1\n        /* \"#utility.yul\":1203:1209   */\n      dup2\n        /* \"#utility.yul\":1196:1218   */\n      revert\n        /* \"#utility.yul\":1158:1160   */\n    tag_234:\n        /* \"#utility.yul\":1255:1264   */\n      dup2\n        /* \"#utility.yul\":1242:1265   */\n      calldataload\n        /* \"#utility.yul\":1274:1307   */\n      tag_217\n        /* \"#utility.yul\":1301:1306   */\n      dup2\n        /* \"#utility.yul\":1274:1307   */\n      tag_222\n      jump\t// in\n        /* \"#utility.yul\":1342:1744   */\n    tag_35:\n      0x00\n      dup1\n        /* \"#utility.yul\":1471:1473   */\n      0x40\n        /* \"#utility.yul\":1459:1468   */\n      dup4\n        /* \"#utility.yul\":1450:1457   */\n      dup6\n        /* \"#utility.yul\":1446:1469   */\n      sub\n        /* \"#utility.yul\":1442:1474   */\n      slt\n        /* \"#utility.yul\":1439:1441   */\n      iszero\n      tag_237\n      jumpi\n        /* \"#utility.yul\":1492:1498   */\n      dup1\n        /* \"#utility.yul\":1484:1490   */\n      dup2\n        /* \"#utility.yul\":1477:1499   */\n      revert\n        /* \"#utility.yul\":1439:1441   */\n    tag_237:\n        /* \"#utility.yul\":1536:1545   */\n      dup3\n        /* \"#utility.yul\":1523:1546   */\n      calldataload\n        /* \"#utility.yul\":1555:1588   */\n      tag_238\n        /* \"#utility.yul\":1582:1587   */\n      dup2\n        /* \"#utility.yul\":1555:1588   */\n      tag_222\n      jump\t// in\n    tag_238:\n        /* \"#utility.yul\":1607:1612   */\n      swap2\n      pop\n        /* \"#utility.yul\":1664:1666   */\n      0x20\n        /* \"#utility.yul\":1649:1667   */\n      dup4\n      add\n        /* \"#utility.yul\":1636:1668   */\n      calldataload\n        /* \"#utility.yul\":1677:1712   */\n      tag_239\n        /* \"#utility.yul\":1636:1668   */\n      dup2\n        /* \"#utility.yul\":1677:1712   */\n      tag_222\n      jump\t// in\n    tag_239:\n        /* \"#utility.yul\":1731:1738   */\n      dup1\n        /* \"#utility.yul\":1721:1738   */\n      swap2\n      pop\n      pop\n        /* \"#utility.yul\":1429:1744   */\n      swap3\n      pop\n      swap3\n      swap1\n      pop\n      jump\t// out\n        /* \"#utility.yul\":1749:2227   */\n    tag_56:\n      0x00\n      dup1\n      0x00\n        /* \"#utility.yul\":1903:1905   */\n      0x60\n        /* \"#utility.yul\":1891:1900   */\n      dup5\n        /* \"#utility.yul\":1882:1889   */\n      dup7\n        /* \"#utility.yul\":1878:1901   */\n      sub\n        /* \"#utility.yul\":1874:1906   */\n      slt\n        /* \"#utility.yul\":1871:1873   */\n      iszero\n      tag_241\n      jumpi\n        /* \"#utility.yul\":1924:1930   */\n      dup1\n        /* \"#utility.yul\":1916:1922   */\n      dup2\n        /* \"#utility.yul\":1909:1931   */\n      revert\n        /* \"#utility.yul\":1871:1873   */\n    tag_241:\n        /* \"#utility.yul\":1968:1977   */\n      dup4\n        /* \"#utility.yul\":1955:1978   */\n      calldataload\n        /* \"#utility.yul\":1987:2020   */\n      tag_242\n        /* \"#utility.yul\":2014:2019   */\n      dup2\n        /* \"#utility.yul\":1987:2020   */\n      tag_222\n      jump\t// in\n    tag_242:\n        /* \"#utility.yul\":2039:2044   */\n      swap3\n      pop\n        /* \"#utility.yul\":2091:2093   */\n      0x20\n        /* \"#utility.yul\":2076:2094   */\n      dup5\n      add\n        /* \"#utility.yul\":2063:2095   */\n      calldataload\n      swap2\n      pop\n        /* \"#utility.yul\":2147:2149   */\n      0x40\n        /* \"#utility.yul\":2132:2150   */\n      dup5\n      add\n        /* \"#utility.yul\":2119:2151   */\n      calldataload\n        /* \"#utility.yul\":2160:2195   */\n      tag_243\n        /* \"#utility.yul\":2119:2151   */\n      dup2\n        /* \"#utility.yul\":2160:2195   */\n      tag_222\n      jump\t// in\n    tag_243:\n        /* \"#utility.yul\":2214:2221   */\n      dup1\n        /* \"#utility.yul\":2204:2221   */\n      swap2\n      pop\n      pop\n        /* \"#utility.yul\":1861:2227   */\n      swap3\n      pop\n      swap3\n      pop\n      swap3\n      jump\t// out\n        /* \"#utility.yul\":2232:2869   */\n    tag_40:\n      0x00\n      dup1\n        /* \"#utility.yul\":2411:2413   */\n      0x40\n        /* \"#utility.yul\":2399:2408   */\n      dup4\n        /* \"#utility.yul\":2390:2397   */\n      dup6\n        /* \"#utility.yul\":2386:2409   */\n      sub\n        /* \"#utility.yul\":2382:2414   */\n      slt\n        /* \"#utility.yul\":2379:2381   */\n      iszero\n      tag_245\n      jumpi\n        /* \"#utility.yul\":2432:2438   */\n      dup2\n        /* \"#utility.yul\":2424:2430   */\n      dup3\n        /* \"#utility.yul\":2417:2439   */\n      revert\n        /* \"#utility.yul\":2379:2381   */\n    tag_245:\n        /* \"#utility.yul\":2477:2486   */\n      dup3\n        /* \"#utility.yul\":2464:2487   */\n      calldataload\n        /* \"#utility.yul\":2506:2524   */\n      0xffffffffffffffff\n        /* \"#utility.yul\":2547:2549   */\n      dup1\n        /* \"#utility.yul\":2539:2545   */\n      dup3\n        /* \"#utility.yul\":2536:2550   */\n      gt\n        /* \"#utility.yul\":2533:2535   */\n      iszero\n      tag_246\n      jumpi\n        /* \"#utility.yul\":2568:2574   */\n      dup4\n        /* \"#utility.yul\":2560:2566   */\n      dup5\n        /* \"#utility.yul\":2553:2575   */\n      revert\n        /* \"#utility.yul\":2533:2535   */\n    tag_246:\n        /* \"#utility.yul\":2596:2663   */\n      tag_247\n        /* \"#utility.yul\":2655:2662   */\n      dup7\n        /* \"#utility.yul\":2646:2652   */\n      dup4\n        /* \"#utility.yul\":2635:2644   */\n      dup8\n        /* \"#utility.yul\":2631:2653   */\n      add\n        /* \"#utility.yul\":2596:2663   */\n      tag_223\n      jump\t// in\n    tag_247:\n        /* \"#utility.yul\":2586:2663   */\n      swap4\n      pop\n        /* \"#utility.yul\":2716:2718   */\n      0x20\n        /* \"#utility.yul\":2705:2714   */\n      dup6\n        /* \"#utility.yul\":2701:2719   */\n      add\n        /* \"#utility.yul\":2688:2720   */\n      calldataload\n        /* \"#utility.yul\":2672:2720   */\n      swap2\n      pop\n        /* \"#utility.yul\":2745:2747   */\n      dup1\n        /* \"#utility.yul\":2735:2743   */\n      dup3\n        /* \"#utility.yul\":2732:2748   */\n      gt\n        /* \"#utility.yul\":2729:2731   */\n      iszero\n      tag_248\n      jumpi\n        /* \"#utility.yul\":2766:2772   */\n      dup3\n        /* \"#utility.yul\":2758:2764   */\n      dup4\n        /* \"#utility.yul\":2751:2773   */\n      revert\n        /* \"#utility.yul\":2729:2731   */\n    tag_248:\n      pop\n        /* \"#utility.yul\":2794:2863   */\n      tag_249\n        /* \"#utility.yul\":2855:2862   */\n      dup6\n        /* \"#utility.yul\":2844:2852   */\n      dup3\n        /* \"#utility.yul\":2833:2842   */\n      dup7\n        /* \"#utility.yul\":2829:2853   */\n      add\n        /* \"#utility.yul\":2794:2863   */\n      tag_223\n      jump\t// in\n    tag_249:\n        /* \"#utility.yul\":2784:2863   */\n      swap2\n      pop\n      pop\n        /* \"#utility.yul\":2369:2869   */\n      swap3\n      pop\n      swap3\n      swap1\n      pop\n      jump\t// out\n        /* \"#utility.yul\":2874:3171   */\n    tag_143:\n      0x00\n        /* \"#utility.yul\":2994:2996   */\n      0x20\n        /* \"#utility.yul\":2982:2991   */\n      dup3\n        /* \"#utility.yul\":2973:2980   */\n      dup5\n        /* \"#utility.yul\":2969:2992   */\n      sub\n        /* \"#utility.yul\":2965:2997   */\n      slt\n        /* \"#utility.yul\":2962:2964   */\n      iszero\n      tag_251\n      jumpi\n        /* \"#utility.yul\":3015:3021   */\n      dup1\n        /* \"#utility.yul\":3007:3013   */\n      dup2\n        /* \"#utility.yul\":3000:3022   */\n      revert\n        /* \"#utility.yul\":2962:2964   */\n    tag_251:\n        /* \"#utility.yul\":3052:3061   */\n      dup2\n        /* \"#utility.yul\":3046:3062   */\n      mload\n        /* \"#utility.yul\":3105:3110   */\n      dup1\n        /* \"#utility.yul\":3098:3111   */\n      iszero\n        /* \"#utility.yul\":3091:3112   */\n      iszero\n        /* \"#utility.yul\":3084:3089   */\n      dup2\n        /* \"#utility.yul\":3081:3113   */\n      eq\n        /* \"#utility.yul\":3071:3073   */\n      tag_217\n      jumpi\n        /* \"#utility.yul\":3132:3138   */\n      dup2\n        /* \"#utility.yul\":3124:3130   */\n      dup3\n        /* \"#utility.yul\":3117:3139   */\n      revert\n        /* \"#utility.yul\":3176:3434   */\n    tag_31:\n      0x00\n      dup1\n        /* \"#utility.yul\":3305:3307   */\n      0x40\n        /* \"#utility.yul\":3293:3302   */\n      dup4\n        /* \"#utility.yul\":3284:3291   */\n      dup6\n        /* \"#utility.yul\":3280:3303   */\n      sub\n        /* \"#utility.yul\":3276:3308   */\n      slt\n        /* \"#utility.yul\":3273:3275   */\n      iszero\n      tag_254\n      jumpi\n        /* \"#utility.yul\":3326:3332   */\n      dup2\n        /* \"#utility.yul\":3318:3324   */\n      dup3\n        /* \"#utility.yul\":3311:3333   */\n      revert\n        /* \"#utility.yul\":3273:3275   */\n    tag_254:\n      pop\n      pop\n        /* \"#utility.yul\":3354:3377   */\n      dup1\n      calldataload\n      swap3\n        /* \"#utility.yul\":3424:3426   */\n      0x20\n        /* \"#utility.yul\":3409:3427   */\n      swap1\n      swap2\n      add\n        /* \"#utility.yul\":3396:3428   */\n      calldataload\n      swap2\n      pop\n        /* \"#utility.yul\":3263:3434   */\n      jump\t// out\n        /* \"#utility.yul\":3439:3642   */\n    tag_90:\n      sub(shl(0xa0, 0x01), 0x01)\n        /* \"#utility.yul\":3603:3635   */\n      swap2\n      swap1\n      swap2\n      and\n        /* \"#utility.yul\":3585:3636   */\n      dup2\n      mstore\n        /* \"#utility.yul\":3573:3575   */\n      0x20\n        /* \"#utility.yul\":3558:3576   */\n      add\n      swap1\n        /* \"#utility.yul\":3540:3642   */\n      jump\t// out\n        /* \"#utility.yul\":3647:3929   */\n    tag_174:\n      sub(shl(0xa0, 0x01), 0x01)\n        /* \"#utility.yul\":3847:3879   */\n      swap3\n      swap1\n      swap3\n      and\n        /* \"#utility.yul\":3829:3880   */\n      dup3\n      mstore\n        /* \"#utility.yul\":3911:3913   */\n      0x20\n        /* \"#utility.yul\":3896:3914   */\n      dup3\n      add\n        /* \"#utility.yul\":3889:3923   */\n      mstore\n        /* \"#utility.yul\":3817:3819   */\n      0x40\n        /* \"#utility.yul\":3802:3820   */\n      add\n      swap1\n        /* \"#utility.yul\":3784:3929   */\n      jump\t// out\n        /* \"#utility.yul\":4213:4400   */\n    tag_48:\n        /* \"#utility.yul\":4378:4392   */\n      swap1\n      iszero\n        /* \"#utility.yul\":4371:4393   */\n      iszero\n        /* \"#utility.yul\":4353:4394   */\n      dup2\n      mstore\n        /* \"#utility.yul\":4341:4343   */\n      0x20\n        /* \"#utility.yul\":4326:4344   */\n      add\n      swap1\n        /* \"#utility.yul\":4308:4400   */\n      jump\t// out\n        /* \"#utility.yul\":4405:4751   */\n    tag_129:\n        /* \"#utility.yul\":4607:4609   */\n      0x20\n        /* \"#utility.yul\":4589:4610   */\n      dup1\n      dup3\n      mstore\n        /* \"#utility.yul\":4646:4648   */\n      0x16\n        /* \"#utility.yul\":4626:4644   */\n      swap1\n      dup3\n      add\n        /* \"#utility.yul\":4619:4649   */\n      mstore\n      shl(0x50, 0x6e6f742020737570706f727465642061646472657373)\n        /* \"#utility.yul\":4680:4682   */\n      0x40\n        /* \"#utility.yul\":4665:4683   */\n      dup3\n      add\n        /* \"#utility.yul\":4658:4710   */\n      mstore\n        /* \"#utility.yul\":4742:4744   */\n      0x60\n        /* \"#utility.yul\":4727:4745   */\n      add\n      swap1\n        /* \"#utility.yul\":4579:4751   */\n      jump\t// out\n        /* \"#utility.yul\":4756:5101   */\n    tag_125:\n        /* \"#utility.yul\":4958:4960   */\n      0x20\n        /* \"#utility.yul\":4940:4961   */\n      dup1\n      dup3\n      mstore\n        /* \"#utility.yul\":4997:4999   */\n      0x15\n        /* \"#utility.yul\":4977:4995   */\n      swap1\n      dup3\n      add\n        /* \"#utility.yul\":4970:5000   */\n      mstore\n      shl(0x59, 0x3932b8bab4b9329029b0b3329020b2323932b9b997)\n        /* \"#utility.yul\":5031:5033   */\n      0x40\n        /* \"#utility.yul\":5016:5034   */\n      dup3\n      add\n        /* \"#utility.yul\":5009:5060   */\n      mstore\n        /* \"#utility.yul\":5092:5094   */\n      0x60\n        /* \"#utility.yul\":5077:5095   */\n      add\n      swap1\n        /* \"#utility.yul\":4930:5101   */\n      jump\t// out\n        /* \"#utility.yul\":5106:5466   */\n    tag_107:\n        /* \"#utility.yul\":5320:5333   */\n      dup2\n      mload\n        /* \"#utility.yul\":5302:5334   */\n      dup2\n      mstore\n        /* \"#utility.yul\":5390:5394   */\n      0x20\n        /* \"#utility.yul\":5378:5395   */\n      dup1\n      dup4\n      add\n        /* \"#utility.yul\":5372:5396   */\n      mload\n        /* \"#utility.yul\":5350:5370   */\n      swap1\n      dup3\n      add\n        /* \"#utility.yul\":5343:5397   */\n      mstore\n        /* \"#utility.yul\":5453:5457   */\n      0x40\n        /* \"#utility.yul\":5441:5458   */\n      swap2\n      dup3\n      add\n        /* \"#utility.yul\":5435:5459   */\n      mload\n        /* \"#utility.yul\":5413:5433   */\n      swap2\n      dup2\n      add\n        /* \"#utility.yul\":5406:5460   */\n      swap2\n      swap1\n      swap2\n      mstore\n        /* \"#utility.yul\":5290:5292   */\n      0x60\n        /* \"#utility.yul\":5275:5293   */\n      add\n      swap1\n        /* \"#utility.yul\":5257:5466   */\n      jump\t// out\n        /* \"#utility.yul\":5471:5648   */\n    tag_70:\n        /* \"#utility.yul\":5617:5642   */\n      swap1\n      dup2\n      mstore\n        /* \"#utility.yul\":5605:5607   */\n      0x20\n        /* \"#utility.yul\":5590:5608   */\n      add\n      swap1\n        /* \"#utility.yul\":5572:5648   */\n      jump\t// out\n        /* \"#utility.yul\":5653:5901   */\n    tag_27:\n        /* \"#utility.yul\":5827:5852   */\n      swap2\n      dup3\n      mstore\n        /* \"#utility.yul\":5883:5885   */\n      0x20\n        /* \"#utility.yul\":5868:5886   */\n      dup3\n      add\n        /* \"#utility.yul\":5861:5895   */\n      mstore\n        /* \"#utility.yul\":5815:5817   */\n      0x40\n        /* \"#utility.yul\":5800:5818   */\n      add\n      swap1\n        /* \"#utility.yul\":5782:5901   */\n      jump\t// out\n        /* \"#utility.yul\":5906:6225   */\n    tag_96:\n        /* \"#utility.yul\":6108:6133   */\n      swap3\n      dup4\n      mstore\n        /* \"#utility.yul\":6164:6166   */\n      0x20\n        /* \"#utility.yul\":6149:6167   */\n      dup4\n      add\n        /* \"#utility.yul\":6142:6176   */\n      swap2\n      swap1\n      swap2\n      mstore\n        /* \"#utility.yul\":6207:6209   */\n      0x40\n        /* \"#utility.yul\":6192:6210   */\n      dup3\n      add\n        /* \"#utility.yul\":6185:6219   */\n      mstore\n        /* \"#utility.yul\":6096:6098   */\n      0x60\n        /* \"#utility.yul\":6081:6099   */\n      add\n      swap1\n        /* \"#utility.yul\":6063:6225   */\n      jump\t// out\n        /* \"#utility.yul\":6230:6363   */\n    tag_222:\n      sub(shl(0xa0, 0x01), 0x01)\n        /* \"#utility.yul\":6307:6338   */\n      dup2\n      and\n        /* \"#utility.yul\":6297:6339   */\n      dup2\n      eq\n        /* \"#utility.yul\":6287:6289   */\n      tag_266\n      jumpi\n        /* \"#utility.yul\":6353:6354   */\n      0x00\n        /* \"#utility.yul\":6350:6351   */\n      dup1\n        /* \"#utility.yul\":6343:6355   */\n      revert\n        /* \"#utility.yul\":6287:6289   */\n    tag_266:\n        /* \"#utility.yul\":6277:6363   */\n      pop\n      jump\t// out\n    stop\n    data_245f15ff17f551913a7a18385165551503906a406f905ac1c2437281a7cd0cfe 4f776e61626c653a206e6577206f776e657220697320746865207a65726f2061646472657373\n    data_9924ebdf1add33d25d4ef888e16131f0a5687b0580a36c21b5c301a6c462effe 4f776e61626c653a2063616c6c6572206973206e6f7420746865206f776e6572\n\n    auxdata: 0xa2646970667358221220e28a444b17123294041616ccc89088a092bcd2ec52b73b289fd5d5c10cdef2b364736f6c63430007060033\n}\n",
				"bytecode": {
					"linkReferences": {},
					"object": "60806040526000805460ff60a01b19169055683635c9adc5dea00000600555670de0b6b3a764000060065534801561003657600080fd5b506000610041610094565b600080546001600160a01b0319166001600160a01b0383169081178255604051929350917f8be0079c531659141344cd1fd0a4f28419497f9722a3daafe3b4186f6b6457e0908290a35060018055610098565b3390565b61115b806100a76000396000f3fe6080604052600436106101095760003560e01c8063715018a6116100955780638da5cb5b116100645780638da5cb5b146102af578063c9b5279c146102d1578063e486033914610300578063f2801fe714610320578063f2fde38b1461034d57610109565b8063715018a61461025b578063722713f7146102705780638174e972146102855780638456cb591461029a57610109565b80633f4ba83a116100dc5780633f4ba83a146101cf5780634e6f5b60146101e457806351b32e8b146102045780635c975abb14610224578063602f86f81461023957610109565b8063207add911461014457806321c0b342146101665780632adb5f4e14610179578063372c12b114610199575b7f41d0978db23c08ae0f5d1e376087f27d92b1a65d7cf5a613ec7d8a8b977e4ed0344260405161013a9291906110a3565b60405180910390a1005b34801561015057600080fd5b5061016461015f366004610fc1565b61036d565b005b610164610174366004610ec7565b6103da565b34801561018557600080fd5b50610164610194366004610f40565b610631565b3480156101a557600080fd5b506101b96101b4366004610eab565b610749565b6040516101c6919061100f565b60405180910390f35b3480156101db57600080fd5b506101b961075e565b3480156101f057600080fd5b506101646101ff366004610eff565b610812565b34801561021057600080fd5b5061016461021f366004610f40565b610944565b34801561023057600080fd5b506101b9610a57565b34801561024557600080fd5b5061024e610a67565b6040516101c6919061109a565b34801561026757600080fd5b50610164610a6d565b34801561027c57600080fd5b5061024e610b19565b34801561029157600080fd5b5061024e610b1d565b3480156102a657600080fd5b506101b9610b23565b3480156102bb57600080fd5b506102c4610bde565b6040516101c69190610fe2565b3480156102dd57600080fd5b506102f16102ec366004610ec7565b610bed565b6040516101c6939291906110b1565b34801561030c57600080fd5b506101b961031b366004610eab565b610c15565b34801561032c57600080fd5b5061034061033b366004610ec7565b610c2a565b6040516101c69190611079565b34801561035957600080fd5b50610164610368366004610eab565b610c80565b610375610d82565b6001600160a01b0316610386610bde565b6001600160a01b0316146103cf576040805162461bcd60e51b81526020600482018190526024820152600080516020611106833981519152604482015290519081900360640190fd5b600591909155600655565b60026001541415610432576040805162461bcd60e51b815260206004820152601f60248201527f5265656e7472616e637947756172643a207265656e7472616e742063616c6c00604482015290519081900360640190fd5b6002600155600054600160a01b900460ff161561044e57600080fd5b3360009081526003602052604090205460ff166104865760405162461bcd60e51b815260040161047d9061104a565b60405180910390fd5b6001600160a01b03821660009081526004602052604090205460ff166104be5760405162461bcd60e51b815260040161047d9061101a565b6005546001600160a01b0383166104d457506006545b6001600160a01b03808416600090815260026020818152604080842094871684529390529190204291810191909155805461050f9083610d86565b8155600181018290556001600160a01b038416610562576040516001600160a01b0384169083156108fc029084906000818181858888f1935050505015801561055c573d6000803e3d6000fd5b506105e4565b60405163a9059cbb60e01b81526001600160a01b0385169063a9059cbb906105909086908690600401610ff6565b602060405180830381600087803b1580156105aa57600080fd5b505af11580156105be573d6000803e3d6000fd5b505050506040513d601f19601f820116820180604052508101906105e29190610fa1565b505b826001600160a01b03167f987d620f307ff6b94d58743cb7a7509f24071586a77759b77c2d4e29f75a2f9a834260405161061f9291906110a3565b60405180910390a25050600180555050565b610639610d82565b6001600160a01b031661064a610bde565b6001600160a01b031614610693576040805162461bcd60e51b81526020600482018190526024820152600080516020611106833981519152604482015290519081900360640190fd5b60005b82518110156106eb576001600360008584815181106106b157fe5b6020908102919091018101516001600160a01b03168252810191909152604001600020805460ff1916911515919091179055600101610696565b5060005b81518110156107445760006003600084848151811061070a57fe5b6020908102919091018101516001600160a01b03168252810191909152604001600020805460ff19169115159190911790556001016106ef565b505050565b60036020526000908152604090205460ff1681565b6000610768610d82565b6001600160a01b0316610779610bde565b6001600160a01b0316146107c2576040805162461bcd60e51b81526020600482018190526024820152600080516020611106833981519152604482015290519081900360640190fd5b600054600160a01b900460ff166107d857600080fd5b6000805460ff60a01b191681556040517f7805862f689e2f13df9f062ff482ad3ad112aca9e0847911ed832e158c525b339190a150600190565b61081a610d82565b6001600160a01b031661082b610bde565b6001600160a01b031614610874576040805162461bcd60e51b81526020600482018190526024820152600080516020611106833981519152604482015290519081900360640190fd5b6001600160a01b0383166108be576040516001600160a01b0382169083156108fc029084906000818181858888f193505050501580156108b8573d6000803e3d6000fd5b50610744565b60405163a9059cbb60e01b81526001600160a01b0384169063a9059cbb906108ec9084908690600401610ff6565b602060405180830381600087803b15801561090657600080fd5b505af115801561091a573d6000803e3d6000fd5b505050506040513d601f19601f8201168201806040525081019061093e9190610fa1565b50505050565b61094c610d82565b6001600160a01b031661095d610bde565b6001600160a01b0316146109a6576040805162461bcd60e51b81526020600482018190526024820152600080516020611106833981519152604482015290519081900360640190fd5b60005b82518110156109fe576001600460008584815181106109c457fe5b6020908102919091018101516001600160a01b03168252810191909152604001600020805460ff19169115159190911790556001016109a9565b5060005b815181101561074457600060046000848481518110610a1d57fe5b6020908102919091018101516001600160a01b03168252810191909152604001600020805460ff1916911515919091179055600101610a02565b600054600160a01b900460ff1681565b60065481565b610a75610d82565b6001600160a01b0316610a86610bde565b6001600160a01b031614610acf576040805162461bcd60e51b81526020600482018190526024820152600080516020611106833981519152604482015290519081900360640190fd5b600080546040516001600160a01b03909116907f8be0079c531659141344cd1fd0a4f28419497f9722a3daafe3b4186f6b6457e0908390a3600080546001600160a01b0319169055565b4790565b60055481565b6000610b2d610d82565b6001600160a01b0316610b3e610bde565b6001600160a01b031614610b87576040805162461bcd60e51b81526020600482018190526024820152600080516020611106833981519152604482015290519081900360640190fd5b600054600160a01b900460ff1615610b9e57600080fd5b6000805460ff60a01b1916600160a01b1781556040517f6985a02210a168e66602d3235cb6db0e70f92b3ba4d376a33c0f3d9434bff6259190a150600190565b6000546001600160a01b031690565b6002602081815260009384526040808520909152918352912080546001820154919092015483565b60046020526000908152604090205460ff1681565b610c32610de7565b506001600160a01b0391821660009081526002602081815260408084209490951683529283529083902083516060810185528154815260018201549381019390935201549181019190915290565b610c88610d82565b6001600160a01b0316610c99610bde565b6001600160a01b031614610ce2576040805162461bcd60e51b81526020600482018190526024820152600080516020611106833981519152604482015290519081900360640190fd5b6001600160a01b038116610d275760405162461bcd60e51b81526004018080602001828103825260268152602001806110e06026913960400191505060405180910390fd5b600080546040516001600160a01b03808516939216917f8be0079c531659141344cd1fd0a4f28419497f9722a3daafe3b4186f6b6457e091a3600080546001600160a01b0319166001600160a01b0392909216919091179055565b3390565b600082820183811015610de0576040805162461bcd60e51b815260206004820152601b60248201527f536166654d6174683a206164646974696f6e206f766572666c6f770000000000604482015290519081900360640190fd5b9392505050565b60405180606001604052806000815260200160008152602001600081525090565b8035610e13816110c7565b919050565b600082601f830112610e28578081fd5b8135602067ffffffffffffffff80831115610e3f57fe5b81830260405183828201018181108482111715610e5857fe5b60405284815283810192508684018288018501891015610e76578687fd5b8692505b85831015610e9f57610e8b81610e08565b845292840192600192909201918401610e7a565b50979650505050505050565b600060208284031215610ebc578081fd5b8135610de0816110c7565b60008060408385031215610ed9578081fd5b8235610ee4816110c7565b91506020830135610ef4816110c7565b809150509250929050565b600080600060608486031215610f13578081fd5b8335610f1e816110c7565b9250602084013591506040840135610f35816110c7565b809150509250925092565b60008060408385031215610f52578182fd5b823567ffffffffffffffff80821115610f69578384fd5b610f7586838701610e18565b93506020850135915080821115610f8a578283fd5b50610f9785828601610e18565b9150509250929050565b600060208284031215610fb2578081fd5b81518015158114610de0578182fd5b60008060408385031215610fd3578182fd5b50508035926020909101359150565b6001600160a01b0391909116815260200190565b6001600160a01b03929092168252602082015260400190565b901515815260200190565b6020808252601690820152756e6f742020737570706f72746564206164647265737360501b604082015260600190565b6020808252601590820152743932b8bab4b9329029b0b3329020b2323932b9b99760591b604082015260600190565b81518152602080830151908201526040918201519181019190915260600190565b90815260200190565b918252602082015260400190565b9283526020830191909152604082015260600190565b6001600160a01b03811681146110dc57600080fd5b5056fe4f776e61626c653a206e6577206f776e657220697320746865207a65726f20616464726573734f776e61626c653a2063616c6c6572206973206e6f7420746865206f776e6572a2646970667358221220e28a444b17123294041616ccc89088a092bcd2ec52b73b289fd5d5c10cdef2b364736f6c63430007060033",
					"opcodes": "PUSH1 0x80 PUSH1 0x40 MSTORE PUSH1 0x0 DUP1 SLOAD PUSH1 0xFF PUSH1 0xA0 SHL NOT AND SWAP1 SSTORE PUSH9 0x3635C9ADC5DEA00000 PUSH1 0x5 SSTORE PUSH8 0xDE0B6B3A7640000 PUSH1 0x6 SSTORE CALLVALUE DUP1 ISZERO PUSH2 0x36 JUMPI PUSH1 0x0 DUP1 REVERT JUMPDEST POP PUSH1 0x0 PUSH2 0x41 PUSH2 0x94 JUMP JUMPDEST PUSH1 0x0 DUP1 SLOAD PUSH1 0x1 PUSH1 0x1 PUSH1 0xA0 SHL SUB NOT AND PUSH1 0x1 PUSH1 0x1 PUSH1 0xA0 SHL SUB DUP4 AND SWAP1 DUP2 OR DUP3 SSTORE PUSH1 0x40 MLOAD SWAP3 SWAP4 POP SWAP2 PUSH32 0x8BE0079C531659141344CD1FD0A4F28419497F9722A3DAAFE3B4186F6B6457E0 SWAP1 DUP3 SWAP1 LOG3 POP PUSH1 0x1 DUP1 SSTORE PUSH2 0x98 JUMP JUMPDEST CALLER SWAP1 JUMP JUMPDEST PUSH2 0x115B DUP1 PUSH2 0xA7 PUSH1 0x0 CODECOPY PUSH1 0x0 RETURN INVALID PUSH1 0x80 PUSH1 0x40 MSTORE PUSH1 0x4 CALLDATASIZE LT PUSH2 0x109 JUMPI PUSH1 0x0 CALLDATALOAD PUSH1 0xE0 SHR DUP1 PUSH4 0x715018A6 GT PUSH2 0x95 JUMPI DUP1 PUSH4 0x8DA5CB5B GT PUSH2 0x64 JUMPI DUP1 PUSH4 0x8DA5CB5B EQ PUSH2 0x2AF JUMPI DUP1 PUSH4 0xC9B5279C EQ PUSH2 0x2D1 JUMPI DUP1 PUSH4 0xE4860339 EQ PUSH2 0x300 JUMPI DUP1 PUSH4 0xF2801FE7 EQ PUSH2 0x320 JUMPI DUP1 PUSH4 0xF2FDE38B EQ PUSH2 0x34D JUMPI PUSH2 0x109 JUMP JUMPDEST DUP1 PUSH4 0x715018A6 EQ PUSH2 0x25B JUMPI DUP1 PUSH4 0x722713F7 EQ PUSH2 0x270 JUMPI DUP1 PUSH4 0x8174E972 EQ PUSH2 0x285 JUMPI DUP1 PUSH4 0x8456CB59 EQ PUSH2 0x29A JUMPI PUSH2 0x109 JUMP JUMPDEST DUP1 PUSH4 0x3F4BA83A GT PUSH2 0xDC JUMPI DUP1 PUSH4 0x3F4BA83A EQ PUSH2 0x1CF JUMPI DUP1 PUSH4 0x4E6F5B60 EQ PUSH2 0x1E4 JUMPI DUP1 PUSH4 0x51B32E8B EQ PUSH2 0x204 JUMPI DUP1 PUSH4 0x5C975ABB EQ PUSH2 0x224 JUMPI DUP1 PUSH4 0x602F86F8 EQ PUSH2 0x239 JUMPI PUSH2 0x109 JUMP JUMPDEST DUP1 PUSH4 0x207ADD91 EQ PUSH2 0x144 JUMPI DUP1 PUSH4 0x21C0B342 EQ PUSH2 0x166 JUMPI DUP1 PUSH4 0x2ADB5F4E EQ PUSH2 0x179 JUMPI DUP1 PUSH4 0x372C12B1 EQ PUSH2 0x199 JUMPI JUMPDEST PUSH32 0x41D0978DB23C08AE0F5D1E376087F27D92B1A65D7CF5A613EC7D8A8B977E4ED0 CALLVALUE TIMESTAMP PUSH1 0x40 MLOAD PUSH2 0x13A SWAP3 SWAP2 SWAP1 PUSH2 0x10A3 JUMP JUMPDEST PUSH1 0x40 MLOAD DUP1 SWAP2 SUB SWAP1 LOG1 STOP JUMPDEST CALLVALUE DUP1 ISZERO PUSH2 0x150 JUMPI PUSH1 0x0 DUP1 REVERT JUMPDEST POP PUSH2 0x164 PUSH2 0x15F CALLDATASIZE PUSH1 0x4 PUSH2 0xFC1 JUMP JUMPDEST PUSH2 0x36D JUMP JUMPDEST STOP JUMPDEST PUSH2 0x164 PUSH2 0x174 CALLDATASIZE PUSH1 0x4 PUSH2 0xEC7 JUMP JUMPDEST PUSH2 0x3DA JUMP JUMPDEST CALLVALUE DUP1 ISZERO PUSH2 0x185 JUMPI PUSH1 0x0 DUP1 REVERT JUMPDEST POP PUSH2 0x164 PUSH2 0x194 CALLDATASIZE PUSH1 0x4 PUSH2 0xF40 JUMP JUMPDEST PUSH2 0x631 JUMP JUMPDEST CALLVALUE DUP1 ISZERO PUSH2 0x1A5 JUMPI PUSH1 0x0 DUP1 REVERT JUMPDEST POP PUSH2 0x1B9 PUSH2 0x1B4 CALLDATASIZE PUSH1 0x4 PUSH2 0xEAB JUMP JUMPDEST PUSH2 0x749 JUMP JUMPDEST PUSH1 0x40 MLOAD PUSH2 0x1C6 SWAP2 SWAP1 PUSH2 0x100F JUMP JUMPDEST PUSH1 0x40 MLOAD DUP1 SWAP2 SUB SWAP1 RETURN JUMPDEST CALLVALUE DUP1 ISZERO PUSH2 0x1DB JUMPI PUSH1 0x0 DUP1 REVERT JUMPDEST POP PUSH2 0x1B9 PUSH2 0x75E JUMP JUMPDEST CALLVALUE DUP1 ISZERO PUSH2 0x1F0 JUMPI PUSH1 0x0 DUP1 REVERT JUMPDEST POP PUSH2 0x164 PUSH2 0x1FF CALLDATASIZE PUSH1 0x4 PUSH2 0xEFF JUMP JUMPDEST PUSH2 0x812 JUMP JUMPDEST CALLVALUE DUP1 ISZERO PUSH2 0x210 JUMPI PUSH1 0x0 DUP1 REVERT JUMPDEST POP PUSH2 0x164 PUSH2 0x21F CALLDATASIZE PUSH1 0x4 PUSH2 0xF40 JUMP JUMPDEST PUSH2 0x944 JUMP JUMPDEST CALLVALUE DUP1 ISZERO PUSH2 0x230 JUMPI PUSH1 0x0 DUP1 REVERT JUMPDEST POP PUSH2 0x1B9 PUSH2 0xA57 JUMP JUMPDEST CALLVALUE DUP1 ISZERO PUSH2 0x245 JUMPI PUSH1 0x0 DUP1 REVERT JUMPDEST POP PUSH2 0x24E PUSH2 0xA67 JUMP JUMPDEST PUSH1 0x40 MLOAD PUSH2 0x1C6 SWAP2 SWAP1 PUSH2 0x109A JUMP JUMPDEST CALLVALUE DUP1 ISZERO PUSH2 0x267 JUMPI PUSH1 0x0 DUP1 REVERT JUMPDEST POP PUSH2 0x164 PUSH2 0xA6D JUMP JUMPDEST CALLVALUE DUP1 ISZERO PUSH2 0x27C JUMPI PUSH1 0x0 DUP1 REVERT JUMPDEST POP PUSH2 0x24E PUSH2 0xB19 JUMP JUMPDEST CALLVALUE DUP1 ISZERO PUSH2 0x291 JUMPI PUSH1 0x0 DUP1 REVERT JUMPDEST POP PUSH2 0x24E PUSH2 0xB1D JUMP JUMPDEST CALLVALUE DUP1 ISZERO PUSH2 0x2A6 JUMPI PUSH1 0x0 DUP1 REVERT JUMPDEST POP PUSH2 0x1B9 PUSH2 0xB23 JUMP JUMPDEST CALLVALUE DUP1 ISZERO PUSH2 0x2BB JUMPI PUSH1 0x0 DUP1 REVERT JUMPDEST POP PUSH2 0x2C4 PUSH2 0xBDE JUMP JUMPDEST PUSH1 0x40 MLOAD PUSH2 0x1C6 SWAP2 SWAP1 PUSH2 0xFE2 JUMP JUMPDEST CALLVALUE DUP1 ISZERO PUSH2 0x2DD JUMPI PUSH1 0x0 DUP1 REVERT JUMPDEST POP PUSH2 0x2F1 PUSH2 0x2EC CALLDATASIZE PUSH1 0x4 PUSH2 0xEC7 JUMP JUMPDEST PUSH2 0xBED JUMP JUMPDEST PUSH1 0x40 MLOAD PUSH2 0x1C6 SWAP4 SWAP3 SWAP2 SWAP1 PUSH2 0x10B1 JUMP JUMPDEST CALLVALUE DUP1 ISZERO PUSH2 0x30C JUMPI PUSH1 0x0 DUP1 REVERT JUMPDEST POP PUSH2 0x1B9 PUSH2 0x31B CALLDATASIZE PUSH1 0x4 PUSH2 0xEAB JUMP JUMPDEST PUSH2 0xC15 JUMP JUMPDEST CALLVALUE DUP1 ISZERO PUSH2 0x32C JUMPI PUSH1 0x0 DUP1 REVERT JUMPDEST POP PUSH2 0x340 PUSH2 0x33B CALLDATASIZE PUSH1 0x4 PUSH2 0xEC7 JUMP JUMPDEST PUSH2 0xC2A JUMP JUMPDEST PUSH1 0x40 MLOAD PUSH2 0x1C6 SWAP2 SWAP1 PUSH2 0x1079 JUMP JUMPDEST CALLVALUE DUP1 ISZERO PUSH2 0x359 JUMPI PUSH1 0x0 DUP1 REVERT JUMPDEST POP PUSH2 0x164 PUSH2 0x368 CALLDATASIZE PUSH1 0x4 PUSH2 0xEAB JUMP JUMPDEST PUSH2 0xC80 JUMP JUMPDEST PUSH2 0x375 PUSH2 0xD82 JUMP JUMPDEST PUSH1 0x1 PUSH1 0x1 PUSH1 0xA0 SHL SUB AND PUSH2 0x386 PUSH2 0xBDE JUMP JUMPDEST PUSH1 0x1 PUSH1 0x1 PUSH1 0xA0 SHL SUB AND EQ PUSH2 0x3CF JUMPI PUSH1 0x40 DUP1 MLOAD PUSH3 0x461BCD PUSH1 0xE5 SHL DUP2 MSTORE PUSH1 0x20 PUSH1 0x4 DUP3 ADD DUP2 SWAP1 MSTORE PUSH1 0x24 DUP3 ADD MSTORE PUSH1 0x0 DUP1 MLOAD PUSH1 0x20 PUSH2 0x1106 DUP4 CODECOPY DUP2 MLOAD SWAP2 MSTORE PUSH1 0x44 DUP3 ADD MSTORE SWAP1 MLOAD SWAP1 DUP2 SWAP1 SUB PUSH1 0x64 ADD SWAP1 REVERT JUMPDEST PUSH1 0x5 SWAP2 SWAP1 SWAP2 SSTORE PUSH1 0x6 SSTORE JUMP JUMPDEST PUSH1 0x2 PUSH1 0x1 SLOAD EQ ISZERO PUSH2 0x432 JUMPI PUSH1 0x40 DUP1 MLOAD PUSH3 0x461BCD PUSH1 0xE5 SHL DUP2 MSTORE PUSH1 0x20 PUSH1 0x4 DUP3 ADD MSTORE PUSH1 0x1F PUSH1 0x24 DUP3 ADD MSTORE PUSH32 0x5265656E7472616E637947756172643A207265656E7472616E742063616C6C00 PUSH1 0x44 DUP3 ADD MSTORE SWAP1 MLOAD SWAP1 DUP2 SWAP1 SUB PUSH1 0x64 ADD SWAP1 REVERT JUMPDEST PUSH1 0x2 PUSH1 0x1 SSTORE PUSH1 0x0 SLOAD PUSH1 0x1 PUSH1 0xA0 SHL SWAP1 DIV PUSH1 0xFF AND ISZERO PUSH2 0x44E JUMPI PUSH1 0x0 DUP1 REVERT JUMPDEST CALLER PUSH1 0x0 SWAP1 DUP2 MSTORE PUSH1 0x3 PUSH1 0x20 MSTORE PUSH1 0x40 SWAP1 KECCAK256 SLOAD PUSH1 0xFF AND PUSH2 0x486 JUMPI PUSH1 0x40 MLOAD PUSH3 0x461BCD PUSH1 0xE5 SHL DUP2 MSTORE PUSH1 0x4 ADD PUSH2 0x47D SWAP1 PUSH2 0x104A JUMP JUMPDEST PUSH1 0x40 MLOAD DUP1 SWAP2 SUB SWAP1 REVERT JUMPDEST PUSH1 0x1 PUSH1 0x1 PUSH1 0xA0 SHL SUB DUP3 AND PUSH1 0x0 SWAP1 DUP2 MSTORE PUSH1 0x4 PUSH1 0x20 MSTORE PUSH1 0x40 SWAP1 KECCAK256 SLOAD PUSH1 0xFF AND PUSH2 0x4BE JUMPI PUSH1 0x40 MLOAD PUSH3 0x461BCD PUSH1 0xE5 SHL DUP2 MSTORE PUSH1 0x4 ADD PUSH2 0x47D SWAP1 PUSH2 0x101A JUMP JUMPDEST PUSH1 0x5 SLOAD PUSH1 0x1 PUSH1 0x1 PUSH1 0xA0 SHL SUB DUP4 AND PUSH2 0x4D4 JUMPI POP PUSH1 0x6 SLOAD JUMPDEST PUSH1 0x1 PUSH1 0x1 PUSH1 0xA0 SHL SUB DUP1 DUP5 AND PUSH1 0x0 SWAP1 DUP2 MSTORE PUSH1 0x2 PUSH1 0x20 DUP2 DUP2 MSTORE PUSH1 0x40 DUP1 DUP5 KECCAK256 SWAP5 DUP8 AND DUP5 MSTORE SWAP4 SWAP1 MSTORE SWAP2 SWAP1 KECCAK256 TIMESTAMP SWAP2 DUP2 ADD SWAP2 SWAP1 SWAP2 SSTORE DUP1 SLOAD PUSH2 0x50F SWAP1 DUP4 PUSH2 0xD86 JUMP JUMPDEST DUP2 SSTORE PUSH1 0x1 DUP2 ADD DUP3 SWAP1 SSTORE PUSH1 0x1 PUSH1 0x1 PUSH1 0xA0 SHL SUB DUP5 AND PUSH2 0x562 JUMPI PUSH1 0x40 MLOAD PUSH1 0x1 PUSH1 0x1 PUSH1 0xA0 SHL SUB DUP5 AND SWAP1 DUP4 ISZERO PUSH2 0x8FC MUL SWAP1 DUP5 SWAP1 PUSH1 0x0 DUP2 DUP2 DUP2 DUP6 DUP9 DUP9 CALL SWAP4 POP POP POP POP ISZERO DUP1 ISZERO PUSH2 0x55C JUMPI RETURNDATASIZE PUSH1 0x0 DUP1 RETURNDATACOPY RETURNDATASIZE PUSH1 0x0 REVERT JUMPDEST POP PUSH2 0x5E4 JUMP JUMPDEST PUSH1 0x40 MLOAD PUSH4 0xA9059CBB PUSH1 0xE0 SHL DUP2 MSTORE PUSH1 0x1 PUSH1 0x1 PUSH1 0xA0 SHL SUB DUP6 AND SWAP1 PUSH4 0xA9059CBB SWAP1 PUSH2 0x590 SWAP1 DUP7 SWAP1 DUP7 SWAP1 PUSH1 0x4 ADD PUSH2 0xFF6 JUMP JUMPDEST PUSH1 0x20 PUSH1 0x40 MLOAD DUP1 DUP4 SUB DUP2 PUSH1 0x0 DUP8 DUP1 EXTCODESIZE ISZERO DUP1 ISZERO PUSH2 0x5AA JUMPI PUSH1 0x0 DUP1 REVERT JUMPDEST POP GAS CALL ISZERO DUP1 ISZERO PUSH2 0x5BE JUMPI RETURNDATASIZE PUSH1 0x0 DUP1 RETURNDATACOPY RETURNDATASIZE PUSH1 0x0 REVERT JUMPDEST POP POP POP POP PUSH1 0x40 MLOAD RETURNDATASIZE PUSH1 0x1F NOT PUSH1 0x1F DUP3 ADD AND DUP3 ADD DUP1 PUSH1 0x40 MSTORE POP DUP2 ADD SWAP1 PUSH2 0x5E2 SWAP2 SWAP1 PUSH2 0xFA1 JUMP JUMPDEST POP JUMPDEST DUP3 PUSH1 0x1 PUSH1 0x1 PUSH1 0xA0 SHL SUB AND PUSH32 0x987D620F307FF6B94D58743CB7A7509F24071586A77759B77C2D4E29F75A2F9A DUP4 TIMESTAMP PUSH1 0x40 MLOAD PUSH2 0x61F SWAP3 SWAP2 SWAP1 PUSH2 0x10A3 JUMP JUMPDEST PUSH1 0x40 MLOAD DUP1 SWAP2 SUB SWAP1 LOG2 POP POP PUSH1 0x1 DUP1 SSTORE POP POP JUMP JUMPDEST PUSH2 0x639 PUSH2 0xD82 JUMP JUMPDEST PUSH1 0x1 PUSH1 0x1 PUSH1 0xA0 SHL SUB AND PUSH2 0x64A PUSH2 0xBDE JUMP JUMPDEST PUSH1 0x1 PUSH1 0x1 PUSH1 0xA0 SHL SUB AND EQ PUSH2 0x693 JUMPI PUSH1 0x40 DUP1 MLOAD PUSH3 0x461BCD PUSH1 0xE5 SHL DUP2 MSTORE PUSH1 0x20 PUSH1 0x4 DUP3 ADD DUP2 SWAP1 MSTORE PUSH1 0x24 DUP3 ADD MSTORE PUSH1 0x0 DUP1 MLOAD PUSH1 0x20 PUSH2 0x1106 DUP4 CODECOPY DUP2 MLOAD SWAP2 MSTORE PUSH1 0x44 DUP3 ADD MSTORE SWAP1 MLOAD SWAP1 DUP2 SWAP1 SUB PUSH1 0x64 ADD SWAP1 REVERT JUMPDEST PUSH1 0x0 JUMPDEST DUP3 MLOAD DUP2 LT ISZERO PUSH2 0x6EB JUMPI PUSH1 0x1 PUSH1 0x3 PUSH1 0x0 DUP6 DUP5 DUP2 MLOAD DUP2 LT PUSH2 0x6B1 JUMPI INVALID JUMPDEST PUSH1 0x20 SWAP1 DUP2 MUL SWAP2 SWAP1 SWAP2 ADD DUP2 ADD MLOAD PUSH1 0x1 PUSH1 0x1 PUSH1 0xA0 SHL SUB AND DUP3 MSTORE DUP2 ADD SWAP2 SWAP1 SWAP2 MSTORE PUSH1 0x40 ADD PUSH1 0x0 KECCAK256 DUP1 SLOAD PUSH1 0xFF NOT AND SWAP2 ISZERO ISZERO SWAP2 SWAP1 SWAP2 OR SWAP1 SSTORE PUSH1 0x1 ADD PUSH2 0x696 JUMP JUMPDEST POP PUSH1 0x0 JUMPDEST DUP2 MLOAD DUP2 LT ISZERO PUSH2 0x744 JUMPI PUSH1 0x0 PUSH1 0x3 PUSH1 0x0 DUP5 DUP5 DUP2 MLOAD DUP2 LT PUSH2 0x70A JUMPI INVALID JUMPDEST PUSH1 0x20 SWAP1 DUP2 MUL SWAP2 SWAP1 SWAP2 ADD DUP2 ADD MLOAD PUSH1 0x1 PUSH1 0x1 PUSH1 0xA0 SHL SUB AND DUP3 MSTORE DUP2 ADD SWAP2 SWAP1 SWAP2 MSTORE PUSH1 0x40 ADD PUSH1 0x0 KECCAK256 DUP1 SLOAD PUSH1 0xFF NOT AND SWAP2 ISZERO ISZERO SWAP2 SWAP1 SWAP2 OR SWAP1 SSTORE PUSH1 0x1 ADD PUSH2 0x6EF JUMP JUMPDEST POP POP POP JUMP JUMPDEST PUSH1 0x3 PUSH1 0x20 MSTORE PUSH1 0x0 SWAP1 DUP2 MSTORE PUSH1 0x40 SWAP1 KECCAK256 SLOAD PUSH1 0xFF AND DUP2 JUMP JUMPDEST PUSH1 0x0 PUSH2 0x768 PUSH2 0xD82 JUMP JUMPDEST PUSH1 0x1 PUSH1 0x1 PUSH1 0xA0 SHL SUB AND PUSH2 0x779 PUSH2 0xBDE JUMP JUMPDEST PUSH1 0x1 PUSH1 0x1 PUSH1 0xA0 SHL SUB AND EQ PUSH2 0x7C2 JUMPI PUSH1 0x40 DUP1 MLOAD PUSH3 0x461BCD PUSH1 0xE5 SHL DUP2 MSTORE PUSH1 0x20 PUSH1 0x4 DUP3 ADD DUP2 SWAP1 MSTORE PUSH1 0x24 DUP3 ADD MSTORE PUSH1 0x0 DUP1 MLOAD PUSH1 0x20 PUSH2 0x1106 DUP4 CODECOPY DUP2 MLOAD SWAP2 MSTORE PUSH1 0x44 DUP3 ADD MSTORE SWAP1 MLOAD SWAP1 DUP2 SWAP1 SUB PUSH1 0x64 ADD SWAP1 REVERT JUMPDEST PUSH1 0x0 SLOAD PUSH1 0x1 PUSH1 0xA0 SHL SWAP1 DIV PUSH1 0xFF AND PUSH2 0x7D8 JUMPI PUSH1 0x0 DUP1 REVERT JUMPDEST PUSH1 0x0 DUP1 SLOAD PUSH1 0xFF PUSH1 0xA0 SHL NOT AND DUP2 SSTORE PUSH1 0x40 MLOAD PUSH32 0x7805862F689E2F13DF9F062FF482AD3AD112ACA9E0847911ED832E158C525B33 SWAP2 SWAP1 LOG1 POP PUSH1 0x1 SWAP1 JUMP JUMPDEST PUSH2 0x81A PUSH2 0xD82 JUMP JUMPDEST PUSH1 0x1 PUSH1 0x1 PUSH1 0xA0 SHL SUB AND PUSH2 0x82B PUSH2 0xBDE JUMP JUMPDEST PUSH1 0x1 PUSH1 0x1 PUSH1 0xA0 SHL SUB AND EQ PUSH2 0x874 JUMPI PUSH1 0x40 DUP1 MLOAD PUSH3 0x461BCD PUSH1 0xE5 SHL DUP2 MSTORE PUSH1 0x20 PUSH1 0x4 DUP3 ADD DUP2 SWAP1 MSTORE PUSH1 0x24 DUP3 ADD MSTORE PUSH1 0x0 DUP1 MLOAD PUSH1 0x20 PUSH2 0x1106 DUP4 CODECOPY DUP2 MLOAD SWAP2 MSTORE PUSH1 0x44 DUP3 ADD MSTORE SWAP1 MLOAD SWAP1 DUP2 SWAP1 SUB PUSH1 0x64 ADD SWAP1 REVERT JUMPDEST PUSH1 0x1 PUSH1 0x1 PUSH1 0xA0 SHL SUB DUP4 AND PUSH2 0x8BE JUMPI PUSH1 0x40 MLOAD PUSH1 0x1 PUSH1 0x1 PUSH1 0xA0 SHL SUB DUP3 AND SWAP1 DUP4 ISZERO PUSH2 0x8FC MUL SWAP1 DUP5 SWAP1 PUSH1 0x0 DUP2 DUP2 DUP2 DUP6 DUP9 DUP9 CALL SWAP4 POP POP POP POP ISZERO DUP1 ISZERO PUSH2 0x8B8 JUMPI RETURNDATASIZE PUSH1 0x0 DUP1 RETURNDATACOPY RETURNDATASIZE PUSH1 0x0 REVERT JUMPDEST POP PUSH2 0x744 JUMP JUMPDEST PUSH1 0x40 MLOAD PUSH4 0xA9059CBB PUSH1 0xE0 SHL DUP2 MSTORE PUSH1 0x1 PUSH1 0x1 PUSH1 0xA0 SHL SUB DUP5 AND SWAP1 PUSH4 0xA9059CBB SWAP1 PUSH2 0x8EC SWAP1 DUP5 SWAP1 DUP7 SWAP1 PUSH1 0x4 ADD PUSH2 0xFF6 JUMP JUMPDEST PUSH1 0x20 PUSH1 0x40 MLOAD DUP1 DUP4 SUB DUP2 PUSH1 0x0 DUP8 DUP1 EXTCODESIZE ISZERO DUP1 ISZERO PUSH2 0x906 JUMPI PUSH1 0x0 DUP1 REVERT JUMPDEST POP GAS CALL ISZERO DUP1 ISZERO PUSH2 0x91A JUMPI RETURNDATASIZE PUSH1 0x0 DUP1 RETURNDATACOPY RETURNDATASIZE PUSH1 0x0 REVERT JUMPDEST POP POP POP POP PUSH1 0x40 MLOAD RETURNDATASIZE PUSH1 0x1F NOT PUSH1 0x1F DUP3 ADD AND DUP3 ADD DUP1 PUSH1 0x40 MSTORE POP DUP2 ADD SWAP1 PUSH2 0x93E SWAP2 SWAP1 PUSH2 0xFA1 JUMP JUMPDEST POP POP POP POP JUMP JUMPDEST PUSH2 0x94C PUSH2 0xD82 JUMP JUMPDEST PUSH1 0x1 PUSH1 0x1 PUSH1 0xA0 SHL SUB AND PUSH2 0x95D PUSH2 0xBDE JUMP JUMPDEST PUSH1 0x1 PUSH1 0x1 PUSH1 0xA0 SHL SUB AND EQ PUSH2 0x9A6 JUMPI PUSH1 0x40 DUP1 MLOAD PUSH3 0x461BCD PUSH1 0xE5 SHL DUP2 MSTORE PUSH1 0x20 PUSH1 0x4 DUP3 ADD DUP2 SWAP1 MSTORE PUSH1 0x24 DUP3 ADD MSTORE PUSH1 0x0 DUP1 MLOAD PUSH1 0x20 PUSH2 0x1106 DUP4 CODECOPY DUP2 MLOAD SWAP2 MSTORE PUSH1 0x44 DUP3 ADD MSTORE SWAP1 MLOAD SWAP1 DUP2 SWAP1 SUB PUSH1 0x64 ADD SWAP1 REVERT JUMPDEST PUSH1 0x0 JUMPDEST DUP3 MLOAD DUP2 LT ISZERO PUSH2 0x9FE JUMPI PUSH1 0x1 PUSH1 0x4 PUSH1 0x0 DUP6 DUP5 DUP2 MLOAD DUP2 LT PUSH2 0x9C4 JUMPI INVALID JUMPDEST PUSH1 0x20 SWAP1 DUP2 MUL SWAP2 SWAP1 SWAP2 ADD DUP2 ADD MLOAD PUSH1 0x1 PUSH1 0x1 PUSH1 0xA0 SHL SUB AND DUP3 MSTORE DUP2 ADD SWAP2 SWAP1 SWAP2 MSTORE PUSH1 0x40 ADD PUSH1 0x0 KECCAK256 DUP1 SLOAD PUSH1 0xFF NOT AND SWAP2 ISZERO ISZERO SWAP2 SWAP1 SWAP2 OR SWAP1 SSTORE PUSH1 0x1 ADD PUSH2 0x9A9 JUMP JUMPDEST POP PUSH1 0x0 JUMPDEST DUP2 MLOAD DUP2 LT ISZERO PUSH2 0x744 JUMPI PUSH1 0x0 PUSH1 0x4 PUSH1 0x0 DUP5 DUP5 DUP2 MLOAD DUP2 LT PUSH2 0xA1D JUMPI INVALID JUMPDEST PUSH1 0x20 SWAP1 DUP2 MUL SWAP2 SWAP1 SWAP2 ADD DUP2 ADD MLOAD PUSH1 0x1 PUSH1 0x1 PUSH1 0xA0 SHL SUB AND DUP3 MSTORE DUP2 ADD SWAP2 SWAP1 SWAP2 MSTORE PUSH1 0x40 ADD PUSH1 0x0 KECCAK256 DUP1 SLOAD PUSH1 0xFF NOT AND SWAP2 ISZERO ISZERO SWAP2 SWAP1 SWAP2 OR SWAP1 SSTORE PUSH1 0x1 ADD PUSH2 0xA02 JUMP JUMPDEST PUSH1 0x0 SLOAD PUSH1 0x1 PUSH1 0xA0 SHL SWAP1 DIV PUSH1 0xFF AND DUP2 JUMP JUMPDEST PUSH1 0x6 SLOAD DUP2 JUMP JUMPDEST PUSH2 0xA75 PUSH2 0xD82 JUMP JUMPDEST PUSH1 0x1 PUSH1 0x1 PUSH1 0xA0 SHL SUB AND PUSH2 0xA86 PUSH2 0xBDE JUMP JUMPDEST PUSH1 0x1 PUSH1 0x1 PUSH1 0xA0 SHL SUB AND EQ PUSH2 0xACF JUMPI PUSH1 0x40 DUP1 MLOAD PUSH3 0x461BCD PUSH1 0xE5 SHL DUP2 MSTORE PUSH1 0x20 PUSH1 0x4 DUP3 ADD DUP2 SWAP1 MSTORE PUSH1 0x24 DUP3 ADD MSTORE PUSH1 0x0 DUP1 MLOAD PUSH1 0x20 PUSH2 0x1106 DUP4 CODECOPY DUP2 MLOAD SWAP2 MSTORE PUSH1 0x44 DUP3 ADD MSTORE SWAP1 MLOAD SWAP1 DUP2 SWAP1 SUB PUSH1 0x64 ADD SWAP1 REVERT JUMPDEST PUSH1 0x0 DUP1 SLOAD PUSH1 0x40 MLOAD PUSH1 0x1 PUSH1 0x1 PUSH1 0xA0 SHL SUB SWAP1 SWAP2 AND SWAP1 PUSH32 0x8BE0079C531659141344CD1FD0A4F28419497F9722A3DAAFE3B4186F6B6457E0 SWAP1 DUP4 SWAP1 LOG3 PUSH1 0x0 DUP1 SLOAD PUSH1 0x1 PUSH1 0x1 PUSH1 0xA0 SHL SUB NOT AND SWAP1 SSTORE JUMP JUMPDEST SELFBALANCE SWAP1 JUMP JUMPDEST PUSH1 0x5 SLOAD DUP2 JUMP JUMPDEST PUSH1 0x0 PUSH2 0xB2D PUSH2 0xD82 JUMP JUMPDEST PUSH1 0x1 PUSH1 0x1 PUSH1 0xA0 SHL SUB AND PUSH2 0xB3E PUSH2 0xBDE JUMP JUMPDEST PUSH1 0x1 PUSH1 0x1 PUSH1 0xA0 SHL SUB AND EQ PUSH2 0xB87 JUMPI PUSH1 0x40 DUP1 MLOAD PUSH3 0x461BCD PUSH1 0xE5 SHL DUP2 MSTORE PUSH1 0x20 PUSH1 0x4 DUP3 ADD DUP2 SWAP1 MSTORE PUSH1 0x24 DUP3 ADD MSTORE PUSH1 0x0 DUP1 MLOAD PUSH1 0x20 PUSH2 0x1106 DUP4 CODECOPY DUP2 MLOAD SWAP2 MSTORE PUSH1 0x44 DUP3 ADD MSTORE SWAP1 MLOAD SWAP1 DUP2 SWAP1 SUB PUSH1 0x64 ADD SWAP1 REVERT JUMPDEST PUSH1 0x0 SLOAD PUSH1 0x1 PUSH1 0xA0 SHL SWAP1 DIV PUSH1 0xFF AND ISZERO PUSH2 0xB9E JUMPI PUSH1 0x0 DUP1 REVERT JUMPDEST PUSH1 0x0 DUP1 SLOAD PUSH1 0xFF PUSH1 0xA0 SHL NOT AND PUSH1 0x1 PUSH1 0xA0 SHL OR DUP2 SSTORE PUSH1 0x40 MLOAD PUSH32 0x6985A02210A168E66602D3235CB6DB0E70F92B3BA4D376A33C0F3D9434BFF625 SWAP2 SWAP1 LOG1 POP PUSH1 0x1 SWAP1 JUMP JUMPDEST PUSH1 0x0 SLOAD PUSH1 0x1 PUSH1 0x1 PUSH1 0xA0 SHL SUB AND SWAP1 JUMP JUMPDEST PUSH1 0x2 PUSH1 0x20 DUP2 DUP2 MSTORE PUSH1 0x0 SWAP4 DUP5 MSTORE PUSH1 0x40 DUP1 DUP6 KECCAK256 SWAP1 SWAP2 MSTORE SWAP2 DUP4 MSTORE SWAP2 KECCAK256 DUP1 SLOAD PUSH1 0x1 DUP3 ADD SLOAD SWAP2 SWAP1 SWAP3 ADD SLOAD DUP4 JUMP JUMPDEST PUSH1 0x4 PUSH1 0x20 MSTORE PUSH1 0x0 SWAP1 DUP2 MSTORE PUSH1 0x40 SWAP1 KECCAK256 SLOAD PUSH1 0xFF AND DUP2 JUMP JUMPDEST PUSH2 0xC32 PUSH2 0xDE7 JUMP JUMPDEST POP PUSH1 0x1 PUSH1 0x1 PUSH1 0xA0 SHL SUB SWAP2 DUP3 AND PUSH1 0x0 SWAP1 DUP2 MSTORE PUSH1 0x2 PUSH1 0x20 DUP2 DUP2 MSTORE PUSH1 0x40 DUP1 DUP5 KECCAK256 SWAP5 SWAP1 SWAP6 AND DUP4 MSTORE SWAP3 DUP4 MSTORE SWAP1 DUP4 SWAP1 KECCAK256 DUP4 MLOAD PUSH1 0x60 DUP2 ADD DUP6 MSTORE DUP2 SLOAD DUP2 MSTORE PUSH1 0x1 DUP3 ADD SLOAD SWAP4 DUP2 ADD SWAP4 SWAP1 SWAP4 MSTORE ADD SLOAD SWAP2 DUP2 ADD SWAP2 SWAP1 SWAP2 MSTORE SWAP1 JUMP JUMPDEST PUSH2 0xC88 PUSH2 0xD82 JUMP JUMPDEST PUSH1 0x1 PUSH1 0x1 PUSH1 0xA0 SHL SUB AND PUSH2 0xC99 PUSH2 0xBDE JUMP JUMPDEST PUSH1 0x1 PUSH1 0x1 PUSH1 0xA0 SHL SUB AND EQ PUSH2 0xCE2 JUMPI PUSH1 0x40 DUP1 MLOAD PUSH3 0x461BCD PUSH1 0xE5 SHL DUP2 MSTORE PUSH1 0x20 PUSH1 0x4 DUP3 ADD DUP2 SWAP1 MSTORE PUSH1 0x24 DUP3 ADD MSTORE PUSH1 0x0 DUP1 MLOAD PUSH1 0x20 PUSH2 0x1106 DUP4 CODECOPY DUP2 MLOAD SWAP2 MSTORE PUSH1 0x44 DUP3 ADD MSTORE SWAP1 MLOAD SWAP1 DUP2 SWAP1 SUB PUSH1 0x64 ADD SWAP1 REVERT JUMPDEST PUSH1 0x1 PUSH1 0x1 PUSH1 0xA0 SHL SUB DUP2 AND PUSH2 0xD27 JUMPI PUSH1 0x40 MLOAD PUSH3 0x461BCD PUSH1 0xE5 SHL DUP2 MSTORE PUSH1 0x4 ADD DUP1 DUP1 PUSH1 0x20 ADD DUP3 DUP2 SUB DUP3 MSTORE PUSH1 0x26 DUP2 MSTORE PUSH1 0x20 ADD DUP1 PUSH2 0x10E0 PUSH1 0x26 SWAP2 CODECOPY PUSH1 0x40 ADD SWAP2 POP POP PUSH1 0x40 MLOAD DUP1 SWAP2 SUB SWAP1 REVERT JUMPDEST PUSH1 0x0 DUP1 SLOAD PUSH1 0x40 MLOAD PUSH1 0x1 PUSH1 0x1 PUSH1 0xA0 SHL SUB DUP1 DUP6 AND SWAP4 SWAP3 AND SWAP2 PUSH32 0x8BE0079C531659141344CD1FD0A4F28419497F9722A3DAAFE3B4186F6B6457E0 SWAP2 LOG3 PUSH1 0x0 DUP1 SLOAD PUSH1 0x1 PUSH1 0x1 PUSH1 0xA0 SHL SUB NOT AND PUSH1 0x1 PUSH1 0x1 PUSH1 0xA0 SHL SUB SWAP3 SWAP1 SWAP3 AND SWAP2 SWAP1 SWAP2 OR SWAP1 SSTORE JUMP JUMPDEST CALLER SWAP1 JUMP JUMPDEST PUSH1 0x0 DUP3 DUP3 ADD DUP4 DUP2 LT ISZERO PUSH2 0xDE0 JUMPI PUSH1 0x40 DUP1 MLOAD PUSH3 0x461BCD PUSH1 0xE5 SHL DUP2 MSTORE PUSH1 0x20 PUSH1 0x4 DUP3 ADD MSTORE PUSH1 0x1B PUSH1 0x24 DUP3 ADD MSTORE PUSH32 0x536166654D6174683A206164646974696F6E206F766572666C6F770000000000 PUSH1 0x44 DUP3 ADD MSTORE SWAP1 MLOAD SWAP1 DUP2 SWAP1 SUB PUSH1 0x64 ADD SWAP1 REVERT JUMPDEST SWAP4 SWAP3 POP POP POP JUMP JUMPDEST PUSH1 0x40 MLOAD DUP1 PUSH1 0x60 ADD PUSH1 0x40 MSTORE DUP1 PUSH1 0x0 DUP2 MSTORE PUSH1 0x20 ADD PUSH1 0x0 DUP2 MSTORE PUSH1 0x20 ADD PUSH1 0x0 DUP2 MSTORE POP SWAP1 JUMP JUMPDEST DUP1 CALLDATALOAD PUSH2 0xE13 DUP2 PUSH2 0x10C7 JUMP JUMPDEST SWAP2 SWAP1 POP JUMP JUMPDEST PUSH1 0x0 DUP3 PUSH1 0x1F DUP4 ADD SLT PUSH2 0xE28 JUMPI DUP1 DUP2 REVERT JUMPDEST DUP2 CALLDATALOAD PUSH1 0x20 PUSH8 0xFFFFFFFFFFFFFFFF DUP1 DUP4 GT ISZERO PUSH2 0xE3F JUMPI INVALID JUMPDEST DUP2 DUP4 MUL PUSH1 0x40 MLOAD DUP4 DUP3 DUP3 ADD ADD DUP2 DUP2 LT DUP5 DUP3 GT OR ISZERO PUSH2 0xE58 JUMPI INVALID JUMPDEST PUSH1 0x40 MSTORE DUP5 DUP2 MSTORE DUP4 DUP2 ADD SWAP3 POP DUP7 DUP5 ADD DUP3 DUP9 ADD DUP6 ADD DUP10 LT ISZERO PUSH2 0xE76 JUMPI DUP7 DUP8 REVERT JUMPDEST DUP7 SWAP3 POP JUMPDEST DUP6 DUP4 LT ISZERO PUSH2 0xE9F JUMPI PUSH2 0xE8B DUP2 PUSH2 0xE08 JUMP JUMPDEST DUP5 MSTORE SWAP3 DUP5 ADD SWAP3 PUSH1 0x1 SWAP3 SWAP1 SWAP3 ADD SWAP2 DUP5 ADD PUSH2 0xE7A JUMP JUMPDEST POP SWAP8 SWAP7 POP POP POP POP POP POP POP JUMP JUMPDEST PUSH1 0x0 PUSH1 0x20 DUP3 DUP5 SUB SLT ISZERO PUSH2 0xEBC JUMPI DUP1 DUP2 REVERT JUMPDEST DUP2 CALLDATALOAD PUSH2 0xDE0 DUP2 PUSH2 0x10C7 JUMP JUMPDEST PUSH1 0x0 DUP1 PUSH1 0x40 DUP4 DUP6 SUB SLT ISZERO PUSH2 0xED9 JUMPI DUP1 DUP2 REVERT JUMPDEST DUP3 CALLDATALOAD PUSH2 0xEE4 DUP2 PUSH2 0x10C7 JUMP JUMPDEST SWAP2 POP PUSH1 0x20 DUP4 ADD CALLDATALOAD PUSH2 0xEF4 DUP2 PUSH2 0x10C7 JUMP JUMPDEST DUP1 SWAP2 POP POP SWAP3 POP SWAP3 SWAP1 POP JUMP JUMPDEST PUSH1 0x0 DUP1 PUSH1 0x0 PUSH1 0x60 DUP5 DUP7 SUB SLT ISZERO PUSH2 0xF13 JUMPI DUP1 DUP2 REVERT JUMPDEST DUP4 CALLDATALOAD PUSH2 0xF1E DUP2 PUSH2 0x10C7 JUMP JUMPDEST SWAP3 POP PUSH1 0x20 DUP5 ADD CALLDATALOAD SWAP2 POP PUSH1 0x40 DUP5 ADD CALLDATALOAD PUSH2 0xF35 DUP2 PUSH2 0x10C7 JUMP JUMPDEST DUP1 SWAP2 POP POP SWAP3 POP SWAP3 POP SWAP3 JUMP JUMPDEST PUSH1 0x0 DUP1 PUSH1 0x40 DUP4 DUP6 SUB SLT ISZERO PUSH2 0xF52 JUMPI DUP2 DUP3 REVERT JUMPDEST DUP3 CALLDATALOAD PUSH8 0xFFFFFFFFFFFFFFFF DUP1 DUP3 GT ISZERO PUSH2 0xF69 JUMPI DUP4 DUP5 REVERT JUMPDEST PUSH2 0xF75 DUP7 DUP4 DUP8 ADD PUSH2 0xE18 JUMP JUMPDEST SWAP4 POP PUSH1 0x20 DUP6 ADD CALLDATALOAD SWAP2 POP DUP1 DUP3 GT ISZERO PUSH2 0xF8A JUMPI DUP3 DUP4 REVERT JUMPDEST POP PUSH2 0xF97 DUP6 DUP3 DUP7 ADD PUSH2 0xE18 JUMP JUMPDEST SWAP2 POP POP SWAP3 POP SWAP3 SWAP1 POP JUMP JUMPDEST PUSH1 0x0 PUSH1 0x20 DUP3 DUP5 SUB SLT ISZERO PUSH2 0xFB2 JUMPI DUP1 DUP2 REVERT JUMPDEST DUP2 MLOAD DUP1 ISZERO ISZERO DUP2 EQ PUSH2 0xDE0 JUMPI DUP2 DUP3 REVERT JUMPDEST PUSH1 0x0 DUP1 PUSH1 0x40 DUP4 DUP6 SUB SLT ISZERO PUSH2 0xFD3 JUMPI DUP2 DUP3 REVERT JUMPDEST POP POP DUP1 CALLDATALOAD SWAP3 PUSH1 0x20 SWAP1 SWAP2 ADD CALLDATALOAD SWAP2 POP JUMP JUMPDEST PUSH1 0x1 PUSH1 0x1 PUSH1 0xA0 SHL SUB SWAP2 SWAP1 SWAP2 AND DUP2 MSTORE PUSH1 0x20 ADD SWAP1 JUMP JUMPDEST PUSH1 0x1 PUSH1 0x1 PUSH1 0xA0 SHL SUB SWAP3 SWAP1 SWAP3 AND DUP3 MSTORE PUSH1 0x20 DUP3 ADD MSTORE PUSH1 0x40 ADD SWAP1 JUMP JUMPDEST SWAP1 ISZERO ISZERO DUP2 MSTORE PUSH1 0x20 ADD SWAP1 JUMP JUMPDEST PUSH1 0x20 DUP1 DUP3 MSTORE PUSH1 0x16 SWAP1 DUP3 ADD MSTORE PUSH22 0x6E6F742020737570706F727465642061646472657373 PUSH1 0x50 SHL PUSH1 0x40 DUP3 ADD MSTORE PUSH1 0x60 ADD SWAP1 JUMP JUMPDEST PUSH1 0x20 DUP1 DUP3 MSTORE PUSH1 0x15 SWAP1 DUP3 ADD MSTORE PUSH21 0x3932B8BAB4B9329029B0B3329020B2323932B9B997 PUSH1 0x59 SHL PUSH1 0x40 DUP3 ADD MSTORE PUSH1 0x60 ADD SWAP1 JUMP JUMPDEST DUP2 MLOAD DUP2 MSTORE PUSH1 0x20 DUP1 DUP4 ADD MLOAD SWAP1 DUP3 ADD MSTORE PUSH1 0x40 SWAP2 DUP3 ADD MLOAD SWAP2 DUP2 ADD SWAP2 SWAP1 SWAP2 MSTORE PUSH1 0x60 ADD SWAP1 JUMP JUMPDEST SWAP1 DUP2 MSTORE PUSH1 0x20 ADD SWAP1 JUMP JUMPDEST SWAP2 DUP3 MSTORE PUSH1 0x20 DUP3 ADD MSTORE PUSH1 0x40 ADD SWAP1 JUMP JUMPDEST SWAP3 DUP4 MSTORE PUSH1 0x20 DUP4 ADD SWAP2 SWAP1 SWAP2 MSTORE PUSH1 0x40 DUP3 ADD MSTORE PUSH1 0x60 ADD SWAP1 JUMP JUMPDEST PUSH1 0x1 PUSH1 0x1 PUSH1 0xA0 SHL SUB DUP2 AND DUP2 EQ PUSH2 0x10DC JUMPI PUSH1 0x0 DUP1 REVERT JUMPDEST POP JUMP INVALID 0x4F PUSH24 0x6E61626C653A206E6577206F776E65722069732074686520 PUSH27 0x65726F20616464726573734F776E61626C653A2063616C6C657220 PUSH10 0x73206E6F742074686520 PUSH16 0x776E6572A2646970667358221220E28A DIFFICULTY 0x4B OR SLT ORIGIN SWAP5 DIV AND AND 0xCC 0xC8 SWAP1 DUP9 LOG0 SWAP3 0xBC 0xD2 0xEC MSTORE 0xB7 EXTCODESIZE 0x28 SWAP16 0xD5 0xD5 0xC1 0xC 0xDE CALLCODE 0xB3 PUSH5 0x736F6C6343 STOP SMOD MOD STOP CALLER "
				},
				"gasEstimates": {
					"creation": {
						"codeDepositCost": "888600",
						"executionCost": "104199",
						"totalCost": "992799"
					},
					"external": {
						"": "1551",
						"AMOUNT_NATIVE_TOKEN()": "1139",
						"AMOUNT_TOKEN()": "1095",
						"balanceOf()": "275",
						"claim(address,address)": "infinite",
						"getUserInfo(address,address)": "infinite",
						"handleForfeitedBalance(address,uint256,address)": "infinite",
						"modifyTokenWhiteList(address[],address[])": "infinite",
						"modifyWhiteList(address[],address[])": "infinite",
						"owner()": "1092",
						"pause()": "infinite",
						"paused()": "1146",
						"renounceOwnership()": "infinite",
						"setLimit(uint256,uint256)": "infinite",
						"tokens(address)": "1324",
						"transferOwnership(address)": "infinite",
						"unpause()": "infinite",
						"userInfos(address,address)": "infinite",
						"whiteList(address)": "1348"
					}
				},
				"methodIdentifiers": {
					"AMOUNT_NATIVE_TOKEN()": "602f86f8",
					"AMOUNT_TOKEN()": "8174e972",
					"balanceOf()": "722713f7",
					"claim(address,address)": "21c0b342",
					"getUserInfo(address,address)": "f2801fe7",
					"handleForfeitedBalance(address,uint256,address)": "4e6f5b60",
					"modifyTokenWhiteList(address[],address[])": "51b32e8b",
					"modifyWhiteList(address[],address[])": "2adb5f4e",
					"owner()": "8da5cb5b",
					"pause()": "8456cb59",
					"paused()": "5c975abb",
					"renounceOwnership()": "715018a6",
					"setLimit(uint256,uint256)": "207add91",
					"tokens(address)": "e4860339",
					"transferOwnership(address)": "f2fde38b",
					"unpause()": "3f4ba83a",
					"userInfos(address,address)": "c9b5279c",
					"whiteList(address)": "372c12b1"
				}
			},
			"storageLayout": {
				"storage": [
					{
						"astId": 108,
						"contract": "TokenFaucet.sol:TokenFaucet",
						"label": "_owner",
						"offset": 0,
						"slot": "0",
						"type": "t_address"
					},
					{
						"astId": 223,
						"contract": "TokenFaucet.sol:TokenFaucet",
						"label": "paused",
						"offset": 20,
						"slot": "0",
						"type": "t_bool"
					},
					{
						"astId": 294,
						"contract": "TokenFaucet.sol:TokenFaucet",
						"label": "_status",
						"offset": 0,
						"slot": "1",
						"type": "t_uint256"
					},
					{
						"astId": 736,
						"contract": "TokenFaucet.sol:TokenFaucet",
						"label": "userInfos",
						"offset": 0,
						"slot": "2",
						"type": "t_mapping(t_address,t_mapping(t_address,t_struct(UserInfo)718_storage))"
					},
					{
						"astId": 740,
						"contract": "TokenFaucet.sol:TokenFaucet",
						"label": "whiteList",
						"offset": 0,
						"slot": "3",
						"type": "t_mapping(t_address,t_bool)"
					},
					{
						"astId": 744,
						"contract": "TokenFaucet.sol:TokenFaucet",
						"label": "tokens",
						"offset": 0,
						"slot": "4",
						"type": "t_mapping(t_address,t_bool)"
					},
					{
						"astId": 747,
						"contract": "TokenFaucet.sol:TokenFaucet",
						"label": "AMOUNT_TOKEN",
						"offset": 0,
						"slot": "5",
						"type": "t_uint256"
					},
					{
						"astId": 750,
						"contract": "TokenFaucet.sol:TokenFaucet",
						"label": "AMOUNT_NATIVE_TOKEN",
						"offset": 0,
						"slot": "6",
						"type": "t_uint256"
					}
				],
				"types": {
					"t_address": {
						"encoding": "inplace",
						"label": "address",
						"numberOfBytes": "20"
					},
					"t_bool": {
						"encoding": "inplace",
						"label": "bool",
						"numberOfBytes": "1"
					},
					"t_mapping(t_address,t_bool)": {
						"encoding": "mapping",
						"key": "t_address",
						"label": "mapping(address => bool)",
						"numberOfBytes": "32",
						"value": "t_bool"
					},
					"t_mapping(t_address,t_mapping(t_address,t_struct(UserInfo)718_storage))": {
						"encoding": "mapping",
						"key": "t_address",
						"label": "mapping(address => mapping(address => struct TokenFaucet.UserInfo))",
						"numberOfBytes": "32",
						"value": "t_mapping(t_address,t_struct(UserInfo)718_storage)"
					},
					"t_mapping(t_address,t_struct(UserInfo)718_storage)": {
						"encoding": "mapping",
						"key": "t_address",
						"label": "mapping(address => struct TokenFaucet.UserInfo)",
						"numberOfBytes": "32",
						"value": "t_struct(UserInfo)718_storage"
					},
					"t_struct(UserInfo)718_storage": {
						"encoding": "inplace",
						"label": "struct TokenFaucet.UserInfo",
						"members": [
							{
								"astId": 713,
								"contract": "TokenFaucet.sol:TokenFaucet",
								"label": "totalQuantity",
								"offset": 0,
								"slot": "0",
								"type": "t_uint256"
							},
							{
								"astId": 715,
								"contract": "TokenFaucet.sol:TokenFaucet",
								"label": "lastQuantity",
								"offset": 0,
								"slot": "1",
								"type": "t_uint256"
							},
							{
								"astId": 717,
								"contract": "TokenFaucet.sol:TokenFaucet",
								"label": "lastSend",
								"offset": 0,
								"slot": "2",
								"type": "t_uint256"
							}
						],
						"numberOfBytes": "96"
					},
					"t_uint256": {
						"encoding": "inplace",
						"label": "uint256",
						"numberOfBytes": "32"
					}
				}
			},
			"userdoc": {
				"kind": "user",
				"methods": {},
				"version": 1
			}
		}
	}
}