{
	"PancakeRouter01.sol": {
		"PancakeRouter01": {
			"abi": [
				{
					"inputs": [
						{
							"internalType": "address",
							"name": "_factory",
							"type": "address"
						},
						{
							"internalType": "address",
							"name": "_WETH",
							"type": "address"
						}
					],
					"stateMutability": "nonpayable",
					"type": "constructor"
				},
				{
					"inputs": [],
					"name": "WETH",
					"outputs": [
						{
							"internalType": "address",
							"name": "",
							"type": "address"
						}
					],
					"stateMutability": "view",
					"type": "function"
				},
				{
					"inputs": [
						{
							"internalType": "address",
							"name": "tokenA",
							"type": "address"
						},
						{
							"internalType": "address",
							"name": "tokenB",
							"type": "address"
						},
						{
							"internalType": "uint256",
							"name": "amountADesired",
							"type": "uint256"
						},
						{
							"internalType": "uint256",
							"name": "amountBDesired",
							"type": "uint256"
						},
						{
							"internalType": "uint256",
							"name": "amountAMin",
							"type": "uint256"
						},
						{
							"internalType": "uint256",
							"name": "amountBMin",
							"type": "uint256"
						},
						{
							"internalType": "address",
							"name": "to",
							"type": "address"
						},
						{
							"internalType": "uint256",
							"name": "deadline",
							"type": "uint256"
						}
					],
					"name": "addLiquidity",
					"outputs": [
						{
							"internalType": "uint256",
							"name": "amountA",
							"type": "uint256"
						},
						{
							"internalType": "uint256",
							"name": "amountB",
							"type": "uint256"
						},
						{
							"internalType": "uint256",
							"name": "liquidity",
							"type": "uint256"
						}
					],
					"stateMutability": "nonpayable",
					"type": "function"
				},
				{
					"inputs": [
						{
							"internalType": "address",
							"name": "token",
							"type": "address"
						},
						{
							"internalType": "uint256",
							"name": "amountTokenDesired",
							"type": "uint256"
						},
						{
							"internalType": "uint256",
							"name": "amountTokenMin",
							"type": "uint256"
						},
						{
							"internalType": "uint256",
							"name": "amountETHMin",
							"type": "uint256"
						},
						{
							"internalType": "address",
							"name": "to",
							"type": "address"
						},
						{
							"internalType": "uint256",
							"name": "deadline",
							"type": "uint256"
						}
					],
					"name": "addLiquidityETH",
					"outputs": [
						{
							"internalType": "uint256",
							"name": "amountToken",
							"type": "uint256"
						},
						{
							"internalType": "uint256",
							"name": "amountETH",
							"type": "uint256"
						},
						{
							"internalType": "uint256",
							"name": "liquidity",
							"type": "uint256"
						}
					],
					"stateMutability": "payable",
					"type": "function"
				},
				{
					"inputs": [],
					"name": "factory",
					"outputs": [
						{
							"internalType": "address",
							"name": "",
							"type": "address"
						}
					],
					"stateMutability": "view",
					"type": "function"
				},
				{
					"inputs": [
						{
							"internalType": "uint256",
							"name": "amountOut",
							"type": "uint256"
						},
						{
							"internalType": "uint256",
							"name": "reserveIn",
							"type": "uint256"
						},
						{
							"internalType": "uint256",
							"name": "reserveOut",
							"type": "uint256"
						}
					],
					"name": "getAmountIn",
					"outputs": [
						{
							"internalType": "uint256",
							"name": "amountIn",
							"type": "uint256"
						}
					],
					"stateMutability": "pure",
					"type": "function"
				},
				{
					"inputs": [
						{
							"internalType": "uint256",
							"name": "amountIn",
							"type": "uint256"
						},
						{
							"internalType": "uint256",
							"name": "reserveIn",
							"type": "uint256"
						},
						{
							"internalType": "uint256",
							"name": "reserveOut",
							"type": "uint256"
						}
					],
					"name": "getAmountOut",
					"outputs": [
						{
							"internalType": "uint256",
							"name": "amountOut",
							"type": "uint256"
						}
					],
					"stateMutability": "pure",
					"type": "function"
				},
				{
					"inputs": [
						{
							"internalType": "uint256",
							"name": "amountOut",
							"type": "uint256"
						},
						{
							"internalType": "address[]",
							"name": "path",
							"type": "address[]"
						}
					],
					"name": "getAmountsIn",
					"outputs": [
						{
							"internalType": "uint256[]",
							"name": "amounts",
							"type": "uint256[]"
						}
					],
					"stateMutability": "view",
					"type": "function"
				},
				{
					"inputs": [
						{
							"internalType": "uint256",
							"name": "amountIn",
							"type": "uint256"
						},
						{
							"internalType": "address[]",
							"name": "path",
							"type": "address[]"
						}
					],
					"name": "getAmountsOut",
					"outputs": [
						{
							"internalType": "uint256[]",
							"name": "amounts",
							"type": "uint256[]"
						}
					],
					"stateMutability": "view",
					"type": "function"
				},
				{
					"inputs": [
						{
							"internalType": "uint256",
							"name": "amountA",
							"type": "uint256"
						},
						{
							"internalType": "uint256",
							"name": "reserveA",
							"type": "uint256"
						},
						{
							"internalType": "uint256",
							"name": "reserveB",
							"type": "uint256"
						}
					],
					"name": "quote",
					"outputs": [
						{
							"internalType": "uint256",
							"name": "amountB",
							"type": "uint256"
						}
					],
					"stateMutability": "pure",
					"type": "function"
				},
				{
					"inputs": [
						{
							"internalType": "address",
							"name": "tokenA",
							"type": "address"
						},
						{
							"internalType": "address",
							"name": "tokenB",
							"type": "address"
						},
						{
							"internalType": "uint256",
							"name": "liquidity",
							"type": "uint256"
						},
						{
							"internalType": "uint256",
							"name": "amountAMin",
							"type": "uint256"
						},
						{
							"internalType": "uint256",
							"name": "amountBMin",
							"type": "uint256"
						},
						{
							"internalType": "address",
							"name": "to",
							"type": "address"
						},
						{
							"internalType": "uint256",
							"name": "deadline",
							"type": "uint256"
						}
					],
					"name": "removeLiquidity",
					"outputs": [
						{
							"internalType": "uint256",
							"name": "amountA",
							"type": "uint256"
						},
						{
							"internalType": "uint256",
							"name": "amountB",
							"type": "uint256"
						}
					],
					"stateMutability": "nonpayable",
					"type": "function"
				},
				{
					"inputs": [
						{
							"internalType": "address",
							"name": "token",
							"type": "address"
						},
						{
							"internalType": "uint256",
							"name": "liquidity",
							"type": "uint256"
						},
						{
							"internalType": "uint256",
							"name": "amountTokenMin",
							"type": "uint256"
						},
						{
							"internalType": "uint256",
							"name": "amountETHMin",
							"type": "uint256"
						},
						{
							"internalType": "address",
							"name": "to",
							"type": "address"
						},
						{
							"internalType": "uint256",
							"name": "deadline",
							"type": "uint256"
						}
					],
					"name": "removeLiquidityETH",
					"outputs": [
						{
							"internalType": "uint256",
							"name": "amountToken",
							"type": "uint256"
						},
						{
							"internalType": "uint256",
							"name": "amountETH",
							"type": "uint256"
						}
					],
					"stateMutability": "nonpayable",
					"type": "function"
				},
				{
					"inputs": [
						{
							"internalType": "address",
							"name": "token",
							"type": "address"
						},
						{
							"internalType": "uint256",
							"name": "liquidity",
							"type": "uint256"
						},
						{
							"internalType": "uint256",
							"name": "amountTokenMin",
							"type": "uint256"
						},
						{
							"internalType": "uint256",
							"name": "amountETHMin",
							"type": "uint256"
						},
						{
							"internalType": "address",
							"name": "to",
							"type": "address"
						},
						{
							"internalType": "uint256",
							"name": "deadline",
							"type": "uint256"
						},
						{
							"internalType": "bool",
							"name": "approveMax",
							"type": "bool"
						},
						{
							"internalType": "uint8",
							"name": "v",
							"type": "uint8"
						},
						{
							"internalType": "bytes32",
							"name": "r",
							"type": "bytes32"
						},
						{
							"internalType": "bytes32",
							"name": "s",
							"type": "bytes32"
						}
					],
					"name": "removeLiquidityETHWithPermit",
					"outputs": [
						{
							"internalType": "uint256",
							"name": "amountToken",
							"type": "uint256"
						},
						{
							"internalType": "uint256",
							"name": "amountETH",
							"type": "uint256"
						}
					],
					"stateMutability": "nonpayable",
					"type": "function"
				},
				{
					"inputs": [
						{
							"internalType": "address",
							"name": "tokenA",
							"type": "address"
						},
						{
							"internalType": "address",
							"name": "tokenB",
							"type": "address"
						},
						{
							"internalType": "uint256",
							"name": "liquidity",
							"type": "uint256"
						},
						{
							"internalType": "uint256",
							"name": "amountAMin",
							"type": "uint256"
						},
						{
							"internalType": "uint256",
							"name": "amountBMin",
							"type": "uint256"
						},
						{
							"internalType": "address",
							"name": "to",
							"type": "address"
						},
						{
							"internalType": "uint256",
							"name": "deadline",
							"type": "uint256"
						},
						{
							"internalType": "bool",
							"name": "approveMax",
							"type": "bool"
						},
						{
							"internalType": "uint8",
							"name": "v",
							"type": "uint8"
						},
						{
							"internalType": "bytes32",
							"name": "r",
							"type": "bytes32"
						},
						{
							"internalType": "bytes32",
							"name": "s",
							"type": "bytes32"
						}
					],
					"name": "removeLiquidityWithPermit",
					"outputs": [
						{
							"internalType": "uint256",
							"name": "amountA",
							"type": "uint256"
						},
						{
							"internalType": "uint256",
							"name": "amountB",
							"type": "uint256"
						}
					],
					"stateMutability": "nonpayable",
					"type": "function"
				},
				{
					"inputs": [
						{
							"internalType": "uint256",
							"name": "amountOut",
							"type": "uint256"
						},
						{
							"internalType": "address[]",
							"name": "path",
							"type": "address[]"
						},
						{
							"internalType": "address",
							"name": "to",
							"type": "address"
						},
						{
							"internalType": "uint256",
							"name": "deadline",
							"type": "uint256"
						}
					],
					"name": "swapETHForExactTokens",
					"outputs": [
						{
							"internalType": "uint256[]",
							"name": "amounts",
							"type": "uint256[]"
						}
					],
					"stateMutability": "payable",
					"type": "function"
				},
				{
					"inputs": [
						{
							"internalType": "uint256",
							"name": "amountOutMin",
							"type": "uint256"
						},
						{
							"internalType": "address[]",
							"name": "path",
							"type": "address[]"
						},
						{
							"internalType": "address",
							"name": "to",
							"type": "address"
						},
						{
							"internalType": "uint256",
							"name": "deadline",
							"type": "uint256"
						}
					],
					"name": "swapExactETHForTokens",
					"outputs": [
						{
							"internalType": "uint256[]",
							"name": "amounts",
							"type": "uint256[]"
						}
					],
					"stateMutability": "payable",
					"type": "function"
				},
				{
					"inputs": [
						{
							"internalType": "uint256",
							"name": "amountIn",
							"type": "uint256"
						},
						{
							"internalType": "uint256",
							"name": "amountOutMin",
							"type": "uint256"
						},
						{
							"internalType": "address[]",
							"name": "path",
							"type": "address[]"
						},
						{
							"internalType": "address",
							"name": "to",
							"type": "address"
						},
						{
							"internalType": "uint256",
							"name": "deadline",
							"type": "uint256"
						}
					],
					"name": "swapExactTokensForETH",
					"outputs": [
						{
							"internalType": "uint256[]",
							"name": "amounts",
							"type": "uint256[]"
						}
					],
					"stateMutability": "nonpayable",
					"type": "function"
				},
				{
					"inputs": [
						{
							"internalType": "uint256",
							"name": "amountIn",
							"type": "uint256"
						},
						{
							"internalType": "uint256",
							"name": "amountOutMin",
							"type": "uint256"
						},
						{
							"internalType": "address[]",
							"name": "path",
							"type": "address[]"
						},
						{
							"internalType": "address",
							"name": "to",
							"type": "address"
						},
						{
							"internalType": "uint256",
							"name": "deadline",
							"type": "uint256"
						}
					],
					"name": "swapExactTokensForTokens",
					"outputs": [
						{
							"internalType": "uint256[]",
							"name": "amounts",
							"type": "uint256[]"
						}
					],
					"stateMutability": "nonpayable",
					"type": "function"
				},
				{
					"inputs": [
						{
							"internalType": "uint256",
							"name": "amountOut",
							"type": "uint256"
						},
						{
							"internalType": "uint256",
							"name": "amountInMax",
							"type": "uint256"
						},
						{
							"internalType": "address[]",
							"name": "path",
							"type": "address[]"
						},
						{
							"internalType": "address",
							"name": "to",
							"type": "address"
						},
						{
							"internalType": "uint256",
							"name": "deadline",
							"type": "uint256"
						}
					],
					"name": "swapTokensForExactETH",
					"outputs": [
						{
							"internalType": "uint256[]",
							"name": "amounts",
							"type": "uint256[]"
						}
					],
					"stateMutability": "nonpayable",
					"type": "function"
				},
				{
					"inputs": [
						{
							"internalType": "uint256",
							"name": "amountOut",
							"type": "uint256"
						},
						{
							"internalType": "uint256",
							"name": "amountInMax",
							"type": "uint256"
						},
						{
							"internalType": "address[]",
							"name": "path",
							"type": "address[]"
						},
						{
							"internalType": "address",
							"name": "to",
							"type": "address"
						},
						{
							"internalType": "uint256",
							"name": "deadline",
							"type": "uint256"
						}
					],
					"name": "swapTokensForExactTokens",
					"outputs": [
						{
							"internalType": "uint256[]",
							"name": "amounts",
							"type": "uint256[]"
						}
					],
					"stateMutability": "nonpayable",
					"type": "function"
				},
				{
					"stateMutability": "payable",
					"type": "receive"
				}
			],
			"devdoc": {
				"methods": {}
			},
			"evm": {
				"assembly": "    /* \"PancakeRouter01.sol\":320:12598  contract PancakeRouter01 is IPancakeRouter01 {... */\n  mstore(0x40, 0xc0)\n    /* \"PancakeRouter01.sol\":590:699  constructor(address _factory, address _WETH) public {... */\n  callvalue\n    /* \"--CODEGEN--\":5:14   */\n  dup1\n    /* \"--CODEGEN--\":2:4   */\n  iszero\n  tag_1\n  jumpi\n    /* \"--CODEGEN--\":27:28   */\n  0x00\n    /* \"--CODEGEN--\":24:25   */\n  dup1\n    /* \"--CODEGEN--\":17:29   */\n  revert\n    /* \"--CODEGEN--\":2:4   */\ntag_1:\n    /* \"PancakeRouter01.sol\":590:699  constructor(address _factory, address _WETH) public {... */\n  pop\n  mload(0x40)\n  sub(codesize, bytecodeSize)\n  dup1\n  bytecodeSize\n  dup4\n  codecopy\n  dup2\n  dup2\n  add\n  0x40\n  mstore\n    /* \"--CODEGEN--\":15:17   */\n  0x40\n    /* \"--CODEGEN--\":10:13   */\n  dup2\n    /* \"--CODEGEN--\":7:18   */\n  lt\n    /* \"--CODEGEN--\":4:6   */\n  iszero\n  tag_2\n  jumpi\n    /* \"--CODEGEN--\":31:32   */\n  0x00\n    /* \"--CODEGEN--\":28:29   */\n  dup1\n    /* \"--CODEGEN--\":21:33   */\n  revert\n    /* \"--CODEGEN--\":4:6   */\ntag_2:\n  pop\n    /* \"PancakeRouter01.sol\":590:699  constructor(address _factory, address _WETH) public {... */\n  dup1\n  mload\n  0x20\n  swap1\n  swap2\n  add\n  mload\n  not(sub(shl(0x60, 0x01), 0x01))\n    /* \"PancakeRouter01.sol\":652:670  factory = _factory */\n  0x60\n  swap3\n  dup4\n  shl\n  dup2\n  and\n  0x80\n  mstore\n    /* \"PancakeRouter01.sol\":680:692  WETH = _WETH */\n  swap2\n  shl\n  and\n  0xa0\n  mstore\n    /* \"PancakeRouter01.sol\":320:12598  contract PancakeRouter01 is IPancakeRouter01 {... */\n  shr(0x60, mload(0x80))\n  shr(0x60, mload(0xa0))\n  codecopy(0x00, dataOffset(sub_0), dataSize(sub_0))\n  assignImmutable(\"0x9abd569a0444be7ce52d46a7fb79009940c0c0442116f15017290ff13cb4450c\")\n  assignImmutable(\"0x5bcd163b2238ff85648d293e01a327b5c7f9ae69498a752a4883e839ddddafcb\")\n  return(0x00, dataSize(sub_0))\nstop\n\nsub_0: assembly {\n        /* \"PancakeRouter01.sol\":320:12598  contract PancakeRouter01 is IPancakeRouter01 {... */\n      mstore(0x40, 0x80)\n      jumpi(tag_1, lt(calldatasize, 0x04))\n      shr(0xe0, calldataload(0x00))\n      dup1\n      0x8803dbee\n      gt\n      tag_22\n      jumpi\n      dup1\n      0xd06ca61f\n      gt\n      tag_23\n      jumpi\n      dup1\n      0xd06ca61f\n      eq\n      tag_17\n      jumpi\n      dup1\n      0xded9382a\n      eq\n      tag_18\n      jumpi\n      dup1\n      0xe8e33700\n      eq\n      tag_19\n      jumpi\n      dup1\n      0xf305d719\n      eq\n      tag_20\n      jumpi\n      dup1\n      0xfb3bdb41\n      eq\n      tag_21\n      jumpi\n      jump(tag_2)\n    tag_23:\n      dup1\n      0x8803dbee\n      eq\n      tag_12\n      jumpi\n      dup1\n      0xad5c4648\n      eq\n      tag_13\n      jumpi\n      dup1\n      0xad615dec\n      eq\n      tag_14\n      jumpi\n      dup1\n      0xbaa2abde\n      eq\n      tag_15\n      jumpi\n      dup1\n      0xc45a0155\n      eq\n      tag_16\n      jumpi\n      jump(tag_2)\n    tag_22:\n      dup1\n      0x2195995c\n      gt\n      tag_24\n      jumpi\n      dup1\n      0x2195995c\n      eq\n      tag_7\n      jumpi\n      dup1\n      0x38ed1739\n      eq\n      tag_8\n      jumpi\n      dup1\n      0x4a25d94a\n      eq\n      tag_9\n      jumpi\n      dup1\n      0x7ff36ab5\n      eq\n      tag_10\n      jumpi\n      dup1\n      0x85f8c259\n      eq\n      tag_4\n      jumpi\n      jump(tag_2)\n    tag_24:\n      dup1\n      0x02751cec\n      eq\n      tag_3\n      jumpi\n      dup1\n      0x054d50d4\n      eq\n      tag_4\n      jumpi\n      dup1\n      0x18cbafe5\n      eq\n      tag_5\n      jumpi\n      dup1\n      0x1f00ca74\n      eq\n      tag_6\n      jumpi\n      jump(tag_2)\n    tag_1:\n      jumpi(tag_2, calldatasize)\n        /* \"PancakeRouter01.sol\":749:759  msg.sender */\n      caller\n      sub(shl(0xa0, 0x01), 0x01)\n        /* \"PancakeRouter01.sol\":763:767  WETH */\n      immutable(\"0x9abd569a0444be7ce52d46a7fb79009940c0c0442116f15017290ff13cb4450c\")\n        /* \"PancakeRouter01.sol\":749:767  msg.sender == WETH */\n      and\n      eq\n        /* \"PancakeRouter01.sol\":742:768  assert(msg.sender == WETH) */\n      tag_27\n      jumpi\n      invalid\n    tag_27:\n        /* \"PancakeRouter01.sol\":320:12598  contract PancakeRouter01 is IPancakeRouter01 {... */\n      stop\n    tag_2:\n        /* \"--CODEGEN--\":12:13   */\n      0x00\n        /* \"--CODEGEN--\":9:10   */\n      dup1\n        /* \"--CODEGEN--\":2:14   */\n      revert\n        /* \"PancakeRouter01.sol\":4733:5378  function removeLiquidityETH(... */\n    tag_3:\n      callvalue\n        /* \"--CODEGEN--\":5:14   */\n      dup1\n        /* \"--CODEGEN--\":2:4   */\n      iszero\n      tag_28\n      jumpi\n        /* \"--CODEGEN--\":27:28   */\n      0x00\n        /* \"--CODEGEN--\":24:25   */\n      dup1\n        /* \"--CODEGEN--\":17:29   */\n      revert\n        /* \"--CODEGEN--\":2:4   */\n    tag_28:\n        /* \"PancakeRouter01.sol\":4733:5378  function removeLiquidityETH(... */\n      pop\n      tag_29\n      0x04\n      dup1\n      calldatasize\n      sub\n        /* \"--CODEGEN--\":15:18   */\n      0xc0\n        /* \"--CODEGEN--\":10:13   */\n      dup2\n        /* \"--CODEGEN--\":7:19   */\n      lt\n        /* \"--CODEGEN--\":4:6   */\n      iszero\n      tag_30\n      jumpi\n        /* \"--CODEGEN--\":32:33   */\n      0x00\n        /* \"--CODEGEN--\":29:30   */\n      dup1\n        /* \"--CODEGEN--\":22:34   */\n      revert\n        /* \"--CODEGEN--\":4:6   */\n    tag_30:\n      pop\n      sub(shl(0xa0, 0x01), 0x01)\n        /* \"PancakeRouter01.sol\":4733:5378  function removeLiquidityETH(... */\n      dup2\n      calldataload\n      dup2\n      and\n      swap2\n      0x20\n      dup2\n      add\n      calldataload\n      swap2\n      0x40\n      dup3\n      add\n      calldataload\n      swap2\n      0x60\n      dup2\n      add\n      calldataload\n      swap2\n      0x80\n      dup3\n      add\n      calldataload\n      and\n      swap1\n      0xa0\n      add\n      calldataload\n      tag_31\n      jump\t// in\n    tag_29:\n      0x40\n      dup1\n      mload\n      swap3\n      dup4\n      mstore\n      0x20\n      dup4\n      add\n      swap2\n      swap1\n      swap2\n      mstore\n      dup1\n      mload\n      swap2\n      dup3\n      swap1\n      sub\n      add\n      swap1\n      return\n        /* \"PancakeRouter01.sol\":11796:11996  function getAmountOut(uint amountIn, uint reserveIn, uint reserveOut) public pure override returns (uint amountOut) {... */\n    tag_4:\n      callvalue\n        /* \"--CODEGEN--\":5:14   */\n      dup1\n        /* \"--CODEGEN--\":2:4   */\n      iszero\n      tag_32\n      jumpi\n        /* \"--CODEGEN--\":27:28   */\n      0x00\n        /* \"--CODEGEN--\":24:25   */\n      dup1\n        /* \"--CODEGEN--\":17:29   */\n      revert\n        /* \"--CODEGEN--\":2:4   */\n    tag_32:\n        /* \"PancakeRouter01.sol\":11796:11996  function getAmountOut(uint amountIn, uint reserveIn, uint reserveOut) public pure override returns (uint amountOut) {... */\n      pop\n      tag_33\n      0x04\n      dup1\n      calldatasize\n      sub\n        /* \"--CODEGEN--\":15:17   */\n      0x60\n        /* \"--CODEGEN--\":10:13   */\n      dup2\n        /* \"--CODEGEN--\":7:18   */\n      lt\n        /* \"--CODEGEN--\":4:6   */\n      iszero\n      tag_34\n      jumpi\n        /* \"--CODEGEN--\":31:32   */\n      0x00\n        /* \"--CODEGEN--\":28:29   */\n      dup1\n        /* \"--CODEGEN--\":21:33   */\n      revert\n        /* \"--CODEGEN--\":4:6   */\n    tag_34:\n      pop\n        /* \"PancakeRouter01.sol\":11796:11996  function getAmountOut(uint amountIn, uint reserveIn, uint reserveOut) public pure override returns (uint amountOut) {... */\n      dup1\n      calldataload\n      swap1\n      0x20\n      dup2\n      add\n      calldataload\n      swap1\n      0x40\n      add\n      calldataload\n      tag_35\n      jump\t// in\n    tag_33:\n      0x40\n      dup1\n      mload\n      swap2\n      dup3\n      mstore\n      mload\n      swap1\n      dup2\n      swap1\n      sub\n      0x20\n      add\n      swap1\n      return\n        /* \"PancakeRouter01.sol\":10053:10841  function swapExactTokensForETH(uint amountIn, uint amountOutMin, address[] calldata path, address to, uint deadline)... */\n    tag_5:\n      callvalue\n        /* \"--CODEGEN--\":5:14   */\n      dup1\n        /* \"--CODEGEN--\":2:4   */\n      iszero\n      tag_36\n      jumpi\n        /* \"--CODEGEN--\":27:28   */\n      0x00\n        /* \"--CODEGEN--\":24:25   */\n      dup1\n        /* \"--CODEGEN--\":17:29   */\n      revert\n        /* \"--CODEGEN--\":2:4   */\n    tag_36:\n        /* \"PancakeRouter01.sol\":10053:10841  function swapExactTokensForETH(uint amountIn, uint amountOutMin, address[] calldata path, address to, uint deadline)... */\n      pop\n      tag_37\n      0x04\n      dup1\n      calldatasize\n      sub\n        /* \"--CODEGEN--\":15:18   */\n      0xa0\n        /* \"--CODEGEN--\":10:13   */\n      dup2\n        /* \"--CODEGEN--\":7:19   */\n      lt\n        /* \"--CODEGEN--\":4:6   */\n      iszero\n      tag_38\n      jumpi\n        /* \"--CODEGEN--\":32:33   */\n      0x00\n        /* \"--CODEGEN--\":29:30   */\n      dup1\n        /* \"--CODEGEN--\":22:34   */\n      revert\n        /* \"--CODEGEN--\":4:6   */\n    tag_38:\n        /* \"PancakeRouter01.sol\":10053:10841  function swapExactTokensForETH(uint amountIn, uint amountOutMin, address[] calldata path, address to, uint deadline)... */\n      dup2\n      calldataload\n      swap2\n      0x20\n      dup2\n      add\n      calldataload\n      swap2\n      dup2\n      add\n      swap1\n      0x60\n      dup2\n      add\n      0x40\n      dup3\n      add\n      calldataload\n      shl(0x20, 0x01)\n        /* \"--CODEGEN--\":11:39   */\n      dup2\n      gt\n        /* \"--CODEGEN--\":8:10   */\n      iszero\n      tag_39\n      jumpi\n        /* \"--CODEGEN--\":52:53   */\n      0x00\n        /* \"--CODEGEN--\":49:50   */\n      dup1\n        /* \"--CODEGEN--\":42:54   */\n      revert\n        /* \"--CODEGEN--\":8:10   */\n    tag_39:\n        /* \"PancakeRouter01.sol\":10053:10841  function swapExactTokensForETH(uint amountIn, uint amountOutMin, address[] calldata path, address to, uint deadline)... */\n      dup3\n      add\n        /* \"--CODEGEN--\":41:50   */\n      dup4\n        /* \"--CODEGEN--\":34:38   */\n      0x20\n        /* \"--CODEGEN--\":18:32   */\n      dup3\n        /* \"--CODEGEN--\":14:39   */\n      add\n        /* \"--CODEGEN--\":11:51   */\n      gt\n        /* \"--CODEGEN--\":8:10   */\n      iszero\n      tag_40\n      jumpi\n        /* \"--CODEGEN--\":64:65   */\n      0x00\n        /* \"--CODEGEN--\":61:62   */\n      dup1\n        /* \"--CODEGEN--\":54:66   */\n      revert\n        /* \"--CODEGEN--\":8:10   */\n    tag_40:\n        /* \"PancakeRouter01.sol\":10053:10841  function swapExactTokensForETH(uint amountIn, uint amountOutMin, address[] calldata path, address to, uint deadline)... */\n      dup1\n      calldataload\n      swap1\n      0x20\n      add\n      swap2\n        /* \"--CODEGEN--\":101:110   */\n      dup5\n        /* \"--CODEGEN--\":95:97   */\n      0x20\n        /* \"--CODEGEN--\":81:93   */\n      dup4\n        /* \"--CODEGEN--\":77:98   */\n      mul\n        /* \"--CODEGEN--\":67:75   */\n      dup5\n        /* \"--CODEGEN--\":63:99   */\n      add\n        /* \"--CODEGEN--\":60:111   */\n      gt\n      shl(0x20, 0x01)\n        /* \"--CODEGEN--\":25:37   */\n      dup4\n        /* \"--CODEGEN--\":22:51   */\n      gt\n        /* \"--CODEGEN--\":11:119   */\n      or\n        /* \"--CODEGEN--\":8:10   */\n      iszero\n      tag_41\n      jumpi\n        /* \"--CODEGEN--\":132:133   */\n      0x00\n        /* \"--CODEGEN--\":129:130   */\n      dup1\n        /* \"--CODEGEN--\":122:134   */\n      revert\n        /* \"--CODEGEN--\":8:10   */\n    tag_41:\n        /* \"PancakeRouter01.sol\":10053:10841  function swapExactTokensForETH(uint amountIn, uint amountOutMin, address[] calldata path, address to, uint deadline)... */\n      swap2\n      swap4\n      pop\n      swap2\n      pop\n      sub(shl(0xa0, 0x01), 0x01)\n      dup2\n      calldataload\n      and\n      swap1\n      0x20\n      add\n      calldataload\n      tag_42\n      jump\t// in\n    tag_37:\n      0x40\n      dup1\n      mload\n      0x20\n      dup1\n      dup3\n      mstore\n      dup4\n      mload\n      dup2\n      dup4\n      add\n      mstore\n      dup4\n      mload\n      swap2\n      swap3\n      dup4\n      swap3\n      swap1\n      dup4\n      add\n      swap2\n      dup6\n      dup2\n      add\n      swap2\n      mul\n      dup1\n      dup4\n      dup4\n      0x00\n        /* \"--CODEGEN--\":8:108   */\n    tag_43:\n        /* \"--CODEGEN--\":33:36   */\n      dup4\n        /* \"--CODEGEN--\":30:31   */\n      dup2\n        /* \"--CODEGEN--\":27:37   */\n      lt\n        /* \"--CODEGEN--\":8:108   */\n      iszero\n      tag_45\n      jumpi\n        /* \"--CODEGEN--\":90:101   */\n      dup2\n      dup2\n      add\n        /* \"--CODEGEN--\":84:102   */\n      mload\n        /* \"--CODEGEN--\":71:82   */\n      dup4\n      dup3\n      add\n        /* \"--CODEGEN--\":64:103   */\n      mstore\n        /* \"--CODEGEN--\":52:54   */\n      0x20\n        /* \"--CODEGEN--\":45:55   */\n      add\n        /* \"--CODEGEN--\":8:108   */\n      jump(tag_43)\n    tag_45:\n        /* \"--CODEGEN--\":12:26   */\n      pop\n        /* \"PancakeRouter01.sol\":10053:10841  function swapExactTokensForETH(uint amountIn, uint amountOutMin, address[] calldata path, address to, uint deadline)... */\n      pop\n      pop\n      pop\n      swap1\n      pop\n      add\n      swap3\n      pop\n      pop\n      pop\n      mload(0x40)\n      dup1\n      swap2\n      sub\n      swap1\n      return\n        /* \"PancakeRouter01.sol\":12405:12596  function getAmountsIn(uint amountOut, address[] memory path) public view override returns (uint[] memory amounts) {... */\n    tag_6:\n      callvalue\n        /* \"--CODEGEN--\":5:14   */\n      dup1\n        /* \"--CODEGEN--\":2:4   */\n      iszero\n      tag_46\n      jumpi\n        /* \"--CODEGEN--\":27:28   */\n      0x00\n        /* \"--CODEGEN--\":24:25   */\n      dup1\n        /* \"--CODEGEN--\":17:29   */\n      revert\n        /* \"--CODEGEN--\":2:4   */\n    tag_46:\n        /* \"PancakeRouter01.sol\":12405:12596  function getAmountsIn(uint amountOut, address[] memory path) public view override returns (uint[] memory amounts) {... */\n      pop\n      tag_37\n      0x04\n      dup1\n      calldatasize\n      sub\n        /* \"--CODEGEN--\":15:17   */\n      0x40\n        /* \"--CODEGEN--\":10:13   */\n      dup2\n        /* \"--CODEGEN--\":7:18   */\n      lt\n        /* \"--CODEGEN--\":4:6   */\n      iszero\n      tag_48\n      jumpi\n        /* \"--CODEGEN--\":31:32   */\n      0x00\n        /* \"--CODEGEN--\":28:29   */\n      dup1\n        /* \"--CODEGEN--\":21:33   */\n      revert\n        /* \"--CODEGEN--\":4:6   */\n    tag_48:\n        /* \"PancakeRouter01.sol\":12405:12596  function getAmountsIn(uint amountOut, address[] memory path) public view override returns (uint[] memory amounts) {... */\n      dup2\n      calldataload\n      swap2\n      swap1\n      dup2\n      add\n      swap1\n      0x40\n      dup2\n      add\n      0x20\n      dup3\n      add\n      calldataload\n      shl(0x20, 0x01)\n        /* \"--CODEGEN--\":11:39   */\n      dup2\n      gt\n        /* \"--CODEGEN--\":8:10   */\n      iszero\n      tag_49\n      jumpi\n        /* \"--CODEGEN--\":52:53   */\n      0x00\n        /* \"--CODEGEN--\":49:50   */\n      dup1\n        /* \"--CODEGEN--\":42:54   */\n      revert\n        /* \"--CODEGEN--\":8:10   */\n    tag_49:\n        /* \"PancakeRouter01.sol\":12405:12596  function getAmountsIn(uint amountOut, address[] memory path) public view override returns (uint[] memory amounts) {... */\n      dup3\n      add\n        /* \"--CODEGEN--\":41:50   */\n      dup4\n        /* \"--CODEGEN--\":34:38   */\n      0x20\n        /* \"--CODEGEN--\":18:32   */\n      dup3\n        /* \"--CODEGEN--\":14:39   */\n      add\n        /* \"--CODEGEN--\":11:51   */\n      gt\n        /* \"--CODEGEN--\":8:10   */\n      iszero\n      tag_50\n      jumpi\n        /* \"--CODEGEN--\":64:65   */\n      0x00\n        /* \"--CODEGEN--\":61:62   */\n      dup1\n        /* \"--CODEGEN--\":54:66   */\n      revert\n        /* \"--CODEGEN--\":8:10   */\n    tag_50:\n        /* \"PancakeRouter01.sol\":12405:12596  function getAmountsIn(uint amountOut, address[] memory path) public view override returns (uint[] memory amounts) {... */\n      dup1\n      calldataload\n      swap1\n      0x20\n      add\n      swap2\n        /* \"--CODEGEN--\":101:110   */\n      dup5\n        /* \"--CODEGEN--\":95:97   */\n      0x20\n        /* \"--CODEGEN--\":81:93   */\n      dup4\n        /* \"--CODEGEN--\":77:98   */\n      mul\n        /* \"--CODEGEN--\":67:75   */\n      dup5\n        /* \"--CODEGEN--\":63:99   */\n      add\n        /* \"--CODEGEN--\":60:111   */\n      gt\n      shl(0x20, 0x01)\n        /* \"--CODEGEN--\":25:37   */\n      dup4\n        /* \"--CODEGEN--\":22:51   */\n      gt\n        /* \"--CODEGEN--\":11:119   */\n      or\n        /* \"--CODEGEN--\":8:10   */\n      iszero\n      tag_51\n      jumpi\n        /* \"--CODEGEN--\":132:133   */\n      0x00\n        /* \"--CODEGEN--\":129:130   */\n      dup1\n        /* \"--CODEGEN--\":122:134   */\n      revert\n        /* \"--CODEGEN--\":8:10   */\n    tag_51:\n        /* \"PancakeRouter01.sol\":12405:12596  function getAmountsIn(uint amountOut, address[] memory path) public view override returns (uint[] memory amounts) {... */\n      swap2\n      swap1\n      dup1\n      dup1\n      0x20\n      mul\n      0x20\n      add\n      mload(0x40)\n      swap1\n      dup2\n      add\n      0x40\n      mstore\n      dup1\n      swap4\n      swap3\n      swap2\n      swap1\n      dup2\n      dup2\n      mstore\n      0x20\n      add\n      dup4\n      dup4\n      0x20\n      mul\n        /* \"--CODEGEN--\":30:33   */\n      dup1\n        /* \"--CODEGEN--\":22:28   */\n      dup3\n        /* \"--CODEGEN--\":14:20   */\n      dup5\n        /* \"--CODEGEN--\":1:34   */\n      calldatacopy\n        /* \"--CODEGEN--\":99:100   */\n      0x00\n        /* \"--CODEGEN--\":81:97   */\n      swap3\n      add\n        /* \"--CODEGEN--\":74:101   */\n      swap2\n      swap1\n      swap2\n      mstore\n      pop\n        /* \"PancakeRouter01.sol\":12405:12596  function getAmountsIn(uint amountOut, address[] memory path) public view override returns (uint[] memory amounts) {... */\n      swap3\n      swap6\n      pop\n      tag_52\n      swap5\n      pop\n      pop\n      pop\n      pop\n      pop\n      jump\t// in\n        /* \"PancakeRouter01.sol\":5383:6034  function removeLiquidityWithPermit(... */\n    tag_7:\n      callvalue\n        /* \"--CODEGEN--\":5:14   */\n      dup1\n        /* \"--CODEGEN--\":2:4   */\n      iszero\n      tag_56\n      jumpi\n        /* \"--CODEGEN--\":27:28   */\n      0x00\n        /* \"--CODEGEN--\":24:25   */\n      dup1\n        /* \"--CODEGEN--\":17:29   */\n      revert\n        /* \"--CODEGEN--\":2:4   */\n    tag_56:\n        /* \"PancakeRouter01.sol\":5383:6034  function removeLiquidityWithPermit(... */\n      pop\n      tag_29\n      0x04\n      dup1\n      calldatasize\n      sub\n        /* \"--CODEGEN--\":15:18   */\n      0x0160\n        /* \"--CODEGEN--\":10:13   */\n      dup2\n        /* \"--CODEGEN--\":7:19   */\n      lt\n        /* \"--CODEGEN--\":4:6   */\n      iszero\n      tag_58\n      jumpi\n        /* \"--CODEGEN--\":32:33   */\n      0x00\n        /* \"--CODEGEN--\":29:30   */\n      dup1\n        /* \"--CODEGEN--\":22:34   */\n      revert\n        /* \"--CODEGEN--\":4:6   */\n    tag_58:\n      pop\n      sub(shl(0xa0, 0x01), 0x01)\n        /* \"PancakeRouter01.sol\":5383:6034  function removeLiquidityWithPermit(... */\n      dup2\n      calldataload\n      dup2\n      and\n      swap2\n      0x20\n      dup2\n      add\n      calldataload\n      dup3\n      and\n      swap2\n      0x40\n      dup3\n      add\n      calldataload\n      swap2\n      0x60\n      dup2\n      add\n      calldataload\n      swap2\n      0x80\n      dup3\n      add\n      calldataload\n      swap2\n      0xa0\n      dup2\n      add\n      calldataload\n      swap1\n      swap2\n      and\n      swap1\n      0xc0\n      dup2\n      add\n      calldataload\n      swap1\n      0xe0\n      dup2\n      add\n      calldataload\n      iszero\n      iszero\n      swap1\n      0xff\n      0x0100\n      dup3\n      add\n      calldataload\n      and\n      swap1\n      0x0120\n      dup2\n      add\n      calldataload\n      swap1\n      0x0140\n      add\n      calldataload\n      tag_59\n      jump\t// in\n        /* \"PancakeRouter01.sol\":7472:8051  function swapExactTokensForTokens(... */\n    tag_8:\n      callvalue\n        /* \"--CODEGEN--\":5:14   */\n      dup1\n        /* \"--CODEGEN--\":2:4   */\n      iszero\n      tag_60\n      jumpi\n        /* \"--CODEGEN--\":27:28   */\n      0x00\n        /* \"--CODEGEN--\":24:25   */\n      dup1\n        /* \"--CODEGEN--\":17:29   */\n      revert\n        /* \"--CODEGEN--\":2:4   */\n    tag_60:\n        /* \"PancakeRouter01.sol\":7472:8051  function swapExactTokensForTokens(... */\n      pop\n      tag_37\n      0x04\n      dup1\n      calldatasize\n      sub\n        /* \"--CODEGEN--\":15:18   */\n      0xa0\n        /* \"--CODEGEN--\":10:13   */\n      dup2\n        /* \"--CODEGEN--\":7:19   */\n      lt\n        /* \"--CODEGEN--\":4:6   */\n      iszero\n      tag_62\n      jumpi\n        /* \"--CODEGEN--\":32:33   */\n      0x00\n        /* \"--CODEGEN--\":29:30   */\n      dup1\n        /* \"--CODEGEN--\":22:34   */\n      revert\n        /* \"--CODEGEN--\":4:6   */\n    tag_62:\n        /* \"PancakeRouter01.sol\":7472:8051  function swapExactTokensForTokens(... */\n      dup2\n      calldataload\n      swap2\n      0x20\n      dup2\n      add\n      calldataload\n      swap2\n      dup2\n      add\n      swap1\n      0x60\n      dup2\n      add\n      0x40\n      dup3\n      add\n      calldataload\n      shl(0x20, 0x01)\n        /* \"--CODEGEN--\":11:39   */\n      dup2\n      gt\n        /* \"--CODEGEN--\":8:10   */\n      iszero\n      tag_63\n      jumpi\n        /* \"--CODEGEN--\":52:53   */\n      0x00\n        /* \"--CODEGEN--\":49:50   */\n      dup1\n        /* \"--CODEGEN--\":42:54   */\n      revert\n        /* \"--CODEGEN--\":8:10   */\n    tag_63:\n        /* \"PancakeRouter01.sol\":7472:8051  function swapExactTokensForTokens(... */\n      dup3\n      add\n        /* \"--CODEGEN--\":41:50   */\n      dup4\n        /* \"--CODEGEN--\":34:38   */\n      0x20\n        /* \"--CODEGEN--\":18:32   */\n      dup3\n        /* \"--CODEGEN--\":14:39   */\n      add\n        /* \"--CODEGEN--\":11:51   */\n      gt\n        /* \"--CODEGEN--\":8:10   */\n      iszero\n      tag_64\n      jumpi\n        /* \"--CODEGEN--\":64:65   */\n      0x00\n        /* \"--CODEGEN--\":61:62   */\n      dup1\n        /* \"--CODEGEN--\":54:66   */\n      revert\n        /* \"--CODEGEN--\":8:10   */\n    tag_64:\n        /* \"PancakeRouter01.sol\":7472:8051  function swapExactTokensForTokens(... */\n      dup1\n      calldataload\n      swap1\n      0x20\n      add\n      swap2\n        /* \"--CODEGEN--\":101:110   */\n      dup5\n        /* \"--CODEGEN--\":95:97   */\n      0x20\n        /* \"--CODEGEN--\":81:93   */\n      dup4\n        /* \"--CODEGEN--\":77:98   */\n      mul\n        /* \"--CODEGEN--\":67:75   */\n      dup5\n        /* \"--CODEGEN--\":63:99   */\n      add\n        /* \"--CODEGEN--\":60:111   */\n      gt\n      shl(0x20, 0x01)\n        /* \"--CODEGEN--\":25:37   */\n      dup4\n        /* \"--CODEGEN--\":22:51   */\n      gt\n        /* \"--CODEGEN--\":11:119   */\n      or\n        /* \"--CODEGEN--\":8:10   */\n      iszero\n      tag_65\n      jumpi\n        /* \"--CODEGEN--\":132:133   */\n      0x00\n        /* \"--CODEGEN--\":129:130   */\n      dup1\n        /* \"--CODEGEN--\":122:134   */\n      revert\n        /* \"--CODEGEN--\":8:10   */\n    tag_65:\n        /* \"PancakeRouter01.sol\":7472:8051  function swapExactTokensForTokens(... */\n      swap2\n      swap4\n      pop\n      swap2\n      pop\n      sub(shl(0xa0, 0x01), 0x01)\n      dup2\n      calldataload\n      and\n      swap1\n      0x20\n      add\n      calldataload\n      tag_66\n      jump\t// in\n        /* \"PancakeRouter01.sol\":9282:10048  function swapTokensForExactETH(uint amountOut, uint amountInMax, address[] calldata path, address to, uint deadline)... */\n    tag_9:\n      callvalue\n        /* \"--CODEGEN--\":5:14   */\n      dup1\n        /* \"--CODEGEN--\":2:4   */\n      iszero\n      tag_70\n      jumpi\n        /* \"--CODEGEN--\":27:28   */\n      0x00\n        /* \"--CODEGEN--\":24:25   */\n      dup1\n        /* \"--CODEGEN--\":17:29   */\n      revert\n        /* \"--CODEGEN--\":2:4   */\n    tag_70:\n        /* \"PancakeRouter01.sol\":9282:10048  function swapTokensForExactETH(uint amountOut, uint amountInMax, address[] calldata path, address to, uint deadline)... */\n      pop\n      tag_37\n      0x04\n      dup1\n      calldatasize\n      sub\n        /* \"--CODEGEN--\":15:18   */\n      0xa0\n        /* \"--CODEGEN--\":10:13   */\n      dup2\n        /* \"--CODEGEN--\":7:19   */\n      lt\n        /* \"--CODEGEN--\":4:6   */\n      iszero\n      tag_72\n      jumpi\n        /* \"--CODEGEN--\":32:33   */\n      0x00\n        /* \"--CODEGEN--\":29:30   */\n      dup1\n        /* \"--CODEGEN--\":22:34   */\n      revert\n        /* \"--CODEGEN--\":4:6   */\n    tag_72:\n        /* \"PancakeRouter01.sol\":9282:10048  function swapTokensForExactETH(uint amountOut, uint amountInMax, address[] calldata path, address to, uint deadline)... */\n      dup2\n      calldataload\n      swap2\n      0x20\n      dup2\n      add\n      calldataload\n      swap2\n      dup2\n      add\n      swap1\n      0x60\n      dup2\n      add\n      0x40\n      dup3\n      add\n      calldataload\n      shl(0x20, 0x01)\n        /* \"--CODEGEN--\":11:39   */\n      dup2\n      gt\n        /* \"--CODEGEN--\":8:10   */\n      iszero\n      tag_73\n      jumpi\n        /* \"--CODEGEN--\":52:53   */\n      0x00\n        /* \"--CODEGEN--\":49:50   */\n      dup1\n        /* \"--CODEGEN--\":42:54   */\n      revert\n        /* \"--CODEGEN--\":8:10   */\n    tag_73:\n        /* \"PancakeRouter01.sol\":9282:10048  function swapTokensForExactETH(uint amountOut, uint amountInMax, address[] calldata path, address to, uint deadline)... */\n      dup3\n      add\n        /* \"--CODEGEN--\":41:50   */\n      dup4\n        /* \"--CODEGEN--\":34:38   */\n      0x20\n        /* \"--CODEGEN--\":18:32   */\n      dup3\n        /* \"--CODEGEN--\":14:39   */\n      add\n        /* \"--CODEGEN--\":11:51   */\n      gt\n        /* \"--CODEGEN--\":8:10   */\n      iszero\n      tag_74\n      jumpi\n        /* \"--CODEGEN--\":64:65   */\n      0x00\n        /* \"--CODEGEN--\":61:62   */\n      dup1\n        /* \"--CODEGEN--\":54:66   */\n      revert\n        /* \"--CODEGEN--\":8:10   */\n    tag_74:\n        /* \"PancakeRouter01.sol\":9282:10048  function swapTokensForExactETH(uint amountOut, uint amountInMax, address[] calldata path, address to, uint deadline)... */\n      dup1\n      calldataload\n      swap1\n      0x20\n      add\n      swap2\n        /* \"--CODEGEN--\":101:110   */\n      dup5\n        /* \"--CODEGEN--\":95:97   */\n      0x20\n        /* \"--CODEGEN--\":81:93   */\n      dup4\n        /* \"--CODEGEN--\":77:98   */\n      mul\n        /* \"--CODEGEN--\":67:75   */\n      dup5\n        /* \"--CODEGEN--\":63:99   */\n      add\n        /* \"--CODEGEN--\":60:111   */\n      gt\n      shl(0x20, 0x01)\n        /* \"--CODEGEN--\":25:37   */\n      dup4\n        /* \"--CODEGEN--\":22:51   */\n      gt\n        /* \"--CODEGEN--\":11:119   */\n      or\n        /* \"--CODEGEN--\":8:10   */\n      iszero\n      tag_75\n      jumpi\n        /* \"--CODEGEN--\":132:133   */\n      0x00\n        /* \"--CODEGEN--\":129:130   */\n      dup1\n        /* \"--CODEGEN--\":122:134   */\n      revert\n        /* \"--CODEGEN--\":8:10   */\n    tag_75:\n        /* \"PancakeRouter01.sol\":9282:10048  function swapTokensForExactETH(uint amountOut, uint amountInMax, address[] calldata path, address to, uint deadline)... */\n      swap2\n      swap4\n      pop\n      swap2\n      pop\n      sub(shl(0xa0, 0x01), 0x01)\n      dup2\n      calldataload\n      and\n      swap1\n      0x20\n      add\n      calldataload\n      tag_76\n      jump\t// in\n        /* \"PancakeRouter01.sol\":8618:9277  function swapExactETHForTokens(uint amountOutMin, address[] calldata path, address to, uint deadline)... */\n    tag_10:\n      tag_37\n      0x04\n      dup1\n      calldatasize\n      sub\n        /* \"--CODEGEN--\":15:18   */\n      0x80\n        /* \"--CODEGEN--\":10:13   */\n      dup2\n        /* \"--CODEGEN--\":7:19   */\n      lt\n        /* \"--CODEGEN--\":4:6   */\n      iszero\n      tag_81\n      jumpi\n        /* \"--CODEGEN--\":32:33   */\n      0x00\n        /* \"--CODEGEN--\":29:30   */\n      dup1\n        /* \"--CODEGEN--\":22:34   */\n      revert\n        /* \"--CODEGEN--\":4:6   */\n    tag_81:\n        /* \"PancakeRouter01.sol\":8618:9277  function swapExactETHForTokens(uint amountOutMin, address[] calldata path, address to, uint deadline)... */\n      dup2\n      calldataload\n      swap2\n      swap1\n      dup2\n      add\n      swap1\n      0x40\n      dup2\n      add\n      0x20\n      dup3\n      add\n      calldataload\n      shl(0x20, 0x01)\n        /* \"--CODEGEN--\":11:39   */\n      dup2\n      gt\n        /* \"--CODEGEN--\":8:10   */\n      iszero\n      tag_82\n      jumpi\n        /* \"--CODEGEN--\":52:53   */\n      0x00\n        /* \"--CODEGEN--\":49:50   */\n      dup1\n        /* \"--CODEGEN--\":42:54   */\n      revert\n        /* \"--CODEGEN--\":8:10   */\n    tag_82:\n        /* \"PancakeRouter01.sol\":8618:9277  function swapExactETHForTokens(uint amountOutMin, address[] calldata path, address to, uint deadline)... */\n      dup3\n      add\n        /* \"--CODEGEN--\":41:50   */\n      dup4\n        /* \"--CODEGEN--\":34:38   */\n      0x20\n        /* \"--CODEGEN--\":18:32   */\n      dup3\n        /* \"--CODEGEN--\":14:39   */\n      add\n        /* \"--CODEGEN--\":11:51   */\n      gt\n        /* \"--CODEGEN--\":8:10   */\n      iszero\n      tag_83\n      jumpi\n        /* \"--CODEGEN--\":64:65   */\n      0x00\n        /* \"--CODEGEN--\":61:62   */\n      dup1\n        /* \"--CODEGEN--\":54:66   */\n      revert\n        /* \"--CODEGEN--\":8:10   */\n    tag_83:\n        /* \"PancakeRouter01.sol\":8618:9277  function swapExactETHForTokens(uint amountOutMin, address[] calldata path, address to, uint deadline)... */\n      dup1\n      calldataload\n      swap1\n      0x20\n      add\n      swap2\n        /* \"--CODEGEN--\":101:110   */\n      dup5\n        /* \"--CODEGEN--\":95:97   */\n      0x20\n        /* \"--CODEGEN--\":81:93   */\n      dup4\n        /* \"--CODEGEN--\":77:98   */\n      mul\n        /* \"--CODEGEN--\":67:75   */\n      dup5\n        /* \"--CODEGEN--\":63:99   */\n      add\n        /* \"--CODEGEN--\":60:111   */\n      gt\n      shl(0x20, 0x01)\n        /* \"--CODEGEN--\":25:37   */\n      dup4\n        /* \"--CODEGEN--\":22:51   */\n      gt\n        /* \"--CODEGEN--\":11:119   */\n      or\n        /* \"--CODEGEN--\":8:10   */\n      iszero\n      tag_84\n      jumpi\n        /* \"--CODEGEN--\":132:133   */\n      0x00\n        /* \"--CODEGEN--\":129:130   */\n      dup1\n        /* \"--CODEGEN--\":122:134   */\n      revert\n        /* \"--CODEGEN--\":8:10   */\n    tag_84:\n        /* \"PancakeRouter01.sol\":8618:9277  function swapExactETHForTokens(uint amountOutMin, address[] calldata path, address to, uint deadline)... */\n      swap2\n      swap4\n      pop\n      swap2\n      pop\n      sub(shl(0xa0, 0x01), 0x01)\n      dup2\n      calldataload\n      and\n      swap1\n      0x20\n      add\n      calldataload\n      tag_85\n      jump\t// in\n        /* \"PancakeRouter01.sol\":8056:8613  function swapTokensForExactTokens(... */\n    tag_12:\n      callvalue\n        /* \"--CODEGEN--\":5:14   */\n      dup1\n        /* \"--CODEGEN--\":2:4   */\n      iszero\n      tag_93\n      jumpi\n        /* \"--CODEGEN--\":27:28   */\n      0x00\n        /* \"--CODEGEN--\":24:25   */\n      dup1\n        /* \"--CODEGEN--\":17:29   */\n      revert\n        /* \"--CODEGEN--\":2:4   */\n    tag_93:\n        /* \"PancakeRouter01.sol\":8056:8613  function swapTokensForExactTokens(... */\n      pop\n      tag_37\n      0x04\n      dup1\n      calldatasize\n      sub\n        /* \"--CODEGEN--\":15:18   */\n      0xa0\n        /* \"--CODEGEN--\":10:13   */\n      dup2\n        /* \"--CODEGEN--\":7:19   */\n      lt\n        /* \"--CODEGEN--\":4:6   */\n      iszero\n      tag_95\n      jumpi\n        /* \"--CODEGEN--\":32:33   */\n      0x00\n        /* \"--CODEGEN--\":29:30   */\n      dup1\n        /* \"--CODEGEN--\":22:34   */\n      revert\n        /* \"--CODEGEN--\":4:6   */\n    tag_95:\n        /* \"PancakeRouter01.sol\":8056:8613  function swapTokensForExactTokens(... */\n      dup2\n      calldataload\n      swap2\n      0x20\n      dup2\n      add\n      calldataload\n      swap2\n      dup2\n      add\n      swap1\n      0x60\n      dup2\n      add\n      0x40\n      dup3\n      add\n      calldataload\n      shl(0x20, 0x01)\n        /* \"--CODEGEN--\":11:39   */\n      dup2\n      gt\n        /* \"--CODEGEN--\":8:10   */\n      iszero\n      tag_96\n      jumpi\n        /* \"--CODEGEN--\":52:53   */\n      0x00\n        /* \"--CODEGEN--\":49:50   */\n      dup1\n        /* \"--CODEGEN--\":42:54   */\n      revert\n        /* \"--CODEGEN--\":8:10   */\n    tag_96:\n        /* \"PancakeRouter01.sol\":8056:8613  function swapTokensForExactTokens(... */\n      dup3\n      add\n        /* \"--CODEGEN--\":41:50   */\n      dup4\n        /* \"--CODEGEN--\":34:38   */\n      0x20\n        /* \"--CODEGEN--\":18:32   */\n      dup3\n        /* \"--CODEGEN--\":14:39   */\n      add\n        /* \"--CODEGEN--\":11:51   */\n      gt\n        /* \"--CODEGEN--\":8:10   */\n      iszero\n      tag_97\n      jumpi\n        /* \"--CODEGEN--\":64:65   */\n      0x00\n        /* \"--CODEGEN--\":61:62   */\n      dup1\n        /* \"--CODEGEN--\":54:66   */\n      revert\n        /* \"--CODEGEN--\":8:10   */\n    tag_97:\n        /* \"PancakeRouter01.sol\":8056:8613  function swapTokensForExactTokens(... */\n      dup1\n      calldataload\n      swap1\n      0x20\n      add\n      swap2\n        /* \"--CODEGEN--\":101:110   */\n      dup5\n        /* \"--CODEGEN--\":95:97   */\n      0x20\n        /* \"--CODEGEN--\":81:93   */\n      dup4\n        /* \"--CODEGEN--\":77:98   */\n      mul\n        /* \"--CODEGEN--\":67:75   */\n      dup5\n        /* \"--CODEGEN--\":63:99   */\n      add\n        /* \"--CODEGEN--\":60:111   */\n      gt\n      shl(0x20, 0x01)\n        /* \"--CODEGEN--\":25:37   */\n      dup4\n        /* \"--CODEGEN--\":22:51   */\n      gt\n        /* \"--CODEGEN--\":11:119   */\n      or\n        /* \"--CODEGEN--\":8:10   */\n      iszero\n      tag_98\n      jumpi\n        /* \"--CODEGEN--\":132:133   */\n      0x00\n        /* \"--CODEGEN--\":129:130   */\n      dup1\n        /* \"--CODEGEN--\":122:134   */\n      revert\n        /* \"--CODEGEN--\":8:10   */\n    tag_98:\n        /* \"PancakeRouter01.sol\":8056:8613  function swapTokensForExactTokens(... */\n      swap2\n      swap4\n      pop\n      swap2\n      pop\n      sub(shl(0xa0, 0x01), 0x01)\n      dup2\n      calldataload\n      and\n      swap1\n      0x20\n      add\n      calldataload\n      tag_99\n      jump\t// in\n        /* \"PancakeRouter01.sol\":418:456  address public immutable override WETH */\n    tag_13:\n      callvalue\n        /* \"--CODEGEN--\":5:14   */\n      dup1\n        /* \"--CODEGEN--\":2:4   */\n      iszero\n      tag_103\n      jumpi\n        /* \"--CODEGEN--\":27:28   */\n      0x00\n        /* \"--CODEGEN--\":24:25   */\n      dup1\n        /* \"--CODEGEN--\":17:29   */\n      revert\n        /* \"--CODEGEN--\":2:4   */\n    tag_103:\n        /* \"PancakeRouter01.sol\":418:456  address public immutable override WETH */\n      pop\n      tag_104\n      tag_105\n      jump\t// in\n    tag_104:\n      0x40\n      dup1\n      mload\n      sub(shl(0xa0, 0x01), 0x01)\n      swap1\n      swap3\n      and\n      dup3\n      mstore\n      mload\n      swap1\n      dup2\n      swap1\n      sub\n      0x20\n      add\n      swap1\n      return\n        /* \"PancakeRouter01.sol\":11614:11790  function quote(uint amountA, uint reserveA, uint reserveB) public pure override returns (uint amountB) {... */\n    tag_14:\n      callvalue\n        /* \"--CODEGEN--\":5:14   */\n      dup1\n        /* \"--CODEGEN--\":2:4   */\n      iszero\n      tag_106\n      jumpi\n        /* \"--CODEGEN--\":27:28   */\n      0x00\n        /* \"--CODEGEN--\":24:25   */\n      dup1\n        /* \"--CODEGEN--\":17:29   */\n      revert\n        /* \"--CODEGEN--\":2:4   */\n    tag_106:\n        /* \"PancakeRouter01.sol\":11614:11790  function quote(uint amountA, uint reserveA, uint reserveB) public pure override returns (uint amountB) {... */\n      pop\n      tag_33\n      0x04\n      dup1\n      calldatasize\n      sub\n        /* \"--CODEGEN--\":15:17   */\n      0x60\n        /* \"--CODEGEN--\":10:13   */\n      dup2\n        /* \"--CODEGEN--\":7:18   */\n      lt\n        /* \"--CODEGEN--\":4:6   */\n      iszero\n      tag_108\n      jumpi\n        /* \"--CODEGEN--\":31:32   */\n      0x00\n        /* \"--CODEGEN--\":28:29   */\n      dup1\n        /* \"--CODEGEN--\":21:33   */\n      revert\n        /* \"--CODEGEN--\":4:6   */\n    tag_108:\n      pop\n        /* \"PancakeRouter01.sol\":11614:11790  function quote(uint amountA, uint reserveA, uint reserveB) public pure override returns (uint amountB) {... */\n      dup1\n      calldataload\n      swap1\n      0x20\n      dup2\n      add\n      calldataload\n      swap1\n      0x40\n      add\n      calldataload\n      tag_109\n      jump\t// in\n        /* \"PancakeRouter01.sol\":3899:4728  function removeLiquidity(... */\n    tag_15:\n      callvalue\n        /* \"--CODEGEN--\":5:14   */\n      dup1\n        /* \"--CODEGEN--\":2:4   */\n      iszero\n      tag_110\n      jumpi\n        /* \"--CODEGEN--\":27:28   */\n      0x00\n        /* \"--CODEGEN--\":24:25   */\n      dup1\n        /* \"--CODEGEN--\":17:29   */\n      revert\n        /* \"--CODEGEN--\":2:4   */\n    tag_110:\n        /* \"PancakeRouter01.sol\":3899:4728  function removeLiquidity(... */\n      pop\n      tag_29\n      0x04\n      dup1\n      calldatasize\n      sub\n        /* \"--CODEGEN--\":15:18   */\n      0xe0\n        /* \"--CODEGEN--\":10:13   */\n      dup2\n        /* \"--CODEGEN--\":7:19   */\n      lt\n        /* \"--CODEGEN--\":4:6   */\n      iszero\n      tag_112\n      jumpi\n        /* \"--CODEGEN--\":32:33   */\n      0x00\n        /* \"--CODEGEN--\":29:30   */\n      dup1\n        /* \"--CODEGEN--\":22:34   */\n      revert\n        /* \"--CODEGEN--\":4:6   */\n    tag_112:\n      pop\n      sub(shl(0xa0, 0x01), 0x01)\n        /* \"PancakeRouter01.sol\":3899:4728  function removeLiquidity(... */\n      dup2\n      calldataload\n      dup2\n      and\n      swap2\n      0x20\n      dup2\n      add\n      calldataload\n      dup3\n      and\n      swap2\n      0x40\n      dup3\n      add\n      calldataload\n      swap2\n      0x60\n      dup2\n      add\n      calldataload\n      swap2\n      0x80\n      dup3\n      add\n      calldataload\n      swap2\n      0xa0\n      dup2\n      add\n      calldataload\n      swap1\n      swap2\n      and\n      swap1\n      0xc0\n      add\n      calldataload\n      tag_113\n      jump\t// in\n        /* \"PancakeRouter01.sol\":371:412  address public immutable override factory */\n    tag_16:\n      callvalue\n        /* \"--CODEGEN--\":5:14   */\n      dup1\n        /* \"--CODEGEN--\":2:4   */\n      iszero\n      tag_114\n      jumpi\n        /* \"--CODEGEN--\":27:28   */\n      0x00\n        /* \"--CODEGEN--\":24:25   */\n      dup1\n        /* \"--CODEGEN--\":17:29   */\n      revert\n        /* \"--CODEGEN--\":2:4   */\n    tag_114:\n        /* \"PancakeRouter01.sol\":371:412  address public immutable override factory */\n      pop\n      tag_104\n      tag_116\n      jump\t// in\n        /* \"PancakeRouter01.sol\":12208:12399  function getAmountsOut(uint amountIn, address[] memory path) public view override returns (uint[] memory amounts) {... */\n    tag_17:\n      callvalue\n        /* \"--CODEGEN--\":5:14   */\n      dup1\n        /* \"--CODEGEN--\":2:4   */\n      iszero\n      tag_117\n      jumpi\n        /* \"--CODEGEN--\":27:28   */\n      0x00\n        /* \"--CODEGEN--\":24:25   */\n      dup1\n        /* \"--CODEGEN--\":17:29   */\n      revert\n        /* \"--CODEGEN--\":2:4   */\n    tag_117:\n        /* \"PancakeRouter01.sol\":12208:12399  function getAmountsOut(uint amountIn, address[] memory path) public view override returns (uint[] memory amounts) {... */\n      pop\n      tag_37\n      0x04\n      dup1\n      calldatasize\n      sub\n        /* \"--CODEGEN--\":15:17   */\n      0x40\n        /* \"--CODEGEN--\":10:13   */\n      dup2\n        /* \"--CODEGEN--\":7:18   */\n      lt\n        /* \"--CODEGEN--\":4:6   */\n      iszero\n      tag_119\n      jumpi\n        /* \"--CODEGEN--\":31:32   */\n      0x00\n        /* \"--CODEGEN--\":28:29   */\n      dup1\n        /* \"--CODEGEN--\":21:33   */\n      revert\n        /* \"--CODEGEN--\":4:6   */\n    tag_119:\n        /* \"PancakeRouter01.sol\":12208:12399  function getAmountsOut(uint amountIn, address[] memory path) public view override returns (uint[] memory amounts) {... */\n      dup2\n      calldataload\n      swap2\n      swap1\n      dup2\n      add\n      swap1\n      0x40\n      dup2\n      add\n      0x20\n      dup3\n      add\n      calldataload\n      shl(0x20, 0x01)\n        /* \"--CODEGEN--\":11:39   */\n      dup2\n      gt\n        /* \"--CODEGEN--\":8:10   */\n      iszero\n      tag_120\n      jumpi\n        /* \"--CODEGEN--\":52:53   */\n      0x00\n        /* \"--CODEGEN--\":49:50   */\n      dup1\n        /* \"--CODEGEN--\":42:54   */\n      revert\n        /* \"--CODEGEN--\":8:10   */\n    tag_120:\n        /* \"PancakeRouter01.sol\":12208:12399  function getAmountsOut(uint amountIn, address[] memory path) public view override returns (uint[] memory amounts) {... */\n      dup3\n      add\n        /* \"--CODEGEN--\":41:50   */\n      dup4\n        /* \"--CODEGEN--\":34:38   */\n      0x20\n        /* \"--CODEGEN--\":18:32   */\n      dup3\n        /* \"--CODEGEN--\":14:39   */\n      add\n        /* \"--CODEGEN--\":11:51   */\n      gt\n        /* \"--CODEGEN--\":8:10   */\n      iszero\n      tag_121\n      jumpi\n        /* \"--CODEGEN--\":64:65   */\n      0x00\n        /* \"--CODEGEN--\":61:62   */\n      dup1\n        /* \"--CODEGEN--\":54:66   */\n      revert\n        /* \"--CODEGEN--\":8:10   */\n    tag_121:\n        /* \"PancakeRouter01.sol\":12208:12399  function getAmountsOut(uint amountIn, address[] memory path) public view override returns (uint[] memory amounts) {... */\n      dup1\n      calldataload\n      swap1\n      0x20\n      add\n      swap2\n        /* \"--CODEGEN--\":101:110   */\n      dup5\n        /* \"--CODEGEN--\":95:97   */\n      0x20\n        /* \"--CODEGEN--\":81:93   */\n      dup4\n        /* \"--CODEGEN--\":77:98   */\n      mul\n        /* \"--CODEGEN--\":67:75   */\n      dup5\n        /* \"--CODEGEN--\":63:99   */\n      add\n        /* \"--CODEGEN--\":60:111   */\n      gt\n      shl(0x20, 0x01)\n        /* \"--CODEGEN--\":25:37   */\n      dup4\n        /* \"--CODEGEN--\":22:51   */\n      gt\n        /* \"--CODEGEN--\":11:119   */\n      or\n        /* \"--CODEGEN--\":8:10   */\n      iszero\n      tag_122\n      jumpi\n        /* \"--CODEGEN--\":132:133   */\n      0x00\n        /* \"--CODEGEN--\":129:130   */\n      dup1\n        /* \"--CODEGEN--\":122:134   */\n      revert\n        /* \"--CODEGEN--\":8:10   */\n    tag_122:\n        /* \"PancakeRouter01.sol\":12208:12399  function getAmountsOut(uint amountIn, address[] memory path) public view override returns (uint[] memory amounts) {... */\n      swap2\n      swap1\n      dup1\n      dup1\n      0x20\n      mul\n      0x20\n      add\n      mload(0x40)\n      swap1\n      dup2\n      add\n      0x40\n      mstore\n      dup1\n      swap4\n      swap3\n      swap2\n      swap1\n      dup2\n      dup2\n      mstore\n      0x20\n      add\n      dup4\n      dup4\n      0x20\n      mul\n        /* \"--CODEGEN--\":30:33   */\n      dup1\n        /* \"--CODEGEN--\":22:28   */\n      dup3\n        /* \"--CODEGEN--\":14:20   */\n      dup5\n        /* \"--CODEGEN--\":1:34   */\n      calldatacopy\n        /* \"--CODEGEN--\":99:100   */\n      0x00\n        /* \"--CODEGEN--\":81:97   */\n      swap3\n      add\n        /* \"--CODEGEN--\":74:101   */\n      swap2\n      swap1\n      swap2\n      mstore\n      pop\n        /* \"PancakeRouter01.sol\":12208:12399  function getAmountsOut(uint amountIn, address[] memory path) public view override returns (uint[] memory amounts) {... */\n      swap3\n      swap6\n      pop\n      tag_123\n      swap5\n      pop\n      pop\n      pop\n      pop\n      pop\n      jump\t// in\n        /* \"PancakeRouter01.sol\":6039:6683  function removeLiquidityETHWithPermit(... */\n    tag_18:\n      callvalue\n        /* \"--CODEGEN--\":5:14   */\n      dup1\n        /* \"--CODEGEN--\":2:4   */\n      iszero\n      tag_127\n      jumpi\n        /* \"--CODEGEN--\":27:28   */\n      0x00\n        /* \"--CODEGEN--\":24:25   */\n      dup1\n        /* \"--CODEGEN--\":17:29   */\n      revert\n        /* \"--CODEGEN--\":2:4   */\n    tag_127:\n        /* \"PancakeRouter01.sol\":6039:6683  function removeLiquidityETHWithPermit(... */\n      pop\n      tag_29\n      0x04\n      dup1\n      calldatasize\n      sub\n        /* \"--CODEGEN--\":15:18   */\n      0x0140\n        /* \"--CODEGEN--\":10:13   */\n      dup2\n        /* \"--CODEGEN--\":7:19   */\n      lt\n        /* \"--CODEGEN--\":4:6   */\n      iszero\n      tag_129\n      jumpi\n        /* \"--CODEGEN--\":32:33   */\n      0x00\n        /* \"--CODEGEN--\":29:30   */\n      dup1\n        /* \"--CODEGEN--\":22:34   */\n      revert\n        /* \"--CODEGEN--\":4:6   */\n    tag_129:\n      pop\n      sub(shl(0xa0, 0x01), 0x01)\n        /* \"PancakeRouter01.sol\":6039:6683  function removeLiquidityETHWithPermit(... */\n      dup2\n      calldataload\n      dup2\n      and\n      swap2\n      0x20\n      dup2\n      add\n      calldataload\n      swap2\n      0x40\n      dup3\n      add\n      calldataload\n      swap2\n      0x60\n      dup2\n      add\n      calldataload\n      swap2\n      0x80\n      dup3\n      add\n      calldataload\n      and\n      swap1\n      0xa0\n      dup2\n      add\n      calldataload\n      swap1\n      0xc0\n      dup2\n      add\n      calldataload\n      iszero\n      iszero\n      swap1\n      0xff\n      0xe0\n      dup3\n      add\n      calldataload\n      and\n      swap1\n      0x0100\n      dup2\n      add\n      calldataload\n      swap1\n      0x0120\n      add\n      calldataload\n      tag_130\n      jump\t// in\n        /* \"PancakeRouter01.sol\":2212:2923  function addLiquidity(... */\n    tag_19:\n      callvalue\n        /* \"--CODEGEN--\":5:14   */\n      dup1\n        /* \"--CODEGEN--\":2:4   */\n      iszero\n      tag_131\n      jumpi\n        /* \"--CODEGEN--\":27:28   */\n      0x00\n        /* \"--CODEGEN--\":24:25   */\n      dup1\n        /* \"--CODEGEN--\":17:29   */\n      revert\n        /* \"--CODEGEN--\":2:4   */\n    tag_131:\n        /* \"PancakeRouter01.sol\":2212:2923  function addLiquidity(... */\n      pop\n      tag_132\n      0x04\n      dup1\n      calldatasize\n      sub\n        /* \"--CODEGEN--\":15:18   */\n      0x0100\n        /* \"--CODEGEN--\":10:13   */\n      dup2\n        /* \"--CODEGEN--\":7:19   */\n      lt\n        /* \"--CODEGEN--\":4:6   */\n      iszero\n      tag_133\n      jumpi\n        /* \"--CODEGEN--\":32:33   */\n      0x00\n        /* \"--CODEGEN--\":29:30   */\n      dup1\n        /* \"--CODEGEN--\":22:34   */\n      revert\n        /* \"--CODEGEN--\":4:6   */\n    tag_133:\n      pop\n      sub(shl(0xa0, 0x01), 0x01)\n        /* \"PancakeRouter01.sol\":2212:2923  function addLiquidity(... */\n      dup2\n      calldataload\n      dup2\n      and\n      swap2\n      0x20\n      dup2\n      add\n      calldataload\n      dup3\n      and\n      swap2\n      0x40\n      dup3\n      add\n      calldataload\n      swap2\n      0x60\n      dup2\n      add\n      calldataload\n      swap2\n      0x80\n      dup3\n      add\n      calldataload\n      swap2\n      0xa0\n      dup2\n      add\n      calldataload\n      swap2\n      0xc0\n      dup3\n      add\n      calldataload\n      and\n      swap1\n      0xe0\n      add\n      calldataload\n      tag_134\n      jump\t// in\n    tag_132:\n      0x40\n      dup1\n      mload\n      swap4\n      dup5\n      mstore\n      0x20\n      dup5\n      add\n      swap3\n      swap1\n      swap3\n      mstore\n      dup3\n      dup3\n      add\n      mstore\n      mload\n      swap1\n      dup2\n      swap1\n      sub\n      0x60\n      add\n      swap1\n      return\n        /* \"PancakeRouter01.sol\":2928:3859  function addLiquidityETH(... */\n    tag_20:\n      tag_132\n      0x04\n      dup1\n      calldatasize\n      sub\n        /* \"--CODEGEN--\":15:18   */\n      0xc0\n        /* \"--CODEGEN--\":10:13   */\n      dup2\n        /* \"--CODEGEN--\":7:19   */\n      lt\n        /* \"--CODEGEN--\":4:6   */\n      iszero\n      tag_136\n      jumpi\n        /* \"--CODEGEN--\":32:33   */\n      0x00\n        /* \"--CODEGEN--\":29:30   */\n      dup1\n        /* \"--CODEGEN--\":22:34   */\n      revert\n        /* \"--CODEGEN--\":4:6   */\n    tag_136:\n      pop\n      sub(shl(0xa0, 0x01), 0x01)\n        /* \"PancakeRouter01.sol\":2928:3859  function addLiquidityETH(... */\n      dup2\n      calldataload\n      dup2\n      and\n      swap2\n      0x20\n      dup2\n      add\n      calldataload\n      swap2\n      0x40\n      dup3\n      add\n      calldataload\n      swap2\n      0x60\n      dup2\n      add\n      calldataload\n      swap2\n      0x80\n      dup3\n      add\n      calldataload\n      and\n      swap1\n      0xa0\n      add\n      calldataload\n      tag_137\n      jump\t// in\n        /* \"PancakeRouter01.sol\":10846:11608  function swapETHForExactTokens(uint amountOut, address[] calldata path, address to, uint deadline)... */\n    tag_21:\n      tag_37\n      0x04\n      dup1\n      calldatasize\n      sub\n        /* \"--CODEGEN--\":15:18   */\n      0x80\n        /* \"--CODEGEN--\":10:13   */\n      dup2\n        /* \"--CODEGEN--\":7:19   */\n      lt\n        /* \"--CODEGEN--\":4:6   */\n      iszero\n      tag_139\n      jumpi\n        /* \"--CODEGEN--\":32:33   */\n      0x00\n        /* \"--CODEGEN--\":29:30   */\n      dup1\n        /* \"--CODEGEN--\":22:34   */\n      revert\n        /* \"--CODEGEN--\":4:6   */\n    tag_139:\n        /* \"PancakeRouter01.sol\":10846:11608  function swapETHForExactTokens(uint amountOut, address[] calldata path, address to, uint deadline)... */\n      dup2\n      calldataload\n      swap2\n      swap1\n      dup2\n      add\n      swap1\n      0x40\n      dup2\n      add\n      0x20\n      dup3\n      add\n      calldataload\n      shl(0x20, 0x01)\n        /* \"--CODEGEN--\":11:39   */\n      dup2\n      gt\n        /* \"--CODEGEN--\":8:10   */\n      iszero\n      tag_140\n      jumpi\n        /* \"--CODEGEN--\":52:53   */\n      0x00\n        /* \"--CODEGEN--\":49:50   */\n      dup1\n        /* \"--CODEGEN--\":42:54   */\n      revert\n        /* \"--CODEGEN--\":8:10   */\n    tag_140:\n        /* \"PancakeRouter01.sol\":10846:11608  function swapETHForExactTokens(uint amountOut, address[] calldata path, address to, uint deadline)... */\n      dup3\n      add\n        /* \"--CODEGEN--\":41:50   */\n      dup4\n        /* \"--CODEGEN--\":34:38   */\n      0x20\n        /* \"--CODEGEN--\":18:32   */\n      dup3\n        /* \"--CODEGEN--\":14:39   */\n      add\n        /* \"--CODEGEN--\":11:51   */\n      gt\n        /* \"--CODEGEN--\":8:10   */\n      iszero\n      tag_141\n      jumpi\n        /* \"--CODEGEN--\":64:65   */\n      0x00\n        /* \"--CODEGEN--\":61:62   */\n      dup1\n        /* \"--CODEGEN--\":54:66   */\n      revert\n        /* \"--CODEGEN--\":8:10   */\n    tag_141:\n        /* \"PancakeRouter01.sol\":10846:11608  function swapETHForExactTokens(uint amountOut, address[] calldata path, address to, uint deadline)... */\n      dup1\n      calldataload\n      swap1\n      0x20\n      add\n      swap2\n        /* \"--CODEGEN--\":101:110   */\n      dup5\n        /* \"--CODEGEN--\":95:97   */\n      0x20\n        /* \"--CODEGEN--\":81:93   */\n      dup4\n        /* \"--CODEGEN--\":77:98   */\n      mul\n        /* \"--CODEGEN--\":67:75   */\n      dup5\n        /* \"--CODEGEN--\":63:99   */\n      add\n        /* \"--CODEGEN--\":60:111   */\n      gt\n      shl(0x20, 0x01)\n        /* \"--CODEGEN--\":25:37   */\n      dup4\n        /* \"--CODEGEN--\":22:51   */\n      gt\n        /* \"--CODEGEN--\":11:119   */\n      or\n        /* \"--CODEGEN--\":8:10   */\n      iszero\n      tag_142\n      jumpi\n        /* \"--CODEGEN--\":132:133   */\n      0x00\n        /* \"--CODEGEN--\":129:130   */\n      dup1\n        /* \"--CODEGEN--\":122:134   */\n      revert\n        /* \"--CODEGEN--\":8:10   */\n    tag_142:\n        /* \"PancakeRouter01.sol\":10846:11608  function swapETHForExactTokens(uint amountOut, address[] calldata path, address to, uint deadline)... */\n      swap2\n      swap4\n      pop\n      swap2\n      pop\n      sub(shl(0xa0, 0x01), 0x01)\n      dup2\n      calldataload\n      and\n      swap1\n      0x20\n      add\n      calldataload\n      tag_143\n      jump\t// in\n        /* \"PancakeRouter01.sol\":4733:5378  function removeLiquidityETH(... */\n    tag_31:\n        /* \"PancakeRouter01.sol\":4955:4971  uint amountToken */\n      0x00\n        /* \"PancakeRouter01.sol\":4973:4987  uint amountETH */\n      dup1\n        /* \"PancakeRouter01.sol\":4936:4944  deadline */\n      dup3\n        /* \"PancakeRouter01.sol\":524:539  block.timestamp */\n      timestamp\n        /* \"PancakeRouter01.sol\":512:520  deadline */\n      dup2\n        /* \"PancakeRouter01.sol\":512:539  deadline >= block.timestamp */\n      lt\n      iszero\n        /* \"PancakeRouter01.sol\":504:566  require(deadline >= block.timestamp, 'PancakeRouter: EXPIRED') */\n      tag_148\n      jumpi\n      0x40\n      dup1\n      mload\n      shl(0xe5, 0x461bcd)\n      dup2\n      mstore\n      0x20\n      0x04\n      dup3\n      add\n      mstore\n      0x16\n      0x24\n      dup3\n      add\n      mstore\n      0x00\n      dup1\n      mload\n      0x20\n      data_48da24abbb1fac1ad424fc0d0ddda728b5e193f1888a852641dc2d17535faffb\n      dup4\n      codecopy\n      dup2\n      mload\n      swap2\n      mstore\n      0x44\n      dup3\n      add\n      mstore\n      swap1\n      mload\n      swap1\n      dup2\n      swap1\n      sub\n      0x64\n      add\n      swap1\n      revert\n    tag_148:\n        /* \"PancakeRouter01.sol\":5026:5214  removeLiquidity(... */\n      tag_150\n        /* \"PancakeRouter01.sol\":5055:5060  token */\n      dup10\n        /* \"PancakeRouter01.sol\":5074:5078  WETH */\n      immutable(\"0x9abd569a0444be7ce52d46a7fb79009940c0c0442116f15017290ff13cb4450c\")\n        /* \"PancakeRouter01.sol\":5092:5101  liquidity */\n      dup11\n        /* \"PancakeRouter01.sol\":5115:5129  amountTokenMin */\n      dup11\n        /* \"PancakeRouter01.sol\":5143:5155  amountETHMin */\n      dup11\n        /* \"PancakeRouter01.sol\":5177:5181  this */\n      address\n        /* \"PancakeRouter01.sol\":5196:5204  deadline */\n      dup11\n        /* \"PancakeRouter01.sol\":5026:5041  removeLiquidity */\n      tag_113\n        /* \"PancakeRouter01.sol\":5026:5214  removeLiquidity(... */\n      jump\t// in\n    tag_150:\n        /* \"PancakeRouter01.sol\":4999:5214  (amountToken, amountETH) = removeLiquidity(... */\n      swap1\n      swap4\n      pop\n      swap2\n      pop\n        /* \"PancakeRouter01.sol\":5224:5275  TransferHelper.safeTransfer(token, to, amountToken) */\n      tag_151\n        /* \"PancakeRouter01.sol\":5252:5257  token */\n      dup10\n        /* \"PancakeRouter01.sol\":5259:5261  to */\n      dup7\n        /* \"PancakeRouter01.sol\":4999:5214  (amountToken, amountETH) = removeLiquidity(... */\n      dup6\n        /* \"PancakeRouter01.sol\":5224:5251  TransferHelper.safeTransfer */\n      tag_152\n        /* \"PancakeRouter01.sol\":5224:5275  TransferHelper.safeTransfer(token, to, amountToken) */\n      jump\t// in\n    tag_151:\n        /* \"PancakeRouter01.sol\":5291:5295  WETH */\n      immutable(\"0x9abd569a0444be7ce52d46a7fb79009940c0c0442116f15017290ff13cb4450c\")\n      sub(shl(0xa0, 0x01), 0x01)\n        /* \"PancakeRouter01.sol\":5285:5305  IWETH(WETH).withdraw */\n      and\n      0x2e1a7d4d\n        /* \"PancakeRouter01.sol\":5306:5315  amountETH */\n      dup4\n        /* \"PancakeRouter01.sol\":5285:5316  IWETH(WETH).withdraw(amountETH) */\n      mload(0x40)\n      dup3\n      0xffffffff\n      and\n      0xe0\n      shl\n      dup2\n      mstore\n      0x04\n      add\n      dup1\n      dup3\n      dup2\n      mstore\n      0x20\n      add\n      swap2\n      pop\n      pop\n      0x00\n      mload(0x40)\n      dup1\n      dup4\n      sub\n      dup2\n      0x00\n      dup8\n      dup1\n      extcodesize\n      iszero\n        /* \"--CODEGEN--\":5:14   */\n      dup1\n        /* \"--CODEGEN--\":2:4   */\n      iszero\n      tag_153\n      jumpi\n        /* \"--CODEGEN--\":27:28   */\n      0x00\n        /* \"--CODEGEN--\":24:25   */\n      dup1\n        /* \"--CODEGEN--\":17:29   */\n      revert\n        /* \"--CODEGEN--\":2:4   */\n    tag_153:\n        /* \"PancakeRouter01.sol\":5285:5316  IWETH(WETH).withdraw(amountETH) */\n      pop\n      gas\n      call\n      iszero\n        /* \"--CODEGEN--\":8:17   */\n      dup1\n        /* \"--CODEGEN--\":5:7   */\n      iszero\n      tag_155\n      jumpi\n        /* \"--CODEGEN--\":45:61   */\n      returndatasize\n        /* \"--CODEGEN--\":42:43   */\n      0x00\n        /* \"--CODEGEN--\":39:40   */\n      dup1\n        /* \"--CODEGEN--\":24:62   */\n      returndatacopy\n        /* \"--CODEGEN--\":77:93   */\n      returndatasize\n        /* \"--CODEGEN--\":74:75   */\n      0x00\n        /* \"--CODEGEN--\":67:94   */\n      revert\n        /* \"--CODEGEN--\":5:7   */\n    tag_155:\n        /* \"PancakeRouter01.sol\":5285:5316  IWETH(WETH).withdraw(amountETH) */\n      pop\n      pop\n      pop\n      pop\n        /* \"PancakeRouter01.sol\":5326:5371  TransferHelper.safeTransferETH(to, amountETH) */\n      tag_156\n        /* \"PancakeRouter01.sol\":5357:5359  to */\n      dup6\n        /* \"PancakeRouter01.sol\":5361:5370  amountETH */\n      dup4\n        /* \"PancakeRouter01.sol\":5326:5356  TransferHelper.safeTransferETH */\n      tag_157\n        /* \"PancakeRouter01.sol\":5326:5371  TransferHelper.safeTransferETH(to, amountETH) */\n      jump\t// in\n    tag_156:\n        /* \"PancakeRouter01.sol\":4733:5378  function removeLiquidityETH(... */\n      pop\n      swap7\n      pop\n      swap7\n      swap5\n      pop\n      pop\n      pop\n      pop\n      pop\n      jump\t// out\n        /* \"PancakeRouter01.sol\":11796:11996  function getAmountOut(uint amountIn, uint reserveIn, uint reserveOut) public pure override returns (uint amountOut) {... */\n    tag_35:\n        /* \"PancakeRouter01.sol\":11896:11910  uint amountOut */\n      0x00\n        /* \"PancakeRouter01.sol\":11929:11989  PancakeLibrary.getAmountOut(amountIn, reserveIn, reserveOut) */\n      tag_159\n        /* \"PancakeRouter01.sol\":11957:11965  amountIn */\n      dup5\n        /* \"PancakeRouter01.sol\":11967:11976  reserveIn */\n      dup5\n        /* \"PancakeRouter01.sol\":11978:11988  reserveOut */\n      dup5\n        /* \"PancakeRouter01.sol\":11929:11956  PancakeLibrary.getAmountOut */\n      tag_160\n        /* \"PancakeRouter01.sol\":11929:11989  PancakeLibrary.getAmountOut(amountIn, reserveIn, reserveOut) */\n      jump\t// in\n    tag_159:\n        /* \"PancakeRouter01.sol\":11922:11989  return PancakeLibrary.getAmountOut(amountIn, reserveIn, reserveOut) */\n      swap5\n        /* \"PancakeRouter01.sol\":11796:11996  function getAmountOut(uint amountIn, uint reserveIn, uint reserveOut) public pure override returns (uint amountOut) {... */\n      swap4\n      pop\n      pop\n      pop\n      pop\n      jump\t// out\n        /* \"PancakeRouter01.sol\":10053:10841  function swapExactTokensForETH(uint amountIn, uint amountOutMin, address[] calldata path, address to, uint deadline)... */\n    tag_42:\n        /* \"PancakeRouter01.sol\":10246:10267  uint[] memory amounts */\n      0x60\n        /* \"PancakeRouter01.sol\":10219:10227  deadline */\n      dup2\n        /* \"PancakeRouter01.sol\":524:539  block.timestamp */\n      timestamp\n        /* \"PancakeRouter01.sol\":512:520  deadline */\n      dup2\n        /* \"PancakeRouter01.sol\":512:539  deadline >= block.timestamp */\n      lt\n      iszero\n        /* \"PancakeRouter01.sol\":504:566  require(deadline >= block.timestamp, 'PancakeRouter: EXPIRED') */\n      tag_162\n      jumpi\n      0x40\n      dup1\n      mload\n      shl(0xe5, 0x461bcd)\n      dup2\n      mstore\n      0x20\n      0x04\n      dup3\n      add\n      mstore\n      0x16\n      0x24\n      dup3\n      add\n      mstore\n      0x00\n      dup1\n      mload\n      0x20\n      data_48da24abbb1fac1ad424fc0d0ddda728b5e193f1888a852641dc2d17535faffb\n      dup4\n      codecopy\n      dup2\n      mload\n      swap2\n      mstore\n      0x44\n      dup3\n      add\n      mstore\n      swap1\n      mload\n      swap1\n      dup2\n      swap1\n      sub\n      0x64\n      add\n      swap1\n      revert\n    tag_162:\n      sub(shl(0xa0, 0x01), 0x01)\n        /* \"PancakeRouter01.sol\":10316:10320  WETH */\n      immutable(\"0x9abd569a0444be7ce52d46a7fb79009940c0c0442116f15017290ff13cb4450c\")\n        /* \"PancakeRouter01.sol\":10291:10320  path[path.length - 1] == WETH */\n      and\n        /* \"PancakeRouter01.sol\":10291:10295  path */\n      dup7\n      dup7\n      not(0x00)\n        /* \"PancakeRouter01.sol\":10296:10311  path.length - 1 */\n      dup2\n      add\n        /* \"PancakeRouter01.sol\":10291:10312  path[path.length - 1] */\n      dup2\n      dup2\n      lt\n      tag_164\n      jumpi\n      invalid\n    tag_164:\n      swap1\n      pop\n      0x20\n      mul\n      add\n      calldataload\n      sub(shl(0xa0, 0x01), 0x01)\n      and\n      sub(shl(0xa0, 0x01), 0x01)\n        /* \"PancakeRouter01.sol\":10291:10320  path[path.length - 1] == WETH */\n      and\n      eq\n        /* \"PancakeRouter01.sol\":10283:10352  require(path[path.length - 1] == WETH, 'PancakeRouter: INVALID_PATH') */\n      tag_165\n      jumpi\n      0x40\n      dup1\n      mload\n      shl(0xe5, 0x461bcd)\n      dup2\n      mstore\n      0x20\n      0x04\n      dup3\n      add\n      mstore\n      0x1b\n      0x24\n      dup3\n      add\n      mstore\n      0x00\n      dup1\n      mload\n      0x20\n      data_82928200364a85809bf4a0b91c6d2eba6bdb5bd92df2e22eb8eef03222c3f531\n      dup4\n      codecopy\n      dup2\n      mload\n      swap2\n      mstore\n      0x44\n      dup3\n      add\n      mstore\n      swap1\n      mload\n      swap1\n      dup2\n      swap1\n      sub\n      0x64\n      add\n      swap1\n      revert\n    tag_165:\n        /* \"PancakeRouter01.sol\":10372:10425  PancakeLibrary.getAmountsOut(factory, amountIn, path) */\n      tag_166\n        /* \"PancakeRouter01.sol\":10401:10408  factory */\n      immutable(\"0x5bcd163b2238ff85648d293e01a327b5c7f9ae69498a752a4883e839ddddafcb\")\n        /* \"PancakeRouter01.sol\":10410:10418  amountIn */\n      dup10\n        /* \"PancakeRouter01.sol\":10420:10424  path */\n      dup9\n      dup9\n        /* \"PancakeRouter01.sol\":10372:10425  PancakeLibrary.getAmountsOut(factory, amountIn, path) */\n      dup1\n      dup1\n      0x20\n      mul\n      0x20\n      add\n      mload(0x40)\n      swap1\n      dup2\n      add\n      0x40\n      mstore\n      dup1\n      swap4\n      swap3\n      swap2\n      swap1\n      dup2\n      dup2\n      mstore\n      0x20\n      add\n      dup4\n      dup4\n      0x20\n      mul\n        /* \"--CODEGEN--\":30:33   */\n      dup1\n        /* \"--CODEGEN--\":22:28   */\n      dup3\n        /* \"--CODEGEN--\":14:20   */\n      dup5\n        /* \"--CODEGEN--\":1:34   */\n      calldatacopy\n        /* \"--CODEGEN--\":99:100   */\n      0x00\n        /* \"--CODEGEN--\":81:97   */\n      swap3\n      add\n        /* \"--CODEGEN--\":74:101   */\n      swap2\n      swap1\n      swap2\n      mstore\n      pop\n        /* \"PancakeRouter01.sol\":10372:10400  PancakeLibrary.getAmountsOut */\n      tag_167\n      swap3\n      pop\n      pop\n      pop\n        /* \"PancakeRouter01.sol\":10372:10425  PancakeLibrary.getAmountsOut(factory, amountIn, path) */\n      jump\t// in\n    tag_166:\n        /* \"PancakeRouter01.sol\":10362:10425  amounts = PancakeLibrary.getAmountsOut(factory, amountIn, path) */\n      swap2\n      pop\n        /* \"PancakeRouter01.sol\":10474:10486  amountOutMin */\n      dup7\n        /* \"PancakeRouter01.sol\":10443:10450  amounts */\n      dup3\n        /* \"PancakeRouter01.sol\":10468:10469  1 */\n      0x01\n        /* \"PancakeRouter01.sol\":10451:10458  amounts */\n      dup5\n        /* \"PancakeRouter01.sol\":10451:10465  amounts.length */\n      mload\n        /* \"PancakeRouter01.sol\":10451:10469  amounts.length - 1 */\n      sub\n        /* \"PancakeRouter01.sol\":10443:10470  amounts[amounts.length - 1] */\n      dup2\n      mload\n      dup2\n      lt\n      tag_168\n      jumpi\n      invalid\n    tag_168:\n      0x20\n      mul\n      0x20\n      add\n      add\n      mload\n        /* \"PancakeRouter01.sol\":10443:10486  amounts[amounts.length - 1] >= amountOutMin */\n      lt\n      iszero\n        /* \"PancakeRouter01.sol\":10435:10532  require(amounts[amounts.length - 1] >= amountOutMin, 'PancakeRouter: INSUFFICIENT_OUTPUT_AMOUNT') */\n      tag_169\n      jumpi\n      mload(0x40)\n      shl(0xe5, 0x461bcd)\n      dup2\n      mstore\n      0x04\n      add\n      dup1\n      dup1\n      0x20\n      add\n      dup3\n      dup2\n      sub\n      dup3\n      mstore\n      0x29\n      dup2\n      mstore\n      0x20\n      add\n      dup1\n      data_67a78505585fe709b19736b06d36a1ecdc512f90bed7fd0663a91a07a227deb4\n      0x29\n      swap2\n      codecopy\n      0x40\n      add\n      swap2\n      pop\n      pop\n      mload(0x40)\n      dup1\n      swap2\n      sub\n      swap1\n      revert\n    tag_169:\n        /* \"PancakeRouter01.sol\":10542:10657  TransferHelper.safeTransferFrom(path[0], msg.sender, PancakeLibrary.pairFor(factory, path[0], path[1]), amounts[0]) */\n      tag_170\n        /* \"PancakeRouter01.sol\":10574:10578  path */\n      dup7\n      dup7\n        /* \"PancakeRouter01.sol\":10579:10580  0 */\n      0x00\n        /* \"PancakeRouter01.sol\":10574:10581  path[0] */\n      dup2\n      dup2\n      lt\n      tag_171\n      jumpi\n      invalid\n    tag_171:\n      swap1\n      pop\n      0x20\n      mul\n      add\n      calldataload\n      sub(shl(0xa0, 0x01), 0x01)\n      and\n        /* \"PancakeRouter01.sol\":10583:10593  msg.sender */\n      caller\n        /* \"PancakeRouter01.sol\":10595:10644  PancakeLibrary.pairFor(factory, path[0], path[1]) */\n      tag_172\n        /* \"PancakeRouter01.sol\":10618:10625  factory */\n      immutable(\"0x5bcd163b2238ff85648d293e01a327b5c7f9ae69498a752a4883e839ddddafcb\")\n        /* \"PancakeRouter01.sol\":10627:10631  path */\n      dup11\n      dup11\n        /* \"PancakeRouter01.sol\":10632:10633  0 */\n      0x00\n        /* \"PancakeRouter01.sol\":10627:10634  path[0] */\n      dup2\n      dup2\n      lt\n      tag_173\n      jumpi\n      invalid\n    tag_173:\n      swap1\n      pop\n      0x20\n      mul\n      add\n      calldataload\n      sub(shl(0xa0, 0x01), 0x01)\n      and\n        /* \"PancakeRouter01.sol\":10636:10640  path */\n      dup12\n      dup12\n        /* \"PancakeRouter01.sol\":10641:10642  1 */\n      0x01\n        /* \"PancakeRouter01.sol\":10636:10643  path[1] */\n      dup2\n      dup2\n      lt\n      tag_174\n      jumpi\n      invalid\n    tag_174:\n      swap1\n      pop\n      0x20\n      mul\n      add\n      calldataload\n      sub(shl(0xa0, 0x01), 0x01)\n      and\n        /* \"PancakeRouter01.sol\":10595:10617  PancakeLibrary.pairFor */\n      tag_175\n        /* \"PancakeRouter01.sol\":10595:10644  PancakeLibrary.pairFor(factory, path[0], path[1]) */\n      jump\t// in\n    tag_172:\n        /* \"PancakeRouter01.sol\":10646:10653  amounts */\n      dup6\n        /* \"PancakeRouter01.sol\":10654:10655  0 */\n      0x00\n        /* \"PancakeRouter01.sol\":10646:10656  amounts[0] */\n      dup2\n      mload\n      dup2\n      lt\n      tag_176\n      jumpi\n      invalid\n    tag_176:\n      0x20\n      mul\n      0x20\n      add\n      add\n      mload\n        /* \"PancakeRouter01.sol\":10542:10573  TransferHelper.safeTransferFrom */\n      tag_177\n        /* \"PancakeRouter01.sol\":10542:10657  TransferHelper.safeTransferFrom(path[0], msg.sender, PancakeLibrary.pairFor(factory, path[0], path[1]), amounts[0]) */\n      jump\t// in\n    tag_170:\n        /* \"PancakeRouter01.sol\":10667:10702  _swap(amounts, path, address(this)) */\n      tag_178\n        /* \"PancakeRouter01.sol\":10673:10680  amounts */\n      dup3\n        /* \"PancakeRouter01.sol\":10682:10686  path */\n      dup8\n      dup8\n        /* \"PancakeRouter01.sol\":10667:10702  _swap(amounts, path, address(this)) */\n      dup1\n      dup1\n      0x20\n      mul\n      0x20\n      add\n      mload(0x40)\n      swap1\n      dup2\n      add\n      0x40\n      mstore\n      dup1\n      swap4\n      swap3\n      swap2\n      swap1\n      dup2\n      dup2\n      mstore\n      0x20\n      add\n      dup4\n      dup4\n      0x20\n      mul\n        /* \"--CODEGEN--\":30:33   */\n      dup1\n        /* \"--CODEGEN--\":22:28   */\n      dup3\n        /* \"--CODEGEN--\":14:20   */\n      dup5\n        /* \"--CODEGEN--\":1:34   */\n      calldatacopy\n        /* \"--CODEGEN--\":99:100   */\n      0x00\n        /* \"--CODEGEN--\":81:97   */\n      swap3\n      add\n        /* \"--CODEGEN--\":74:101   */\n      swap2\n      swap1\n      swap2\n      mstore\n      pop\n        /* \"PancakeRouter01.sol\":10696:10700  this */\n      address\n      swap3\n      pop\n        /* \"PancakeRouter01.sol\":10667:10672  _swap */\n      tag_179\n      swap2\n      pop\n      pop\n        /* \"PancakeRouter01.sol\":10667:10702  _swap(amounts, path, address(this)) */\n      jump\t// in\n    tag_178:\n        /* \"PancakeRouter01.sol\":10718:10722  WETH */\n      immutable(\"0x9abd569a0444be7ce52d46a7fb79009940c0c0442116f15017290ff13cb4450c\")\n      sub(shl(0xa0, 0x01), 0x01)\n        /* \"PancakeRouter01.sol\":10712:10732  IWETH(WETH).withdraw */\n      and\n      0x2e1a7d4d\n        /* \"PancakeRouter01.sol\":10733:10740  amounts */\n      dup4\n        /* \"PancakeRouter01.sol\":10758:10759  1 */\n      0x01\n        /* \"PancakeRouter01.sol\":10741:10748  amounts */\n      dup6\n        /* \"PancakeRouter01.sol\":10741:10755  amounts.length */\n      mload\n        /* \"PancakeRouter01.sol\":10741:10759  amounts.length - 1 */\n      sub\n        /* \"PancakeRouter01.sol\":10733:10760  amounts[amounts.length - 1] */\n      dup2\n      mload\n      dup2\n      lt\n      tag_180\n      jumpi\n      invalid\n    tag_180:\n      0x20\n      mul\n      0x20\n      add\n      add\n      mload\n        /* \"PancakeRouter01.sol\":10712:10761  IWETH(WETH).withdraw(amounts[amounts.length - 1]) */\n      mload(0x40)\n      dup3\n      0xffffffff\n      and\n      0xe0\n      shl\n      dup2\n      mstore\n      0x04\n      add\n      dup1\n      dup3\n      dup2\n      mstore\n      0x20\n      add\n      swap2\n      pop\n      pop\n      0x00\n      mload(0x40)\n      dup1\n      dup4\n      sub\n      dup2\n      0x00\n      dup8\n      dup1\n      extcodesize\n      iszero\n        /* \"--CODEGEN--\":5:14   */\n      dup1\n        /* \"--CODEGEN--\":2:4   */\n      iszero\n      tag_181\n      jumpi\n        /* \"--CODEGEN--\":27:28   */\n      0x00\n        /* \"--CODEGEN--\":24:25   */\n      dup1\n        /* \"--CODEGEN--\":17:29   */\n      revert\n        /* \"--CODEGEN--\":2:4   */\n    tag_181:\n        /* \"PancakeRouter01.sol\":10712:10761  IWETH(WETH).withdraw(amounts[amounts.length - 1]) */\n      pop\n      gas\n      call\n      iszero\n        /* \"--CODEGEN--\":8:17   */\n      dup1\n        /* \"--CODEGEN--\":5:7   */\n      iszero\n      tag_183\n      jumpi\n        /* \"--CODEGEN--\":45:61   */\n      returndatasize\n        /* \"--CODEGEN--\":42:43   */\n      0x00\n        /* \"--CODEGEN--\":39:40   */\n      dup1\n        /* \"--CODEGEN--\":24:62   */\n      returndatacopy\n        /* \"--CODEGEN--\":77:93   */\n      returndatasize\n        /* \"--CODEGEN--\":74:75   */\n      0x00\n        /* \"--CODEGEN--\":67:94   */\n      revert\n        /* \"--CODEGEN--\":5:7   */\n    tag_183:\n        /* \"PancakeRouter01.sol\":10712:10761  IWETH(WETH).withdraw(amounts[amounts.length - 1]) */\n      pop\n      pop\n      pop\n      pop\n        /* \"PancakeRouter01.sol\":10771:10834  TransferHelper.safeTransferETH(to, amounts[amounts.length - 1]) */\n      tag_184\n        /* \"PancakeRouter01.sol\":10802:10804  to */\n      dup5\n        /* \"PancakeRouter01.sol\":10806:10813  amounts */\n      dup4\n        /* \"PancakeRouter01.sol\":10831:10832  1 */\n      0x01\n        /* \"PancakeRouter01.sol\":10814:10821  amounts */\n      dup6\n        /* \"PancakeRouter01.sol\":10814:10828  amounts.length */\n      mload\n        /* \"PancakeRouter01.sol\":10814:10832  amounts.length - 1 */\n      sub\n        /* \"PancakeRouter01.sol\":10806:10833  amounts[amounts.length - 1] */\n      dup2\n      mload\n      dup2\n      lt\n      tag_185\n      jumpi\n      invalid\n    tag_185:\n      0x20\n      mul\n      0x20\n      add\n      add\n      mload\n        /* \"PancakeRouter01.sol\":10771:10801  TransferHelper.safeTransferETH */\n      tag_157\n        /* \"PancakeRouter01.sol\":10771:10834  TransferHelper.safeTransferETH(to, amounts[amounts.length - 1]) */\n      jump\t// in\n    tag_184:\n        /* \"PancakeRouter01.sol\":10053:10841  function swapExactTokensForETH(uint amountIn, uint amountOutMin, address[] calldata path, address to, uint deadline)... */\n      pop\n      swap7\n      swap6\n      pop\n      pop\n      pop\n      pop\n      pop\n      pop\n      jump\t// out\n        /* \"PancakeRouter01.sol\":12405:12596  function getAmountsIn(uint amountOut, address[] memory path) public view override returns (uint[] memory amounts) {... */\n    tag_52:\n        /* \"PancakeRouter01.sol\":12496:12517  uint[] memory amounts */\n      0x60\n        /* \"PancakeRouter01.sol\":12536:12589  PancakeLibrary.getAmountsIn(factory, amountOut, path) */\n      tag_187\n        /* \"PancakeRouter01.sol\":12564:12571  factory */\n      immutable(\"0x5bcd163b2238ff85648d293e01a327b5c7f9ae69498a752a4883e839ddddafcb\")\n        /* \"PancakeRouter01.sol\":12573:12582  amountOut */\n      dup5\n        /* \"PancakeRouter01.sol\":12584:12588  path */\n      dup5\n        /* \"PancakeRouter01.sol\":12536:12563  PancakeLibrary.getAmountsIn */\n      tag_188\n        /* \"PancakeRouter01.sol\":12536:12589  PancakeLibrary.getAmountsIn(factory, amountOut, path) */\n      jump\t// in\n    tag_187:\n        /* \"PancakeRouter01.sol\":12529:12589  return PancakeLibrary.getAmountsIn(factory, amountOut, path) */\n      swap1\n      pop\n        /* \"PancakeRouter01.sol\":12405:12596  function getAmountsIn(uint amountOut, address[] memory path) public view override returns (uint[] memory amounts) {... */\n    tag_186:\n      swap3\n      swap2\n      pop\n      pop\n      jump\t// out\n        /* \"PancakeRouter01.sol\":5383:6034  function removeLiquidityWithPermit(... */\n    tag_59:\n        /* \"PancakeRouter01.sol\":5672:5684  uint amountA */\n      0x00\n        /* \"PancakeRouter01.sol\":5686:5698  uint amountB */\n      dup1\n        /* \"PancakeRouter01.sol\":5710:5722  address pair */\n      0x00\n        /* \"PancakeRouter01.sol\":5725:5772  PancakeLibrary.pairFor(factory, tokenA, tokenB) */\n      tag_190\n        /* \"PancakeRouter01.sol\":5748:5755  factory */\n      immutable(\"0x5bcd163b2238ff85648d293e01a327b5c7f9ae69498a752a4883e839ddddafcb\")\n        /* \"PancakeRouter01.sol\":5757:5763  tokenA */\n      dup16\n        /* \"PancakeRouter01.sol\":5765:5771  tokenB */\n      dup16\n        /* \"PancakeRouter01.sol\":5725:5747  PancakeLibrary.pairFor */\n      tag_175\n        /* \"PancakeRouter01.sol\":5725:5772  PancakeLibrary.pairFor(factory, tokenA, tokenB) */\n      jump\t// in\n    tag_190:\n        /* \"PancakeRouter01.sol\":5710:5772  address pair = PancakeLibrary.pairFor(factory, tokenA, tokenB) */\n      swap1\n      pop\n        /* \"PancakeRouter01.sol\":5782:5792  uint value */\n      0x00\n        /* \"PancakeRouter01.sol\":5795:5805  approveMax */\n      dup8\n        /* \"PancakeRouter01.sol\":5795:5828  approveMax ? uint(-1) : liquidity */\n      tag_191\n      jumpi\n        /* \"PancakeRouter01.sol\":5819:5828  liquidity */\n      dup13\n        /* \"PancakeRouter01.sol\":5795:5828  approveMax ? uint(-1) : liquidity */\n      jump(tag_192)\n    tag_191:\n      not(0x00)\n    tag_192:\n        /* \"PancakeRouter01.sol\":5838:5916  IPancakePair(pair).permit(msg.sender, address(this), value, deadline, v, r, s) */\n      0x40\n      dup1\n      mload\n      shl(0xe0, 0xd505accf)\n      dup2\n      mstore\n        /* \"PancakeRouter01.sol\":5864:5874  msg.sender */\n      caller\n        /* \"PancakeRouter01.sol\":5838:5916  IPancakePair(pair).permit(msg.sender, address(this), value, deadline, v, r, s) */\n      0x04\n      dup3\n      add\n      mstore\n        /* \"PancakeRouter01.sol\":5884:5888  this */\n      address\n        /* \"PancakeRouter01.sol\":5838:5916  IPancakePair(pair).permit(msg.sender, address(this), value, deadline, v, r, s) */\n      0x24\n      dup3\n      add\n      mstore\n      0x44\n      dup2\n      add\n      dup4\n      swap1\n      mstore\n      0x64\n      dup2\n      add\n      dup13\n      swap1\n      mstore\n      0xff\n      dup11\n      and\n      0x84\n      dup3\n      add\n      mstore\n      0xa4\n      dup2\n      add\n      dup10\n      swap1\n      mstore\n      0xc4\n      dup2\n      add\n      dup9\n      swap1\n      mstore\n      swap1\n      mload\n        /* \"PancakeRouter01.sol\":5782:5828  uint value = approveMax ? uint(-1) : liquidity */\n      swap2\n      swap3\n      pop\n      sub(shl(0xa0, 0x01), 0x01)\n        /* \"PancakeRouter01.sol\":5838:5863  IPancakePair(pair).permit */\n      dup5\n      and\n      swap2\n      0xd505accf\n      swap2\n        /* \"PancakeRouter01.sol\":5838:5916  IPancakePair(pair).permit(msg.sender, address(this), value, deadline, v, r, s) */\n      0xe4\n      dup1\n      dup3\n      add\n      swap3\n      0x00\n      swap3\n      swap1\n      swap2\n      swap1\n      dup3\n      swap1\n      sub\n      add\n      dup2\n      dup4\n        /* \"PancakeRouter01.sol\":5838:5863  IPancakePair(pair).permit */\n      dup8\n        /* \"PancakeRouter01.sol\":5838:5916  IPancakePair(pair).permit(msg.sender, address(this), value, deadline, v, r, s) */\n      dup1\n      extcodesize\n      iszero\n        /* \"--CODEGEN--\":2:4   */\n      dup1\n      iszero\n      tag_193\n      jumpi\n        /* \"--CODEGEN--\":27:28   */\n      0x00\n        /* \"--CODEGEN--\":24:25   */\n      dup1\n        /* \"--CODEGEN--\":17:29   */\n      revert\n        /* \"--CODEGEN--\":2:4   */\n    tag_193:\n        /* \"PancakeRouter01.sol\":5838:5916  IPancakePair(pair).permit(msg.sender, address(this), value, deadline, v, r, s) */\n      pop\n      gas\n      call\n      iszero\n        /* \"--CODEGEN--\":8:17   */\n      dup1\n        /* \"--CODEGEN--\":5:7   */\n      iszero\n      tag_195\n      jumpi\n        /* \"--CODEGEN--\":45:61   */\n      returndatasize\n        /* \"--CODEGEN--\":42:43   */\n      0x00\n        /* \"--CODEGEN--\":39:40   */\n      dup1\n        /* \"--CODEGEN--\":24:62   */\n      returndatacopy\n        /* \"--CODEGEN--\":77:93   */\n      returndatasize\n        /* \"--CODEGEN--\":74:75   */\n      0x00\n        /* \"--CODEGEN--\":67:94   */\n      revert\n        /* \"--CODEGEN--\":5:7   */\n    tag_195:\n        /* \"PancakeRouter01.sol\":5838:5916  IPancakePair(pair).permit(msg.sender, address(this), value, deadline, v, r, s) */\n      pop\n      pop\n      pop\n      pop\n        /* \"PancakeRouter01.sol\":5947:6027  removeLiquidity(tokenA, tokenB, liquidity, amountAMin, amountBMin, to, deadline) */\n      tag_196\n        /* \"PancakeRouter01.sol\":5963:5969  tokenA */\n      dup16\n        /* \"PancakeRouter01.sol\":5971:5977  tokenB */\n      dup16\n        /* \"PancakeRouter01.sol\":5979:5988  liquidity */\n      dup16\n        /* \"PancakeRouter01.sol\":5990:6000  amountAMin */\n      dup16\n        /* \"PancakeRouter01.sol\":6002:6012  amountBMin */\n      dup16\n        /* \"PancakeRouter01.sol\":6014:6016  to */\n      dup16\n        /* \"PancakeRouter01.sol\":6018:6026  deadline */\n      dup16\n        /* \"PancakeRouter01.sol\":5947:5962  removeLiquidity */\n      tag_113\n        /* \"PancakeRouter01.sol\":5947:6027  removeLiquidity(tokenA, tokenB, liquidity, amountAMin, amountBMin, to, deadline) */\n      jump\t// in\n    tag_196:\n        /* \"PancakeRouter01.sol\":5926:6027  (amountA, amountB) = removeLiquidity(tokenA, tokenB, liquidity, amountAMin, amountBMin, to, deadline) */\n      dup1\n      swap5\n      pop\n      dup2\n      swap6\n      pop\n      pop\n      pop\n        /* \"PancakeRouter01.sol\":5383:6034  function removeLiquidityWithPermit(... */\n      pop\n      pop\n      swap12\n      pop\n      swap12\n      swap10\n      pop\n      pop\n      pop\n      pop\n      pop\n      pop\n      pop\n      pop\n      pop\n      pop\n      jump\t// out\n        /* \"PancakeRouter01.sol\":7472:8051  function swapExactTokensForTokens(... */\n    tag_66:\n        /* \"PancakeRouter01.sol\":7682:7703  uint[] memory amounts */\n      0x60\n        /* \"PancakeRouter01.sol\":7663:7671  deadline */\n      dup2\n        /* \"PancakeRouter01.sol\":524:539  block.timestamp */\n      timestamp\n        /* \"PancakeRouter01.sol\":512:520  deadline */\n      dup2\n        /* \"PancakeRouter01.sol\":512:539  deadline >= block.timestamp */\n      lt\n      iszero\n        /* \"PancakeRouter01.sol\":504:566  require(deadline >= block.timestamp, 'PancakeRouter: EXPIRED') */\n      tag_198\n      jumpi\n      0x40\n      dup1\n      mload\n      shl(0xe5, 0x461bcd)\n      dup2\n      mstore\n      0x20\n      0x04\n      dup3\n      add\n      mstore\n      0x16\n      0x24\n      dup3\n      add\n      mstore\n      0x00\n      dup1\n      mload\n      0x20\n      data_48da24abbb1fac1ad424fc0d0ddda728b5e193f1888a852641dc2d17535faffb\n      dup4\n      codecopy\n      dup2\n      mload\n      swap2\n      mstore\n      0x44\n      dup3\n      add\n      mstore\n      swap1\n      mload\n      swap1\n      dup2\n      swap1\n      sub\n      0x64\n      add\n      swap1\n      revert\n    tag_198:\n        /* \"PancakeRouter01.sol\":7725:7778  PancakeLibrary.getAmountsOut(factory, amountIn, path) */\n      tag_200\n        /* \"PancakeRouter01.sol\":7754:7761  factory */\n      immutable(\"0x5bcd163b2238ff85648d293e01a327b5c7f9ae69498a752a4883e839ddddafcb\")\n        /* \"PancakeRouter01.sol\":7763:7771  amountIn */\n      dup10\n        /* \"PancakeRouter01.sol\":7773:7777  path */\n      dup9\n      dup9\n        /* \"PancakeRouter01.sol\":7725:7778  PancakeLibrary.getAmountsOut(factory, amountIn, path) */\n      dup1\n      dup1\n      0x20\n      mul\n      0x20\n      add\n      mload(0x40)\n      swap1\n      dup2\n      add\n      0x40\n      mstore\n      dup1\n      swap4\n      swap3\n      swap2\n      swap1\n      dup2\n      dup2\n      mstore\n      0x20\n      add\n      dup4\n      dup4\n      0x20\n      mul\n        /* \"--CODEGEN--\":30:33   */\n      dup1\n        /* \"--CODEGEN--\":22:28   */\n      dup3\n        /* \"--CODEGEN--\":14:20   */\n      dup5\n        /* \"--CODEGEN--\":1:34   */\n      calldatacopy\n        /* \"--CODEGEN--\":99:100   */\n      0x00\n        /* \"--CODEGEN--\":81:97   */\n      swap3\n      add\n        /* \"--CODEGEN--\":74:101   */\n      swap2\n      swap1\n      swap2\n      mstore\n      pop\n        /* \"PancakeRouter01.sol\":7725:7753  PancakeLibrary.getAmountsOut */\n      tag_167\n      swap3\n      pop\n      pop\n      pop\n        /* \"PancakeRouter01.sol\":7725:7778  PancakeLibrary.getAmountsOut(factory, amountIn, path) */\n      jump\t// in\n    tag_200:\n        /* \"PancakeRouter01.sol\":7715:7778  amounts = PancakeLibrary.getAmountsOut(factory, amountIn, path) */\n      swap2\n      pop\n        /* \"PancakeRouter01.sol\":7827:7839  amountOutMin */\n      dup7\n        /* \"PancakeRouter01.sol\":7796:7803  amounts */\n      dup3\n        /* \"PancakeRouter01.sol\":7821:7822  1 */\n      0x01\n        /* \"PancakeRouter01.sol\":7804:7811  amounts */\n      dup5\n        /* \"PancakeRouter01.sol\":7804:7818  amounts.length */\n      mload\n        /* \"PancakeRouter01.sol\":7804:7822  amounts.length - 1 */\n      sub\n        /* \"PancakeRouter01.sol\":7796:7823  amounts[amounts.length - 1] */\n      dup2\n      mload\n      dup2\n      lt\n      tag_201\n      jumpi\n      invalid\n    tag_201:\n      0x20\n      mul\n      0x20\n      add\n      add\n      mload\n        /* \"PancakeRouter01.sol\":7796:7839  amounts[amounts.length - 1] >= amountOutMin */\n      lt\n      iszero\n        /* \"PancakeRouter01.sol\":7788:7885  require(amounts[amounts.length - 1] >= amountOutMin, 'PancakeRouter: INSUFFICIENT_OUTPUT_AMOUNT') */\n      tag_202\n      jumpi\n      mload(0x40)\n      shl(0xe5, 0x461bcd)\n      dup2\n      mstore\n      0x04\n      add\n      dup1\n      dup1\n      0x20\n      add\n      dup3\n      dup2\n      sub\n      dup3\n      mstore\n      0x29\n      dup2\n      mstore\n      0x20\n      add\n      dup1\n      data_67a78505585fe709b19736b06d36a1ecdc512f90bed7fd0663a91a07a227deb4\n      0x29\n      swap2\n      codecopy\n      0x40\n      add\n      swap2\n      pop\n      pop\n      mload(0x40)\n      dup1\n      swap2\n      sub\n      swap1\n      revert\n    tag_202:\n        /* \"PancakeRouter01.sol\":7895:8010  TransferHelper.safeTransferFrom(path[0], msg.sender, PancakeLibrary.pairFor(factory, path[0], path[1]), amounts[0]) */\n      tag_203\n        /* \"PancakeRouter01.sol\":7927:7931  path */\n      dup7\n      dup7\n        /* \"PancakeRouter01.sol\":7932:7933  0 */\n      0x00\n        /* \"PancakeRouter01.sol\":7927:7934  path[0] */\n      dup2\n      dup2\n      lt\n      tag_171\n      jumpi\n      invalid\n        /* \"PancakeRouter01.sol\":7895:8010  TransferHelper.safeTransferFrom(path[0], msg.sender, PancakeLibrary.pairFor(factory, path[0], path[1]), amounts[0]) */\n    tag_203:\n        /* \"PancakeRouter01.sol\":8020:8044  _swap(amounts, path, to) */\n      tag_184\n        /* \"PancakeRouter01.sol\":8026:8033  amounts */\n      dup3\n        /* \"PancakeRouter01.sol\":8035:8039  path */\n      dup8\n      dup8\n        /* \"PancakeRouter01.sol\":8020:8044  _swap(amounts, path, to) */\n      dup1\n      dup1\n      0x20\n      mul\n      0x20\n      add\n      mload(0x40)\n      swap1\n      dup2\n      add\n      0x40\n      mstore\n      dup1\n      swap4\n      swap3\n      swap2\n      swap1\n      dup2\n      dup2\n      mstore\n      0x20\n      add\n      dup4\n      dup4\n      0x20\n      mul\n        /* \"--CODEGEN--\":30:33   */\n      dup1\n        /* \"--CODEGEN--\":22:28   */\n      dup3\n        /* \"--CODEGEN--\":14:20   */\n      dup5\n        /* \"--CODEGEN--\":1:34   */\n      calldatacopy\n        /* \"--CODEGEN--\":99:100   */\n      0x00\n        /* \"--CODEGEN--\":81:97   */\n      swap3\n      add\n        /* \"--CODEGEN--\":74:101   */\n      swap2\n      swap1\n      swap2\n      mstore\n      pop\n        /* \"PancakeRouter01.sol\":8041:8043  to */\n      dup10\n      swap3\n      pop\n        /* \"PancakeRouter01.sol\":8020:8025  _swap */\n      tag_179\n      swap2\n      pop\n      pop\n        /* \"PancakeRouter01.sol\":8020:8044  _swap(amounts, path, to) */\n      jump\t// in\n        /* \"PancakeRouter01.sol\":9282:10048  function swapTokensForExactETH(uint amountOut, uint amountInMax, address[] calldata path, address to, uint deadline)... */\n    tag_76:\n        /* \"PancakeRouter01.sol\":9475:9496  uint[] memory amounts */\n      0x60\n        /* \"PancakeRouter01.sol\":9448:9456  deadline */\n      dup2\n        /* \"PancakeRouter01.sol\":524:539  block.timestamp */\n      timestamp\n        /* \"PancakeRouter01.sol\":512:520  deadline */\n      dup2\n        /* \"PancakeRouter01.sol\":512:539  deadline >= block.timestamp */\n      lt\n      iszero\n        /* \"PancakeRouter01.sol\":504:566  require(deadline >= block.timestamp, 'PancakeRouter: EXPIRED') */\n      tag_211\n      jumpi\n      0x40\n      dup1\n      mload\n      shl(0xe5, 0x461bcd)\n      dup2\n      mstore\n      0x20\n      0x04\n      dup3\n      add\n      mstore\n      0x16\n      0x24\n      dup3\n      add\n      mstore\n      0x00\n      dup1\n      mload\n      0x20\n      data_48da24abbb1fac1ad424fc0d0ddda728b5e193f1888a852641dc2d17535faffb\n      dup4\n      codecopy\n      dup2\n      mload\n      swap2\n      mstore\n      0x44\n      dup3\n      add\n      mstore\n      swap1\n      mload\n      swap1\n      dup2\n      swap1\n      sub\n      0x64\n      add\n      swap1\n      revert\n    tag_211:\n      sub(shl(0xa0, 0x01), 0x01)\n        /* \"PancakeRouter01.sol\":9545:9549  WETH */\n      immutable(\"0x9abd569a0444be7ce52d46a7fb79009940c0c0442116f15017290ff13cb4450c\")\n        /* \"PancakeRouter01.sol\":9520:9549  path[path.length - 1] == WETH */\n      and\n        /* \"PancakeRouter01.sol\":9520:9524  path */\n      dup7\n      dup7\n      not(0x00)\n        /* \"PancakeRouter01.sol\":9525:9540  path.length - 1 */\n      dup2\n      add\n        /* \"PancakeRouter01.sol\":9520:9541  path[path.length - 1] */\n      dup2\n      dup2\n      lt\n      tag_213\n      jumpi\n      invalid\n    tag_213:\n      swap1\n      pop\n      0x20\n      mul\n      add\n      calldataload\n      sub(shl(0xa0, 0x01), 0x01)\n      and\n      sub(shl(0xa0, 0x01), 0x01)\n        /* \"PancakeRouter01.sol\":9520:9549  path[path.length - 1] == WETH */\n      and\n      eq\n        /* \"PancakeRouter01.sol\":9512:9581  require(path[path.length - 1] == WETH, 'PancakeRouter: INVALID_PATH') */\n      tag_214\n      jumpi\n      0x40\n      dup1\n      mload\n      shl(0xe5, 0x461bcd)\n      dup2\n      mstore\n      0x20\n      0x04\n      dup3\n      add\n      mstore\n      0x1b\n      0x24\n      dup3\n      add\n      mstore\n      0x00\n      dup1\n      mload\n      0x20\n      data_82928200364a85809bf4a0b91c6d2eba6bdb5bd92df2e22eb8eef03222c3f531\n      dup4\n      codecopy\n      dup2\n      mload\n      swap2\n      mstore\n      0x44\n      dup3\n      add\n      mstore\n      swap1\n      mload\n      swap1\n      dup2\n      swap1\n      sub\n      0x64\n      add\n      swap1\n      revert\n    tag_214:\n        /* \"PancakeRouter01.sol\":9601:9654  PancakeLibrary.getAmountsIn(factory, amountOut, path) */\n      tag_215\n        /* \"PancakeRouter01.sol\":9629:9636  factory */\n      immutable(\"0x5bcd163b2238ff85648d293e01a327b5c7f9ae69498a752a4883e839ddddafcb\")\n        /* \"PancakeRouter01.sol\":9638:9647  amountOut */\n      dup10\n        /* \"PancakeRouter01.sol\":9649:9653  path */\n      dup9\n      dup9\n        /* \"PancakeRouter01.sol\":9601:9654  PancakeLibrary.getAmountsIn(factory, amountOut, path) */\n      dup1\n      dup1\n      0x20\n      mul\n      0x20\n      add\n      mload(0x40)\n      swap1\n      dup2\n      add\n      0x40\n      mstore\n      dup1\n      swap4\n      swap3\n      swap2\n      swap1\n      dup2\n      dup2\n      mstore\n      0x20\n      add\n      dup4\n      dup4\n      0x20\n      mul\n        /* \"--CODEGEN--\":30:33   */\n      dup1\n        /* \"--CODEGEN--\":22:28   */\n      dup3\n        /* \"--CODEGEN--\":14:20   */\n      dup5\n        /* \"--CODEGEN--\":1:34   */\n      calldatacopy\n        /* \"--CODEGEN--\":99:100   */\n      0x00\n        /* \"--CODEGEN--\":81:97   */\n      swap3\n      add\n        /* \"--CODEGEN--\":74:101   */\n      swap2\n      swap1\n      swap2\n      mstore\n      pop\n        /* \"PancakeRouter01.sol\":9601:9628  PancakeLibrary.getAmountsIn */\n      tag_188\n      swap3\n      pop\n      pop\n      pop\n        /* \"PancakeRouter01.sol\":9601:9654  PancakeLibrary.getAmountsIn(factory, amountOut, path) */\n      jump\t// in\n    tag_215:\n        /* \"PancakeRouter01.sol\":9591:9654  amounts = PancakeLibrary.getAmountsIn(factory, amountOut, path) */\n      swap2\n      pop\n        /* \"PancakeRouter01.sol\":9686:9697  amountInMax */\n      dup7\n        /* \"PancakeRouter01.sol\":9672:9679  amounts */\n      dup3\n        /* \"PancakeRouter01.sol\":9680:9681  0 */\n      0x00\n        /* \"PancakeRouter01.sol\":9672:9682  amounts[0] */\n      dup2\n      mload\n      dup2\n      lt\n      tag_216\n      jumpi\n      invalid\n    tag_216:\n      0x20\n      mul\n      0x20\n      add\n      add\n      mload\n        /* \"PancakeRouter01.sol\":9672:9697  amounts[0] <= amountInMax */\n      gt\n      iszero\n        /* \"PancakeRouter01.sol\":9664:9739  require(amounts[0] <= amountInMax, 'PancakeRouter: EXCESSIVE_INPUT_AMOUNT') */\n      tag_169\n      jumpi\n      mload(0x40)\n      shl(0xe5, 0x461bcd)\n      dup2\n      mstore\n      0x04\n      add\n      dup1\n      dup1\n      0x20\n      add\n      dup3\n      dup2\n      sub\n      dup3\n      mstore\n      0x25\n      dup2\n      mstore\n      0x20\n      add\n      dup1\n      data_e6ebac85a9dcf9d43d23a00e3f0314a74ac256fe09f8252fc03ff2284a4761ee\n      0x25\n      swap2\n      codecopy\n      0x40\n      add\n      swap2\n      pop\n      pop\n      mload(0x40)\n      dup1\n      swap2\n      sub\n      swap1\n      revert\n        /* \"PancakeRouter01.sol\":8618:9277  function swapExactETHForTokens(uint amountOutMin, address[] calldata path, address to, uint deadline)... */\n    tag_85:\n        /* \"PancakeRouter01.sol\":8812:8833  uint[] memory amounts */\n      0x60\n        /* \"PancakeRouter01.sol\":8785:8793  deadline */\n      dup2\n        /* \"PancakeRouter01.sol\":524:539  block.timestamp */\n      timestamp\n        /* \"PancakeRouter01.sol\":512:520  deadline */\n      dup2\n        /* \"PancakeRouter01.sol\":512:539  deadline >= block.timestamp */\n      lt\n      iszero\n        /* \"PancakeRouter01.sol\":504:566  require(deadline >= block.timestamp, 'PancakeRouter: EXPIRED') */\n      tag_232\n      jumpi\n      0x40\n      dup1\n      mload\n      shl(0xe5, 0x461bcd)\n      dup2\n      mstore\n      0x20\n      0x04\n      dup3\n      add\n      mstore\n      0x16\n      0x24\n      dup3\n      add\n      mstore\n      0x00\n      dup1\n      mload\n      0x20\n      data_48da24abbb1fac1ad424fc0d0ddda728b5e193f1888a852641dc2d17535faffb\n      dup4\n      codecopy\n      dup2\n      mload\n      swap2\n      mstore\n      0x44\n      dup3\n      add\n      mstore\n      swap1\n      mload\n      swap1\n      dup2\n      swap1\n      sub\n      0x64\n      add\n      swap1\n      revert\n    tag_232:\n        /* \"PancakeRouter01.sol\":8868:8872  WETH */\n      immutable(\"0x9abd569a0444be7ce52d46a7fb79009940c0c0442116f15017290ff13cb4450c\")\n      sub(shl(0xa0, 0x01), 0x01)\n        /* \"PancakeRouter01.sol\":8857:8872  path[0] == WETH */\n      and\n        /* \"PancakeRouter01.sol\":8857:8861  path */\n      dup7\n      dup7\n        /* \"PancakeRouter01.sol\":8862:8863  0 */\n      0x00\n        /* \"PancakeRouter01.sol\":8857:8864  path[0] */\n      dup2\n      dup2\n      lt\n      tag_234\n      jumpi\n      invalid\n    tag_234:\n      swap1\n      pop\n      0x20\n      mul\n      add\n      calldataload\n      sub(shl(0xa0, 0x01), 0x01)\n      and\n      sub(shl(0xa0, 0x01), 0x01)\n        /* \"PancakeRouter01.sol\":8857:8872  path[0] == WETH */\n      and\n      eq\n        /* \"PancakeRouter01.sol\":8849:8904  require(path[0] == WETH, 'PancakeRouter: INVALID_PATH') */\n      tag_235\n      jumpi\n      0x40\n      dup1\n      mload\n      shl(0xe5, 0x461bcd)\n      dup2\n      mstore\n      0x20\n      0x04\n      dup3\n      add\n      mstore\n      0x1b\n      0x24\n      dup3\n      add\n      mstore\n      0x00\n      dup1\n      mload\n      0x20\n      data_82928200364a85809bf4a0b91c6d2eba6bdb5bd92df2e22eb8eef03222c3f531\n      dup4\n      codecopy\n      dup2\n      mload\n      swap2\n      mstore\n      0x44\n      dup3\n      add\n      mstore\n      swap1\n      mload\n      swap1\n      dup2\n      swap1\n      sub\n      0x64\n      add\n      swap1\n      revert\n    tag_235:\n        /* \"PancakeRouter01.sol\":8924:8978  PancakeLibrary.getAmountsOut(factory, msg.value, path) */\n      tag_236\n        /* \"PancakeRouter01.sol\":8953:8960  factory */\n      immutable(\"0x5bcd163b2238ff85648d293e01a327b5c7f9ae69498a752a4883e839ddddafcb\")\n        /* \"PancakeRouter01.sol\":8962:8971  msg.value */\n      callvalue\n        /* \"PancakeRouter01.sol\":8973:8977  path */\n      dup9\n      dup9\n        /* \"PancakeRouter01.sol\":8924:8978  PancakeLibrary.getAmountsOut(factory, msg.value, path) */\n      dup1\n      dup1\n      0x20\n      mul\n      0x20\n      add\n      mload(0x40)\n      swap1\n      dup2\n      add\n      0x40\n      mstore\n      dup1\n      swap4\n      swap3\n      swap2\n      swap1\n      dup2\n      dup2\n      mstore\n      0x20\n      add\n      dup4\n      dup4\n      0x20\n      mul\n        /* \"--CODEGEN--\":30:33   */\n      dup1\n        /* \"--CODEGEN--\":22:28   */\n      dup3\n        /* \"--CODEGEN--\":14:20   */\n      dup5\n        /* \"--CODEGEN--\":1:34   */\n      calldatacopy\n        /* \"--CODEGEN--\":99:100   */\n      0x00\n        /* \"--CODEGEN--\":81:97   */\n      swap3\n      add\n        /* \"--CODEGEN--\":74:101   */\n      swap2\n      swap1\n      swap2\n      mstore\n      pop\n        /* \"PancakeRouter01.sol\":8924:8952  PancakeLibrary.getAmountsOut */\n      tag_167\n      swap3\n      pop\n      pop\n      pop\n        /* \"PancakeRouter01.sol\":8924:8978  PancakeLibrary.getAmountsOut(factory, msg.value, path) */\n      jump\t// in\n    tag_236:\n        /* \"PancakeRouter01.sol\":8914:8978  amounts = PancakeLibrary.getAmountsOut(factory, msg.value, path) */\n      swap2\n      pop\n        /* \"PancakeRouter01.sol\":9027:9039  amountOutMin */\n      dup7\n        /* \"PancakeRouter01.sol\":8996:9003  amounts */\n      dup3\n        /* \"PancakeRouter01.sol\":9021:9022  1 */\n      0x01\n        /* \"PancakeRouter01.sol\":9004:9011  amounts */\n      dup5\n        /* \"PancakeRouter01.sol\":9004:9018  amounts.length */\n      mload\n        /* \"PancakeRouter01.sol\":9004:9022  amounts.length - 1 */\n      sub\n        /* \"PancakeRouter01.sol\":8996:9023  amounts[amounts.length - 1] */\n      dup2\n      mload\n      dup2\n      lt\n      tag_237\n      jumpi\n      invalid\n    tag_237:\n      0x20\n      mul\n      0x20\n      add\n      add\n      mload\n        /* \"PancakeRouter01.sol\":8996:9039  amounts[amounts.length - 1] >= amountOutMin */\n      lt\n      iszero\n        /* \"PancakeRouter01.sol\":8988:9085  require(amounts[amounts.length - 1] >= amountOutMin, 'PancakeRouter: INSUFFICIENT_OUTPUT_AMOUNT') */\n      tag_238\n      jumpi\n      mload(0x40)\n      shl(0xe5, 0x461bcd)\n      dup2\n      mstore\n      0x04\n      add\n      dup1\n      dup1\n      0x20\n      add\n      dup3\n      dup2\n      sub\n      dup3\n      mstore\n      0x29\n      dup2\n      mstore\n      0x20\n      add\n      dup1\n      data_67a78505585fe709b19736b06d36a1ecdc512f90bed7fd0663a91a07a227deb4\n      0x29\n      swap2\n      codecopy\n      0x40\n      add\n      swap2\n      pop\n      pop\n      mload(0x40)\n      dup1\n      swap2\n      sub\n      swap1\n      revert\n    tag_238:\n        /* \"PancakeRouter01.sol\":9101:9105  WETH */\n      immutable(\"0x9abd569a0444be7ce52d46a7fb79009940c0c0442116f15017290ff13cb4450c\")\n      sub(shl(0xa0, 0x01), 0x01)\n        /* \"PancakeRouter01.sol\":9095:9114  IWETH(WETH).deposit */\n      and\n      0xd0e30db0\n        /* \"PancakeRouter01.sol\":9122:9129  amounts */\n      dup4\n        /* \"PancakeRouter01.sol\":9130:9131  0 */\n      0x00\n        /* \"PancakeRouter01.sol\":9122:9132  amounts[0] */\n      dup2\n      mload\n      dup2\n      lt\n      tag_239\n      jumpi\n      invalid\n    tag_239:\n      0x20\n      mul\n      0x20\n      add\n      add\n      mload\n        /* \"PancakeRouter01.sol\":9095:9135  IWETH(WETH).deposit{value: amounts[0]}() */\n      mload(0x40)\n      dup3\n      0xffffffff\n      and\n      0xe0\n      shl\n      dup2\n      mstore\n      0x04\n      add\n      0x00\n      mload(0x40)\n      dup1\n      dup4\n      sub\n      dup2\n      dup6\n      dup9\n      dup1\n      extcodesize\n      iszero\n        /* \"--CODEGEN--\":5:14   */\n      dup1\n        /* \"--CODEGEN--\":2:4   */\n      iszero\n      tag_240\n      jumpi\n        /* \"--CODEGEN--\":27:28   */\n      0x00\n        /* \"--CODEGEN--\":24:25   */\n      dup1\n        /* \"--CODEGEN--\":17:29   */\n      revert\n        /* \"--CODEGEN--\":2:4   */\n    tag_240:\n        /* \"PancakeRouter01.sol\":9095:9135  IWETH(WETH).deposit{value: amounts[0]}() */\n      pop\n      gas\n      call\n      iszero\n        /* \"--CODEGEN--\":8:17   */\n      dup1\n        /* \"--CODEGEN--\":5:7   */\n      iszero\n      tag_242\n      jumpi\n        /* \"--CODEGEN--\":45:61   */\n      returndatasize\n        /* \"--CODEGEN--\":42:43   */\n      0x00\n        /* \"--CODEGEN--\":39:40   */\n      dup1\n        /* \"--CODEGEN--\":24:62   */\n      returndatacopy\n        /* \"--CODEGEN--\":77:93   */\n      returndatasize\n        /* \"--CODEGEN--\":74:75   */\n      0x00\n        /* \"--CODEGEN--\":67:94   */\n      revert\n        /* \"--CODEGEN--\":5:7   */\n    tag_242:\n        /* \"PancakeRouter01.sol\":9095:9135  IWETH(WETH).deposit{value: amounts[0]}() */\n      pop\n      pop\n      pop\n      pop\n      pop\n        /* \"PancakeRouter01.sol\":9158:9162  WETH */\n      immutable(\"0x9abd569a0444be7ce52d46a7fb79009940c0c0442116f15017290ff13cb4450c\")\n      sub(shl(0xa0, 0x01), 0x01)\n        /* \"PancakeRouter01.sol\":9152:9172  IWETH(WETH).transfer */\n      and\n      0xa9059cbb\n        /* \"PancakeRouter01.sol\":9173:9222  PancakeLibrary.pairFor(factory, path[0], path[1]) */\n      tag_243\n        /* \"PancakeRouter01.sol\":9196:9203  factory */\n      immutable(\"0x5bcd163b2238ff85648d293e01a327b5c7f9ae69498a752a4883e839ddddafcb\")\n        /* \"PancakeRouter01.sol\":9205:9209  path */\n      dup10\n      dup10\n        /* \"PancakeRouter01.sol\":9210:9211  0 */\n      0x00\n        /* \"PancakeRouter01.sol\":9205:9212  path[0] */\n      dup2\n      dup2\n      lt\n      tag_244\n      jumpi\n      invalid\n    tag_244:\n      swap1\n      pop\n      0x20\n      mul\n      add\n      calldataload\n      sub(shl(0xa0, 0x01), 0x01)\n      and\n        /* \"PancakeRouter01.sol\":9214:9218  path */\n      dup11\n      dup11\n        /* \"PancakeRouter01.sol\":9219:9220  1 */\n      0x01\n        /* \"PancakeRouter01.sol\":9214:9221  path[1] */\n      dup2\n      dup2\n      lt\n      tag_174\n      jumpi\n      invalid\n        /* \"PancakeRouter01.sol\":9173:9222  PancakeLibrary.pairFor(factory, path[0], path[1]) */\n    tag_243:\n        /* \"PancakeRouter01.sol\":9224:9231  amounts */\n      dup5\n        /* \"PancakeRouter01.sol\":9232:9233  0 */\n      0x00\n        /* \"PancakeRouter01.sol\":9224:9234  amounts[0] */\n      dup2\n      mload\n      dup2\n      lt\n      tag_246\n      jumpi\n      invalid\n    tag_246:\n      0x20\n      mul\n      0x20\n      add\n      add\n      mload\n        /* \"PancakeRouter01.sol\":9152:9235  IWETH(WETH).transfer(PancakeLibrary.pairFor(factory, path[0], path[1]), amounts[0]) */\n      mload(0x40)\n      dup4\n      0xffffffff\n      and\n      0xe0\n      shl\n      dup2\n      mstore\n      0x04\n      add\n      dup1\n      dup4\n      sub(shl(0xa0, 0x01), 0x01)\n      and\n      sub(shl(0xa0, 0x01), 0x01)\n      and\n      dup2\n      mstore\n      0x20\n      add\n      dup3\n      dup2\n      mstore\n      0x20\n      add\n      swap3\n      pop\n      pop\n      pop\n      0x20\n      mload(0x40)\n      dup1\n      dup4\n      sub\n      dup2\n      0x00\n      dup8\n      dup1\n      extcodesize\n      iszero\n        /* \"--CODEGEN--\":5:14   */\n      dup1\n        /* \"--CODEGEN--\":2:4   */\n      iszero\n      tag_247\n      jumpi\n        /* \"--CODEGEN--\":27:28   */\n      0x00\n        /* \"--CODEGEN--\":24:25   */\n      dup1\n        /* \"--CODEGEN--\":17:29   */\n      revert\n        /* \"--CODEGEN--\":2:4   */\n    tag_247:\n        /* \"PancakeRouter01.sol\":9152:9235  IWETH(WETH).transfer(PancakeLibrary.pairFor(factory, path[0], path[1]), amounts[0]) */\n      pop\n      gas\n      call\n      iszero\n        /* \"--CODEGEN--\":8:17   */\n      dup1\n        /* \"--CODEGEN--\":5:7   */\n      iszero\n      tag_249\n      jumpi\n        /* \"--CODEGEN--\":45:61   */\n      returndatasize\n        /* \"--CODEGEN--\":42:43   */\n      0x00\n        /* \"--CODEGEN--\":39:40   */\n      dup1\n        /* \"--CODEGEN--\":24:62   */\n      returndatacopy\n        /* \"--CODEGEN--\":77:93   */\n      returndatasize\n        /* \"--CODEGEN--\":74:75   */\n      0x00\n        /* \"--CODEGEN--\":67:94   */\n      revert\n        /* \"--CODEGEN--\":5:7   */\n    tag_249:\n        /* \"PancakeRouter01.sol\":9152:9235  IWETH(WETH).transfer(PancakeLibrary.pairFor(factory, path[0], path[1]), amounts[0]) */\n      pop\n      pop\n      pop\n      pop\n      mload(0x40)\n      returndatasize\n        /* \"--CODEGEN--\":15:17   */\n      0x20\n        /* \"--CODEGEN--\":10:13   */\n      dup2\n        /* \"--CODEGEN--\":7:18   */\n      lt\n        /* \"--CODEGEN--\":4:6   */\n      iszero\n      tag_250\n      jumpi\n        /* \"--CODEGEN--\":31:32   */\n      0x00\n        /* \"--CODEGEN--\":28:29   */\n      dup1\n        /* \"--CODEGEN--\":21:33   */\n      revert\n        /* \"--CODEGEN--\":4:6   */\n    tag_250:\n      pop\n        /* \"PancakeRouter01.sol\":9152:9235  IWETH(WETH).transfer(PancakeLibrary.pairFor(factory, path[0], path[1]), amounts[0]) */\n      mload\n        /* \"PancakeRouter01.sol\":9145:9236  assert(IWETH(WETH).transfer(PancakeLibrary.pairFor(factory, path[0], path[1]), amounts[0])) */\n      tag_251\n      jumpi\n      invalid\n    tag_251:\n        /* \"PancakeRouter01.sol\":9246:9270  _swap(amounts, path, to) */\n      tag_252\n        /* \"PancakeRouter01.sol\":9252:9259  amounts */\n      dup3\n        /* \"PancakeRouter01.sol\":9261:9265  path */\n      dup8\n      dup8\n        /* \"PancakeRouter01.sol\":9246:9270  _swap(amounts, path, to) */\n      dup1\n      dup1\n      0x20\n      mul\n      0x20\n      add\n      mload(0x40)\n      swap1\n      dup2\n      add\n      0x40\n      mstore\n      dup1\n      swap4\n      swap3\n      swap2\n      swap1\n      dup2\n      dup2\n      mstore\n      0x20\n      add\n      dup4\n      dup4\n      0x20\n      mul\n        /* \"--CODEGEN--\":30:33   */\n      dup1\n        /* \"--CODEGEN--\":22:28   */\n      dup3\n        /* \"--CODEGEN--\":14:20   */\n      dup5\n        /* \"--CODEGEN--\":1:34   */\n      calldatacopy\n        /* \"--CODEGEN--\":99:100   */\n      0x00\n        /* \"--CODEGEN--\":81:97   */\n      swap3\n      add\n        /* \"--CODEGEN--\":74:101   */\n      swap2\n      swap1\n      swap2\n      mstore\n      pop\n        /* \"PancakeRouter01.sol\":9267:9269  to */\n      dup10\n      swap3\n      pop\n        /* \"PancakeRouter01.sol\":9246:9251  _swap */\n      tag_179\n      swap2\n      pop\n      pop\n        /* \"PancakeRouter01.sol\":9246:9270  _swap(amounts, path, to) */\n      jump\t// in\n    tag_252:\n        /* \"PancakeRouter01.sol\":8618:9277  function swapExactETHForTokens(uint amountOutMin, address[] calldata path, address to, uint deadline)... */\n      pop\n      swap6\n      swap5\n      pop\n      pop\n      pop\n      pop\n      pop\n      jump\t// out\n        /* \"PancakeRouter01.sol\":8056:8613  function swapTokensForExactTokens(... */\n    tag_99:\n        /* \"PancakeRouter01.sol\":8266:8287  uint[] memory amounts */\n      0x60\n        /* \"PancakeRouter01.sol\":8247:8255  deadline */\n      dup2\n        /* \"PancakeRouter01.sol\":524:539  block.timestamp */\n      timestamp\n        /* \"PancakeRouter01.sol\":512:520  deadline */\n      dup2\n        /* \"PancakeRouter01.sol\":512:539  deadline >= block.timestamp */\n      lt\n      iszero\n        /* \"PancakeRouter01.sol\":504:566  require(deadline >= block.timestamp, 'PancakeRouter: EXPIRED') */\n      tag_256\n      jumpi\n      0x40\n      dup1\n      mload\n      shl(0xe5, 0x461bcd)\n      dup2\n      mstore\n      0x20\n      0x04\n      dup3\n      add\n      mstore\n      0x16\n      0x24\n      dup3\n      add\n      mstore\n      0x00\n      dup1\n      mload\n      0x20\n      data_48da24abbb1fac1ad424fc0d0ddda728b5e193f1888a852641dc2d17535faffb\n      dup4\n      codecopy\n      dup2\n      mload\n      swap2\n      mstore\n      0x44\n      dup3\n      add\n      mstore\n      swap1\n      mload\n      swap1\n      dup2\n      swap1\n      sub\n      0x64\n      add\n      swap1\n      revert\n    tag_256:\n        /* \"PancakeRouter01.sol\":8309:8362  PancakeLibrary.getAmountsIn(factory, amountOut, path) */\n      tag_258\n        /* \"PancakeRouter01.sol\":8337:8344  factory */\n      immutable(\"0x5bcd163b2238ff85648d293e01a327b5c7f9ae69498a752a4883e839ddddafcb\")\n        /* \"PancakeRouter01.sol\":8346:8355  amountOut */\n      dup10\n        /* \"PancakeRouter01.sol\":8357:8361  path */\n      dup9\n      dup9\n        /* \"PancakeRouter01.sol\":8309:8362  PancakeLibrary.getAmountsIn(factory, amountOut, path) */\n      dup1\n      dup1\n      0x20\n      mul\n      0x20\n      add\n      mload(0x40)\n      swap1\n      dup2\n      add\n      0x40\n      mstore\n      dup1\n      swap4\n      swap3\n      swap2\n      swap1\n      dup2\n      dup2\n      mstore\n      0x20\n      add\n      dup4\n      dup4\n      0x20\n      mul\n        /* \"--CODEGEN--\":30:33   */\n      dup1\n        /* \"--CODEGEN--\":22:28   */\n      dup3\n        /* \"--CODEGEN--\":14:20   */\n      dup5\n        /* \"--CODEGEN--\":1:34   */\n      calldatacopy\n        /* \"--CODEGEN--\":99:100   */\n      0x00\n        /* \"--CODEGEN--\":81:97   */\n      swap3\n      add\n        /* \"--CODEGEN--\":74:101   */\n      swap2\n      swap1\n      swap2\n      mstore\n      pop\n        /* \"PancakeRouter01.sol\":8309:8336  PancakeLibrary.getAmountsIn */\n      tag_188\n      swap3\n      pop\n      pop\n      pop\n        /* \"PancakeRouter01.sol\":8309:8362  PancakeLibrary.getAmountsIn(factory, amountOut, path) */\n      jump\t// in\n    tag_258:\n        /* \"PancakeRouter01.sol\":8299:8362  amounts = PancakeLibrary.getAmountsIn(factory, amountOut, path) */\n      swap2\n      pop\n        /* \"PancakeRouter01.sol\":8394:8405  amountInMax */\n      dup7\n        /* \"PancakeRouter01.sol\":8380:8387  amounts */\n      dup3\n        /* \"PancakeRouter01.sol\":8388:8389  0 */\n      0x00\n        /* \"PancakeRouter01.sol\":8380:8390  amounts[0] */\n      dup2\n      mload\n      dup2\n      lt\n      tag_259\n      jumpi\n      invalid\n    tag_259:\n      0x20\n      mul\n      0x20\n      add\n      add\n      mload\n        /* \"PancakeRouter01.sol\":8380:8405  amounts[0] <= amountInMax */\n      gt\n      iszero\n        /* \"PancakeRouter01.sol\":8372:8447  require(amounts[0] <= amountInMax, 'PancakeRouter: EXCESSIVE_INPUT_AMOUNT') */\n      tag_202\n      jumpi\n      mload(0x40)\n      shl(0xe5, 0x461bcd)\n      dup2\n      mstore\n      0x04\n      add\n      dup1\n      dup1\n      0x20\n      add\n      dup3\n      dup2\n      sub\n      dup3\n      mstore\n      0x25\n      dup2\n      mstore\n      0x20\n      add\n      dup1\n      data_e6ebac85a9dcf9d43d23a00e3f0314a74ac256fe09f8252fc03ff2284a4761ee\n      0x25\n      swap2\n      codecopy\n      0x40\n      add\n      swap2\n      pop\n      pop\n      mload(0x40)\n      dup1\n      swap2\n      sub\n      swap1\n      revert\n        /* \"PancakeRouter01.sol\":418:456  address public immutable override WETH */\n    tag_105:\n      immutable(\"0x9abd569a0444be7ce52d46a7fb79009940c0c0442116f15017290ff13cb4450c\")\n      dup2\n      jump\t// out\n        /* \"PancakeRouter01.sol\":11614:11790  function quote(uint amountA, uint reserveA, uint reserveB) public pure override returns (uint amountB) {... */\n    tag_109:\n        /* \"PancakeRouter01.sol\":11703:11715  uint amountB */\n      0x00\n        /* \"PancakeRouter01.sol\":11734:11783  PancakeLibrary.quote(amountA, reserveA, reserveB) */\n      tag_159\n        /* \"PancakeRouter01.sol\":11755:11762  amountA */\n      dup5\n        /* \"PancakeRouter01.sol\":11764:11772  reserveA */\n      dup5\n        /* \"PancakeRouter01.sol\":11774:11782  reserveB */\n      dup5\n        /* \"PancakeRouter01.sol\":11734:11754  PancakeLibrary.quote */\n      tag_270\n        /* \"PancakeRouter01.sol\":11734:11783  PancakeLibrary.quote(amountA, reserveA, reserveB) */\n      jump\t// in\n        /* \"PancakeRouter01.sol\":3899:4728  function removeLiquidity(... */\n    tag_113:\n        /* \"PancakeRouter01.sol\":4137:4149  uint amountA */\n      0x00\n        /* \"PancakeRouter01.sol\":4151:4163  uint amountB */\n      dup1\n        /* \"PancakeRouter01.sol\":4118:4126  deadline */\n      dup3\n        /* \"PancakeRouter01.sol\":524:539  block.timestamp */\n      timestamp\n        /* \"PancakeRouter01.sol\":512:520  deadline */\n      dup2\n        /* \"PancakeRouter01.sol\":512:539  deadline >= block.timestamp */\n      lt\n      iszero\n        /* \"PancakeRouter01.sol\":504:566  require(deadline >= block.timestamp, 'PancakeRouter: EXPIRED') */\n      tag_272\n      jumpi\n      0x40\n      dup1\n      mload\n      shl(0xe5, 0x461bcd)\n      dup2\n      mstore\n      0x20\n      0x04\n      dup3\n      add\n      mstore\n      0x16\n      0x24\n      dup3\n      add\n      mstore\n      0x00\n      dup1\n      mload\n      0x20\n      data_48da24abbb1fac1ad424fc0d0ddda728b5e193f1888a852641dc2d17535faffb\n      dup4\n      codecopy\n      dup2\n      mload\n      swap2\n      mstore\n      0x44\n      dup3\n      add\n      mstore\n      swap1\n      mload\n      swap1\n      dup2\n      swap1\n      sub\n      0x64\n      add\n      swap1\n      revert\n    tag_272:\n        /* \"PancakeRouter01.sol\":4175:4187  address pair */\n      0x00\n        /* \"PancakeRouter01.sol\":4190:4237  PancakeLibrary.pairFor(factory, tokenA, tokenB) */\n      tag_274\n        /* \"PancakeRouter01.sol\":4213:4220  factory */\n      immutable(\"0x5bcd163b2238ff85648d293e01a327b5c7f9ae69498a752a4883e839ddddafcb\")\n        /* \"PancakeRouter01.sol\":4222:4228  tokenA */\n      dup13\n        /* \"PancakeRouter01.sol\":4230:4236  tokenB */\n      dup13\n        /* \"PancakeRouter01.sol\":4190:4212  PancakeLibrary.pairFor */\n      tag_175\n        /* \"PancakeRouter01.sol\":4190:4237  PancakeLibrary.pairFor(factory, tokenA, tokenB) */\n      jump\t// in\n    tag_274:\n        /* \"PancakeRouter01.sol\":4247:4307  IPancakePair(pair).transferFrom(msg.sender, pair, liquidity) */\n      0x40\n      dup1\n      mload\n      shl(0xe0, 0x23b872dd)\n      dup2\n      mstore\n        /* \"PancakeRouter01.sol\":4279:4289  msg.sender */\n      caller\n        /* \"PancakeRouter01.sol\":4247:4307  IPancakePair(pair).transferFrom(msg.sender, pair, liquidity) */\n      0x04\n      dup3\n      add\n      mstore\n      sub(shl(0xa0, 0x01), 0x01)\n        /* \"PancakeRouter01.sol\":4247:4278  IPancakePair(pair).transferFrom */\n      dup4\n      and\n        /* \"PancakeRouter01.sol\":4247:4307  IPancakePair(pair).transferFrom(msg.sender, pair, liquidity) */\n      0x24\n      dup3\n      add\n      dup2\n      swap1\n      mstore\n      0x44\n      dup3\n      add\n      dup14\n      swap1\n      mstore\n      swap2\n      mload\n        /* \"PancakeRouter01.sol\":4175:4237  address pair = PancakeLibrary.pairFor(factory, tokenA, tokenB) */\n      swap3\n      swap4\n      pop\n        /* \"PancakeRouter01.sol\":4247:4278  IPancakePair(pair).transferFrom */\n      swap1\n      swap2\n      0x23b872dd\n      swap2\n        /* \"PancakeRouter01.sol\":4247:4307  IPancakePair(pair).transferFrom(msg.sender, pair, liquidity) */\n      0x64\n      dup1\n      dup3\n      add\n      swap3\n      0x20\n      swap3\n      swap1\n      swap2\n      swap1\n      dup3\n      swap1\n      sub\n      add\n      dup2\n      0x00\n        /* \"PancakeRouter01.sol\":4247:4278  IPancakePair(pair).transferFrom */\n      dup8\n        /* \"PancakeRouter01.sol\":4247:4307  IPancakePair(pair).transferFrom(msg.sender, pair, liquidity) */\n      dup1\n      extcodesize\n      iszero\n        /* \"--CODEGEN--\":2:4   */\n      dup1\n      iszero\n      tag_275\n      jumpi\n        /* \"--CODEGEN--\":27:28   */\n      0x00\n        /* \"--CODEGEN--\":24:25   */\n      dup1\n        /* \"--CODEGEN--\":17:29   */\n      revert\n        /* \"--CODEGEN--\":2:4   */\n    tag_275:\n        /* \"PancakeRouter01.sol\":4247:4307  IPancakePair(pair).transferFrom(msg.sender, pair, liquidity) */\n      pop\n      gas\n      call\n      iszero\n        /* \"--CODEGEN--\":8:17   */\n      dup1\n        /* \"--CODEGEN--\":5:7   */\n      iszero\n      tag_277\n      jumpi\n        /* \"--CODEGEN--\":45:61   */\n      returndatasize\n        /* \"--CODEGEN--\":42:43   */\n      0x00\n        /* \"--CODEGEN--\":39:40   */\n      dup1\n        /* \"--CODEGEN--\":24:62   */\n      returndatacopy\n        /* \"--CODEGEN--\":77:93   */\n      returndatasize\n        /* \"--CODEGEN--\":74:75   */\n      0x00\n        /* \"--CODEGEN--\":67:94   */\n      revert\n        /* \"--CODEGEN--\":5:7   */\n    tag_277:\n        /* \"PancakeRouter01.sol\":4247:4307  IPancakePair(pair).transferFrom(msg.sender, pair, liquidity) */\n      pop\n      pop\n      pop\n      pop\n      mload(0x40)\n      returndatasize\n        /* \"--CODEGEN--\":15:17   */\n      0x20\n        /* \"--CODEGEN--\":10:13   */\n      dup2\n        /* \"--CODEGEN--\":7:18   */\n      lt\n        /* \"--CODEGEN--\":4:6   */\n      iszero\n      tag_278\n      jumpi\n        /* \"--CODEGEN--\":31:32   */\n      0x00\n        /* \"--CODEGEN--\":28:29   */\n      dup1\n        /* \"--CODEGEN--\":21:33   */\n      revert\n        /* \"--CODEGEN--\":4:6   */\n    tag_278:\n      pop\n      pop\n        /* \"PancakeRouter01.sol\":4374:4401  IPancakePair(pair).burn(to) */\n      0x40\n      dup1\n      mload\n      shl(0xe2, 0x226bf2d1)\n      dup2\n      mstore\n      sub(shl(0xa0, 0x01), 0x01)\n      dup9\n      dup2\n      and\n      0x04\n      dup4\n      add\n      mstore\n      dup3\n      mload\n        /* \"PancakeRouter01.sol\":4344:4356  uint amount0 */\n      0x00\n      swap4\n      dup5\n      swap4\n        /* \"PancakeRouter01.sol\":4374:4397  IPancakePair(pair).burn */\n      swap3\n      dup7\n      and\n      swap3\n      0x89afcb44\n      swap3\n        /* \"PancakeRouter01.sol\":4374:4401  IPancakePair(pair).burn(to) */\n      0x24\n      dup1\n      dup4\n      add\n      swap4\n      swap3\n      dup3\n      swap1\n      sub\n      add\n      dup2\n        /* \"PancakeRouter01.sol\":4344:4356  uint amount0 */\n      dup8\n        /* \"PancakeRouter01.sol\":4374:4397  IPancakePair(pair).burn */\n      dup8\n        /* \"PancakeRouter01.sol\":4374:4401  IPancakePair(pair).burn(to) */\n      dup1\n      extcodesize\n      iszero\n        /* \"--CODEGEN--\":2:4   */\n      dup1\n      iszero\n      tag_279\n      jumpi\n        /* \"--CODEGEN--\":27:28   */\n      0x00\n        /* \"--CODEGEN--\":24:25   */\n      dup1\n        /* \"--CODEGEN--\":17:29   */\n      revert\n        /* \"--CODEGEN--\":2:4   */\n    tag_279:\n        /* \"PancakeRouter01.sol\":4374:4401  IPancakePair(pair).burn(to) */\n      pop\n      gas\n      call\n      iszero\n        /* \"--CODEGEN--\":8:17   */\n      dup1\n        /* \"--CODEGEN--\":5:7   */\n      iszero\n      tag_281\n      jumpi\n        /* \"--CODEGEN--\":45:61   */\n      returndatasize\n        /* \"--CODEGEN--\":42:43   */\n      0x00\n        /* \"--CODEGEN--\":39:40   */\n      dup1\n        /* \"--CODEGEN--\":24:62   */\n      returndatacopy\n        /* \"--CODEGEN--\":77:93   */\n      returndatasize\n        /* \"--CODEGEN--\":74:75   */\n      0x00\n        /* \"--CODEGEN--\":67:94   */\n      revert\n        /* \"--CODEGEN--\":5:7   */\n    tag_281:\n        /* \"PancakeRouter01.sol\":4374:4401  IPancakePair(pair).burn(to) */\n      pop\n      pop\n      pop\n      pop\n      mload(0x40)\n      returndatasize\n        /* \"--CODEGEN--\":15:17   */\n      0x40\n        /* \"--CODEGEN--\":10:13   */\n      dup2\n        /* \"--CODEGEN--\":7:18   */\n      lt\n        /* \"--CODEGEN--\":4:6   */\n      iszero\n      tag_282\n      jumpi\n        /* \"--CODEGEN--\":31:32   */\n      0x00\n        /* \"--CODEGEN--\":28:29   */\n      dup1\n        /* \"--CODEGEN--\":21:33   */\n      revert\n        /* \"--CODEGEN--\":4:6   */\n    tag_282:\n      pop\n        /* \"PancakeRouter01.sol\":4374:4401  IPancakePair(pair).burn(to) */\n      dup1\n      mload\n      0x20\n      swap1\n      swap2\n      add\n      mload\n      swap1\n      swap3\n      pop\n      swap1\n      pop\n        /* \"PancakeRouter01.sol\":4412:4426  address token0 */\n      0x00\n        /* \"PancakeRouter01.sol\":4431:4472  PancakeLibrary.sortTokens(tokenA, tokenB) */\n      tag_283\n        /* \"PancakeRouter01.sol\":4457:4463  tokenA */\n      dup15\n        /* \"PancakeRouter01.sol\":4465:4471  tokenB */\n      dup15\n        /* \"PancakeRouter01.sol\":4431:4456  PancakeLibrary.sortTokens */\n      tag_284\n        /* \"PancakeRouter01.sol\":4431:4472  PancakeLibrary.sortTokens(tokenA, tokenB) */\n      jump\t// in\n    tag_283:\n        /* \"PancakeRouter01.sol\":4411:4472  (address token0,) = PancakeLibrary.sortTokens(tokenA, tokenB) */\n      pop\n      swap1\n      pop\n        /* \"PancakeRouter01.sol\":4513:4519  token0 */\n      dup1\n      sub(shl(0xa0, 0x01), 0x01)\n        /* \"PancakeRouter01.sol\":4503:4519  tokenA == token0 */\n      and\n        /* \"PancakeRouter01.sol\":4503:4509  tokenA */\n      dup15\n      sub(shl(0xa0, 0x01), 0x01)\n        /* \"PancakeRouter01.sol\":4503:4519  tokenA == token0 */\n      and\n      eq\n        /* \"PancakeRouter01.sol\":4503:4561  tokenA == token0 ? (amount0, amount1) : (amount1, amount0) */\n      tag_285\n      jumpi\n        /* \"PancakeRouter01.sol\":4544:4551  amount1 */\n      dup2\n        /* \"PancakeRouter01.sol\":4553:4560  amount0 */\n      dup4\n        /* \"PancakeRouter01.sol\":4503:4561  tokenA == token0 ? (amount0, amount1) : (amount1, amount0) */\n      jump(tag_286)\n    tag_285:\n        /* \"PancakeRouter01.sol\":4523:4530  amount0 */\n      dup3\n        /* \"PancakeRouter01.sol\":4532:4539  amount1 */\n      dup3\n        /* \"PancakeRouter01.sol\":4503:4561  tokenA == token0 ? (amount0, amount1) : (amount1, amount0) */\n    tag_286:\n        /* \"PancakeRouter01.sol\":4482:4561  (amountA, amountB) = tokenA == token0 ? (amount0, amount1) : (amount1, amount0) */\n      swap1\n      swap8\n      pop\n      swap6\n      pop\n        /* \"PancakeRouter01.sol\":4579:4600  amountA >= amountAMin */\n      dup11\n      dup8\n      lt\n      iszero\n        /* \"PancakeRouter01.sol\":4571:4641  require(amountA >= amountAMin, 'PancakeRouter: INSUFFICIENT_A_AMOUNT') */\n      tag_287\n      jumpi\n      mload(0x40)\n      shl(0xe5, 0x461bcd)\n      dup2\n      mstore\n      0x04\n      add\n      dup1\n      dup1\n      0x20\n      add\n      dup3\n      dup2\n      sub\n      dup3\n      mstore\n      0x24\n      dup2\n      mstore\n      0x20\n      add\n      dup1\n      data_9a6260423fdc88a337a0f9f8760b69a29bc94052bb07dc1cf319f59a04b7572b\n      0x24\n      swap2\n      codecopy\n      0x40\n      add\n      swap2\n      pop\n      pop\n      mload(0x40)\n      dup1\n      swap2\n      sub\n      swap1\n      revert\n    tag_287:\n        /* \"PancakeRouter01.sol\":4670:4680  amountBMin */\n      dup10\n        /* \"PancakeRouter01.sol\":4659:4666  amountB */\n      dup7\n        /* \"PancakeRouter01.sol\":4659:4680  amountB >= amountBMin */\n      lt\n      iszero\n        /* \"PancakeRouter01.sol\":4651:4721  require(amountB >= amountBMin, 'PancakeRouter: INSUFFICIENT_B_AMOUNT') */\n      tag_288\n      jumpi\n      mload(0x40)\n      shl(0xe5, 0x461bcd)\n      dup2\n      mstore\n      0x04\n      add\n      dup1\n      dup1\n      0x20\n      add\n      dup3\n      dup2\n      sub\n      dup3\n      mstore\n      0x24\n      dup2\n      mstore\n      0x20\n      add\n      dup1\n      data_f52a741502b5da50a5ea2d120670dbc8a41268419821689a668eee625b765bdd\n      0x24\n      swap2\n      codecopy\n      0x40\n      add\n      swap2\n      pop\n      pop\n      mload(0x40)\n      dup1\n      swap2\n      sub\n      swap1\n      revert\n    tag_288:\n        /* \"PancakeRouter01.sol\":576:577  _ */\n      pop\n      pop\n      pop\n      pop\n        /* \"PancakeRouter01.sol\":3899:4728  function removeLiquidity(... */\n      pop\n      swap8\n      pop\n      swap8\n      swap6\n      pop\n      pop\n      pop\n      pop\n      pop\n      pop\n      jump\t// out\n        /* \"PancakeRouter01.sol\":371:412  address public immutable override factory */\n    tag_116:\n      immutable(\"0x5bcd163b2238ff85648d293e01a327b5c7f9ae69498a752a4883e839ddddafcb\")\n      dup2\n      jump\t// out\n        /* \"PancakeRouter01.sol\":12208:12399  function getAmountsOut(uint amountIn, address[] memory path) public view override returns (uint[] memory amounts) {... */\n    tag_123:\n        /* \"PancakeRouter01.sol\":12299:12320  uint[] memory amounts */\n      0x60\n        /* \"PancakeRouter01.sol\":12339:12392  PancakeLibrary.getAmountsOut(factory, amountIn, path) */\n      tag_187\n        /* \"PancakeRouter01.sol\":12368:12375  factory */\n      immutable(\"0x5bcd163b2238ff85648d293e01a327b5c7f9ae69498a752a4883e839ddddafcb\")\n        /* \"PancakeRouter01.sol\":12377:12385  amountIn */\n      dup5\n        /* \"PancakeRouter01.sol\":12387:12391  path */\n      dup5\n        /* \"PancakeRouter01.sol\":12339:12367  PancakeLibrary.getAmountsOut */\n      tag_167\n        /* \"PancakeRouter01.sol\":12339:12392  PancakeLibrary.getAmountsOut(factory, amountIn, path) */\n      jump\t// in\n        /* \"PancakeRouter01.sol\":6039:6683  function removeLiquidityETHWithPermit(... */\n    tag_130:\n        /* \"PancakeRouter01.sol\":6312:6328  uint amountToken */\n      0x00\n        /* \"PancakeRouter01.sol\":6330:6344  uint amountETH */\n      dup1\n        /* \"PancakeRouter01.sol\":6356:6368  address pair */\n      0x00\n        /* \"PancakeRouter01.sol\":6371:6415  PancakeLibrary.pairFor(factory, token, WETH) */\n      tag_292\n        /* \"PancakeRouter01.sol\":6394:6401  factory */\n      immutable(\"0x5bcd163b2238ff85648d293e01a327b5c7f9ae69498a752a4883e839ddddafcb\")\n        /* \"PancakeRouter01.sol\":6403:6408  token */\n      dup15\n        /* \"PancakeRouter01.sol\":6410:6414  WETH */\n      immutable(\"0x9abd569a0444be7ce52d46a7fb79009940c0c0442116f15017290ff13cb4450c\")\n        /* \"PancakeRouter01.sol\":6371:6393  PancakeLibrary.pairFor */\n      tag_175\n        /* \"PancakeRouter01.sol\":6371:6415  PancakeLibrary.pairFor(factory, token, WETH) */\n      jump\t// in\n    tag_292:\n        /* \"PancakeRouter01.sol\":6356:6415  address pair = PancakeLibrary.pairFor(factory, token, WETH) */\n      swap1\n      pop\n        /* \"PancakeRouter01.sol\":6425:6435  uint value */\n      0x00\n        /* \"PancakeRouter01.sol\":6438:6448  approveMax */\n      dup8\n        /* \"PancakeRouter01.sol\":6438:6471  approveMax ? uint(-1) : liquidity */\n      tag_293\n      jumpi\n        /* \"PancakeRouter01.sol\":6462:6471  liquidity */\n      dup13\n        /* \"PancakeRouter01.sol\":6438:6471  approveMax ? uint(-1) : liquidity */\n      jump(tag_294)\n    tag_293:\n      not(0x00)\n    tag_294:\n        /* \"PancakeRouter01.sol\":6481:6559  IPancakePair(pair).permit(msg.sender, address(this), value, deadline, v, r, s) */\n      0x40\n      dup1\n      mload\n      shl(0xe0, 0xd505accf)\n      dup2\n      mstore\n        /* \"PancakeRouter01.sol\":6507:6517  msg.sender */\n      caller\n        /* \"PancakeRouter01.sol\":6481:6559  IPancakePair(pair).permit(msg.sender, address(this), value, deadline, v, r, s) */\n      0x04\n      dup3\n      add\n      mstore\n        /* \"PancakeRouter01.sol\":6527:6531  this */\n      address\n        /* \"PancakeRouter01.sol\":6481:6559  IPancakePair(pair).permit(msg.sender, address(this), value, deadline, v, r, s) */\n      0x24\n      dup3\n      add\n      mstore\n      0x44\n      dup2\n      add\n      dup4\n      swap1\n      mstore\n      0x64\n      dup2\n      add\n      dup13\n      swap1\n      mstore\n      0xff\n      dup11\n      and\n      0x84\n      dup3\n      add\n      mstore\n      0xa4\n      dup2\n      add\n      dup10\n      swap1\n      mstore\n      0xc4\n      dup2\n      add\n      dup9\n      swap1\n      mstore\n      swap1\n      mload\n        /* \"PancakeRouter01.sol\":6425:6471  uint value = approveMax ? uint(-1) : liquidity */\n      swap2\n      swap3\n      pop\n      sub(shl(0xa0, 0x01), 0x01)\n        /* \"PancakeRouter01.sol\":6481:6506  IPancakePair(pair).permit */\n      dup5\n      and\n      swap2\n      0xd505accf\n      swap2\n        /* \"PancakeRouter01.sol\":6481:6559  IPancakePair(pair).permit(msg.sender, address(this), value, deadline, v, r, s) */\n      0xe4\n      dup1\n      dup3\n      add\n      swap3\n      0x00\n      swap3\n      swap1\n      swap2\n      swap1\n      dup3\n      swap1\n      sub\n      add\n      dup2\n      dup4\n        /* \"PancakeRouter01.sol\":6481:6506  IPancakePair(pair).permit */\n      dup8\n        /* \"PancakeRouter01.sol\":6481:6559  IPancakePair(pair).permit(msg.sender, address(this), value, deadline, v, r, s) */\n      dup1\n      extcodesize\n      iszero\n        /* \"--CODEGEN--\":2:4   */\n      dup1\n      iszero\n      tag_295\n      jumpi\n        /* \"--CODEGEN--\":27:28   */\n      0x00\n        /* \"--CODEGEN--\":24:25   */\n      dup1\n        /* \"--CODEGEN--\":17:29   */\n      revert\n        /* \"--CODEGEN--\":2:4   */\n    tag_295:\n        /* \"PancakeRouter01.sol\":6481:6559  IPancakePair(pair).permit(msg.sender, address(this), value, deadline, v, r, s) */\n      pop\n      gas\n      call\n      iszero\n        /* \"--CODEGEN--\":8:17   */\n      dup1\n        /* \"--CODEGEN--\":5:7   */\n      iszero\n      tag_297\n      jumpi\n        /* \"--CODEGEN--\":45:61   */\n      returndatasize\n        /* \"--CODEGEN--\":42:43   */\n      0x00\n        /* \"--CODEGEN--\":39:40   */\n      dup1\n        /* \"--CODEGEN--\":24:62   */\n      returndatacopy\n        /* \"--CODEGEN--\":77:93   */\n      returndatasize\n        /* \"--CODEGEN--\":74:75   */\n      0x00\n        /* \"--CODEGEN--\":67:94   */\n      revert\n        /* \"--CODEGEN--\":5:7   */\n    tag_297:\n        /* \"PancakeRouter01.sol\":6481:6559  IPancakePair(pair).permit(msg.sender, address(this), value, deadline, v, r, s) */\n      pop\n      pop\n      pop\n      pop\n        /* \"PancakeRouter01.sol\":6596:6676  removeLiquidityETH(token, liquidity, amountTokenMin, amountETHMin, to, deadline) */\n      tag_298\n        /* \"PancakeRouter01.sol\":6615:6620  token */\n      dup15\n        /* \"PancakeRouter01.sol\":6622:6631  liquidity */\n      dup15\n        /* \"PancakeRouter01.sol\":6633:6647  amountTokenMin */\n      dup15\n        /* \"PancakeRouter01.sol\":6649:6661  amountETHMin */\n      dup15\n        /* \"PancakeRouter01.sol\":6663:6665  to */\n      dup15\n        /* \"PancakeRouter01.sol\":6667:6675  deadline */\n      dup15\n        /* \"PancakeRouter01.sol\":6596:6614  removeLiquidityETH */\n      tag_31\n        /* \"PancakeRouter01.sol\":6596:6676  removeLiquidityETH(token, liquidity, amountTokenMin, amountETHMin, to, deadline) */\n      jump\t// in\n    tag_298:\n        /* \"PancakeRouter01.sol\":6569:6676  (amountToken, amountETH) = removeLiquidityETH(token, liquidity, amountTokenMin, amountETHMin, to, deadline) */\n      swap1\n      swap16\n      swap1\n      swap15\n      pop\n        /* \"PancakeRouter01.sol\":6039:6683  function removeLiquidityETHWithPermit(... */\n      swap13\n      pop\n      pop\n      pop\n      pop\n      pop\n      pop\n      pop\n      pop\n      pop\n      pop\n      pop\n      pop\n      pop\n      jump\t// out\n        /* \"PancakeRouter01.sol\":2212:2923  function addLiquidity(... */\n    tag_134:\n        /* \"PancakeRouter01.sol\":2483:2495  uint amountA */\n      0x00\n        /* \"PancakeRouter01.sol\":2497:2509  uint amountB */\n      dup1\n        /* \"PancakeRouter01.sol\":2511:2525  uint liquidity */\n      0x00\n        /* \"PancakeRouter01.sol\":2464:2472  deadline */\n      dup4\n        /* \"PancakeRouter01.sol\":524:539  block.timestamp */\n      timestamp\n        /* \"PancakeRouter01.sol\":512:520  deadline */\n      dup2\n        /* \"PancakeRouter01.sol\":512:539  deadline >= block.timestamp */\n      lt\n      iszero\n        /* \"PancakeRouter01.sol\":504:566  require(deadline >= block.timestamp, 'PancakeRouter: EXPIRED') */\n      tag_300\n      jumpi\n      0x40\n      dup1\n      mload\n      shl(0xe5, 0x461bcd)\n      dup2\n      mstore\n      0x20\n      0x04\n      dup3\n      add\n      mstore\n      0x16\n      0x24\n      dup3\n      add\n      mstore\n      0x00\n      dup1\n      mload\n      0x20\n      data_48da24abbb1fac1ad424fc0d0ddda728b5e193f1888a852641dc2d17535faffb\n      dup4\n      codecopy\n      dup2\n      mload\n      swap2\n      mstore\n      0x44\n      dup3\n      add\n      mstore\n      swap1\n      mload\n      swap1\n      dup2\n      swap1\n      sub\n      0x64\n      add\n      swap1\n      revert\n    tag_300:\n        /* \"PancakeRouter01.sol\":2558:2643  _addLiquidity(tokenA, tokenB, amountADesired, amountBDesired, amountAMin, amountBMin) */\n      tag_302\n        /* \"PancakeRouter01.sol\":2572:2578  tokenA */\n      dup13\n        /* \"PancakeRouter01.sol\":2580:2586  tokenB */\n      dup13\n        /* \"PancakeRouter01.sol\":2588:2602  amountADesired */\n      dup13\n        /* \"PancakeRouter01.sol\":2604:2618  amountBDesired */\n      dup13\n        /* \"PancakeRouter01.sol\":2620:2630  amountAMin */\n      dup13\n        /* \"PancakeRouter01.sol\":2632:2642  amountBMin */\n      dup13\n        /* \"PancakeRouter01.sol\":2558:2571  _addLiquidity */\n      tag_303\n        /* \"PancakeRouter01.sol\":2558:2643  _addLiquidity(tokenA, tokenB, amountADesired, amountBDesired, amountAMin, amountBMin) */\n      jump\t// in\n    tag_302:\n        /* \"PancakeRouter01.sol\":2537:2643  (amountA, amountB) = _addLiquidity(tokenA, tokenB, amountADesired, amountBDesired, amountAMin, amountBMin) */\n      swap1\n      swap5\n      pop\n      swap3\n      pop\n        /* \"PancakeRouter01.sol\":2653:2665  address pair */\n      0x00\n        /* \"PancakeRouter01.sol\":2668:2715  PancakeLibrary.pairFor(factory, tokenA, tokenB) */\n      tag_304\n        /* \"PancakeRouter01.sol\":2691:2698  factory */\n      immutable(\"0x5bcd163b2238ff85648d293e01a327b5c7f9ae69498a752a4883e839ddddafcb\")\n        /* \"PancakeRouter01.sol\":2700:2706  tokenA */\n      dup15\n        /* \"PancakeRouter01.sol\":2708:2714  tokenB */\n      dup15\n        /* \"PancakeRouter01.sol\":2668:2690  PancakeLibrary.pairFor */\n      tag_175\n        /* \"PancakeRouter01.sol\":2668:2715  PancakeLibrary.pairFor(factory, tokenA, tokenB) */\n      jump\t// in\n    tag_304:\n        /* \"PancakeRouter01.sol\":2653:2715  address pair = PancakeLibrary.pairFor(factory, tokenA, tokenB) */\n      swap1\n      pop\n        /* \"PancakeRouter01.sol\":2725:2791  TransferHelper.safeTransferFrom(tokenA, msg.sender, pair, amountA) */\n      tag_305\n        /* \"PancakeRouter01.sol\":2757:2763  tokenA */\n      dup14\n        /* \"PancakeRouter01.sol\":2765:2775  msg.sender */\n      caller\n        /* \"PancakeRouter01.sol\":2777:2781  pair */\n      dup4\n        /* \"PancakeRouter01.sol\":2783:2790  amountA */\n      dup9\n        /* \"PancakeRouter01.sol\":2725:2756  TransferHelper.safeTransferFrom */\n      tag_177\n        /* \"PancakeRouter01.sol\":2725:2791  TransferHelper.safeTransferFrom(tokenA, msg.sender, pair, amountA) */\n      jump\t// in\n    tag_305:\n        /* \"PancakeRouter01.sol\":2801:2867  TransferHelper.safeTransferFrom(tokenB, msg.sender, pair, amountB) */\n      tag_306\n        /* \"PancakeRouter01.sol\":2833:2839  tokenB */\n      dup13\n        /* \"PancakeRouter01.sol\":2841:2851  msg.sender */\n      caller\n        /* \"PancakeRouter01.sol\":2853:2857  pair */\n      dup4\n        /* \"PancakeRouter01.sol\":2859:2866  amountB */\n      dup8\n        /* \"PancakeRouter01.sol\":2801:2832  TransferHelper.safeTransferFrom */\n      tag_177\n        /* \"PancakeRouter01.sol\":2801:2867  TransferHelper.safeTransferFrom(tokenB, msg.sender, pair, amountB) */\n      jump\t// in\n    tag_306:\n        /* \"PancakeRouter01.sol\":2902:2906  pair */\n      dup1\n      sub(shl(0xa0, 0x01), 0x01)\n        /* \"PancakeRouter01.sol\":2889:2912  IPancakePair(pair).mint */\n      and\n      0x6a627842\n        /* \"PancakeRouter01.sol\":2913:2915  to */\n      dup9\n        /* \"PancakeRouter01.sol\":2889:2916  IPancakePair(pair).mint(to) */\n      mload(0x40)\n      dup3\n      0xffffffff\n      and\n      0xe0\n      shl\n      dup2\n      mstore\n      0x04\n      add\n      dup1\n      dup3\n      sub(shl(0xa0, 0x01), 0x01)\n      and\n      sub(shl(0xa0, 0x01), 0x01)\n      and\n      dup2\n      mstore\n      0x20\n      add\n      swap2\n      pop\n      pop\n      0x20\n      mload(0x40)\n      dup1\n      dup4\n      sub\n      dup2\n      0x00\n      dup8\n      dup1\n      extcodesize\n      iszero\n        /* \"--CODEGEN--\":5:14   */\n      dup1\n        /* \"--CODEGEN--\":2:4   */\n      iszero\n      tag_307\n      jumpi\n        /* \"--CODEGEN--\":27:28   */\n      0x00\n        /* \"--CODEGEN--\":24:25   */\n      dup1\n        /* \"--CODEGEN--\":17:29   */\n      revert\n        /* \"--CODEGEN--\":2:4   */\n    tag_307:\n        /* \"PancakeRouter01.sol\":2889:2916  IPancakePair(pair).mint(to) */\n      pop\n      gas\n      call\n      iszero\n        /* \"--CODEGEN--\":8:17   */\n      dup1\n        /* \"--CODEGEN--\":5:7   */\n      iszero\n      tag_309\n      jumpi\n        /* \"--CODEGEN--\":45:61   */\n      returndatasize\n        /* \"--CODEGEN--\":42:43   */\n      0x00\n        /* \"--CODEGEN--\":39:40   */\n      dup1\n        /* \"--CODEGEN--\":24:62   */\n      returndatacopy\n        /* \"--CODEGEN--\":77:93   */\n      returndatasize\n        /* \"--CODEGEN--\":74:75   */\n      0x00\n        /* \"--CODEGEN--\":67:94   */\n      revert\n        /* \"--CODEGEN--\":5:7   */\n    tag_309:\n        /* \"PancakeRouter01.sol\":2889:2916  IPancakePair(pair).mint(to) */\n      pop\n      pop\n      pop\n      pop\n      mload(0x40)\n      returndatasize\n        /* \"--CODEGEN--\":15:17   */\n      0x20\n        /* \"--CODEGEN--\":10:13   */\n      dup2\n        /* \"--CODEGEN--\":7:18   */\n      lt\n        /* \"--CODEGEN--\":4:6   */\n      iszero\n      tag_310\n      jumpi\n        /* \"--CODEGEN--\":31:32   */\n      0x00\n        /* \"--CODEGEN--\":28:29   */\n      dup1\n        /* \"--CODEGEN--\":21:33   */\n      revert\n        /* \"--CODEGEN--\":4:6   */\n    tag_310:\n      pop\n        /* \"PancakeRouter01.sol\":2889:2916  IPancakePair(pair).mint(to) */\n      mload\n        /* \"PancakeRouter01.sol\":2212:2923  function addLiquidity(... */\n      swap5\n      swap14\n      swap4\n      swap13\n      pop\n        /* \"PancakeRouter01.sol\":2889:2916  IPancakePair(pair).mint(to) */\n      swap4\n      swap11\n      pop\n        /* \"PancakeRouter01.sol\":2212:2923  function addLiquidity(... */\n      swap2\n      swap9\n      pop\n      pop\n      pop\n      pop\n      pop\n      pop\n      pop\n      pop\n      pop\n      jump\t// out\n        /* \"PancakeRouter01.sol\":2928:3859  function addLiquidityETH(... */\n    tag_137:\n        /* \"PancakeRouter01.sol\":3166:3182  uint amountToken */\n      0x00\n        /* \"PancakeRouter01.sol\":3184:3198  uint amountETH */\n      dup1\n        /* \"PancakeRouter01.sol\":3200:3214  uint liquidity */\n      0x00\n        /* \"PancakeRouter01.sol\":3147:3155  deadline */\n      dup4\n        /* \"PancakeRouter01.sol\":524:539  block.timestamp */\n      timestamp\n        /* \"PancakeRouter01.sol\":512:520  deadline */\n      dup2\n        /* \"PancakeRouter01.sol\":512:539  deadline >= block.timestamp */\n      lt\n      iszero\n        /* \"PancakeRouter01.sol\":504:566  require(deadline >= block.timestamp, 'PancakeRouter: EXPIRED') */\n      tag_312\n      jumpi\n      0x40\n      dup1\n      mload\n      shl(0xe5, 0x461bcd)\n      dup2\n      mstore\n      0x20\n      0x04\n      dup3\n      add\n      mstore\n      0x16\n      0x24\n      dup3\n      add\n      mstore\n      0x00\n      dup1\n      mload\n      0x20\n      data_48da24abbb1fac1ad424fc0d0ddda728b5e193f1888a852641dc2d17535faffb\n      dup4\n      codecopy\n      dup2\n      mload\n      swap2\n      mstore\n      0x44\n      dup3\n      add\n      mstore\n      swap1\n      mload\n      swap1\n      dup2\n      swap1\n      sub\n      0x64\n      add\n      swap1\n      revert\n    tag_312:\n        /* \"PancakeRouter01.sol\":3253:3422  _addLiquidity(... */\n      tag_314\n        /* \"PancakeRouter01.sol\":3280:3285  token */\n      dup11\n        /* \"PancakeRouter01.sol\":3299:3303  WETH */\n      immutable(\"0x9abd569a0444be7ce52d46a7fb79009940c0c0442116f15017290ff13cb4450c\")\n        /* \"PancakeRouter01.sol\":3317:3335  amountTokenDesired */\n      dup12\n        /* \"PancakeRouter01.sol\":3349:3358  msg.value */\n      callvalue\n        /* \"PancakeRouter01.sol\":3372:3386  amountTokenMin */\n      dup13\n        /* \"PancakeRouter01.sol\":3400:3412  amountETHMin */\n      dup13\n        /* \"PancakeRouter01.sol\":3253:3266  _addLiquidity */\n      tag_303\n        /* \"PancakeRouter01.sol\":3253:3422  _addLiquidity(... */\n      jump\t// in\n    tag_314:\n        /* \"PancakeRouter01.sol\":3226:3422  (amountToken, amountETH) = _addLiquidity(... */\n      swap1\n      swap5\n      pop\n      swap3\n      pop\n        /* \"PancakeRouter01.sol\":3432:3444  address pair */\n      0x00\n        /* \"PancakeRouter01.sol\":3447:3491  PancakeLibrary.pairFor(factory, token, WETH) */\n      tag_315\n        /* \"PancakeRouter01.sol\":3470:3477  factory */\n      immutable(\"0x5bcd163b2238ff85648d293e01a327b5c7f9ae69498a752a4883e839ddddafcb\")\n        /* \"PancakeRouter01.sol\":3479:3484  token */\n      dup13\n        /* \"PancakeRouter01.sol\":3486:3490  WETH */\n      immutable(\"0x9abd569a0444be7ce52d46a7fb79009940c0c0442116f15017290ff13cb4450c\")\n        /* \"PancakeRouter01.sol\":3447:3469  PancakeLibrary.pairFor */\n      tag_175\n        /* \"PancakeRouter01.sol\":3447:3491  PancakeLibrary.pairFor(factory, token, WETH) */\n      jump\t// in\n    tag_315:\n        /* \"PancakeRouter01.sol\":3432:3491  address pair = PancakeLibrary.pairFor(factory, token, WETH) */\n      swap1\n      pop\n        /* \"PancakeRouter01.sol\":3501:3570  TransferHelper.safeTransferFrom(token, msg.sender, pair, amountToken) */\n      tag_316\n        /* \"PancakeRouter01.sol\":3533:3538  token */\n      dup12\n        /* \"PancakeRouter01.sol\":3540:3550  msg.sender */\n      caller\n        /* \"PancakeRouter01.sol\":3552:3556  pair */\n      dup4\n        /* \"PancakeRouter01.sol\":3558:3569  amountToken */\n      dup9\n        /* \"PancakeRouter01.sol\":3501:3532  TransferHelper.safeTransferFrom */\n      tag_177\n        /* \"PancakeRouter01.sol\":3501:3570  TransferHelper.safeTransferFrom(token, msg.sender, pair, amountToken) */\n      jump\t// in\n    tag_316:\n        /* \"PancakeRouter01.sol\":3586:3590  WETH */\n      immutable(\"0x9abd569a0444be7ce52d46a7fb79009940c0c0442116f15017290ff13cb4450c\")\n      sub(shl(0xa0, 0x01), 0x01)\n        /* \"PancakeRouter01.sol\":3580:3599  IWETH(WETH).deposit */\n      and\n      0xd0e30db0\n        /* \"PancakeRouter01.sol\":3607:3616  amountETH */\n      dup6\n        /* \"PancakeRouter01.sol\":3580:3619  IWETH(WETH).deposit{value: amountETH}() */\n      mload(0x40)\n      dup3\n      0xffffffff\n      and\n      0xe0\n      shl\n      dup2\n      mstore\n      0x04\n      add\n      0x00\n      mload(0x40)\n      dup1\n      dup4\n      sub\n      dup2\n      dup6\n      dup9\n      dup1\n      extcodesize\n      iszero\n        /* \"--CODEGEN--\":5:14   */\n      dup1\n        /* \"--CODEGEN--\":2:4   */\n      iszero\n      tag_317\n      jumpi\n        /* \"--CODEGEN--\":27:28   */\n      0x00\n        /* \"--CODEGEN--\":24:25   */\n      dup1\n        /* \"--CODEGEN--\":17:29   */\n      revert\n        /* \"--CODEGEN--\":2:4   */\n    tag_317:\n        /* \"PancakeRouter01.sol\":3580:3619  IWETH(WETH).deposit{value: amountETH}() */\n      pop\n      gas\n      call\n      iszero\n        /* \"--CODEGEN--\":8:17   */\n      dup1\n        /* \"--CODEGEN--\":5:7   */\n      iszero\n      tag_319\n      jumpi\n        /* \"--CODEGEN--\":45:61   */\n      returndatasize\n        /* \"--CODEGEN--\":42:43   */\n      0x00\n        /* \"--CODEGEN--\":39:40   */\n      dup1\n        /* \"--CODEGEN--\":24:62   */\n      returndatacopy\n        /* \"--CODEGEN--\":77:93   */\n      returndatasize\n        /* \"--CODEGEN--\":74:75   */\n      0x00\n        /* \"--CODEGEN--\":67:94   */\n      revert\n        /* \"--CODEGEN--\":5:7   */\n    tag_319:\n        /* \"PancakeRouter01.sol\":3580:3619  IWETH(WETH).deposit{value: amountETH}() */\n      pop\n      pop\n      pop\n      pop\n      pop\n        /* \"PancakeRouter01.sol\":3642:3646  WETH */\n      immutable(\"0x9abd569a0444be7ce52d46a7fb79009940c0c0442116f15017290ff13cb4450c\")\n      sub(shl(0xa0, 0x01), 0x01)\n        /* \"PancakeRouter01.sol\":3636:3656  IWETH(WETH).transfer */\n      and\n      0xa9059cbb\n        /* \"PancakeRouter01.sol\":3657:3661  pair */\n      dup3\n        /* \"PancakeRouter01.sol\":3663:3672  amountETH */\n      dup7\n        /* \"PancakeRouter01.sol\":3636:3673  IWETH(WETH).transfer(pair, amountETH) */\n      mload(0x40)\n      dup4\n      0xffffffff\n      and\n      0xe0\n      shl\n      dup2\n      mstore\n      0x04\n      add\n      dup1\n      dup4\n      sub(shl(0xa0, 0x01), 0x01)\n      and\n      sub(shl(0xa0, 0x01), 0x01)\n      and\n      dup2\n      mstore\n      0x20\n      add\n      dup3\n      dup2\n      mstore\n      0x20\n      add\n      swap3\n      pop\n      pop\n      pop\n      0x20\n      mload(0x40)\n      dup1\n      dup4\n      sub\n      dup2\n      0x00\n      dup8\n      dup1\n      extcodesize\n      iszero\n        /* \"--CODEGEN--\":5:14   */\n      dup1\n        /* \"--CODEGEN--\":2:4   */\n      iszero\n      tag_320\n      jumpi\n        /* \"--CODEGEN--\":27:28   */\n      0x00\n        /* \"--CODEGEN--\":24:25   */\n      dup1\n        /* \"--CODEGEN--\":17:29   */\n      revert\n        /* \"--CODEGEN--\":2:4   */\n    tag_320:\n        /* \"PancakeRouter01.sol\":3636:3673  IWETH(WETH).transfer(pair, amountETH) */\n      pop\n      gas\n      call\n      iszero\n        /* \"--CODEGEN--\":8:17   */\n      dup1\n        /* \"--CODEGEN--\":5:7   */\n      iszero\n      tag_322\n      jumpi\n        /* \"--CODEGEN--\":45:61   */\n      returndatasize\n        /* \"--CODEGEN--\":42:43   */\n      0x00\n        /* \"--CODEGEN--\":39:40   */\n      dup1\n        /* \"--CODEGEN--\":24:62   */\n      returndatacopy\n        /* \"--CODEGEN--\":77:93   */\n      returndatasize\n        /* \"--CODEGEN--\":74:75   */\n      0x00\n        /* \"--CODEGEN--\":67:94   */\n      revert\n        /* \"--CODEGEN--\":5:7   */\n    tag_322:\n        /* \"PancakeRouter01.sol\":3636:3673  IWETH(WETH).transfer(pair, amountETH) */\n      pop\n      pop\n      pop\n      pop\n      mload(0x40)\n      returndatasize\n        /* \"--CODEGEN--\":15:17   */\n      0x20\n        /* \"--CODEGEN--\":10:13   */\n      dup2\n        /* \"--CODEGEN--\":7:18   */\n      lt\n        /* \"--CODEGEN--\":4:6   */\n      iszero\n      tag_323\n      jumpi\n        /* \"--CODEGEN--\":31:32   */\n      0x00\n        /* \"--CODEGEN--\":28:29   */\n      dup1\n        /* \"--CODEGEN--\":21:33   */\n      revert\n        /* \"--CODEGEN--\":4:6   */\n    tag_323:\n      pop\n        /* \"PancakeRouter01.sol\":3636:3673  IWETH(WETH).transfer(pair, amountETH) */\n      mload\n        /* \"PancakeRouter01.sol\":3629:3674  assert(IWETH(WETH).transfer(pair, amountETH)) */\n      tag_324\n      jumpi\n      invalid\n    tag_324:\n        /* \"PancakeRouter01.sol\":3709:3713  pair */\n      dup1\n      sub(shl(0xa0, 0x01), 0x01)\n        /* \"PancakeRouter01.sol\":3696:3719  IPancakePair(pair).mint */\n      and\n      0x6a627842\n        /* \"PancakeRouter01.sol\":3720:3722  to */\n      dup9\n        /* \"PancakeRouter01.sol\":3696:3723  IPancakePair(pair).mint(to) */\n      mload(0x40)\n      dup3\n      0xffffffff\n      and\n      0xe0\n      shl\n      dup2\n      mstore\n      0x04\n      add\n      dup1\n      dup3\n      sub(shl(0xa0, 0x01), 0x01)\n      and\n      sub(shl(0xa0, 0x01), 0x01)\n      and\n      dup2\n      mstore\n      0x20\n      add\n      swap2\n      pop\n      pop\n      0x20\n      mload(0x40)\n      dup1\n      dup4\n      sub\n      dup2\n      0x00\n      dup8\n      dup1\n      extcodesize\n      iszero\n        /* \"--CODEGEN--\":5:14   */\n      dup1\n        /* \"--CODEGEN--\":2:4   */\n      iszero\n      tag_325\n      jumpi\n        /* \"--CODEGEN--\":27:28   */\n      0x00\n        /* \"--CODEGEN--\":24:25   */\n      dup1\n        /* \"--CODEGEN--\":17:29   */\n      revert\n        /* \"--CODEGEN--\":2:4   */\n    tag_325:\n        /* \"PancakeRouter01.sol\":3696:3723  IPancakePair(pair).mint(to) */\n      pop\n      gas\n      call\n      iszero\n        /* \"--CODEGEN--\":8:17   */\n      dup1\n        /* \"--CODEGEN--\":5:7   */\n      iszero\n      tag_327\n      jumpi\n        /* \"--CODEGEN--\":45:61   */\n      returndatasize\n        /* \"--CODEGEN--\":42:43   */\n      0x00\n        /* \"--CODEGEN--\":39:40   */\n      dup1\n        /* \"--CODEGEN--\":24:62   */\n      returndatacopy\n        /* \"--CODEGEN--\":77:93   */\n      returndatasize\n        /* \"--CODEGEN--\":74:75   */\n      0x00\n        /* \"--CODEGEN--\":67:94   */\n      revert\n        /* \"--CODEGEN--\":5:7   */\n    tag_327:\n        /* \"PancakeRouter01.sol\":3696:3723  IPancakePair(pair).mint(to) */\n      pop\n      pop\n      pop\n      pop\n      mload(0x40)\n      returndatasize\n        /* \"--CODEGEN--\":15:17   */\n      0x20\n        /* \"--CODEGEN--\":10:13   */\n      dup2\n        /* \"--CODEGEN--\":7:18   */\n      lt\n        /* \"--CODEGEN--\":4:6   */\n      iszero\n      tag_328\n      jumpi\n        /* \"--CODEGEN--\":31:32   */\n      0x00\n        /* \"--CODEGEN--\":28:29   */\n      dup1\n        /* \"--CODEGEN--\":21:33   */\n      revert\n        /* \"--CODEGEN--\":4:6   */\n    tag_328:\n      pop\n        /* \"PancakeRouter01.sol\":3696:3723  IPancakePair(pair).mint(to) */\n      mload\n      swap3\n      pop\n        /* \"PancakeRouter01.sol\":3737:3746  msg.value */\n      callvalue\n        /* \"PancakeRouter01.sol\":3737:3758  msg.value > amountETH */\n      dup5\n      lt\n        /* \"PancakeRouter01.sol\":3733:3825  if (msg.value > amountETH) TransferHelper.safeTransferETH(msg.sender, msg.value - amountETH) */\n      iszero\n      tag_330\n      jumpi\n        /* \"PancakeRouter01.sol\":3760:3825  TransferHelper.safeTransferETH(msg.sender, msg.value - amountETH) */\n      tag_330\n        /* \"PancakeRouter01.sol\":3791:3801  msg.sender */\n      caller\n        /* \"PancakeRouter01.sol\":3815:3824  amountETH */\n      dup6\n        /* \"PancakeRouter01.sol\":3803:3812  msg.value */\n      callvalue\n        /* \"PancakeRouter01.sol\":3803:3824  msg.value - amountETH */\n      sub\n        /* \"PancakeRouter01.sol\":3760:3790  TransferHelper.safeTransferETH */\n      tag_157\n        /* \"PancakeRouter01.sol\":3760:3825  TransferHelper.safeTransferETH(msg.sender, msg.value - amountETH) */\n      jump\t// in\n    tag_330:\n        /* \"PancakeRouter01.sol\":576:577  _ */\n      pop\n        /* \"PancakeRouter01.sol\":2928:3859  function addLiquidityETH(... */\n      pop\n      swap7\n      pop\n      swap7\n      pop\n      swap7\n      swap4\n      pop\n      pop\n      pop\n      pop\n      jump\t// out\n        /* \"PancakeRouter01.sol\":10846:11608  function swapETHForExactTokens(uint amountOut, address[] calldata path, address to, uint deadline)... */\n    tag_143:\n        /* \"PancakeRouter01.sol\":11037:11058  uint[] memory amounts */\n      0x60\n        /* \"PancakeRouter01.sol\":11010:11018  deadline */\n      dup2\n        /* \"PancakeRouter01.sol\":524:539  block.timestamp */\n      timestamp\n        /* \"PancakeRouter01.sol\":512:520  deadline */\n      dup2\n        /* \"PancakeRouter01.sol\":512:539  deadline >= block.timestamp */\n      lt\n      iszero\n        /* \"PancakeRouter01.sol\":504:566  require(deadline >= block.timestamp, 'PancakeRouter: EXPIRED') */\n      tag_332\n      jumpi\n      0x40\n      dup1\n      mload\n      shl(0xe5, 0x461bcd)\n      dup2\n      mstore\n      0x20\n      0x04\n      dup3\n      add\n      mstore\n      0x16\n      0x24\n      dup3\n      add\n      mstore\n      0x00\n      dup1\n      mload\n      0x20\n      data_48da24abbb1fac1ad424fc0d0ddda728b5e193f1888a852641dc2d17535faffb\n      dup4\n      codecopy\n      dup2\n      mload\n      swap2\n      mstore\n      0x44\n      dup3\n      add\n      mstore\n      swap1\n      mload\n      swap1\n      dup2\n      swap1\n      sub\n      0x64\n      add\n      swap1\n      revert\n    tag_332:\n        /* \"PancakeRouter01.sol\":11093:11097  WETH */\n      immutable(\"0x9abd569a0444be7ce52d46a7fb79009940c0c0442116f15017290ff13cb4450c\")\n      sub(shl(0xa0, 0x01), 0x01)\n        /* \"PancakeRouter01.sol\":11082:11097  path[0] == WETH */\n      and\n        /* \"PancakeRouter01.sol\":11082:11086  path */\n      dup7\n      dup7\n        /* \"PancakeRouter01.sol\":11087:11088  0 */\n      0x00\n        /* \"PancakeRouter01.sol\":11082:11089  path[0] */\n      dup2\n      dup2\n      lt\n      tag_334\n      jumpi\n      invalid\n    tag_334:\n      swap1\n      pop\n      0x20\n      mul\n      add\n      calldataload\n      sub(shl(0xa0, 0x01), 0x01)\n      and\n      sub(shl(0xa0, 0x01), 0x01)\n        /* \"PancakeRouter01.sol\":11082:11097  path[0] == WETH */\n      and\n      eq\n        /* \"PancakeRouter01.sol\":11074:11129  require(path[0] == WETH, 'PancakeRouter: INVALID_PATH') */\n      tag_335\n      jumpi\n      0x40\n      dup1\n      mload\n      shl(0xe5, 0x461bcd)\n      dup2\n      mstore\n      0x20\n      0x04\n      dup3\n      add\n      mstore\n      0x1b\n      0x24\n      dup3\n      add\n      mstore\n      0x00\n      dup1\n      mload\n      0x20\n      data_82928200364a85809bf4a0b91c6d2eba6bdb5bd92df2e22eb8eef03222c3f531\n      dup4\n      codecopy\n      dup2\n      mload\n      swap2\n      mstore\n      0x44\n      dup3\n      add\n      mstore\n      swap1\n      mload\n      swap1\n      dup2\n      swap1\n      sub\n      0x64\n      add\n      swap1\n      revert\n    tag_335:\n        /* \"PancakeRouter01.sol\":11149:11202  PancakeLibrary.getAmountsIn(factory, amountOut, path) */\n      tag_336\n        /* \"PancakeRouter01.sol\":11177:11184  factory */\n      immutable(\"0x5bcd163b2238ff85648d293e01a327b5c7f9ae69498a752a4883e839ddddafcb\")\n        /* \"PancakeRouter01.sol\":11186:11195  amountOut */\n      dup9\n        /* \"PancakeRouter01.sol\":11197:11201  path */\n      dup9\n      dup9\n        /* \"PancakeRouter01.sol\":11149:11202  PancakeLibrary.getAmountsIn(factory, amountOut, path) */\n      dup1\n      dup1\n      0x20\n      mul\n      0x20\n      add\n      mload(0x40)\n      swap1\n      dup2\n      add\n      0x40\n      mstore\n      dup1\n      swap4\n      swap3\n      swap2\n      swap1\n      dup2\n      dup2\n      mstore\n      0x20\n      add\n      dup4\n      dup4\n      0x20\n      mul\n        /* \"--CODEGEN--\":30:33   */\n      dup1\n        /* \"--CODEGEN--\":22:28   */\n      dup3\n        /* \"--CODEGEN--\":14:20   */\n      dup5\n        /* \"--CODEGEN--\":1:34   */\n      calldatacopy\n        /* \"--CODEGEN--\":99:100   */\n      0x00\n        /* \"--CODEGEN--\":81:97   */\n      swap3\n      add\n        /* \"--CODEGEN--\":74:101   */\n      swap2\n      swap1\n      swap2\n      mstore\n      pop\n        /* \"PancakeRouter01.sol\":11149:11176  PancakeLibrary.getAmountsIn */\n      tag_188\n      swap3\n      pop\n      pop\n      pop\n        /* \"PancakeRouter01.sol\":11149:11202  PancakeLibrary.getAmountsIn(factory, amountOut, path) */\n      jump\t// in\n    tag_336:\n        /* \"PancakeRouter01.sol\":11139:11202  amounts = PancakeLibrary.getAmountsIn(factory, amountOut, path) */\n      swap2\n      pop\n        /* \"PancakeRouter01.sol\":11234:11243  msg.value */\n      callvalue\n        /* \"PancakeRouter01.sol\":11220:11227  amounts */\n      dup3\n        /* \"PancakeRouter01.sol\":11228:11229  0 */\n      0x00\n        /* \"PancakeRouter01.sol\":11220:11230  amounts[0] */\n      dup2\n      mload\n      dup2\n      lt\n      tag_337\n      jumpi\n      invalid\n    tag_337:\n      0x20\n      mul\n      0x20\n      add\n      add\n      mload\n        /* \"PancakeRouter01.sol\":11220:11243  amounts[0] <= msg.value */\n      gt\n      iszero\n        /* \"PancakeRouter01.sol\":11212:11285  require(amounts[0] <= msg.value, 'PancakeRouter: EXCESSIVE_INPUT_AMOUNT') */\n      tag_338\n      jumpi\n      mload(0x40)\n      shl(0xe5, 0x461bcd)\n      dup2\n      mstore\n      0x04\n      add\n      dup1\n      dup1\n      0x20\n      add\n      dup3\n      dup2\n      sub\n      dup3\n      mstore\n      0x25\n      dup2\n      mstore\n      0x20\n      add\n      dup1\n      data_e6ebac85a9dcf9d43d23a00e3f0314a74ac256fe09f8252fc03ff2284a4761ee\n      0x25\n      swap2\n      codecopy\n      0x40\n      add\n      swap2\n      pop\n      pop\n      mload(0x40)\n      dup1\n      swap2\n      sub\n      swap1\n      revert\n    tag_338:\n        /* \"PancakeRouter01.sol\":11301:11305  WETH */\n      immutable(\"0x9abd569a0444be7ce52d46a7fb79009940c0c0442116f15017290ff13cb4450c\")\n      sub(shl(0xa0, 0x01), 0x01)\n        /* \"PancakeRouter01.sol\":11295:11314  IWETH(WETH).deposit */\n      and\n      0xd0e30db0\n        /* \"PancakeRouter01.sol\":11322:11329  amounts */\n      dup4\n        /* \"PancakeRouter01.sol\":11330:11331  0 */\n      0x00\n        /* \"PancakeRouter01.sol\":11322:11332  amounts[0] */\n      dup2\n      mload\n      dup2\n      lt\n      tag_339\n      jumpi\n      invalid\n    tag_339:\n      0x20\n      mul\n      0x20\n      add\n      add\n      mload\n        /* \"PancakeRouter01.sol\":11295:11335  IWETH(WETH).deposit{value: amounts[0]}() */\n      mload(0x40)\n      dup3\n      0xffffffff\n      and\n      0xe0\n      shl\n      dup2\n      mstore\n      0x04\n      add\n      0x00\n      mload(0x40)\n      dup1\n      dup4\n      sub\n      dup2\n      dup6\n      dup9\n      dup1\n      extcodesize\n      iszero\n        /* \"--CODEGEN--\":5:14   */\n      dup1\n        /* \"--CODEGEN--\":2:4   */\n      iszero\n      tag_340\n      jumpi\n        /* \"--CODEGEN--\":27:28   */\n      0x00\n        /* \"--CODEGEN--\":24:25   */\n      dup1\n        /* \"--CODEGEN--\":17:29   */\n      revert\n        /* \"--CODEGEN--\":2:4   */\n    tag_340:\n        /* \"PancakeRouter01.sol\":11295:11335  IWETH(WETH).deposit{value: amounts[0]}() */\n      pop\n      gas\n      call\n      iszero\n        /* \"--CODEGEN--\":8:17   */\n      dup1\n        /* \"--CODEGEN--\":5:7   */\n      iszero\n      tag_342\n      jumpi\n        /* \"--CODEGEN--\":45:61   */\n      returndatasize\n        /* \"--CODEGEN--\":42:43   */\n      0x00\n        /* \"--CODEGEN--\":39:40   */\n      dup1\n        /* \"--CODEGEN--\":24:62   */\n      returndatacopy\n        /* \"--CODEGEN--\":77:93   */\n      returndatasize\n        /* \"--CODEGEN--\":74:75   */\n      0x00\n        /* \"--CODEGEN--\":67:94   */\n      revert\n        /* \"--CODEGEN--\":5:7   */\n    tag_342:\n        /* \"PancakeRouter01.sol\":11295:11335  IWETH(WETH).deposit{value: amounts[0]}() */\n      pop\n      pop\n      pop\n      pop\n      pop\n        /* \"PancakeRouter01.sol\":11358:11362  WETH */\n      immutable(\"0x9abd569a0444be7ce52d46a7fb79009940c0c0442116f15017290ff13cb4450c\")\n      sub(shl(0xa0, 0x01), 0x01)\n        /* \"PancakeRouter01.sol\":11352:11372  IWETH(WETH).transfer */\n      and\n      0xa9059cbb\n        /* \"PancakeRouter01.sol\":11373:11422  PancakeLibrary.pairFor(factory, path[0], path[1]) */\n      tag_343\n        /* \"PancakeRouter01.sol\":11396:11403  factory */\n      immutable(\"0x5bcd163b2238ff85648d293e01a327b5c7f9ae69498a752a4883e839ddddafcb\")\n        /* \"PancakeRouter01.sol\":11405:11409  path */\n      dup10\n      dup10\n        /* \"PancakeRouter01.sol\":11410:11411  0 */\n      0x00\n        /* \"PancakeRouter01.sol\":11405:11412  path[0] */\n      dup2\n      dup2\n      lt\n      tag_244\n      jumpi\n      invalid\n        /* \"PancakeRouter01.sol\":11373:11422  PancakeLibrary.pairFor(factory, path[0], path[1]) */\n    tag_343:\n        /* \"PancakeRouter01.sol\":11424:11431  amounts */\n      dup5\n        /* \"PancakeRouter01.sol\":11432:11433  0 */\n      0x00\n        /* \"PancakeRouter01.sol\":11424:11434  amounts[0] */\n      dup2\n      mload\n      dup2\n      lt\n      tag_346\n      jumpi\n      invalid\n    tag_346:\n      0x20\n      mul\n      0x20\n      add\n      add\n      mload\n        /* \"PancakeRouter01.sol\":11352:11435  IWETH(WETH).transfer(PancakeLibrary.pairFor(factory, path[0], path[1]), amounts[0]) */\n      mload(0x40)\n      dup4\n      0xffffffff\n      and\n      0xe0\n      shl\n      dup2\n      mstore\n      0x04\n      add\n      dup1\n      dup4\n      sub(shl(0xa0, 0x01), 0x01)\n      and\n      sub(shl(0xa0, 0x01), 0x01)\n      and\n      dup2\n      mstore\n      0x20\n      add\n      dup3\n      dup2\n      mstore\n      0x20\n      add\n      swap3\n      pop\n      pop\n      pop\n      0x20\n      mload(0x40)\n      dup1\n      dup4\n      sub\n      dup2\n      0x00\n      dup8\n      dup1\n      extcodesize\n      iszero\n        /* \"--CODEGEN--\":5:14   */\n      dup1\n        /* \"--CODEGEN--\":2:4   */\n      iszero\n      tag_347\n      jumpi\n        /* \"--CODEGEN--\":27:28   */\n      0x00\n        /* \"--CODEGEN--\":24:25   */\n      dup1\n        /* \"--CODEGEN--\":17:29   */\n      revert\n        /* \"--CODEGEN--\":2:4   */\n    tag_347:\n        /* \"PancakeRouter01.sol\":11352:11435  IWETH(WETH).transfer(PancakeLibrary.pairFor(factory, path[0], path[1]), amounts[0]) */\n      pop\n      gas\n      call\n      iszero\n        /* \"--CODEGEN--\":8:17   */\n      dup1\n        /* \"--CODEGEN--\":5:7   */\n      iszero\n      tag_349\n      jumpi\n        /* \"--CODEGEN--\":45:61   */\n      returndatasize\n        /* \"--CODEGEN--\":42:43   */\n      0x00\n        /* \"--CODEGEN--\":39:40   */\n      dup1\n        /* \"--CODEGEN--\":24:62   */\n      returndatacopy\n        /* \"--CODEGEN--\":77:93   */\n      returndatasize\n        /* \"--CODEGEN--\":74:75   */\n      0x00\n        /* \"--CODEGEN--\":67:94   */\n      revert\n        /* \"--CODEGEN--\":5:7   */\n    tag_349:\n        /* \"PancakeRouter01.sol\":11352:11435  IWETH(WETH).transfer(PancakeLibrary.pairFor(factory, path[0], path[1]), amounts[0]) */\n      pop\n      pop\n      pop\n      pop\n      mload(0x40)\n      returndatasize\n        /* \"--CODEGEN--\":15:17   */\n      0x20\n        /* \"--CODEGEN--\":10:13   */\n      dup2\n        /* \"--CODEGEN--\":7:18   */\n      lt\n        /* \"--CODEGEN--\":4:6   */\n      iszero\n      tag_350\n      jumpi\n        /* \"--CODEGEN--\":31:32   */\n      0x00\n        /* \"--CODEGEN--\":28:29   */\n      dup1\n        /* \"--CODEGEN--\":21:33   */\n      revert\n        /* \"--CODEGEN--\":4:6   */\n    tag_350:\n      pop\n        /* \"PancakeRouter01.sol\":11352:11435  IWETH(WETH).transfer(PancakeLibrary.pairFor(factory, path[0], path[1]), amounts[0]) */\n      mload\n        /* \"PancakeRouter01.sol\":11345:11436  assert(IWETH(WETH).transfer(PancakeLibrary.pairFor(factory, path[0], path[1]), amounts[0])) */\n      tag_351\n      jumpi\n      invalid\n    tag_351:\n        /* \"PancakeRouter01.sol\":11446:11470  _swap(amounts, path, to) */\n      tag_352\n        /* \"PancakeRouter01.sol\":11452:11459  amounts */\n      dup3\n        /* \"PancakeRouter01.sol\":11461:11465  path */\n      dup8\n      dup8\n        /* \"PancakeRouter01.sol\":11446:11470  _swap(amounts, path, to) */\n      dup1\n      dup1\n      0x20\n      mul\n      0x20\n      add\n      mload(0x40)\n      swap1\n      dup2\n      add\n      0x40\n      mstore\n      dup1\n      swap4\n      swap3\n      swap2\n      swap1\n      dup2\n      dup2\n      mstore\n      0x20\n      add\n      dup4\n      dup4\n      0x20\n      mul\n        /* \"--CODEGEN--\":30:33   */\n      dup1\n        /* \"--CODEGEN--\":22:28   */\n      dup3\n        /* \"--CODEGEN--\":14:20   */\n      dup5\n        /* \"--CODEGEN--\":1:34   */\n      calldatacopy\n        /* \"--CODEGEN--\":99:100   */\n      0x00\n        /* \"--CODEGEN--\":81:97   */\n      swap3\n      add\n        /* \"--CODEGEN--\":74:101   */\n      swap2\n      swap1\n      swap2\n      mstore\n      pop\n        /* \"PancakeRouter01.sol\":11467:11469  to */\n      dup10\n      swap3\n      pop\n        /* \"PancakeRouter01.sol\":11446:11451  _swap */\n      tag_179\n      swap2\n      pop\n      pop\n        /* \"PancakeRouter01.sol\":11446:11470  _swap(amounts, path, to) */\n      jump\t// in\n    tag_352:\n        /* \"PancakeRouter01.sol\":11496:11503  amounts */\n      dup2\n        /* \"PancakeRouter01.sol\":11504:11505  0 */\n      0x00\n        /* \"PancakeRouter01.sol\":11496:11506  amounts[0] */\n      dup2\n      mload\n      dup2\n      lt\n      tag_353\n      jumpi\n      invalid\n    tag_353:\n      0x20\n      mul\n      0x20\n      add\n      add\n      mload\n        /* \"PancakeRouter01.sol\":11484:11493  msg.value */\n      callvalue\n        /* \"PancakeRouter01.sol\":11484:11506  msg.value > amounts[0] */\n      gt\n        /* \"PancakeRouter01.sol\":11480:11574  if (msg.value > amounts[0]) TransferHelper.safeTransferETH(msg.sender, msg.value - amounts[0]) */\n      iszero\n      tag_252\n      jumpi\n        /* \"PancakeRouter01.sol\":11508:11574  TransferHelper.safeTransferETH(msg.sender, msg.value - amounts[0]) */\n      tag_252\n        /* \"PancakeRouter01.sol\":11539:11549  msg.sender */\n      caller\n        /* \"PancakeRouter01.sol\":11563:11570  amounts */\n      dup4\n        /* \"PancakeRouter01.sol\":11571:11572  0 */\n      0x00\n        /* \"PancakeRouter01.sol\":11563:11573  amounts[0] */\n      dup2\n      mload\n      dup2\n      lt\n      tag_356\n      jumpi\n      invalid\n    tag_356:\n      0x20\n      mul\n      0x20\n      add\n      add\n      mload\n        /* \"PancakeRouter01.sol\":11551:11560  msg.value */\n      callvalue\n        /* \"PancakeRouter01.sol\":11551:11573  msg.value - amounts[0] */\n      sub\n        /* \"PancakeRouter01.sol\":11508:11538  TransferHelper.safeTransferETH */\n      tag_157\n        /* \"PancakeRouter01.sol\":11508:11574  TransferHelper.safeTransferETH(msg.sender, msg.value - amounts[0]) */\n      jump\t// in\n        /* \"@uniswap/lib/contracts/libraries/TransferHelper.sol\":652:1090  function safeTransfer(... */\n    tag_152:\n        /* \"@uniswap/lib/contracts/libraries/TransferHelper.sol\":878:923  abi.encodeWithSelector(0xa9059cbb, to, value) */\n      0x40\n      dup1\n      mload\n      sub(shl(0xa0, 0x01), 0x01)\n      dup5\n      dup2\n      and\n      0x24\n      dup4\n      add\n      mstore\n      0x44\n      dup1\n      dup4\n      add\n      dup6\n      swap1\n      mstore\n      dup4\n      mload\n        /* \"--CODEGEN--\":26:47   */\n      dup1\n      dup5\n      sub\n        /* \"--CODEGEN--\":22:54   */\n      swap1\n      swap2\n      add\n        /* \"--CODEGEN--\":6:55   */\n      dup2\n      mstore\n        /* \"@uniswap/lib/contracts/libraries/TransferHelper.sol\":878:923  abi.encodeWithSelector(0xa9059cbb, to, value) */\n      0x64\n      swap1\n      swap3\n      add\n      dup4\n      mstore\n      0x20\n        /* \"--CODEGEN--\":25:43   */\n      dup3\n      add\n        /* \"--CODEGEN--\":61:78   */\n      dup1\n      mload\n      sub(shl(0xe0, 0x01), 0x01)\n        /* \"--CODEGEN--\":182:197   */\n      and\n      shl(0xe0, 0xa9059cbb)\n        /* \"--CODEGEN--\":179:208   */\n      or\n        /* \"--CODEGEN--\":160:209   */\n      dup2\n      mstore\n        /* \"@uniswap/lib/contracts/libraries/TransferHelper.sol\":867:924  token.call(abi.encodeWithSelector(0xa9059cbb, to, value)) */\n      swap3\n      mload\n      dup3\n      mload\n        /* \"@uniswap/lib/contracts/libraries/TransferHelper.sol\":832:844  bool success */\n      0x00\n      swap5\n        /* \"@uniswap/lib/contracts/libraries/TransferHelper.sol\":846:863  bytes memory data */\n      0x60\n      swap5\n        /* \"@uniswap/lib/contracts/libraries/TransferHelper.sol\":867:877  token.call */\n      swap4\n      dup10\n      and\n      swap4\n        /* \"@uniswap/lib/contracts/libraries/TransferHelper.sol\":878:923  abi.encodeWithSelector(0xa9059cbb, to, value) */\n      swap3\n        /* \"@uniswap/lib/contracts/libraries/TransferHelper.sol\":867:924  token.call(abi.encodeWithSelector(0xa9059cbb, to, value)) */\n      swap2\n      dup3\n      swap2\n        /* \"--CODEGEN--\":25:43   */\n      swap1\n        /* \"@uniswap/lib/contracts/libraries/TransferHelper.sol\":867:924  token.call(abi.encodeWithSelector(0xa9059cbb, to, value)) */\n      dup1\n      dup4\n        /* \"--CODEGEN--\":25:43   */\n      dup4\n        /* \"--CODEGEN--\":36:189   */\n    tag_358:\n        /* \"--CODEGEN--\":66:68   */\n      0x20\n        /* \"--CODEGEN--\":61:64   */\n      dup4\n        /* \"--CODEGEN--\":58:69   */\n      lt\n        /* \"--CODEGEN--\":36:189   */\n      tag_360\n      jumpi\n        /* \"--CODEGEN--\":176:186   */\n      dup1\n      mload\n        /* \"--CODEGEN--\":164:187   */\n      dup3\n      mstore\n      not(0x1f)\n        /* \"--CODEGEN--\":139:151   */\n      swap1\n      swap3\n      add\n      swap2\n        /* \"--CODEGEN--\":98:100   */\n      0x20\n        /* \"--CODEGEN--\":89:101   */\n      swap2\n      dup3\n      add\n      swap2\n        /* \"--CODEGEN--\":114:126   */\n      add\n        /* \"--CODEGEN--\":36:189   */\n      jump(tag_358)\n    tag_360:\n        /* \"--CODEGEN--\":274:275   */\n      0x01\n        /* \"--CODEGEN--\":267:270   */\n      dup4\n        /* \"--CODEGEN--\":263:265   */\n      0x20\n        /* \"--CODEGEN--\":259:271   */\n      sub\n        /* \"--CODEGEN--\":254:257   */\n      0x0100\n        /* \"--CODEGEN--\":250:272   */\n      exp\n        /* \"--CODEGEN--\":246:276   */\n      sub\n        /* \"--CODEGEN--\":315:319   */\n      dup1\n        /* \"--CODEGEN--\":311:320   */\n      not\n        /* \"--CODEGEN--\":305:308   */\n      dup3\n        /* \"--CODEGEN--\":299:309   */\n      mload\n        /* \"--CODEGEN--\":295:321   */\n      and\n        /* \"--CODEGEN--\":356:360   */\n      dup2\n        /* \"--CODEGEN--\":350:353   */\n      dup5\n        /* \"--CODEGEN--\":344:354   */\n      mload\n        /* \"--CODEGEN--\":340:361   */\n      and\n        /* \"--CODEGEN--\":389:396   */\n      dup1\n        /* \"--CODEGEN--\":380:387   */\n      dup3\n        /* \"--CODEGEN--\":377:397   */\n      or\n        /* \"--CODEGEN--\":372:375   */\n      dup6\n        /* \"--CODEGEN--\":365:398   */\n      mstore\n        /* \"--CODEGEN--\":3:402   */\n      pop\n      pop\n      pop\n        /* \"@uniswap/lib/contracts/libraries/TransferHelper.sol\":867:924  token.call(abi.encodeWithSelector(0xa9059cbb, to, value)) */\n      pop\n      pop\n      pop\n      swap1\n      pop\n      add\n      swap2\n      pop\n      pop\n      0x00\n      mload(0x40)\n      dup1\n      dup4\n      sub\n      dup2\n      0x00\n      dup7\n      gas\n      call\n      swap2\n      pop\n      pop\n      returndatasize\n        /* \"--CODEGEN--\":12:13   */\n      dup1\n        /* \"--CODEGEN--\":19:20   */\n      0x00\n        /* \"--CODEGEN--\":14:41   */\n      dup2\n      eq\n      tag_363\n      jumpi\n        /* \"--CODEGEN--\":67:71   */\n      0x40\n        /* \"--CODEGEN--\":61:72   */\n      mload\n        /* \"--CODEGEN--\":56:72   */\n      swap2\n      pop\n        /* \"--CODEGEN--\":134:138   */\n      0x1f\n        /* \"--CODEGEN--\":130:139   */\n      not\n        /* \"--CODEGEN--\":123:127   */\n      0x3f\n        /* \"--CODEGEN--\":105:121   */\n      returndatasize\n        /* \"--CODEGEN--\":101:128   */\n      add\n        /* \"--CODEGEN--\":97:140   */\n      and\n        /* \"--CODEGEN--\":94:95   */\n      dup3\n        /* \"--CODEGEN--\":90:141   */\n      add\n        /* \"--CODEGEN--\":84:88   */\n      0x40\n        /* \"--CODEGEN--\":77:142   */\n      mstore\n        /* \"--CODEGEN--\":157:173   */\n      returndatasize\n        /* \"--CODEGEN--\":154:155   */\n      dup3\n        /* \"--CODEGEN--\":147:174   */\n      mstore\n        /* \"--CODEGEN--\":211:227   */\n      returndatasize\n        /* \"--CODEGEN--\":208:209   */\n      0x00\n        /* \"--CODEGEN--\":201:205   */\n      0x20\n        /* \"--CODEGEN--\":198:199   */\n      dup5\n        /* \"--CODEGEN--\":194:206   */\n      add\n        /* \"--CODEGEN--\":179:228   */\n      returndatacopy\n        /* \"--CODEGEN--\":5:233   */\n      jump(tag_362)\n        /* \"--CODEGEN--\":14:41   */\n    tag_363:\n        /* \"--CODEGEN--\":32:36   */\n      0x60\n        /* \"--CODEGEN--\":27:36   */\n      swap2\n      pop\n        /* \"--CODEGEN--\":5:233   */\n    tag_362:\n      pop\n        /* \"@uniswap/lib/contracts/libraries/TransferHelper.sol\":831:924  (bool success, bytes memory data) = token.call(abi.encodeWithSelector(0xa9059cbb, to, value)) */\n      swap2\n      pop\n      swap2\n      pop\n        /* \"@uniswap/lib/contracts/libraries/TransferHelper.sol\":955:962  success */\n      dup2\n        /* \"@uniswap/lib/contracts/libraries/TransferHelper.sol\":955:1012  success && (data.length == 0 || abi.decode(data, (bool))) */\n      dup1\n      iszero\n      tag_365\n      jumpi\n      pop\n        /* \"@uniswap/lib/contracts/libraries/TransferHelper.sol\":967:978  data.length */\n      dup1\n      mload\n        /* \"@uniswap/lib/contracts/libraries/TransferHelper.sol\":967:983  data.length == 0 */\n      iszero\n      dup1\n        /* \"@uniswap/lib/contracts/libraries/TransferHelper.sol\":967:1011  data.length == 0 || abi.decode(data, (bool)) */\n      tag_365\n      jumpi\n      pop\n        /* \"@uniswap/lib/contracts/libraries/TransferHelper.sol\":998:1002  data */\n      dup1\n        /* \"@uniswap/lib/contracts/libraries/TransferHelper.sol\":987:1011  abi.decode(data, (bool)) */\n      dup1\n      0x20\n      add\n      swap1\n      mload\n        /* \"--CODEGEN--\":15:17   */\n      0x20\n        /* \"--CODEGEN--\":10:13   */\n      dup2\n        /* \"--CODEGEN--\":7:18   */\n      lt\n        /* \"--CODEGEN--\":4:6   */\n      iszero\n      tag_366\n      jumpi\n        /* \"--CODEGEN--\":31:32   */\n      0x00\n        /* \"--CODEGEN--\":28:29   */\n      dup1\n        /* \"--CODEGEN--\":21:33   */\n      revert\n        /* \"--CODEGEN--\":4:6   */\n    tag_366:\n      pop\n        /* \"@uniswap/lib/contracts/libraries/TransferHelper.sol\":987:1011  abi.decode(data, (bool)) */\n      mload\n        /* \"@uniswap/lib/contracts/libraries/TransferHelper.sol\":967:1011  data.length == 0 || abi.decode(data, (bool)) */\n    tag_365:\n        /* \"@uniswap/lib/contracts/libraries/TransferHelper.sol\":934:1083  require(... */\n      tag_367\n      jumpi\n      mload(0x40)\n      shl(0xe5, 0x461bcd)\n      dup2\n      mstore\n      0x04\n      add\n      dup1\n      dup1\n      0x20\n      add\n      dup3\n      dup2\n      sub\n      dup3\n      mstore\n      0x2d\n      dup2\n      mstore\n      0x20\n      add\n      dup1\n      data_daea69421eeb1164e163c36f3d4349f0db3ec4e0d1381bd5bf4faf53496c2611\n      0x2d\n      swap2\n      codecopy\n      0x40\n      add\n      swap2\n      pop\n      pop\n      mload(0x40)\n      dup1\n      swap2\n      sub\n      swap1\n      revert\n    tag_367:\n        /* \"@uniswap/lib/contracts/libraries/TransferHelper.sol\":652:1090  function safeTransfer(... */\n      pop\n      pop\n      pop\n      pop\n      pop\n      jump\t// out\n        /* \"@uniswap/lib/contracts/libraries/TransferHelper.sol\":1588:1802  function safeTransferETH(address to, uint256 value) internal {... */\n    tag_157:\n        /* \"@uniswap/lib/contracts/libraries/TransferHelper.sol\":1700:1712  new bytes(0) */\n      0x40\n      dup1\n      mload\n        /* \"@uniswap/lib/contracts/libraries/TransferHelper.sol\":1660:1672  bool success */\n      0x00\n        /* \"@uniswap/lib/contracts/libraries/TransferHelper.sol\":1700:1712  new bytes(0) */\n      dup1\n      dup3\n      mstore\n      0x20\n      dup3\n      add\n      swap1\n      swap3\n      mstore\n      sub(shl(0xa0, 0x01), 0x01)\n        /* \"@uniswap/lib/contracts/libraries/TransferHelper.sol\":1678:1685  to.call */\n      dup5\n      and\n      swap1\n        /* \"@uniswap/lib/contracts/libraries/TransferHelper.sol\":1693:1698  value */\n      dup4\n      swap1\n        /* \"@uniswap/lib/contracts/libraries/TransferHelper.sol\":1678:1713  to.call{value: value}(new bytes(0)) */\n      mload(0x40)\n      dup1\n      dup3\n      dup1\n      mload\n      swap1\n      0x20\n      add\n      swap1\n      dup1\n      dup4\n      dup4\n        /* \"--CODEGEN--\":36:189   */\n    tag_371:\n        /* \"--CODEGEN--\":66:68   */\n      0x20\n        /* \"--CODEGEN--\":61:64   */\n      dup4\n        /* \"--CODEGEN--\":58:69   */\n      lt\n        /* \"--CODEGEN--\":36:189   */\n      tag_373\n      jumpi\n        /* \"--CODEGEN--\":176:186   */\n      dup1\n      mload\n        /* \"--CODEGEN--\":164:187   */\n      dup3\n      mstore\n      not(0x1f)\n        /* \"--CODEGEN--\":139:151   */\n      swap1\n      swap3\n      add\n      swap2\n        /* \"--CODEGEN--\":98:100   */\n      0x20\n        /* \"--CODEGEN--\":89:101   */\n      swap2\n      dup3\n      add\n      swap2\n        /* \"--CODEGEN--\":114:126   */\n      add\n        /* \"--CODEGEN--\":36:189   */\n      jump(tag_371)\n    tag_373:\n        /* \"--CODEGEN--\":274:275   */\n      0x01\n        /* \"--CODEGEN--\":267:270   */\n      dup4\n        /* \"--CODEGEN--\":263:265   */\n      0x20\n        /* \"--CODEGEN--\":259:271   */\n      sub\n        /* \"--CODEGEN--\":254:257   */\n      0x0100\n        /* \"--CODEGEN--\":250:272   */\n      exp\n        /* \"--CODEGEN--\":246:276   */\n      sub\n        /* \"--CODEGEN--\":315:319   */\n      dup1\n        /* \"--CODEGEN--\":311:320   */\n      not\n        /* \"--CODEGEN--\":305:308   */\n      dup3\n        /* \"--CODEGEN--\":299:309   */\n      mload\n        /* \"--CODEGEN--\":295:321   */\n      and\n        /* \"--CODEGEN--\":356:360   */\n      dup2\n        /* \"--CODEGEN--\":350:353   */\n      dup5\n        /* \"--CODEGEN--\":344:354   */\n      mload\n        /* \"--CODEGEN--\":340:361   */\n      and\n        /* \"--CODEGEN--\":389:396   */\n      dup1\n        /* \"--CODEGEN--\":380:387   */\n      dup3\n        /* \"--CODEGEN--\":377:397   */\n      or\n        /* \"--CODEGEN--\":372:375   */\n      dup6\n        /* \"--CODEGEN--\":365:398   */\n      mstore\n        /* \"--CODEGEN--\":3:402   */\n      pop\n      pop\n      pop\n        /* \"@uniswap/lib/contracts/libraries/TransferHelper.sol\":1678:1713  to.call{value: value}(new bytes(0)) */\n      pop\n      pop\n      pop\n      swap1\n      pop\n      add\n      swap2\n      pop\n      pop\n      0x00\n      mload(0x40)\n      dup1\n      dup4\n      sub\n      dup2\n      dup6\n      dup8\n      gas\n      call\n      swap3\n      pop\n      pop\n      pop\n      returndatasize\n        /* \"--CODEGEN--\":12:13   */\n      dup1\n        /* \"--CODEGEN--\":19:20   */\n      0x00\n        /* \"--CODEGEN--\":14:41   */\n      dup2\n      eq\n      tag_376\n      jumpi\n        /* \"--CODEGEN--\":67:71   */\n      0x40\n        /* \"--CODEGEN--\":61:72   */\n      mload\n        /* \"--CODEGEN--\":56:72   */\n      swap2\n      pop\n        /* \"--CODEGEN--\":134:138   */\n      0x1f\n        /* \"--CODEGEN--\":130:139   */\n      not\n        /* \"--CODEGEN--\":123:127   */\n      0x3f\n        /* \"--CODEGEN--\":105:121   */\n      returndatasize\n        /* \"--CODEGEN--\":101:128   */\n      add\n        /* \"--CODEGEN--\":97:140   */\n      and\n        /* \"--CODEGEN--\":94:95   */\n      dup3\n        /* \"--CODEGEN--\":90:141   */\n      add\n        /* \"--CODEGEN--\":84:88   */\n      0x40\n        /* \"--CODEGEN--\":77:142   */\n      mstore\n        /* \"--CODEGEN--\":157:173   */\n      returndatasize\n        /* \"--CODEGEN--\":154:155   */\n      dup3\n        /* \"--CODEGEN--\":147:174   */\n      mstore\n        /* \"--CODEGEN--\":211:227   */\n      returndatasize\n        /* \"--CODEGEN--\":208:209   */\n      0x00\n        /* \"--CODEGEN--\":201:205   */\n      0x20\n        /* \"--CODEGEN--\":198:199   */\n      dup5\n        /* \"--CODEGEN--\":194:206   */\n      add\n        /* \"--CODEGEN--\":179:228   */\n      returndatacopy\n        /* \"--CODEGEN--\":5:233   */\n      jump(tag_375)\n        /* \"--CODEGEN--\":14:41   */\n    tag_376:\n        /* \"--CODEGEN--\":32:36   */\n      0x60\n        /* \"--CODEGEN--\":27:36   */\n      swap2\n      pop\n        /* \"--CODEGEN--\":5:233   */\n    tag_375:\n      pop\n        /* \"@uniswap/lib/contracts/libraries/TransferHelper.sol\":1659:1713  (bool success, ) = to.call{value: value}(new bytes(0)) */\n      pop\n      swap1\n      pop\n        /* \"@uniswap/lib/contracts/libraries/TransferHelper.sol\":1731:1738  success */\n      dup1\n        /* \"@uniswap/lib/contracts/libraries/TransferHelper.sol\":1723:1795  require(success, 'TransferHelper::safeTransferETH: ETH transfer failed') */\n      tag_377\n      jumpi\n      mload(0x40)\n      shl(0xe5, 0x461bcd)\n      dup2\n      mstore\n      0x04\n      add\n      dup1\n      dup1\n      0x20\n      add\n      dup3\n      dup2\n      sub\n      dup3\n      mstore\n      0x34\n      dup2\n      mstore\n      0x20\n      add\n      dup1\n      data_43d7bec223ecf9eb06ea147e7d564bc71c2448662d62a4ea86ce71fc4518b350\n      0x34\n      swap2\n      codecopy\n      0x40\n      add\n      swap2\n      pop\n      pop\n      mload(0x40)\n      dup1\n      swap2\n      sub\n      swap1\n      revert\n    tag_377:\n        /* \"@uniswap/lib/contracts/libraries/TransferHelper.sol\":1588:1802  function safeTransferETH(address to, uint256 value) internal {... */\n      pop\n      pop\n      pop\n      jump\t// out\n        /* \"libraries/PancakeLibrary.sol\":2508:3067  function getAmountOut(... */\n    tag_160:\n        /* \"libraries/PancakeLibrary.sol\":2640:2657  uint256 amountOut */\n      0x00\n        /* \"libraries/PancakeLibrary.sol\":2688:2689  0 */\n      dup1\n        /* \"libraries/PancakeLibrary.sol\":2677:2685  amountIn */\n      dup5\n        /* \"libraries/PancakeLibrary.sol\":2677:2689  amountIn > 0 */\n      gt\n        /* \"libraries/PancakeLibrary.sol\":2669:2735  require(amountIn > 0, \"PancakeLibrary: INSUFFICIENT_INPUT_AMOUNT\") */\n      tag_379\n      jumpi\n      mload(0x40)\n      shl(0xe5, 0x461bcd)\n      dup2\n      mstore\n      0x04\n      add\n      dup1\n      dup1\n      0x20\n      add\n      dup3\n      dup2\n      sub\n      dup3\n      mstore\n      0x29\n      dup2\n      mstore\n      0x20\n      add\n      dup1\n      data_14085ca7574f8785a82278031a3e9bccdeb82648f2bdc61f16978097f27af39a\n      0x29\n      swap2\n      codecopy\n      0x40\n      add\n      swap2\n      pop\n      pop\n      mload(0x40)\n      dup1\n      swap2\n      sub\n      swap1\n      revert\n    tag_379:\n        /* \"libraries/PancakeLibrary.sol\":2765:2766  0 */\n      0x00\n        /* \"libraries/PancakeLibrary.sol\":2753:2762  reserveIn */\n      dup4\n        /* \"libraries/PancakeLibrary.sol\":2753:2766  reserveIn > 0 */\n      gt\n        /* \"libraries/PancakeLibrary.sol\":2753:2784  reserveIn > 0 && reserveOut > 0 */\n      dup1\n      iszero\n      tag_380\n      jumpi\n      pop\n        /* \"libraries/PancakeLibrary.sol\":2783:2784  0 */\n      0x00\n        /* \"libraries/PancakeLibrary.sol\":2770:2780  reserveOut */\n      dup3\n        /* \"libraries/PancakeLibrary.sol\":2770:2784  reserveOut > 0 */\n      gt\n        /* \"libraries/PancakeLibrary.sol\":2753:2784  reserveIn > 0 && reserveOut > 0 */\n    tag_380:\n        /* \"libraries/PancakeLibrary.sol\":2745:2827  require(reserveIn > 0 && reserveOut > 0, \"PancakeLibrary: INSUFFICIENT_LIQUIDITY\") */\n      tag_381\n      jumpi\n      mload(0x40)\n      shl(0xe5, 0x461bcd)\n      dup2\n      mstore\n      0x04\n      add\n      dup1\n      dup1\n      0x20\n      add\n      dup3\n      dup2\n      sub\n      dup3\n      mstore\n      0x26\n      dup2\n      mstore\n      0x20\n      add\n      dup1\n      data_e7f79b6b909ed2023c6e79d88a862542f92041db19a71970a37e18b3fc8ff469\n      0x26\n      swap2\n      codecopy\n      0x40\n      add\n      swap2\n      pop\n      pop\n      mload(0x40)\n      dup1\n      swap2\n      sub\n      swap1\n      revert\n    tag_381:\n        /* \"libraries/PancakeLibrary.sol\":2837:2860  uint256 amountInWithFee */\n      0x00\n        /* \"libraries/PancakeLibrary.sol\":2863:2881  amountIn.mul(9975) */\n      tag_382\n        /* \"libraries/PancakeLibrary.sol\":2863:2871  amountIn */\n      dup6\n        /* \"libraries/PancakeLibrary.sol\":2876:2880  9975 */\n      0x26f7\n        /* \"libraries/PancakeLibrary.sol\":2863:2881  amountIn.mul(9975) */\n      0xffffffff\n        /* \"libraries/PancakeLibrary.sol\":2863:2875  amountIn.mul */\n      tag_383\n        /* \"libraries/PancakeLibrary.sol\":2863:2881  amountIn.mul(9975) */\n      and\n      jump\t// in\n    tag_382:\n        /* \"libraries/PancakeLibrary.sol\":2837:2881  uint256 amountInWithFee = amountIn.mul(9975) */\n      swap1\n      pop\n        /* \"libraries/PancakeLibrary.sol\":2891:2908  uint256 numerator */\n      0x00\n        /* \"libraries/PancakeLibrary.sol\":2911:2942  amountInWithFee.mul(reserveOut) */\n      tag_384\n        /* \"libraries/PancakeLibrary.sol\":2837:2881  uint256 amountInWithFee = amountIn.mul(9975) */\n      dup3\n        /* \"libraries/PancakeLibrary.sol\":2931:2941  reserveOut */\n      dup6\n        /* \"libraries/PancakeLibrary.sol\":2911:2942  amountInWithFee.mul(reserveOut) */\n      0xffffffff\n        /* \"libraries/PancakeLibrary.sol\":2911:2930  amountInWithFee.mul */\n      tag_383\n        /* \"libraries/PancakeLibrary.sol\":2911:2942  amountInWithFee.mul(reserveOut) */\n      and\n      jump\t// in\n    tag_384:\n        /* \"libraries/PancakeLibrary.sol\":2891:2942  uint256 numerator = amountInWithFee.mul(reserveOut) */\n      swap1\n      pop\n        /* \"libraries/PancakeLibrary.sol\":2952:2971  uint256 denominator */\n      0x00\n        /* \"libraries/PancakeLibrary.sol\":2974:3015  reserveIn.mul(10000).add(amountInWithFee) */\n      tag_385\n        /* \"libraries/PancakeLibrary.sol\":2999:3014  amountInWithFee */\n      dup4\n        /* \"libraries/PancakeLibrary.sol\":2974:2994  reserveIn.mul(10000) */\n      tag_386\n        /* \"libraries/PancakeLibrary.sol\":2974:2983  reserveIn */\n      dup9\n        /* \"libraries/PancakeLibrary.sol\":2988:2993  10000 */\n      0x2710\n        /* \"libraries/PancakeLibrary.sol\":2974:2994  reserveIn.mul(10000) */\n      0xffffffff\n        /* \"libraries/PancakeLibrary.sol\":2974:2987  reserveIn.mul */\n      tag_383\n        /* \"libraries/PancakeLibrary.sol\":2974:2994  reserveIn.mul(10000) */\n      and\n      jump\t// in\n    tag_386:\n        /* \"libraries/PancakeLibrary.sol\":2974:2998  reserveIn.mul(10000).add */\n      swap1\n        /* \"libraries/PancakeLibrary.sol\":2974:3015  reserveIn.mul(10000).add(amountInWithFee) */\n      0xffffffff\n        /* \"libraries/PancakeLibrary.sol\":2974:2998  reserveIn.mul(10000).add */\n      tag_387\n        /* \"libraries/PancakeLibrary.sol\":2974:3015  reserveIn.mul(10000).add(amountInWithFee) */\n      and\n      jump\t// in\n    tag_385:\n        /* \"libraries/PancakeLibrary.sol\":2952:3015  uint256 denominator = reserveIn.mul(10000).add(amountInWithFee) */\n      swap1\n      pop\n        /* \"libraries/PancakeLibrary.sol\":3049:3060  denominator */\n      dup1\n        /* \"libraries/PancakeLibrary.sol\":3037:3046  numerator */\n      dup3\n        /* \"libraries/PancakeLibrary.sol\":3037:3060  numerator / denominator */\n      dup2\n      tag_388\n      jumpi\n      invalid\n    tag_388:\n      div\n      swap8\n        /* \"libraries/PancakeLibrary.sol\":2508:3067  function getAmountOut(... */\n      swap7\n      pop\n      pop\n      pop\n      pop\n      pop\n      pop\n      pop\n      jump\t// out\n        /* \"libraries/PancakeLibrary.sol\":3776:4325  function getAmountsOut(... */\n    tag_167:\n        /* \"libraries/PancakeLibrary.sol\":3910:3934  uint256[] memory amounts */\n      0x60\n        /* \"libraries/PancakeLibrary.sol\":3969:3970  2 */\n      0x02\n        /* \"libraries/PancakeLibrary.sol\":3954:3958  path */\n      dup3\n        /* \"libraries/PancakeLibrary.sol\":3954:3965  path.length */\n      mload\n        /* \"libraries/PancakeLibrary.sol\":3954:3970  path.length >= 2 */\n      lt\n      iszero\n        /* \"libraries/PancakeLibrary.sol\":3946:4003  require(path.length >= 2, \"PancakeLibrary: INVALID_PATH\") */\n      tag_390\n      jumpi\n      0x40\n      dup1\n      mload\n      shl(0xe5, 0x461bcd)\n      dup2\n      mstore\n      0x20\n      0x04\n      dup3\n      add\n      mstore\n      0x1c\n      0x24\n      dup3\n      add\n      mstore\n      0x50616e63616b654c6962726172793a20494e56414c49445f5041544800000000\n      0x44\n      dup3\n      add\n      mstore\n      swap1\n      mload\n      swap1\n      dup2\n      swap1\n      sub\n      0x64\n      add\n      swap1\n      revert\n    tag_390:\n        /* \"libraries/PancakeLibrary.sol\":4037:4041  path */\n      dup2\n        /* \"libraries/PancakeLibrary.sol\":4037:4048  path.length */\n      mload\n        /* \"libraries/PancakeLibrary.sol\":4023:4049  new uint256[](path.length) */\n      0xffffffffffffffff\n      dup2\n      gt\n        /* \"--CODEGEN--\":5:14   */\n      dup1\n        /* \"--CODEGEN--\":2:4   */\n      iszero\n      tag_391\n      jumpi\n        /* \"--CODEGEN--\":27:28   */\n      0x00\n        /* \"--CODEGEN--\":24:25   */\n      dup1\n        /* \"--CODEGEN--\":17:29   */\n      revert\n        /* \"--CODEGEN--\":2:4   */\n    tag_391:\n        /* \"libraries/PancakeLibrary.sol\":4023:4049  new uint256[](path.length) */\n      pop\n      mload(0x40)\n      swap1\n      dup1\n      dup3\n      mstore\n      dup1\n      0x20\n      mul\n      0x20\n      add\n      dup3\n      add\n      0x40\n      mstore\n      dup1\n      iszero\n      tag_392\n      jumpi\n      dup2\n      0x20\n      add\n        /* \"--CODEGEN--\":29:31   */\n      0x20\n        /* \"--CODEGEN--\":21:27   */\n      dup3\n        /* \"--CODEGEN--\":17:32   */\n      mul\n        /* \"--CODEGEN--\":125:129   */\n      dup1\n        /* \"--CODEGEN--\":109:123   */\n      calldatasize\n        /* \"--CODEGEN--\":101:107   */\n      dup4\n        /* \"--CODEGEN--\":88:130   */\n      calldatacopy\n        /* \"--CODEGEN--\":144:161   */\n      add\n      swap1\n      pop\n        /* \"libraries/PancakeLibrary.sol\":4023:4049  new uint256[](path.length) */\n    tag_392:\n      pop\n        /* \"libraries/PancakeLibrary.sol\":4013:4049  amounts = new uint256[](path.length) */\n      swap1\n      pop\n        /* \"libraries/PancakeLibrary.sol\":4072:4080  amountIn */\n      dup3\n        /* \"libraries/PancakeLibrary.sol\":4059:4066  amounts */\n      dup2\n        /* \"libraries/PancakeLibrary.sol\":4067:4068  0 */\n      0x00\n        /* \"libraries/PancakeLibrary.sol\":4059:4069  amounts[0] */\n      dup2\n      mload\n      dup2\n      lt\n      tag_393\n      jumpi\n      invalid\n    tag_393:\n      0x20\n      mul\n      0x20\n      add\n      add\n        /* \"libraries/PancakeLibrary.sol\":4059:4080  amounts[0] = amountIn */\n      dup2\n      dup2\n      mstore\n      pop\n      pop\n        /* \"libraries/PancakeLibrary.sol\":4095:4104  uint256 i */\n      0x00\n        /* \"libraries/PancakeLibrary.sol\":4090:4319  for (uint256 i; i < path.length - 1; i++) {... */\n    tag_394:\n        /* \"libraries/PancakeLibrary.sol\":4124:4125  1 */\n      0x01\n        /* \"libraries/PancakeLibrary.sol\":4110:4114  path */\n      dup4\n        /* \"libraries/PancakeLibrary.sol\":4110:4121  path.length */\n      mload\n        /* \"libraries/PancakeLibrary.sol\":4110:4125  path.length - 1 */\n      sub\n        /* \"libraries/PancakeLibrary.sol\":4106:4107  i */\n      dup2\n        /* \"libraries/PancakeLibrary.sol\":4106:4125  i < path.length - 1 */\n      lt\n        /* \"libraries/PancakeLibrary.sol\":4090:4319  for (uint256 i; i < path.length - 1; i++) {... */\n      iszero\n      tag_395\n      jumpi\n        /* \"libraries/PancakeLibrary.sol\":4147:4164  uint256 reserveIn */\n      0x00\n        /* \"libraries/PancakeLibrary.sol\":4166:4184  uint256 reserveOut */\n      dup1\n        /* \"libraries/PancakeLibrary.sol\":4188:4230  getReserves(factory, path[i], path[i + 1]) */\n      tag_397\n        /* \"libraries/PancakeLibrary.sol\":4200:4207  factory */\n      dup8\n        /* \"libraries/PancakeLibrary.sol\":4209:4213  path */\n      dup7\n        /* \"libraries/PancakeLibrary.sol\":4214:4215  i */\n      dup6\n        /* \"libraries/PancakeLibrary.sol\":4209:4216  path[i] */\n      dup2\n      mload\n      dup2\n      lt\n      tag_398\n      jumpi\n      invalid\n    tag_398:\n      0x20\n      mul\n      0x20\n      add\n      add\n      mload\n        /* \"libraries/PancakeLibrary.sol\":4218:4222  path */\n      dup8\n        /* \"libraries/PancakeLibrary.sol\":4223:4224  i */\n      dup7\n        /* \"libraries/PancakeLibrary.sol\":4227:4228  1 */\n      0x01\n        /* \"libraries/PancakeLibrary.sol\":4223:4228  i + 1 */\n      add\n        /* \"libraries/PancakeLibrary.sol\":4218:4229  path[i + 1] */\n      dup2\n      mload\n      dup2\n      lt\n      tag_399\n      jumpi\n      invalid\n    tag_399:\n      0x20\n      mul\n      0x20\n      add\n      add\n      mload\n        /* \"libraries/PancakeLibrary.sol\":4188:4199  getReserves */\n      tag_400\n        /* \"libraries/PancakeLibrary.sol\":4188:4230  getReserves(factory, path[i], path[i + 1]) */\n      jump\t// in\n    tag_397:\n        /* \"libraries/PancakeLibrary.sol\":4146:4230  (uint256 reserveIn, uint256 reserveOut) = getReserves(factory, path[i], path[i + 1]) */\n      swap2\n      pop\n      swap2\n      pop\n        /* \"libraries/PancakeLibrary.sol\":4261:4308  getAmountOut(amounts[i], reserveIn, reserveOut) */\n      tag_401\n        /* \"libraries/PancakeLibrary.sol\":4274:4281  amounts */\n      dup5\n        /* \"libraries/PancakeLibrary.sol\":4282:4283  i */\n      dup5\n        /* \"libraries/PancakeLibrary.sol\":4274:4284  amounts[i] */\n      dup2\n      mload\n      dup2\n      lt\n      tag_402\n      jumpi\n      invalid\n    tag_402:\n      0x20\n      mul\n      0x20\n      add\n      add\n      mload\n        /* \"libraries/PancakeLibrary.sol\":4286:4295  reserveIn */\n      dup4\n        /* \"libraries/PancakeLibrary.sol\":4297:4307  reserveOut */\n      dup4\n        /* \"libraries/PancakeLibrary.sol\":4261:4273  getAmountOut */\n      tag_160\n        /* \"libraries/PancakeLibrary.sol\":4261:4308  getAmountOut(amounts[i], reserveIn, reserveOut) */\n      jump\t// in\n    tag_401:\n        /* \"libraries/PancakeLibrary.sol\":4244:4251  amounts */\n      dup5\n        /* \"libraries/PancakeLibrary.sol\":4252:4253  i */\n      dup5\n        /* \"libraries/PancakeLibrary.sol\":4256:4257  1 */\n      0x01\n        /* \"libraries/PancakeLibrary.sol\":4252:4257  i + 1 */\n      add\n        /* \"libraries/PancakeLibrary.sol\":4244:4258  amounts[i + 1] */\n      dup2\n      mload\n      dup2\n      lt\n      tag_403\n      jumpi\n      invalid\n    tag_403:\n      0x20\n      swap1\n      dup2\n      mul\n      swap2\n      swap1\n      swap2\n      add\n      add\n        /* \"libraries/PancakeLibrary.sol\":4244:4308  amounts[i + 1] = getAmountOut(amounts[i], reserveIn, reserveOut) */\n      mstore\n      pop\n      pop\n        /* \"libraries/PancakeLibrary.sol\":4127:4130  i++ */\n      0x01\n      add\n        /* \"libraries/PancakeLibrary.sol\":4090:4319  for (uint256 i; i < path.length - 1; i++) {... */\n      jump(tag_394)\n    tag_395:\n      pop\n        /* \"libraries/PancakeLibrary.sol\":3776:4325  function getAmountsOut(... */\n      swap4\n      swap3\n      pop\n      pop\n      pop\n      jump\t// out\n        /* \"libraries/PancakeLibrary.sol\":765:1398  function pairFor(... */\n    tag_175:\n        /* \"libraries/PancakeLibrary.sol\":884:896  address pair */\n      0x00\n        /* \"libraries/PancakeLibrary.sol\":909:923  address token0 */\n      dup1\n        /* \"libraries/PancakeLibrary.sol\":925:939  address token1 */\n      0x00\n        /* \"libraries/PancakeLibrary.sol\":943:969  sortTokens(tokenA, tokenB) */\n      tag_405\n        /* \"libraries/PancakeLibrary.sol\":954:960  tokenA */\n      dup6\n        /* \"libraries/PancakeLibrary.sol\":962:968  tokenB */\n      dup6\n        /* \"libraries/PancakeLibrary.sol\":943:953  sortTokens */\n      tag_284\n        /* \"libraries/PancakeLibrary.sol\":943:969  sortTokens(tokenA, tokenB) */\n      jump\t// in\n    tag_405:\n        /* \"libraries/PancakeLibrary.sol\":1181:1213  abi.encodePacked(token0, token1) */\n      0x40\n      dup1\n      mload\n      not(0xffffffffffffffffffffffff)\n      0x60\n      swap5\n      dup6\n      shl\n      dup2\n      and\n      0x20\n      dup1\n      dup5\n      add\n      swap2\n      swap1\n      swap2\n      mstore\n      swap4\n      dup6\n      shl\n      dup2\n      and\n      0x34\n      dup4\n      add\n      mstore\n      dup3\n      mload\n        /* \"--CODEGEN--\":22:54   */\n      0x28\n        /* \"--CODEGEN--\":26:47   */\n      dup2\n      dup5\n      sub\n        /* \"--CODEGEN--\":22:54   */\n      add\n        /* \"--CODEGEN--\":6:55   */\n      dup2\n      mstore\n        /* \"libraries/PancakeLibrary.sol\":1181:1213  abi.encodePacked(token0, token1) */\n      0x48\n      dup4\n      add\n      dup5\n      mstore\n        /* \"libraries/PancakeLibrary.sol\":1171:1214  keccak256(abi.encodePacked(token0, token1)) */\n      dup1\n      mload\n      swap1\n      dup6\n      add\n      keccak256\n      not(sub(shl(0xf8, 0x01), 0x01))\n        /* \"libraries/PancakeLibrary.sol\":1063:1349  abi.encodePacked(... */\n      0x68\n      dup5\n      add\n      mstore\n      swap11\n      swap1\n      swap5\n      shl\n      swap1\n      swap4\n      and\n      0x69\n      dup5\n      add\n      mstore\n      0x7d\n      dup4\n      add\n      swap9\n      swap1\n      swap9\n      mstore\n      0x7d09279672f47c313283527fae67786a91349449eb292ccad7c5f8fe0d6f6972\n      0x9d\n      dup1\n      dup5\n      add\n      swap2\n      swap1\n      swap2\n      mstore\n      dup9\n      mload\n        /* \"--CODEGEN--\":26:47   */\n      dup1\n      dup5\n      sub\n        /* \"--CODEGEN--\":22:54   */\n      swap1\n      swap2\n      add\n        /* \"--CODEGEN--\":6:55   */\n      dup2\n      mstore\n        /* \"libraries/PancakeLibrary.sol\":1063:1349  abi.encodePacked(... */\n      0xbd\n      swap1\n      swap3\n      add\n      swap1\n      swap8\n      mstore\n        /* \"libraries/PancakeLibrary.sol\":1032:1367  keccak256(... */\n      dup1\n      mload\n      swap7\n      add\n      swap6\n      swap1\n      swap6\n      keccak256\n      swap6\n        /* \"libraries/PancakeLibrary.sol\":765:1398  function pairFor(... */\n      swap5\n      pop\n      pop\n      pop\n      pop\n      pop\n      jump\t// out\n        /* \"@uniswap/lib/contracts/libraries/TransferHelper.sol\":1096:1582  function safeTransferFrom(... */\n    tag_177:\n        /* \"@uniswap/lib/contracts/libraries/TransferHelper.sol\":1360:1411  abi.encodeWithSelector(0x23b872dd, from, to, value) */\n      0x40\n      dup1\n      mload\n      sub(shl(0xa0, 0x01), 0x01)\n      dup6\n      dup2\n      and\n      0x24\n      dup4\n      add\n      mstore\n      dup5\n      dup2\n      and\n      0x44\n      dup4\n      add\n      mstore\n      0x64\n      dup1\n      dup4\n      add\n      dup6\n      swap1\n      mstore\n      dup4\n      mload\n        /* \"--CODEGEN--\":26:47   */\n      dup1\n      dup5\n      sub\n        /* \"--CODEGEN--\":22:54   */\n      swap1\n      swap2\n      add\n        /* \"--CODEGEN--\":6:55   */\n      dup2\n      mstore\n        /* \"@uniswap/lib/contracts/libraries/TransferHelper.sol\":1360:1411  abi.encodeWithSelector(0x23b872dd, from, to, value) */\n      0x84\n      swap1\n      swap3\n      add\n      dup4\n      mstore\n      0x20\n        /* \"--CODEGEN--\":25:43   */\n      dup3\n      add\n        /* \"--CODEGEN--\":61:78   */\n      dup1\n      mload\n      sub(shl(0xe0, 0x01), 0x01)\n        /* \"--CODEGEN--\":182:197   */\n      and\n      shl(0xe0, 0x23b872dd)\n        /* \"--CODEGEN--\":179:208   */\n      or\n        /* \"--CODEGEN--\":160:209   */\n      dup2\n      mstore\n        /* \"@uniswap/lib/contracts/libraries/TransferHelper.sol\":1349:1412  token.call(abi.encodeWithSelector(0x23b872dd, from, to, value)) */\n      swap3\n      mload\n      dup3\n      mload\n        /* \"@uniswap/lib/contracts/libraries/TransferHelper.sol\":1314:1326  bool success */\n      0x00\n      swap5\n        /* \"@uniswap/lib/contracts/libraries/TransferHelper.sol\":1328:1345  bytes memory data */\n      0x60\n      swap5\n        /* \"@uniswap/lib/contracts/libraries/TransferHelper.sol\":1349:1359  token.call */\n      swap4\n      dup11\n      and\n      swap4\n        /* \"@uniswap/lib/contracts/libraries/TransferHelper.sol\":1360:1411  abi.encodeWithSelector(0x23b872dd, from, to, value) */\n      swap3\n        /* \"@uniswap/lib/contracts/libraries/TransferHelper.sol\":1349:1412  token.call(abi.encodeWithSelector(0x23b872dd, from, to, value)) */\n      swap2\n      dup3\n      swap2\n        /* \"--CODEGEN--\":25:43   */\n      swap1\n        /* \"@uniswap/lib/contracts/libraries/TransferHelper.sol\":1349:1412  token.call(abi.encodeWithSelector(0x23b872dd, from, to, value)) */\n      dup1\n      dup4\n        /* \"--CODEGEN--\":25:43   */\n      dup4\n        /* \"--CODEGEN--\":36:189   */\n    tag_407:\n        /* \"--CODEGEN--\":66:68   */\n      0x20\n        /* \"--CODEGEN--\":61:64   */\n      dup4\n        /* \"--CODEGEN--\":58:69   */\n      lt\n        /* \"--CODEGEN--\":36:189   */\n      tag_409\n      jumpi\n        /* \"--CODEGEN--\":176:186   */\n      dup1\n      mload\n        /* \"--CODEGEN--\":164:187   */\n      dup3\n      mstore\n      not(0x1f)\n        /* \"--CODEGEN--\":139:151   */\n      swap1\n      swap3\n      add\n      swap2\n        /* \"--CODEGEN--\":98:100   */\n      0x20\n        /* \"--CODEGEN--\":89:101   */\n      swap2\n      dup3\n      add\n      swap2\n        /* \"--CODEGEN--\":114:126   */\n      add\n        /* \"--CODEGEN--\":36:189   */\n      jump(tag_407)\n    tag_409:\n        /* \"--CODEGEN--\":274:275   */\n      0x01\n        /* \"--CODEGEN--\":267:270   */\n      dup4\n        /* \"--CODEGEN--\":263:265   */\n      0x20\n        /* \"--CODEGEN--\":259:271   */\n      sub\n        /* \"--CODEGEN--\":254:257   */\n      0x0100\n        /* \"--CODEGEN--\":250:272   */\n      exp\n        /* \"--CODEGEN--\":246:276   */\n      sub\n        /* \"--CODEGEN--\":315:319   */\n      dup1\n        /* \"--CODEGEN--\":311:320   */\n      not\n        /* \"--CODEGEN--\":305:308   */\n      dup3\n        /* \"--CODEGEN--\":299:309   */\n      mload\n        /* \"--CODEGEN--\":295:321   */\n      and\n        /* \"--CODEGEN--\":356:360   */\n      dup2\n        /* \"--CODEGEN--\":350:353   */\n      dup5\n        /* \"--CODEGEN--\":344:354   */\n      mload\n        /* \"--CODEGEN--\":340:361   */\n      and\n        /* \"--CODEGEN--\":389:396   */\n      dup1\n        /* \"--CODEGEN--\":380:387   */\n      dup3\n        /* \"--CODEGEN--\":377:397   */\n      or\n        /* \"--CODEGEN--\":372:375   */\n      dup6\n        /* \"--CODEGEN--\":365:398   */\n      mstore\n        /* \"--CODEGEN--\":3:402   */\n      pop\n      pop\n      pop\n        /* \"@uniswap/lib/contracts/libraries/TransferHelper.sol\":1349:1412  token.call(abi.encodeWithSelector(0x23b872dd, from, to, value)) */\n      pop\n      pop\n      pop\n      swap1\n      pop\n      add\n      swap2\n      pop\n      pop\n      0x00\n      mload(0x40)\n      dup1\n      dup4\n      sub\n      dup2\n      0x00\n      dup7\n      gas\n      call\n      swap2\n      pop\n      pop\n      returndatasize\n        /* \"--CODEGEN--\":12:13   */\n      dup1\n        /* \"--CODEGEN--\":19:20   */\n      0x00\n        /* \"--CODEGEN--\":14:41   */\n      dup2\n      eq\n      tag_412\n      jumpi\n        /* \"--CODEGEN--\":67:71   */\n      0x40\n        /* \"--CODEGEN--\":61:72   */\n      mload\n        /* \"--CODEGEN--\":56:72   */\n      swap2\n      pop\n        /* \"--CODEGEN--\":134:138   */\n      0x1f\n        /* \"--CODEGEN--\":130:139   */\n      not\n        /* \"--CODEGEN--\":123:127   */\n      0x3f\n        /* \"--CODEGEN--\":105:121   */\n      returndatasize\n        /* \"--CODEGEN--\":101:128   */\n      add\n        /* \"--CODEGEN--\":97:140   */\n      and\n        /* \"--CODEGEN--\":94:95   */\n      dup3\n        /* \"--CODEGEN--\":90:141   */\n      add\n        /* \"--CODEGEN--\":84:88   */\n      0x40\n        /* \"--CODEGEN--\":77:142   */\n      mstore\n        /* \"--CODEGEN--\":157:173   */\n      returndatasize\n        /* \"--CODEGEN--\":154:155   */\n      dup3\n        /* \"--CODEGEN--\":147:174   */\n      mstore\n        /* \"--CODEGEN--\":211:227   */\n      returndatasize\n        /* \"--CODEGEN--\":208:209   */\n      0x00\n        /* \"--CODEGEN--\":201:205   */\n      0x20\n        /* \"--CODEGEN--\":198:199   */\n      dup5\n        /* \"--CODEGEN--\":194:206   */\n      add\n        /* \"--CODEGEN--\":179:228   */\n      returndatacopy\n        /* \"--CODEGEN--\":5:233   */\n      jump(tag_411)\n        /* \"--CODEGEN--\":14:41   */\n    tag_412:\n        /* \"--CODEGEN--\":32:36   */\n      0x60\n        /* \"--CODEGEN--\":27:36   */\n      swap2\n      pop\n        /* \"--CODEGEN--\":5:233   */\n    tag_411:\n      pop\n        /* \"@uniswap/lib/contracts/libraries/TransferHelper.sol\":1313:1412  (bool success, bytes memory data) = token.call(abi.encodeWithSelector(0x23b872dd, from, to, value)) */\n      swap2\n      pop\n      swap2\n      pop\n        /* \"@uniswap/lib/contracts/libraries/TransferHelper.sol\":1443:1450  success */\n      dup2\n        /* \"@uniswap/lib/contracts/libraries/TransferHelper.sol\":1443:1500  success && (data.length == 0 || abi.decode(data, (bool))) */\n      dup1\n      iszero\n      tag_414\n      jumpi\n      pop\n        /* \"@uniswap/lib/contracts/libraries/TransferHelper.sol\":1455:1466  data.length */\n      dup1\n      mload\n        /* \"@uniswap/lib/contracts/libraries/TransferHelper.sol\":1455:1471  data.length == 0 */\n      iszero\n      dup1\n        /* \"@uniswap/lib/contracts/libraries/TransferHelper.sol\":1455:1499  data.length == 0 || abi.decode(data, (bool)) */\n      tag_414\n      jumpi\n      pop\n        /* \"@uniswap/lib/contracts/libraries/TransferHelper.sol\":1486:1490  data */\n      dup1\n        /* \"@uniswap/lib/contracts/libraries/TransferHelper.sol\":1475:1499  abi.decode(data, (bool)) */\n      dup1\n      0x20\n      add\n      swap1\n      mload\n        /* \"--CODEGEN--\":15:17   */\n      0x20\n        /* \"--CODEGEN--\":10:13   */\n      dup2\n        /* \"--CODEGEN--\":7:18   */\n      lt\n        /* \"--CODEGEN--\":4:6   */\n      iszero\n      tag_415\n      jumpi\n        /* \"--CODEGEN--\":31:32   */\n      0x00\n        /* \"--CODEGEN--\":28:29   */\n      dup1\n        /* \"--CODEGEN--\":21:33   */\n      revert\n        /* \"--CODEGEN--\":4:6   */\n    tag_415:\n      pop\n        /* \"@uniswap/lib/contracts/libraries/TransferHelper.sol\":1475:1499  abi.decode(data, (bool)) */\n      mload\n        /* \"@uniswap/lib/contracts/libraries/TransferHelper.sol\":1455:1499  data.length == 0 || abi.decode(data, (bool)) */\n    tag_414:\n        /* \"@uniswap/lib/contracts/libraries/TransferHelper.sol\":1422:1575  require(... */\n      tag_416\n      jumpi\n      mload(0x40)\n      shl(0xe5, 0x461bcd)\n      dup2\n      mstore\n      0x04\n      add\n      dup1\n      dup1\n      0x20\n      add\n      dup3\n      dup2\n      sub\n      dup3\n      mstore\n      0x31\n      dup2\n      mstore\n      0x20\n      add\n      dup1\n      data_3f8faf98afe9344b6d4b0e75b0101259bf282914b3b5a9320c6918b6e27ede1c\n      0x31\n      swap2\n      codecopy\n      0x40\n      add\n      swap2\n      pop\n      pop\n      mload(0x40)\n      dup1\n      swap2\n      sub\n      swap1\n      revert\n    tag_416:\n        /* \"@uniswap/lib/contracts/libraries/TransferHelper.sol\":1096:1582  function safeTransferFrom(... */\n      pop\n      pop\n      pop\n      pop\n      pop\n      pop\n      jump\t// out\n        /* \"PancakeRouter01.sol\":6790:7467  function _swap(uint[] memory amounts, address[] memory path, address _to) private {... */\n    tag_179:\n        /* \"PancakeRouter01.sol\":6887:6893  uint i */\n      0x00\n        /* \"PancakeRouter01.sol\":6882:7461  for (uint i; i < path.length - 1; i++) {... */\n    tag_418:\n        /* \"PancakeRouter01.sol\":6913:6914  1 */\n      0x01\n        /* \"PancakeRouter01.sol\":6899:6903  path */\n      dup4\n        /* \"PancakeRouter01.sol\":6899:6910  path.length */\n      mload\n        /* \"PancakeRouter01.sol\":6899:6914  path.length - 1 */\n      sub\n        /* \"PancakeRouter01.sol\":6895:6896  i */\n      dup2\n        /* \"PancakeRouter01.sol\":6895:6914  i < path.length - 1 */\n      lt\n        /* \"PancakeRouter01.sol\":6882:7461  for (uint i; i < path.length - 1; i++) {... */\n      iszero\n      tag_419\n      jumpi\n        /* \"PancakeRouter01.sol\":6936:6949  address input */\n      0x00\n        /* \"PancakeRouter01.sol\":6951:6965  address output */\n      dup1\n        /* \"PancakeRouter01.sol\":6970:6974  path */\n      dup5\n        /* \"PancakeRouter01.sol\":6975:6976  i */\n      dup4\n        /* \"PancakeRouter01.sol\":6970:6977  path[i] */\n      dup2\n      mload\n      dup2\n      lt\n      tag_421\n      jumpi\n      invalid\n    tag_421:\n      0x20\n      mul\n      0x20\n      add\n      add\n      mload\n        /* \"PancakeRouter01.sol\":6979:6983  path */\n      dup6\n        /* \"PancakeRouter01.sol\":6984:6985  i */\n      dup5\n        /* \"PancakeRouter01.sol\":6988:6989  1 */\n      0x01\n        /* \"PancakeRouter01.sol\":6984:6989  i + 1 */\n      add\n        /* \"PancakeRouter01.sol\":6979:6990  path[i + 1] */\n      dup2\n      mload\n      dup2\n      lt\n      tag_422\n      jumpi\n      invalid\n    tag_422:\n      0x20\n      mul\n      0x20\n      add\n      add\n      mload\n        /* \"PancakeRouter01.sol\":6935:6991  (address input, address output) = (path[i], path[i + 1]) */\n      swap2\n      pop\n      swap2\n      pop\n        /* \"PancakeRouter01.sol\":7006:7020  address token0 */\n      0x00\n        /* \"PancakeRouter01.sol\":7025:7065  PancakeLibrary.sortTokens(input, output) */\n      tag_423\n        /* \"PancakeRouter01.sol\":7051:7056  input */\n      dup4\n        /* \"PancakeRouter01.sol\":7058:7064  output */\n      dup4\n        /* \"PancakeRouter01.sol\":7025:7050  PancakeLibrary.sortTokens */\n      tag_284\n        /* \"PancakeRouter01.sol\":7025:7065  PancakeLibrary.sortTokens(input, output) */\n      jump\t// in\n    tag_423:\n        /* \"PancakeRouter01.sol\":7005:7065  (address token0,) = PancakeLibrary.sortTokens(input, output) */\n      pop\n      swap1\n      pop\n        /* \"PancakeRouter01.sol\":7079:7093  uint amountOut */\n      0x00\n        /* \"PancakeRouter01.sol\":7096:7103  amounts */\n      dup8\n        /* \"PancakeRouter01.sol\":7104:7105  i */\n      dup6\n        /* \"PancakeRouter01.sol\":7108:7109  1 */\n      0x01\n        /* \"PancakeRouter01.sol\":7104:7109  i + 1 */\n      add\n        /* \"PancakeRouter01.sol\":7096:7110  amounts[i + 1] */\n      dup2\n      mload\n      dup2\n      lt\n      tag_424\n      jumpi\n      invalid\n    tag_424:\n      0x20\n      mul\n      0x20\n      add\n      add\n      mload\n        /* \"PancakeRouter01.sol\":7079:7110  uint amountOut = amounts[i + 1] */\n      swap1\n      pop\n        /* \"PancakeRouter01.sol\":7125:7140  uint amount0Out */\n      0x00\n        /* \"PancakeRouter01.sol\":7142:7157  uint amount1Out */\n      dup1\n        /* \"PancakeRouter01.sol\":7170:7176  token0 */\n      dup4\n      sub(shl(0xa0, 0x01), 0x01)\n        /* \"PancakeRouter01.sol\":7161:7176  input == token0 */\n      and\n        /* \"PancakeRouter01.sol\":7161:7166  input */\n      dup7\n      sub(shl(0xa0, 0x01), 0x01)\n        /* \"PancakeRouter01.sol\":7161:7176  input == token0 */\n      and\n      eq\n        /* \"PancakeRouter01.sol\":7161:7222  input == token0 ? (uint(0), amountOut) : (amountOut, uint(0)) */\n      tag_425\n      jumpi\n        /* \"PancakeRouter01.sol\":7203:7212  amountOut */\n      dup3\n        /* \"PancakeRouter01.sol\":7219:7220  0 */\n      0x00\n        /* \"PancakeRouter01.sol\":7161:7222  input == token0 ? (uint(0), amountOut) : (amountOut, uint(0)) */\n      jump(tag_426)\n    tag_425:\n        /* \"PancakeRouter01.sol\":7185:7186  0 */\n      0x00\n        /* \"PancakeRouter01.sol\":7189:7198  amountOut */\n      dup4\n        /* \"PancakeRouter01.sol\":7161:7222  input == token0 ? (uint(0), amountOut) : (amountOut, uint(0)) */\n    tag_426:\n        /* \"PancakeRouter01.sol\":7124:7222  (uint amount0Out, uint amount1Out) = input == token0 ? (uint(0), amountOut) : (amountOut, uint(0)) */\n      swap2\n      pop\n      swap2\n      pop\n        /* \"PancakeRouter01.sol\":7236:7246  address to */\n      0x00\n        /* \"PancakeRouter01.sol\":7267:7268  2 */\n      0x02\n        /* \"PancakeRouter01.sol\":7253:7257  path */\n      dup11\n        /* \"PancakeRouter01.sol\":7253:7264  path.length */\n      mload\n        /* \"PancakeRouter01.sol\":7253:7268  path.length - 2 */\n      sub\n        /* \"PancakeRouter01.sol\":7249:7250  i */\n      dup9\n        /* \"PancakeRouter01.sol\":7249:7268  i < path.length - 2 */\n      lt\n        /* \"PancakeRouter01.sol\":7249:7329  i < path.length - 2 ? PancakeLibrary.pairFor(factory, output, path[i + 2]) : _to */\n      tag_427\n      jumpi\n        /* \"PancakeRouter01.sol\":7326:7329  _to */\n      dup9\n        /* \"PancakeRouter01.sol\":7249:7329  i < path.length - 2 ? PancakeLibrary.pairFor(factory, output, path[i + 2]) : _to */\n      jump(tag_429)\n    tag_427:\n        /* \"PancakeRouter01.sol\":7271:7323  PancakeLibrary.pairFor(factory, output, path[i + 2]) */\n      tag_429\n        /* \"PancakeRouter01.sol\":7294:7301  factory */\n      immutable(\"0x5bcd163b2238ff85648d293e01a327b5c7f9ae69498a752a4883e839ddddafcb\")\n        /* \"PancakeRouter01.sol\":7303:7309  output */\n      dup8\n        /* \"PancakeRouter01.sol\":7311:7315  path */\n      dup13\n        /* \"PancakeRouter01.sol\":7316:7317  i */\n      dup12\n        /* \"PancakeRouter01.sol\":7320:7321  2 */\n      0x02\n        /* \"PancakeRouter01.sol\":7316:7321  i + 2 */\n      add\n        /* \"PancakeRouter01.sol\":7311:7322  path[i + 2] */\n      dup2\n      mload\n      dup2\n      lt\n      tag_430\n      jumpi\n      invalid\n    tag_430:\n      0x20\n      mul\n      0x20\n      add\n      add\n      mload\n        /* \"PancakeRouter01.sol\":7271:7293  PancakeLibrary.pairFor */\n      tag_175\n        /* \"PancakeRouter01.sol\":7271:7323  PancakeLibrary.pairFor(factory, output, path[i + 2]) */\n      jump\t// in\n    tag_429:\n        /* \"PancakeRouter01.sol\":7236:7329  address to = i < path.length - 2 ? PancakeLibrary.pairFor(factory, output, path[i + 2]) : _to */\n      swap1\n      pop\n        /* \"PancakeRouter01.sol\":7356:7402  PancakeLibrary.pairFor(factory, input, output) */\n      tag_431\n        /* \"PancakeRouter01.sol\":7379:7386  factory */\n      immutable(\"0x5bcd163b2238ff85648d293e01a327b5c7f9ae69498a752a4883e839ddddafcb\")\n        /* \"PancakeRouter01.sol\":7388:7393  input */\n      dup9\n        /* \"PancakeRouter01.sol\":7395:7401  output */\n      dup9\n        /* \"PancakeRouter01.sol\":7356:7378  PancakeLibrary.pairFor */\n      tag_175\n        /* \"PancakeRouter01.sol\":7356:7402  PancakeLibrary.pairFor(factory, input, output) */\n      jump\t// in\n    tag_431:\n      sub(shl(0xa0, 0x01), 0x01)\n        /* \"PancakeRouter01.sol\":7343:7408  IPancakePair(PancakeLibrary.pairFor(factory, input, output)).swap */\n      and\n      0x022c0d9f\n        /* \"PancakeRouter01.sol\":7409:7419  amount0Out */\n      dup5\n        /* \"PancakeRouter01.sol\":7421:7431  amount1Out */\n      dup5\n        /* \"PancakeRouter01.sol\":7433:7435  to */\n      dup5\n        /* \"PancakeRouter01.sol\":7447:7448  0 */\n      0x00\n        /* \"PancakeRouter01.sol\":7437:7449  new bytes(0) */\n      mload(0x40)\n      swap1\n      dup1\n      dup3\n      mstore\n      dup1\n      0x1f\n      add\n      not(0x1f)\n      and\n      0x20\n      add\n      dup3\n      add\n      0x40\n      mstore\n      dup1\n      iszero\n      tag_433\n      jumpi\n      0x20\n      dup3\n      add\n        /* \"--CODEGEN--\":21:27   */\n      dup2\n      dup1\n        /* \"--CODEGEN--\":108:122   */\n      calldatasize\n        /* \"PancakeRouter01.sol\":7437:7449  new bytes(0) */\n      dup4\n        /* \"--CODEGEN--\":87:129   */\n      calldatacopy\n        /* \"--CODEGEN--\":143:160   */\n      add\n      swap1\n      pop\n        /* \"PancakeRouter01.sol\":7437:7449  new bytes(0) */\n    tag_433:\n      pop\n        /* \"PancakeRouter01.sol\":7343:7450  IPancakePair(PancakeLibrary.pairFor(factory, input, output)).swap(amount0Out, amount1Out, to, new bytes(0)) */\n      mload(0x40)\n      dup6\n      0xffffffff\n      and\n      0xe0\n      shl\n      dup2\n      mstore\n      0x04\n      add\n      dup1\n      dup6\n      dup2\n      mstore\n      0x20\n      add\n      dup5\n      dup2\n      mstore\n      0x20\n      add\n      dup4\n      sub(shl(0xa0, 0x01), 0x01)\n      and\n      sub(shl(0xa0, 0x01), 0x01)\n      and\n      dup2\n      mstore\n      0x20\n      add\n      dup1\n      0x20\n      add\n      dup3\n      dup2\n      sub\n      dup3\n      mstore\n      dup4\n      dup2\n      dup2\n      mload\n      dup2\n      mstore\n      0x20\n      add\n      swap2\n      pop\n      dup1\n      mload\n      swap1\n      0x20\n      add\n      swap1\n      dup1\n      dup4\n      dup4\n        /* \"--CODEGEN--\":23:24   */\n      0x00\n        /* \"--CODEGEN--\":8:108   */\n    tag_434:\n        /* \"--CODEGEN--\":33:36   */\n      dup4\n        /* \"--CODEGEN--\":30:31   */\n      dup2\n        /* \"--CODEGEN--\":27:37   */\n      lt\n        /* \"--CODEGEN--\":8:108   */\n      iszero\n      tag_436\n      jumpi\n        /* \"--CODEGEN--\":90:101   */\n      dup2\n      dup2\n      add\n        /* \"--CODEGEN--\":84:102   */\n      mload\n        /* \"--CODEGEN--\":71:82   */\n      dup4\n      dup3\n      add\n        /* \"--CODEGEN--\":64:103   */\n      mstore\n        /* \"--CODEGEN--\":52:54   */\n      0x20\n        /* \"--CODEGEN--\":45:55   */\n      add\n        /* \"--CODEGEN--\":8:108   */\n      jump(tag_434)\n    tag_436:\n        /* \"--CODEGEN--\":12:26   */\n      pop\n        /* \"PancakeRouter01.sol\":7343:7450  IPancakePair(PancakeLibrary.pairFor(factory, input, output)).swap(amount0Out, amount1Out, to, new bytes(0)) */\n      pop\n      pop\n      pop\n      swap1\n      pop\n      swap1\n      dup2\n      add\n      swap1\n      0x1f\n      and\n      dup1\n      iszero\n      tag_437\n      jumpi\n      dup1\n      dup3\n      sub\n      dup1\n      mload\n      0x01\n      dup4\n      0x20\n      sub\n      0x0100\n      exp\n      sub\n      not\n      and\n      dup2\n      mstore\n      0x20\n      add\n      swap2\n      pop\n    tag_437:\n      pop\n      swap6\n      pop\n      pop\n      pop\n      pop\n      pop\n      pop\n      0x00\n      mload(0x40)\n      dup1\n      dup4\n      sub\n      dup2\n      0x00\n      dup8\n      dup1\n      extcodesize\n      iszero\n        /* \"--CODEGEN--\":5:14   */\n      dup1\n        /* \"--CODEGEN--\":2:4   */\n      iszero\n      tag_438\n      jumpi\n        /* \"--CODEGEN--\":27:28   */\n      0x00\n        /* \"--CODEGEN--\":24:25   */\n      dup1\n        /* \"--CODEGEN--\":17:29   */\n      revert\n        /* \"--CODEGEN--\":2:4   */\n    tag_438:\n        /* \"PancakeRouter01.sol\":7343:7450  IPancakePair(PancakeLibrary.pairFor(factory, input, output)).swap(amount0Out, amount1Out, to, new bytes(0)) */\n      pop\n      gas\n      call\n      iszero\n        /* \"--CODEGEN--\":8:17   */\n      dup1\n        /* \"--CODEGEN--\":5:7   */\n      iszero\n      tag_440\n      jumpi\n        /* \"--CODEGEN--\":45:61   */\n      returndatasize\n        /* \"--CODEGEN--\":42:43   */\n      0x00\n        /* \"--CODEGEN--\":39:40   */\n      dup1\n        /* \"--CODEGEN--\":24:62   */\n      returndatacopy\n        /* \"--CODEGEN--\":77:93   */\n      returndatasize\n        /* \"--CODEGEN--\":74:75   */\n      0x00\n        /* \"--CODEGEN--\":67:94   */\n      revert\n        /* \"--CODEGEN--\":5:7   */\n    tag_440:\n      pop\n      pop\n        /* \"PancakeRouter01.sol\":6916:6919  i++ */\n      0x01\n      swap1\n      swap10\n      add\n      swap9\n      pop\n        /* \"PancakeRouter01.sol\":6882:7461  for (uint i; i < path.length - 1; i++) {... */\n      tag_418\n      swap8\n      pop\n      pop\n      pop\n      pop\n      pop\n      pop\n      pop\n      pop\n      jump\n    tag_419:\n      pop\n        /* \"PancakeRouter01.sol\":6790:7467  function _swap(uint[] memory amounts, address[] memory path, address _to) private {... */\n      pop\n      pop\n      pop\n      jump\t// out\n        /* \"libraries/PancakeLibrary.sol\":4403:4973  function getAmountsIn(... */\n    tag_188:\n        /* \"libraries/PancakeLibrary.sol\":4537:4561  uint256[] memory amounts */\n      0x60\n        /* \"libraries/PancakeLibrary.sol\":4596:4597  2 */\n      0x02\n        /* \"libraries/PancakeLibrary.sol\":4581:4585  path */\n      dup3\n        /* \"libraries/PancakeLibrary.sol\":4581:4592  path.length */\n      mload\n        /* \"libraries/PancakeLibrary.sol\":4581:4597  path.length >= 2 */\n      lt\n      iszero\n        /* \"libraries/PancakeLibrary.sol\":4573:4630  require(path.length >= 2, \"PancakeLibrary: INVALID_PATH\") */\n      tag_442\n      jumpi\n      0x40\n      dup1\n      mload\n      shl(0xe5, 0x461bcd)\n      dup2\n      mstore\n      0x20\n      0x04\n      dup3\n      add\n      mstore\n      0x1c\n      0x24\n      dup3\n      add\n      mstore\n      0x50616e63616b654c6962726172793a20494e56414c49445f5041544800000000\n      0x44\n      dup3\n      add\n      mstore\n      swap1\n      mload\n      swap1\n      dup2\n      swap1\n      sub\n      0x64\n      add\n      swap1\n      revert\n    tag_442:\n        /* \"libraries/PancakeLibrary.sol\":4664:4668  path */\n      dup2\n        /* \"libraries/PancakeLibrary.sol\":4664:4675  path.length */\n      mload\n        /* \"libraries/PancakeLibrary.sol\":4650:4676  new uint256[](path.length) */\n      0xffffffffffffffff\n      dup2\n      gt\n        /* \"--CODEGEN--\":5:14   */\n      dup1\n        /* \"--CODEGEN--\":2:4   */\n      iszero\n      tag_443\n      jumpi\n        /* \"--CODEGEN--\":27:28   */\n      0x00\n        /* \"--CODEGEN--\":24:25   */\n      dup1\n        /* \"--CODEGEN--\":17:29   */\n      revert\n        /* \"--CODEGEN--\":2:4   */\n    tag_443:\n        /* \"libraries/PancakeLibrary.sol\":4650:4676  new uint256[](path.length) */\n      pop\n      mload(0x40)\n      swap1\n      dup1\n      dup3\n      mstore\n      dup1\n      0x20\n      mul\n      0x20\n      add\n      dup3\n      add\n      0x40\n      mstore\n      dup1\n      iszero\n      tag_444\n      jumpi\n      dup2\n      0x20\n      add\n        /* \"--CODEGEN--\":29:31   */\n      0x20\n        /* \"--CODEGEN--\":21:27   */\n      dup3\n        /* \"--CODEGEN--\":17:32   */\n      mul\n        /* \"--CODEGEN--\":125:129   */\n      dup1\n        /* \"--CODEGEN--\":109:123   */\n      calldatasize\n        /* \"--CODEGEN--\":101:107   */\n      dup4\n        /* \"--CODEGEN--\":88:130   */\n      calldatacopy\n        /* \"--CODEGEN--\":144:161   */\n      add\n      swap1\n      pop\n        /* \"libraries/PancakeLibrary.sol\":4650:4676  new uint256[](path.length) */\n    tag_444:\n      pop\n        /* \"libraries/PancakeLibrary.sol\":4640:4676  amounts = new uint256[](path.length) */\n      swap1\n      pop\n        /* \"libraries/PancakeLibrary.sol\":4716:4725  amountOut */\n      dup3\n        /* \"libraries/PancakeLibrary.sol\":4686:4693  amounts */\n      dup2\n        /* \"libraries/PancakeLibrary.sol\":4711:4712  1 */\n      0x01\n        /* \"libraries/PancakeLibrary.sol\":4694:4701  amounts */\n      dup4\n        /* \"libraries/PancakeLibrary.sol\":4694:4708  amounts.length */\n      mload\n        /* \"libraries/PancakeLibrary.sol\":4694:4712  amounts.length - 1 */\n      sub\n        /* \"libraries/PancakeLibrary.sol\":4686:4713  amounts[amounts.length - 1] */\n      dup2\n      mload\n      dup2\n      lt\n      tag_445\n      jumpi\n      invalid\n    tag_445:\n      0x20\n      swap1\n      dup2\n      mul\n      swap2\n      swap1\n      swap2\n      add\n      add\n        /* \"libraries/PancakeLibrary.sol\":4686:4725  amounts[amounts.length - 1] = amountOut */\n      mstore\n        /* \"libraries/PancakeLibrary.sol\":4752:4763  path.length */\n      dup2\n      mload\n      not(0x00)\n        /* \"libraries/PancakeLibrary.sol\":4752:4767  path.length - 1 */\n      add\n        /* \"libraries/PancakeLibrary.sol\":4735:4967  for (uint256 i = path.length - 1; i > 0; i--) {... */\n    tag_446:\n        /* \"libraries/PancakeLibrary.sol\":4769:4774  i > 0 */\n      dup1\n      iszero\n        /* \"libraries/PancakeLibrary.sol\":4735:4967  for (uint256 i = path.length - 1; i > 0; i--) {... */\n      tag_395\n      jumpi\n        /* \"libraries/PancakeLibrary.sol\":4796:4813  uint256 reserveIn */\n      0x00\n        /* \"libraries/PancakeLibrary.sol\":4815:4833  uint256 reserveOut */\n      dup1\n        /* \"libraries/PancakeLibrary.sol\":4837:4879  getReserves(factory, path[i - 1], path[i]) */\n      tag_449\n        /* \"libraries/PancakeLibrary.sol\":4849:4856  factory */\n      dup8\n        /* \"libraries/PancakeLibrary.sol\":4858:4862  path */\n      dup7\n        /* \"libraries/PancakeLibrary.sol\":4867:4868  1 */\n      0x01\n        /* \"libraries/PancakeLibrary.sol\":4863:4864  i */\n      dup7\n        /* \"libraries/PancakeLibrary.sol\":4863:4868  i - 1 */\n      sub\n        /* \"libraries/PancakeLibrary.sol\":4858:4869  path[i - 1] */\n      dup2\n      mload\n      dup2\n      lt\n      tag_450\n      jumpi\n      invalid\n    tag_450:\n      0x20\n      mul\n      0x20\n      add\n      add\n      mload\n        /* \"libraries/PancakeLibrary.sol\":4871:4875  path */\n      dup8\n        /* \"libraries/PancakeLibrary.sol\":4876:4877  i */\n      dup7\n        /* \"libraries/PancakeLibrary.sol\":4871:4878  path[i] */\n      dup2\n      mload\n      dup2\n      lt\n      tag_399\n      jumpi\n      invalid\n        /* \"libraries/PancakeLibrary.sol\":4837:4879  getReserves(factory, path[i - 1], path[i]) */\n    tag_449:\n        /* \"libraries/PancakeLibrary.sol\":4795:4879  (uint256 reserveIn, uint256 reserveOut) = getReserves(factory, path[i - 1], path[i]) */\n      swap2\n      pop\n      swap2\n      pop\n        /* \"libraries/PancakeLibrary.sol\":4910:4956  getAmountIn(amounts[i], reserveIn, reserveOut) */\n      tag_452\n        /* \"libraries/PancakeLibrary.sol\":4922:4929  amounts */\n      dup5\n        /* \"libraries/PancakeLibrary.sol\":4930:4931  i */\n      dup5\n        /* \"libraries/PancakeLibrary.sol\":4922:4932  amounts[i] */\n      dup2\n      mload\n      dup2\n      lt\n      tag_453\n      jumpi\n      invalid\n    tag_453:\n      0x20\n      mul\n      0x20\n      add\n      add\n      mload\n        /* \"libraries/PancakeLibrary.sol\":4934:4943  reserveIn */\n      dup4\n        /* \"libraries/PancakeLibrary.sol\":4945:4955  reserveOut */\n      dup4\n        /* \"libraries/PancakeLibrary.sol\":4910:4921  getAmountIn */\n      tag_454\n        /* \"libraries/PancakeLibrary.sol\":4910:4956  getAmountIn(amounts[i], reserveIn, reserveOut) */\n      jump\t// in\n    tag_452:\n        /* \"libraries/PancakeLibrary.sol\":4893:4900  amounts */\n      dup5\n        /* \"libraries/PancakeLibrary.sol\":4905:4906  1 */\n      0x01\n        /* \"libraries/PancakeLibrary.sol\":4901:4902  i */\n      dup6\n        /* \"libraries/PancakeLibrary.sol\":4901:4906  i - 1 */\n      sub\n        /* \"libraries/PancakeLibrary.sol\":4893:4907  amounts[i - 1] */\n      dup2\n      mload\n      dup2\n      lt\n      tag_455\n      jumpi\n      invalid\n    tag_455:\n      0x20\n      swap1\n      dup2\n      mul\n      swap2\n      swap1\n      swap2\n      add\n      add\n        /* \"libraries/PancakeLibrary.sol\":4893:4956  amounts[i - 1] = getAmountIn(amounts[i], reserveIn, reserveOut) */\n      mstore\n      pop\n      pop\n      not(0x00)\n        /* \"libraries/PancakeLibrary.sol\":4776:4779  i-- */\n      add\n        /* \"libraries/PancakeLibrary.sol\":4735:4967  for (uint256 i = path.length - 1; i > 0; i--) {... */\n      jump(tag_446)\n        /* \"libraries/PancakeLibrary.sol\":2034:2389  function quote(... */\n    tag_270:\n        /* \"libraries/PancakeLibrary.sol\":2155:2170  uint256 amountB */\n      0x00\n        /* \"libraries/PancakeLibrary.sol\":2200:2201  0 */\n      dup1\n        /* \"libraries/PancakeLibrary.sol\":2190:2197  amountA */\n      dup5\n        /* \"libraries/PancakeLibrary.sol\":2190:2201  amountA > 0 */\n      gt\n        /* \"libraries/PancakeLibrary.sol\":2182:2241  require(amountA > 0, \"PancakeLibrary: INSUFFICIENT_AMOUNT\") */\n      tag_457\n      jumpi\n      mload(0x40)\n      shl(0xe5, 0x461bcd)\n      dup2\n      mstore\n      0x04\n      add\n      dup1\n      dup1\n      0x20\n      add\n      dup3\n      dup2\n      sub\n      dup3\n      mstore\n      0x23\n      dup2\n      mstore\n      0x20\n      add\n      dup1\n      data_c2436cd9fe392e9d92ea64ccc2d35ff51167714e653294bf2e45cb6e82b00db9\n      0x23\n      swap2\n      codecopy\n      0x40\n      add\n      swap2\n      pop\n      pop\n      mload(0x40)\n      dup1\n      swap2\n      sub\n      swap1\n      revert\n    tag_457:\n        /* \"libraries/PancakeLibrary.sol\":2270:2271  0 */\n      0x00\n        /* \"libraries/PancakeLibrary.sol\":2259:2267  reserveA */\n      dup4\n        /* \"libraries/PancakeLibrary.sol\":2259:2271  reserveA > 0 */\n      gt\n        /* \"libraries/PancakeLibrary.sol\":2259:2287  reserveA > 0 && reserveB > 0 */\n      dup1\n      iszero\n      tag_458\n      jumpi\n      pop\n        /* \"libraries/PancakeLibrary.sol\":2286:2287  0 */\n      0x00\n        /* \"libraries/PancakeLibrary.sol\":2275:2283  reserveB */\n      dup3\n        /* \"libraries/PancakeLibrary.sol\":2275:2287  reserveB > 0 */\n      gt\n        /* \"libraries/PancakeLibrary.sol\":2259:2287  reserveA > 0 && reserveB > 0 */\n    tag_458:\n        /* \"libraries/PancakeLibrary.sol\":2251:2330  require(reserveA > 0 && reserveB > 0, \"PancakeLibrary: INSUFFICIENT_LIQUIDITY\") */\n      tag_459\n      jumpi\n      mload(0x40)\n      shl(0xe5, 0x461bcd)\n      dup2\n      mstore\n      0x04\n      add\n      dup1\n      dup1\n      0x20\n      add\n      dup3\n      dup2\n      sub\n      dup3\n      mstore\n      0x26\n      dup2\n      mstore\n      0x20\n      add\n      dup1\n      data_e7f79b6b909ed2023c6e79d88a862542f92041db19a71970a37e18b3fc8ff469\n      0x26\n      swap2\n      codecopy\n      0x40\n      add\n      swap2\n      pop\n      pop\n      mload(0x40)\n      dup1\n      swap2\n      sub\n      swap1\n      revert\n    tag_459:\n        /* \"libraries/PancakeLibrary.sol\":2374:2382  reserveA */\n      dup3\n        /* \"libraries/PancakeLibrary.sol\":2350:2371  amountA.mul(reserveB) */\n      tag_460\n        /* \"libraries/PancakeLibrary.sol\":2350:2357  amountA */\n      dup6\n        /* \"libraries/PancakeLibrary.sol\":2362:2370  reserveB */\n      dup5\n        /* \"libraries/PancakeLibrary.sol\":2350:2371  amountA.mul(reserveB) */\n      0xffffffff\n        /* \"libraries/PancakeLibrary.sol\":2350:2361  amountA.mul */\n      tag_383\n        /* \"libraries/PancakeLibrary.sol\":2350:2371  amountA.mul(reserveB) */\n      and\n      jump\t// in\n    tag_460:\n        /* \"libraries/PancakeLibrary.sol\":2350:2382  amountA.mul(reserveB) / reserveA */\n      dup2\n      tag_461\n      jumpi\n      invalid\n    tag_461:\n      div\n      swap5\n        /* \"libraries/PancakeLibrary.sol\":2034:2389  function quote(... */\n      swap4\n      pop\n      pop\n      pop\n      pop\n      jump\t// out\n        /* \"libraries/PancakeLibrary.sol\":335:676  function sortTokens(address tokenA, address tokenB) internal pure returns (address token0, address token1) {... */\n    tag_284:\n        /* \"libraries/PancakeLibrary.sol\":410:424  address token0 */\n      0x00\n        /* \"libraries/PancakeLibrary.sol\":426:440  address token1 */\n      dup1\n        /* \"libraries/PancakeLibrary.sol\":470:476  tokenB */\n      dup3\n      sub(shl(0xa0, 0x01), 0x01)\n        /* \"libraries/PancakeLibrary.sol\":460:476  tokenA != tokenB */\n      and\n        /* \"libraries/PancakeLibrary.sol\":460:466  tokenA */\n      dup5\n      sub(shl(0xa0, 0x01), 0x01)\n        /* \"libraries/PancakeLibrary.sol\":460:476  tokenA != tokenB */\n      and\n      eq\n      iszero\n        /* \"libraries/PancakeLibrary.sol\":452:516  require(tokenA != tokenB, \"PancakeLibrary: IDENTICAL_ADDRESSES\") */\n      tag_463\n      jumpi\n      mload(0x40)\n      shl(0xe5, 0x461bcd)\n      dup2\n      mstore\n      0x04\n      add\n      dup1\n      dup1\n      0x20\n      add\n      dup3\n      dup2\n      sub\n      dup3\n      mstore\n      0x23\n      dup2\n      mstore\n      0x20\n      add\n      dup1\n      data_78572e429854b935d2f9b71fcd53b224e50c6518aa14fc5fcf53684f76e4ff60\n      0x23\n      swap2\n      codecopy\n      0x40\n      add\n      swap2\n      pop\n      pop\n      mload(0x40)\n      dup1\n      swap2\n      sub\n      swap1\n      revert\n    tag_463:\n        /* \"libraries/PancakeLibrary.sol\":554:560  tokenB */\n      dup3\n      sub(shl(0xa0, 0x01), 0x01)\n        /* \"libraries/PancakeLibrary.sol\":545:560  tokenA < tokenB */\n      and\n        /* \"libraries/PancakeLibrary.sol\":545:551  tokenA */\n      dup5\n      sub(shl(0xa0, 0x01), 0x01)\n        /* \"libraries/PancakeLibrary.sol\":545:560  tokenA < tokenB */\n      and\n      lt\n        /* \"libraries/PancakeLibrary.sol\":545:598  tokenA < tokenB ? (tokenA, tokenB) : (tokenB, tokenA) */\n      tag_464\n      jumpi\n        /* \"libraries/PancakeLibrary.sol\":583:589  tokenB */\n      dup3\n        /* \"libraries/PancakeLibrary.sol\":591:597  tokenA */\n      dup5\n        /* \"libraries/PancakeLibrary.sol\":545:598  tokenA < tokenB ? (tokenA, tokenB) : (tokenB, tokenA) */\n      jump(tag_465)\n    tag_464:\n        /* \"libraries/PancakeLibrary.sol\":564:570  tokenA */\n      dup4\n        /* \"libraries/PancakeLibrary.sol\":572:578  tokenB */\n      dup4\n        /* \"libraries/PancakeLibrary.sol\":545:598  tokenA < tokenB ? (tokenA, tokenB) : (tokenB, tokenA) */\n    tag_465:\n        /* \"libraries/PancakeLibrary.sol\":526:598  (token0, token1) = tokenA < tokenB ? (tokenA, tokenB) : (tokenB, tokenA) */\n      swap1\n      swap3\n      pop\n      swap1\n      pop\n      sub(shl(0xa0, 0x01), 0x01)\n        /* \"libraries/PancakeLibrary.sol\":616:636  token0 != address(0) */\n      dup3\n      and\n        /* \"libraries/PancakeLibrary.sol\":608:669  require(token0 != address(0), \"PancakeLibrary: ZERO_ADDRESS\") */\n      tag_466\n      jumpi\n      0x40\n      dup1\n      mload\n      shl(0xe5, 0x461bcd)\n      dup2\n      mstore\n      0x20\n      0x04\n      dup3\n      add\n      mstore\n      0x1c\n      0x24\n      dup3\n      add\n      mstore\n      0x50616e63616b654c6962726172793a205a45524f5f4144445245535300000000\n      0x44\n      dup3\n      add\n      mstore\n      swap1\n      mload\n      swap1\n      dup2\n      swap1\n      sub\n      0x64\n      add\n      swap1\n      revert\n    tag_466:\n        /* \"libraries/PancakeLibrary.sol\":335:676  function sortTokens(address tokenA, address tokenB) internal pure returns (address token0, address token1) {... */\n      swap3\n      pop\n      swap3\n      swap1\n      pop\n      jump\t// out\n        /* \"PancakeRouter01.sol\":867:2207  function _addLiquidity(... */\n    tag_303:\n        /* \"PancakeRouter01.sol\":1162:1210  IPancakeFactory(factory).getPair(tokenA, tokenB) */\n      0x40\n      dup1\n      mload\n      shl(0xe0, 0xe6a43905)\n      dup2\n      mstore\n      sub(shl(0xa0, 0x01), 0x01)\n      dup9\n      dup2\n      and\n      0x04\n      dup4\n      add\n      mstore\n      dup8\n      dup2\n      and\n      0x24\n      dup4\n      add\n      mstore\n      swap2\n      mload\n        /* \"PancakeRouter01.sol\":1069:1081  uint amountA */\n      0x00\n      swap3\n      dup4\n      swap3\n      dup4\n      swap3\n        /* \"PancakeRouter01.sol\":1178:1185  factory */\n      immutable(\"0x5bcd163b2238ff85648d293e01a327b5c7f9ae69498a752a4883e839ddddafcb\")\n        /* \"PancakeRouter01.sol\":1162:1194  IPancakeFactory(factory).getPair */\n      swap1\n      swap3\n      and\n      swap2\n      0xe6a43905\n      swap2\n        /* \"PancakeRouter01.sol\":1162:1210  IPancakeFactory(factory).getPair(tokenA, tokenB) */\n      0x44\n      dup1\n      dup3\n      add\n      swap3\n      0x20\n      swap3\n      swap1\n      swap2\n      swap1\n      dup3\n      swap1\n      sub\n      add\n      dup2\n        /* \"PancakeRouter01.sol\":1162:1194  IPancakeFactory(factory).getPair */\n      dup7\n        /* \"PancakeRouter01.sol\":1162:1210  IPancakeFactory(factory).getPair(tokenA, tokenB) */\n      dup1\n      extcodesize\n      iszero\n        /* \"--CODEGEN--\":2:4   */\n      dup1\n      iszero\n      tag_468\n      jumpi\n        /* \"--CODEGEN--\":27:28   */\n      0x00\n        /* \"--CODEGEN--\":24:25   */\n      dup1\n        /* \"--CODEGEN--\":17:29   */\n      revert\n        /* \"--CODEGEN--\":2:4   */\n    tag_468:\n        /* \"PancakeRouter01.sol\":1162:1210  IPancakeFactory(factory).getPair(tokenA, tokenB) */\n      pop\n      gas\n      staticcall\n      iszero\n        /* \"--CODEGEN--\":8:17   */\n      dup1\n        /* \"--CODEGEN--\":5:7   */\n      iszero\n      tag_470\n      jumpi\n        /* \"--CODEGEN--\":45:61   */\n      returndatasize\n        /* \"--CODEGEN--\":42:43   */\n      0x00\n        /* \"--CODEGEN--\":39:40   */\n      dup1\n        /* \"--CODEGEN--\":24:62   */\n      returndatacopy\n        /* \"--CODEGEN--\":77:93   */\n      returndatasize\n        /* \"--CODEGEN--\":74:75   */\n      0x00\n        /* \"--CODEGEN--\":67:94   */\n      revert\n        /* \"--CODEGEN--\":5:7   */\n    tag_470:\n        /* \"PancakeRouter01.sol\":1162:1210  IPancakeFactory(factory).getPair(tokenA, tokenB) */\n      pop\n      pop\n      pop\n      pop\n      mload(0x40)\n      returndatasize\n        /* \"--CODEGEN--\":15:17   */\n      0x20\n        /* \"--CODEGEN--\":10:13   */\n      dup2\n        /* \"--CODEGEN--\":7:18   */\n      lt\n        /* \"--CODEGEN--\":4:6   */\n      iszero\n      tag_471\n      jumpi\n        /* \"--CODEGEN--\":31:32   */\n      0x00\n        /* \"--CODEGEN--\":28:29   */\n      dup1\n        /* \"--CODEGEN--\":21:33   */\n      revert\n        /* \"--CODEGEN--\":4:6   */\n    tag_471:\n      pop\n        /* \"PancakeRouter01.sol\":1162:1210  IPancakeFactory(factory).getPair(tokenA, tokenB) */\n      mload\n      sub(shl(0xa0, 0x01), 0x01)\n        /* \"PancakeRouter01.sol\":1162:1224  IPancakeFactory(factory).getPair(tokenA, tokenB) == address(0) */\n      and\n      eq\n        /* \"PancakeRouter01.sol\":1158:1302  if (IPancakeFactory(factory).getPair(tokenA, tokenB) == address(0)) {... */\n      iszero\n      tag_472\n      jumpi\n        /* \"PancakeRouter01.sol\":1240:1291  IPancakeFactory(factory).createPair(tokenA, tokenB) */\n      0x40\n      dup1\n      mload\n      shl(0xe1, 0x64e329cb)\n      dup2\n      mstore\n      sub(shl(0xa0, 0x01), 0x01)\n      dup11\n      dup2\n      and\n      0x04\n      dup4\n      add\n      mstore\n      dup10\n      dup2\n      and\n      0x24\n      dup4\n      add\n      mstore\n      swap2\n      mload\n        /* \"PancakeRouter01.sol\":1256:1263  factory */\n      immutable(\"0x5bcd163b2238ff85648d293e01a327b5c7f9ae69498a752a4883e839ddddafcb\")\n        /* \"PancakeRouter01.sol\":1240:1275  IPancakeFactory(factory).createPair */\n      swap1\n      swap3\n      and\n      swap2\n      0xc9c65396\n      swap2\n        /* \"PancakeRouter01.sol\":1240:1291  IPancakeFactory(factory).createPair(tokenA, tokenB) */\n      0x44\n      dup1\n      dup3\n      add\n      swap3\n      0x20\n      swap3\n      swap1\n      swap2\n      swap1\n      dup3\n      swap1\n      sub\n      add\n      dup2\n      0x00\n        /* \"PancakeRouter01.sol\":1240:1275  IPancakeFactory(factory).createPair */\n      dup8\n        /* \"PancakeRouter01.sol\":1240:1291  IPancakeFactory(factory).createPair(tokenA, tokenB) */\n      dup1\n      extcodesize\n      iszero\n        /* \"--CODEGEN--\":2:4   */\n      dup1\n      iszero\n      tag_473\n      jumpi\n        /* \"--CODEGEN--\":27:28   */\n      0x00\n        /* \"--CODEGEN--\":24:25   */\n      dup1\n        /* \"--CODEGEN--\":17:29   */\n      revert\n        /* \"--CODEGEN--\":2:4   */\n    tag_473:\n        /* \"PancakeRouter01.sol\":1240:1291  IPancakeFactory(factory).createPair(tokenA, tokenB) */\n      pop\n      gas\n      call\n      iszero\n        /* \"--CODEGEN--\":8:17   */\n      dup1\n        /* \"--CODEGEN--\":5:7   */\n      iszero\n      tag_475\n      jumpi\n        /* \"--CODEGEN--\":45:61   */\n      returndatasize\n        /* \"--CODEGEN--\":42:43   */\n      0x00\n        /* \"--CODEGEN--\":39:40   */\n      dup1\n        /* \"--CODEGEN--\":24:62   */\n      returndatacopy\n        /* \"--CODEGEN--\":77:93   */\n      returndatasize\n        /* \"--CODEGEN--\":74:75   */\n      0x00\n        /* \"--CODEGEN--\":67:94   */\n      revert\n        /* \"--CODEGEN--\":5:7   */\n    tag_475:\n        /* \"PancakeRouter01.sol\":1240:1291  IPancakeFactory(factory).createPair(tokenA, tokenB) */\n      pop\n      pop\n      pop\n      pop\n      mload(0x40)\n      returndatasize\n        /* \"--CODEGEN--\":15:17   */\n      0x20\n        /* \"--CODEGEN--\":10:13   */\n      dup2\n        /* \"--CODEGEN--\":7:18   */\n      lt\n        /* \"--CODEGEN--\":4:6   */\n      iszero\n      tag_476\n      jumpi\n        /* \"--CODEGEN--\":31:32   */\n      0x00\n        /* \"--CODEGEN--\":28:29   */\n      dup1\n        /* \"--CODEGEN--\":21:33   */\n      revert\n        /* \"--CODEGEN--\":4:6   */\n    tag_476:\n      pop\n      pop\n        /* \"PancakeRouter01.sol\":1158:1302  if (IPancakeFactory(factory).getPair(tokenA, tokenB) == address(0)) {... */\n    tag_472:\n        /* \"PancakeRouter01.sol\":1312:1325  uint reserveA */\n      0x00\n        /* \"PancakeRouter01.sol\":1327:1340  uint reserveB */\n      dup1\n        /* \"PancakeRouter01.sol\":1344:1395  PancakeLibrary.getReserves(factory, tokenA, tokenB) */\n      tag_477\n        /* \"PancakeRouter01.sol\":1371:1378  factory */\n      immutable(\"0x5bcd163b2238ff85648d293e01a327b5c7f9ae69498a752a4883e839ddddafcb\")\n        /* \"PancakeRouter01.sol\":1380:1386  tokenA */\n      dup12\n        /* \"PancakeRouter01.sol\":1388:1394  tokenB */\n      dup12\n        /* \"PancakeRouter01.sol\":1344:1370  PancakeLibrary.getReserves */\n      tag_400\n        /* \"PancakeRouter01.sol\":1344:1395  PancakeLibrary.getReserves(factory, tokenA, tokenB) */\n      jump\t// in\n    tag_477:\n        /* \"PancakeRouter01.sol\":1311:1395  (uint reserveA, uint reserveB) = PancakeLibrary.getReserves(factory, tokenA, tokenB) */\n      swap2\n      pop\n      swap2\n      pop\n        /* \"PancakeRouter01.sol\":1409:1417  reserveA */\n      dup2\n        /* \"PancakeRouter01.sol\":1421:1422  0 */\n      0x00\n        /* \"PancakeRouter01.sol\":1409:1422  reserveA == 0 */\n      eq\n        /* \"PancakeRouter01.sol\":1409:1439  reserveA == 0 && reserveB == 0 */\n      dup1\n      iszero\n      tag_478\n      jumpi\n      pop\n        /* \"PancakeRouter01.sol\":1426:1439  reserveB == 0 */\n      dup1\n      iszero\n        /* \"PancakeRouter01.sol\":1409:1439  reserveA == 0 && reserveB == 0 */\n    tag_478:\n        /* \"PancakeRouter01.sol\":1405:2201  if (reserveA == 0 && reserveB == 0) {... */\n      iszero\n      tag_479\n      jumpi\n        /* \"PancakeRouter01.sol\":1477:1491  amountADesired */\n      dup8\n      swap4\n      pop\n        /* \"PancakeRouter01.sol\":1493:1507  amountBDesired */\n      dup7\n      swap3\n      pop\n        /* \"PancakeRouter01.sol\":1405:2201  if (reserveA == 0 && reserveB == 0) {... */\n      jump(tag_480)\n    tag_479:\n        /* \"PancakeRouter01.sol\":1539:1558  uint amountBOptimal */\n      0x00\n        /* \"PancakeRouter01.sol\":1561:1617  PancakeLibrary.quote(amountADesired, reserveA, reserveB) */\n      tag_481\n        /* \"PancakeRouter01.sol\":1582:1596  amountADesired */\n      dup10\n        /* \"PancakeRouter01.sol\":1598:1606  reserveA */\n      dup5\n        /* \"PancakeRouter01.sol\":1608:1616  reserveB */\n      dup5\n        /* \"PancakeRouter01.sol\":1561:1581  PancakeLibrary.quote */\n      tag_270\n        /* \"PancakeRouter01.sol\":1561:1617  PancakeLibrary.quote(amountADesired, reserveA, reserveB) */\n      jump\t// in\n    tag_481:\n        /* \"PancakeRouter01.sol\":1539:1617  uint amountBOptimal = PancakeLibrary.quote(amountADesired, reserveA, reserveB) */\n      swap1\n      pop\n        /* \"PancakeRouter01.sol\":1653:1667  amountBDesired */\n      dup8\n        /* \"PancakeRouter01.sol\":1635:1649  amountBOptimal */\n      dup2\n        /* \"PancakeRouter01.sol\":1635:1667  amountBOptimal <= amountBDesired */\n      gt\n        /* \"PancakeRouter01.sol\":1631:2191  if (amountBOptimal <= amountBDesired) {... */\n      tag_482\n      jumpi\n        /* \"PancakeRouter01.sol\":1713:1723  amountBMin */\n      dup6\n        /* \"PancakeRouter01.sol\":1695:1709  amountBOptimal */\n      dup2\n        /* \"PancakeRouter01.sol\":1695:1723  amountBOptimal >= amountBMin */\n      lt\n      iszero\n        /* \"PancakeRouter01.sol\":1687:1764  require(amountBOptimal >= amountBMin, 'PancakeRouter: INSUFFICIENT_B_AMOUNT') */\n      tag_483\n      jumpi\n      mload(0x40)\n      shl(0xe5, 0x461bcd)\n      dup2\n      mstore\n      0x04\n      add\n      dup1\n      dup1\n      0x20\n      add\n      dup3\n      dup2\n      sub\n      dup3\n      mstore\n      0x24\n      dup2\n      mstore\n      0x20\n      add\n      dup1\n      data_f52a741502b5da50a5ea2d120670dbc8a41268419821689a668eee625b765bdd\n      0x24\n      swap2\n      codecopy\n      0x40\n      add\n      swap2\n      pop\n      pop\n      mload(0x40)\n      dup1\n      swap2\n      sub\n      swap1\n      revert\n    tag_483:\n        /* \"PancakeRouter01.sol\":1804:1818  amountADesired */\n      dup9\n      swap5\n      pop\n        /* \"PancakeRouter01.sol\":1820:1834  amountBOptimal */\n      swap3\n      pop\n      dup3\n        /* \"PancakeRouter01.sol\":1631:2191  if (amountBOptimal <= amountBDesired) {... */\n      jump(tag_484)\n    tag_482:\n        /* \"PancakeRouter01.sol\":1874:1893  uint amountAOptimal */\n      0x00\n        /* \"PancakeRouter01.sol\":1896:1952  PancakeLibrary.quote(amountBDesired, reserveB, reserveA) */\n      tag_485\n        /* \"PancakeRouter01.sol\":1917:1931  amountBDesired */\n      dup10\n        /* \"PancakeRouter01.sol\":1933:1941  reserveB */\n      dup5\n        /* \"PancakeRouter01.sol\":1943:1951  reserveA */\n      dup7\n        /* \"PancakeRouter01.sol\":1896:1916  PancakeLibrary.quote */\n      tag_270\n        /* \"PancakeRouter01.sol\":1896:1952  PancakeLibrary.quote(amountBDesired, reserveB, reserveA) */\n      jump\t// in\n    tag_485:\n        /* \"PancakeRouter01.sol\":1874:1952  uint amountAOptimal = PancakeLibrary.quote(amountBDesired, reserveB, reserveA) */\n      swap1\n      pop\n        /* \"PancakeRouter01.sol\":1995:2009  amountADesired */\n      dup10\n        /* \"PancakeRouter01.sol\":1977:1991  amountAOptimal */\n      dup2\n        /* \"PancakeRouter01.sol\":1977:2009  amountAOptimal <= amountADesired */\n      gt\n      iszero\n        /* \"PancakeRouter01.sol\":1970:2010  assert(amountAOptimal <= amountADesired) */\n      tag_486\n      jumpi\n      invalid\n    tag_486:\n        /* \"PancakeRouter01.sol\":2054:2064  amountAMin */\n      dup8\n        /* \"PancakeRouter01.sol\":2036:2050  amountAOptimal */\n      dup2\n        /* \"PancakeRouter01.sol\":2036:2064  amountAOptimal >= amountAMin */\n      lt\n      iszero\n        /* \"PancakeRouter01.sol\":2028:2105  require(amountAOptimal >= amountAMin, 'PancakeRouter: INSUFFICIENT_A_AMOUNT') */\n      tag_487\n      jumpi\n      mload(0x40)\n      shl(0xe5, 0x461bcd)\n      dup2\n      mstore\n      0x04\n      add\n      dup1\n      dup1\n      0x20\n      add\n      dup3\n      dup2\n      sub\n      dup3\n      mstore\n      0x24\n      dup2\n      mstore\n      0x20\n      add\n      dup1\n      data_9a6260423fdc88a337a0f9f8760b69a29bc94052bb07dc1cf319f59a04b7572b\n      0x24\n      swap2\n      codecopy\n      0x40\n      add\n      swap2\n      pop\n      pop\n      mload(0x40)\n      dup1\n      swap2\n      sub\n      swap1\n      revert\n    tag_487:\n        /* \"PancakeRouter01.sol\":2145:2159  amountAOptimal */\n      swap5\n      pop\n        /* \"PancakeRouter01.sol\":2161:2175  amountBDesired */\n      dup8\n      swap4\n      pop\n        /* \"PancakeRouter01.sol\":1631:2191  if (amountBOptimal <= amountBDesired) {... */\n    tag_484:\n        /* \"PancakeRouter01.sol\":1405:2201  if (reserveA == 0 && reserveB == 0) {... */\n      pop\n    tag_480:\n        /* \"PancakeRouter01.sol\":867:2207  function _addLiquidity(... */\n      pop\n      pop\n      swap7\n      pop\n      swap7\n      swap5\n      pop\n      pop\n      pop\n      pop\n      pop\n      jump\t// out\n        /* \"libraries/SafeMath.sol\":481:630  function mul(uint256 x, uint256 y) internal pure returns (uint256 z) {... */\n    tag_383:\n        /* \"libraries/SafeMath.sol\":539:548  uint256 z */\n      0x00\n        /* \"libraries/SafeMath.sol\":568:574  y == 0 */\n      dup2\n      iszero\n      dup1\n        /* \"libraries/SafeMath.sol\":568:598  y == 0 || (z = x * y) / y == x */\n      tag_489\n      jumpi\n      pop\n      pop\n        /* \"libraries/SafeMath.sol\":583:588  x * y */\n      dup1\n      dup3\n      mul\n        /* \"libraries/SafeMath.sol\":597:598  x */\n      dup3\n        /* \"libraries/SafeMath.sol\":592:593  y */\n      dup3\n        /* \"libraries/SafeMath.sol\":583:588  x * y */\n      dup3\n        /* \"libraries/SafeMath.sol\":592:593  y */\n      dup2\n        /* \"libraries/SafeMath.sol\":578:593  (z = x * y) / y */\n      tag_490\n      jumpi\n      invalid\n    tag_490:\n      div\n        /* \"libraries/SafeMath.sol\":578:598  (z = x * y) / y == x */\n      eq\n        /* \"libraries/SafeMath.sol\":568:598  y == 0 || (z = x * y) / y == x */\n    tag_489:\n        /* \"libraries/SafeMath.sol\":560:623  require(y == 0 || (z = x * y) / y == x, \"ds-math-mul-overflow\") */\n      tag_186\n      jumpi\n      0x40\n      dup1\n      mload\n      shl(0xe5, 0x461bcd)\n      dup2\n      mstore\n      0x20\n      0x04\n      dup3\n      add\n      mstore\n      0x14\n      0x24\n      dup3\n      add\n      mstore\n      shl(0x60, 0x64732d6d6174682d6d756c2d6f766572666c6f77)\n      0x44\n      dup3\n      add\n      mstore\n      swap1\n      mload\n      swap1\n      dup2\n      swap1\n      sub\n      0x64\n      add\n      swap1\n      revert\n        /* \"libraries/SafeMath.sol\":198:333  function add(uint256 x, uint256 y) internal pure returns (uint256 z) {... */\n    tag_387:\n        /* \"libraries/SafeMath.sol\":290:295  x + y */\n      dup1\n      dup3\n      add\n        /* \"libraries/SafeMath.sol\":285:301  (z = x + y) >= x */\n      dup3\n      dup2\n      lt\n      iszero\n        /* \"libraries/SafeMath.sol\":277:326  require((z = x + y) >= x, \"ds-math-add-overflow\") */\n      tag_186\n      jumpi\n      0x40\n      dup1\n      mload\n      shl(0xe5, 0x461bcd)\n      dup2\n      mstore\n      0x20\n      0x04\n      dup3\n      add\n      mstore\n      0x14\n      0x24\n      dup3\n      add\n      mstore\n      shl(0x60, 0x64732d6d6174682d6164642d6f766572666c6f77)\n      0x44\n      dup3\n      add\n      mstore\n      swap1\n      mload\n      swap1\n      dup2\n      swap1\n      sub\n      0x64\n      add\n      swap1\n      revert\n        /* \"libraries/PancakeLibrary.sol\":1453:1924  function getReserves(... */\n    tag_400:\n        /* \"libraries/PancakeLibrary.sol\":1576:1592  uint256 reserveA */\n      0x00\n        /* \"libraries/PancakeLibrary.sol\":1594:1610  uint256 reserveB */\n      dup1\n        /* \"libraries/PancakeLibrary.sol\":1623:1637  address token0 */\n      0x00\n        /* \"libraries/PancakeLibrary.sol\":1643:1669  sortTokens(tokenA, tokenB) */\n      tag_495\n        /* \"libraries/PancakeLibrary.sol\":1654:1660  tokenA */\n      dup6\n        /* \"libraries/PancakeLibrary.sol\":1662:1668  tokenB */\n      dup6\n        /* \"libraries/PancakeLibrary.sol\":1643:1653  sortTokens */\n      tag_284\n        /* \"libraries/PancakeLibrary.sol\":1643:1669  sortTokens(tokenA, tokenB) */\n      jump\t// in\n    tag_495:\n        /* \"libraries/PancakeLibrary.sol\":1622:1669  (address token0, ) = sortTokens(tokenA, tokenB) */\n      pop\n      swap1\n      pop\n        /* \"libraries/PancakeLibrary.sol\":1679:1711  pairFor(factory, tokenA, tokenB) */\n      tag_496\n        /* \"libraries/PancakeLibrary.sol\":1687:1694  factory */\n      dup7\n        /* \"libraries/PancakeLibrary.sol\":1696:1702  tokenA */\n      dup7\n        /* \"libraries/PancakeLibrary.sol\":1704:1710  tokenB */\n      dup7\n        /* \"libraries/PancakeLibrary.sol\":1679:1686  pairFor */\n      tag_175\n        /* \"libraries/PancakeLibrary.sol\":1679:1711  pairFor(factory, tokenA, tokenB) */\n      jump\t// in\n    tag_496:\n      pop\n        /* \"libraries/PancakeLibrary.sol\":1722:1738  uint256 reserve0 */\n      0x00\n        /* \"libraries/PancakeLibrary.sol\":1740:1756  uint256 reserve1 */\n      dup1\n        /* \"libraries/PancakeLibrary.sol\":1775:1807  pairFor(factory, tokenA, tokenB) */\n      tag_497\n        /* \"libraries/PancakeLibrary.sol\":1783:1790  factory */\n      dup9\n        /* \"libraries/PancakeLibrary.sol\":1792:1798  tokenA */\n      dup9\n        /* \"libraries/PancakeLibrary.sol\":1800:1806  tokenB */\n      dup9\n        /* \"libraries/PancakeLibrary.sol\":1775:1782  pairFor */\n      tag_175\n        /* \"libraries/PancakeLibrary.sol\":1775:1807  pairFor(factory, tokenA, tokenB) */\n      jump\t// in\n    tag_497:\n      sub(shl(0xa0, 0x01), 0x01)\n        /* \"libraries/PancakeLibrary.sol\":1762:1820  IPancakePair(pairFor(factory, tokenA, tokenB)).getReserves */\n      and\n      0x0902f1ac\n        /* \"libraries/PancakeLibrary.sol\":1762:1822  IPancakePair(pairFor(factory, tokenA, tokenB)).getReserves() */\n      mload(0x40)\n      dup2\n      0xffffffff\n      and\n      0xe0\n      shl\n      dup2\n      mstore\n      0x04\n      add\n      0x60\n      mload(0x40)\n      dup1\n      dup4\n      sub\n      dup2\n      dup7\n      dup1\n      extcodesize\n      iszero\n        /* \"--CODEGEN--\":5:14   */\n      dup1\n        /* \"--CODEGEN--\":2:4   */\n      iszero\n      tag_498\n      jumpi\n        /* \"--CODEGEN--\":27:28   */\n      0x00\n        /* \"--CODEGEN--\":24:25   */\n      dup1\n        /* \"--CODEGEN--\":17:29   */\n      revert\n        /* \"--CODEGEN--\":2:4   */\n    tag_498:\n        /* \"libraries/PancakeLibrary.sol\":1762:1822  IPancakePair(pairFor(factory, tokenA, tokenB)).getReserves() */\n      pop\n      gas\n      staticcall\n      iszero\n        /* \"--CODEGEN--\":8:17   */\n      dup1\n        /* \"--CODEGEN--\":5:7   */\n      iszero\n      tag_500\n      jumpi\n        /* \"--CODEGEN--\":45:61   */\n      returndatasize\n        /* \"--CODEGEN--\":42:43   */\n      0x00\n        /* \"--CODEGEN--\":39:40   */\n      dup1\n        /* \"--CODEGEN--\":24:62   */\n      returndatacopy\n        /* \"--CODEGEN--\":77:93   */\n      returndatasize\n        /* \"--CODEGEN--\":74:75   */\n      0x00\n        /* \"--CODEGEN--\":67:94   */\n      revert\n        /* \"--CODEGEN--\":5:7   */\n    tag_500:\n        /* \"libraries/PancakeLibrary.sol\":1762:1822  IPancakePair(pairFor(factory, tokenA, tokenB)).getReserves() */\n      pop\n      pop\n      pop\n      pop\n      mload(0x40)\n      returndatasize\n        /* \"--CODEGEN--\":15:17   */\n      0x60\n        /* \"--CODEGEN--\":10:13   */\n      dup2\n        /* \"--CODEGEN--\":7:18   */\n      lt\n        /* \"--CODEGEN--\":4:6   */\n      iszero\n      tag_501\n      jumpi\n        /* \"--CODEGEN--\":31:32   */\n      0x00\n        /* \"--CODEGEN--\":28:29   */\n      dup1\n        /* \"--CODEGEN--\":21:33   */\n      revert\n        /* \"--CODEGEN--\":4:6   */\n    tag_501:\n      pop\n        /* \"libraries/PancakeLibrary.sol\":1762:1822  IPancakePair(pairFor(factory, tokenA, tokenB)).getReserves() */\n      dup1\n      mload\n      0x20\n      swap1\n      swap2\n      add\n      mload\n        /* \"libraries/PancakeLibrary.sol\":1721:1822  (uint256 reserve0, uint256 reserve1, ) = IPancakePair(pairFor(factory, tokenA, tokenB)).getReserves() */\n      0xffffffffffffffffffffffffffff\n      swap2\n      dup3\n      and\n      swap4\n      pop\n      and\n      swap1\n      pop\n      sub(shl(0xa0, 0x01), 0x01)\n        /* \"libraries/PancakeLibrary.sol\":1855:1871  tokenA == token0 */\n      dup8\n      dup2\n      and\n      swap1\n      dup5\n      and\n      eq\n        /* \"libraries/PancakeLibrary.sol\":1855:1917  tokenA == token0 ? (reserve0, reserve1) : (reserve1, reserve0) */\n      tag_502\n      jumpi\n        /* \"libraries/PancakeLibrary.sol\":1898:1906  reserve1 */\n      dup1\n        /* \"libraries/PancakeLibrary.sol\":1908:1916  reserve0 */\n      dup3\n        /* \"libraries/PancakeLibrary.sol\":1855:1917  tokenA == token0 ? (reserve0, reserve1) : (reserve1, reserve0) */\n      jump(tag_503)\n    tag_502:\n        /* \"libraries/PancakeLibrary.sol\":1875:1883  reserve0 */\n      dup2\n        /* \"libraries/PancakeLibrary.sol\":1885:1893  reserve1 */\n      dup2\n        /* \"libraries/PancakeLibrary.sol\":1855:1917  tokenA == token0 ? (reserve0, reserve1) : (reserve1, reserve0) */\n    tag_503:\n        /* \"libraries/PancakeLibrary.sol\":1832:1917  (reserveA, reserveB) = tokenA == token0 ? (reserve0, reserve1) : (reserve1, reserve0) */\n      swap1\n      swap10\n      swap1\n      swap9\n      pop\n        /* \"libraries/PancakeLibrary.sol\":1453:1924  function getReserves(... */\n      swap7\n      pop\n      pop\n      pop\n      pop\n      pop\n      pop\n      pop\n      jump\t// out\n        /* \"libraries/PancakeLibrary.sol\":3185:3697  function getAmountIn(... */\n    tag_454:\n        /* \"libraries/PancakeLibrary.sol\":3317:3333  uint256 amountIn */\n      0x00\n        /* \"libraries/PancakeLibrary.sol\":3365:3366  0 */\n      dup1\n        /* \"libraries/PancakeLibrary.sol\":3353:3362  amountOut */\n      dup5\n        /* \"libraries/PancakeLibrary.sol\":3353:3366  amountOut > 0 */\n      gt\n        /* \"libraries/PancakeLibrary.sol\":3345:3413  require(amountOut > 0, \"PancakeLibrary: INSUFFICIENT_OUTPUT_AMOUNT\") */\n      tag_505\n      jumpi\n      mload(0x40)\n      shl(0xe5, 0x461bcd)\n      dup2\n      mstore\n      0x04\n      add\n      dup1\n      dup1\n      0x20\n      add\n      dup3\n      dup2\n      sub\n      dup3\n      mstore\n      0x2a\n      dup2\n      mstore\n      0x20\n      add\n      dup1\n      data_2efdc80403d7563fa9c531179ffb4e51423c3b868e9d6d530533fd423943394a\n      0x2a\n      swap2\n      codecopy\n      0x40\n      add\n      swap2\n      pop\n      pop\n      mload(0x40)\n      dup1\n      swap2\n      sub\n      swap1\n      revert\n    tag_505:\n        /* \"libraries/PancakeLibrary.sol\":3443:3444  0 */\n      0x00\n        /* \"libraries/PancakeLibrary.sol\":3431:3440  reserveIn */\n      dup4\n        /* \"libraries/PancakeLibrary.sol\":3431:3444  reserveIn > 0 */\n      gt\n        /* \"libraries/PancakeLibrary.sol\":3431:3462  reserveIn > 0 && reserveOut > 0 */\n      dup1\n      iszero\n      tag_506\n      jumpi\n      pop\n        /* \"libraries/PancakeLibrary.sol\":3461:3462  0 */\n      0x00\n        /* \"libraries/PancakeLibrary.sol\":3448:3458  reserveOut */\n      dup3\n        /* \"libraries/PancakeLibrary.sol\":3448:3462  reserveOut > 0 */\n      gt\n        /* \"libraries/PancakeLibrary.sol\":3431:3462  reserveIn > 0 && reserveOut > 0 */\n    tag_506:\n        /* \"libraries/PancakeLibrary.sol\":3423:3505  require(reserveIn > 0 && reserveOut > 0, \"PancakeLibrary: INSUFFICIENT_LIQUIDITY\") */\n      tag_507\n      jumpi\n      mload(0x40)\n      shl(0xe5, 0x461bcd)\n      dup2\n      mstore\n      0x04\n      add\n      dup1\n      dup1\n      0x20\n      add\n      dup3\n      dup2\n      sub\n      dup3\n      mstore\n      0x26\n      dup2\n      mstore\n      0x20\n      add\n      dup1\n      data_e7f79b6b909ed2023c6e79d88a862542f92041db19a71970a37e18b3fc8ff469\n      0x26\n      swap2\n      codecopy\n      0x40\n      add\n      swap2\n      pop\n      pop\n      mload(0x40)\n      dup1\n      swap2\n      sub\n      swap1\n      revert\n    tag_507:\n        /* \"libraries/PancakeLibrary.sol\":3515:3532  uint256 numerator */\n      0x00\n        /* \"libraries/PancakeLibrary.sol\":3535:3570  reserveIn.mul(amountOut).mul(10000) */\n      tag_508\n        /* \"libraries/PancakeLibrary.sol\":3564:3569  10000 */\n      0x2710\n        /* \"libraries/PancakeLibrary.sol\":3535:3559  reserveIn.mul(amountOut) */\n      tag_509\n        /* \"libraries/PancakeLibrary.sol\":3535:3544  reserveIn */\n      dup7\n        /* \"libraries/PancakeLibrary.sol\":3549:3558  amountOut */\n      dup9\n        /* \"libraries/PancakeLibrary.sol\":3535:3559  reserveIn.mul(amountOut) */\n      0xffffffff\n        /* \"libraries/PancakeLibrary.sol\":3535:3548  reserveIn.mul */\n      tag_383\n        /* \"libraries/PancakeLibrary.sol\":3535:3559  reserveIn.mul(amountOut) */\n      and\n      jump\t// in\n    tag_509:\n        /* \"libraries/PancakeLibrary.sol\":3535:3563  reserveIn.mul(amountOut).mul */\n      swap1\n        /* \"libraries/PancakeLibrary.sol\":3535:3570  reserveIn.mul(amountOut).mul(10000) */\n      0xffffffff\n        /* \"libraries/PancakeLibrary.sol\":3535:3563  reserveIn.mul(amountOut).mul */\n      tag_383\n        /* \"libraries/PancakeLibrary.sol\":3535:3570  reserveIn.mul(amountOut).mul(10000) */\n      and\n      jump\t// in\n    tag_508:\n        /* \"libraries/PancakeLibrary.sol\":3515:3570  uint256 numerator = reserveIn.mul(amountOut).mul(10000) */\n      swap1\n      pop\n        /* \"libraries/PancakeLibrary.sol\":3580:3599  uint256 denominator */\n      0x00\n        /* \"libraries/PancakeLibrary.sol\":3602:3637  reserveOut.sub(amountOut).mul(9975) */\n      tag_510\n        /* \"libraries/PancakeLibrary.sol\":3632:3636  9975 */\n      0x26f7\n        /* \"libraries/PancakeLibrary.sol\":3602:3627  reserveOut.sub(amountOut) */\n      tag_509\n        /* \"libraries/PancakeLibrary.sol\":3602:3612  reserveOut */\n      dup7\n        /* \"libraries/PancakeLibrary.sol\":3617:3626  amountOut */\n      dup10\n        /* \"libraries/PancakeLibrary.sol\":3602:3627  reserveOut.sub(amountOut) */\n      0xffffffff\n        /* \"libraries/PancakeLibrary.sol\":3602:3616  reserveOut.sub */\n      tag_512\n        /* \"libraries/PancakeLibrary.sol\":3602:3627  reserveOut.sub(amountOut) */\n      and\n      jump\t// in\n        /* \"libraries/PancakeLibrary.sol\":3602:3637  reserveOut.sub(amountOut).mul(9975) */\n    tag_510:\n        /* \"libraries/PancakeLibrary.sol\":3580:3637  uint256 denominator = reserveOut.sub(amountOut).mul(9975) */\n      swap1\n      pop\n        /* \"libraries/PancakeLibrary.sol\":3658:3690  (numerator / denominator).add(1) */\n      tag_513\n        /* \"libraries/PancakeLibrary.sol\":3688:3689  1 */\n      0x01\n        /* \"libraries/PancakeLibrary.sol\":3671:3682  denominator */\n      dup3\n        /* \"libraries/PancakeLibrary.sol\":3659:3668  numerator */\n      dup5\n        /* \"libraries/PancakeLibrary.sol\":3659:3682  numerator / denominator */\n      dup2\n      tag_514\n      jumpi\n      invalid\n    tag_514:\n      div\n      swap1\n        /* \"libraries/PancakeLibrary.sol\":3658:3690  (numerator / denominator).add(1) */\n      0xffffffff\n        /* \"libraries/PancakeLibrary.sol\":3658:3687  (numerator / denominator).add */\n      tag_387\n        /* \"libraries/PancakeLibrary.sol\":3658:3690  (numerator / denominator).add(1) */\n      and\n      jump\t// in\n    tag_513:\n        /* \"libraries/PancakeLibrary.sol\":3647:3690  amountIn = (numerator / denominator).add(1) */\n      swap7\n        /* \"libraries/PancakeLibrary.sol\":3185:3697  function getAmountIn(... */\n      swap6\n      pop\n      pop\n      pop\n      pop\n      pop\n      pop\n      jump\t// out\n        /* \"libraries/SafeMath.sol\":339:475  function sub(uint256 x, uint256 y) internal pure returns (uint256 z) {... */\n    tag_512:\n        /* \"libraries/SafeMath.sol\":431:436  x - y */\n      dup1\n      dup3\n      sub\n        /* \"libraries/SafeMath.sol\":426:442  (z = x - y) <= x */\n      dup3\n      dup2\n      gt\n      iszero\n        /* \"libraries/SafeMath.sol\":418:468  require((z = x - y) <= x, \"ds-math-sub-underflow\") */\n      tag_186\n      jumpi\n      0x40\n      dup1\n      mload\n      shl(0xe5, 0x461bcd)\n      dup2\n      mstore\n      0x20\n      0x04\n      dup3\n      add\n      mstore\n      0x15\n      0x24\n      dup3\n      add\n      mstore\n      shl(0x58, 0x64732d6d6174682d7375622d756e646572666c6f77)\n      0x44\n      dup3\n      add\n      mstore\n      swap1\n      mload\n      swap1\n      dup2\n      swap1\n      sub\n      0x64\n      add\n      swap1\n      revert\n    stop\n    data_14085ca7574f8785a82278031a3e9bccdeb82648f2bdc61f16978097f27af39a 50616e63616b654c6962726172793a20494e53554646494349454e545f494e5055545f414d4f554e54\n    data_2efdc80403d7563fa9c531179ffb4e51423c3b868e9d6d530533fd423943394a 50616e63616b654c6962726172793a20494e53554646494349454e545f4f55545055545f414d4f554e54\n    data_3f8faf98afe9344b6d4b0e75b0101259bf282914b3b5a9320c6918b6e27ede1c 5472616e7366657248656c7065723a3a7472616e7366657246726f6d3a207472616e7366657246726f6d206661696c6564\n    data_43d7bec223ecf9eb06ea147e7d564bc71c2448662d62a4ea86ce71fc4518b350 5472616e7366657248656c7065723a3a736166655472616e736665724554483a20455448207472616e73666572206661696c6564\n    data_48da24abbb1fac1ad424fc0d0ddda728b5e193f1888a852641dc2d17535faffb 50616e63616b65526f757465723a204558504952454400000000000000000000\n    data_67a78505585fe709b19736b06d36a1ecdc512f90bed7fd0663a91a07a227deb4 50616e63616b65526f757465723a20494e53554646494349454e545f4f55545055545f414d4f554e54\n    data_78572e429854b935d2f9b71fcd53b224e50c6518aa14fc5fcf53684f76e4ff60 50616e63616b654c6962726172793a204944454e544943414c5f414444524553534553\n    data_82928200364a85809bf4a0b91c6d2eba6bdb5bd92df2e22eb8eef03222c3f531 50616e63616b65526f757465723a20494e56414c49445f504154480000000000\n    data_9a6260423fdc88a337a0f9f8760b69a29bc94052bb07dc1cf319f59a04b7572b 50616e63616b65526f757465723a20494e53554646494349454e545f415f414d4f554e54\n    data_c2436cd9fe392e9d92ea64ccc2d35ff51167714e653294bf2e45cb6e82b00db9 50616e63616b654c6962726172793a20494e53554646494349454e545f414d4f554e54\n    data_daea69421eeb1164e163c36f3d4349f0db3ec4e0d1381bd5bf4faf53496c2611 5472616e7366657248656c7065723a3a736166655472616e736665723a207472616e73666572206661696c6564\n    data_e6ebac85a9dcf9d43d23a00e3f0314a74ac256fe09f8252fc03ff2284a4761ee 50616e63616b65526f757465723a204558434553534956455f494e5055545f414d4f554e54\n    data_e7f79b6b909ed2023c6e79d88a862542f92041db19a71970a37e18b3fc8ff469 50616e63616b654c6962726172793a20494e53554646494349454e545f4c4951554944495459\n    data_f52a741502b5da50a5ea2d120670dbc8a41268419821689a668eee625b765bdd 50616e63616b65526f757465723a20494e53554646494349454e545f425f414d4f554e54\n\n    auxdata: 0xa26469706673582212206f264e6e53773718687916441ecce2c017614c03e209530385dbd50ca3eba1b564736f6c63430006060033\n}\n",
				"bytecode": {
					"linkReferences": {},
					"object": "60c060405234801561001057600080fd5b506040516136433803806136438339818101604052604081101561003357600080fd5b5080516020909101516001600160601b0319606092831b8116608052911b1660a05260805160601c60a05160601c61350761013c600039806101285280610a015280610a3c5280610b335280610d5152806110db528061125f52806113a5528061142d528061168252806119725280611be55280611c3b5280611c6f5280611ce35280611e835280611fc6528061204e525080610bc15280610c985280610e175280610e505280610f8b528061116952806112f2528061145f52806115d252806116ff52806118f7528061192052806119505280611abd5280611c195280611f165280612080528061291152806129545280612d9b5280612e495280612ec952506135076000f3fe6080604052600436106101185760003560e01c80638803dbee116100a0578063d06ca61f11610064578063d06ca61f14610742578063ded9382a146107f7578063e8e337001461086a578063f305d719146108ea578063fb3bdb411461093057610151565b80638803dbee146105d3578063ad5c464814610669578063ad615dec1461069a578063baa2abde146106d0578063c45a01551461072d57610151565b80632195995c116100e75780632195995c146103a557806338ed1739146104235780634a25d94a146104b95780637ff36ab51461054f57806385f8c259146101c257610151565b806302751cec14610156578063054d50d4146101c257806318cbafe51461020a5780631f00ca74146102f057610151565b3661015157336001600160a01b037f0000000000000000000000000000000000000000000000000000000000000000161461014f57fe5b005b600080fd5b34801561016257600080fd5b506101a9600480360360c081101561017957600080fd5b506001600160a01b0381358116916020810135916040820135916060810135916080820135169060a001356109b4565b6040805192835260208301919091528051918290030190f35b3480156101ce57600080fd5b506101f8600480360360608110156101e557600080fd5b5080359060208101359060400135610ace565b60408051918252519081900360200190f35b34801561021657600080fd5b506102a0600480360360a081101561022d57600080fd5b813591602081013591810190606081016040820135600160201b81111561025357600080fd5b82018360208201111561026557600080fd5b803590602001918460208302840111600160201b8311171561028657600080fd5b91935091506001600160a01b038135169060200135610ae3565b60408051602080825283518183015283519192839290830191858101910280838360005b838110156102dc5781810151838201526020016102c4565b505050509050019250505060405180910390f35b3480156102fc57600080fd5b506102a06004803603604081101561031357600080fd5b81359190810190604081016020820135600160201b81111561033457600080fd5b82018360208201111561034657600080fd5b803590602001918460208302840111600160201b8311171561036757600080fd5b919080806020026020016040519081016040528093929190818152602001838360200280828437600092019190915250929550610e10945050505050565b3480156103b157600080fd5b506101a960048036036101608110156103c957600080fd5b506001600160a01b038135811691602081013582169160408201359160608101359160808201359160a08101359091169060c08101359060e081013515159060ff6101008201351690610120810135906101400135610e46565b34801561042f57600080fd5b506102a0600480360360a081101561044657600080fd5b813591602081013591810190606081016040820135600160201b81111561046c57600080fd5b82018360208201111561047e57600080fd5b803590602001918460208302840111600160201b8311171561049f57600080fd5b91935091506001600160a01b038135169060200135610f40565b3480156104c557600080fd5b506102a0600480360360a08110156104dc57600080fd5b813591602081013591810190606081016040820135600160201b81111561050257600080fd5b82018360208201111561051457600080fd5b803590602001918460208302840111600160201b8311171561053557600080fd5b91935091506001600160a01b03813516906020013561108b565b6102a06004803603608081101561056557600080fd5b81359190810190604081016020820135600160201b81111561058657600080fd5b82018360208201111561059857600080fd5b803590602001918460208302840111600160201b831117156105b957600080fd5b91935091506001600160a01b038135169060200135611217565b3480156105df57600080fd5b506102a0600480360360a08110156105f657600080fd5b813591602081013591810190606081016040820135600160201b81111561061c57600080fd5b82018360208201111561062e57600080fd5b803590602001918460208302840111600160201b8311171561064f57600080fd5b91935091506001600160a01b038135169060200135611587565b34801561067557600080fd5b5061067e611680565b604080516001600160a01b039092168252519081900360200190f35b3480156106a657600080fd5b506101f8600480360360608110156106bd57600080fd5b50803590602081013590604001356116a4565b3480156106dc57600080fd5b506101a9600480360360e08110156106f357600080fd5b506001600160a01b038135811691602081013582169160408201359160608101359160808201359160a08101359091169060c001356116b1565b34801561073957600080fd5b5061067e6118f5565b34801561074e57600080fd5b506102a06004803603604081101561076557600080fd5b81359190810190604081016020820135600160201b81111561078657600080fd5b82018360208201111561079857600080fd5b803590602001918460208302840111600160201b831117156107b957600080fd5b919080806020026020016040519081016040528093929190818152602001838360200280828437600092019190915250929550611919945050505050565b34801561080357600080fd5b506101a9600480360361014081101561081b57600080fd5b506001600160a01b0381358116916020810135916040820135916060810135916080820135169060a08101359060c081013515159060ff60e08201351690610100810135906101200135611946565b34801561087657600080fd5b506108cc600480360361010081101561088e57600080fd5b506001600160a01b038135811691602081013582169160408201359160608101359160808201359160a08101359160c0820135169060e00135611a5a565b60408051938452602084019290925282820152519081900360600190f35b6108cc600480360360c081101561090057600080fd5b506001600160a01b0381358116916020810135916040820135916060810135916080820135169060a00135611b96565b6102a06004803603608081101561094657600080fd5b81359190810190604081016020820135600160201b81111561096757600080fd5b82018360208201111561097957600080fd5b803590602001918460208302840111600160201b8311171561099a57600080fd5b91935091506001600160a01b038135169060200135611e3b565b60008082428110156109fb576040805162461bcd60e51b81526020600482015260166024820152600080516020613363833981519152604482015290519081900360640190fd5b610a2a897f00000000000000000000000000000000000000000000000000000000000000008a8a8a308a6116b1565b9093509150610a3a8986856121bd565b7f00000000000000000000000000000000000000000000000000000000000000006001600160a01b0316632e1a7d4d836040518263ffffffff1660e01b815260040180828152602001915050600060405180830381600087803b158015610aa057600080fd5b505af1158015610ab4573d6000803e3d6000fd5b50505050610ac28583612311565b50965096945050505050565b6000610adb848484612409565b949350505050565b60608142811015610b29576040805162461bcd60e51b81526020600482015260166024820152600080516020613363833981519152604482015290519081900360640190fd5b6001600160a01b037f00000000000000000000000000000000000000000000000000000000000000001686866000198101818110610b6357fe5b905060200201356001600160a01b03166001600160a01b031614610bbc576040805162461bcd60e51b815260206004820152601b60248201526000805160206133cf833981519152604482015290519081900360640190fd5b610c1a7f0000000000000000000000000000000000000000000000000000000000000000898888808060200260200160405190810160405280939291908181526020018383602002808284376000920191909152506124f992505050565b91508682600184510381518110610c2d57fe5b60200260200101511015610c725760405162461bcd60e51b81526004018080602001828103825260298152602001806133836029913960400191505060405180910390fd5b610d1086866000818110610c8257fe5b905060200201356001600160a01b031633610cf67f00000000000000000000000000000000000000000000000000000000000000008a8a6000818110610cc457fe5b905060200201356001600160a01b03168b8b6001818110610ce157fe5b905060200201356001600160a01b0316612645565b85600081518110610d0357fe5b6020026020010151612705565b610d4f82878780806020026020016040519081016040528093929190818152602001838360200280828437600092019190915250309250612862915050565b7f00000000000000000000000000000000000000000000000000000000000000006001600160a01b0316632e1a7d4d83600185510381518110610d8e57fe5b60200260200101516040518263ffffffff1660e01b815260040180828152602001915050600060405180830381600087803b158015610dcc57600080fd5b505af1158015610de0573d6000803e3d6000fd5b50505050610e058483600185510381518110610df857fe5b6020026020010151612311565b509695505050505050565b6060610e3d7f00000000000000000000000000000000000000000000000000000000000000008484612aa8565b90505b92915050565b6000806000610e767f00000000000000000000000000000000000000000000000000000000000000008f8f612645565b9050600087610e85578c610e89565b6000195b6040805163d505accf60e01b815233600482015230602482015260448101839052606481018c905260ff8a16608482015260a4810189905260c4810188905290519192506001600160a01b0384169163d505accf9160e48082019260009290919082900301818387803b158015610eff57600080fd5b505af1158015610f13573d6000803e3d6000fd5b50505050610f268f8f8f8f8f8f8f6116b1565b809450819550505050509b509b9950505050505050505050565b60608142811015610f86576040805162461bcd60e51b81526020600482015260166024820152600080516020613363833981519152604482015290519081900360640190fd5b610fe47f0000000000000000000000000000000000000000000000000000000000000000898888808060200260200160405190810160405280939291908181526020018383602002808284376000920191909152506124f992505050565b91508682600184510381518110610ff757fe5b6020026020010151101561103c5760405162461bcd60e51b81526004018080602001828103825260298152602001806133836029913960400191505060405180910390fd5b61104c86866000818110610c8257fe5b610e0582878780806020026020016040519081016040528093929190818152602001838360200280828437600092019190915250899250612862915050565b606081428110156110d1576040805162461bcd60e51b81526020600482015260166024820152600080516020613363833981519152604482015290519081900360640190fd5b6001600160a01b037f0000000000000000000000000000000000000000000000000000000000000000168686600019810181811061110b57fe5b905060200201356001600160a01b03166001600160a01b031614611164576040805162461bcd60e51b815260206004820152601b60248201526000805160206133cf833981519152604482015290519081900360640190fd5b6111c27f000000000000000000000000000000000000000000000000000000000000000089888880806020026020016040519081016040528093929190818152602001838360200280828437600092019190915250612aa892505050565b915086826000815181106111d257fe5b60200260200101511115610c725760405162461bcd60e51b81526004018080602001828103825260258152602001806134636025913960400191505060405180910390fd5b6060814281101561125d576040805162461bcd60e51b81526020600482015260166024820152600080516020613363833981519152604482015290519081900360640190fd5b7f00000000000000000000000000000000000000000000000000000000000000006001600160a01b03168686600081811061129457fe5b905060200201356001600160a01b03166001600160a01b0316146112ed576040805162461bcd60e51b815260206004820152601b60248201526000805160206133cf833981519152604482015290519081900360640190fd5b61134b7f0000000000000000000000000000000000000000000000000000000000000000348888808060200260200160405190810160405280939291908181526020018383602002808284376000920191909152506124f992505050565b9150868260018451038151811061135e57fe5b602002602001015110156113a35760405162461bcd60e51b81526004018080602001828103825260298152602001806133836029913960400191505060405180910390fd5b7f00000000000000000000000000000000000000000000000000000000000000006001600160a01b031663d0e30db0836000815181106113df57fe5b60200260200101516040518263ffffffff1660e01b81526004016000604051808303818588803b15801561141257600080fd5b505af1158015611426573d6000803e3d6000fd5b50505050507f00000000000000000000000000000000000000000000000000000000000000006001600160a01b031663a9059cbb6114a87f00000000000000000000000000000000000000000000000000000000000000008989600081811061148b57fe5b905060200201356001600160a01b03168a8a6001818110610ce157fe5b846000815181106114b557fe5b60200260200101516040518363ffffffff1660e01b815260040180836001600160a01b03166001600160a01b0316815260200182815260200192505050602060405180830381600087803b15801561150c57600080fd5b505af1158015611520573d6000803e3d6000fd5b505050506040513d602081101561153657600080fd5b505161153e57fe5b61157d82878780806020026020016040519081016040528093929190818152602001838360200280828437600092019190915250899250612862915050565b5095945050505050565b606081428110156115cd576040805162461bcd60e51b81526020600482015260166024820152600080516020613363833981519152604482015290519081900360640190fd5b61162b7f000000000000000000000000000000000000000000000000000000000000000089888880806020026020016040519081016040528093929190818152602001838360200280828437600092019190915250612aa892505050565b9150868260008151811061163b57fe5b6020026020010151111561103c5760405162461bcd60e51b81526004018080602001828103825260258152602001806134636025913960400191505060405180910390fd5b7f000000000000000000000000000000000000000000000000000000000000000081565b6000610adb848484612be0565b60008082428110156116f8576040805162461bcd60e51b81526020600482015260166024820152600080516020613363833981519152604482015290519081900360640190fd5b60006117257f00000000000000000000000000000000000000000000000000000000000000008c8c612645565b604080516323b872dd60e01b81523360048201526001600160a01b03831660248201819052604482018d9052915192935090916323b872dd916064808201926020929091908290030181600087803b15801561178057600080fd5b505af1158015611794573d6000803e3d6000fd5b505050506040513d60208110156117aa57600080fd5b50506040805163226bf2d160e21b81526001600160a01b03888116600483015282516000938493928616926389afcb44926024808301939282900301818787803b1580156117f757600080fd5b505af115801561180b573d6000803e3d6000fd5b505050506040513d604081101561182157600080fd5b5080516020909101519092509050600061183b8e8e612c8c565b509050806001600160a01b03168e6001600160a01b03161461185e578183611861565b82825b90975095508a8710156118a55760405162461bcd60e51b81526004018080602001828103825260248152602001806133ef6024913960400191505060405180910390fd5b898610156118e45760405162461bcd60e51b81526004018080602001828103825260248152602001806134ae6024913960400191505060405180910390fd5b505050505097509795505050505050565b7f000000000000000000000000000000000000000000000000000000000000000081565b6060610e3d7f000000000000000000000000000000000000000000000000000000000000000084846124f9565b60008060006119967f00000000000000000000000000000000000000000000000000000000000000008e7f0000000000000000000000000000000000000000000000000000000000000000612645565b90506000876119a5578c6119a9565b6000195b6040805163d505accf60e01b815233600482015230602482015260448101839052606481018c905260ff8a16608482015260a4810189905260c4810188905290519192506001600160a01b0384169163d505accf9160e48082019260009290919082900301818387803b158015611a1f57600080fd5b505af1158015611a33573d6000803e3d6000fd5b50505050611a458e8e8e8e8e8e6109b4565b909f909e509c50505050505050505050505050565b60008060008342811015611aa3576040805162461bcd60e51b81526020600482015260166024820152600080516020613363833981519152604482015290519081900360640190fd5b611ab18c8c8c8c8c8c612d6a565b90945092506000611ae37f00000000000000000000000000000000000000000000000000000000000000008e8e612645565b9050611af18d338388612705565b611afd8c338387612705565b806001600160a01b0316636a627842886040518263ffffffff1660e01b815260040180826001600160a01b03166001600160a01b03168152602001915050602060405180830381600087803b158015611b5557600080fd5b505af1158015611b69573d6000803e3d6000fd5b505050506040513d6020811015611b7f57600080fd5b5051949d939c50939a509198505050505050505050565b60008060008342811015611bdf576040805162461bcd60e51b81526020600482015260166024820152600080516020613363833981519152604482015290519081900360640190fd5b611c0d8a7f00000000000000000000000000000000000000000000000000000000000000008b348c8c612d6a565b90945092506000611c5f7f00000000000000000000000000000000000000000000000000000000000000008c7f0000000000000000000000000000000000000000000000000000000000000000612645565b9050611c6d8b338388612705565b7f00000000000000000000000000000000000000000000000000000000000000006001600160a01b031663d0e30db0856040518263ffffffff1660e01b81526004016000604051808303818588803b158015611cc857600080fd5b505af1158015611cdc573d6000803e3d6000fd5b50505050507f00000000000000000000000000000000000000000000000000000000000000006001600160a01b031663a9059cbb82866040518363ffffffff1660e01b815260040180836001600160a01b03166001600160a01b0316815260200182815260200192505050602060405180830381600087803b158015611d6157600080fd5b505af1158015611d75573d6000803e3d6000fd5b505050506040513d6020811015611d8b57600080fd5b5051611d9357fe5b806001600160a01b0316636a627842886040518263ffffffff1660e01b815260040180826001600160a01b03166001600160a01b03168152602001915050602060405180830381600087803b158015611deb57600080fd5b505af1158015611dff573d6000803e3d6000fd5b505050506040513d6020811015611e1557600080fd5b5051925034841015611e2d57611e2d33853403612311565b505096509650969350505050565b60608142811015611e81576040805162461bcd60e51b81526020600482015260166024820152600080516020613363833981519152604482015290519081900360640190fd5b7f00000000000000000000000000000000000000000000000000000000000000006001600160a01b031686866000818110611eb857fe5b905060200201356001600160a01b03166001600160a01b031614611f11576040805162461bcd60e51b815260206004820152601b60248201526000805160206133cf833981519152604482015290519081900360640190fd5b611f6f7f000000000000000000000000000000000000000000000000000000000000000088888880806020026020016040519081016040528093929190818152602001838360200280828437600092019190915250612aa892505050565b91503482600081518110611f7f57fe5b60200260200101511115611fc45760405162461bcd60e51b81526004018080602001828103825260258152602001806134636025913960400191505060405180910390fd5b7f00000000000000000000000000000000000000000000000000000000000000006001600160a01b031663d0e30db08360008151811061200057fe5b60200260200101516040518263ffffffff1660e01b81526004016000604051808303818588803b15801561203357600080fd5b505af1158015612047573d6000803e3d6000fd5b50505050507f00000000000000000000000000000000000000000000000000000000000000006001600160a01b031663a9059cbb6120ac7f00000000000000000000000000000000000000000000000000000000000000008989600081811061148b57fe5b846000815181106120b957fe5b60200260200101516040518363ffffffff1660e01b815260040180836001600160a01b03166001600160a01b0316815260200182815260200192505050602060405180830381600087803b15801561211057600080fd5b505af1158015612124573d6000803e3d6000fd5b505050506040513d602081101561213a57600080fd5b505161214257fe5b61218182878780806020026020016040519081016040528093929190818152602001838360200280828437600092019190915250899250612862915050565b8160008151811061218e57fe5b602002602001015134111561157d5761157d33836000815181106121ae57fe5b60200260200101513403612311565b604080516001600160a01b038481166024830152604480830185905283518084039091018152606490920183526020820180516001600160e01b031663a9059cbb60e01b178152925182516000946060949389169392918291908083835b6020831061223a5780518252601f19909201916020918201910161221b565b6001836020036101000a0380198251168184511680821785525050505050509050019150506000604051808303816000865af19150503d806000811461229c576040519150601f19603f3d011682016040523d82523d6000602084013e6122a1565b606091505b50915091508180156122cf5750805115806122cf57508080602001905160208110156122cc57600080fd5b50515b61230a5760405162461bcd60e51b815260040180806020018281038252602d815260200180613436602d913960400191505060405180910390fd5b5050505050565b604080516000808252602082019092526001600160a01b0384169083906040518082805190602001908083835b6020831061235d5780518252601f19909201916020918201910161233e565b6001836020036101000a03801982511681845116808217855250505050505090500191505060006040518083038185875af1925050503d80600081146123bf576040519150601f19603f3d011682016040523d82523d6000602084013e6123c4565b606091505b50509050806124045760405162461bcd60e51b815260040180806020018281038252603481526020018061332f6034913960400191505060405180910390fd5b505050565b60008084116124495760405162461bcd60e51b81526004018080602001828103825260298152602001806132ab6029913960400191505060405180910390fd5b6000831180156124595750600082115b6124945760405162461bcd60e51b81526004018080602001828103825260268152602001806134886026913960400191505060405180910390fd5b60006124a8856126f763ffffffff612fde16565b905060006124bc828563ffffffff612fde16565b905060006124e2836124d68861271063ffffffff612fde16565b9063ffffffff61304116565b90508082816124ed57fe5b04979650505050505050565b6060600282511015612552576040805162461bcd60e51b815260206004820152601c60248201527f50616e63616b654c6962726172793a20494e56414c49445f5041544800000000604482015290519081900360640190fd5b815167ffffffffffffffff8111801561256a57600080fd5b50604051908082528060200260200182016040528015612594578160200160208202803683370190505b50905082816000815181106125a557fe5b60200260200101818152505060005b600183510381101561263d576000806125f7878685815181106125d357fe5b60200260200101518786600101815181106125ea57fe5b6020026020010151613090565b9150915061261984848151811061260a57fe5b60200260200101518383612409565b84846001018151811061262857fe5b602090810291909101015250506001016125b4565b509392505050565b60008060006126548585612c8c565b604080516bffffffffffffffffffffffff19606094851b811660208084019190915293851b81166034830152825160288184030181526048830184528051908501206001600160f81b031960688401529a90941b9093166069840152607d8301989098527f7d09279672f47c313283527fae67786a91349449eb292ccad7c5f8fe0d6f6972609d808401919091528851808403909101815260bd909201909752805196019590952095945050505050565b604080516001600160a01b0385811660248301528481166044830152606480830185905283518084039091018152608490920183526020820180516001600160e01b03166323b872dd60e01b17815292518251600094606094938a169392918291908083835b6020831061278a5780518252601f19909201916020918201910161276b565b6001836020036101000a0380198251168184511680821785525050505050509050019150506000604051808303816000865af19150503d80600081146127ec576040519150601f19603f3d011682016040523d82523d6000602084013e6127f1565b606091505b509150915081801561281f57508051158061281f575080806020019051602081101561281c57600080fd5b50515b61285a5760405162461bcd60e51b81526004018080602001828103825260318152602001806132fe6031913960400191505060405180910390fd5b505050505050565b60005b6001835103811015612aa25760008084838151811061288057fe5b602002602001015185846001018151811061289757fe5b60200260200101519150915060006128af8383612c8c565b50905060008785600101815181106128c357fe5b60200260200101519050600080836001600160a01b0316866001600160a01b0316146128f1578260006128f5565b6000835b91509150600060028a5103881061290c578861294d565b61294d7f0000000000000000000000000000000000000000000000000000000000000000878c8b6002018151811061294057fe5b6020026020010151612645565b905061297a7f00000000000000000000000000000000000000000000000000000000000000008888612645565b6001600160a01b031663022c0d9f84848460006040519080825280601f01601f1916602001820160405280156129b7576020820181803683370190505b506040518563ffffffff1660e01b815260040180858152602001848152602001836001600160a01b03166001600160a01b0316815260200180602001828103825283818151815260200191508051906020019080838360005b83811015612a28578181015183820152602001612a10565b50505050905090810190601f168015612a555780820380516001836020036101000a031916815260200191505b5095505050505050600060405180830381600087803b158015612a7757600080fd5b505af1158015612a8b573d6000803e3d6000fd5b505060019099019850612865975050505050505050565b50505050565b6060600282511015612b01576040805162461bcd60e51b815260206004820152601c60248201527f50616e63616b654c6962726172793a20494e56414c49445f5041544800000000604482015290519081900360640190fd5b815167ffffffffffffffff81118015612b1957600080fd5b50604051908082528060200260200182016040528015612b43578160200160208202803683370190505b5090508281600183510381518110612b5757fe5b60209081029190910101528151600019015b801561263d57600080612b9987866001860381518110612b8557fe5b60200260200101518786815181106125ea57fe5b91509150612bbb848481518110612bac57fe5b6020026020010151838361316a565b846001850381518110612bca57fe5b6020908102919091010152505060001901612b69565b6000808411612c205760405162461bcd60e51b81526004018080602001828103825260238152602001806134136023913960400191505060405180910390fd5b600083118015612c305750600082115b612c6b5760405162461bcd60e51b81526004018080602001828103825260268152602001806134886026913960400191505060405180910390fd5b82612c7c858463ffffffff612fde16565b81612c8357fe5b04949350505050565b600080826001600160a01b0316846001600160a01b03161415612ce05760405162461bcd60e51b81526004018080602001828103825260238152602001806133ac6023913960400191505060405180910390fd5b826001600160a01b0316846001600160a01b031610612d00578284612d03565b83835b90925090506001600160a01b038216612d63576040805162461bcd60e51b815260206004820152601c60248201527f50616e63616b654c6962726172793a205a45524f5f4144445245535300000000604482015290519081900360640190fd5b9250929050565b6040805163e6a4390560e01b81526001600160a01b03888116600483015287811660248301529151600092839283927f00000000000000000000000000000000000000000000000000000000000000009092169163e6a4390591604480820192602092909190829003018186803b158015612de457600080fd5b505afa158015612df8573d6000803e3d6000fd5b505050506040513d6020811015612e0e57600080fd5b50516001600160a01b03161415612ec157604080516364e329cb60e11b81526001600160a01b038a81166004830152898116602483015291517f00000000000000000000000000000000000000000000000000000000000000009092169163c9c65396916044808201926020929091908290030181600087803b158015612e9457600080fd5b505af1158015612ea8573d6000803e3d6000fd5b505050506040513d6020811015612ebe57600080fd5b50505b600080612eef7f00000000000000000000000000000000000000000000000000000000000000008b8b613090565b91509150816000148015612f01575080155b15612f1157879350869250612fd1565b6000612f1e898484612be0565b9050878111612f715785811015612f665760405162461bcd60e51b81526004018080602001828103825260248152602001806134ae6024913960400191505060405180910390fd5b889450925082612fcf565b6000612f7e898486612be0565b905089811115612f8a57fe5b87811015612fc95760405162461bcd60e51b81526004018080602001828103825260248152602001806133ef6024913960400191505060405180910390fd5b94508793505b505b5050965096945050505050565b6000811580612ff957505080820282828281612ff657fe5b04145b610e40576040805162461bcd60e51b815260206004820152601460248201527364732d6d6174682d6d756c2d6f766572666c6f7760601b604482015290519081900360640190fd5b80820182811015610e40576040805162461bcd60e51b815260206004820152601460248201527364732d6d6174682d6164642d6f766572666c6f7760601b604482015290519081900360640190fd5b600080600061309f8585612c8c565b5090506130ad868686612645565b506000806130bc888888612645565b6001600160a01b0316630902f1ac6040518163ffffffff1660e01b815260040160606040518083038186803b1580156130f457600080fd5b505afa158015613108573d6000803e3d6000fd5b505050506040513d606081101561311e57600080fd5b5080516020909101516dffffffffffffffffffffffffffff91821693501690506001600160a01b038781169084161461315857808261315b565b81815b90999098509650505050505050565b60008084116131aa5760405162461bcd60e51b815260040180806020018281038252602a8152602001806132d4602a913960400191505060405180910390fd5b6000831180156131ba5750600082115b6131f55760405162461bcd60e51b81526004018080602001828103825260268152602001806134886026913960400191505060405180910390fd5b600061321961271061320d868863ffffffff612fde16565b9063ffffffff612fde16565b905060006132336126f761320d868963ffffffff61325a16565b9050613250600182848161324357fe5b049063ffffffff61304116565b9695505050505050565b80820382811115610e40576040805162461bcd60e51b815260206004820152601560248201527464732d6d6174682d7375622d756e646572666c6f7760581b604482015290519081900360640190fdfe50616e63616b654c6962726172793a20494e53554646494349454e545f494e5055545f414d4f554e5450616e63616b654c6962726172793a20494e53554646494349454e545f4f55545055545f414d4f554e545472616e7366657248656c7065723a3a7472616e7366657246726f6d3a207472616e7366657246726f6d206661696c65645472616e7366657248656c7065723a3a736166655472616e736665724554483a20455448207472616e73666572206661696c656450616e63616b65526f757465723a20455850495245440000000000000000000050616e63616b65526f757465723a20494e53554646494349454e545f4f55545055545f414d4f554e5450616e63616b654c6962726172793a204944454e544943414c5f41444452455353455350616e63616b65526f757465723a20494e56414c49445f50415448000000000050616e63616b65526f757465723a20494e53554646494349454e545f415f414d4f554e5450616e63616b654c6962726172793a20494e53554646494349454e545f414d4f554e545472616e7366657248656c7065723a3a736166655472616e736665723a207472616e73666572206661696c656450616e63616b65526f757465723a204558434553534956455f494e5055545f414d4f554e5450616e63616b654c6962726172793a20494e53554646494349454e545f4c495155494449545950616e63616b65526f757465723a20494e53554646494349454e545f425f414d4f554e54a26469706673582212206f264e6e53773718687916441ecce2c017614c03e209530385dbd50ca3eba1b564736f6c63430006060033",
					"opcodes": "PUSH1 0xC0 PUSH1 0x40 MSTORE CALLVALUE DUP1 ISZERO PUSH2 0x10 JUMPI PUSH1 0x0 DUP1 REVERT JUMPDEST POP PUSH1 0x40 MLOAD PUSH2 0x3643 CODESIZE SUB DUP1 PUSH2 0x3643 DUP4 CODECOPY DUP2 DUP2 ADD PUSH1 0x40 MSTORE PUSH1 0x40 DUP2 LT ISZERO PUSH2 0x33 JUMPI PUSH1 0x0 DUP1 REVERT JUMPDEST POP DUP1 MLOAD PUSH1 0x20 SWAP1 SWAP2 ADD MLOAD PUSH1 0x1 PUSH1 0x1 PUSH1 0x60 SHL SUB NOT PUSH1 0x60 SWAP3 DUP4 SHL DUP2 AND PUSH1 0x80 MSTORE SWAP2 SHL AND PUSH1 0xA0 MSTORE PUSH1 0x80 MLOAD PUSH1 0x60 SHR PUSH1 0xA0 MLOAD PUSH1 0x60 SHR PUSH2 0x3507 PUSH2 0x13C PUSH1 0x0 CODECOPY DUP1 PUSH2 0x128 MSTORE DUP1 PUSH2 0xA01 MSTORE DUP1 PUSH2 0xA3C MSTORE DUP1 PUSH2 0xB33 MSTORE DUP1 PUSH2 0xD51 MSTORE DUP1 PUSH2 0x10DB MSTORE DUP1 PUSH2 0x125F MSTORE DUP1 PUSH2 0x13A5 MSTORE DUP1 PUSH2 0x142D MSTORE DUP1 PUSH2 0x1682 MSTORE DUP1 PUSH2 0x1972 MSTORE DUP1 PUSH2 0x1BE5 MSTORE DUP1 PUSH2 0x1C3B MSTORE DUP1 PUSH2 0x1C6F MSTORE DUP1 PUSH2 0x1CE3 MSTORE DUP1 PUSH2 0x1E83 MSTORE DUP1 PUSH2 0x1FC6 MSTORE DUP1 PUSH2 0x204E MSTORE POP DUP1 PUSH2 0xBC1 MSTORE DUP1 PUSH2 0xC98 MSTORE DUP1 PUSH2 0xE17 MSTORE DUP1 PUSH2 0xE50 MSTORE DUP1 PUSH2 0xF8B MSTORE DUP1 PUSH2 0x1169 MSTORE DUP1 PUSH2 0x12F2 MSTORE DUP1 PUSH2 0x145F MSTORE DUP1 PUSH2 0x15D2 MSTORE DUP1 PUSH2 0x16FF MSTORE DUP1 PUSH2 0x18F7 MSTORE DUP1 PUSH2 0x1920 MSTORE DUP1 PUSH2 0x1950 MSTORE DUP1 PUSH2 0x1ABD MSTORE DUP1 PUSH2 0x1C19 MSTORE DUP1 PUSH2 0x1F16 MSTORE DUP1 PUSH2 0x2080 MSTORE DUP1 PUSH2 0x2911 MSTORE DUP1 PUSH2 0x2954 MSTORE DUP1 PUSH2 0x2D9B MSTORE DUP1 PUSH2 0x2E49 MSTORE DUP1 PUSH2 0x2EC9 MSTORE POP PUSH2 0x3507 PUSH1 0x0 RETURN INVALID PUSH1 0x80 PUSH1 0x40 MSTORE PUSH1 0x4 CALLDATASIZE LT PUSH2 0x118 JUMPI PUSH1 0x0 CALLDATALOAD PUSH1 0xE0 SHR DUP1 PUSH4 0x8803DBEE GT PUSH2 0xA0 JUMPI DUP1 PUSH4 0xD06CA61F GT PUSH2 0x64 JUMPI DUP1 PUSH4 0xD06CA61F EQ PUSH2 0x742 JUMPI DUP1 PUSH4 0xDED9382A EQ PUSH2 0x7F7 JUMPI DUP1 PUSH4 0xE8E33700 EQ PUSH2 0x86A JUMPI DUP1 PUSH4 0xF305D719 EQ PUSH2 0x8EA JUMPI DUP1 PUSH4 0xFB3BDB41 EQ PUSH2 0x930 JUMPI PUSH2 0x151 JUMP JUMPDEST DUP1 PUSH4 0x8803DBEE EQ PUSH2 0x5D3 JUMPI DUP1 PUSH4 0xAD5C4648 EQ PUSH2 0x669 JUMPI DUP1 PUSH4 0xAD615DEC EQ PUSH2 0x69A JUMPI DUP1 PUSH4 0xBAA2ABDE EQ PUSH2 0x6D0 JUMPI DUP1 PUSH4 0xC45A0155 EQ PUSH2 0x72D JUMPI PUSH2 0x151 JUMP JUMPDEST DUP1 PUSH4 0x2195995C GT PUSH2 0xE7 JUMPI DUP1 PUSH4 0x2195995C EQ PUSH2 0x3A5 JUMPI DUP1 PUSH4 0x38ED1739 EQ PUSH2 0x423 JUMPI DUP1 PUSH4 0x4A25D94A EQ PUSH2 0x4B9 JUMPI DUP1 PUSH4 0x7FF36AB5 EQ PUSH2 0x54F JUMPI DUP1 PUSH4 0x85F8C259 EQ PUSH2 0x1C2 JUMPI PUSH2 0x151 JUMP JUMPDEST DUP1 PUSH4 0x2751CEC EQ PUSH2 0x156 JUMPI DUP1 PUSH4 0x54D50D4 EQ PUSH2 0x1C2 JUMPI DUP1 PUSH4 0x18CBAFE5 EQ PUSH2 0x20A JUMPI DUP1 PUSH4 0x1F00CA74 EQ PUSH2 0x2F0 JUMPI PUSH2 0x151 JUMP JUMPDEST CALLDATASIZE PUSH2 0x151 JUMPI CALLER PUSH1 0x1 PUSH1 0x1 PUSH1 0xA0 SHL SUB PUSH32 0x0 AND EQ PUSH2 0x14F JUMPI INVALID JUMPDEST STOP JUMPDEST PUSH1 0x0 DUP1 REVERT JUMPDEST CALLVALUE DUP1 ISZERO PUSH2 0x162 JUMPI PUSH1 0x0 DUP1 REVERT JUMPDEST POP PUSH2 0x1A9 PUSH1 0x4 DUP1 CALLDATASIZE SUB PUSH1 0xC0 DUP2 LT ISZERO PUSH2 0x179 JUMPI PUSH1 0x0 DUP1 REVERT JUMPDEST POP PUSH1 0x1 PUSH1 0x1 PUSH1 0xA0 SHL SUB DUP2 CALLDATALOAD DUP2 AND SWAP2 PUSH1 0x20 DUP2 ADD CALLDATALOAD SWAP2 PUSH1 0x40 DUP3 ADD CALLDATALOAD SWAP2 PUSH1 0x60 DUP2 ADD CALLDATALOAD SWAP2 PUSH1 0x80 DUP3 ADD CALLDATALOAD AND SWAP1 PUSH1 0xA0 ADD CALLDATALOAD PUSH2 0x9B4 JUMP JUMPDEST PUSH1 0x40 DUP1 MLOAD SWAP3 DUP4 MSTORE PUSH1 0x20 DUP4 ADD SWAP2 SWAP1 SWAP2 MSTORE DUP1 MLOAD SWAP2 DUP3 SWAP1 SUB ADD SWAP1 RETURN JUMPDEST CALLVALUE DUP1 ISZERO PUSH2 0x1CE JUMPI PUSH1 0x0 DUP1 REVERT JUMPDEST POP PUSH2 0x1F8 PUSH1 0x4 DUP1 CALLDATASIZE SUB PUSH1 0x60 DUP2 LT ISZERO PUSH2 0x1E5 JUMPI PUSH1 0x0 DUP1 REVERT JUMPDEST POP DUP1 CALLDATALOAD SWAP1 PUSH1 0x20 DUP2 ADD CALLDATALOAD SWAP1 PUSH1 0x40 ADD CALLDATALOAD PUSH2 0xACE JUMP JUMPDEST PUSH1 0x40 DUP1 MLOAD SWAP2 DUP3 MSTORE MLOAD SWAP1 DUP2 SWAP1 SUB PUSH1 0x20 ADD SWAP1 RETURN JUMPDEST CALLVALUE DUP1 ISZERO PUSH2 0x216 JUMPI PUSH1 0x0 DUP1 REVERT JUMPDEST POP PUSH2 0x2A0 PUSH1 0x4 DUP1 CALLDATASIZE SUB PUSH1 0xA0 DUP2 LT ISZERO PUSH2 0x22D JUMPI PUSH1 0x0 DUP1 REVERT JUMPDEST DUP2 CALLDATALOAD SWAP2 PUSH1 0x20 DUP2 ADD CALLDATALOAD SWAP2 DUP2 ADD SWAP1 PUSH1 0x60 DUP2 ADD PUSH1 0x40 DUP3 ADD CALLDATALOAD PUSH1 0x1 PUSH1 0x20 SHL DUP2 GT ISZERO PUSH2 0x253 JUMPI PUSH1 0x0 DUP1 REVERT JUMPDEST DUP3 ADD DUP4 PUSH1 0x20 DUP3 ADD GT ISZERO PUSH2 0x265 JUMPI PUSH1 0x0 DUP1 REVERT JUMPDEST DUP1 CALLDATALOAD SWAP1 PUSH1 0x20 ADD SWAP2 DUP5 PUSH1 0x20 DUP4 MUL DUP5 ADD GT PUSH1 0x1 PUSH1 0x20 SHL DUP4 GT OR ISZERO PUSH2 0x286 JUMPI PUSH1 0x0 DUP1 REVERT JUMPDEST SWAP2 SWAP4 POP SWAP2 POP PUSH1 0x1 PUSH1 0x1 PUSH1 0xA0 SHL SUB DUP2 CALLDATALOAD AND SWAP1 PUSH1 0x20 ADD CALLDATALOAD PUSH2 0xAE3 JUMP JUMPDEST PUSH1 0x40 DUP1 MLOAD PUSH1 0x20 DUP1 DUP3 MSTORE DUP4 MLOAD DUP2 DUP4 ADD MSTORE DUP4 MLOAD SWAP2 SWAP3 DUP4 SWAP3 SWAP1 DUP4 ADD SWAP2 DUP6 DUP2 ADD SWAP2 MUL DUP1 DUP4 DUP4 PUSH1 0x0 JUMPDEST DUP4 DUP2 LT ISZERO PUSH2 0x2DC JUMPI DUP2 DUP2 ADD MLOAD DUP4 DUP3 ADD MSTORE PUSH1 0x20 ADD PUSH2 0x2C4 JUMP JUMPDEST POP POP POP POP SWAP1 POP ADD SWAP3 POP POP POP PUSH1 0x40 MLOAD DUP1 SWAP2 SUB SWAP1 RETURN JUMPDEST CALLVALUE DUP1 ISZERO PUSH2 0x2FC JUMPI PUSH1 0x0 DUP1 REVERT JUMPDEST POP PUSH2 0x2A0 PUSH1 0x4 DUP1 CALLDATASIZE SUB PUSH1 0x40 DUP2 LT ISZERO PUSH2 0x313 JUMPI PUSH1 0x0 DUP1 REVERT JUMPDEST DUP2 CALLDATALOAD SWAP2 SWAP1 DUP2 ADD SWAP1 PUSH1 0x40 DUP2 ADD PUSH1 0x20 DUP3 ADD CALLDATALOAD PUSH1 0x1 PUSH1 0x20 SHL DUP2 GT ISZERO PUSH2 0x334 JUMPI PUSH1 0x0 DUP1 REVERT JUMPDEST DUP3 ADD DUP4 PUSH1 0x20 DUP3 ADD GT ISZERO PUSH2 0x346 JUMPI PUSH1 0x0 DUP1 REVERT JUMPDEST DUP1 CALLDATALOAD SWAP1 PUSH1 0x20 ADD SWAP2 DUP5 PUSH1 0x20 DUP4 MUL DUP5 ADD GT PUSH1 0x1 PUSH1 0x20 SHL DUP4 GT OR ISZERO PUSH2 0x367 JUMPI PUSH1 0x0 DUP1 REVERT JUMPDEST SWAP2 SWAP1 DUP1 DUP1 PUSH1 0x20 MUL PUSH1 0x20 ADD PUSH1 0x40 MLOAD SWAP1 DUP2 ADD PUSH1 0x40 MSTORE DUP1 SWAP4 SWAP3 SWAP2 SWAP1 DUP2 DUP2 MSTORE PUSH1 0x20 ADD DUP4 DUP4 PUSH1 0x20 MUL DUP1 DUP3 DUP5 CALLDATACOPY PUSH1 0x0 SWAP3 ADD SWAP2 SWAP1 SWAP2 MSTORE POP SWAP3 SWAP6 POP PUSH2 0xE10 SWAP5 POP POP POP POP POP JUMP JUMPDEST CALLVALUE DUP1 ISZERO PUSH2 0x3B1 JUMPI PUSH1 0x0 DUP1 REVERT JUMPDEST POP PUSH2 0x1A9 PUSH1 0x4 DUP1 CALLDATASIZE SUB PUSH2 0x160 DUP2 LT ISZERO PUSH2 0x3C9 JUMPI PUSH1 0x0 DUP1 REVERT JUMPDEST POP PUSH1 0x1 PUSH1 0x1 PUSH1 0xA0 SHL SUB DUP2 CALLDATALOAD DUP2 AND SWAP2 PUSH1 0x20 DUP2 ADD CALLDATALOAD DUP3 AND SWAP2 PUSH1 0x40 DUP3 ADD CALLDATALOAD SWAP2 PUSH1 0x60 DUP2 ADD CALLDATALOAD SWAP2 PUSH1 0x80 DUP3 ADD CALLDATALOAD SWAP2 PUSH1 0xA0 DUP2 ADD CALLDATALOAD SWAP1 SWAP2 AND SWAP1 PUSH1 0xC0 DUP2 ADD CALLDATALOAD SWAP1 PUSH1 0xE0 DUP2 ADD CALLDATALOAD ISZERO ISZERO SWAP1 PUSH1 0xFF PUSH2 0x100 DUP3 ADD CALLDATALOAD AND SWAP1 PUSH2 0x120 DUP2 ADD CALLDATALOAD SWAP1 PUSH2 0x140 ADD CALLDATALOAD PUSH2 0xE46 JUMP JUMPDEST CALLVALUE DUP1 ISZERO PUSH2 0x42F JUMPI PUSH1 0x0 DUP1 REVERT JUMPDEST POP PUSH2 0x2A0 PUSH1 0x4 DUP1 CALLDATASIZE SUB PUSH1 0xA0 DUP2 LT ISZERO PUSH2 0x446 JUMPI PUSH1 0x0 DUP1 REVERT JUMPDEST DUP2 CALLDATALOAD SWAP2 PUSH1 0x20 DUP2 ADD CALLDATALOAD SWAP2 DUP2 ADD SWAP1 PUSH1 0x60 DUP2 ADD PUSH1 0x40 DUP3 ADD CALLDATALOAD PUSH1 0x1 PUSH1 0x20 SHL DUP2 GT ISZERO PUSH2 0x46C JUMPI PUSH1 0x0 DUP1 REVERT JUMPDEST DUP3 ADD DUP4 PUSH1 0x20 DUP3 ADD GT ISZERO PUSH2 0x47E JUMPI PUSH1 0x0 DUP1 REVERT JUMPDEST DUP1 CALLDATALOAD SWAP1 PUSH1 0x20 ADD SWAP2 DUP5 PUSH1 0x20 DUP4 MUL DUP5 ADD GT PUSH1 0x1 PUSH1 0x20 SHL DUP4 GT OR ISZERO PUSH2 0x49F JUMPI PUSH1 0x0 DUP1 REVERT JUMPDEST SWAP2 SWAP4 POP SWAP2 POP PUSH1 0x1 PUSH1 0x1 PUSH1 0xA0 SHL SUB DUP2 CALLDATALOAD AND SWAP1 PUSH1 0x20 ADD CALLDATALOAD PUSH2 0xF40 JUMP JUMPDEST CALLVALUE DUP1 ISZERO PUSH2 0x4C5 JUMPI PUSH1 0x0 DUP1 REVERT JUMPDEST POP PUSH2 0x2A0 PUSH1 0x4 DUP1 CALLDATASIZE SUB PUSH1 0xA0 DUP2 LT ISZERO PUSH2 0x4DC JUMPI PUSH1 0x0 DUP1 REVERT JUMPDEST DUP2 CALLDATALOAD SWAP2 PUSH1 0x20 DUP2 ADD CALLDATALOAD SWAP2 DUP2 ADD SWAP1 PUSH1 0x60 DUP2 ADD PUSH1 0x40 DUP3 ADD CALLDATALOAD PUSH1 0x1 PUSH1 0x20 SHL DUP2 GT ISZERO PUSH2 0x502 JUMPI PUSH1 0x0 DUP1 REVERT JUMPDEST DUP3 ADD DUP4 PUSH1 0x20 DUP3 ADD GT ISZERO PUSH2 0x514 JUMPI PUSH1 0x0 DUP1 REVERT JUMPDEST DUP1 CALLDATALOAD SWAP1 PUSH1 0x20 ADD SWAP2 DUP5 PUSH1 0x20 DUP4 MUL DUP5 ADD GT PUSH1 0x1 PUSH1 0x20 SHL DUP4 GT OR ISZERO PUSH2 0x535 JUMPI PUSH1 0x0 DUP1 REVERT JUMPDEST SWAP2 SWAP4 POP SWAP2 POP PUSH1 0x1 PUSH1 0x1 PUSH1 0xA0 SHL SUB DUP2 CALLDATALOAD AND SWAP1 PUSH1 0x20 ADD CALLDATALOAD PUSH2 0x108B JUMP JUMPDEST PUSH2 0x2A0 PUSH1 0x4 DUP1 CALLDATASIZE SUB PUSH1 0x80 DUP2 LT ISZERO PUSH2 0x565 JUMPI PUSH1 0x0 DUP1 REVERT JUMPDEST DUP2 CALLDATALOAD SWAP2 SWAP1 DUP2 ADD SWAP1 PUSH1 0x40 DUP2 ADD PUSH1 0x20 DUP3 ADD CALLDATALOAD PUSH1 0x1 PUSH1 0x20 SHL DUP2 GT ISZERO PUSH2 0x586 JUMPI PUSH1 0x0 DUP1 REVERT JUMPDEST DUP3 ADD DUP4 PUSH1 0x20 DUP3 ADD GT ISZERO PUSH2 0x598 JUMPI PUSH1 0x0 DUP1 REVERT JUMPDEST DUP1 CALLDATALOAD SWAP1 PUSH1 0x20 ADD SWAP2 DUP5 PUSH1 0x20 DUP4 MUL DUP5 ADD GT PUSH1 0x1 PUSH1 0x20 SHL DUP4 GT OR ISZERO PUSH2 0x5B9 JUMPI PUSH1 0x0 DUP1 REVERT JUMPDEST SWAP2 SWAP4 POP SWAP2 POP PUSH1 0x1 PUSH1 0x1 PUSH1 0xA0 SHL SUB DUP2 CALLDATALOAD AND SWAP1 PUSH1 0x20 ADD CALLDATALOAD PUSH2 0x1217 JUMP JUMPDEST CALLVALUE DUP1 ISZERO PUSH2 0x5DF JUMPI PUSH1 0x0 DUP1 REVERT JUMPDEST POP PUSH2 0x2A0 PUSH1 0x4 DUP1 CALLDATASIZE SUB PUSH1 0xA0 DUP2 LT ISZERO PUSH2 0x5F6 JUMPI PUSH1 0x0 DUP1 REVERT JUMPDEST DUP2 CALLDATALOAD SWAP2 PUSH1 0x20 DUP2 ADD CALLDATALOAD SWAP2 DUP2 ADD SWAP1 PUSH1 0x60 DUP2 ADD PUSH1 0x40 DUP3 ADD CALLDATALOAD PUSH1 0x1 PUSH1 0x20 SHL DUP2 GT ISZERO PUSH2 0x61C JUMPI PUSH1 0x0 DUP1 REVERT JUMPDEST DUP3 ADD DUP4 PUSH1 0x20 DUP3 ADD GT ISZERO PUSH2 0x62E JUMPI PUSH1 0x0 DUP1 REVERT JUMPDEST DUP1 CALLDATALOAD SWAP1 PUSH1 0x20 ADD SWAP2 DUP5 PUSH1 0x20 DUP4 MUL DUP5 ADD GT PUSH1 0x1 PUSH1 0x20 SHL DUP4 GT OR ISZERO PUSH2 0x64F JUMPI PUSH1 0x0 DUP1 REVERT JUMPDEST SWAP2 SWAP4 POP SWAP2 POP PUSH1 0x1 PUSH1 0x1 PUSH1 0xA0 SHL SUB DUP2 CALLDATALOAD AND SWAP1 PUSH1 0x20 ADD CALLDATALOAD PUSH2 0x1587 JUMP JUMPDEST CALLVALUE DUP1 ISZERO PUSH2 0x675 JUMPI PUSH1 0x0 DUP1 REVERT JUMPDEST POP PUSH2 0x67E PUSH2 0x1680 JUMP JUMPDEST PUSH1 0x40 DUP1 MLOAD PUSH1 0x1 PUSH1 0x1 PUSH1 0xA0 SHL SUB SWAP1 SWAP3 AND DUP3 MSTORE MLOAD SWAP1 DUP2 SWAP1 SUB PUSH1 0x20 ADD SWAP1 RETURN JUMPDEST CALLVALUE DUP1 ISZERO PUSH2 0x6A6 JUMPI PUSH1 0x0 DUP1 REVERT JUMPDEST POP PUSH2 0x1F8 PUSH1 0x4 DUP1 CALLDATASIZE SUB PUSH1 0x60 DUP2 LT ISZERO PUSH2 0x6BD JUMPI PUSH1 0x0 DUP1 REVERT JUMPDEST POP DUP1 CALLDATALOAD SWAP1 PUSH1 0x20 DUP2 ADD CALLDATALOAD SWAP1 PUSH1 0x40 ADD CALLDATALOAD PUSH2 0x16A4 JUMP JUMPDEST CALLVALUE DUP1 ISZERO PUSH2 0x6DC JUMPI PUSH1 0x0 DUP1 REVERT JUMPDEST POP PUSH2 0x1A9 PUSH1 0x4 DUP1 CALLDATASIZE SUB PUSH1 0xE0 DUP2 LT ISZERO PUSH2 0x6F3 JUMPI PUSH1 0x0 DUP1 REVERT JUMPDEST POP PUSH1 0x1 PUSH1 0x1 PUSH1 0xA0 SHL SUB DUP2 CALLDATALOAD DUP2 AND SWAP2 PUSH1 0x20 DUP2 ADD CALLDATALOAD DUP3 AND SWAP2 PUSH1 0x40 DUP3 ADD CALLDATALOAD SWAP2 PUSH1 0x60 DUP2 ADD CALLDATALOAD SWAP2 PUSH1 0x80 DUP3 ADD CALLDATALOAD SWAP2 PUSH1 0xA0 DUP2 ADD CALLDATALOAD SWAP1 SWAP2 AND SWAP1 PUSH1 0xC0 ADD CALLDATALOAD PUSH2 0x16B1 JUMP JUMPDEST CALLVALUE DUP1 ISZERO PUSH2 0x739 JUMPI PUSH1 0x0 DUP1 REVERT JUMPDEST POP PUSH2 0x67E PUSH2 0x18F5 JUMP JUMPDEST CALLVALUE DUP1 ISZERO PUSH2 0x74E JUMPI PUSH1 0x0 DUP1 REVERT JUMPDEST POP PUSH2 0x2A0 PUSH1 0x4 DUP1 CALLDATASIZE SUB PUSH1 0x40 DUP2 LT ISZERO PUSH2 0x765 JUMPI PUSH1 0x0 DUP1 REVERT JUMPDEST DUP2 CALLDATALOAD SWAP2 SWAP1 DUP2 ADD SWAP1 PUSH1 0x40 DUP2 ADD PUSH1 0x20 DUP3 ADD CALLDATALOAD PUSH1 0x1 PUSH1 0x20 SHL DUP2 GT ISZERO PUSH2 0x786 JUMPI PUSH1 0x0 DUP1 REVERT JUMPDEST DUP3 ADD DUP4 PUSH1 0x20 DUP3 ADD GT ISZERO PUSH2 0x798 JUMPI PUSH1 0x0 DUP1 REVERT JUMPDEST DUP1 CALLDATALOAD SWAP1 PUSH1 0x20 ADD SWAP2 DUP5 PUSH1 0x20 DUP4 MUL DUP5 ADD GT PUSH1 0x1 PUSH1 0x20 SHL DUP4 GT OR ISZERO PUSH2 0x7B9 JUMPI PUSH1 0x0 DUP1 REVERT JUMPDEST SWAP2 SWAP1 DUP1 DUP1 PUSH1 0x20 MUL PUSH1 0x20 ADD PUSH1 0x40 MLOAD SWAP1 DUP2 ADD PUSH1 0x40 MSTORE DUP1 SWAP4 SWAP3 SWAP2 SWAP1 DUP2 DUP2 MSTORE PUSH1 0x20 ADD DUP4 DUP4 PUSH1 0x20 MUL DUP1 DUP3 DUP5 CALLDATACOPY PUSH1 0x0 SWAP3 ADD SWAP2 SWAP1 SWAP2 MSTORE POP SWAP3 SWAP6 POP PUSH2 0x1919 SWAP5 POP POP POP POP POP JUMP JUMPDEST CALLVALUE DUP1 ISZERO PUSH2 0x803 JUMPI PUSH1 0x0 DUP1 REVERT JUMPDEST POP PUSH2 0x1A9 PUSH1 0x4 DUP1 CALLDATASIZE SUB PUSH2 0x140 DUP2 LT ISZERO PUSH2 0x81B JUMPI PUSH1 0x0 DUP1 REVERT JUMPDEST POP PUSH1 0x1 PUSH1 0x1 PUSH1 0xA0 SHL SUB DUP2 CALLDATALOAD DUP2 AND SWAP2 PUSH1 0x20 DUP2 ADD CALLDATALOAD SWAP2 PUSH1 0x40 DUP3 ADD CALLDATALOAD SWAP2 PUSH1 0x60 DUP2 ADD CALLDATALOAD SWAP2 PUSH1 0x80 DUP3 ADD CALLDATALOAD AND SWAP1 PUSH1 0xA0 DUP2 ADD CALLDATALOAD SWAP1 PUSH1 0xC0 DUP2 ADD CALLDATALOAD ISZERO ISZERO SWAP1 PUSH1 0xFF PUSH1 0xE0 DUP3 ADD CALLDATALOAD AND SWAP1 PUSH2 0x100 DUP2 ADD CALLDATALOAD SWAP1 PUSH2 0x120 ADD CALLDATALOAD PUSH2 0x1946 JUMP JUMPDEST CALLVALUE DUP1 ISZERO PUSH2 0x876 JUMPI PUSH1 0x0 DUP1 REVERT JUMPDEST POP PUSH2 0x8CC PUSH1 0x4 DUP1 CALLDATASIZE SUB PUSH2 0x100 DUP2 LT ISZERO PUSH2 0x88E JUMPI PUSH1 0x0 DUP1 REVERT JUMPDEST POP PUSH1 0x1 PUSH1 0x1 PUSH1 0xA0 SHL SUB DUP2 CALLDATALOAD DUP2 AND SWAP2 PUSH1 0x20 DUP2 ADD CALLDATALOAD DUP3 AND SWAP2 PUSH1 0x40 DUP3 ADD CALLDATALOAD SWAP2 PUSH1 0x60 DUP2 ADD CALLDATALOAD SWAP2 PUSH1 0x80 DUP3 ADD CALLDATALOAD SWAP2 PUSH1 0xA0 DUP2 ADD CALLDATALOAD SWAP2 PUSH1 0xC0 DUP3 ADD CALLDATALOAD AND SWAP1 PUSH1 0xE0 ADD CALLDATALOAD PUSH2 0x1A5A JUMP JUMPDEST PUSH1 0x40 DUP1 MLOAD SWAP4 DUP5 MSTORE PUSH1 0x20 DUP5 ADD SWAP3 SWAP1 SWAP3 MSTORE DUP3 DUP3 ADD MSTORE MLOAD SWAP1 DUP2 SWAP1 SUB PUSH1 0x60 ADD SWAP1 RETURN JUMPDEST PUSH2 0x8CC PUSH1 0x4 DUP1 CALLDATASIZE SUB PUSH1 0xC0 DUP2 LT ISZERO PUSH2 0x900 JUMPI PUSH1 0x0 DUP1 REVERT JUMPDEST POP PUSH1 0x1 PUSH1 0x1 PUSH1 0xA0 SHL SUB DUP2 CALLDATALOAD DUP2 AND SWAP2 PUSH1 0x20 DUP2 ADD CALLDATALOAD SWAP2 PUSH1 0x40 DUP3 ADD CALLDATALOAD SWAP2 PUSH1 0x60 DUP2 ADD CALLDATALOAD SWAP2 PUSH1 0x80 DUP3 ADD CALLDATALOAD AND SWAP1 PUSH1 0xA0 ADD CALLDATALOAD PUSH2 0x1B96 JUMP JUMPDEST PUSH2 0x2A0 PUSH1 0x4 DUP1 CALLDATASIZE SUB PUSH1 0x80 DUP2 LT ISZERO PUSH2 0x946 JUMPI PUSH1 0x0 DUP1 REVERT JUMPDEST DUP2 CALLDATALOAD SWAP2 SWAP1 DUP2 ADD SWAP1 PUSH1 0x40 DUP2 ADD PUSH1 0x20 DUP3 ADD CALLDATALOAD PUSH1 0x1 PUSH1 0x20 SHL DUP2 GT ISZERO PUSH2 0x967 JUMPI PUSH1 0x0 DUP1 REVERT JUMPDEST DUP3 ADD DUP4 PUSH1 0x20 DUP3 ADD GT ISZERO PUSH2 0x979 JUMPI PUSH1 0x0 DUP1 REVERT JUMPDEST DUP1 CALLDATALOAD SWAP1 PUSH1 0x20 ADD SWAP2 DUP5 PUSH1 0x20 DUP4 MUL DUP5 ADD GT PUSH1 0x1 PUSH1 0x20 SHL DUP4 GT OR ISZERO PUSH2 0x99A JUMPI PUSH1 0x0 DUP1 REVERT JUMPDEST SWAP2 SWAP4 POP SWAP2 POP PUSH1 0x1 PUSH1 0x1 PUSH1 0xA0 SHL SUB DUP2 CALLDATALOAD AND SWAP1 PUSH1 0x20 ADD CALLDATALOAD PUSH2 0x1E3B JUMP JUMPDEST PUSH1 0x0 DUP1 DUP3 TIMESTAMP DUP2 LT ISZERO PUSH2 0x9FB JUMPI PUSH1 0x40 DUP1 MLOAD PUSH3 0x461BCD PUSH1 0xE5 SHL DUP2 MSTORE PUSH1 0x20 PUSH1 0x4 DUP3 ADD MSTORE PUSH1 0x16 PUSH1 0x24 DUP3 ADD MSTORE PUSH1 0x0 DUP1 MLOAD PUSH1 0x20 PUSH2 0x3363 DUP4 CODECOPY DUP2 MLOAD SWAP2 MSTORE PUSH1 0x44 DUP3 ADD MSTORE SWAP1 MLOAD SWAP1 DUP2 SWAP1 SUB PUSH1 0x64 ADD SWAP1 REVERT JUMPDEST PUSH2 0xA2A DUP10 PUSH32 0x0 DUP11 DUP11 DUP11 ADDRESS DUP11 PUSH2 0x16B1 JUMP JUMPDEST SWAP1 SWAP4 POP SWAP2 POP PUSH2 0xA3A DUP10 DUP7 DUP6 PUSH2 0x21BD JUMP JUMPDEST PUSH32 0x0 PUSH1 0x1 PUSH1 0x1 PUSH1 0xA0 SHL SUB AND PUSH4 0x2E1A7D4D DUP4 PUSH1 0x40 MLOAD DUP3 PUSH4 0xFFFFFFFF AND PUSH1 0xE0 SHL DUP2 MSTORE PUSH1 0x4 ADD DUP1 DUP3 DUP2 MSTORE PUSH1 0x20 ADD SWAP2 POP POP PUSH1 0x0 PUSH1 0x40 MLOAD DUP1 DUP4 SUB DUP2 PUSH1 0x0 DUP8 DUP1 EXTCODESIZE ISZERO DUP1 ISZERO PUSH2 0xAA0 JUMPI PUSH1 0x0 DUP1 REVERT JUMPDEST POP GAS CALL ISZERO DUP1 ISZERO PUSH2 0xAB4 JUMPI RETURNDATASIZE PUSH1 0x0 DUP1 RETURNDATACOPY RETURNDATASIZE PUSH1 0x0 REVERT JUMPDEST POP POP POP POP PUSH2 0xAC2 DUP6 DUP4 PUSH2 0x2311 JUMP JUMPDEST POP SWAP7 POP SWAP7 SWAP5 POP POP POP POP POP JUMP JUMPDEST PUSH1 0x0 PUSH2 0xADB DUP5 DUP5 DUP5 PUSH2 0x2409 JUMP JUMPDEST SWAP5 SWAP4 POP POP POP POP JUMP JUMPDEST PUSH1 0x60 DUP2 TIMESTAMP DUP2 LT ISZERO PUSH2 0xB29 JUMPI PUSH1 0x40 DUP1 MLOAD PUSH3 0x461BCD PUSH1 0xE5 SHL DUP2 MSTORE PUSH1 0x20 PUSH1 0x4 DUP3 ADD MSTORE PUSH1 0x16 PUSH1 0x24 DUP3 ADD MSTORE PUSH1 0x0 DUP1 MLOAD PUSH1 0x20 PUSH2 0x3363 DUP4 CODECOPY DUP2 MLOAD SWAP2 MSTORE PUSH1 0x44 DUP3 ADD MSTORE SWAP1 MLOAD SWAP1 DUP2 SWAP1 SUB PUSH1 0x64 ADD SWAP1 REVERT JUMPDEST PUSH1 0x1 PUSH1 0x1 PUSH1 0xA0 SHL SUB PUSH32 0x0 AND DUP7 DUP7 PUSH1 0x0 NOT DUP2 ADD DUP2 DUP2 LT PUSH2 0xB63 JUMPI INVALID JUMPDEST SWAP1 POP PUSH1 0x20 MUL ADD CALLDATALOAD PUSH1 0x1 PUSH1 0x1 PUSH1 0xA0 SHL SUB AND PUSH1 0x1 PUSH1 0x1 PUSH1 0xA0 SHL SUB AND EQ PUSH2 0xBBC JUMPI PUSH1 0x40 DUP1 MLOAD PUSH3 0x461BCD PUSH1 0xE5 SHL DUP2 MSTORE PUSH1 0x20 PUSH1 0x4 DUP3 ADD MSTORE PUSH1 0x1B PUSH1 0x24 DUP3 ADD MSTORE PUSH1 0x0 DUP1 MLOAD PUSH1 0x20 PUSH2 0x33CF DUP4 CODECOPY DUP2 MLOAD SWAP2 MSTORE PUSH1 0x44 DUP3 ADD MSTORE SWAP1 MLOAD SWAP1 DUP2 SWAP1 SUB PUSH1 0x64 ADD SWAP1 REVERT JUMPDEST PUSH2 0xC1A PUSH32 0x0 DUP10 DUP9 DUP9 DUP1 DUP1 PUSH1 0x20 MUL PUSH1 0x20 ADD PUSH1 0x40 MLOAD SWAP1 DUP2 ADD PUSH1 0x40 MSTORE DUP1 SWAP4 SWAP3 SWAP2 SWAP1 DUP2 DUP2 MSTORE PUSH1 0x20 ADD DUP4 DUP4 PUSH1 0x20 MUL DUP1 DUP3 DUP5 CALLDATACOPY PUSH1 0x0 SWAP3 ADD SWAP2 SWAP1 SWAP2 MSTORE POP PUSH2 0x24F9 SWAP3 POP POP POP JUMP JUMPDEST SWAP2 POP DUP7 DUP3 PUSH1 0x1 DUP5 MLOAD SUB DUP2 MLOAD DUP2 LT PUSH2 0xC2D JUMPI INVALID JUMPDEST PUSH1 0x20 MUL PUSH1 0x20 ADD ADD MLOAD LT ISZERO PUSH2 0xC72 JUMPI PUSH1 0x40 MLOAD PUSH3 0x461BCD PUSH1 0xE5 SHL DUP2 MSTORE PUSH1 0x4 ADD DUP1 DUP1 PUSH1 0x20 ADD DUP3 DUP2 SUB DUP3 MSTORE PUSH1 0x29 DUP2 MSTORE PUSH1 0x20 ADD DUP1 PUSH2 0x3383 PUSH1 0x29 SWAP2 CODECOPY PUSH1 0x40 ADD SWAP2 POP POP PUSH1 0x40 MLOAD DUP1 SWAP2 SUB SWAP1 REVERT JUMPDEST PUSH2 0xD10 DUP7 DUP7 PUSH1 0x0 DUP2 DUP2 LT PUSH2 0xC82 JUMPI INVALID JUMPDEST SWAP1 POP PUSH1 0x20 MUL ADD CALLDATALOAD PUSH1 0x1 PUSH1 0x1 PUSH1 0xA0 SHL SUB AND CALLER PUSH2 0xCF6 PUSH32 0x0 DUP11 DUP11 PUSH1 0x0 DUP2 DUP2 LT PUSH2 0xCC4 JUMPI INVALID JUMPDEST SWAP1 POP PUSH1 0x20 MUL ADD CALLDATALOAD PUSH1 0x1 PUSH1 0x1 PUSH1 0xA0 SHL SUB AND DUP12 DUP12 PUSH1 0x1 DUP2 DUP2 LT PUSH2 0xCE1 JUMPI INVALID JUMPDEST SWAP1 POP PUSH1 0x20 MUL ADD CALLDATALOAD PUSH1 0x1 PUSH1 0x1 PUSH1 0xA0 SHL SUB AND PUSH2 0x2645 JUMP JUMPDEST DUP6 PUSH1 0x0 DUP2 MLOAD DUP2 LT PUSH2 0xD03 JUMPI INVALID JUMPDEST PUSH1 0x20 MUL PUSH1 0x20 ADD ADD MLOAD PUSH2 0x2705 JUMP JUMPDEST PUSH2 0xD4F DUP3 DUP8 DUP8 DUP1 DUP1 PUSH1 0x20 MUL PUSH1 0x20 ADD PUSH1 0x40 MLOAD SWAP1 DUP2 ADD PUSH1 0x40 MSTORE DUP1 SWAP4 SWAP3 SWAP2 SWAP1 DUP2 DUP2 MSTORE PUSH1 0x20 ADD DUP4 DUP4 PUSH1 0x20 MUL DUP1 DUP3 DUP5 CALLDATACOPY PUSH1 0x0 SWAP3 ADD SWAP2 SWAP1 SWAP2 MSTORE POP ADDRESS SWAP3 POP PUSH2 0x2862 SWAP2 POP POP JUMP JUMPDEST PUSH32 0x0 PUSH1 0x1 PUSH1 0x1 PUSH1 0xA0 SHL SUB AND PUSH4 0x2E1A7D4D DUP4 PUSH1 0x1 DUP6 MLOAD SUB DUP2 MLOAD DUP2 LT PUSH2 0xD8E JUMPI INVALID JUMPDEST PUSH1 0x20 MUL PUSH1 0x20 ADD ADD MLOAD PUSH1 0x40 MLOAD DUP3 PUSH4 0xFFFFFFFF AND PUSH1 0xE0 SHL DUP2 MSTORE PUSH1 0x4 ADD DUP1 DUP3 DUP2 MSTORE PUSH1 0x20 ADD SWAP2 POP POP PUSH1 0x0 PUSH1 0x40 MLOAD DUP1 DUP4 SUB DUP2 PUSH1 0x0 DUP8 DUP1 EXTCODESIZE ISZERO DUP1 ISZERO PUSH2 0xDCC JUMPI PUSH1 0x0 DUP1 REVERT JUMPDEST POP GAS CALL ISZERO DUP1 ISZERO PUSH2 0xDE0 JUMPI RETURNDATASIZE PUSH1 0x0 DUP1 RETURNDATACOPY RETURNDATASIZE PUSH1 0x0 REVERT JUMPDEST POP POP POP POP PUSH2 0xE05 DUP5 DUP4 PUSH1 0x1 DUP6 MLOAD SUB DUP2 MLOAD DUP2 LT PUSH2 0xDF8 JUMPI INVALID JUMPDEST PUSH1 0x20 MUL PUSH1 0x20 ADD ADD MLOAD PUSH2 0x2311 JUMP JUMPDEST POP SWAP7 SWAP6 POP POP POP POP POP POP JUMP JUMPDEST PUSH1 0x60 PUSH2 0xE3D PUSH32 0x0 DUP5 DUP5 PUSH2 0x2AA8 JUMP JUMPDEST SWAP1 POP JUMPDEST SWAP3 SWAP2 POP POP JUMP JUMPDEST PUSH1 0x0 DUP1 PUSH1 0x0 PUSH2 0xE76 PUSH32 0x0 DUP16 DUP16 PUSH2 0x2645 JUMP JUMPDEST SWAP1 POP PUSH1 0x0 DUP8 PUSH2 0xE85 JUMPI DUP13 PUSH2 0xE89 JUMP JUMPDEST PUSH1 0x0 NOT JUMPDEST PUSH1 0x40 DUP1 MLOAD PUSH4 0xD505ACCF PUSH1 0xE0 SHL DUP2 MSTORE CALLER PUSH1 0x4 DUP3 ADD MSTORE ADDRESS PUSH1 0x24 DUP3 ADD MSTORE PUSH1 0x44 DUP2 ADD DUP4 SWAP1 MSTORE PUSH1 0x64 DUP2 ADD DUP13 SWAP1 MSTORE PUSH1 0xFF DUP11 AND PUSH1 0x84 DUP3 ADD MSTORE PUSH1 0xA4 DUP2 ADD DUP10 SWAP1 MSTORE PUSH1 0xC4 DUP2 ADD DUP9 SWAP1 MSTORE SWAP1 MLOAD SWAP2 SWAP3 POP PUSH1 0x1 PUSH1 0x1 PUSH1 0xA0 SHL SUB DUP5 AND SWAP2 PUSH4 0xD505ACCF SWAP2 PUSH1 0xE4 DUP1 DUP3 ADD SWAP3 PUSH1 0x0 SWAP3 SWAP1 SWAP2 SWAP1 DUP3 SWAP1 SUB ADD DUP2 DUP4 DUP8 DUP1 EXTCODESIZE ISZERO DUP1 ISZERO PUSH2 0xEFF JUMPI PUSH1 0x0 DUP1 REVERT JUMPDEST POP GAS CALL ISZERO DUP1 ISZERO PUSH2 0xF13 JUMPI RETURNDATASIZE PUSH1 0x0 DUP1 RETURNDATACOPY RETURNDATASIZE PUSH1 0x0 REVERT JUMPDEST POP POP POP POP PUSH2 0xF26 DUP16 DUP16 DUP16 DUP16 DUP16 DUP16 DUP16 PUSH2 0x16B1 JUMP JUMPDEST DUP1 SWAP5 POP DUP2 SWAP6 POP POP POP POP POP SWAP12 POP SWAP12 SWAP10 POP POP POP POP POP POP POP POP POP POP JUMP JUMPDEST PUSH1 0x60 DUP2 TIMESTAMP DUP2 LT ISZERO PUSH2 0xF86 JUMPI PUSH1 0x40 DUP1 MLOAD PUSH3 0x461BCD PUSH1 0xE5 SHL DUP2 MSTORE PUSH1 0x20 PUSH1 0x4 DUP3 ADD MSTORE PUSH1 0x16 PUSH1 0x24 DUP3 ADD MSTORE PUSH1 0x0 DUP1 MLOAD PUSH1 0x20 PUSH2 0x3363 DUP4 CODECOPY DUP2 MLOAD SWAP2 MSTORE PUSH1 0x44 DUP3 ADD MSTORE SWAP1 MLOAD SWAP1 DUP2 SWAP1 SUB PUSH1 0x64 ADD SWAP1 REVERT JUMPDEST PUSH2 0xFE4 PUSH32 0x0 DUP10 DUP9 DUP9 DUP1 DUP1 PUSH1 0x20 MUL PUSH1 0x20 ADD PUSH1 0x40 MLOAD SWAP1 DUP2 ADD PUSH1 0x40 MSTORE DUP1 SWAP4 SWAP3 SWAP2 SWAP1 DUP2 DUP2 MSTORE PUSH1 0x20 ADD DUP4 DUP4 PUSH1 0x20 MUL DUP1 DUP3 DUP5 CALLDATACOPY PUSH1 0x0 SWAP3 ADD SWAP2 SWAP1 SWAP2 MSTORE POP PUSH2 0x24F9 SWAP3 POP POP POP JUMP JUMPDEST SWAP2 POP DUP7 DUP3 PUSH1 0x1 DUP5 MLOAD SUB DUP2 MLOAD DUP2 LT PUSH2 0xFF7 JUMPI INVALID JUMPDEST PUSH1 0x20 MUL PUSH1 0x20 ADD ADD MLOAD LT ISZERO PUSH2 0x103C JUMPI PUSH1 0x40 MLOAD PUSH3 0x461BCD PUSH1 0xE5 SHL DUP2 MSTORE PUSH1 0x4 ADD DUP1 DUP1 PUSH1 0x20 ADD DUP3 DUP2 SUB DUP3 MSTORE PUSH1 0x29 DUP2 MSTORE PUSH1 0x20 ADD DUP1 PUSH2 0x3383 PUSH1 0x29 SWAP2 CODECOPY PUSH1 0x40 ADD SWAP2 POP POP PUSH1 0x40 MLOAD DUP1 SWAP2 SUB SWAP1 REVERT JUMPDEST PUSH2 0x104C DUP7 DUP7 PUSH1 0x0 DUP2 DUP2 LT PUSH2 0xC82 JUMPI INVALID JUMPDEST PUSH2 0xE05 DUP3 DUP8 DUP8 DUP1 DUP1 PUSH1 0x20 MUL PUSH1 0x20 ADD PUSH1 0x40 MLOAD SWAP1 DUP2 ADD PUSH1 0x40 MSTORE DUP1 SWAP4 SWAP3 SWAP2 SWAP1 DUP2 DUP2 MSTORE PUSH1 0x20 ADD DUP4 DUP4 PUSH1 0x20 MUL DUP1 DUP3 DUP5 CALLDATACOPY PUSH1 0x0 SWAP3 ADD SWAP2 SWAP1 SWAP2 MSTORE POP DUP10 SWAP3 POP PUSH2 0x2862 SWAP2 POP POP JUMP JUMPDEST PUSH1 0x60 DUP2 TIMESTAMP DUP2 LT ISZERO PUSH2 0x10D1 JUMPI PUSH1 0x40 DUP1 MLOAD PUSH3 0x461BCD PUSH1 0xE5 SHL DUP2 MSTORE PUSH1 0x20 PUSH1 0x4 DUP3 ADD MSTORE PUSH1 0x16 PUSH1 0x24 DUP3 ADD MSTORE PUSH1 0x0 DUP1 MLOAD PUSH1 0x20 PUSH2 0x3363 DUP4 CODECOPY DUP2 MLOAD SWAP2 MSTORE PUSH1 0x44 DUP3 ADD MSTORE SWAP1 MLOAD SWAP1 DUP2 SWAP1 SUB PUSH1 0x64 ADD SWAP1 REVERT JUMPDEST PUSH1 0x1 PUSH1 0x1 PUSH1 0xA0 SHL SUB PUSH32 0x0 AND DUP7 DUP7 PUSH1 0x0 NOT DUP2 ADD DUP2 DUP2 LT PUSH2 0x110B JUMPI INVALID JUMPDEST SWAP1 POP PUSH1 0x20 MUL ADD CALLDATALOAD PUSH1 0x1 PUSH1 0x1 PUSH1 0xA0 SHL SUB AND PUSH1 0x1 PUSH1 0x1 PUSH1 0xA0 SHL SUB AND EQ PUSH2 0x1164 JUMPI PUSH1 0x40 DUP1 MLOAD PUSH3 0x461BCD PUSH1 0xE5 SHL DUP2 MSTORE PUSH1 0x20 PUSH1 0x4 DUP3 ADD MSTORE PUSH1 0x1B PUSH1 0x24 DUP3 ADD MSTORE PUSH1 0x0 DUP1 MLOAD PUSH1 0x20 PUSH2 0x33CF DUP4 CODECOPY DUP2 MLOAD SWAP2 MSTORE PUSH1 0x44 DUP3 ADD MSTORE SWAP1 MLOAD SWAP1 DUP2 SWAP1 SUB PUSH1 0x64 ADD SWAP1 REVERT JUMPDEST PUSH2 0x11C2 PUSH32 0x0 DUP10 DUP9 DUP9 DUP1 DUP1 PUSH1 0x20 MUL PUSH1 0x20 ADD PUSH1 0x40 MLOAD SWAP1 DUP2 ADD PUSH1 0x40 MSTORE DUP1 SWAP4 SWAP3 SWAP2 SWAP1 DUP2 DUP2 MSTORE PUSH1 0x20 ADD DUP4 DUP4 PUSH1 0x20 MUL DUP1 DUP3 DUP5 CALLDATACOPY PUSH1 0x0 SWAP3 ADD SWAP2 SWAP1 SWAP2 MSTORE POP PUSH2 0x2AA8 SWAP3 POP POP POP JUMP JUMPDEST SWAP2 POP DUP7 DUP3 PUSH1 0x0 DUP2 MLOAD DUP2 LT PUSH2 0x11D2 JUMPI INVALID JUMPDEST PUSH1 0x20 MUL PUSH1 0x20 ADD ADD MLOAD GT ISZERO PUSH2 0xC72 JUMPI PUSH1 0x40 MLOAD PUSH3 0x461BCD PUSH1 0xE5 SHL DUP2 MSTORE PUSH1 0x4 ADD DUP1 DUP1 PUSH1 0x20 ADD DUP3 DUP2 SUB DUP3 MSTORE PUSH1 0x25 DUP2 MSTORE PUSH1 0x20 ADD DUP1 PUSH2 0x3463 PUSH1 0x25 SWAP2 CODECOPY PUSH1 0x40 ADD SWAP2 POP POP PUSH1 0x40 MLOAD DUP1 SWAP2 SUB SWAP1 REVERT JUMPDEST PUSH1 0x60 DUP2 TIMESTAMP DUP2 LT ISZERO PUSH2 0x125D JUMPI PUSH1 0x40 DUP1 MLOAD PUSH3 0x461BCD PUSH1 0xE5 SHL DUP2 MSTORE PUSH1 0x20 PUSH1 0x4 DUP3 ADD MSTORE PUSH1 0x16 PUSH1 0x24 DUP3 ADD MSTORE PUSH1 0x0 DUP1 MLOAD PUSH1 0x20 PUSH2 0x3363 DUP4 CODECOPY DUP2 MLOAD SWAP2 MSTORE PUSH1 0x44 DUP3 ADD MSTORE SWAP1 MLOAD SWAP1 DUP2 SWAP1 SUB PUSH1 0x64 ADD SWAP1 REVERT JUMPDEST PUSH32 0x0 PUSH1 0x1 PUSH1 0x1 PUSH1 0xA0 SHL SUB AND DUP7 DUP7 PUSH1 0x0 DUP2 DUP2 LT PUSH2 0x1294 JUMPI INVALID JUMPDEST SWAP1 POP PUSH1 0x20 MUL ADD CALLDATALOAD PUSH1 0x1 PUSH1 0x1 PUSH1 0xA0 SHL SUB AND PUSH1 0x1 PUSH1 0x1 PUSH1 0xA0 SHL SUB AND EQ PUSH2 0x12ED JUMPI PUSH1 0x40 DUP1 MLOAD PUSH3 0x461BCD PUSH1 0xE5 SHL DUP2 MSTORE PUSH1 0x20 PUSH1 0x4 DUP3 ADD MSTORE PUSH1 0x1B PUSH1 0x24 DUP3 ADD MSTORE PUSH1 0x0 DUP1 MLOAD PUSH1 0x20 PUSH2 0x33CF DUP4 CODECOPY DUP2 MLOAD SWAP2 MSTORE PUSH1 0x44 DUP3 ADD MSTORE SWAP1 MLOAD SWAP1 DUP2 SWAP1 SUB PUSH1 0x64 ADD SWAP1 REVERT JUMPDEST PUSH2 0x134B PUSH32 0x0 CALLVALUE DUP9 DUP9 DUP1 DUP1 PUSH1 0x20 MUL PUSH1 0x20 ADD PUSH1 0x40 MLOAD SWAP1 DUP2 ADD PUSH1 0x40 MSTORE DUP1 SWAP4 SWAP3 SWAP2 SWAP1 DUP2 DUP2 MSTORE PUSH1 0x20 ADD DUP4 DUP4 PUSH1 0x20 MUL DUP1 DUP3 DUP5 CALLDATACOPY PUSH1 0x0 SWAP3 ADD SWAP2 SWAP1 SWAP2 MSTORE POP PUSH2 0x24F9 SWAP3 POP POP POP JUMP JUMPDEST SWAP2 POP DUP7 DUP3 PUSH1 0x1 DUP5 MLOAD SUB DUP2 MLOAD DUP2 LT PUSH2 0x135E JUMPI INVALID JUMPDEST PUSH1 0x20 MUL PUSH1 0x20 ADD ADD MLOAD LT ISZERO PUSH2 0x13A3 JUMPI PUSH1 0x40 MLOAD PUSH3 0x461BCD PUSH1 0xE5 SHL DUP2 MSTORE PUSH1 0x4 ADD DUP1 DUP1 PUSH1 0x20 ADD DUP3 DUP2 SUB DUP3 MSTORE PUSH1 0x29 DUP2 MSTORE PUSH1 0x20 ADD DUP1 PUSH2 0x3383 PUSH1 0x29 SWAP2 CODECOPY PUSH1 0x40 ADD SWAP2 POP POP PUSH1 0x40 MLOAD DUP1 SWAP2 SUB SWAP1 REVERT JUMPDEST PUSH32 0x0 PUSH1 0x1 PUSH1 0x1 PUSH1 0xA0 SHL SUB AND PUSH4 0xD0E30DB0 DUP4 PUSH1 0x0 DUP2 MLOAD DUP2 LT PUSH2 0x13DF JUMPI INVALID JUMPDEST PUSH1 0x20 MUL PUSH1 0x20 ADD ADD MLOAD PUSH1 0x40 MLOAD DUP3 PUSH4 0xFFFFFFFF AND PUSH1 0xE0 SHL DUP2 MSTORE PUSH1 0x4 ADD PUSH1 0x0 PUSH1 0x40 MLOAD DUP1 DUP4 SUB DUP2 DUP6 DUP9 DUP1 EXTCODESIZE ISZERO DUP1 ISZERO PUSH2 0x1412 JUMPI PUSH1 0x0 DUP1 REVERT JUMPDEST POP GAS CALL ISZERO DUP1 ISZERO PUSH2 0x1426 JUMPI RETURNDATASIZE PUSH1 0x0 DUP1 RETURNDATACOPY RETURNDATASIZE PUSH1 0x0 REVERT JUMPDEST POP POP POP POP POP PUSH32 0x0 PUSH1 0x1 PUSH1 0x1 PUSH1 0xA0 SHL SUB AND PUSH4 0xA9059CBB PUSH2 0x14A8 PUSH32 0x0 DUP10 DUP10 PUSH1 0x0 DUP2 DUP2 LT PUSH2 0x148B JUMPI INVALID JUMPDEST SWAP1 POP PUSH1 0x20 MUL ADD CALLDATALOAD PUSH1 0x1 PUSH1 0x1 PUSH1 0xA0 SHL SUB AND DUP11 DUP11 PUSH1 0x1 DUP2 DUP2 LT PUSH2 0xCE1 JUMPI INVALID JUMPDEST DUP5 PUSH1 0x0 DUP2 MLOAD DUP2 LT PUSH2 0x14B5 JUMPI INVALID JUMPDEST PUSH1 0x20 MUL PUSH1 0x20 ADD ADD MLOAD PUSH1 0x40 MLOAD DUP4 PUSH4 0xFFFFFFFF AND PUSH1 0xE0 SHL DUP2 MSTORE PUSH1 0x4 ADD DUP1 DUP4 PUSH1 0x1 PUSH1 0x1 PUSH1 0xA0 SHL SUB AND PUSH1 0x1 PUSH1 0x1 PUSH1 0xA0 SHL SUB AND DUP2 MSTORE PUSH1 0x20 ADD DUP3 DUP2 MSTORE PUSH1 0x20 ADD SWAP3 POP POP POP PUSH1 0x20 PUSH1 0x40 MLOAD DUP1 DUP4 SUB DUP2 PUSH1 0x0 DUP8 DUP1 EXTCODESIZE ISZERO DUP1 ISZERO PUSH2 0x150C JUMPI PUSH1 0x0 DUP1 REVERT JUMPDEST POP GAS CALL ISZERO DUP1 ISZERO PUSH2 0x1520 JUMPI RETURNDATASIZE PUSH1 0x0 DUP1 RETURNDATACOPY RETURNDATASIZE PUSH1 0x0 REVERT JUMPDEST POP POP POP POP PUSH1 0x40 MLOAD RETURNDATASIZE PUSH1 0x20 DUP2 LT ISZERO PUSH2 0x1536 JUMPI PUSH1 0x0 DUP1 REVERT JUMPDEST POP MLOAD PUSH2 0x153E JUMPI INVALID JUMPDEST PUSH2 0x157D DUP3 DUP8 DUP8 DUP1 DUP1 PUSH1 0x20 MUL PUSH1 0x20 ADD PUSH1 0x40 MLOAD SWAP1 DUP2 ADD PUSH1 0x40 MSTORE DUP1 SWAP4 SWAP3 SWAP2 SWAP1 DUP2 DUP2 MSTORE PUSH1 0x20 ADD DUP4 DUP4 PUSH1 0x20 MUL DUP1 DUP3 DUP5 CALLDATACOPY PUSH1 0x0 SWAP3 ADD SWAP2 SWAP1 SWAP2 MSTORE POP DUP10 SWAP3 POP PUSH2 0x2862 SWAP2 POP POP JUMP JUMPDEST POP SWAP6 SWAP5 POP POP POP POP POP JUMP JUMPDEST PUSH1 0x60 DUP2 TIMESTAMP DUP2 LT ISZERO PUSH2 0x15CD JUMPI PUSH1 0x40 DUP1 MLOAD PUSH3 0x461BCD PUSH1 0xE5 SHL DUP2 MSTORE PUSH1 0x20 PUSH1 0x4 DUP3 ADD MSTORE PUSH1 0x16 PUSH1 0x24 DUP3 ADD MSTORE PUSH1 0x0 DUP1 MLOAD PUSH1 0x20 PUSH2 0x3363 DUP4 CODECOPY DUP2 MLOAD SWAP2 MSTORE PUSH1 0x44 DUP3 ADD MSTORE SWAP1 MLOAD SWAP1 DUP2 SWAP1 SUB PUSH1 0x64 ADD SWAP1 REVERT JUMPDEST PUSH2 0x162B PUSH32 0x0 DUP10 DUP9 DUP9 DUP1 DUP1 PUSH1 0x20 MUL PUSH1 0x20 ADD PUSH1 0x40 MLOAD SWAP1 DUP2 ADD PUSH1 0x40 MSTORE DUP1 SWAP4 SWAP3 SWAP2 SWAP1 DUP2 DUP2 MSTORE PUSH1 0x20 ADD DUP4 DUP4 PUSH1 0x20 MUL DUP1 DUP3 DUP5 CALLDATACOPY PUSH1 0x0 SWAP3 ADD SWAP2 SWAP1 SWAP2 MSTORE POP PUSH2 0x2AA8 SWAP3 POP POP POP JUMP JUMPDEST SWAP2 POP DUP7 DUP3 PUSH1 0x0 DUP2 MLOAD DUP2 LT PUSH2 0x163B JUMPI INVALID JUMPDEST PUSH1 0x20 MUL PUSH1 0x20 ADD ADD MLOAD GT ISZERO PUSH2 0x103C JUMPI PUSH1 0x40 MLOAD PUSH3 0x461BCD PUSH1 0xE5 SHL DUP2 MSTORE PUSH1 0x4 ADD DUP1 DUP1 PUSH1 0x20 ADD DUP3 DUP2 SUB DUP3 MSTORE PUSH1 0x25 DUP2 MSTORE PUSH1 0x20 ADD DUP1 PUSH2 0x3463 PUSH1 0x25 SWAP2 CODECOPY PUSH1 0x40 ADD SWAP2 POP POP PUSH1 0x40 MLOAD DUP1 SWAP2 SUB SWAP1 REVERT JUMPDEST PUSH32 0x0 DUP2 JUMP JUMPDEST PUSH1 0x0 PUSH2 0xADB DUP5 DUP5 DUP5 PUSH2 0x2BE0 JUMP JUMPDEST PUSH1 0x0 DUP1 DUP3 TIMESTAMP DUP2 LT ISZERO PUSH2 0x16F8 JUMPI PUSH1 0x40 DUP1 MLOAD PUSH3 0x461BCD PUSH1 0xE5 SHL DUP2 MSTORE PUSH1 0x20 PUSH1 0x4 DUP3 ADD MSTORE PUSH1 0x16 PUSH1 0x24 DUP3 ADD MSTORE PUSH1 0x0 DUP1 MLOAD PUSH1 0x20 PUSH2 0x3363 DUP4 CODECOPY DUP2 MLOAD SWAP2 MSTORE PUSH1 0x44 DUP3 ADD MSTORE SWAP1 MLOAD SWAP1 DUP2 SWAP1 SUB PUSH1 0x64 ADD SWAP1 REVERT JUMPDEST PUSH1 0x0 PUSH2 0x1725 PUSH32 0x0 DUP13 DUP13 PUSH2 0x2645 JUMP JUMPDEST PUSH1 0x40 DUP1 MLOAD PUSH4 0x23B872DD PUSH1 0xE0 SHL DUP2 MSTORE CALLER PUSH1 0x4 DUP3 ADD MSTORE PUSH1 0x1 PUSH1 0x1 PUSH1 0xA0 SHL SUB DUP4 AND PUSH1 0x24 DUP3 ADD DUP2 SWAP1 MSTORE PUSH1 0x44 DUP3 ADD DUP14 SWAP1 MSTORE SWAP2 MLOAD SWAP3 SWAP4 POP SWAP1 SWAP2 PUSH4 0x23B872DD SWAP2 PUSH1 0x64 DUP1 DUP3 ADD SWAP3 PUSH1 0x20 SWAP3 SWAP1 SWAP2 SWAP1 DUP3 SWAP1 SUB ADD DUP2 PUSH1 0x0 DUP8 DUP1 EXTCODESIZE ISZERO DUP1 ISZERO PUSH2 0x1780 JUMPI PUSH1 0x0 DUP1 REVERT JUMPDEST POP GAS CALL ISZERO DUP1 ISZERO PUSH2 0x1794 JUMPI RETURNDATASIZE PUSH1 0x0 DUP1 RETURNDATACOPY RETURNDATASIZE PUSH1 0x0 REVERT JUMPDEST POP POP POP POP PUSH1 0x40 MLOAD RETURNDATASIZE PUSH1 0x20 DUP2 LT ISZERO PUSH2 0x17AA JUMPI PUSH1 0x0 DUP1 REVERT JUMPDEST POP POP PUSH1 0x40 DUP1 MLOAD PUSH4 0x226BF2D1 PUSH1 0xE2 SHL DUP2 MSTORE PUSH1 0x1 PUSH1 0x1 PUSH1 0xA0 SHL SUB DUP9 DUP2 AND PUSH1 0x4 DUP4 ADD MSTORE DUP3 MLOAD PUSH1 0x0 SWAP4 DUP5 SWAP4 SWAP3 DUP7 AND SWAP3 PUSH4 0x89AFCB44 SWAP3 PUSH1 0x24 DUP1 DUP4 ADD SWAP4 SWAP3 DUP3 SWAP1 SUB ADD DUP2 DUP8 DUP8 DUP1 EXTCODESIZE ISZERO DUP1 ISZERO PUSH2 0x17F7 JUMPI PUSH1 0x0 DUP1 REVERT JUMPDEST POP GAS CALL ISZERO DUP1 ISZERO PUSH2 0x180B JUMPI RETURNDATASIZE PUSH1 0x0 DUP1 RETURNDATACOPY RETURNDATASIZE PUSH1 0x0 REVERT JUMPDEST POP POP POP POP PUSH1 0x40 MLOAD RETURNDATASIZE PUSH1 0x40 DUP2 LT ISZERO PUSH2 0x1821 JUMPI PUSH1 0x0 DUP1 REVERT JUMPDEST POP DUP1 MLOAD PUSH1 0x20 SWAP1 SWAP2 ADD MLOAD SWAP1 SWAP3 POP SWAP1 POP PUSH1 0x0 PUSH2 0x183B DUP15 DUP15 PUSH2 0x2C8C JUMP JUMPDEST POP SWAP1 POP DUP1 PUSH1 0x1 PUSH1 0x1 PUSH1 0xA0 SHL SUB AND DUP15 PUSH1 0x1 PUSH1 0x1 PUSH1 0xA0 SHL SUB AND EQ PUSH2 0x185E JUMPI DUP2 DUP4 PUSH2 0x1861 JUMP JUMPDEST DUP3 DUP3 JUMPDEST SWAP1 SWAP8 POP SWAP6 POP DUP11 DUP8 LT ISZERO PUSH2 0x18A5 JUMPI PUSH1 0x40 MLOAD PUSH3 0x461BCD PUSH1 0xE5 SHL DUP2 MSTORE PUSH1 0x4 ADD DUP1 DUP1 PUSH1 0x20 ADD DUP3 DUP2 SUB DUP3 MSTORE PUSH1 0x24 DUP2 MSTORE PUSH1 0x20 ADD DUP1 PUSH2 0x33EF PUSH1 0x24 SWAP2 CODECOPY PUSH1 0x40 ADD SWAP2 POP POP PUSH1 0x40 MLOAD DUP1 SWAP2 SUB SWAP1 REVERT JUMPDEST DUP10 DUP7 LT ISZERO PUSH2 0x18E4 JUMPI PUSH1 0x40 MLOAD PUSH3 0x461BCD PUSH1 0xE5 SHL DUP2 MSTORE PUSH1 0x4 ADD DUP1 DUP1 PUSH1 0x20 ADD DUP3 DUP2 SUB DUP3 MSTORE PUSH1 0x24 DUP2 MSTORE PUSH1 0x20 ADD DUP1 PUSH2 0x34AE PUSH1 0x24 SWAP2 CODECOPY PUSH1 0x40 ADD SWAP2 POP POP PUSH1 0x40 MLOAD DUP1 SWAP2 SUB SWAP1 REVERT JUMPDEST POP POP POP POP POP SWAP8 POP SWAP8 SWAP6 POP POP POP POP POP POP JUMP JUMPDEST PUSH32 0x0 DUP2 JUMP JUMPDEST PUSH1 0x60 PUSH2 0xE3D PUSH32 0x0 DUP5 DUP5 PUSH2 0x24F9 JUMP JUMPDEST PUSH1 0x0 DUP1 PUSH1 0x0 PUSH2 0x1996 PUSH32 0x0 DUP15 PUSH32 0x0 PUSH2 0x2645 JUMP JUMPDEST SWAP1 POP PUSH1 0x0 DUP8 PUSH2 0x19A5 JUMPI DUP13 PUSH2 0x19A9 JUMP JUMPDEST PUSH1 0x0 NOT JUMPDEST PUSH1 0x40 DUP1 MLOAD PUSH4 0xD505ACCF PUSH1 0xE0 SHL DUP2 MSTORE CALLER PUSH1 0x4 DUP3 ADD MSTORE ADDRESS PUSH1 0x24 DUP3 ADD MSTORE PUSH1 0x44 DUP2 ADD DUP4 SWAP1 MSTORE PUSH1 0x64 DUP2 ADD DUP13 SWAP1 MSTORE PUSH1 0xFF DUP11 AND PUSH1 0x84 DUP3 ADD MSTORE PUSH1 0xA4 DUP2 ADD DUP10 SWAP1 MSTORE PUSH1 0xC4 DUP2 ADD DUP9 SWAP1 MSTORE SWAP1 MLOAD SWAP2 SWAP3 POP PUSH1 0x1 PUSH1 0x1 PUSH1 0xA0 SHL SUB DUP5 AND SWAP2 PUSH4 0xD505ACCF SWAP2 PUSH1 0xE4 DUP1 DUP3 ADD SWAP3 PUSH1 0x0 SWAP3 SWAP1 SWAP2 SWAP1 DUP3 SWAP1 SUB ADD DUP2 DUP4 DUP8 DUP1 EXTCODESIZE ISZERO DUP1 ISZERO PUSH2 0x1A1F JUMPI PUSH1 0x0 DUP1 REVERT JUMPDEST POP GAS CALL ISZERO DUP1 ISZERO PUSH2 0x1A33 JUMPI RETURNDATASIZE PUSH1 0x0 DUP1 RETURNDATACOPY RETURNDATASIZE PUSH1 0x0 REVERT JUMPDEST POP POP POP POP PUSH2 0x1A45 DUP15 DUP15 DUP15 DUP15 DUP15 DUP15 PUSH2 0x9B4 JUMP JUMPDEST SWAP1 SWAP16 SWAP1 SWAP15 POP SWAP13 POP POP POP POP POP POP POP POP POP POP POP POP POP JUMP JUMPDEST PUSH1 0x0 DUP1 PUSH1 0x0 DUP4 TIMESTAMP DUP2 LT ISZERO PUSH2 0x1AA3 JUMPI PUSH1 0x40 DUP1 MLOAD PUSH3 0x461BCD PUSH1 0xE5 SHL DUP2 MSTORE PUSH1 0x20 PUSH1 0x4 DUP3 ADD MSTORE PUSH1 0x16 PUSH1 0x24 DUP3 ADD MSTORE PUSH1 0x0 DUP1 MLOAD PUSH1 0x20 PUSH2 0x3363 DUP4 CODECOPY DUP2 MLOAD SWAP2 MSTORE PUSH1 0x44 DUP3 ADD MSTORE SWAP1 MLOAD SWAP1 DUP2 SWAP1 SUB PUSH1 0x64 ADD SWAP1 REVERT JUMPDEST PUSH2 0x1AB1 DUP13 DUP13 DUP13 DUP13 DUP13 DUP13 PUSH2 0x2D6A JUMP JUMPDEST SWAP1 SWAP5 POP SWAP3 POP PUSH1 0x0 PUSH2 0x1AE3 PUSH32 0x0 DUP15 DUP15 PUSH2 0x2645 JUMP JUMPDEST SWAP1 POP PUSH2 0x1AF1 DUP14 CALLER DUP4 DUP9 PUSH2 0x2705 JUMP JUMPDEST PUSH2 0x1AFD DUP13 CALLER DUP4 DUP8 PUSH2 0x2705 JUMP JUMPDEST DUP1 PUSH1 0x1 PUSH1 0x1 PUSH1 0xA0 SHL SUB AND PUSH4 0x6A627842 DUP9 PUSH1 0x40 MLOAD DUP3 PUSH4 0xFFFFFFFF AND PUSH1 0xE0 SHL DUP2 MSTORE PUSH1 0x4 ADD DUP1 DUP3 PUSH1 0x1 PUSH1 0x1 PUSH1 0xA0 SHL SUB AND PUSH1 0x1 PUSH1 0x1 PUSH1 0xA0 SHL SUB AND DUP2 MSTORE PUSH1 0x20 ADD SWAP2 POP POP PUSH1 0x20 PUSH1 0x40 MLOAD DUP1 DUP4 SUB DUP2 PUSH1 0x0 DUP8 DUP1 EXTCODESIZE ISZERO DUP1 ISZERO PUSH2 0x1B55 JUMPI PUSH1 0x0 DUP1 REVERT JUMPDEST POP GAS CALL ISZERO DUP1 ISZERO PUSH2 0x1B69 JUMPI RETURNDATASIZE PUSH1 0x0 DUP1 RETURNDATACOPY RETURNDATASIZE PUSH1 0x0 REVERT JUMPDEST POP POP POP POP PUSH1 0x40 MLOAD RETURNDATASIZE PUSH1 0x20 DUP2 LT ISZERO PUSH2 0x1B7F JUMPI PUSH1 0x0 DUP1 REVERT JUMPDEST POP MLOAD SWAP5 SWAP14 SWAP4 SWAP13 POP SWAP4 SWAP11 POP SWAP2 SWAP9 POP POP POP POP POP POP POP POP POP JUMP JUMPDEST PUSH1 0x0 DUP1 PUSH1 0x0 DUP4 TIMESTAMP DUP2 LT ISZERO PUSH2 0x1BDF JUMPI PUSH1 0x40 DUP1 MLOAD PUSH3 0x461BCD PUSH1 0xE5 SHL DUP2 MSTORE PUSH1 0x20 PUSH1 0x4 DUP3 ADD MSTORE PUSH1 0x16 PUSH1 0x24 DUP3 ADD MSTORE PUSH1 0x0 DUP1 MLOAD PUSH1 0x20 PUSH2 0x3363 DUP4 CODECOPY DUP2 MLOAD SWAP2 MSTORE PUSH1 0x44 DUP3 ADD MSTORE SWAP1 MLOAD SWAP1 DUP2 SWAP1 SUB PUSH1 0x64 ADD SWAP1 REVERT JUMPDEST PUSH2 0x1C0D DUP11 PUSH32 0x0 DUP12 CALLVALUE DUP13 DUP13 PUSH2 0x2D6A JUMP JUMPDEST SWAP1 SWAP5 POP SWAP3 POP PUSH1 0x0 PUSH2 0x1C5F PUSH32 0x0 DUP13 PUSH32 0x0 PUSH2 0x2645 JUMP JUMPDEST SWAP1 POP PUSH2 0x1C6D DUP12 CALLER DUP4 DUP9 PUSH2 0x2705 JUMP JUMPDEST PUSH32 0x0 PUSH1 0x1 PUSH1 0x1 PUSH1 0xA0 SHL SUB AND PUSH4 0xD0E30DB0 DUP6 PUSH1 0x40 MLOAD DUP3 PUSH4 0xFFFFFFFF AND PUSH1 0xE0 SHL DUP2 MSTORE PUSH1 0x4 ADD PUSH1 0x0 PUSH1 0x40 MLOAD DUP1 DUP4 SUB DUP2 DUP6 DUP9 DUP1 EXTCODESIZE ISZERO DUP1 ISZERO PUSH2 0x1CC8 JUMPI PUSH1 0x0 DUP1 REVERT JUMPDEST POP GAS CALL ISZERO DUP1 ISZERO PUSH2 0x1CDC JUMPI RETURNDATASIZE PUSH1 0x0 DUP1 RETURNDATACOPY RETURNDATASIZE PUSH1 0x0 REVERT JUMPDEST POP POP POP POP POP PUSH32 0x0 PUSH1 0x1 PUSH1 0x1 PUSH1 0xA0 SHL SUB AND PUSH4 0xA9059CBB DUP3 DUP7 PUSH1 0x40 MLOAD DUP4 PUSH4 0xFFFFFFFF AND PUSH1 0xE0 SHL DUP2 MSTORE PUSH1 0x4 ADD DUP1 DUP4 PUSH1 0x1 PUSH1 0x1 PUSH1 0xA0 SHL SUB AND PUSH1 0x1 PUSH1 0x1 PUSH1 0xA0 SHL SUB AND DUP2 MSTORE PUSH1 0x20 ADD DUP3 DUP2 MSTORE PUSH1 0x20 ADD SWAP3 POP POP POP PUSH1 0x20 PUSH1 0x40 MLOAD DUP1 DUP4 SUB DUP2 PUSH1 0x0 DUP8 DUP1 EXTCODESIZE ISZERO DUP1 ISZERO PUSH2 0x1D61 JUMPI PUSH1 0x0 DUP1 REVERT JUMPDEST POP GAS CALL ISZERO DUP1 ISZERO PUSH2 0x1D75 JUMPI RETURNDATASIZE PUSH1 0x0 DUP1 RETURNDATACOPY RETURNDATASIZE PUSH1 0x0 REVERT JUMPDEST POP POP POP POP PUSH1 0x40 MLOAD RETURNDATASIZE PUSH1 0x20 DUP2 LT ISZERO PUSH2 0x1D8B JUMPI PUSH1 0x0 DUP1 REVERT JUMPDEST POP MLOAD PUSH2 0x1D93 JUMPI INVALID JUMPDEST DUP1 PUSH1 0x1 PUSH1 0x1 PUSH1 0xA0 SHL SUB AND PUSH4 0x6A627842 DUP9 PUSH1 0x40 MLOAD DUP3 PUSH4 0xFFFFFFFF AND PUSH1 0xE0 SHL DUP2 MSTORE PUSH1 0x4 ADD DUP1 DUP3 PUSH1 0x1 PUSH1 0x1 PUSH1 0xA0 SHL SUB AND PUSH1 0x1 PUSH1 0x1 PUSH1 0xA0 SHL SUB AND DUP2 MSTORE PUSH1 0x20 ADD SWAP2 POP POP PUSH1 0x20 PUSH1 0x40 MLOAD DUP1 DUP4 SUB DUP2 PUSH1 0x0 DUP8 DUP1 EXTCODESIZE ISZERO DUP1 ISZERO PUSH2 0x1DEB JUMPI PUSH1 0x0 DUP1 REVERT JUMPDEST POP GAS CALL ISZERO DUP1 ISZERO PUSH2 0x1DFF JUMPI RETURNDATASIZE PUSH1 0x0 DUP1 RETURNDATACOPY RETURNDATASIZE PUSH1 0x0 REVERT JUMPDEST POP POP POP POP PUSH1 0x40 MLOAD RETURNDATASIZE PUSH1 0x20 DUP2 LT ISZERO PUSH2 0x1E15 JUMPI PUSH1 0x0 DUP1 REVERT JUMPDEST POP MLOAD SWAP3 POP CALLVALUE DUP5 LT ISZERO PUSH2 0x1E2D JUMPI PUSH2 0x1E2D CALLER DUP6 CALLVALUE SUB PUSH2 0x2311 JUMP JUMPDEST POP POP SWAP7 POP SWAP7 POP SWAP7 SWAP4 POP POP POP POP JUMP JUMPDEST PUSH1 0x60 DUP2 TIMESTAMP DUP2 LT ISZERO PUSH2 0x1E81 JUMPI PUSH1 0x40 DUP1 MLOAD PUSH3 0x461BCD PUSH1 0xE5 SHL DUP2 MSTORE PUSH1 0x20 PUSH1 0x4 DUP3 ADD MSTORE PUSH1 0x16 PUSH1 0x24 DUP3 ADD MSTORE PUSH1 0x0 DUP1 MLOAD PUSH1 0x20 PUSH2 0x3363 DUP4 CODECOPY DUP2 MLOAD SWAP2 MSTORE PUSH1 0x44 DUP3 ADD MSTORE SWAP1 MLOAD SWAP1 DUP2 SWAP1 SUB PUSH1 0x64 ADD SWAP1 REVERT JUMPDEST PUSH32 0x0 PUSH1 0x1 PUSH1 0x1 PUSH1 0xA0 SHL SUB AND DUP7 DUP7 PUSH1 0x0 DUP2 DUP2 LT PUSH2 0x1EB8 JUMPI INVALID JUMPDEST SWAP1 POP PUSH1 0x20 MUL ADD CALLDATALOAD PUSH1 0x1 PUSH1 0x1 PUSH1 0xA0 SHL SUB AND PUSH1 0x1 PUSH1 0x1 PUSH1 0xA0 SHL SUB AND EQ PUSH2 0x1F11 JUMPI PUSH1 0x40 DUP1 MLOAD PUSH3 0x461BCD PUSH1 0xE5 SHL DUP2 MSTORE PUSH1 0x20 PUSH1 0x4 DUP3 ADD MSTORE PUSH1 0x1B PUSH1 0x24 DUP3 ADD MSTORE PUSH1 0x0 DUP1 MLOAD PUSH1 0x20 PUSH2 0x33CF DUP4 CODECOPY DUP2 MLOAD SWAP2 MSTORE PUSH1 0x44 DUP3 ADD MSTORE SWAP1 MLOAD SWAP1 DUP2 SWAP1 SUB PUSH1 0x64 ADD SWAP1 REVERT JUMPDEST PUSH2 0x1F6F PUSH32 0x0 DUP9 DUP9 DUP9 DUP1 DUP1 PUSH1 0x20 MUL PUSH1 0x20 ADD PUSH1 0x40 MLOAD SWAP1 DUP2 ADD PUSH1 0x40 MSTORE DUP1 SWAP4 SWAP3 SWAP2 SWAP1 DUP2 DUP2 MSTORE PUSH1 0x20 ADD DUP4 DUP4 PUSH1 0x20 MUL DUP1 DUP3 DUP5 CALLDATACOPY PUSH1 0x0 SWAP3 ADD SWAP2 SWAP1 SWAP2 MSTORE POP PUSH2 0x2AA8 SWAP3 POP POP POP JUMP JUMPDEST SWAP2 POP CALLVALUE DUP3 PUSH1 0x0 DUP2 MLOAD DUP2 LT PUSH2 0x1F7F JUMPI INVALID JUMPDEST PUSH1 0x20 MUL PUSH1 0x20 ADD ADD MLOAD GT ISZERO PUSH2 0x1FC4 JUMPI PUSH1 0x40 MLOAD PUSH3 0x461BCD PUSH1 0xE5 SHL DUP2 MSTORE PUSH1 0x4 ADD DUP1 DUP1 PUSH1 0x20 ADD DUP3 DUP2 SUB DUP3 MSTORE PUSH1 0x25 DUP2 MSTORE PUSH1 0x20 ADD DUP1 PUSH2 0x3463 PUSH1 0x25 SWAP2 CODECOPY PUSH1 0x40 ADD SWAP2 POP POP PUSH1 0x40 MLOAD DUP1 SWAP2 SUB SWAP1 REVERT JUMPDEST PUSH32 0x0 PUSH1 0x1 PUSH1 0x1 PUSH1 0xA0 SHL SUB AND PUSH4 0xD0E30DB0 DUP4 PUSH1 0x0 DUP2 MLOAD DUP2 LT PUSH2 0x2000 JUMPI INVALID JUMPDEST PUSH1 0x20 MUL PUSH1 0x20 ADD ADD MLOAD PUSH1 0x40 MLOAD DUP3 PUSH4 0xFFFFFFFF AND PUSH1 0xE0 SHL DUP2 MSTORE PUSH1 0x4 ADD PUSH1 0x0 PUSH1 0x40 MLOAD DUP1 DUP4 SUB DUP2 DUP6 DUP9 DUP1 EXTCODESIZE ISZERO DUP1 ISZERO PUSH2 0x2033 JUMPI PUSH1 0x0 DUP1 REVERT JUMPDEST POP GAS CALL ISZERO DUP1 ISZERO PUSH2 0x2047 JUMPI RETURNDATASIZE PUSH1 0x0 DUP1 RETURNDATACOPY RETURNDATASIZE PUSH1 0x0 REVERT JUMPDEST POP POP POP POP POP PUSH32 0x0 PUSH1 0x1 PUSH1 0x1 PUSH1 0xA0 SHL SUB AND PUSH4 0xA9059CBB PUSH2 0x20AC PUSH32 0x0 DUP10 DUP10 PUSH1 0x0 DUP2 DUP2 LT PUSH2 0x148B JUMPI INVALID JUMPDEST DUP5 PUSH1 0x0 DUP2 MLOAD DUP2 LT PUSH2 0x20B9 JUMPI INVALID JUMPDEST PUSH1 0x20 MUL PUSH1 0x20 ADD ADD MLOAD PUSH1 0x40 MLOAD DUP4 PUSH4 0xFFFFFFFF AND PUSH1 0xE0 SHL DUP2 MSTORE PUSH1 0x4 ADD DUP1 DUP4 PUSH1 0x1 PUSH1 0x1 PUSH1 0xA0 SHL SUB AND PUSH1 0x1 PUSH1 0x1 PUSH1 0xA0 SHL SUB AND DUP2 MSTORE PUSH1 0x20 ADD DUP3 DUP2 MSTORE PUSH1 0x20 ADD SWAP3 POP POP POP PUSH1 0x20 PUSH1 0x40 MLOAD DUP1 DUP4 SUB DUP2 PUSH1 0x0 DUP8 DUP1 EXTCODESIZE ISZERO DUP1 ISZERO PUSH2 0x2110 JUMPI PUSH1 0x0 DUP1 REVERT JUMPDEST POP GAS CALL ISZERO DUP1 ISZERO PUSH2 0x2124 JUMPI RETURNDATASIZE PUSH1 0x0 DUP1 RETURNDATACOPY RETURNDATASIZE PUSH1 0x0 REVERT JUMPDEST POP POP POP POP PUSH1 0x40 MLOAD RETURNDATASIZE PUSH1 0x20 DUP2 LT ISZERO PUSH2 0x213A JUMPI PUSH1 0x0 DUP1 REVERT JUMPDEST POP MLOAD PUSH2 0x2142 JUMPI INVALID JUMPDEST PUSH2 0x2181 DUP3 DUP8 DUP8 DUP1 DUP1 PUSH1 0x20 MUL PUSH1 0x20 ADD PUSH1 0x40 MLOAD SWAP1 DUP2 ADD PUSH1 0x40 MSTORE DUP1 SWAP4 SWAP3 SWAP2 SWAP1 DUP2 DUP2 MSTORE PUSH1 0x20 ADD DUP4 DUP4 PUSH1 0x20 MUL DUP1 DUP3 DUP5 CALLDATACOPY PUSH1 0x0 SWAP3 ADD SWAP2 SWAP1 SWAP2 MSTORE POP DUP10 SWAP3 POP PUSH2 0x2862 SWAP2 POP POP JUMP JUMPDEST DUP2 PUSH1 0x0 DUP2 MLOAD DUP2 LT PUSH2 0x218E JUMPI INVALID JUMPDEST PUSH1 0x20 MUL PUSH1 0x20 ADD ADD MLOAD CALLVALUE GT ISZERO PUSH2 0x157D JUMPI PUSH2 0x157D CALLER DUP4 PUSH1 0x0 DUP2 MLOAD DUP2 LT PUSH2 0x21AE JUMPI INVALID JUMPDEST PUSH1 0x20 MUL PUSH1 0x20 ADD ADD MLOAD CALLVALUE SUB PUSH2 0x2311 JUMP JUMPDEST PUSH1 0x40 DUP1 MLOAD PUSH1 0x1 PUSH1 0x1 PUSH1 0xA0 SHL SUB DUP5 DUP2 AND PUSH1 0x24 DUP4 ADD MSTORE PUSH1 0x44 DUP1 DUP4 ADD DUP6 SWAP1 MSTORE DUP4 MLOAD DUP1 DUP5 SUB SWAP1 SWAP2 ADD DUP2 MSTORE PUSH1 0x64 SWAP1 SWAP3 ADD DUP4 MSTORE PUSH1 0x20 DUP3 ADD DUP1 MLOAD PUSH1 0x1 PUSH1 0x1 PUSH1 0xE0 SHL SUB AND PUSH4 0xA9059CBB PUSH1 0xE0 SHL OR DUP2 MSTORE SWAP3 MLOAD DUP3 MLOAD PUSH1 0x0 SWAP5 PUSH1 0x60 SWAP5 SWAP4 DUP10 AND SWAP4 SWAP3 SWAP2 DUP3 SWAP2 SWAP1 DUP1 DUP4 DUP4 JUMPDEST PUSH1 0x20 DUP4 LT PUSH2 0x223A JUMPI DUP1 MLOAD DUP3 MSTORE PUSH1 0x1F NOT SWAP1 SWAP3 ADD SWAP2 PUSH1 0x20 SWAP2 DUP3 ADD SWAP2 ADD PUSH2 0x221B JUMP JUMPDEST PUSH1 0x1 DUP4 PUSH1 0x20 SUB PUSH2 0x100 EXP SUB DUP1 NOT DUP3 MLOAD AND DUP2 DUP5 MLOAD AND DUP1 DUP3 OR DUP6 MSTORE POP POP POP POP POP POP SWAP1 POP ADD SWAP2 POP POP PUSH1 0x0 PUSH1 0x40 MLOAD DUP1 DUP4 SUB DUP2 PUSH1 0x0 DUP7 GAS CALL SWAP2 POP POP RETURNDATASIZE DUP1 PUSH1 0x0 DUP2 EQ PUSH2 0x229C JUMPI PUSH1 0x40 MLOAD SWAP2 POP PUSH1 0x1F NOT PUSH1 0x3F RETURNDATASIZE ADD AND DUP3 ADD PUSH1 0x40 MSTORE RETURNDATASIZE DUP3 MSTORE RETURNDATASIZE PUSH1 0x0 PUSH1 0x20 DUP5 ADD RETURNDATACOPY PUSH2 0x22A1 JUMP JUMPDEST PUSH1 0x60 SWAP2 POP JUMPDEST POP SWAP2 POP SWAP2 POP DUP2 DUP1 ISZERO PUSH2 0x22CF JUMPI POP DUP1 MLOAD ISZERO DUP1 PUSH2 0x22CF JUMPI POP DUP1 DUP1 PUSH1 0x20 ADD SWAP1 MLOAD PUSH1 0x20 DUP2 LT ISZERO PUSH2 0x22CC JUMPI PUSH1 0x0 DUP1 REVERT JUMPDEST POP MLOAD JUMPDEST PUSH2 0x230A JUMPI PUSH1 0x40 MLOAD PUSH3 0x461BCD PUSH1 0xE5 SHL DUP2 MSTORE PUSH1 0x4 ADD DUP1 DUP1 PUSH1 0x20 ADD DUP3 DUP2 SUB DUP3 MSTORE PUSH1 0x2D DUP2 MSTORE PUSH1 0x20 ADD DUP1 PUSH2 0x3436 PUSH1 0x2D SWAP2 CODECOPY PUSH1 0x40 ADD SWAP2 POP POP PUSH1 0x40 MLOAD DUP1 SWAP2 SUB SWAP1 REVERT JUMPDEST POP POP POP POP POP JUMP JUMPDEST PUSH1 0x40 DUP1 MLOAD PUSH1 0x0 DUP1 DUP3 MSTORE PUSH1 0x20 DUP3 ADD SWAP1 SWAP3 MSTORE PUSH1 0x1 PUSH1 0x1 PUSH1 0xA0 SHL SUB DUP5 AND SWAP1 DUP4 SWAP1 PUSH1 0x40 MLOAD DUP1 DUP3 DUP1 MLOAD SWAP1 PUSH1 0x20 ADD SWAP1 DUP1 DUP4 DUP4 JUMPDEST PUSH1 0x20 DUP4 LT PUSH2 0x235D JUMPI DUP1 MLOAD DUP3 MSTORE PUSH1 0x1F NOT SWAP1 SWAP3 ADD SWAP2 PUSH1 0x20 SWAP2 DUP3 ADD SWAP2 ADD PUSH2 0x233E JUMP JUMPDEST PUSH1 0x1 DUP4 PUSH1 0x20 SUB PUSH2 0x100 EXP SUB DUP1 NOT DUP3 MLOAD AND DUP2 DUP5 MLOAD AND DUP1 DUP3 OR DUP6 MSTORE POP POP POP POP POP POP SWAP1 POP ADD SWAP2 POP POP PUSH1 0x0 PUSH1 0x40 MLOAD DUP1 DUP4 SUB DUP2 DUP6 DUP8 GAS CALL SWAP3 POP POP POP RETURNDATASIZE DUP1 PUSH1 0x0 DUP2 EQ PUSH2 0x23BF JUMPI PUSH1 0x40 MLOAD SWAP2 POP PUSH1 0x1F NOT PUSH1 0x3F RETURNDATASIZE ADD AND DUP3 ADD PUSH1 0x40 MSTORE RETURNDATASIZE DUP3 MSTORE RETURNDATASIZE PUSH1 0x0 PUSH1 0x20 DUP5 ADD RETURNDATACOPY PUSH2 0x23C4 JUMP JUMPDEST PUSH1 0x60 SWAP2 POP JUMPDEST POP POP SWAP1 POP DUP1 PUSH2 0x2404 JUMPI PUSH1 0x40 MLOAD PUSH3 0x461BCD PUSH1 0xE5 SHL DUP2 MSTORE PUSH1 0x4 ADD DUP1 DUP1 PUSH1 0x20 ADD DUP3 DUP2 SUB DUP3 MSTORE PUSH1 0x34 DUP2 MSTORE PUSH1 0x20 ADD DUP1 PUSH2 0x332F PUSH1 0x34 SWAP2 CODECOPY PUSH1 0x40 ADD SWAP2 POP POP PUSH1 0x40 MLOAD DUP1 SWAP2 SUB SWAP1 REVERT JUMPDEST POP POP POP JUMP JUMPDEST PUSH1 0x0 DUP1 DUP5 GT PUSH2 0x2449 JUMPI PUSH1 0x40 MLOAD PUSH3 0x461BCD PUSH1 0xE5 SHL DUP2 MSTORE PUSH1 0x4 ADD DUP1 DUP1 PUSH1 0x20 ADD DUP3 DUP2 SUB DUP3 MSTORE PUSH1 0x29 DUP2 MSTORE PUSH1 0x20 ADD DUP1 PUSH2 0x32AB PUSH1 0x29 SWAP2 CODECOPY PUSH1 0x40 ADD SWAP2 POP POP PUSH1 0x40 MLOAD DUP1 SWAP2 SUB SWAP1 REVERT JUMPDEST PUSH1 0x0 DUP4 GT DUP1 ISZERO PUSH2 0x2459 JUMPI POP PUSH1 0x0 DUP3 GT JUMPDEST PUSH2 0x2494 JUMPI PUSH1 0x40 MLOAD PUSH3 0x461BCD PUSH1 0xE5 SHL DUP2 MSTORE PUSH1 0x4 ADD DUP1 DUP1 PUSH1 0x20 ADD DUP3 DUP2 SUB DUP3 MSTORE PUSH1 0x26 DUP2 MSTORE PUSH1 0x20 ADD DUP1 PUSH2 0x3488 PUSH1 0x26 SWAP2 CODECOPY PUSH1 0x40 ADD SWAP2 POP POP PUSH1 0x40 MLOAD DUP1 SWAP2 SUB SWAP1 REVERT JUMPDEST PUSH1 0x0 PUSH2 0x24A8 DUP6 PUSH2 0x26F7 PUSH4 0xFFFFFFFF PUSH2 0x2FDE AND JUMP JUMPDEST SWAP1 POP PUSH1 0x0 PUSH2 0x24BC DUP3 DUP6 PUSH4 0xFFFFFFFF PUSH2 0x2FDE AND JUMP JUMPDEST SWAP1 POP PUSH1 0x0 PUSH2 0x24E2 DUP4 PUSH2 0x24D6 DUP9 PUSH2 0x2710 PUSH4 0xFFFFFFFF PUSH2 0x2FDE AND JUMP JUMPDEST SWAP1 PUSH4 0xFFFFFFFF PUSH2 0x3041 AND JUMP JUMPDEST SWAP1 POP DUP1 DUP3 DUP2 PUSH2 0x24ED JUMPI INVALID JUMPDEST DIV SWAP8 SWAP7 POP POP POP POP POP POP POP JUMP JUMPDEST PUSH1 0x60 PUSH1 0x2 DUP3 MLOAD LT ISZERO PUSH2 0x2552 JUMPI PUSH1 0x40 DUP1 MLOAD PUSH3 0x461BCD PUSH1 0xE5 SHL DUP2 MSTORE PUSH1 0x20 PUSH1 0x4 DUP3 ADD MSTORE PUSH1 0x1C PUSH1 0x24 DUP3 ADD MSTORE PUSH32 0x50616E63616B654C6962726172793A20494E56414C49445F5041544800000000 PUSH1 0x44 DUP3 ADD MSTORE SWAP1 MLOAD SWAP1 DUP2 SWAP1 SUB PUSH1 0x64 ADD SWAP1 REVERT JUMPDEST DUP2 MLOAD PUSH8 0xFFFFFFFFFFFFFFFF DUP2 GT DUP1 ISZERO PUSH2 0x256A JUMPI PUSH1 0x0 DUP1 REVERT JUMPDEST POP PUSH1 0x40 MLOAD SWAP1 DUP1 DUP3 MSTORE DUP1 PUSH1 0x20 MUL PUSH1 0x20 ADD DUP3 ADD PUSH1 0x40 MSTORE DUP1 ISZERO PUSH2 0x2594 JUMPI DUP2 PUSH1 0x20 ADD PUSH1 0x20 DUP3 MUL DUP1 CALLDATASIZE DUP4 CALLDATACOPY ADD SWAP1 POP JUMPDEST POP SWAP1 POP DUP3 DUP2 PUSH1 0x0 DUP2 MLOAD DUP2 LT PUSH2 0x25A5 JUMPI INVALID JUMPDEST PUSH1 0x20 MUL PUSH1 0x20 ADD ADD DUP2 DUP2 MSTORE POP POP PUSH1 0x0 JUMPDEST PUSH1 0x1 DUP4 MLOAD SUB DUP2 LT ISZERO PUSH2 0x263D JUMPI PUSH1 0x0 DUP1 PUSH2 0x25F7 DUP8 DUP7 DUP6 DUP2 MLOAD DUP2 LT PUSH2 0x25D3 JUMPI INVALID JUMPDEST PUSH1 0x20 MUL PUSH1 0x20 ADD ADD MLOAD DUP8 DUP7 PUSH1 0x1 ADD DUP2 MLOAD DUP2 LT PUSH2 0x25EA JUMPI INVALID JUMPDEST PUSH1 0x20 MUL PUSH1 0x20 ADD ADD MLOAD PUSH2 0x3090 JUMP JUMPDEST SWAP2 POP SWAP2 POP PUSH2 0x2619 DUP5 DUP5 DUP2 MLOAD DUP2 LT PUSH2 0x260A JUMPI INVALID JUMPDEST PUSH1 0x20 MUL PUSH1 0x20 ADD ADD MLOAD DUP4 DUP4 PUSH2 0x2409 JUMP JUMPDEST DUP5 DUP5 PUSH1 0x1 ADD DUP2 MLOAD DUP2 LT PUSH2 0x2628 JUMPI INVALID JUMPDEST PUSH1 0x20 SWAP1 DUP2 MUL SWAP2 SWAP1 SWAP2 ADD ADD MSTORE POP POP PUSH1 0x1 ADD PUSH2 0x25B4 JUMP JUMPDEST POP SWAP4 SWAP3 POP POP POP JUMP JUMPDEST PUSH1 0x0 DUP1 PUSH1 0x0 PUSH2 0x2654 DUP6 DUP6 PUSH2 0x2C8C JUMP JUMPDEST PUSH1 0x40 DUP1 MLOAD PUSH12 0xFFFFFFFFFFFFFFFFFFFFFFFF NOT PUSH1 0x60 SWAP5 DUP6 SHL DUP2 AND PUSH1 0x20 DUP1 DUP5 ADD SWAP2 SWAP1 SWAP2 MSTORE SWAP4 DUP6 SHL DUP2 AND PUSH1 0x34 DUP4 ADD MSTORE DUP3 MLOAD PUSH1 0x28 DUP2 DUP5 SUB ADD DUP2 MSTORE PUSH1 0x48 DUP4 ADD DUP5 MSTORE DUP1 MLOAD SWAP1 DUP6 ADD KECCAK256 PUSH1 0x1 PUSH1 0x1 PUSH1 0xF8 SHL SUB NOT PUSH1 0x68 DUP5 ADD MSTORE SWAP11 SWAP1 SWAP5 SHL SWAP1 SWAP4 AND PUSH1 0x69 DUP5 ADD MSTORE PUSH1 0x7D DUP4 ADD SWAP9 SWAP1 SWAP9 MSTORE PUSH32 0x7D09279672F47C313283527FAE67786A91349449EB292CCAD7C5F8FE0D6F6972 PUSH1 0x9D DUP1 DUP5 ADD SWAP2 SWAP1 SWAP2 MSTORE DUP9 MLOAD DUP1 DUP5 SUB SWAP1 SWAP2 ADD DUP2 MSTORE PUSH1 0xBD SWAP1 SWAP3 ADD SWAP1 SWAP8 MSTORE DUP1 MLOAD SWAP7 ADD SWAP6 SWAP1 SWAP6 KECCAK256 SWAP6 SWAP5 POP POP POP POP POP JUMP JUMPDEST PUSH1 0x40 DUP1 MLOAD PUSH1 0x1 PUSH1 0x1 PUSH1 0xA0 SHL SUB DUP6 DUP2 AND PUSH1 0x24 DUP4 ADD MSTORE DUP5 DUP2 AND PUSH1 0x44 DUP4 ADD MSTORE PUSH1 0x64 DUP1 DUP4 ADD DUP6 SWAP1 MSTORE DUP4 MLOAD DUP1 DUP5 SUB SWAP1 SWAP2 ADD DUP2 MSTORE PUSH1 0x84 SWAP1 SWAP3 ADD DUP4 MSTORE PUSH1 0x20 DUP3 ADD DUP1 MLOAD PUSH1 0x1 PUSH1 0x1 PUSH1 0xE0 SHL SUB AND PUSH4 0x23B872DD PUSH1 0xE0 SHL OR DUP2 MSTORE SWAP3 MLOAD DUP3 MLOAD PUSH1 0x0 SWAP5 PUSH1 0x60 SWAP5 SWAP4 DUP11 AND SWAP4 SWAP3 SWAP2 DUP3 SWAP2 SWAP1 DUP1 DUP4 DUP4 JUMPDEST PUSH1 0x20 DUP4 LT PUSH2 0x278A JUMPI DUP1 MLOAD DUP3 MSTORE PUSH1 0x1F NOT SWAP1 SWAP3 ADD SWAP2 PUSH1 0x20 SWAP2 DUP3 ADD SWAP2 ADD PUSH2 0x276B JUMP JUMPDEST PUSH1 0x1 DUP4 PUSH1 0x20 SUB PUSH2 0x100 EXP SUB DUP1 NOT DUP3 MLOAD AND DUP2 DUP5 MLOAD AND DUP1 DUP3 OR DUP6 MSTORE POP POP POP POP POP POP SWAP1 POP ADD SWAP2 POP POP PUSH1 0x0 PUSH1 0x40 MLOAD DUP1 DUP4 SUB DUP2 PUSH1 0x0 DUP7 GAS CALL SWAP2 POP POP RETURNDATASIZE DUP1 PUSH1 0x0 DUP2 EQ PUSH2 0x27EC JUMPI PUSH1 0x40 MLOAD SWAP2 POP PUSH1 0x1F NOT PUSH1 0x3F RETURNDATASIZE ADD AND DUP3 ADD PUSH1 0x40 MSTORE RETURNDATASIZE DUP3 MSTORE RETURNDATASIZE PUSH1 0x0 PUSH1 0x20 DUP5 ADD RETURNDATACOPY PUSH2 0x27F1 JUMP JUMPDEST PUSH1 0x60 SWAP2 POP JUMPDEST POP SWAP2 POP SWAP2 POP DUP2 DUP1 ISZERO PUSH2 0x281F JUMPI POP DUP1 MLOAD ISZERO DUP1 PUSH2 0x281F JUMPI POP DUP1 DUP1 PUSH1 0x20 ADD SWAP1 MLOAD PUSH1 0x20 DUP2 LT ISZERO PUSH2 0x281C JUMPI PUSH1 0x0 DUP1 REVERT JUMPDEST POP MLOAD JUMPDEST PUSH2 0x285A JUMPI PUSH1 0x40 MLOAD PUSH3 0x461BCD PUSH1 0xE5 SHL DUP2 MSTORE PUSH1 0x4 ADD DUP1 DUP1 PUSH1 0x20 ADD DUP3 DUP2 SUB DUP3 MSTORE PUSH1 0x31 DUP2 MSTORE PUSH1 0x20 ADD DUP1 PUSH2 0x32FE PUSH1 0x31 SWAP2 CODECOPY PUSH1 0x40 ADD SWAP2 POP POP PUSH1 0x40 MLOAD DUP1 SWAP2 SUB SWAP1 REVERT JUMPDEST POP POP POP POP POP POP JUMP JUMPDEST PUSH1 0x0 JUMPDEST PUSH1 0x1 DUP4 MLOAD SUB DUP2 LT ISZERO PUSH2 0x2AA2 JUMPI PUSH1 0x0 DUP1 DUP5 DUP4 DUP2 MLOAD DUP2 LT PUSH2 0x2880 JUMPI INVALID JUMPDEST PUSH1 0x20 MUL PUSH1 0x20 ADD ADD MLOAD DUP6 DUP5 PUSH1 0x1 ADD DUP2 MLOAD DUP2 LT PUSH2 0x2897 JUMPI INVALID JUMPDEST PUSH1 0x20 MUL PUSH1 0x20 ADD ADD MLOAD SWAP2 POP SWAP2 POP PUSH1 0x0 PUSH2 0x28AF DUP4 DUP4 PUSH2 0x2C8C JUMP JUMPDEST POP SWAP1 POP PUSH1 0x0 DUP8 DUP6 PUSH1 0x1 ADD DUP2 MLOAD DUP2 LT PUSH2 0x28C3 JUMPI INVALID JUMPDEST PUSH1 0x20 MUL PUSH1 0x20 ADD ADD MLOAD SWAP1 POP PUSH1 0x0 DUP1 DUP4 PUSH1 0x1 PUSH1 0x1 PUSH1 0xA0 SHL SUB AND DUP7 PUSH1 0x1 PUSH1 0x1 PUSH1 0xA0 SHL SUB AND EQ PUSH2 0x28F1 JUMPI DUP3 PUSH1 0x0 PUSH2 0x28F5 JUMP JUMPDEST PUSH1 0x0 DUP4 JUMPDEST SWAP2 POP SWAP2 POP PUSH1 0x0 PUSH1 0x2 DUP11 MLOAD SUB DUP9 LT PUSH2 0x290C JUMPI DUP9 PUSH2 0x294D JUMP JUMPDEST PUSH2 0x294D PUSH32 0x0 DUP8 DUP13 DUP12 PUSH1 0x2 ADD DUP2 MLOAD DUP2 LT PUSH2 0x2940 JUMPI INVALID JUMPDEST PUSH1 0x20 MUL PUSH1 0x20 ADD ADD MLOAD PUSH2 0x2645 JUMP JUMPDEST SWAP1 POP PUSH2 0x297A PUSH32 0x0 DUP9 DUP9 PUSH2 0x2645 JUMP JUMPDEST PUSH1 0x1 PUSH1 0x1 PUSH1 0xA0 SHL SUB AND PUSH4 0x22C0D9F DUP5 DUP5 DUP5 PUSH1 0x0 PUSH1 0x40 MLOAD SWAP1 DUP1 DUP3 MSTORE DUP1 PUSH1 0x1F ADD PUSH1 0x1F NOT AND PUSH1 0x20 ADD DUP3 ADD PUSH1 0x40 MSTORE DUP1 ISZERO PUSH2 0x29B7 JUMPI PUSH1 0x20 DUP3 ADD DUP2 DUP1 CALLDATASIZE DUP4 CALLDATACOPY ADD SWAP1 POP JUMPDEST POP PUSH1 0x40 MLOAD DUP6 PUSH4 0xFFFFFFFF AND PUSH1 0xE0 SHL DUP2 MSTORE PUSH1 0x4 ADD DUP1 DUP6 DUP2 MSTORE PUSH1 0x20 ADD DUP5 DUP2 MSTORE PUSH1 0x20 ADD DUP4 PUSH1 0x1 PUSH1 0x1 PUSH1 0xA0 SHL SUB AND PUSH1 0x1 PUSH1 0x1 PUSH1 0xA0 SHL SUB AND DUP2 MSTORE PUSH1 0x20 ADD DUP1 PUSH1 0x20 ADD DUP3 DUP2 SUB DUP3 MSTORE DUP4 DUP2 DUP2 MLOAD DUP2 MSTORE PUSH1 0x20 ADD SWAP2 POP DUP1 MLOAD SWAP1 PUSH1 0x20 ADD SWAP1 DUP1 DUP4 DUP4 PUSH1 0x0 JUMPDEST DUP4 DUP2 LT ISZERO PUSH2 0x2A28 JUMPI DUP2 DUP2 ADD MLOAD DUP4 DUP3 ADD MSTORE PUSH1 0x20 ADD PUSH2 0x2A10 JUMP JUMPDEST POP POP POP POP SWAP1 POP SWAP1 DUP2 ADD SWAP1 PUSH1 0x1F AND DUP1 ISZERO PUSH2 0x2A55 JUMPI DUP1 DUP3 SUB DUP1 MLOAD PUSH1 0x1 DUP4 PUSH1 0x20 SUB PUSH2 0x100 EXP SUB NOT AND DUP2 MSTORE PUSH1 0x20 ADD SWAP2 POP JUMPDEST POP SWAP6 POP POP POP POP POP POP PUSH1 0x0 PUSH1 0x40 MLOAD DUP1 DUP4 SUB DUP2 PUSH1 0x0 DUP8 DUP1 EXTCODESIZE ISZERO DUP1 ISZERO PUSH2 0x2A77 JUMPI PUSH1 0x0 DUP1 REVERT JUMPDEST POP GAS CALL ISZERO DUP1 ISZERO PUSH2 0x2A8B JUMPI RETURNDATASIZE PUSH1 0x0 DUP1 RETURNDATACOPY RETURNDATASIZE PUSH1 0x0 REVERT JUMPDEST POP POP PUSH1 0x1 SWAP1 SWAP10 ADD SWAP9 POP PUSH2 0x2865 SWAP8 POP POP POP POP POP POP POP POP JUMP JUMPDEST POP POP POP POP JUMP JUMPDEST PUSH1 0x60 PUSH1 0x2 DUP3 MLOAD LT ISZERO PUSH2 0x2B01 JUMPI PUSH1 0x40 DUP1 MLOAD PUSH3 0x461BCD PUSH1 0xE5 SHL DUP2 MSTORE PUSH1 0x20 PUSH1 0x4 DUP3 ADD MSTORE PUSH1 0x1C PUSH1 0x24 DUP3 ADD MSTORE PUSH32 0x50616E63616B654C6962726172793A20494E56414C49445F5041544800000000 PUSH1 0x44 DUP3 ADD MSTORE SWAP1 MLOAD SWAP1 DUP2 SWAP1 SUB PUSH1 0x64 ADD SWAP1 REVERT JUMPDEST DUP2 MLOAD PUSH8 0xFFFFFFFFFFFFFFFF DUP2 GT DUP1 ISZERO PUSH2 0x2B19 JUMPI PUSH1 0x0 DUP1 REVERT JUMPDEST POP PUSH1 0x40 MLOAD SWAP1 DUP1 DUP3 MSTORE DUP1 PUSH1 0x20 MUL PUSH1 0x20 ADD DUP3 ADD PUSH1 0x40 MSTORE DUP1 ISZERO PUSH2 0x2B43 JUMPI DUP2 PUSH1 0x20 ADD PUSH1 0x20 DUP3 MUL DUP1 CALLDATASIZE DUP4 CALLDATACOPY ADD SWAP1 POP JUMPDEST POP SWAP1 POP DUP3 DUP2 PUSH1 0x1 DUP4 MLOAD SUB DUP2 MLOAD DUP2 LT PUSH2 0x2B57 JUMPI INVALID JUMPDEST PUSH1 0x20 SWAP1 DUP2 MUL SWAP2 SWAP1 SWAP2 ADD ADD MSTORE DUP2 MLOAD PUSH1 0x0 NOT ADD JUMPDEST DUP1 ISZERO PUSH2 0x263D JUMPI PUSH1 0x0 DUP1 PUSH2 0x2B99 DUP8 DUP7 PUSH1 0x1 DUP7 SUB DUP2 MLOAD DUP2 LT PUSH2 0x2B85 JUMPI INVALID JUMPDEST PUSH1 0x20 MUL PUSH1 0x20 ADD ADD MLOAD DUP8 DUP7 DUP2 MLOAD DUP2 LT PUSH2 0x25EA JUMPI INVALID JUMPDEST SWAP2 POP SWAP2 POP PUSH2 0x2BBB DUP5 DUP5 DUP2 MLOAD DUP2 LT PUSH2 0x2BAC JUMPI INVALID JUMPDEST PUSH1 0x20 MUL PUSH1 0x20 ADD ADD MLOAD DUP4 DUP4 PUSH2 0x316A JUMP JUMPDEST DUP5 PUSH1 0x1 DUP6 SUB DUP2 MLOAD DUP2 LT PUSH2 0x2BCA JUMPI INVALID JUMPDEST PUSH1 0x20 SWAP1 DUP2 MUL SWAP2 SWAP1 SWAP2 ADD ADD MSTORE POP POP PUSH1 0x0 NOT ADD PUSH2 0x2B69 JUMP JUMPDEST PUSH1 0x0 DUP1 DUP5 GT PUSH2 0x2C20 JUMPI PUSH1 0x40 MLOAD PUSH3 0x461BCD PUSH1 0xE5 SHL DUP2 MSTORE PUSH1 0x4 ADD DUP1 DUP1 PUSH1 0x20 ADD DUP3 DUP2 SUB DUP3 MSTORE PUSH1 0x23 DUP2 MSTORE PUSH1 0x20 ADD DUP1 PUSH2 0x3413 PUSH1 0x23 SWAP2 CODECOPY PUSH1 0x40 ADD SWAP2 POP POP PUSH1 0x40 MLOAD DUP1 SWAP2 SUB SWAP1 REVERT JUMPDEST PUSH1 0x0 DUP4 GT DUP1 ISZERO PUSH2 0x2C30 JUMPI POP PUSH1 0x0 DUP3 GT JUMPDEST PUSH2 0x2C6B JUMPI PUSH1 0x40 MLOAD PUSH3 0x461BCD PUSH1 0xE5 SHL DUP2 MSTORE PUSH1 0x4 ADD DUP1 DUP1 PUSH1 0x20 ADD DUP3 DUP2 SUB DUP3 MSTORE PUSH1 0x26 DUP2 MSTORE PUSH1 0x20 ADD DUP1 PUSH2 0x3488 PUSH1 0x26 SWAP2 CODECOPY PUSH1 0x40 ADD SWAP2 POP POP PUSH1 0x40 MLOAD DUP1 SWAP2 SUB SWAP1 REVERT JUMPDEST DUP3 PUSH2 0x2C7C DUP6 DUP5 PUSH4 0xFFFFFFFF PUSH2 0x2FDE AND JUMP JUMPDEST DUP2 PUSH2 0x2C83 JUMPI INVALID JUMPDEST DIV SWAP5 SWAP4 POP POP POP POP JUMP JUMPDEST PUSH1 0x0 DUP1 DUP3 PUSH1 0x1 PUSH1 0x1 PUSH1 0xA0 SHL SUB AND DUP5 PUSH1 0x1 PUSH1 0x1 PUSH1 0xA0 SHL SUB AND EQ ISZERO PUSH2 0x2CE0 JUMPI PUSH1 0x40 MLOAD PUSH3 0x461BCD PUSH1 0xE5 SHL DUP2 MSTORE PUSH1 0x4 ADD DUP1 DUP1 PUSH1 0x20 ADD DUP3 DUP2 SUB DUP3 MSTORE PUSH1 0x23 DUP2 MSTORE PUSH1 0x20 ADD DUP1 PUSH2 0x33AC PUSH1 0x23 SWAP2 CODECOPY PUSH1 0x40 ADD SWAP2 POP POP PUSH1 0x40 MLOAD DUP1 SWAP2 SUB SWAP1 REVERT JUMPDEST DUP3 PUSH1 0x1 PUSH1 0x1 PUSH1 0xA0 SHL SUB AND DUP5 PUSH1 0x1 PUSH1 0x1 PUSH1 0xA0 SHL SUB AND LT PUSH2 0x2D00 JUMPI DUP3 DUP5 PUSH2 0x2D03 JUMP JUMPDEST DUP4 DUP4 JUMPDEST SWAP1 SWAP3 POP SWAP1 POP PUSH1 0x1 PUSH1 0x1 PUSH1 0xA0 SHL SUB DUP3 AND PUSH2 0x2D63 JUMPI PUSH1 0x40 DUP1 MLOAD PUSH3 0x461BCD PUSH1 0xE5 SHL DUP2 MSTORE PUSH1 0x20 PUSH1 0x4 DUP3 ADD MSTORE PUSH1 0x1C PUSH1 0x24 DUP3 ADD MSTORE PUSH32 0x50616E63616B654C6962726172793A205A45524F5F4144445245535300000000 PUSH1 0x44 DUP3 ADD MSTORE SWAP1 MLOAD SWAP1 DUP2 SWAP1 SUB PUSH1 0x64 ADD SWAP1 REVERT JUMPDEST SWAP3 POP SWAP3 SWAP1 POP JUMP JUMPDEST PUSH1 0x40 DUP1 MLOAD PUSH4 0xE6A43905 PUSH1 0xE0 SHL DUP2 MSTORE PUSH1 0x1 PUSH1 0x1 PUSH1 0xA0 SHL SUB DUP9 DUP2 AND PUSH1 0x4 DUP4 ADD MSTORE DUP8 DUP2 AND PUSH1 0x24 DUP4 ADD MSTORE SWAP2 MLOAD PUSH1 0x0 SWAP3 DUP4 SWAP3 DUP4 SWAP3 PUSH32 0x0 SWAP1 SWAP3 AND SWAP2 PUSH4 0xE6A43905 SWAP2 PUSH1 0x44 DUP1 DUP3 ADD SWAP3 PUSH1 0x20 SWAP3 SWAP1 SWAP2 SWAP1 DUP3 SWAP1 SUB ADD DUP2 DUP7 DUP1 EXTCODESIZE ISZERO DUP1 ISZERO PUSH2 0x2DE4 JUMPI PUSH1 0x0 DUP1 REVERT JUMPDEST POP GAS STATICCALL ISZERO DUP1 ISZERO PUSH2 0x2DF8 JUMPI RETURNDATASIZE PUSH1 0x0 DUP1 RETURNDATACOPY RETURNDATASIZE PUSH1 0x0 REVERT JUMPDEST POP POP POP POP PUSH1 0x40 MLOAD RETURNDATASIZE PUSH1 0x20 DUP2 LT ISZERO PUSH2 0x2E0E JUMPI PUSH1 0x0 DUP1 REVERT JUMPDEST POP MLOAD PUSH1 0x1 PUSH1 0x1 PUSH1 0xA0 SHL SUB AND EQ ISZERO PUSH2 0x2EC1 JUMPI PUSH1 0x40 DUP1 MLOAD PUSH4 0x64E329CB PUSH1 0xE1 SHL DUP2 MSTORE PUSH1 0x1 PUSH1 0x1 PUSH1 0xA0 SHL SUB DUP11 DUP2 AND PUSH1 0x4 DUP4 ADD MSTORE DUP10 DUP2 AND PUSH1 0x24 DUP4 ADD MSTORE SWAP2 MLOAD PUSH32 0x0 SWAP1 SWAP3 AND SWAP2 PUSH4 0xC9C65396 SWAP2 PUSH1 0x44 DUP1 DUP3 ADD SWAP3 PUSH1 0x20 SWAP3 SWAP1 SWAP2 SWAP1 DUP3 SWAP1 SUB ADD DUP2 PUSH1 0x0 DUP8 DUP1 EXTCODESIZE ISZERO DUP1 ISZERO PUSH2 0x2E94 JUMPI PUSH1 0x0 DUP1 REVERT JUMPDEST POP GAS CALL ISZERO DUP1 ISZERO PUSH2 0x2EA8 JUMPI RETURNDATASIZE PUSH1 0x0 DUP1 RETURNDATACOPY RETURNDATASIZE PUSH1 0x0 REVERT JUMPDEST POP POP POP POP PUSH1 0x40 MLOAD RETURNDATASIZE PUSH1 0x20 DUP2 LT ISZERO PUSH2 0x2EBE JUMPI PUSH1 0x0 DUP1 REVERT JUMPDEST POP POP JUMPDEST PUSH1 0x0 DUP1 PUSH2 0x2EEF PUSH32 0x0 DUP12 DUP12 PUSH2 0x3090 JUMP JUMPDEST SWAP2 POP SWAP2 POP DUP2 PUSH1 0x0 EQ DUP1 ISZERO PUSH2 0x2F01 JUMPI POP DUP1 ISZERO JUMPDEST ISZERO PUSH2 0x2F11 JUMPI DUP8 SWAP4 POP DUP7 SWAP3 POP PUSH2 0x2FD1 JUMP JUMPDEST PUSH1 0x0 PUSH2 0x2F1E DUP10 DUP5 DUP5 PUSH2 0x2BE0 JUMP JUMPDEST SWAP1 POP DUP8 DUP2 GT PUSH2 0x2F71 JUMPI DUP6 DUP2 LT ISZERO PUSH2 0x2F66 JUMPI PUSH1 0x40 MLOAD PUSH3 0x461BCD PUSH1 0xE5 SHL DUP2 MSTORE PUSH1 0x4 ADD DUP1 DUP1 PUSH1 0x20 ADD DUP3 DUP2 SUB DUP3 MSTORE PUSH1 0x24 DUP2 MSTORE PUSH1 0x20 ADD DUP1 PUSH2 0x34AE PUSH1 0x24 SWAP2 CODECOPY PUSH1 0x40 ADD SWAP2 POP POP PUSH1 0x40 MLOAD DUP1 SWAP2 SUB SWAP1 REVERT JUMPDEST DUP9 SWAP5 POP SWAP3 POP DUP3 PUSH2 0x2FCF JUMP JUMPDEST PUSH1 0x0 PUSH2 0x2F7E DUP10 DUP5 DUP7 PUSH2 0x2BE0 JUMP JUMPDEST SWAP1 POP DUP10 DUP2 GT ISZERO PUSH2 0x2F8A JUMPI INVALID JUMPDEST DUP8 DUP2 LT ISZERO PUSH2 0x2FC9 JUMPI PUSH1 0x40 MLOAD PUSH3 0x461BCD PUSH1 0xE5 SHL DUP2 MSTORE PUSH1 0x4 ADD DUP1 DUP1 PUSH1 0x20 ADD DUP3 DUP2 SUB DUP3 MSTORE PUSH1 0x24 DUP2 MSTORE PUSH1 0x20 ADD DUP1 PUSH2 0x33EF PUSH1 0x24 SWAP2 CODECOPY PUSH1 0x40 ADD SWAP2 POP POP PUSH1 0x40 MLOAD DUP1 SWAP2 SUB SWAP1 REVERT JUMPDEST SWAP5 POP DUP8 SWAP4 POP JUMPDEST POP JUMPDEST POP POP SWAP7 POP SWAP7 SWAP5 POP POP POP POP POP JUMP JUMPDEST PUSH1 0x0 DUP2 ISZERO DUP1 PUSH2 0x2FF9 JUMPI POP POP DUP1 DUP3 MUL DUP3 DUP3 DUP3 DUP2 PUSH2 0x2FF6 JUMPI INVALID JUMPDEST DIV EQ JUMPDEST PUSH2 0xE40 JUMPI PUSH1 0x40 DUP1 MLOAD PUSH3 0x461BCD PUSH1 0xE5 SHL DUP2 MSTORE PUSH1 0x20 PUSH1 0x4 DUP3 ADD MSTORE PUSH1 0x14 PUSH1 0x24 DUP3 ADD MSTORE PUSH20 0x64732D6D6174682D6D756C2D6F766572666C6F77 PUSH1 0x60 SHL PUSH1 0x44 DUP3 ADD MSTORE SWAP1 MLOAD SWAP1 DUP2 SWAP1 SUB PUSH1 0x64 ADD SWAP1 REVERT JUMPDEST DUP1 DUP3 ADD DUP3 DUP2 LT ISZERO PUSH2 0xE40 JUMPI PUSH1 0x40 DUP1 MLOAD PUSH3 0x461BCD PUSH1 0xE5 SHL DUP2 MSTORE PUSH1 0x20 PUSH1 0x4 DUP3 ADD MSTORE PUSH1 0x14 PUSH1 0x24 DUP3 ADD MSTORE PUSH20 0x64732D6D6174682D6164642D6F766572666C6F77 PUSH1 0x60 SHL PUSH1 0x44 DUP3 ADD MSTORE SWAP1 MLOAD SWAP1 DUP2 SWAP1 SUB PUSH1 0x64 ADD SWAP1 REVERT JUMPDEST PUSH1 0x0 DUP1 PUSH1 0x0 PUSH2 0x309F DUP6 DUP6 PUSH2 0x2C8C JUMP JUMPDEST POP SWAP1 POP PUSH2 0x30AD DUP7 DUP7 DUP7 PUSH2 0x2645 JUMP JUMPDEST POP PUSH1 0x0 DUP1 PUSH2 0x30BC DUP9 DUP9 DUP9 PUSH2 0x2645 JUMP JUMPDEST PUSH1 0x1 PUSH1 0x1 PUSH1 0xA0 SHL SUB AND PUSH4 0x902F1AC PUSH1 0x40 MLOAD DUP2 PUSH4 0xFFFFFFFF AND PUSH1 0xE0 SHL DUP2 MSTORE PUSH1 0x4 ADD PUSH1 0x60 PUSH1 0x40 MLOAD DUP1 DUP4 SUB DUP2 DUP7 DUP1 EXTCODESIZE ISZERO DUP1 ISZERO PUSH2 0x30F4 JUMPI PUSH1 0x0 DUP1 REVERT JUMPDEST POP GAS STATICCALL ISZERO DUP1 ISZERO PUSH2 0x3108 JUMPI RETURNDATASIZE PUSH1 0x0 DUP1 RETURNDATACOPY RETURNDATASIZE PUSH1 0x0 REVERT JUMPDEST POP POP POP POP PUSH1 0x40 MLOAD RETURNDATASIZE PUSH1 0x60 DUP2 LT ISZERO PUSH2 0x311E JUMPI PUSH1 0x0 DUP1 REVERT JUMPDEST POP DUP1 MLOAD PUSH1 0x20 SWAP1 SWAP2 ADD MLOAD PUSH14 0xFFFFFFFFFFFFFFFFFFFFFFFFFFFF SWAP2 DUP3 AND SWAP4 POP AND SWAP1 POP PUSH1 0x1 PUSH1 0x1 PUSH1 0xA0 SHL SUB DUP8 DUP2 AND SWAP1 DUP5 AND EQ PUSH2 0x3158 JUMPI DUP1 DUP3 PUSH2 0x315B JUMP JUMPDEST DUP2 DUP2 JUMPDEST SWAP1 SWAP10 SWAP1 SWAP9 POP SWAP7 POP POP POP POP POP POP POP JUMP JUMPDEST PUSH1 0x0 DUP1 DUP5 GT PUSH2 0x31AA JUMPI PUSH1 0x40 MLOAD PUSH3 0x461BCD PUSH1 0xE5 SHL DUP2 MSTORE PUSH1 0x4 ADD DUP1 DUP1 PUSH1 0x20 ADD DUP3 DUP2 SUB DUP3 MSTORE PUSH1 0x2A DUP2 MSTORE PUSH1 0x20 ADD DUP1 PUSH2 0x32D4 PUSH1 0x2A SWAP2 CODECOPY PUSH1 0x40 ADD SWAP2 POP POP PUSH1 0x40 MLOAD DUP1 SWAP2 SUB SWAP1 REVERT JUMPDEST PUSH1 0x0 DUP4 GT DUP1 ISZERO PUSH2 0x31BA JUMPI POP PUSH1 0x0 DUP3 GT JUMPDEST PUSH2 0x31F5 JUMPI PUSH1 0x40 MLOAD PUSH3 0x461BCD PUSH1 0xE5 SHL DUP2 MSTORE PUSH1 0x4 ADD DUP1 DUP1 PUSH1 0x20 ADD DUP3 DUP2 SUB DUP3 MSTORE PUSH1 0x26 DUP2 MSTORE PUSH1 0x20 ADD DUP1 PUSH2 0x3488 PUSH1 0x26 SWAP2 CODECOPY PUSH1 0x40 ADD SWAP2 POP POP PUSH1 0x40 MLOAD DUP1 SWAP2 SUB SWAP1 REVERT JUMPDEST PUSH1 0x0 PUSH2 0x3219 PUSH2 0x2710 PUSH2 0x320D DUP7 DUP9 PUSH4 0xFFFFFFFF PUSH2 0x2FDE AND JUMP JUMPDEST SWAP1 PUSH4 0xFFFFFFFF PUSH2 0x2FDE AND JUMP JUMPDEST SWAP1 POP PUSH1 0x0 PUSH2 0x3233 PUSH2 0x26F7 PUSH2 0x320D DUP7 DUP10 PUSH4 0xFFFFFFFF PUSH2 0x325A AND JUMP JUMPDEST SWAP1 POP PUSH2 0x3250 PUSH1 0x1 DUP3 DUP5 DUP2 PUSH2 0x3243 JUMPI INVALID JUMPDEST DIV SWAP1 PUSH4 0xFFFFFFFF PUSH2 0x3041 AND JUMP JUMPDEST SWAP7 SWAP6 POP POP POP POP POP POP JUMP JUMPDEST DUP1 DUP3 SUB DUP3 DUP2 GT ISZERO PUSH2 0xE40 JUMPI PUSH1 0x40 DUP1 MLOAD PUSH3 0x461BCD PUSH1 0xE5 SHL DUP2 MSTORE PUSH1 0x20 PUSH1 0x4 DUP3 ADD MSTORE PUSH1 0x15 PUSH1 0x24 DUP3 ADD MSTORE PUSH21 0x64732D6D6174682D7375622D756E646572666C6F77 PUSH1 0x58 SHL PUSH1 0x44 DUP3 ADD MSTORE SWAP1 MLOAD SWAP1 DUP2 SWAP1 SUB PUSH1 0x64 ADD SWAP1 REVERT INVALID POP PUSH2 0x6E63 PUSH2 0x6B65 0x4C PUSH10 0x62726172793A20494E53 SSTORE CHAINID CHAINID 0x49 NUMBER 0x49 GASLIMIT 0x4E SLOAD 0x5F 0x49 0x4E POP SSTORE SLOAD 0x5F COINBASE 0x4D 0x4F SSTORE 0x4E SLOAD POP PUSH2 0x6E63 PUSH2 0x6B65 0x4C PUSH10 0x62726172793A20494E53 SSTORE CHAINID CHAINID 0x49 NUMBER 0x49 GASLIMIT 0x4E SLOAD 0x5F 0x4F SSTORE SLOAD POP SSTORE SLOAD 0x5F COINBASE 0x4D 0x4F SSTORE 0x4E SLOAD SLOAD PUSH19 0x616E7366657248656C7065723A3A7472616E73 PUSH7 0x657246726F6D3A KECCAK256 PUSH21 0x72616E7366657246726F6D206661696C6564547261 PUSH15 0x7366657248656C7065723A3A736166 PUSH6 0x5472616E7366 PUSH6 0x724554483A20 GASLIMIT SLOAD 0x48 KECCAK256 PUSH21 0x72616E73666572206661696C656450616E63616B65 MSTORE PUSH16 0x757465723A2045585049524544000000 STOP STOP STOP STOP STOP STOP STOP POP PUSH2 0x6E63 PUSH2 0x6B65 MSTORE PUSH16 0x757465723A20494E5355464649434945 0x4E SLOAD 0x5F 0x4F SSTORE SLOAD POP SSTORE SLOAD 0x5F COINBASE 0x4D 0x4F SSTORE 0x4E SLOAD POP PUSH2 0x6E63 PUSH2 0x6B65 0x4C PUSH10 0x62726172793A20494445 0x4E SLOAD 0x49 NUMBER COINBASE 0x4C 0x5F COINBASE DIFFICULTY DIFFICULTY MSTORE GASLIMIT MSTORE8 MSTORE8 GASLIMIT MSTORE8 POP PUSH2 0x6E63 PUSH2 0x6B65 MSTORE PUSH16 0x757465723A20494E56414C49445F5041 SLOAD 0x48 STOP STOP STOP STOP STOP POP PUSH2 0x6E63 PUSH2 0x6B65 MSTORE PUSH16 0x757465723A20494E5355464649434945 0x4E SLOAD 0x5F COINBASE 0x5F COINBASE 0x4D 0x4F SSTORE 0x4E SLOAD POP PUSH2 0x6E63 PUSH2 0x6B65 0x4C PUSH10 0x62726172793A20494E53 SSTORE CHAINID CHAINID 0x49 NUMBER 0x49 GASLIMIT 0x4E SLOAD 0x5F COINBASE 0x4D 0x4F SSTORE 0x4E SLOAD SLOAD PUSH19 0x616E7366657248656C7065723A3A7361666554 PUSH19 0x616E736665723A207472616E73666572206661 PUSH10 0x6C656450616E63616B65 MSTORE PUSH16 0x757465723A204558434553534956455F 0x49 0x4E POP SSTORE SLOAD 0x5F COINBASE 0x4D 0x4F SSTORE 0x4E SLOAD POP PUSH2 0x6E63 PUSH2 0x6B65 0x4C PUSH10 0x62726172793A20494E53 SSTORE CHAINID CHAINID 0x49 NUMBER 0x49 GASLIMIT 0x4E SLOAD 0x5F 0x4C 0x49 MLOAD SSTORE 0x49 DIFFICULTY 0x49 SLOAD MSIZE POP PUSH2 0x6E63 PUSH2 0x6B65 MSTORE PUSH16 0x757465723A20494E5355464649434945 0x4E SLOAD 0x5F TIMESTAMP 0x5F COINBASE 0x4D 0x4F SSTORE 0x4E SLOAD LOG2 PUSH5 0x6970667358 0x22 SLT KECCAK256 PUSH16 0x264E6E53773718687916441ECCE2C017 PUSH2 0x4C03 0xE2 MULMOD MSTORE8 SUB DUP6 0xDB 0xD5 0xC LOG3 0xEB LOG1 0xB5 PUSH5 0x736F6C6343 STOP MOD MOD STOP CALLER "
				},
				"gasEstimates": {
					"creation": {
						"codeDepositCost": "2715000",
						"executionCost": "infinite",
						"totalCost": "infinite"
					},
					"external": {
						"WETH()": "infinite",
						"addLiquidity(address,address,uint256,uint256,uint256,uint256,address,uint256)": "infinite",
						"addLiquidityETH(address,uint256,uint256,uint256,address,uint256)": "infinite",
						"factory()": "infinite",
						"getAmountIn(uint256,uint256,uint256)": "infinite",
						"getAmountOut(uint256,uint256,uint256)": "infinite",
						"getAmountsIn(uint256,address[])": "infinite",
						"getAmountsOut(uint256,address[])": "infinite",
						"quote(uint256,uint256,uint256)": "infinite",
						"removeLiquidity(address,address,uint256,uint256,uint256,address,uint256)": "infinite",
						"removeLiquidityETH(address,uint256,uint256,uint256,address,uint256)": "infinite",
						"removeLiquidityETHWithPermit(address,uint256,uint256,uint256,address,uint256,bool,uint8,bytes32,bytes32)": "infinite",
						"removeLiquidityWithPermit(address,address,uint256,uint256,uint256,address,uint256,bool,uint8,bytes32,bytes32)": "infinite",
						"swapETHForExactTokens(uint256,address[],address,uint256)": "infinite",
						"swapExactETHForTokens(uint256,address[],address,uint256)": "infinite",
						"swapExactTokensForETH(uint256,uint256,address[],address,uint256)": "infinite",
						"swapExactTokensForTokens(uint256,uint256,address[],address,uint256)": "infinite",
						"swapTokensForExactETH(uint256,uint256,address[],address,uint256)": "infinite",
						"swapTokensForExactTokens(uint256,uint256,address[],address,uint256)": "infinite"
					},
					"internal": {
						"_addLiquidity(address,address,uint256,uint256,uint256,uint256)": "infinite",
						"_swap(uint256[] memory,address[] memory,address)": "infinite"
					}
				},
				"methodIdentifiers": {
					"WETH()": "ad5c4648",
					"addLiquidity(address,address,uint256,uint256,uint256,uint256,address,uint256)": "e8e33700",
					"addLiquidityETH(address,uint256,uint256,uint256,address,uint256)": "f305d719",
					"factory()": "c45a0155",
					"getAmountIn(uint256,uint256,uint256)": "85f8c259",
					"getAmountOut(uint256,uint256,uint256)": "054d50d4",
					"getAmountsIn(uint256,address[])": "1f00ca74",
					"getAmountsOut(uint256,address[])": "d06ca61f",
					"quote(uint256,uint256,uint256)": "ad615dec",
					"removeLiquidity(address,address,uint256,uint256,uint256,address,uint256)": "baa2abde",
					"removeLiquidityETH(address,uint256,uint256,uint256,address,uint256)": "02751cec",
					"removeLiquidityETHWithPermit(address,uint256,uint256,uint256,address,uint256,bool,uint8,bytes32,bytes32)": "ded9382a",
					"removeLiquidityWithPermit(address,address,uint256,uint256,uint256,address,uint256,bool,uint8,bytes32,bytes32)": "2195995c",
					"swapETHForExactTokens(uint256,address[],address,uint256)": "fb3bdb41",
					"swapExactETHForTokens(uint256,address[],address,uint256)": "7ff36ab5",
					"swapExactTokensForETH(uint256,uint256,address[],address,uint256)": "18cbafe5",
					"swapExactTokensForTokens(uint256,uint256,address[],address,uint256)": "38ed1739",
					"swapTokensForExactETH(uint256,uint256,address[],address,uint256)": "4a25d94a",
					"swapTokensForExactTokens(uint256,uint256,address[],address,uint256)": "8803dbee"
				}
			},
			"storageLayout": {
				"storage": [],
				"types": null
			},
			"userdoc": {
				"methods": {}
			}
		}
	}
}